{
	"DefiToken.sol": {
		"DefiToken": {
			"abi": [
				{
					"inputs": [],
					"stateMutability": "nonpayable",
					"type": "constructor"
				},
				{
					"anonymous": false,
					"inputs": [
						{
							"indexed": true,
							"internalType": "address",
							"name": "owner",
							"type": "address"
						},
						{
							"indexed": true,
							"internalType": "address",
							"name": "spender",
							"type": "address"
						},
						{
							"indexed": false,
							"internalType": "uint256",
							"name": "value",
							"type": "uint256"
						}
					],
					"name": "Approval",
					"type": "event"
				},
				{
					"anonymous": false,
					"inputs": [
						{
							"indexed": true,
							"internalType": "address",
							"name": "from",
							"type": "address"
						},
						{
							"indexed": true,
							"internalType": "address",
							"name": "to",
							"type": "address"
						},
						{
							"indexed": false,
							"internalType": "uint256",
							"name": "value",
							"type": "uint256"
						}
					],
					"name": "Transfer",
					"type": "event"
				},
				{
					"inputs": [],
					"name": "_totalSupply",
					"outputs": [
						{
							"internalType": "uint256",
							"name": "",
							"type": "uint256"
						}
					],
					"stateMutability": "view",
					"type": "function"
				},
				{
					"inputs": [
						{
							"internalType": "address",
							"name": "owner",
							"type": "address"
						},
						{
							"internalType": "address",
							"name": "spender",
							"type": "address"
						}
					],
					"name": "allowance",
					"outputs": [
						{
							"internalType": "uint256",
							"name": "",
							"type": "uint256"
						}
					],
					"stateMutability": "view",
					"type": "function"
				},
				{
					"inputs": [
						{
							"internalType": "address",
							"name": "spender",
							"type": "address"
						},
						{
							"internalType": "uint256",
							"name": "value",
							"type": "uint256"
						}
					],
					"name": "approve",
					"outputs": [
						{
							"internalType": "bool",
							"name": "",
							"type": "bool"
						}
					],
					"stateMutability": "nonpayable",
					"type": "function"
				},
				{
					"inputs": [
						{
							"internalType": "address",
							"name": "owner",
							"type": "address"
						}
					],
					"name": "balanceOf",
					"outputs": [
						{
							"internalType": "uint256",
							"name": "",
							"type": "uint256"
						}
					],
					"stateMutability": "view",
					"type": "function"
				},
				{
					"inputs": [],
					"name": "decimals",
					"outputs": [
						{
							"internalType": "uint8",
							"name": "",
							"type": "uint8"
						}
					],
					"stateMutability": "view",
					"type": "function"
				},
				{
					"inputs": [
						{
							"internalType": "address",
							"name": "spender",
							"type": "address"
						},
						{
							"internalType": "uint256",
							"name": "subtractedValue",
							"type": "uint256"
						}
					],
					"name": "decreaseAllowance",
					"outputs": [
						{
							"internalType": "bool",
							"name": "",
							"type": "bool"
						}
					],
					"stateMutability": "nonpayable",
					"type": "function"
				},
				{
					"inputs": [
						{
							"internalType": "address",
							"name": "spender",
							"type": "address"
						},
						{
							"internalType": "uint256",
							"name": "addedValue",
							"type": "uint256"
						}
					],
					"name": "increaseAllowance",
					"outputs": [
						{
							"internalType": "bool",
							"name": "",
							"type": "bool"
						}
					],
					"stateMutability": "nonpayable",
					"type": "function"
				},
				{
					"inputs": [],
					"name": "name",
					"outputs": [
						{
							"internalType": "string",
							"name": "",
							"type": "string"
						}
					],
					"stateMutability": "view",
					"type": "function"
				},
				{
					"inputs": [],
					"name": "symbol",
					"outputs": [
						{
							"internalType": "string",
							"name": "",
							"type": "string"
						}
					],
					"stateMutability": "view",
					"type": "function"
				},
				{
					"inputs": [],
					"name": "totalSupply",
					"outputs": [
						{
							"internalType": "uint256",
							"name": "",
							"type": "uint256"
						}
					],
					"stateMutability": "pure",
					"type": "function"
				},
				{
					"inputs": [
						{
							"internalType": "address",
							"name": "to",
							"type": "address"
						},
						{
							"internalType": "uint256",
							"name": "value",
							"type": "uint256"
						}
					],
					"name": "transfer",
					"outputs": [
						{
							"internalType": "bool",
							"name": "",
							"type": "bool"
						}
					],
					"stateMutability": "nonpayable",
					"type": "function"
				},
				{
					"inputs": [
						{
							"internalType": "address",
							"name": "from",
							"type": "address"
						},
						{
							"internalType": "address",
							"name": "to",
							"type": "address"
						},
						{
							"internalType": "uint256",
							"name": "value",
							"type": "uint256"
						}
					],
					"name": "transferFrom",
					"outputs": [
						{
							"internalType": "bool",
							"name": "",
							"type": "bool"
						}
					],
					"stateMutability": "nonpayable",
					"type": "function"
				}
			],
			"devdoc": {
				"kind": "dev",
				"methods": {},
				"version": 1
			},
			"evm": {
				"assembly": "    /* \"DefiToken.sol\":130:2807  contract DefiToken is IERC20 {... */\n  mstore(0x40, 0x80)\n    /* \"DefiToken.sol\":495:615  constructor () {... */\n  callvalue\n  dup1\n  iszero\n  tag_1\n  jumpi\n  0x00\n  dup1\n  revert\ntag_1:\n  pop\n    /* \"DefiToken.sol\":233:239  10**13 */\n  0x09184e72a000\n    /* \"DefiToken.sol\":516:525  _balances */\n  0x00\n    /* \"DefiToken.sol\":516:537  _balances[msg.sender] */\n  dup1\n    /* \"DefiToken.sol\":526:536  msg.sender */\n  caller\n    /* \"DefiToken.sol\":516:537  _balances[msg.sender] */\n  0xffffffffffffffffffffffffffffffffffffffff\n  and\n  0xffffffffffffffffffffffffffffffffffffffff\n  and\n  dup2\n  mstore\n  0x20\n  add\n  swap1\n  dup2\n  mstore\n  0x20\n  add\n  0x00\n  keccak256\n    /* \"DefiToken.sol\":516:552  _balances[msg.sender] = _totalSupply */\n  dup2\n  swap1\n  sstore\n  pop\n    /* \"DefiToken.sol\":584:594  msg.sender */\n  caller\n    /* \"DefiToken.sol\":563:610  Transfer(address(0), msg.sender , _totalSupply) */\n  0xffffffffffffffffffffffffffffffffffffffff\n  and\n    /* \"DefiToken.sol\":580:581  0 */\n  0x00\n    /* \"DefiToken.sol\":563:610  Transfer(address(0), msg.sender , _totalSupply) */\n  0xffffffffffffffffffffffffffffffffffffffff\n  and\n  0xddf252ad1be2c89b69c2b068fc378daa952ba7f163c4a11628f55a4df523b3ef\n    /* \"DefiToken.sol\":233:239  10**13 */\n  0x09184e72a000\n    /* \"DefiToken.sol\":563:610  Transfer(address(0), msg.sender , _totalSupply) */\n  mload(0x40)\n  tag_4\n  swap2\n  swap1\n  tag_5\n  jump\t// in\ntag_4:\n  mload(0x40)\n  dup1\n  swap2\n  sub\n  swap1\n  log3\n    /* \"DefiToken.sol\":130:2807  contract DefiToken is IERC20 {... */\n  jump(tag_6)\n    /* \"#utility.yul\":7:84   */\ntag_7:\n    /* \"#utility.yul\":44:51   */\n  0x00\n    /* \"#utility.yul\":73:78   */\n  dup2\n    /* \"#utility.yul\":62:78   */\n  swap1\n  pop\n    /* \"#utility.yul\":7:84   */\n  swap2\n  swap1\n  pop\n  jump\t// out\n    /* \"#utility.yul\":90:208   */\ntag_8:\n    /* \"#utility.yul\":177:201   */\n  tag_12\n    /* \"#utility.yul\":195:200   */\n  dup2\n    /* \"#utility.yul\":177:201   */\n  tag_7\n  jump\t// in\ntag_12:\n    /* \"#utility.yul\":172:175   */\n  dup3\n    /* \"#utility.yul\":165:202   */\n  mstore\n    /* \"#utility.yul\":90:208   */\n  pop\n  pop\n  jump\t// out\n    /* \"#utility.yul\":214:436   */\ntag_5:\n    /* \"#utility.yul\":307:311   */\n  0x00\n    /* \"#utility.yul\":345:347   */\n  0x20\n    /* \"#utility.yul\":334:343   */\n  dup3\n    /* \"#utility.yul\":330:348   */\n  add\n    /* \"#utility.yul\":322:348   */\n  swap1\n  pop\n    /* \"#utility.yul\":358:429   */\n  tag_14\n    /* \"#utility.yul\":426:427   */\n  0x00\n    /* \"#utility.yul\":415:424   */\n  dup4\n    /* \"#utility.yul\":411:428   */\n  add\n    /* \"#utility.yul\":402:408   */\n  dup5\n    /* \"#utility.yul\":358:429   */\n  tag_8\n  jump\t// in\ntag_14:\n    /* \"#utility.yul\":214:436   */\n  swap3\n  swap2\n  pop\n  pop\n  jump\t// out\n    /* \"DefiToken.sol\":130:2807  contract DefiToken is IERC20 {... */\ntag_6:\n  dataSize(sub_0)\n  dup1\n  dataOffset(sub_0)\n  0x00\n  codecopy\n  0x00\n  return\nstop\n\nsub_0: assembly {\n        /* \"DefiToken.sol\":130:2807  contract DefiToken is IERC20 {... */\n      mstore(0x40, 0x80)\n      callvalue\n      dup1\n      iszero\n      tag_1\n      jumpi\n      0x00\n      dup1\n      revert\n    tag_1:\n      pop\n      jumpi(tag_2, lt(calldatasize, 0x04))\n      shr(0xe0, calldataload(0x00))\n      dup1\n      0x3eaaf86b\n      gt\n      tag_15\n      jumpi\n      dup1\n      0x3eaaf86b\n      eq\n      tag_9\n      jumpi\n      dup1\n      0x70a08231\n      eq\n      tag_10\n      jumpi\n      dup1\n      0x95d89b41\n      eq\n      tag_11\n      jumpi\n      dup1\n      0xa457c2d7\n      eq\n      tag_12\n      jumpi\n      dup1\n      0xa9059cbb\n      eq\n      tag_13\n      jumpi\n      dup1\n      0xdd62ed3e\n      eq\n      tag_14\n      jumpi\n      jump(tag_2)\n    tag_15:\n      dup1\n      0x06fdde03\n      eq\n      tag_3\n      jumpi\n      dup1\n      0x095ea7b3\n      eq\n      tag_4\n      jumpi\n      dup1\n      0x18160ddd\n      eq\n      tag_5\n      jumpi\n      dup1\n      0x23b872dd\n      eq\n      tag_6\n      jumpi\n      dup1\n      0x313ce567\n      eq\n      tag_7\n      jumpi\n      dup1\n      0x39509351\n      eq\n      tag_8\n      jumpi\n    tag_2:\n      0x00\n      dup1\n      revert\n        /* \"DefiToken.sol\":243:285  string public constant name = 'Defi Token' */\n    tag_3:\n      tag_16\n      tag_17\n      jump\t// in\n    tag_16:\n      mload(0x40)\n      tag_18\n      swap2\n      swap1\n      tag_19\n      jump\t// in\n    tag_18:\n      mload(0x40)\n      dup1\n      swap2\n      sub\n      swap1\n      return\n        /* \"DefiToken.sol\":1385:1613  function approve(address spender, uint256 value) public override returns (bool) {... */\n    tag_4:\n      tag_20\n      0x04\n      dup1\n      calldatasize\n      sub\n      dup2\n      add\n      swap1\n      tag_21\n      swap2\n      swap1\n      tag_22\n      jump\t// in\n    tag_21:\n      tag_23\n      jump\t// in\n    tag_20:\n      mload(0x40)\n      tag_24\n      swap2\n      swap1\n      tag_25\n      jump\t// in\n    tag_24:\n      mload(0x40)\n      dup1\n      swap2\n      sub\n      swap1\n      return\n        /* \"DefiToken.sol\":619:713  function totalSupply() external override pure returns (uint256) {... */\n    tag_5:\n      tag_26\n      tag_27\n      jump\t// in\n    tag_26:\n      mload(0x40)\n      tag_28\n      swap2\n      swap1\n      tag_29\n      jump\t// in\n    tag_28:\n      mload(0x40)\n      dup1\n      swap2\n      sub\n      swap1\n      return\n        /* \"DefiToken.sol\":1831:2171  function transferFrom( address from, address to, uint256 value) public override returns (bool){... */\n    tag_6:\n      tag_30\n      0x04\n      dup1\n      calldatasize\n      sub\n      dup2\n      add\n      swap1\n      tag_31\n      swap2\n      swap1\n      tag_32\n      jump\t// in\n    tag_31:\n      tag_33\n      jump\t// in\n    tag_30:\n      mload(0x40)\n      tag_34\n      swap2\n      swap1\n      tag_25\n      jump\t// in\n    tag_34:\n      mload(0x40)\n      dup1\n      swap2\n      sub\n      swap1\n      return\n        /* \"DefiToken.sol\":289:324  uint8 public constant decimals = 10 */\n    tag_7:\n      tag_35\n      tag_36\n      jump\t// in\n    tag_35:\n      mload(0x40)\n      tag_37\n      swap2\n      swap1\n      tag_38\n      jump\t// in\n    tag_37:\n      mload(0x40)\n      dup1\n      swap2\n      sub\n      swap1\n      return\n        /* \"DefiToken.sol\":2175:2484  function increaseAllowance( address spender, uint256 addedValue ) public returns (bool){... */\n    tag_8:\n      tag_39\n      0x04\n      dup1\n      calldatasize\n      sub\n      dup2\n      add\n      swap1\n      tag_40\n      swap2\n      swap1\n      tag_22\n      jump\t// in\n    tag_40:\n      tag_41\n      jump\t// in\n    tag_39:\n      mload(0x40)\n      tag_42\n      swap2\n      swap1\n      tag_25\n      jump\t// in\n    tag_42:\n      mload(0x40)\n      dup1\n      swap2\n      sub\n      swap1\n      return\n        /* \"DefiToken.sol\":194:239  uint256 public constant _totalSupply = 10**13 */\n    tag_9:\n      tag_43\n      tag_44\n      jump\t// in\n    tag_43:\n      mload(0x40)\n      tag_45\n      swap2\n      swap1\n      tag_29\n      jump\t// in\n    tag_45:\n      mload(0x40)\n      dup1\n      swap2\n      sub\n      swap1\n      return\n        /* \"DefiToken.sol\":717:824  function balanceOf(address owner) public override view returns (uint256) {... */\n    tag_10:\n      tag_46\n      0x04\n      dup1\n      calldatasize\n      sub\n      dup2\n      add\n      swap1\n      tag_47\n      swap2\n      swap1\n      tag_48\n      jump\t// in\n    tag_47:\n      tag_49\n      jump\t// in\n    tag_46:\n      mload(0x40)\n      tag_50\n      swap2\n      swap1\n      tag_29\n      jump\t// in\n    tag_50:\n      mload(0x40)\n      dup1\n      swap2\n      sub\n      swap1\n      return\n        /* \"DefiToken.sol\":328:366  string public constant symbol = 'DEFI' */\n    tag_11:\n      tag_51\n      tag_52\n      jump\t// in\n    tag_51:\n      mload(0x40)\n      tag_53\n      swap2\n      swap1\n      tag_19\n      jump\t// in\n    tag_53:\n      mload(0x40)\n      dup1\n      swap2\n      sub\n      swap1\n      return\n        /* \"DefiToken.sol\":2488:2804  function decreaseAllowance(address spender,uint256 subtractedValue) public returns (bool){... */\n    tag_12:\n      tag_54\n      0x04\n      dup1\n      calldatasize\n      sub\n      dup2\n      add\n      swap1\n      tag_55\n      swap2\n      swap1\n      tag_22\n      jump\t// in\n    tag_55:\n      tag_56\n      jump\t// in\n    tag_54:\n      mload(0x40)\n      tag_57\n      swap2\n      swap1\n      tag_25\n      jump\t// in\n    tag_57:\n      mload(0x40)\n      dup1\n      swap2\n      sub\n      swap1\n      return\n        /* \"DefiToken.sol\":1056:1381  function transfer(address to, uint256 value) public override returns (bool) {... */\n    tag_13:\n      tag_58\n      0x04\n      dup1\n      calldatasize\n      sub\n      dup2\n      add\n      swap1\n      tag_59\n      swap2\n      swap1\n      tag_22\n      jump\t// in\n    tag_59:\n      tag_60\n      jump\t// in\n    tag_58:\n      mload(0x40)\n      tag_61\n      swap2\n      swap1\n      tag_25\n      jump\t// in\n    tag_61:\n      mload(0x40)\n      dup1\n      swap2\n      sub\n      swap1\n      return\n        /* \"DefiToken.sol\":918:1047  function allowance(address owner,address spender)public override view returns (uint256){... */\n    tag_14:\n      tag_62\n      0x04\n      dup1\n      calldatasize\n      sub\n      dup2\n      add\n      swap1\n      tag_63\n      swap2\n      swap1\n      tag_64\n      jump\t// in\n    tag_63:\n      tag_65\n      jump\t// in\n    tag_62:\n      mload(0x40)\n      tag_66\n      swap2\n      swap1\n      tag_29\n      jump\t// in\n    tag_66:\n      mload(0x40)\n      dup1\n      swap2\n      sub\n      swap1\n      return\n        /* \"DefiToken.sol\":243:285  string public constant name = 'Defi Token' */\n    tag_17:\n      mload(0x40)\n      dup1\n      0x40\n      add\n      0x40\n      mstore\n      dup1\n      0x0a\n      dup2\n      mstore\n      0x20\n      add\n      0x4465666920546f6b656e00000000000000000000000000000000000000000000\n      dup2\n      mstore\n      pop\n      dup2\n      jump\t// out\n        /* \"DefiToken.sol\":1385:1613  function approve(address spender, uint256 value) public override returns (bool) {... */\n    tag_23:\n        /* \"DefiToken.sol\":1459:1463  bool */\n      0x00\n        /* \"DefiToken.sol\":1498:1499  0 */\n      dup1\n        /* \"DefiToken.sol\":1479:1500  spender != address(0) */\n      0xffffffffffffffffffffffffffffffffffffffff\n      and\n        /* \"DefiToken.sol\":1479:1486  spender */\n      dup4\n        /* \"DefiToken.sol\":1479:1500  spender != address(0) */\n      0xffffffffffffffffffffffffffffffffffffffff\n      and\n      eq\n      iszero\n        /* \"DefiToken.sol\":1471:1501  require(spender != address(0)) */\n      tag_68\n      jumpi\n      0x00\n      dup1\n      revert\n    tag_68:\n        /* \"DefiToken.sol\":1539:1544  value */\n      dup2\n        /* \"DefiToken.sol\":1507:1515  _allowed */\n      0x01\n        /* \"DefiToken.sol\":1507:1527  _allowed[msg.sender] */\n      0x00\n        /* \"DefiToken.sol\":1516:1526  msg.sender */\n      caller\n        /* \"DefiToken.sol\":1507:1527  _allowed[msg.sender] */\n      0xffffffffffffffffffffffffffffffffffffffff\n      and\n      0xffffffffffffffffffffffffffffffffffffffff\n      and\n      dup2\n      mstore\n      0x20\n      add\n      swap1\n      dup2\n      mstore\n      0x20\n      add\n      0x00\n      keccak256\n        /* \"DefiToken.sol\":1507:1536  _allowed[msg.sender][spender] */\n      0x00\n        /* \"DefiToken.sol\":1528:1535  spender */\n      dup6\n        /* \"DefiToken.sol\":1507:1536  _allowed[msg.sender][spender] */\n      0xffffffffffffffffffffffffffffffffffffffff\n      and\n      0xffffffffffffffffffffffffffffffffffffffff\n      and\n      dup2\n      mstore\n      0x20\n      add\n      swap1\n      dup2\n      mstore\n      0x20\n      add\n      0x00\n      keccak256\n        /* \"DefiToken.sol\":1507:1544  _allowed[msg.sender][spender] = value */\n      dup2\n      swap1\n      sstore\n      pop\n        /* \"DefiToken.sol\":1576:1583  spender */\n      dup3\n        /* \"DefiToken.sol\":1555:1591  Approval(msg.sender, spender, value) */\n      0xffffffffffffffffffffffffffffffffffffffff\n      and\n        /* \"DefiToken.sol\":1564:1574  msg.sender */\n      caller\n        /* \"DefiToken.sol\":1555:1591  Approval(msg.sender, spender, value) */\n      0xffffffffffffffffffffffffffffffffffffffff\n      and\n      0x8c5be1e5ebec7d5bd14f71427d1e84f3dd0314c0f7b2291e5b200ac8c7c3b925\n        /* \"DefiToken.sol\":1585:1590  value */\n      dup5\n        /* \"DefiToken.sol\":1555:1591  Approval(msg.sender, spender, value) */\n      mload(0x40)\n      tag_69\n      swap2\n      swap1\n      tag_29\n      jump\t// in\n    tag_69:\n      mload(0x40)\n      dup1\n      swap2\n      sub\n      swap1\n      log3\n        /* \"DefiToken.sol\":1604:1608  true */\n      0x01\n        /* \"DefiToken.sol\":1597:1608  return true */\n      swap1\n      pop\n        /* \"DefiToken.sol\":1385:1613  function approve(address spender, uint256 value) public override returns (bool) {... */\n      swap3\n      swap2\n      pop\n      pop\n      jump\t// out\n        /* \"DefiToken.sol\":619:713  function totalSupply() external override pure returns (uint256) {... */\n    tag_27:\n        /* \"DefiToken.sol\":674:681  uint256 */\n      0x00\n        /* \"DefiToken.sol\":233:239  10**13 */\n      0x09184e72a000\n        /* \"DefiToken.sol\":689:708  return _totalSupply */\n      swap1\n      pop\n        /* \"DefiToken.sol\":619:713  function totalSupply() external override pure returns (uint256) {... */\n      swap1\n      jump\t// out\n        /* \"DefiToken.sol\":1831:2171  function transferFrom( address from, address to, uint256 value) public override returns (bool){... */\n    tag_33:\n        /* \"DefiToken.sol\":1920:1924  bool */\n      0x00\n        /* \"DefiToken.sol\":1948:1957  _balances */\n      dup1\n        /* \"DefiToken.sol\":1948:1963  _balances[from] */\n      0x00\n        /* \"DefiToken.sol\":1958:1962  from */\n      dup6\n        /* \"DefiToken.sol\":1948:1963  _balances[from] */\n      0xffffffffffffffffffffffffffffffffffffffff\n      and\n      0xffffffffffffffffffffffffffffffffffffffff\n      and\n      dup2\n      mstore\n      0x20\n      add\n      swap1\n      dup2\n      mstore\n      0x20\n      add\n      0x00\n      keccak256\n      sload\n        /* \"DefiToken.sol\":1939:1944  value */\n      dup3\n        /* \"DefiToken.sol\":1939:1963  value <= _balances[from] */\n      gt\n      iszero\n        /* \"DefiToken.sol\":1931:1964  require(value <= _balances[from]) */\n      tag_72\n      jumpi\n      0x00\n      dup1\n      revert\n    tag_72:\n        /* \"DefiToken.sol\":1987:1995  _allowed */\n      0x01\n        /* \"DefiToken.sol\":1987:2001  _allowed[from] */\n      0x00\n        /* \"DefiToken.sol\":1996:2000  from */\n      dup6\n        /* \"DefiToken.sol\":1987:2001  _allowed[from] */\n      0xffffffffffffffffffffffffffffffffffffffff\n      and\n      0xffffffffffffffffffffffffffffffffffffffff\n      and\n      dup2\n      mstore\n      0x20\n      add\n      swap1\n      dup2\n      mstore\n      0x20\n      add\n      0x00\n      keccak256\n        /* \"DefiToken.sol\":1987:2013  _allowed[from][msg.sender] */\n      0x00\n        /* \"DefiToken.sol\":2002:2012  msg.sender */\n      caller\n        /* \"DefiToken.sol\":1987:2013  _allowed[from][msg.sender] */\n      0xffffffffffffffffffffffffffffffffffffffff\n      and\n      0xffffffffffffffffffffffffffffffffffffffff\n      and\n      dup2\n      mstore\n      0x20\n      add\n      swap1\n      dup2\n      mstore\n      0x20\n      add\n      0x00\n      keccak256\n      sload\n        /* \"DefiToken.sol\":1978:1983  value */\n      dup3\n        /* \"DefiToken.sol\":1978:2013  value <= _allowed[from][msg.sender] */\n      gt\n      iszero\n        /* \"DefiToken.sol\":1970:2014  require(value <= _allowed[from][msg.sender]) */\n      tag_73\n      jumpi\n      0x00\n      dup1\n      revert\n    tag_73:\n        /* \"DefiToken.sol\":2042:2043  0 */\n      0x00\n        /* \"DefiToken.sol\":2028:2044  to != address(0) */\n      0xffffffffffffffffffffffffffffffffffffffff\n      and\n        /* \"DefiToken.sol\":2028:2030  to */\n      dup4\n        /* \"DefiToken.sol\":2028:2044  to != address(0) */\n      0xffffffffffffffffffffffffffffffffffffffff\n      and\n      eq\n      iszero\n        /* \"DefiToken.sol\":2020:2045  require(to != address(0)) */\n      tag_74\n      jumpi\n      0x00\n      dup1\n      revert\n    tag_74:\n        /* \"DefiToken.sol\":2080:2117  _allowed[from][msg.sender].sub(value) */\n      tag_75\n        /* \"DefiToken.sol\":2111:2116  value */\n      dup3\n        /* \"DefiToken.sol\":2080:2088  _allowed */\n      0x01\n        /* \"DefiToken.sol\":2080:2094  _allowed[from] */\n      0x00\n        /* \"DefiToken.sol\":2089:2093  from */\n      dup8\n        /* \"DefiToken.sol\":2080:2094  _allowed[from] */\n      0xffffffffffffffffffffffffffffffffffffffff\n      and\n      0xffffffffffffffffffffffffffffffffffffffff\n      and\n      dup2\n      mstore\n      0x20\n      add\n      swap1\n      dup2\n      mstore\n      0x20\n      add\n      0x00\n      keccak256\n        /* \"DefiToken.sol\":2080:2106  _allowed[from][msg.sender] */\n      0x00\n        /* \"DefiToken.sol\":2095:2105  msg.sender */\n      caller\n        /* \"DefiToken.sol\":2080:2106  _allowed[from][msg.sender] */\n      0xffffffffffffffffffffffffffffffffffffffff\n      and\n      0xffffffffffffffffffffffffffffffffffffffff\n      and\n      dup2\n      mstore\n      0x20\n      add\n      swap1\n      dup2\n      mstore\n      0x20\n      add\n      0x00\n      keccak256\n      sload\n        /* \"DefiToken.sol\":2080:2110  _allowed[from][msg.sender].sub */\n      tag_76\n      swap1\n        /* \"DefiToken.sol\":2080:2117  _allowed[from][msg.sender].sub(value) */\n      swap2\n      swap1\n      0xffffffff\n      and\n      jump\t// in\n    tag_75:\n        /* \"DefiToken.sol\":2051:2059  _allowed */\n      0x01\n        /* \"DefiToken.sol\":2051:2065  _allowed[from] */\n      0x00\n        /* \"DefiToken.sol\":2060:2064  from */\n      dup7\n        /* \"DefiToken.sol\":2051:2065  _allowed[from] */\n      0xffffffffffffffffffffffffffffffffffffffff\n      and\n      0xffffffffffffffffffffffffffffffffffffffff\n      and\n      dup2\n      mstore\n      0x20\n      add\n      swap1\n      dup2\n      mstore\n      0x20\n      add\n      0x00\n      keccak256\n        /* \"DefiToken.sol\":2051:2077  _allowed[from][msg.sender] */\n      0x00\n        /* \"DefiToken.sol\":2066:2076  msg.sender */\n      caller\n        /* \"DefiToken.sol\":2051:2077  _allowed[from][msg.sender] */\n      0xffffffffffffffffffffffffffffffffffffffff\n      and\n      0xffffffffffffffffffffffffffffffffffffffff\n      and\n      dup2\n      mstore\n      0x20\n      add\n      swap1\n      dup2\n      mstore\n      0x20\n      add\n      0x00\n      keccak256\n        /* \"DefiToken.sol\":2051:2117  _allowed[from][msg.sender] = _allowed[from][msg.sender].sub(value) */\n      dup2\n      swap1\n      sstore\n      pop\n        /* \"DefiToken.sol\":2123:2149  _transfer(from, to, value) */\n      tag_77\n        /* \"DefiToken.sol\":2133:2137  from */\n      dup5\n        /* \"DefiToken.sol\":2139:2141  to */\n      dup5\n        /* \"DefiToken.sol\":2143:2148  value */\n      dup5\n        /* \"DefiToken.sol\":2123:2132  _transfer */\n      tag_78\n        /* \"DefiToken.sol\":2123:2149  _transfer(from, to, value) */\n      jump\t// in\n    tag_77:\n        /* \"DefiToken.sol\":2162:2166  true */\n      0x01\n        /* \"DefiToken.sol\":2155:2166  return true */\n      swap1\n      pop\n        /* \"DefiToken.sol\":1831:2171  function transferFrom( address from, address to, uint256 value) public override returns (bool){... */\n      swap4\n      swap3\n      pop\n      pop\n      pop\n      jump\t// out\n        /* \"DefiToken.sol\":289:324  uint8 public constant decimals = 10 */\n    tag_36:\n        /* \"DefiToken.sol\":322:324  10 */\n      0x0a\n        /* \"DefiToken.sol\":289:324  uint8 public constant decimals = 10 */\n      dup2\n      jump\t// out\n        /* \"DefiToken.sol\":2175:2484  function increaseAllowance( address spender, uint256 addedValue ) public returns (bool){... */\n    tag_41:\n        /* \"DefiToken.sol\":2257:2261  bool */\n      0x00\n        /* \"DefiToken.sol\":2295:2296  0 */\n      dup1\n        /* \"DefiToken.sol\":2276:2297  spender != address(0) */\n      0xffffffffffffffffffffffffffffffffffffffff\n      and\n        /* \"DefiToken.sol\":2276:2283  spender */\n      dup4\n        /* \"DefiToken.sol\":2276:2297  spender != address(0) */\n      0xffffffffffffffffffffffffffffffffffffffff\n      and\n      eq\n      iszero\n        /* \"DefiToken.sol\":2268:2298  require(spender != address(0)) */\n      tag_80\n      jumpi\n      0x00\n      dup1\n      revert\n    tag_80:\n        /* \"DefiToken.sol\":2345:2390  _allowed[msg.sender][spender].add(addedValue) */\n      tag_81\n        /* \"DefiToken.sol\":2379:2389  addedValue */\n      dup3\n        /* \"DefiToken.sol\":2345:2353  _allowed */\n      0x01\n        /* \"DefiToken.sol\":2345:2365  _allowed[msg.sender] */\n      0x00\n        /* \"DefiToken.sol\":2354:2364  msg.sender */\n      caller\n        /* \"DefiToken.sol\":2345:2365  _allowed[msg.sender] */\n      0xffffffffffffffffffffffffffffffffffffffff\n      and\n      0xffffffffffffffffffffffffffffffffffffffff\n      and\n      dup2\n      mstore\n      0x20\n      add\n      swap1\n      dup2\n      mstore\n      0x20\n      add\n      0x00\n      keccak256\n        /* \"DefiToken.sol\":2345:2374  _allowed[msg.sender][spender] */\n      0x00\n        /* \"DefiToken.sol\":2366:2373  spender */\n      dup7\n        /* \"DefiToken.sol\":2345:2374  _allowed[msg.sender][spender] */\n      0xffffffffffffffffffffffffffffffffffffffff\n      and\n      0xffffffffffffffffffffffffffffffffffffffff\n      and\n      dup2\n      mstore\n      0x20\n      add\n      swap1\n      dup2\n      mstore\n      0x20\n      add\n      0x00\n      keccak256\n      sload\n        /* \"DefiToken.sol\":2345:2378  _allowed[msg.sender][spender].add */\n      tag_82\n      swap1\n        /* \"DefiToken.sol\":2345:2390  _allowed[msg.sender][spender].add(addedValue) */\n      swap2\n      swap1\n      0xffffffff\n      and\n      jump\t// in\n    tag_81:\n        /* \"DefiToken.sol\":2305:2313  _allowed */\n      0x01\n        /* \"DefiToken.sol\":2305:2325  _allowed[msg.sender] */\n      0x00\n        /* \"DefiToken.sol\":2314:2324  msg.sender */\n      caller\n        /* \"DefiToken.sol\":2305:2325  _allowed[msg.sender] */\n      0xffffffffffffffffffffffffffffffffffffffff\n      and\n      0xffffffffffffffffffffffffffffffffffffffff\n      and\n      dup2\n      mstore\n      0x20\n      add\n      swap1\n      dup2\n      mstore\n      0x20\n      add\n      0x00\n      keccak256\n        /* \"DefiToken.sol\":2305:2334  _allowed[msg.sender][spender] */\n      0x00\n        /* \"DefiToken.sol\":2326:2333  spender */\n      dup6\n        /* \"DefiToken.sol\":2305:2334  _allowed[msg.sender][spender] */\n      0xffffffffffffffffffffffffffffffffffffffff\n      and\n      0xffffffffffffffffffffffffffffffffffffffff\n      and\n      dup2\n      mstore\n      0x20\n      add\n      swap1\n      dup2\n      mstore\n      0x20\n      add\n      0x00\n      keccak256\n        /* \"DefiToken.sol\":2305:2391  _allowed[msg.sender][spender] = (... */\n      dup2\n      swap1\n      sstore\n      pop\n        /* \"DefiToken.sol\":2423:2430  spender */\n      dup3\n        /* \"DefiToken.sol\":2402:2462  Approval(msg.sender, spender, _allowed[msg.sender][spender]) */\n      0xffffffffffffffffffffffffffffffffffffffff\n      and\n        /* \"DefiToken.sol\":2411:2421  msg.sender */\n      caller\n        /* \"DefiToken.sol\":2402:2462  Approval(msg.sender, spender, _allowed[msg.sender][spender]) */\n      0xffffffffffffffffffffffffffffffffffffffff\n      and\n      0x8c5be1e5ebec7d5bd14f71427d1e84f3dd0314c0f7b2291e5b200ac8c7c3b925\n        /* \"DefiToken.sol\":2432:2440  _allowed */\n      0x01\n        /* \"DefiToken.sol\":2432:2452  _allowed[msg.sender] */\n      0x00\n        /* \"DefiToken.sol\":2441:2451  msg.sender */\n      caller\n        /* \"DefiToken.sol\":2432:2452  _allowed[msg.sender] */\n      0xffffffffffffffffffffffffffffffffffffffff\n      and\n      0xffffffffffffffffffffffffffffffffffffffff\n      and\n      dup2\n      mstore\n      0x20\n      add\n      swap1\n      dup2\n      mstore\n      0x20\n      add\n      0x00\n      keccak256\n        /* \"DefiToken.sol\":2432:2461  _allowed[msg.sender][spender] */\n      0x00\n        /* \"DefiToken.sol\":2453:2460  spender */\n      dup8\n        /* \"DefiToken.sol\":2432:2461  _allowed[msg.sender][spender] */\n      0xffffffffffffffffffffffffffffffffffffffff\n      and\n      0xffffffffffffffffffffffffffffffffffffffff\n      and\n      dup2\n      mstore\n      0x20\n      add\n      swap1\n      dup2\n      mstore\n      0x20\n      add\n      0x00\n      keccak256\n      sload\n        /* \"DefiToken.sol\":2402:2462  Approval(msg.sender, spender, _allowed[msg.sender][spender]) */\n      mload(0x40)\n      tag_83\n      swap2\n      swap1\n      tag_29\n      jump\t// in\n    tag_83:\n      mload(0x40)\n      dup1\n      swap2\n      sub\n      swap1\n      log3\n        /* \"DefiToken.sol\":2475:2479  true */\n      0x01\n        /* \"DefiToken.sol\":2468:2479  return true */\n      swap1\n      pop\n        /* \"DefiToken.sol\":2175:2484  function increaseAllowance( address spender, uint256 addedValue ) public returns (bool){... */\n      swap3\n      swap2\n      pop\n      pop\n      jump\t// out\n        /* \"DefiToken.sol\":194:239  uint256 public constant _totalSupply = 10**13 */\n    tag_44:\n        /* \"DefiToken.sol\":233:239  10**13 */\n      0x09184e72a000\n        /* \"DefiToken.sol\":194:239  uint256 public constant _totalSupply = 10**13 */\n      dup2\n      jump\t// out\n        /* \"DefiToken.sol\":717:824  function balanceOf(address owner) public override view returns (uint256) {... */\n    tag_49:\n        /* \"DefiToken.sol\":781:788  uint256 */\n      0x00\n        /* \"DefiToken.sol\":803:812  _balances */\n      dup1\n        /* \"DefiToken.sol\":803:819  _balances[owner] */\n      0x00\n        /* \"DefiToken.sol\":813:818  owner */\n      dup4\n        /* \"DefiToken.sol\":803:819  _balances[owner] */\n      0xffffffffffffffffffffffffffffffffffffffff\n      and\n      0xffffffffffffffffffffffffffffffffffffffff\n      and\n      dup2\n      mstore\n      0x20\n      add\n      swap1\n      dup2\n      mstore\n      0x20\n      add\n      0x00\n      keccak256\n      sload\n        /* \"DefiToken.sol\":796:819  return _balances[owner] */\n      swap1\n      pop\n        /* \"DefiToken.sol\":717:824  function balanceOf(address owner) public override view returns (uint256) {... */\n      swap2\n      swap1\n      pop\n      jump\t// out\n        /* \"DefiToken.sol\":328:366  string public constant symbol = 'DEFI' */\n    tag_52:\n      mload(0x40)\n      dup1\n      0x40\n      add\n      0x40\n      mstore\n      dup1\n      0x04\n      dup2\n      mstore\n      0x20\n      add\n      0x4445464900000000000000000000000000000000000000000000000000000000\n      dup2\n      mstore\n      pop\n      dup2\n      jump\t// out\n        /* \"DefiToken.sol\":2488:2804  function decreaseAllowance(address spender,uint256 subtractedValue) public returns (bool){... */\n    tag_56:\n        /* \"DefiToken.sol\":2572:2576  bool */\n      0x00\n        /* \"DefiToken.sol\":2610:2611  0 */\n      dup1\n        /* \"DefiToken.sol\":2591:2612  spender != address(0) */\n      0xffffffffffffffffffffffffffffffffffffffff\n      and\n        /* \"DefiToken.sol\":2591:2598  spender */\n      dup4\n        /* \"DefiToken.sol\":2591:2612  spender != address(0) */\n      0xffffffffffffffffffffffffffffffffffffffff\n      and\n      eq\n      iszero\n        /* \"DefiToken.sol\":2583:2613  require(spender != address(0)) */\n      tag_86\n      jumpi\n      0x00\n      dup1\n      revert\n    tag_86:\n        /* \"DefiToken.sol\":2660:2710  _allowed[msg.sender][spender].sub(subtractedValue) */\n      tag_87\n        /* \"DefiToken.sol\":2694:2709  subtractedValue */\n      dup3\n        /* \"DefiToken.sol\":2660:2668  _allowed */\n      0x01\n        /* \"DefiToken.sol\":2660:2680  _allowed[msg.sender] */\n      0x00\n        /* \"DefiToken.sol\":2669:2679  msg.sender */\n      caller\n        /* \"DefiToken.sol\":2660:2680  _allowed[msg.sender] */\n      0xffffffffffffffffffffffffffffffffffffffff\n      and\n      0xffffffffffffffffffffffffffffffffffffffff\n      and\n      dup2\n      mstore\n      0x20\n      add\n      swap1\n      dup2\n      mstore\n      0x20\n      add\n      0x00\n      keccak256\n        /* \"DefiToken.sol\":2660:2689  _allowed[msg.sender][spender] */\n      0x00\n        /* \"DefiToken.sol\":2681:2688  spender */\n      dup7\n        /* \"DefiToken.sol\":2660:2689  _allowed[msg.sender][spender] */\n      0xffffffffffffffffffffffffffffffffffffffff\n      and\n      0xffffffffffffffffffffffffffffffffffffffff\n      and\n      dup2\n      mstore\n      0x20\n      add\n      swap1\n      dup2\n      mstore\n      0x20\n      add\n      0x00\n      keccak256\n      sload\n        /* \"DefiToken.sol\":2660:2693  _allowed[msg.sender][spender].sub */\n      tag_76\n      swap1\n        /* \"DefiToken.sol\":2660:2710  _allowed[msg.sender][spender].sub(subtractedValue) */\n      swap2\n      swap1\n      0xffffffff\n      and\n      jump\t// in\n    tag_87:\n        /* \"DefiToken.sol\":2620:2628  _allowed */\n      0x01\n        /* \"DefiToken.sol\":2620:2640  _allowed[msg.sender] */\n      0x00\n        /* \"DefiToken.sol\":2629:2639  msg.sender */\n      caller\n        /* \"DefiToken.sol\":2620:2640  _allowed[msg.sender] */\n      0xffffffffffffffffffffffffffffffffffffffff\n      and\n      0xffffffffffffffffffffffffffffffffffffffff\n      and\n      dup2\n      mstore\n      0x20\n      add\n      swap1\n      dup2\n      mstore\n      0x20\n      add\n      0x00\n      keccak256\n        /* \"DefiToken.sol\":2620:2649  _allowed[msg.sender][spender] */\n      0x00\n        /* \"DefiToken.sol\":2641:2648  spender */\n      dup6\n        /* \"DefiToken.sol\":2620:2649  _allowed[msg.sender][spender] */\n      0xffffffffffffffffffffffffffffffffffffffff\n      and\n      0xffffffffffffffffffffffffffffffffffffffff\n      and\n      dup2\n      mstore\n      0x20\n      add\n      swap1\n      dup2\n      mstore\n      0x20\n      add\n      0x00\n      keccak256\n        /* \"DefiToken.sol\":2620:2711  _allowed[msg.sender][spender] = (... */\n      dup2\n      swap1\n      sstore\n      pop\n        /* \"DefiToken.sol\":2743:2750  spender */\n      dup3\n        /* \"DefiToken.sol\":2722:2782  Approval(msg.sender, spender, _allowed[msg.sender][spender]) */\n      0xffffffffffffffffffffffffffffffffffffffff\n      and\n        /* \"DefiToken.sol\":2731:2741  msg.sender */\n      caller\n        /* \"DefiToken.sol\":2722:2782  Approval(msg.sender, spender, _allowed[msg.sender][spender]) */\n      0xffffffffffffffffffffffffffffffffffffffff\n      and\n      0x8c5be1e5ebec7d5bd14f71427d1e84f3dd0314c0f7b2291e5b200ac8c7c3b925\n        /* \"DefiToken.sol\":2752:2760  _allowed */\n      0x01\n        /* \"DefiToken.sol\":2752:2772  _allowed[msg.sender] */\n      0x00\n        /* \"DefiToken.sol\":2761:2771  msg.sender */\n      caller\n        /* \"DefiToken.sol\":2752:2772  _allowed[msg.sender] */\n      0xffffffffffffffffffffffffffffffffffffffff\n      and\n      0xffffffffffffffffffffffffffffffffffffffff\n      and\n      dup2\n      mstore\n      0x20\n      add\n      swap1\n      dup2\n      mstore\n      0x20\n      add\n      0x00\n      keccak256\n        /* \"DefiToken.sol\":2752:2781  _allowed[msg.sender][spender] */\n      0x00\n        /* \"DefiToken.sol\":2773:2780  spender */\n      dup8\n        /* \"DefiToken.sol\":2752:2781  _allowed[msg.sender][spender] */\n      0xffffffffffffffffffffffffffffffffffffffff\n      and\n      0xffffffffffffffffffffffffffffffffffffffff\n      and\n      dup2\n      mstore\n      0x20\n      add\n      swap1\n      dup2\n      mstore\n      0x20\n      add\n      0x00\n      keccak256\n      sload\n        /* \"DefiToken.sol\":2722:2782  Approval(msg.sender, spender, _allowed[msg.sender][spender]) */\n      mload(0x40)\n      tag_88\n      swap2\n      swap1\n      tag_29\n      jump\t// in\n    tag_88:\n      mload(0x40)\n      dup1\n      swap2\n      sub\n      swap1\n      log3\n        /* \"DefiToken.sol\":2795:2799  true */\n      0x01\n        /* \"DefiToken.sol\":2788:2799  return true */\n      swap1\n      pop\n        /* \"DefiToken.sol\":2488:2804  function decreaseAllowance(address spender,uint256 subtractedValue) public returns (bool){... */\n      swap3\n      swap2\n      pop\n      pop\n      jump\t// out\n        /* \"DefiToken.sol\":1056:1381  function transfer(address to, uint256 value) public override returns (bool) {... */\n    tag_60:\n        /* \"DefiToken.sol\":1126:1130  bool */\n      0x00\n        /* \"DefiToken.sol\":1155:1164  _balances */\n      dup1\n        /* \"DefiToken.sol\":1155:1176  _balances[msg.sender] */\n      0x00\n        /* \"DefiToken.sol\":1165:1175  msg.sender */\n      caller\n        /* \"DefiToken.sol\":1155:1176  _balances[msg.sender] */\n      0xffffffffffffffffffffffffffffffffffffffff\n      and\n      0xffffffffffffffffffffffffffffffffffffffff\n      and\n      dup2\n      mstore\n      0x20\n      add\n      swap1\n      dup2\n      mstore\n      0x20\n      add\n      0x00\n      keccak256\n      sload\n        /* \"DefiToken.sol\":1146:1151  value */\n      dup3\n        /* \"DefiToken.sol\":1146:1176  value <= _balances[msg.sender] */\n      gt\n      iszero\n        /* \"DefiToken.sol\":1138:1177  require(value <= _balances[msg.sender]) */\n      tag_90\n      jumpi\n      0x00\n      dup1\n      revert\n    tag_90:\n        /* \"DefiToken.sol\":1205:1206  0 */\n      0x00\n        /* \"DefiToken.sol\":1191:1207  to != address(0) */\n      0xffffffffffffffffffffffffffffffffffffffff\n      and\n        /* \"DefiToken.sol\":1191:1193  to */\n      dup4\n        /* \"DefiToken.sol\":1191:1207  to != address(0) */\n      0xffffffffffffffffffffffffffffffffffffffff\n      and\n      eq\n      iszero\n        /* \"DefiToken.sol\":1183:1208  require(to != address(0)) */\n      tag_91\n      jumpi\n      0x00\n      dup1\n      revert\n    tag_91:\n        /* \"DefiToken.sol\":1239:1271  _balances[msg.sender].sub(value) */\n      tag_92\n        /* \"DefiToken.sol\":1265:1270  value */\n      dup3\n        /* \"DefiToken.sol\":1239:1248  _balances */\n      0x00\n        /* \"DefiToken.sol\":1239:1260  _balances[msg.sender] */\n      dup1\n        /* \"DefiToken.sol\":1249:1259  msg.sender */\n      caller\n        /* \"DefiToken.sol\":1239:1260  _balances[msg.sender] */\n      0xffffffffffffffffffffffffffffffffffffffff\n      and\n      0xffffffffffffffffffffffffffffffffffffffff\n      and\n      dup2\n      mstore\n      0x20\n      add\n      swap1\n      dup2\n      mstore\n      0x20\n      add\n      0x00\n      keccak256\n      sload\n        /* \"DefiToken.sol\":1239:1264  _balances[msg.sender].sub */\n      tag_76\n      swap1\n        /* \"DefiToken.sol\":1239:1271  _balances[msg.sender].sub(value) */\n      swap2\n      swap1\n      0xffffffff\n      and\n      jump\t// in\n    tag_92:\n        /* \"DefiToken.sol\":1215:1224  _balances */\n      0x00\n        /* \"DefiToken.sol\":1215:1236  _balances[msg.sender] */\n      dup1\n        /* \"DefiToken.sol\":1225:1235  msg.sender */\n      caller\n        /* \"DefiToken.sol\":1215:1236  _balances[msg.sender] */\n      0xffffffffffffffffffffffffffffffffffffffff\n      and\n      0xffffffffffffffffffffffffffffffffffffffff\n      and\n      dup2\n      mstore\n      0x20\n      add\n      swap1\n      dup2\n      mstore\n      0x20\n      add\n      0x00\n      keccak256\n        /* \"DefiToken.sol\":1215:1271  _balances[msg.sender] = _balances[msg.sender].sub(value) */\n      dup2\n      swap1\n      sstore\n      pop\n        /* \"DefiToken.sol\":1293:1317  _balances[to].add(value) */\n      tag_93\n        /* \"DefiToken.sol\":1311:1316  value */\n      dup3\n        /* \"DefiToken.sol\":1293:1302  _balances */\n      0x00\n        /* \"DefiToken.sol\":1293:1306  _balances[to] */\n      dup1\n        /* \"DefiToken.sol\":1303:1305  to */\n      dup7\n        /* \"DefiToken.sol\":1293:1306  _balances[to] */\n      0xffffffffffffffffffffffffffffffffffffffff\n      and\n      0xffffffffffffffffffffffffffffffffffffffff\n      and\n      dup2\n      mstore\n      0x20\n      add\n      swap1\n      dup2\n      mstore\n      0x20\n      add\n      0x00\n      keccak256\n      sload\n        /* \"DefiToken.sol\":1293:1310  _balances[to].add */\n      tag_82\n      swap1\n        /* \"DefiToken.sol\":1293:1317  _balances[to].add(value) */\n      swap2\n      swap1\n      0xffffffff\n      and\n      jump\t// in\n    tag_93:\n        /* \"DefiToken.sol\":1277:1286  _balances */\n      0x00\n        /* \"DefiToken.sol\":1277:1290  _balances[to] */\n      dup1\n        /* \"DefiToken.sol\":1287:1289  to */\n      dup6\n        /* \"DefiToken.sol\":1277:1290  _balances[to] */\n      0xffffffffffffffffffffffffffffffffffffffff\n      and\n      0xffffffffffffffffffffffffffffffffffffffff\n      and\n      dup2\n      mstore\n      0x20\n      add\n      swap1\n      dup2\n      mstore\n      0x20\n      add\n      0x00\n      keccak256\n        /* \"DefiToken.sol\":1277:1317  _balances[to] = _balances[to].add(value) */\n      dup2\n      swap1\n      sstore\n      pop\n        /* \"DefiToken.sol\":1349:1351  to */\n      dup3\n        /* \"DefiToken.sol\":1328:1359  Transfer(msg.sender, to, value) */\n      0xffffffffffffffffffffffffffffffffffffffff\n      and\n        /* \"DefiToken.sol\":1337:1347  msg.sender */\n      caller\n        /* \"DefiToken.sol\":1328:1359  Transfer(msg.sender, to, value) */\n      0xffffffffffffffffffffffffffffffffffffffff\n      and\n      0xddf252ad1be2c89b69c2b068fc378daa952ba7f163c4a11628f55a4df523b3ef\n        /* \"DefiToken.sol\":1353:1358  value */\n      dup5\n        /* \"DefiToken.sol\":1328:1359  Transfer(msg.sender, to, value) */\n      mload(0x40)\n      tag_94\n      swap2\n      swap1\n      tag_29\n      jump\t// in\n    tag_94:\n      mload(0x40)\n      dup1\n      swap2\n      sub\n      swap1\n      log3\n        /* \"DefiToken.sol\":1372:1376  true */\n      0x01\n        /* \"DefiToken.sol\":1365:1376  return true */\n      swap1\n      pop\n        /* \"DefiToken.sol\":1056:1381  function transfer(address to, uint256 value) public override returns (bool) {... */\n      swap3\n      swap2\n      pop\n      pop\n      jump\t// out\n        /* \"DefiToken.sol\":918:1047  function allowance(address owner,address spender)public override view returns (uint256){... */\n    tag_65:\n        /* \"DefiToken.sol\":997:1004  uint256 */\n      0x00\n        /* \"DefiToken.sol\":1018:1026  _allowed */\n      0x01\n        /* \"DefiToken.sol\":1018:1033  _allowed[owner] */\n      0x00\n        /* \"DefiToken.sol\":1027:1032  owner */\n      dup5\n        /* \"DefiToken.sol\":1018:1033  _allowed[owner] */\n      0xffffffffffffffffffffffffffffffffffffffff\n      and\n      0xffffffffffffffffffffffffffffffffffffffff\n      and\n      dup2\n      mstore\n      0x20\n      add\n      swap1\n      dup2\n      mstore\n      0x20\n      add\n      0x00\n      keccak256\n        /* \"DefiToken.sol\":1018:1042  _allowed[owner][spender] */\n      0x00\n        /* \"DefiToken.sol\":1034:1041  spender */\n      dup4\n        /* \"DefiToken.sol\":1018:1042  _allowed[owner][spender] */\n      0xffffffffffffffffffffffffffffffffffffffff\n      and\n      0xffffffffffffffffffffffffffffffffffffffff\n      and\n      dup2\n      mstore\n      0x20\n      add\n      swap1\n      dup2\n      mstore\n      0x20\n      add\n      0x00\n      keccak256\n      sload\n        /* \"DefiToken.sol\":1011:1042  return _allowed[owner][spender] */\n      swap1\n      pop\n        /* \"DefiToken.sol\":918:1047  function allowance(address owner,address spender)public override view returns (uint256){... */\n      swap3\n      swap2\n      pop\n      pop\n      jump\t// out\n        /* \"libraries/SafeMath.sol\":320:447  function sub(uint x, uint y) internal pure returns (uint z) {... */\n    tag_76:\n        /* \"libraries/SafeMath.sol\":372:378  uint z */\n      0x00\n        /* \"libraries/SafeMath.sol\":413:414  x */\n      dup3\n        /* \"libraries/SafeMath.sol\":407:408  y */\n      dup3\n        /* \"libraries/SafeMath.sol\":403:404  x */\n      dup5\n        /* \"libraries/SafeMath.sol\":403:408  x - y */\n      tag_97\n      swap2\n      swap1\n      tag_98\n      jump\t// in\n    tag_97:\n        /* \"libraries/SafeMath.sol\":399:408  z = x - y */\n      swap2\n      pop\n      dup2\n        /* \"libraries/SafeMath.sol\":398:414  (z = x - y) <= x */\n      gt\n      iszero\n        /* \"libraries/SafeMath.sol\":390:440  require((z = x - y) <= x, 'ds-math-sub-underflow') */\n      tag_99\n      jumpi\n      mload(0x40)\n      0x08c379a000000000000000000000000000000000000000000000000000000000\n      dup2\n      mstore\n      0x04\n      add\n      tag_100\n      swap1\n      tag_101\n      jump\t// in\n    tag_100:\n      mload(0x40)\n      dup1\n      swap2\n      sub\n      swap1\n      revert\n    tag_99:\n        /* \"libraries/SafeMath.sol\":320:447  function sub(uint x, uint y) internal pure returns (uint z) {... */\n      swap3\n      swap2\n      pop\n      pop\n      jump\t// out\n        /* \"DefiToken.sol\":1617:1827  function _transfer(address from, address to, uint value) private {... */\n    tag_78:\n        /* \"DefiToken.sol\":1708:1734  _balances[from].sub(value) */\n      tag_103\n        /* \"DefiToken.sol\":1728:1733  value */\n      dup2\n        /* \"DefiToken.sol\":1708:1717  _balances */\n      0x00\n        /* \"DefiToken.sol\":1708:1723  _balances[from] */\n      dup1\n        /* \"DefiToken.sol\":1718:1722  from */\n      dup7\n        /* \"DefiToken.sol\":1708:1723  _balances[from] */\n      0xffffffffffffffffffffffffffffffffffffffff\n      and\n      0xffffffffffffffffffffffffffffffffffffffff\n      and\n      dup2\n      mstore\n      0x20\n      add\n      swap1\n      dup2\n      mstore\n      0x20\n      add\n      0x00\n      keccak256\n      sload\n        /* \"DefiToken.sol\":1708:1727  _balances[from].sub */\n      tag_76\n      swap1\n        /* \"DefiToken.sol\":1708:1734  _balances[from].sub(value) */\n      swap2\n      swap1\n      0xffffffff\n      and\n      jump\t// in\n    tag_103:\n        /* \"DefiToken.sol\":1690:1699  _balances */\n      0x00\n        /* \"DefiToken.sol\":1690:1705  _balances[from] */\n      dup1\n        /* \"DefiToken.sol\":1700:1704  from */\n      dup6\n        /* \"DefiToken.sol\":1690:1705  _balances[from] */\n      0xffffffffffffffffffffffffffffffffffffffff\n      and\n      0xffffffffffffffffffffffffffffffffffffffff\n      and\n      dup2\n      mstore\n      0x20\n      add\n      swap1\n      dup2\n      mstore\n      0x20\n      add\n      0x00\n      keccak256\n        /* \"DefiToken.sol\":1690:1734  _balances[from] = _balances[from].sub(value) */\n      dup2\n      swap1\n      sstore\n      pop\n        /* \"DefiToken.sol\":1758:1782  _balances[to].add(value) */\n      tag_104\n        /* \"DefiToken.sol\":1776:1781  value */\n      dup2\n        /* \"DefiToken.sol\":1758:1767  _balances */\n      0x00\n        /* \"DefiToken.sol\":1758:1771  _balances[to] */\n      dup1\n        /* \"DefiToken.sol\":1768:1770  to */\n      dup6\n        /* \"DefiToken.sol\":1758:1771  _balances[to] */\n      0xffffffffffffffffffffffffffffffffffffffff\n      and\n      0xffffffffffffffffffffffffffffffffffffffff\n      and\n      dup2\n      mstore\n      0x20\n      add\n      swap1\n      dup2\n      mstore\n      0x20\n      add\n      0x00\n      keccak256\n      sload\n        /* \"DefiToken.sol\":1758:1775  _balances[to].add */\n      tag_82\n      swap1\n        /* \"DefiToken.sol\":1758:1782  _balances[to].add(value) */\n      swap2\n      swap1\n      0xffffffff\n      and\n      jump\t// in\n    tag_104:\n        /* \"DefiToken.sol\":1742:1751  _balances */\n      0x00\n        /* \"DefiToken.sol\":1742:1755  _balances[to] */\n      dup1\n        /* \"DefiToken.sol\":1752:1754  to */\n      dup5\n        /* \"DefiToken.sol\":1742:1755  _balances[to] */\n      0xffffffffffffffffffffffffffffffffffffffff\n      and\n      0xffffffffffffffffffffffffffffffffffffffff\n      and\n      dup2\n      mstore\n      0x20\n      add\n      swap1\n      dup2\n      mstore\n      0x20\n      add\n      0x00\n      keccak256\n        /* \"DefiToken.sol\":1742:1782  _balances[to] = _balances[to].add(value) */\n      dup2\n      swap1\n      sstore\n      pop\n        /* \"DefiToken.sol\":1810:1812  to */\n      dup2\n        /* \"DefiToken.sol\":1795:1820  Transfer(from, to, value) */\n      0xffffffffffffffffffffffffffffffffffffffff\n      and\n        /* \"DefiToken.sol\":1804:1808  from */\n      dup4\n        /* \"DefiToken.sol\":1795:1820  Transfer(from, to, value) */\n      0xffffffffffffffffffffffffffffffffffffffff\n      and\n      0xddf252ad1be2c89b69c2b068fc378daa952ba7f163c4a11628f55a4df523b3ef\n        /* \"DefiToken.sol\":1814:1819  value */\n      dup4\n        /* \"DefiToken.sol\":1795:1820  Transfer(from, to, value) */\n      mload(0x40)\n      tag_105\n      swap2\n      swap1\n      tag_29\n      jump\t// in\n    tag_105:\n      mload(0x40)\n      dup1\n      swap2\n      sub\n      swap1\n      log3\n        /* \"DefiToken.sol\":1617:1827  function _transfer(address from, address to, uint value) private {... */\n      pop\n      pop\n      pop\n      jump\t// out\n        /* \"libraries/SafeMath.sol\":192:314  function add(uint x, uint y) internal pure returns (uint z) {... */\n    tag_82:\n        /* \"libraries/SafeMath.sol\":244:250  uint z */\n      0x00\n        /* \"libraries/SafeMath.sol\":281:282  x */\n      dup3\n        /* \"libraries/SafeMath.sol\":275:276  y */\n      dup3\n        /* \"libraries/SafeMath.sol\":271:272  x */\n      dup5\n        /* \"libraries/SafeMath.sol\":271:276  x + y */\n      tag_107\n      swap2\n      swap1\n      tag_108\n      jump\t// in\n    tag_107:\n        /* \"libraries/SafeMath.sol\":267:276  z = x + y */\n      swap2\n      pop\n      dup2\n        /* \"libraries/SafeMath.sol\":266:282  (z = x + y) >= x */\n      lt\n      iszero\n        /* \"libraries/SafeMath.sol\":258:307  require((z = x + y) >= x, 'ds-math-add-overflow') */\n      tag_109\n      jumpi\n      mload(0x40)\n      0x08c379a000000000000000000000000000000000000000000000000000000000\n      dup2\n      mstore\n      0x04\n      add\n      tag_110\n      swap1\n      tag_111\n      jump\t// in\n    tag_110:\n      mload(0x40)\n      dup1\n      swap2\n      sub\n      swap1\n      revert\n    tag_109:\n        /* \"libraries/SafeMath.sol\":192:314  function add(uint x, uint y) internal pure returns (uint z) {... */\n      swap3\n      swap2\n      pop\n      pop\n      jump\t// out\n        /* \"#utility.yul\":7:106   */\n    tag_112:\n        /* \"#utility.yul\":59:65   */\n      0x00\n        /* \"#utility.yul\":93:98   */\n      dup2\n        /* \"#utility.yul\":87:99   */\n      mload\n        /* \"#utility.yul\":77:99   */\n      swap1\n      pop\n        /* \"#utility.yul\":7:106   */\n      swap2\n      swap1\n      pop\n      jump\t// out\n        /* \"#utility.yul\":112:281   */\n    tag_113:\n        /* \"#utility.yul\":196:207   */\n      0x00\n        /* \"#utility.yul\":230:236   */\n      dup3\n        /* \"#utility.yul\":225:228   */\n      dup3\n        /* \"#utility.yul\":218:237   */\n      mstore\n        /* \"#utility.yul\":270:274   */\n      0x20\n        /* \"#utility.yul\":265:268   */\n      dup3\n        /* \"#utility.yul\":261:275   */\n      add\n        /* \"#utility.yul\":246:275   */\n      swap1\n      pop\n        /* \"#utility.yul\":112:281   */\n      swap3\n      swap2\n      pop\n      pop\n      jump\t// out\n        /* \"#utility.yul\":287:594   */\n    tag_114:\n        /* \"#utility.yul\":355:356   */\n      0x00\n        /* \"#utility.yul\":365:478   */\n    tag_141:\n        /* \"#utility.yul\":379:385   */\n      dup4\n        /* \"#utility.yul\":376:377   */\n      dup2\n        /* \"#utility.yul\":373:386   */\n      lt\n        /* \"#utility.yul\":365:478   */\n      iszero\n      tag_143\n      jumpi\n        /* \"#utility.yul\":464:465   */\n      dup1\n        /* \"#utility.yul\":459:462   */\n      dup3\n        /* \"#utility.yul\":455:466   */\n      add\n        /* \"#utility.yul\":449:467   */\n      mload\n        /* \"#utility.yul\":445:446   */\n      dup2\n        /* \"#utility.yul\":440:443   */\n      dup5\n        /* \"#utility.yul\":436:447   */\n      add\n        /* \"#utility.yul\":429:468   */\n      mstore\n        /* \"#utility.yul\":401:403   */\n      0x20\n        /* \"#utility.yul\":398:399   */\n      dup2\n        /* \"#utility.yul\":394:404   */\n      add\n        /* \"#utility.yul\":389:404   */\n      swap1\n      pop\n        /* \"#utility.yul\":365:478   */\n      jump(tag_141)\n    tag_143:\n        /* \"#utility.yul\":496:502   */\n      dup4\n        /* \"#utility.yul\":493:494   */\n      dup2\n        /* \"#utility.yul\":490:503   */\n      gt\n        /* \"#utility.yul\":487:588   */\n      iszero\n      tag_144\n      jumpi\n        /* \"#utility.yul\":576:577   */\n      0x00\n        /* \"#utility.yul\":567:573   */\n      dup5\n        /* \"#utility.yul\":562:565   */\n      dup5\n        /* \"#utility.yul\":558:574   */\n      add\n        /* \"#utility.yul\":551:578   */\n      mstore\n        /* \"#utility.yul\":487:588   */\n    tag_144:\n        /* \"#utility.yul\":336:594   */\n      pop\n        /* \"#utility.yul\":287:594   */\n      pop\n      pop\n      pop\n      jump\t// out\n        /* \"#utility.yul\":600:702   */\n    tag_115:\n        /* \"#utility.yul\":641:647   */\n      0x00\n        /* \"#utility.yul\":692:694   */\n      0x1f\n        /* \"#utility.yul\":688:695   */\n      not\n        /* \"#utility.yul\":683:685   */\n      0x1f\n        /* \"#utility.yul\":676:681   */\n      dup4\n        /* \"#utility.yul\":672:686   */\n      add\n        /* \"#utility.yul\":668:696   */\n      and\n        /* \"#utility.yul\":658:696   */\n      swap1\n      pop\n        /* \"#utility.yul\":600:702   */\n      swap2\n      swap1\n      pop\n      jump\t// out\n        /* \"#utility.yul\":708:1072   */\n    tag_116:\n        /* \"#utility.yul\":796:799   */\n      0x00\n        /* \"#utility.yul\":824:863   */\n      tag_147\n        /* \"#utility.yul\":857:862   */\n      dup3\n        /* \"#utility.yul\":824:863   */\n      tag_112\n      jump\t// in\n    tag_147:\n        /* \"#utility.yul\":879:950   */\n      tag_148\n        /* \"#utility.yul\":943:949   */\n      dup2\n        /* \"#utility.yul\":938:941   */\n      dup6\n        /* \"#utility.yul\":879:950   */\n      tag_113\n      jump\t// in\n    tag_148:\n        /* \"#utility.yul\":872:950   */\n      swap4\n      pop\n        /* \"#utility.yul\":959:1011   */\n      tag_149\n        /* \"#utility.yul\":1004:1010   */\n      dup2\n        /* \"#utility.yul\":999:1002   */\n      dup6\n        /* \"#utility.yul\":992:996   */\n      0x20\n        /* \"#utility.yul\":985:990   */\n      dup7\n        /* \"#utility.yul\":981:997   */\n      add\n        /* \"#utility.yul\":959:1011   */\n      tag_114\n      jump\t// in\n    tag_149:\n        /* \"#utility.yul\":1036:1065   */\n      tag_150\n        /* \"#utility.yul\":1058:1064   */\n      dup2\n        /* \"#utility.yul\":1036:1065   */\n      tag_115\n      jump\t// in\n    tag_150:\n        /* \"#utility.yul\":1031:1034   */\n      dup5\n        /* \"#utility.yul\":1027:1066   */\n      add\n        /* \"#utility.yul\":1020:1066   */\n      swap2\n      pop\n        /* \"#utility.yul\":800:1072   */\n      pop\n        /* \"#utility.yul\":708:1072   */\n      swap3\n      swap2\n      pop\n      pop\n      jump\t// out\n        /* \"#utility.yul\":1078:1391   */\n    tag_19:\n        /* \"#utility.yul\":1191:1195   */\n      0x00\n        /* \"#utility.yul\":1229:1231   */\n      0x20\n        /* \"#utility.yul\":1218:1227   */\n      dup3\n        /* \"#utility.yul\":1214:1232   */\n      add\n        /* \"#utility.yul\":1206:1232   */\n      swap1\n      pop\n        /* \"#utility.yul\":1278:1287   */\n      dup2\n        /* \"#utility.yul\":1272:1276   */\n      dup2\n        /* \"#utility.yul\":1268:1288   */\n      sub\n        /* \"#utility.yul\":1264:1265   */\n      0x00\n        /* \"#utility.yul\":1253:1262   */\n      dup4\n        /* \"#utility.yul\":1249:1266   */\n      add\n        /* \"#utility.yul\":1242:1289   */\n      mstore\n        /* \"#utility.yul\":1306:1384   */\n      tag_152\n        /* \"#utility.yul\":1379:1383   */\n      dup2\n        /* \"#utility.yul\":1370:1376   */\n      dup5\n        /* \"#utility.yul\":1306:1384   */\n      tag_116\n      jump\t// in\n    tag_152:\n        /* \"#utility.yul\":1298:1384   */\n      swap1\n      pop\n        /* \"#utility.yul\":1078:1391   */\n      swap3\n      swap2\n      pop\n      pop\n      jump\t// out\n        /* \"#utility.yul\":1478:1595   */\n    tag_118:\n        /* \"#utility.yul\":1587:1588   */\n      0x00\n        /* \"#utility.yul\":1584:1585   */\n      dup1\n        /* \"#utility.yul\":1577:1589   */\n      revert\n        /* \"#utility.yul\":1724:1850   */\n    tag_120:\n        /* \"#utility.yul\":1761:1768   */\n      0x00\n        /* \"#utility.yul\":1801:1843   */\n      0xffffffffffffffffffffffffffffffffffffffff\n        /* \"#utility.yul\":1794:1799   */\n      dup3\n        /* \"#utility.yul\":1790:1844   */\n      and\n        /* \"#utility.yul\":1779:1844   */\n      swap1\n      pop\n        /* \"#utility.yul\":1724:1850   */\n      swap2\n      swap1\n      pop\n      jump\t// out\n        /* \"#utility.yul\":1856:1952   */\n    tag_121:\n        /* \"#utility.yul\":1893:1900   */\n      0x00\n        /* \"#utility.yul\":1922:1946   */\n      tag_158\n        /* \"#utility.yul\":1940:1945   */\n      dup3\n        /* \"#utility.yul\":1922:1946   */\n      tag_120\n      jump\t// in\n    tag_158:\n        /* \"#utility.yul\":1911:1946   */\n      swap1\n      pop\n        /* \"#utility.yul\":1856:1952   */\n      swap2\n      swap1\n      pop\n      jump\t// out\n        /* \"#utility.yul\":1958:2080   */\n    tag_122:\n        /* \"#utility.yul\":2031:2055   */\n      tag_160\n        /* \"#utility.yul\":2049:2054   */\n      dup2\n        /* \"#utility.yul\":2031:2055   */\n      tag_121\n      jump\t// in\n    tag_160:\n        /* \"#utility.yul\":2024:2029   */\n      dup2\n        /* \"#utility.yul\":2021:2056   */\n      eq\n        /* \"#utility.yul\":2011:2074   */\n      tag_161\n      jumpi\n        /* \"#utility.yul\":2070:2071   */\n      0x00\n        /* \"#utility.yul\":2067:2068   */\n      dup1\n        /* \"#utility.yul\":2060:2072   */\n      revert\n        /* \"#utility.yul\":2011:2074   */\n    tag_161:\n        /* \"#utility.yul\":1958:2080   */\n      pop\n      jump\t// out\n        /* \"#utility.yul\":2086:2225   */\n    tag_123:\n        /* \"#utility.yul\":2132:2137   */\n      0x00\n        /* \"#utility.yul\":2170:2176   */\n      dup2\n        /* \"#utility.yul\":2157:2177   */\n      calldataload\n        /* \"#utility.yul\":2148:2177   */\n      swap1\n      pop\n        /* \"#utility.yul\":2186:2219   */\n      tag_163\n        /* \"#utility.yul\":2213:2218   */\n      dup2\n        /* \"#utility.yul\":2186:2219   */\n      tag_122\n      jump\t// in\n    tag_163:\n        /* \"#utility.yul\":2086:2225   */\n      swap3\n      swap2\n      pop\n      pop\n      jump\t// out\n        /* \"#utility.yul\":2231:2308   */\n    tag_124:\n        /* \"#utility.yul\":2268:2275   */\n      0x00\n        /* \"#utility.yul\":2297:2302   */\n      dup2\n        /* \"#utility.yul\":2286:2302   */\n      swap1\n      pop\n        /* \"#utility.yul\":2231:2308   */\n      swap2\n      swap1\n      pop\n      jump\t// out\n        /* \"#utility.yul\":2314:2436   */\n    tag_125:\n        /* \"#utility.yul\":2387:2411   */\n      tag_166\n        /* \"#utility.yul\":2405:2410   */\n      dup2\n        /* \"#utility.yul\":2387:2411   */\n      tag_124\n      jump\t// in\n    tag_166:\n        /* \"#utility.yul\":2380:2385   */\n      dup2\n        /* \"#utility.yul\":2377:2412   */\n      eq\n        /* \"#utility.yul\":2367:2430   */\n      tag_167\n      jumpi\n        /* \"#utility.yul\":2426:2427   */\n      0x00\n        /* \"#utility.yul\":2423:2424   */\n      dup1\n        /* \"#utility.yul\":2416:2428   */\n      revert\n        /* \"#utility.yul\":2367:2430   */\n    tag_167:\n        /* \"#utility.yul\":2314:2436   */\n      pop\n      jump\t// out\n        /* \"#utility.yul\":2442:2581   */\n    tag_126:\n        /* \"#utility.yul\":2488:2493   */\n      0x00\n        /* \"#utility.yul\":2526:2532   */\n      dup2\n        /* \"#utility.yul\":2513:2533   */\n      calldataload\n        /* \"#utility.yul\":2504:2533   */\n      swap1\n      pop\n        /* \"#utility.yul\":2542:2575   */\n      tag_169\n        /* \"#utility.yul\":2569:2574   */\n      dup2\n        /* \"#utility.yul\":2542:2575   */\n      tag_125\n      jump\t// in\n    tag_169:\n        /* \"#utility.yul\":2442:2581   */\n      swap3\n      swap2\n      pop\n      pop\n      jump\t// out\n        /* \"#utility.yul\":2587:3061   */\n    tag_22:\n        /* \"#utility.yul\":2655:2661   */\n      0x00\n        /* \"#utility.yul\":2663:2669   */\n      dup1\n        /* \"#utility.yul\":2712:2714   */\n      0x40\n        /* \"#utility.yul\":2700:2709   */\n      dup4\n        /* \"#utility.yul\":2691:2698   */\n      dup6\n        /* \"#utility.yul\":2687:2710   */\n      sub\n        /* \"#utility.yul\":2683:2715   */\n      slt\n        /* \"#utility.yul\":2680:2799   */\n      iszero\n      tag_171\n      jumpi\n        /* \"#utility.yul\":2718:2797   */\n      tag_172\n      tag_118\n      jump\t// in\n    tag_172:\n        /* \"#utility.yul\":2680:2799   */\n    tag_171:\n        /* \"#utility.yul\":2838:2839   */\n      0x00\n        /* \"#utility.yul\":2863:2916   */\n      tag_173\n        /* \"#utility.yul\":2908:2915   */\n      dup6\n        /* \"#utility.yul\":2899:2905   */\n      dup3\n        /* \"#utility.yul\":2888:2897   */\n      dup7\n        /* \"#utility.yul\":2884:2906   */\n      add\n        /* \"#utility.yul\":2863:2916   */\n      tag_123\n      jump\t// in\n    tag_173:\n        /* \"#utility.yul\":2853:2916   */\n      swap3\n      pop\n        /* \"#utility.yul\":2809:2926   */\n      pop\n        /* \"#utility.yul\":2965:2967   */\n      0x20\n        /* \"#utility.yul\":2991:3044   */\n      tag_174\n        /* \"#utility.yul\":3036:3043   */\n      dup6\n        /* \"#utility.yul\":3027:3033   */\n      dup3\n        /* \"#utility.yul\":3016:3025   */\n      dup7\n        /* \"#utility.yul\":3012:3034   */\n      add\n        /* \"#utility.yul\":2991:3044   */\n      tag_126\n      jump\t// in\n    tag_174:\n        /* \"#utility.yul\":2981:3044   */\n      swap2\n      pop\n        /* \"#utility.yul\":2936:3054   */\n      pop\n        /* \"#utility.yul\":2587:3061   */\n      swap3\n      pop\n      swap3\n      swap1\n      pop\n      jump\t// out\n        /* \"#utility.yul\":3067:3157   */\n    tag_127:\n        /* \"#utility.yul\":3101:3108   */\n      0x00\n        /* \"#utility.yul\":3144:3149   */\n      dup2\n        /* \"#utility.yul\":3137:3150   */\n      iszero\n        /* \"#utility.yul\":3130:3151   */\n      iszero\n        /* \"#utility.yul\":3119:3151   */\n      swap1\n      pop\n        /* \"#utility.yul\":3067:3157   */\n      swap2\n      swap1\n      pop\n      jump\t// out\n        /* \"#utility.yul\":3163:3272   */\n    tag_128:\n        /* \"#utility.yul\":3244:3265   */\n      tag_177\n        /* \"#utility.yul\":3259:3264   */\n      dup2\n        /* \"#utility.yul\":3244:3265   */\n      tag_127\n      jump\t// in\n    tag_177:\n        /* \"#utility.yul\":3239:3242   */\n      dup3\n        /* \"#utility.yul\":3232:3266   */\n      mstore\n        /* \"#utility.yul\":3163:3272   */\n      pop\n      pop\n      jump\t// out\n        /* \"#utility.yul\":3278:3488   */\n    tag_25:\n        /* \"#utility.yul\":3365:3369   */\n      0x00\n        /* \"#utility.yul\":3403:3405   */\n      0x20\n        /* \"#utility.yul\":3392:3401   */\n      dup3\n        /* \"#utility.yul\":3388:3406   */\n      add\n        /* \"#utility.yul\":3380:3406   */\n      swap1\n      pop\n        /* \"#utility.yul\":3416:3481   */\n      tag_179\n        /* \"#utility.yul\":3478:3479   */\n      0x00\n        /* \"#utility.yul\":3467:3476   */\n      dup4\n        /* \"#utility.yul\":3463:3480   */\n      add\n        /* \"#utility.yul\":3454:3460   */\n      dup5\n        /* \"#utility.yul\":3416:3481   */\n      tag_128\n      jump\t// in\n    tag_179:\n        /* \"#utility.yul\":3278:3488   */\n      swap3\n      swap2\n      pop\n      pop\n      jump\t// out\n        /* \"#utility.yul\":3494:3612   */\n    tag_129:\n        /* \"#utility.yul\":3581:3605   */\n      tag_181\n        /* \"#utility.yul\":3599:3604   */\n      dup2\n        /* \"#utility.yul\":3581:3605   */\n      tag_124\n      jump\t// in\n    tag_181:\n        /* \"#utility.yul\":3576:3579   */\n      dup3\n        /* \"#utility.yul\":3569:3606   */\n      mstore\n        /* \"#utility.yul\":3494:3612   */\n      pop\n      pop\n      jump\t// out\n        /* \"#utility.yul\":3618:3840   */\n    tag_29:\n        /* \"#utility.yul\":3711:3715   */\n      0x00\n        /* \"#utility.yul\":3749:3751   */\n      0x20\n        /* \"#utility.yul\":3738:3747   */\n      dup3\n        /* \"#utility.yul\":3734:3752   */\n      add\n        /* \"#utility.yul\":3726:3752   */\n      swap1\n      pop\n        /* \"#utility.yul\":3762:3833   */\n      tag_183\n        /* \"#utility.yul\":3830:3831   */\n      0x00\n        /* \"#utility.yul\":3819:3828   */\n      dup4\n        /* \"#utility.yul\":3815:3832   */\n      add\n        /* \"#utility.yul\":3806:3812   */\n      dup5\n        /* \"#utility.yul\":3762:3833   */\n      tag_129\n      jump\t// in\n    tag_183:\n        /* \"#utility.yul\":3618:3840   */\n      swap3\n      swap2\n      pop\n      pop\n      jump\t// out\n        /* \"#utility.yul\":3846:4465   */\n    tag_32:\n        /* \"#utility.yul\":3923:3929   */\n      0x00\n        /* \"#utility.yul\":3931:3937   */\n      dup1\n        /* \"#utility.yul\":3939:3945   */\n      0x00\n        /* \"#utility.yul\":3988:3990   */\n      0x60\n        /* \"#utility.yul\":3976:3985   */\n      dup5\n        /* \"#utility.yul\":3967:3974   */\n      dup7\n        /* \"#utility.yul\":3963:3986   */\n      sub\n        /* \"#utility.yul\":3959:3991   */\n      slt\n        /* \"#utility.yul\":3956:4075   */\n      iszero\n      tag_185\n      jumpi\n        /* \"#utility.yul\":3994:4073   */\n      tag_186\n      tag_118\n      jump\t// in\n    tag_186:\n        /* \"#utility.yul\":3956:4075   */\n    tag_185:\n        /* \"#utility.yul\":4114:4115   */\n      0x00\n        /* \"#utility.yul\":4139:4192   */\n      tag_187\n        /* \"#utility.yul\":4184:4191   */\n      dup7\n        /* \"#utility.yul\":4175:4181   */\n      dup3\n        /* \"#utility.yul\":4164:4173   */\n      dup8\n        /* \"#utility.yul\":4160:4182   */\n      add\n        /* \"#utility.yul\":4139:4192   */\n      tag_123\n      jump\t// in\n    tag_187:\n        /* \"#utility.yul\":4129:4192   */\n      swap4\n      pop\n        /* \"#utility.yul\":4085:4202   */\n      pop\n        /* \"#utility.yul\":4241:4243   */\n      0x20\n        /* \"#utility.yul\":4267:4320   */\n      tag_188\n        /* \"#utility.yul\":4312:4319   */\n      dup7\n        /* \"#utility.yul\":4303:4309   */\n      dup3\n        /* \"#utility.yul\":4292:4301   */\n      dup8\n        /* \"#utility.yul\":4288:4310   */\n      add\n        /* \"#utility.yul\":4267:4320   */\n      tag_123\n      jump\t// in\n    tag_188:\n        /* \"#utility.yul\":4257:4320   */\n      swap3\n      pop\n        /* \"#utility.yul\":4212:4330   */\n      pop\n        /* \"#utility.yul\":4369:4371   */\n      0x40\n        /* \"#utility.yul\":4395:4448   */\n      tag_189\n        /* \"#utility.yul\":4440:4447   */\n      dup7\n        /* \"#utility.yul\":4431:4437   */\n      dup3\n        /* \"#utility.yul\":4420:4429   */\n      dup8\n        /* \"#utility.yul\":4416:4438   */\n      add\n        /* \"#utility.yul\":4395:4448   */\n      tag_126\n      jump\t// in\n    tag_189:\n        /* \"#utility.yul\":4385:4448   */\n      swap2\n      pop\n        /* \"#utility.yul\":4340:4458   */\n      pop\n        /* \"#utility.yul\":3846:4465   */\n      swap3\n      pop\n      swap3\n      pop\n      swap3\n      jump\t// out\n        /* \"#utility.yul\":4471:4557   */\n    tag_130:\n        /* \"#utility.yul\":4506:4513   */\n      0x00\n        /* \"#utility.yul\":4546:4550   */\n      0xff\n        /* \"#utility.yul\":4539:4544   */\n      dup3\n        /* \"#utility.yul\":4535:4551   */\n      and\n        /* \"#utility.yul\":4524:4551   */\n      swap1\n      pop\n        /* \"#utility.yul\":4471:4557   */\n      swap2\n      swap1\n      pop\n      jump\t// out\n        /* \"#utility.yul\":4563:4675   */\n    tag_131:\n        /* \"#utility.yul\":4646:4668   */\n      tag_192\n        /* \"#utility.yul\":4662:4667   */\n      dup2\n        /* \"#utility.yul\":4646:4668   */\n      tag_130\n      jump\t// in\n    tag_192:\n        /* \"#utility.yul\":4641:4644   */\n      dup3\n        /* \"#utility.yul\":4634:4669   */\n      mstore\n        /* \"#utility.yul\":4563:4675   */\n      pop\n      pop\n      jump\t// out\n        /* \"#utility.yul\":4681:4895   */\n    tag_38:\n        /* \"#utility.yul\":4770:4774   */\n      0x00\n        /* \"#utility.yul\":4808:4810   */\n      0x20\n        /* \"#utility.yul\":4797:4806   */\n      dup3\n        /* \"#utility.yul\":4793:4811   */\n      add\n        /* \"#utility.yul\":4785:4811   */\n      swap1\n      pop\n        /* \"#utility.yul\":4821:4888   */\n      tag_194\n        /* \"#utility.yul\":4885:4886   */\n      0x00\n        /* \"#utility.yul\":4874:4883   */\n      dup4\n        /* \"#utility.yul\":4870:4887   */\n      add\n        /* \"#utility.yul\":4861:4867   */\n      dup5\n        /* \"#utility.yul\":4821:4888   */\n      tag_131\n      jump\t// in\n    tag_194:\n        /* \"#utility.yul\":4681:4895   */\n      swap3\n      swap2\n      pop\n      pop\n      jump\t// out\n        /* \"#utility.yul\":4901:5230   */\n    tag_48:\n        /* \"#utility.yul\":4960:4966   */\n      0x00\n        /* \"#utility.yul\":5009:5011   */\n      0x20\n        /* \"#utility.yul\":4997:5006   */\n      dup3\n        /* \"#utility.yul\":4988:4995   */\n      dup5\n        /* \"#utility.yul\":4984:5007   */\n      sub\n        /* \"#utility.yul\":4980:5012   */\n      slt\n        /* \"#utility.yul\":4977:5096   */\n      iszero\n      tag_196\n      jumpi\n        /* \"#utility.yul\":5015:5094   */\n      tag_197\n      tag_118\n      jump\t// in\n    tag_197:\n        /* \"#utility.yul\":4977:5096   */\n    tag_196:\n        /* \"#utility.yul\":5135:5136   */\n      0x00\n        /* \"#utility.yul\":5160:5213   */\n      tag_198\n        /* \"#utility.yul\":5205:5212   */\n      dup5\n        /* \"#utility.yul\":5196:5202   */\n      dup3\n        /* \"#utility.yul\":5185:5194   */\n      dup6\n        /* \"#utility.yul\":5181:5203   */\n      add\n        /* \"#utility.yul\":5160:5213   */\n      tag_123\n      jump\t// in\n    tag_198:\n        /* \"#utility.yul\":5150:5213   */\n      swap2\n      pop\n        /* \"#utility.yul\":5106:5223   */\n      pop\n        /* \"#utility.yul\":4901:5230   */\n      swap3\n      swap2\n      pop\n      pop\n      jump\t// out\n        /* \"#utility.yul\":5236:5710   */\n    tag_64:\n        /* \"#utility.yul\":5304:5310   */\n      0x00\n        /* \"#utility.yul\":5312:5318   */\n      dup1\n        /* \"#utility.yul\":5361:5363   */\n      0x40\n        /* \"#utility.yul\":5349:5358   */\n      dup4\n        /* \"#utility.yul\":5340:5347   */\n      dup6\n        /* \"#utility.yul\":5336:5359   */\n      sub\n        /* \"#utility.yul\":5332:5364   */\n      slt\n        /* \"#utility.yul\":5329:5448   */\n      iszero\n      tag_200\n      jumpi\n        /* \"#utility.yul\":5367:5446   */\n      tag_201\n      tag_118\n      jump\t// in\n    tag_201:\n        /* \"#utility.yul\":5329:5448   */\n    tag_200:\n        /* \"#utility.yul\":5487:5488   */\n      0x00\n        /* \"#utility.yul\":5512:5565   */\n      tag_202\n        /* \"#utility.yul\":5557:5564   */\n      dup6\n        /* \"#utility.yul\":5548:5554   */\n      dup3\n        /* \"#utility.yul\":5537:5546   */\n      dup7\n        /* \"#utility.yul\":5533:5555   */\n      add\n        /* \"#utility.yul\":5512:5565   */\n      tag_123\n      jump\t// in\n    tag_202:\n        /* \"#utility.yul\":5502:5565   */\n      swap3\n      pop\n        /* \"#utility.yul\":5458:5575   */\n      pop\n        /* \"#utility.yul\":5614:5616   */\n      0x20\n        /* \"#utility.yul\":5640:5693   */\n      tag_203\n        /* \"#utility.yul\":5685:5692   */\n      dup6\n        /* \"#utility.yul\":5676:5682   */\n      dup3\n        /* \"#utility.yul\":5665:5674   */\n      dup7\n        /* \"#utility.yul\":5661:5683   */\n      add\n        /* \"#utility.yul\":5640:5693   */\n      tag_123\n      jump\t// in\n    tag_203:\n        /* \"#utility.yul\":5630:5693   */\n      swap2\n      pop\n        /* \"#utility.yul\":5585:5703   */\n      pop\n        /* \"#utility.yul\":5236:5710   */\n      swap3\n      pop\n      swap3\n      swap1\n      pop\n      jump\t// out\n        /* \"#utility.yul\":5716:5896   */\n    tag_132:\n        /* \"#utility.yul\":5764:5841   */\n      0x4e487b7100000000000000000000000000000000000000000000000000000000\n        /* \"#utility.yul\":5761:5762   */\n      0x00\n        /* \"#utility.yul\":5754:5842   */\n      mstore\n        /* \"#utility.yul\":5861:5865   */\n      0x11\n        /* \"#utility.yul\":5858:5859   */\n      0x04\n        /* \"#utility.yul\":5851:5866   */\n      mstore\n        /* \"#utility.yul\":5885:5889   */\n      0x24\n        /* \"#utility.yul\":5882:5883   */\n      0x00\n        /* \"#utility.yul\":5875:5890   */\n      revert\n        /* \"#utility.yul\":5902:6093   */\n    tag_98:\n        /* \"#utility.yul\":5942:5946   */\n      0x00\n        /* \"#utility.yul\":5962:5982   */\n      tag_206\n        /* \"#utility.yul\":5980:5981   */\n      dup3\n        /* \"#utility.yul\":5962:5982   */\n      tag_124\n      jump\t// in\n    tag_206:\n        /* \"#utility.yul\":5957:5982   */\n      swap2\n      pop\n        /* \"#utility.yul\":5996:6016   */\n      tag_207\n        /* \"#utility.yul\":6014:6015   */\n      dup4\n        /* \"#utility.yul\":5996:6016   */\n      tag_124\n      jump\t// in\n    tag_207:\n        /* \"#utility.yul\":5991:6016   */\n      swap3\n      pop\n        /* \"#utility.yul\":6035:6036   */\n      dup3\n        /* \"#utility.yul\":6032:6033   */\n      dup3\n        /* \"#utility.yul\":6029:6037   */\n      lt\n        /* \"#utility.yul\":6026:6060   */\n      iszero\n      tag_208\n      jumpi\n        /* \"#utility.yul\":6040:6058   */\n      tag_209\n      tag_132\n      jump\t// in\n    tag_209:\n        /* \"#utility.yul\":6026:6060   */\n    tag_208:\n        /* \"#utility.yul\":6085:6086   */\n      dup3\n        /* \"#utility.yul\":6082:6083   */\n      dup3\n        /* \"#utility.yul\":6078:6087   */\n      sub\n        /* \"#utility.yul\":6070:6087   */\n      swap1\n      pop\n        /* \"#utility.yul\":5902:6093   */\n      swap3\n      swap2\n      pop\n      pop\n      jump\t// out\n        /* \"#utility.yul\":6099:6270   */\n    tag_133:\n        /* \"#utility.yul\":6239:6262   */\n      0x64732d6d6174682d7375622d756e646572666c6f770000000000000000000000\n        /* \"#utility.yul\":6235:6236   */\n      0x00\n        /* \"#utility.yul\":6227:6233   */\n      dup3\n        /* \"#utility.yul\":6223:6237   */\n      add\n        /* \"#utility.yul\":6216:6263   */\n      mstore\n        /* \"#utility.yul\":6099:6270   */\n      pop\n      jump\t// out\n        /* \"#utility.yul\":6276:6642   */\n    tag_134:\n        /* \"#utility.yul\":6418:6421   */\n      0x00\n        /* \"#utility.yul\":6439:6506   */\n      tag_212\n        /* \"#utility.yul\":6503:6505   */\n      0x15\n        /* \"#utility.yul\":6498:6501   */\n      dup4\n        /* \"#utility.yul\":6439:6506   */\n      tag_113\n      jump\t// in\n    tag_212:\n        /* \"#utility.yul\":6432:6506   */\n      swap2\n      pop\n        /* \"#utility.yul\":6515:6608   */\n      tag_213\n        /* \"#utility.yul\":6604:6607   */\n      dup3\n        /* \"#utility.yul\":6515:6608   */\n      tag_133\n      jump\t// in\n    tag_213:\n        /* \"#utility.yul\":6633:6635   */\n      0x20\n        /* \"#utility.yul\":6628:6631   */\n      dup3\n        /* \"#utility.yul\":6624:6636   */\n      add\n        /* \"#utility.yul\":6617:6636   */\n      swap1\n      pop\n        /* \"#utility.yul\":6276:6642   */\n      swap2\n      swap1\n      pop\n      jump\t// out\n        /* \"#utility.yul\":6648:7067   */\n    tag_101:\n        /* \"#utility.yul\":6814:6818   */\n      0x00\n        /* \"#utility.yul\":6852:6854   */\n      0x20\n        /* \"#utility.yul\":6841:6850   */\n      dup3\n        /* \"#utility.yul\":6837:6855   */\n      add\n        /* \"#utility.yul\":6829:6855   */\n      swap1\n      pop\n        /* \"#utility.yul\":6901:6910   */\n      dup2\n        /* \"#utility.yul\":6895:6899   */\n      dup2\n        /* \"#utility.yul\":6891:6911   */\n      sub\n        /* \"#utility.yul\":6887:6888   */\n      0x00\n        /* \"#utility.yul\":6876:6885   */\n      dup4\n        /* \"#utility.yul\":6872:6889   */\n      add\n        /* \"#utility.yul\":6865:6912   */\n      mstore\n        /* \"#utility.yul\":6929:7060   */\n      tag_215\n        /* \"#utility.yul\":7055:7059   */\n      dup2\n        /* \"#utility.yul\":6929:7060   */\n      tag_134\n      jump\t// in\n    tag_215:\n        /* \"#utility.yul\":6921:7060   */\n      swap1\n      pop\n        /* \"#utility.yul\":6648:7067   */\n      swap2\n      swap1\n      pop\n      jump\t// out\n        /* \"#utility.yul\":7073:7378   */\n    tag_108:\n        /* \"#utility.yul\":7113:7116   */\n      0x00\n        /* \"#utility.yul\":7132:7152   */\n      tag_217\n        /* \"#utility.yul\":7150:7151   */\n      dup3\n        /* \"#utility.yul\":7132:7152   */\n      tag_124\n      jump\t// in\n    tag_217:\n        /* \"#utility.yul\":7127:7152   */\n      swap2\n      pop\n        /* \"#utility.yul\":7166:7186   */\n      tag_218\n        /* \"#utility.yul\":7184:7185   */\n      dup4\n        /* \"#utility.yul\":7166:7186   */\n      tag_124\n      jump\t// in\n    tag_218:\n        /* \"#utility.yul\":7161:7186   */\n      swap3\n      pop\n        /* \"#utility.yul\":7320:7321   */\n      dup3\n        /* \"#utility.yul\":7252:7318   */\n      0xffffffffffffffffffffffffffffffffffffffffffffffffffffffffffffffff\n        /* \"#utility.yul\":7248:7322   */\n      sub\n        /* \"#utility.yul\":7245:7246   */\n      dup3\n        /* \"#utility.yul\":7242:7323   */\n      gt\n        /* \"#utility.yul\":7239:7346   */\n      iszero\n      tag_219\n      jumpi\n        /* \"#utility.yul\":7326:7344   */\n      tag_220\n      tag_132\n      jump\t// in\n    tag_220:\n        /* \"#utility.yul\":7239:7346   */\n    tag_219:\n        /* \"#utility.yul\":7370:7371   */\n      dup3\n        /* \"#utility.yul\":7367:7368   */\n      dup3\n        /* \"#utility.yul\":7363:7372   */\n      add\n        /* \"#utility.yul\":7356:7372   */\n      swap1\n      pop\n        /* \"#utility.yul\":7073:7378   */\n      swap3\n      swap2\n      pop\n      pop\n      jump\t// out\n        /* \"#utility.yul\":7384:7554   */\n    tag_135:\n        /* \"#utility.yul\":7524:7546   */\n      0x64732d6d6174682d6164642d6f766572666c6f77000000000000000000000000\n        /* \"#utility.yul\":7520:7521   */\n      0x00\n        /* \"#utility.yul\":7512:7518   */\n      dup3\n        /* \"#utility.yul\":7508:7522   */\n      add\n        /* \"#utility.yul\":7501:7547   */\n      mstore\n        /* \"#utility.yul\":7384:7554   */\n      pop\n      jump\t// out\n        /* \"#utility.yul\":7560:7926   */\n    tag_136:\n        /* \"#utility.yul\":7702:7705   */\n      0x00\n        /* \"#utility.yul\":7723:7790   */\n      tag_223\n        /* \"#utility.yul\":7787:7789   */\n      0x14\n        /* \"#utility.yul\":7782:7785   */\n      dup4\n        /* \"#utility.yul\":7723:7790   */\n      tag_113\n      jump\t// in\n    tag_223:\n        /* \"#utility.yul\":7716:7790   */\n      swap2\n      pop\n        /* \"#utility.yul\":7799:7892   */\n      tag_224\n        /* \"#utility.yul\":7888:7891   */\n      dup3\n        /* \"#utility.yul\":7799:7892   */\n      tag_135\n      jump\t// in\n    tag_224:\n        /* \"#utility.yul\":7917:7919   */\n      0x20\n        /* \"#utility.yul\":7912:7915   */\n      dup3\n        /* \"#utility.yul\":7908:7920   */\n      add\n        /* \"#utility.yul\":7901:7920   */\n      swap1\n      pop\n        /* \"#utility.yul\":7560:7926   */\n      swap2\n      swap1\n      pop\n      jump\t// out\n        /* \"#utility.yul\":7932:8351   */\n    tag_111:\n        /* \"#utility.yul\":8098:8102   */\n      0x00\n        /* \"#utility.yul\":8136:8138   */\n      0x20\n        /* \"#utility.yul\":8125:8134   */\n      dup3\n        /* \"#utility.yul\":8121:8139   */\n      add\n        /* \"#utility.yul\":8113:8139   */\n      swap1\n      pop\n        /* \"#utility.yul\":8185:8194   */\n      dup2\n        /* \"#utility.yul\":8179:8183   */\n      dup2\n        /* \"#utility.yul\":8175:8195   */\n      sub\n        /* \"#utility.yul\":8171:8172   */\n      0x00\n        /* \"#utility.yul\":8160:8169   */\n      dup4\n        /* \"#utility.yul\":8156:8173   */\n      add\n        /* \"#utility.yul\":8149:8196   */\n      mstore\n        /* \"#utility.yul\":8213:8344   */\n      tag_226\n        /* \"#utility.yul\":8339:8343   */\n      dup2\n        /* \"#utility.yul\":8213:8344   */\n      tag_136\n      jump\t// in\n    tag_226:\n        /* \"#utility.yul\":8205:8344   */\n      swap1\n      pop\n        /* \"#utility.yul\":7932:8351   */\n      swap2\n      swap1\n      pop\n      jump\t// out\n\n    auxdata: 0xa264697066735822122049d2debe82db253ed08f5cc3605fecfaa1b5b187f59d93f88be5ce65189f1b1964736f6c634300080a0033\n}\n",
				"bytecode": {
					"linkReferences": {},
					"object": "608060405234801561001057600080fd5b506509184e72a0006000803373ffffffffffffffffffffffffffffffffffffffff1673ffffffffffffffffffffffffffffffffffffffff168152602001908152602001600020819055503373ffffffffffffffffffffffffffffffffffffffff16600073ffffffffffffffffffffffffffffffffffffffff167fddf252ad1be2c89b69c2b068fc378daa952ba7f163c4a11628f55a4df523b3ef6509184e72a0006040516100be91906100e4565b60405180910390a36100ff565b6000819050919050565b6100de816100cb565b82525050565b60006020820190506100f960008301846100d5565b92915050565b6114d78061010e6000396000f3fe608060405234801561001057600080fd5b50600436106100b45760003560e01c80633eaaf86b116100715780633eaaf86b146101a357806370a08231146101c157806395d89b41146101f1578063a457c2d71461020f578063a9059cbb1461023f578063dd62ed3e1461026f576100b4565b806306fdde03146100b9578063095ea7b3146100d757806318160ddd1461010757806323b872dd14610125578063313ce567146101555780633950935114610173575b600080fd5b6100c161029f565b6040516100ce91906110be565b60405180910390f35b6100f160048036038101906100ec9190611179565b6102d8565b6040516100fe91906111d4565b60405180910390f35b61010f610403565b60405161011c91906111fe565b60405180910390f35b61013f600480360381019061013a9190611219565b610411565b60405161014c91906111d4565b60405180910390f35b61015d610646565b60405161016a9190611288565b60405180910390f35b61018d60048036038101906101889190611179565b61064b565b60405161019a91906111d4565b60405180910390f35b6101ab610880565b6040516101b891906111fe565b60405180910390f35b6101db60048036038101906101d691906112a3565b61088a565b6040516101e891906111fe565b60405180910390f35b6101f96108d2565b60405161020691906110be565b60405180910390f35b61022960048036038101906102249190611179565b61090b565b60405161023691906111d4565b60405180910390f35b61025960048036038101906102549190611179565b610b40565b60405161026691906111d4565b60405180910390f35b610289600480360381019061028491906112d0565b610d5c565b60405161029691906111fe565b60405180910390f35b6040518060400160405280600a81526020017f4465666920546f6b656e0000000000000000000000000000000000000000000081525081565b60008073ffffffffffffffffffffffffffffffffffffffff168373ffffffffffffffffffffffffffffffffffffffff16141561031357600080fd5b81600160003373ffffffffffffffffffffffffffffffffffffffff1673ffffffffffffffffffffffffffffffffffffffff16815260200190815260200160002060008573ffffffffffffffffffffffffffffffffffffffff1673ffffffffffffffffffffffffffffffffffffffff168152602001908152602001600020819055508273ffffffffffffffffffffffffffffffffffffffff163373ffffffffffffffffffffffffffffffffffffffff167f8c5be1e5ebec7d5bd14f71427d1e84f3dd0314c0f7b2291e5b200ac8c7c3b925846040516103f191906111fe565b60405180910390a36001905092915050565b60006509184e72a000905090565b60008060008573ffffffffffffffffffffffffffffffffffffffff1673ffffffffffffffffffffffffffffffffffffffff1681526020019081526020016000205482111561045e57600080fd5b600160008573ffffffffffffffffffffffffffffffffffffffff1673ffffffffffffffffffffffffffffffffffffffff16815260200190815260200160002060003373ffffffffffffffffffffffffffffffffffffffff1673ffffffffffffffffffffffffffffffffffffffff168152602001908152602001600020548211156104e757600080fd5b600073ffffffffffffffffffffffffffffffffffffffff168373ffffffffffffffffffffffffffffffffffffffff16141561052157600080fd5b6105b082600160008773ffffffffffffffffffffffffffffffffffffffff1673ffffffffffffffffffffffffffffffffffffffff16815260200190815260200160002060003373ffffffffffffffffffffffffffffffffffffffff1673ffffffffffffffffffffffffffffffffffffffff16815260200190815260200160002054610de390919063ffffffff16565b600160008673ffffffffffffffffffffffffffffffffffffffff1673ffffffffffffffffffffffffffffffffffffffff16815260200190815260200160002060003373ffffffffffffffffffffffffffffffffffffffff1673ffffffffffffffffffffffffffffffffffffffff1681526020019081526020016000208190555061063b848484610e3c565b600190509392505050565b600a81565b60008073ffffffffffffffffffffffffffffffffffffffff168373ffffffffffffffffffffffffffffffffffffffff16141561068657600080fd5b61071582600160003373ffffffffffffffffffffffffffffffffffffffff1673ffffffffffffffffffffffffffffffffffffffff16815260200190815260200160002060008673ffffffffffffffffffffffffffffffffffffffff1673ffffffffffffffffffffffffffffffffffffffff16815260200190815260200160002054610fcc90919063ffffffff16565b600160003373ffffffffffffffffffffffffffffffffffffffff1673ffffffffffffffffffffffffffffffffffffffff16815260200190815260200160002060008573ffffffffffffffffffffffffffffffffffffffff1673ffffffffffffffffffffffffffffffffffffffff168152602001908152602001600020819055508273ffffffffffffffffffffffffffffffffffffffff163373ffffffffffffffffffffffffffffffffffffffff167f8c5be1e5ebec7d5bd14f71427d1e84f3dd0314c0f7b2291e5b200ac8c7c3b925600160003373ffffffffffffffffffffffffffffffffffffffff1673ffffffffffffffffffffffffffffffffffffffff16815260200190815260200160002060008773ffffffffffffffffffffffffffffffffffffffff1673ffffffffffffffffffffffffffffffffffffffff1681526020019081526020016000205460405161086e91906111fe565b60405180910390a36001905092915050565b6509184e72a00081565b60008060008373ffffffffffffffffffffffffffffffffffffffff1673ffffffffffffffffffffffffffffffffffffffff168152602001908152602001600020549050919050565b6040518060400160405280600481526020017f444546490000000000000000000000000000000000000000000000000000000081525081565b60008073ffffffffffffffffffffffffffffffffffffffff168373ffffffffffffffffffffffffffffffffffffffff16141561094657600080fd5b6109d582600160003373ffffffffffffffffffffffffffffffffffffffff1673ffffffffffffffffffffffffffffffffffffffff16815260200190815260200160002060008673ffffffffffffffffffffffffffffffffffffffff1673ffffffffffffffffffffffffffffffffffffffff16815260200190815260200160002054610de390919063ffffffff16565b600160003373ffffffffffffffffffffffffffffffffffffffff1673ffffffffffffffffffffffffffffffffffffffff16815260200190815260200160002060008573ffffffffffffffffffffffffffffffffffffffff1673ffffffffffffffffffffffffffffffffffffffff168152602001908152602001600020819055508273ffffffffffffffffffffffffffffffffffffffff163373ffffffffffffffffffffffffffffffffffffffff167f8c5be1e5ebec7d5bd14f71427d1e84f3dd0314c0f7b2291e5b200ac8c7c3b925600160003373ffffffffffffffffffffffffffffffffffffffff1673ffffffffffffffffffffffffffffffffffffffff16815260200190815260200160002060008773ffffffffffffffffffffffffffffffffffffffff1673ffffffffffffffffffffffffffffffffffffffff16815260200190815260200160002054604051610b2e91906111fe565b60405180910390a36001905092915050565b60008060003373ffffffffffffffffffffffffffffffffffffffff1673ffffffffffffffffffffffffffffffffffffffff16815260200190815260200160002054821115610b8d57600080fd5b600073ffffffffffffffffffffffffffffffffffffffff168373ffffffffffffffffffffffffffffffffffffffff161415610bc757600080fd5b610c18826000803373ffffffffffffffffffffffffffffffffffffffff1673ffffffffffffffffffffffffffffffffffffffff16815260200190815260200160002054610de390919063ffffffff16565b6000803373ffffffffffffffffffffffffffffffffffffffff1673ffffffffffffffffffffffffffffffffffffffff16815260200190815260200160002081905550610cab826000808673ffffffffffffffffffffffffffffffffffffffff1673ffffffffffffffffffffffffffffffffffffffff16815260200190815260200160002054610fcc90919063ffffffff16565b6000808573ffffffffffffffffffffffffffffffffffffffff1673ffffffffffffffffffffffffffffffffffffffff168152602001908152602001600020819055508273ffffffffffffffffffffffffffffffffffffffff163373ffffffffffffffffffffffffffffffffffffffff167fddf252ad1be2c89b69c2b068fc378daa952ba7f163c4a11628f55a4df523b3ef84604051610d4a91906111fe565b60405180910390a36001905092915050565b6000600160008473ffffffffffffffffffffffffffffffffffffffff1673ffffffffffffffffffffffffffffffffffffffff16815260200190815260200160002060008373ffffffffffffffffffffffffffffffffffffffff1673ffffffffffffffffffffffffffffffffffffffff16815260200190815260200160002054905092915050565b6000828284610df2919061133f565b9150811115610e36576040517f08c379a0000000000000000000000000000000000000000000000000000000008152600401610e2d906113bf565b60405180910390fd5b92915050565b610e8d816000808673ffffffffffffffffffffffffffffffffffffffff1673ffffffffffffffffffffffffffffffffffffffff16815260200190815260200160002054610de390919063ffffffff16565b6000808573ffffffffffffffffffffffffffffffffffffffff1673ffffffffffffffffffffffffffffffffffffffff16815260200190815260200160002081905550610f20816000808573ffffffffffffffffffffffffffffffffffffffff1673ffffffffffffffffffffffffffffffffffffffff16815260200190815260200160002054610fcc90919063ffffffff16565b6000808473ffffffffffffffffffffffffffffffffffffffff1673ffffffffffffffffffffffffffffffffffffffff168152602001908152602001600020819055508173ffffffffffffffffffffffffffffffffffffffff168373ffffffffffffffffffffffffffffffffffffffff167fddf252ad1be2c89b69c2b068fc378daa952ba7f163c4a11628f55a4df523b3ef83604051610fbf91906111fe565b60405180910390a3505050565b6000828284610fdb91906113df565b915081101561101f576040517f08c379a000000000000000000000000000000000000000000000000000000000815260040161101690611481565b60405180910390fd5b92915050565b600081519050919050565b600082825260208201905092915050565b60005b8381101561105f578082015181840152602081019050611044565b8381111561106e576000848401525b50505050565b6000601f19601f8301169050919050565b600061109082611025565b61109a8185611030565b93506110aa818560208601611041565b6110b381611074565b840191505092915050565b600060208201905081810360008301526110d88184611085565b905092915050565b600080fd5b600073ffffffffffffffffffffffffffffffffffffffff82169050919050565b6000611110826110e5565b9050919050565b61112081611105565b811461112b57600080fd5b50565b60008135905061113d81611117565b92915050565b6000819050919050565b61115681611143565b811461116157600080fd5b50565b6000813590506111738161114d565b92915050565b600080604083850312156111905761118f6110e0565b5b600061119e8582860161112e565b92505060206111af85828601611164565b9150509250929050565b60008115159050919050565b6111ce816111b9565b82525050565b60006020820190506111e960008301846111c5565b92915050565b6111f881611143565b82525050565b600060208201905061121360008301846111ef565b92915050565b600080600060608486031215611232576112316110e0565b5b60006112408682870161112e565b93505060206112518682870161112e565b925050604061126286828701611164565b9150509250925092565b600060ff82169050919050565b6112828161126c565b82525050565b600060208201905061129d6000830184611279565b92915050565b6000602082840312156112b9576112b86110e0565b5b60006112c78482850161112e565b91505092915050565b600080604083850312156112e7576112e66110e0565b5b60006112f58582860161112e565b92505060206113068582860161112e565b9150509250929050565b7f4e487b7100000000000000000000000000000000000000000000000000000000600052601160045260246000fd5b600061134a82611143565b915061135583611143565b92508282101561136857611367611310565b5b828203905092915050565b7f64732d6d6174682d7375622d756e646572666c6f770000000000000000000000600082015250565b60006113a9601583611030565b91506113b482611373565b602082019050919050565b600060208201905081810360008301526113d88161139c565b9050919050565b60006113ea82611143565b91506113f583611143565b9250827fffffffffffffffffffffffffffffffffffffffffffffffffffffffffffffffff0382111561142a57611429611310565b5b828201905092915050565b7f64732d6d6174682d6164642d6f766572666c6f77000000000000000000000000600082015250565b600061146b601483611030565b915061147682611435565b602082019050919050565b6000602082019050818103600083015261149a8161145e565b905091905056fea264697066735822122049d2debe82db253ed08f5cc3605fecfaa1b5b187f59d93f88be5ce65189f1b1964736f6c634300080a0033",
					"opcodes": "PUSH1 0x80 PUSH1 0x40 MSTORE CALLVALUE DUP1 ISZERO PUSH2 0x10 JUMPI PUSH1 0x0 DUP1 REVERT JUMPDEST POP PUSH6 0x9184E72A000 PUSH1 0x0 DUP1 CALLER PUSH20 0xFFFFFFFFFFFFFFFFFFFFFFFFFFFFFFFFFFFFFFFF AND PUSH20 0xFFFFFFFFFFFFFFFFFFFFFFFFFFFFFFFFFFFFFFFF AND DUP2 MSTORE PUSH1 0x20 ADD SWAP1 DUP2 MSTORE PUSH1 0x20 ADD PUSH1 0x0 KECCAK256 DUP2 SWAP1 SSTORE POP CALLER PUSH20 0xFFFFFFFFFFFFFFFFFFFFFFFFFFFFFFFFFFFFFFFF AND PUSH1 0x0 PUSH20 0xFFFFFFFFFFFFFFFFFFFFFFFFFFFFFFFFFFFFFFFF AND PUSH32 0xDDF252AD1BE2C89B69C2B068FC378DAA952BA7F163C4A11628F55A4DF523B3EF PUSH6 0x9184E72A000 PUSH1 0x40 MLOAD PUSH2 0xBE SWAP2 SWAP1 PUSH2 0xE4 JUMP JUMPDEST PUSH1 0x40 MLOAD DUP1 SWAP2 SUB SWAP1 LOG3 PUSH2 0xFF JUMP JUMPDEST PUSH1 0x0 DUP2 SWAP1 POP SWAP2 SWAP1 POP JUMP JUMPDEST PUSH2 0xDE DUP2 PUSH2 0xCB JUMP JUMPDEST DUP3 MSTORE POP POP JUMP JUMPDEST PUSH1 0x0 PUSH1 0x20 DUP3 ADD SWAP1 POP PUSH2 0xF9 PUSH1 0x0 DUP4 ADD DUP5 PUSH2 0xD5 JUMP JUMPDEST SWAP3 SWAP2 POP POP JUMP JUMPDEST PUSH2 0x14D7 DUP1 PUSH2 0x10E PUSH1 0x0 CODECOPY PUSH1 0x0 RETURN INVALID PUSH1 0x80 PUSH1 0x40 MSTORE CALLVALUE DUP1 ISZERO PUSH2 0x10 JUMPI PUSH1 0x0 DUP1 REVERT JUMPDEST POP PUSH1 0x4 CALLDATASIZE LT PUSH2 0xB4 JUMPI PUSH1 0x0 CALLDATALOAD PUSH1 0xE0 SHR DUP1 PUSH4 0x3EAAF86B GT PUSH2 0x71 JUMPI DUP1 PUSH4 0x3EAAF86B EQ PUSH2 0x1A3 JUMPI DUP1 PUSH4 0x70A08231 EQ PUSH2 0x1C1 JUMPI DUP1 PUSH4 0x95D89B41 EQ PUSH2 0x1F1 JUMPI DUP1 PUSH4 0xA457C2D7 EQ PUSH2 0x20F JUMPI DUP1 PUSH4 0xA9059CBB EQ PUSH2 0x23F JUMPI DUP1 PUSH4 0xDD62ED3E EQ PUSH2 0x26F JUMPI PUSH2 0xB4 JUMP JUMPDEST DUP1 PUSH4 0x6FDDE03 EQ PUSH2 0xB9 JUMPI DUP1 PUSH4 0x95EA7B3 EQ PUSH2 0xD7 JUMPI DUP1 PUSH4 0x18160DDD EQ PUSH2 0x107 JUMPI DUP1 PUSH4 0x23B872DD EQ PUSH2 0x125 JUMPI DUP1 PUSH4 0x313CE567 EQ PUSH2 0x155 JUMPI DUP1 PUSH4 0x39509351 EQ PUSH2 0x173 JUMPI JUMPDEST PUSH1 0x0 DUP1 REVERT JUMPDEST PUSH2 0xC1 PUSH2 0x29F JUMP JUMPDEST PUSH1 0x40 MLOAD PUSH2 0xCE SWAP2 SWAP1 PUSH2 0x10BE JUMP JUMPDEST PUSH1 0x40 MLOAD DUP1 SWAP2 SUB SWAP1 RETURN JUMPDEST PUSH2 0xF1 PUSH1 0x4 DUP1 CALLDATASIZE SUB DUP2 ADD SWAP1 PUSH2 0xEC SWAP2 SWAP1 PUSH2 0x1179 JUMP JUMPDEST PUSH2 0x2D8 JUMP JUMPDEST PUSH1 0x40 MLOAD PUSH2 0xFE SWAP2 SWAP1 PUSH2 0x11D4 JUMP JUMPDEST PUSH1 0x40 MLOAD DUP1 SWAP2 SUB SWAP1 RETURN JUMPDEST PUSH2 0x10F PUSH2 0x403 JUMP JUMPDEST PUSH1 0x40 MLOAD PUSH2 0x11C SWAP2 SWAP1 PUSH2 0x11FE JUMP JUMPDEST PUSH1 0x40 MLOAD DUP1 SWAP2 SUB SWAP1 RETURN JUMPDEST PUSH2 0x13F PUSH1 0x4 DUP1 CALLDATASIZE SUB DUP2 ADD SWAP1 PUSH2 0x13A SWAP2 SWAP1 PUSH2 0x1219 JUMP JUMPDEST PUSH2 0x411 JUMP JUMPDEST PUSH1 0x40 MLOAD PUSH2 0x14C SWAP2 SWAP1 PUSH2 0x11D4 JUMP JUMPDEST PUSH1 0x40 MLOAD DUP1 SWAP2 SUB SWAP1 RETURN JUMPDEST PUSH2 0x15D PUSH2 0x646 JUMP JUMPDEST PUSH1 0x40 MLOAD PUSH2 0x16A SWAP2 SWAP1 PUSH2 0x1288 JUMP JUMPDEST PUSH1 0x40 MLOAD DUP1 SWAP2 SUB SWAP1 RETURN JUMPDEST PUSH2 0x18D PUSH1 0x4 DUP1 CALLDATASIZE SUB DUP2 ADD SWAP1 PUSH2 0x188 SWAP2 SWAP1 PUSH2 0x1179 JUMP JUMPDEST PUSH2 0x64B JUMP JUMPDEST PUSH1 0x40 MLOAD PUSH2 0x19A SWAP2 SWAP1 PUSH2 0x11D4 JUMP JUMPDEST PUSH1 0x40 MLOAD DUP1 SWAP2 SUB SWAP1 RETURN JUMPDEST PUSH2 0x1AB PUSH2 0x880 JUMP JUMPDEST PUSH1 0x40 MLOAD PUSH2 0x1B8 SWAP2 SWAP1 PUSH2 0x11FE JUMP JUMPDEST PUSH1 0x40 MLOAD DUP1 SWAP2 SUB SWAP1 RETURN JUMPDEST PUSH2 0x1DB PUSH1 0x4 DUP1 CALLDATASIZE SUB DUP2 ADD SWAP1 PUSH2 0x1D6 SWAP2 SWAP1 PUSH2 0x12A3 JUMP JUMPDEST PUSH2 0x88A JUMP JUMPDEST PUSH1 0x40 MLOAD PUSH2 0x1E8 SWAP2 SWAP1 PUSH2 0x11FE JUMP JUMPDEST PUSH1 0x40 MLOAD DUP1 SWAP2 SUB SWAP1 RETURN JUMPDEST PUSH2 0x1F9 PUSH2 0x8D2 JUMP JUMPDEST PUSH1 0x40 MLOAD PUSH2 0x206 SWAP2 SWAP1 PUSH2 0x10BE JUMP JUMPDEST PUSH1 0x40 MLOAD DUP1 SWAP2 SUB SWAP1 RETURN JUMPDEST PUSH2 0x229 PUSH1 0x4 DUP1 CALLDATASIZE SUB DUP2 ADD SWAP1 PUSH2 0x224 SWAP2 SWAP1 PUSH2 0x1179 JUMP JUMPDEST PUSH2 0x90B JUMP JUMPDEST PUSH1 0x40 MLOAD PUSH2 0x236 SWAP2 SWAP1 PUSH2 0x11D4 JUMP JUMPDEST PUSH1 0x40 MLOAD DUP1 SWAP2 SUB SWAP1 RETURN JUMPDEST PUSH2 0x259 PUSH1 0x4 DUP1 CALLDATASIZE SUB DUP2 ADD SWAP1 PUSH2 0x254 SWAP2 SWAP1 PUSH2 0x1179 JUMP JUMPDEST PUSH2 0xB40 JUMP JUMPDEST PUSH1 0x40 MLOAD PUSH2 0x266 SWAP2 SWAP1 PUSH2 0x11D4 JUMP JUMPDEST PUSH1 0x40 MLOAD DUP1 SWAP2 SUB SWAP1 RETURN JUMPDEST PUSH2 0x289 PUSH1 0x4 DUP1 CALLDATASIZE SUB DUP2 ADD SWAP1 PUSH2 0x284 SWAP2 SWAP1 PUSH2 0x12D0 JUMP JUMPDEST PUSH2 0xD5C JUMP JUMPDEST PUSH1 0x40 MLOAD PUSH2 0x296 SWAP2 SWAP1 PUSH2 0x11FE JUMP JUMPDEST PUSH1 0x40 MLOAD DUP1 SWAP2 SUB SWAP1 RETURN JUMPDEST PUSH1 0x40 MLOAD DUP1 PUSH1 0x40 ADD PUSH1 0x40 MSTORE DUP1 PUSH1 0xA DUP2 MSTORE PUSH1 0x20 ADD PUSH32 0x4465666920546F6B656E00000000000000000000000000000000000000000000 DUP2 MSTORE POP DUP2 JUMP JUMPDEST PUSH1 0x0 DUP1 PUSH20 0xFFFFFFFFFFFFFFFFFFFFFFFFFFFFFFFFFFFFFFFF AND DUP4 PUSH20 0xFFFFFFFFFFFFFFFFFFFFFFFFFFFFFFFFFFFFFFFF AND EQ ISZERO PUSH2 0x313 JUMPI PUSH1 0x0 DUP1 REVERT JUMPDEST DUP2 PUSH1 0x1 PUSH1 0x0 CALLER PUSH20 0xFFFFFFFFFFFFFFFFFFFFFFFFFFFFFFFFFFFFFFFF AND PUSH20 0xFFFFFFFFFFFFFFFFFFFFFFFFFFFFFFFFFFFFFFFF AND DUP2 MSTORE PUSH1 0x20 ADD SWAP1 DUP2 MSTORE PUSH1 0x20 ADD PUSH1 0x0 KECCAK256 PUSH1 0x0 DUP6 PUSH20 0xFFFFFFFFFFFFFFFFFFFFFFFFFFFFFFFFFFFFFFFF AND PUSH20 0xFFFFFFFFFFFFFFFFFFFFFFFFFFFFFFFFFFFFFFFF AND DUP2 MSTORE PUSH1 0x20 ADD SWAP1 DUP2 MSTORE PUSH1 0x20 ADD PUSH1 0x0 KECCAK256 DUP2 SWAP1 SSTORE POP DUP3 PUSH20 0xFFFFFFFFFFFFFFFFFFFFFFFFFFFFFFFFFFFFFFFF AND CALLER PUSH20 0xFFFFFFFFFFFFFFFFFFFFFFFFFFFFFFFFFFFFFFFF AND PUSH32 0x8C5BE1E5EBEC7D5BD14F71427D1E84F3DD0314C0F7B2291E5B200AC8C7C3B925 DUP5 PUSH1 0x40 MLOAD PUSH2 0x3F1 SWAP2 SWAP1 PUSH2 0x11FE JUMP JUMPDEST PUSH1 0x40 MLOAD DUP1 SWAP2 SUB SWAP1 LOG3 PUSH1 0x1 SWAP1 POP SWAP3 SWAP2 POP POP JUMP JUMPDEST PUSH1 0x0 PUSH6 0x9184E72A000 SWAP1 POP SWAP1 JUMP JUMPDEST PUSH1 0x0 DUP1 PUSH1 0x0 DUP6 PUSH20 0xFFFFFFFFFFFFFFFFFFFFFFFFFFFFFFFFFFFFFFFF AND PUSH20 0xFFFFFFFFFFFFFFFFFFFFFFFFFFFFFFFFFFFFFFFF AND DUP2 MSTORE PUSH1 0x20 ADD SWAP1 DUP2 MSTORE PUSH1 0x20 ADD PUSH1 0x0 KECCAK256 SLOAD DUP3 GT ISZERO PUSH2 0x45E JUMPI PUSH1 0x0 DUP1 REVERT JUMPDEST PUSH1 0x1 PUSH1 0x0 DUP6 PUSH20 0xFFFFFFFFFFFFFFFFFFFFFFFFFFFFFFFFFFFFFFFF AND PUSH20 0xFFFFFFFFFFFFFFFFFFFFFFFFFFFFFFFFFFFFFFFF AND DUP2 MSTORE PUSH1 0x20 ADD SWAP1 DUP2 MSTORE PUSH1 0x20 ADD PUSH1 0x0 KECCAK256 PUSH1 0x0 CALLER PUSH20 0xFFFFFFFFFFFFFFFFFFFFFFFFFFFFFFFFFFFFFFFF AND PUSH20 0xFFFFFFFFFFFFFFFFFFFFFFFFFFFFFFFFFFFFFFFF AND DUP2 MSTORE PUSH1 0x20 ADD SWAP1 DUP2 MSTORE PUSH1 0x20 ADD PUSH1 0x0 KECCAK256 SLOAD DUP3 GT ISZERO PUSH2 0x4E7 JUMPI PUSH1 0x0 DUP1 REVERT JUMPDEST PUSH1 0x0 PUSH20 0xFFFFFFFFFFFFFFFFFFFFFFFFFFFFFFFFFFFFFFFF AND DUP4 PUSH20 0xFFFFFFFFFFFFFFFFFFFFFFFFFFFFFFFFFFFFFFFF AND EQ ISZERO PUSH2 0x521 JUMPI PUSH1 0x0 DUP1 REVERT JUMPDEST PUSH2 0x5B0 DUP3 PUSH1 0x1 PUSH1 0x0 DUP8 PUSH20 0xFFFFFFFFFFFFFFFFFFFFFFFFFFFFFFFFFFFFFFFF AND PUSH20 0xFFFFFFFFFFFFFFFFFFFFFFFFFFFFFFFFFFFFFFFF AND DUP2 MSTORE PUSH1 0x20 ADD SWAP1 DUP2 MSTORE PUSH1 0x20 ADD PUSH1 0x0 KECCAK256 PUSH1 0x0 CALLER PUSH20 0xFFFFFFFFFFFFFFFFFFFFFFFFFFFFFFFFFFFFFFFF AND PUSH20 0xFFFFFFFFFFFFFFFFFFFFFFFFFFFFFFFFFFFFFFFF AND DUP2 MSTORE PUSH1 0x20 ADD SWAP1 DUP2 MSTORE PUSH1 0x20 ADD PUSH1 0x0 KECCAK256 SLOAD PUSH2 0xDE3 SWAP1 SWAP2 SWAP1 PUSH4 0xFFFFFFFF AND JUMP JUMPDEST PUSH1 0x1 PUSH1 0x0 DUP7 PUSH20 0xFFFFFFFFFFFFFFFFFFFFFFFFFFFFFFFFFFFFFFFF AND PUSH20 0xFFFFFFFFFFFFFFFFFFFFFFFFFFFFFFFFFFFFFFFF AND DUP2 MSTORE PUSH1 0x20 ADD SWAP1 DUP2 MSTORE PUSH1 0x20 ADD PUSH1 0x0 KECCAK256 PUSH1 0x0 CALLER PUSH20 0xFFFFFFFFFFFFFFFFFFFFFFFFFFFFFFFFFFFFFFFF AND PUSH20 0xFFFFFFFFFFFFFFFFFFFFFFFFFFFFFFFFFFFFFFFF AND DUP2 MSTORE PUSH1 0x20 ADD SWAP1 DUP2 MSTORE PUSH1 0x20 ADD PUSH1 0x0 KECCAK256 DUP2 SWAP1 SSTORE POP PUSH2 0x63B DUP5 DUP5 DUP5 PUSH2 0xE3C JUMP JUMPDEST PUSH1 0x1 SWAP1 POP SWAP4 SWAP3 POP POP POP JUMP JUMPDEST PUSH1 0xA DUP2 JUMP JUMPDEST PUSH1 0x0 DUP1 PUSH20 0xFFFFFFFFFFFFFFFFFFFFFFFFFFFFFFFFFFFFFFFF AND DUP4 PUSH20 0xFFFFFFFFFFFFFFFFFFFFFFFFFFFFFFFFFFFFFFFF AND EQ ISZERO PUSH2 0x686 JUMPI PUSH1 0x0 DUP1 REVERT JUMPDEST PUSH2 0x715 DUP3 PUSH1 0x1 PUSH1 0x0 CALLER PUSH20 0xFFFFFFFFFFFFFFFFFFFFFFFFFFFFFFFFFFFFFFFF AND PUSH20 0xFFFFFFFFFFFFFFFFFFFFFFFFFFFFFFFFFFFFFFFF AND DUP2 MSTORE PUSH1 0x20 ADD SWAP1 DUP2 MSTORE PUSH1 0x20 ADD PUSH1 0x0 KECCAK256 PUSH1 0x0 DUP7 PUSH20 0xFFFFFFFFFFFFFFFFFFFFFFFFFFFFFFFFFFFFFFFF AND PUSH20 0xFFFFFFFFFFFFFFFFFFFFFFFFFFFFFFFFFFFFFFFF AND DUP2 MSTORE PUSH1 0x20 ADD SWAP1 DUP2 MSTORE PUSH1 0x20 ADD PUSH1 0x0 KECCAK256 SLOAD PUSH2 0xFCC SWAP1 SWAP2 SWAP1 PUSH4 0xFFFFFFFF AND JUMP JUMPDEST PUSH1 0x1 PUSH1 0x0 CALLER PUSH20 0xFFFFFFFFFFFFFFFFFFFFFFFFFFFFFFFFFFFFFFFF AND PUSH20 0xFFFFFFFFFFFFFFFFFFFFFFFFFFFFFFFFFFFFFFFF AND DUP2 MSTORE PUSH1 0x20 ADD SWAP1 DUP2 MSTORE PUSH1 0x20 ADD PUSH1 0x0 KECCAK256 PUSH1 0x0 DUP6 PUSH20 0xFFFFFFFFFFFFFFFFFFFFFFFFFFFFFFFFFFFFFFFF AND PUSH20 0xFFFFFFFFFFFFFFFFFFFFFFFFFFFFFFFFFFFFFFFF AND DUP2 MSTORE PUSH1 0x20 ADD SWAP1 DUP2 MSTORE PUSH1 0x20 ADD PUSH1 0x0 KECCAK256 DUP2 SWAP1 SSTORE POP DUP3 PUSH20 0xFFFFFFFFFFFFFFFFFFFFFFFFFFFFFFFFFFFFFFFF AND CALLER PUSH20 0xFFFFFFFFFFFFFFFFFFFFFFFFFFFFFFFFFFFFFFFF AND PUSH32 0x8C5BE1E5EBEC7D5BD14F71427D1E84F3DD0314C0F7B2291E5B200AC8C7C3B925 PUSH1 0x1 PUSH1 0x0 CALLER PUSH20 0xFFFFFFFFFFFFFFFFFFFFFFFFFFFFFFFFFFFFFFFF AND PUSH20 0xFFFFFFFFFFFFFFFFFFFFFFFFFFFFFFFFFFFFFFFF AND DUP2 MSTORE PUSH1 0x20 ADD SWAP1 DUP2 MSTORE PUSH1 0x20 ADD PUSH1 0x0 KECCAK256 PUSH1 0x0 DUP8 PUSH20 0xFFFFFFFFFFFFFFFFFFFFFFFFFFFFFFFFFFFFFFFF AND PUSH20 0xFFFFFFFFFFFFFFFFFFFFFFFFFFFFFFFFFFFFFFFF AND DUP2 MSTORE PUSH1 0x20 ADD SWAP1 DUP2 MSTORE PUSH1 0x20 ADD PUSH1 0x0 KECCAK256 SLOAD PUSH1 0x40 MLOAD PUSH2 0x86E SWAP2 SWAP1 PUSH2 0x11FE JUMP JUMPDEST PUSH1 0x40 MLOAD DUP1 SWAP2 SUB SWAP1 LOG3 PUSH1 0x1 SWAP1 POP SWAP3 SWAP2 POP POP JUMP JUMPDEST PUSH6 0x9184E72A000 DUP2 JUMP JUMPDEST PUSH1 0x0 DUP1 PUSH1 0x0 DUP4 PUSH20 0xFFFFFFFFFFFFFFFFFFFFFFFFFFFFFFFFFFFFFFFF AND PUSH20 0xFFFFFFFFFFFFFFFFFFFFFFFFFFFFFFFFFFFFFFFF AND DUP2 MSTORE PUSH1 0x20 ADD SWAP1 DUP2 MSTORE PUSH1 0x20 ADD PUSH1 0x0 KECCAK256 SLOAD SWAP1 POP SWAP2 SWAP1 POP JUMP JUMPDEST PUSH1 0x40 MLOAD DUP1 PUSH1 0x40 ADD PUSH1 0x40 MSTORE DUP1 PUSH1 0x4 DUP2 MSTORE PUSH1 0x20 ADD PUSH32 0x4445464900000000000000000000000000000000000000000000000000000000 DUP2 MSTORE POP DUP2 JUMP JUMPDEST PUSH1 0x0 DUP1 PUSH20 0xFFFFFFFFFFFFFFFFFFFFFFFFFFFFFFFFFFFFFFFF AND DUP4 PUSH20 0xFFFFFFFFFFFFFFFFFFFFFFFFFFFFFFFFFFFFFFFF AND EQ ISZERO PUSH2 0x946 JUMPI PUSH1 0x0 DUP1 REVERT JUMPDEST PUSH2 0x9D5 DUP3 PUSH1 0x1 PUSH1 0x0 CALLER PUSH20 0xFFFFFFFFFFFFFFFFFFFFFFFFFFFFFFFFFFFFFFFF AND PUSH20 0xFFFFFFFFFFFFFFFFFFFFFFFFFFFFFFFFFFFFFFFF AND DUP2 MSTORE PUSH1 0x20 ADD SWAP1 DUP2 MSTORE PUSH1 0x20 ADD PUSH1 0x0 KECCAK256 PUSH1 0x0 DUP7 PUSH20 0xFFFFFFFFFFFFFFFFFFFFFFFFFFFFFFFFFFFFFFFF AND PUSH20 0xFFFFFFFFFFFFFFFFFFFFFFFFFFFFFFFFFFFFFFFF AND DUP2 MSTORE PUSH1 0x20 ADD SWAP1 DUP2 MSTORE PUSH1 0x20 ADD PUSH1 0x0 KECCAK256 SLOAD PUSH2 0xDE3 SWAP1 SWAP2 SWAP1 PUSH4 0xFFFFFFFF AND JUMP JUMPDEST PUSH1 0x1 PUSH1 0x0 CALLER PUSH20 0xFFFFFFFFFFFFFFFFFFFFFFFFFFFFFFFFFFFFFFFF AND PUSH20 0xFFFFFFFFFFFFFFFFFFFFFFFFFFFFFFFFFFFFFFFF AND DUP2 MSTORE PUSH1 0x20 ADD SWAP1 DUP2 MSTORE PUSH1 0x20 ADD PUSH1 0x0 KECCAK256 PUSH1 0x0 DUP6 PUSH20 0xFFFFFFFFFFFFFFFFFFFFFFFFFFFFFFFFFFFFFFFF AND PUSH20 0xFFFFFFFFFFFFFFFFFFFFFFFFFFFFFFFFFFFFFFFF AND DUP2 MSTORE PUSH1 0x20 ADD SWAP1 DUP2 MSTORE PUSH1 0x20 ADD PUSH1 0x0 KECCAK256 DUP2 SWAP1 SSTORE POP DUP3 PUSH20 0xFFFFFFFFFFFFFFFFFFFFFFFFFFFFFFFFFFFFFFFF AND CALLER PUSH20 0xFFFFFFFFFFFFFFFFFFFFFFFFFFFFFFFFFFFFFFFF AND PUSH32 0x8C5BE1E5EBEC7D5BD14F71427D1E84F3DD0314C0F7B2291E5B200AC8C7C3B925 PUSH1 0x1 PUSH1 0x0 CALLER PUSH20 0xFFFFFFFFFFFFFFFFFFFFFFFFFFFFFFFFFFFFFFFF AND PUSH20 0xFFFFFFFFFFFFFFFFFFFFFFFFFFFFFFFFFFFFFFFF AND DUP2 MSTORE PUSH1 0x20 ADD SWAP1 DUP2 MSTORE PUSH1 0x20 ADD PUSH1 0x0 KECCAK256 PUSH1 0x0 DUP8 PUSH20 0xFFFFFFFFFFFFFFFFFFFFFFFFFFFFFFFFFFFFFFFF AND PUSH20 0xFFFFFFFFFFFFFFFFFFFFFFFFFFFFFFFFFFFFFFFF AND DUP2 MSTORE PUSH1 0x20 ADD SWAP1 DUP2 MSTORE PUSH1 0x20 ADD PUSH1 0x0 KECCAK256 SLOAD PUSH1 0x40 MLOAD PUSH2 0xB2E SWAP2 SWAP1 PUSH2 0x11FE JUMP JUMPDEST PUSH1 0x40 MLOAD DUP1 SWAP2 SUB SWAP1 LOG3 PUSH1 0x1 SWAP1 POP SWAP3 SWAP2 POP POP JUMP JUMPDEST PUSH1 0x0 DUP1 PUSH1 0x0 CALLER PUSH20 0xFFFFFFFFFFFFFFFFFFFFFFFFFFFFFFFFFFFFFFFF AND PUSH20 0xFFFFFFFFFFFFFFFFFFFFFFFFFFFFFFFFFFFFFFFF AND DUP2 MSTORE PUSH1 0x20 ADD SWAP1 DUP2 MSTORE PUSH1 0x20 ADD PUSH1 0x0 KECCAK256 SLOAD DUP3 GT ISZERO PUSH2 0xB8D JUMPI PUSH1 0x0 DUP1 REVERT JUMPDEST PUSH1 0x0 PUSH20 0xFFFFFFFFFFFFFFFFFFFFFFFFFFFFFFFFFFFFFFFF AND DUP4 PUSH20 0xFFFFFFFFFFFFFFFFFFFFFFFFFFFFFFFFFFFFFFFF AND EQ ISZERO PUSH2 0xBC7 JUMPI PUSH1 0x0 DUP1 REVERT JUMPDEST PUSH2 0xC18 DUP3 PUSH1 0x0 DUP1 CALLER PUSH20 0xFFFFFFFFFFFFFFFFFFFFFFFFFFFFFFFFFFFFFFFF AND PUSH20 0xFFFFFFFFFFFFFFFFFFFFFFFFFFFFFFFFFFFFFFFF AND DUP2 MSTORE PUSH1 0x20 ADD SWAP1 DUP2 MSTORE PUSH1 0x20 ADD PUSH1 0x0 KECCAK256 SLOAD PUSH2 0xDE3 SWAP1 SWAP2 SWAP1 PUSH4 0xFFFFFFFF AND JUMP JUMPDEST PUSH1 0x0 DUP1 CALLER PUSH20 0xFFFFFFFFFFFFFFFFFFFFFFFFFFFFFFFFFFFFFFFF AND PUSH20 0xFFFFFFFFFFFFFFFFFFFFFFFFFFFFFFFFFFFFFFFF AND DUP2 MSTORE PUSH1 0x20 ADD SWAP1 DUP2 MSTORE PUSH1 0x20 ADD PUSH1 0x0 KECCAK256 DUP2 SWAP1 SSTORE POP PUSH2 0xCAB DUP3 PUSH1 0x0 DUP1 DUP7 PUSH20 0xFFFFFFFFFFFFFFFFFFFFFFFFFFFFFFFFFFFFFFFF AND PUSH20 0xFFFFFFFFFFFFFFFFFFFFFFFFFFFFFFFFFFFFFFFF AND DUP2 MSTORE PUSH1 0x20 ADD SWAP1 DUP2 MSTORE PUSH1 0x20 ADD PUSH1 0x0 KECCAK256 SLOAD PUSH2 0xFCC SWAP1 SWAP2 SWAP1 PUSH4 0xFFFFFFFF AND JUMP JUMPDEST PUSH1 0x0 DUP1 DUP6 PUSH20 0xFFFFFFFFFFFFFFFFFFFFFFFFFFFFFFFFFFFFFFFF AND PUSH20 0xFFFFFFFFFFFFFFFFFFFFFFFFFFFFFFFFFFFFFFFF AND DUP2 MSTORE PUSH1 0x20 ADD SWAP1 DUP2 MSTORE PUSH1 0x20 ADD PUSH1 0x0 KECCAK256 DUP2 SWAP1 SSTORE POP DUP3 PUSH20 0xFFFFFFFFFFFFFFFFFFFFFFFFFFFFFFFFFFFFFFFF AND CALLER PUSH20 0xFFFFFFFFFFFFFFFFFFFFFFFFFFFFFFFFFFFFFFFF AND PUSH32 0xDDF252AD1BE2C89B69C2B068FC378DAA952BA7F163C4A11628F55A4DF523B3EF DUP5 PUSH1 0x40 MLOAD PUSH2 0xD4A SWAP2 SWAP1 PUSH2 0x11FE JUMP JUMPDEST PUSH1 0x40 MLOAD DUP1 SWAP2 SUB SWAP1 LOG3 PUSH1 0x1 SWAP1 POP SWAP3 SWAP2 POP POP JUMP JUMPDEST PUSH1 0x0 PUSH1 0x1 PUSH1 0x0 DUP5 PUSH20 0xFFFFFFFFFFFFFFFFFFFFFFFFFFFFFFFFFFFFFFFF AND PUSH20 0xFFFFFFFFFFFFFFFFFFFFFFFFFFFFFFFFFFFFFFFF AND DUP2 MSTORE PUSH1 0x20 ADD SWAP1 DUP2 MSTORE PUSH1 0x20 ADD PUSH1 0x0 KECCAK256 PUSH1 0x0 DUP4 PUSH20 0xFFFFFFFFFFFFFFFFFFFFFFFFFFFFFFFFFFFFFFFF AND PUSH20 0xFFFFFFFFFFFFFFFFFFFFFFFFFFFFFFFFFFFFFFFF AND DUP2 MSTORE PUSH1 0x20 ADD SWAP1 DUP2 MSTORE PUSH1 0x20 ADD PUSH1 0x0 KECCAK256 SLOAD SWAP1 POP SWAP3 SWAP2 POP POP JUMP JUMPDEST PUSH1 0x0 DUP3 DUP3 DUP5 PUSH2 0xDF2 SWAP2 SWAP1 PUSH2 0x133F JUMP JUMPDEST SWAP2 POP DUP2 GT ISZERO PUSH2 0xE36 JUMPI PUSH1 0x40 MLOAD PUSH32 0x8C379A000000000000000000000000000000000000000000000000000000000 DUP2 MSTORE PUSH1 0x4 ADD PUSH2 0xE2D SWAP1 PUSH2 0x13BF JUMP JUMPDEST PUSH1 0x40 MLOAD DUP1 SWAP2 SUB SWAP1 REVERT JUMPDEST SWAP3 SWAP2 POP POP JUMP JUMPDEST PUSH2 0xE8D DUP2 PUSH1 0x0 DUP1 DUP7 PUSH20 0xFFFFFFFFFFFFFFFFFFFFFFFFFFFFFFFFFFFFFFFF AND PUSH20 0xFFFFFFFFFFFFFFFFFFFFFFFFFFFFFFFFFFFFFFFF AND DUP2 MSTORE PUSH1 0x20 ADD SWAP1 DUP2 MSTORE PUSH1 0x20 ADD PUSH1 0x0 KECCAK256 SLOAD PUSH2 0xDE3 SWAP1 SWAP2 SWAP1 PUSH4 0xFFFFFFFF AND JUMP JUMPDEST PUSH1 0x0 DUP1 DUP6 PUSH20 0xFFFFFFFFFFFFFFFFFFFFFFFFFFFFFFFFFFFFFFFF AND PUSH20 0xFFFFFFFFFFFFFFFFFFFFFFFFFFFFFFFFFFFFFFFF AND DUP2 MSTORE PUSH1 0x20 ADD SWAP1 DUP2 MSTORE PUSH1 0x20 ADD PUSH1 0x0 KECCAK256 DUP2 SWAP1 SSTORE POP PUSH2 0xF20 DUP2 PUSH1 0x0 DUP1 DUP6 PUSH20 0xFFFFFFFFFFFFFFFFFFFFFFFFFFFFFFFFFFFFFFFF AND PUSH20 0xFFFFFFFFFFFFFFFFFFFFFFFFFFFFFFFFFFFFFFFF AND DUP2 MSTORE PUSH1 0x20 ADD SWAP1 DUP2 MSTORE PUSH1 0x20 ADD PUSH1 0x0 KECCAK256 SLOAD PUSH2 0xFCC SWAP1 SWAP2 SWAP1 PUSH4 0xFFFFFFFF AND JUMP JUMPDEST PUSH1 0x0 DUP1 DUP5 PUSH20 0xFFFFFFFFFFFFFFFFFFFFFFFFFFFFFFFFFFFFFFFF AND PUSH20 0xFFFFFFFFFFFFFFFFFFFFFFFFFFFFFFFFFFFFFFFF AND DUP2 MSTORE PUSH1 0x20 ADD SWAP1 DUP2 MSTORE PUSH1 0x20 ADD PUSH1 0x0 KECCAK256 DUP2 SWAP1 SSTORE POP DUP2 PUSH20 0xFFFFFFFFFFFFFFFFFFFFFFFFFFFFFFFFFFFFFFFF AND DUP4 PUSH20 0xFFFFFFFFFFFFFFFFFFFFFFFFFFFFFFFFFFFFFFFF AND PUSH32 0xDDF252AD1BE2C89B69C2B068FC378DAA952BA7F163C4A11628F55A4DF523B3EF DUP4 PUSH1 0x40 MLOAD PUSH2 0xFBF SWAP2 SWAP1 PUSH2 0x11FE JUMP JUMPDEST PUSH1 0x40 MLOAD DUP1 SWAP2 SUB SWAP1 LOG3 POP POP POP JUMP JUMPDEST PUSH1 0x0 DUP3 DUP3 DUP5 PUSH2 0xFDB SWAP2 SWAP1 PUSH2 0x13DF JUMP JUMPDEST SWAP2 POP DUP2 LT ISZERO PUSH2 0x101F JUMPI PUSH1 0x40 MLOAD PUSH32 0x8C379A000000000000000000000000000000000000000000000000000000000 DUP2 MSTORE PUSH1 0x4 ADD PUSH2 0x1016 SWAP1 PUSH2 0x1481 JUMP JUMPDEST PUSH1 0x40 MLOAD DUP1 SWAP2 SUB SWAP1 REVERT JUMPDEST SWAP3 SWAP2 POP POP JUMP JUMPDEST PUSH1 0x0 DUP2 MLOAD SWAP1 POP SWAP2 SWAP1 POP JUMP JUMPDEST PUSH1 0x0 DUP3 DUP3 MSTORE PUSH1 0x20 DUP3 ADD SWAP1 POP SWAP3 SWAP2 POP POP JUMP JUMPDEST PUSH1 0x0 JUMPDEST DUP4 DUP2 LT ISZERO PUSH2 0x105F JUMPI DUP1 DUP3 ADD MLOAD DUP2 DUP5 ADD MSTORE PUSH1 0x20 DUP2 ADD SWAP1 POP PUSH2 0x1044 JUMP JUMPDEST DUP4 DUP2 GT ISZERO PUSH2 0x106E JUMPI PUSH1 0x0 DUP5 DUP5 ADD MSTORE JUMPDEST POP POP POP POP JUMP JUMPDEST PUSH1 0x0 PUSH1 0x1F NOT PUSH1 0x1F DUP4 ADD AND SWAP1 POP SWAP2 SWAP1 POP JUMP JUMPDEST PUSH1 0x0 PUSH2 0x1090 DUP3 PUSH2 0x1025 JUMP JUMPDEST PUSH2 0x109A DUP2 DUP6 PUSH2 0x1030 JUMP JUMPDEST SWAP4 POP PUSH2 0x10AA DUP2 DUP6 PUSH1 0x20 DUP7 ADD PUSH2 0x1041 JUMP JUMPDEST PUSH2 0x10B3 DUP2 PUSH2 0x1074 JUMP JUMPDEST DUP5 ADD SWAP2 POP POP SWAP3 SWAP2 POP POP JUMP JUMPDEST PUSH1 0x0 PUSH1 0x20 DUP3 ADD SWAP1 POP DUP2 DUP2 SUB PUSH1 0x0 DUP4 ADD MSTORE PUSH2 0x10D8 DUP2 DUP5 PUSH2 0x1085 JUMP JUMPDEST SWAP1 POP SWAP3 SWAP2 POP POP JUMP JUMPDEST PUSH1 0x0 DUP1 REVERT JUMPDEST PUSH1 0x0 PUSH20 0xFFFFFFFFFFFFFFFFFFFFFFFFFFFFFFFFFFFFFFFF DUP3 AND SWAP1 POP SWAP2 SWAP1 POP JUMP JUMPDEST PUSH1 0x0 PUSH2 0x1110 DUP3 PUSH2 0x10E5 JUMP JUMPDEST SWAP1 POP SWAP2 SWAP1 POP JUMP JUMPDEST PUSH2 0x1120 DUP2 PUSH2 0x1105 JUMP JUMPDEST DUP2 EQ PUSH2 0x112B JUMPI PUSH1 0x0 DUP1 REVERT JUMPDEST POP JUMP JUMPDEST PUSH1 0x0 DUP2 CALLDATALOAD SWAP1 POP PUSH2 0x113D DUP2 PUSH2 0x1117 JUMP JUMPDEST SWAP3 SWAP2 POP POP JUMP JUMPDEST PUSH1 0x0 DUP2 SWAP1 POP SWAP2 SWAP1 POP JUMP JUMPDEST PUSH2 0x1156 DUP2 PUSH2 0x1143 JUMP JUMPDEST DUP2 EQ PUSH2 0x1161 JUMPI PUSH1 0x0 DUP1 REVERT JUMPDEST POP JUMP JUMPDEST PUSH1 0x0 DUP2 CALLDATALOAD SWAP1 POP PUSH2 0x1173 DUP2 PUSH2 0x114D JUMP JUMPDEST SWAP3 SWAP2 POP POP JUMP JUMPDEST PUSH1 0x0 DUP1 PUSH1 0x40 DUP4 DUP6 SUB SLT ISZERO PUSH2 0x1190 JUMPI PUSH2 0x118F PUSH2 0x10E0 JUMP JUMPDEST JUMPDEST PUSH1 0x0 PUSH2 0x119E DUP6 DUP3 DUP7 ADD PUSH2 0x112E JUMP JUMPDEST SWAP3 POP POP PUSH1 0x20 PUSH2 0x11AF DUP6 DUP3 DUP7 ADD PUSH2 0x1164 JUMP JUMPDEST SWAP2 POP POP SWAP3 POP SWAP3 SWAP1 POP JUMP JUMPDEST PUSH1 0x0 DUP2 ISZERO ISZERO SWAP1 POP SWAP2 SWAP1 POP JUMP JUMPDEST PUSH2 0x11CE DUP2 PUSH2 0x11B9 JUMP JUMPDEST DUP3 MSTORE POP POP JUMP JUMPDEST PUSH1 0x0 PUSH1 0x20 DUP3 ADD SWAP1 POP PUSH2 0x11E9 PUSH1 0x0 DUP4 ADD DUP5 PUSH2 0x11C5 JUMP JUMPDEST SWAP3 SWAP2 POP POP JUMP JUMPDEST PUSH2 0x11F8 DUP2 PUSH2 0x1143 JUMP JUMPDEST DUP3 MSTORE POP POP JUMP JUMPDEST PUSH1 0x0 PUSH1 0x20 DUP3 ADD SWAP1 POP PUSH2 0x1213 PUSH1 0x0 DUP4 ADD DUP5 PUSH2 0x11EF JUMP JUMPDEST SWAP3 SWAP2 POP POP JUMP JUMPDEST PUSH1 0x0 DUP1 PUSH1 0x0 PUSH1 0x60 DUP5 DUP7 SUB SLT ISZERO PUSH2 0x1232 JUMPI PUSH2 0x1231 PUSH2 0x10E0 JUMP JUMPDEST JUMPDEST PUSH1 0x0 PUSH2 0x1240 DUP7 DUP3 DUP8 ADD PUSH2 0x112E JUMP JUMPDEST SWAP4 POP POP PUSH1 0x20 PUSH2 0x1251 DUP7 DUP3 DUP8 ADD PUSH2 0x112E JUMP JUMPDEST SWAP3 POP POP PUSH1 0x40 PUSH2 0x1262 DUP7 DUP3 DUP8 ADD PUSH2 0x1164 JUMP JUMPDEST SWAP2 POP POP SWAP3 POP SWAP3 POP SWAP3 JUMP JUMPDEST PUSH1 0x0 PUSH1 0xFF DUP3 AND SWAP1 POP SWAP2 SWAP1 POP JUMP JUMPDEST PUSH2 0x1282 DUP2 PUSH2 0x126C JUMP JUMPDEST DUP3 MSTORE POP POP JUMP JUMPDEST PUSH1 0x0 PUSH1 0x20 DUP3 ADD SWAP1 POP PUSH2 0x129D PUSH1 0x0 DUP4 ADD DUP5 PUSH2 0x1279 JUMP JUMPDEST SWAP3 SWAP2 POP POP JUMP JUMPDEST PUSH1 0x0 PUSH1 0x20 DUP3 DUP5 SUB SLT ISZERO PUSH2 0x12B9 JUMPI PUSH2 0x12B8 PUSH2 0x10E0 JUMP JUMPDEST JUMPDEST PUSH1 0x0 PUSH2 0x12C7 DUP5 DUP3 DUP6 ADD PUSH2 0x112E JUMP JUMPDEST SWAP2 POP POP SWAP3 SWAP2 POP POP JUMP JUMPDEST PUSH1 0x0 DUP1 PUSH1 0x40 DUP4 DUP6 SUB SLT ISZERO PUSH2 0x12E7 JUMPI PUSH2 0x12E6 PUSH2 0x10E0 JUMP JUMPDEST JUMPDEST PUSH1 0x0 PUSH2 0x12F5 DUP6 DUP3 DUP7 ADD PUSH2 0x112E JUMP JUMPDEST SWAP3 POP POP PUSH1 0x20 PUSH2 0x1306 DUP6 DUP3 DUP7 ADD PUSH2 0x112E JUMP JUMPDEST SWAP2 POP POP SWAP3 POP SWAP3 SWAP1 POP JUMP JUMPDEST PUSH32 0x4E487B7100000000000000000000000000000000000000000000000000000000 PUSH1 0x0 MSTORE PUSH1 0x11 PUSH1 0x4 MSTORE PUSH1 0x24 PUSH1 0x0 REVERT JUMPDEST PUSH1 0x0 PUSH2 0x134A DUP3 PUSH2 0x1143 JUMP JUMPDEST SWAP2 POP PUSH2 0x1355 DUP4 PUSH2 0x1143 JUMP JUMPDEST SWAP3 POP DUP3 DUP3 LT ISZERO PUSH2 0x1368 JUMPI PUSH2 0x1367 PUSH2 0x1310 JUMP JUMPDEST JUMPDEST DUP3 DUP3 SUB SWAP1 POP SWAP3 SWAP2 POP POP JUMP JUMPDEST PUSH32 0x64732D6D6174682D7375622D756E646572666C6F770000000000000000000000 PUSH1 0x0 DUP3 ADD MSTORE POP JUMP JUMPDEST PUSH1 0x0 PUSH2 0x13A9 PUSH1 0x15 DUP4 PUSH2 0x1030 JUMP JUMPDEST SWAP2 POP PUSH2 0x13B4 DUP3 PUSH2 0x1373 JUMP JUMPDEST PUSH1 0x20 DUP3 ADD SWAP1 POP SWAP2 SWAP1 POP JUMP JUMPDEST PUSH1 0x0 PUSH1 0x20 DUP3 ADD SWAP1 POP DUP2 DUP2 SUB PUSH1 0x0 DUP4 ADD MSTORE PUSH2 0x13D8 DUP2 PUSH2 0x139C JUMP JUMPDEST SWAP1 POP SWAP2 SWAP1 POP JUMP JUMPDEST PUSH1 0x0 PUSH2 0x13EA DUP3 PUSH2 0x1143 JUMP JUMPDEST SWAP2 POP PUSH2 0x13F5 DUP4 PUSH2 0x1143 JUMP JUMPDEST SWAP3 POP DUP3 PUSH32 0xFFFFFFFFFFFFFFFFFFFFFFFFFFFFFFFFFFFFFFFFFFFFFFFFFFFFFFFFFFFFFFFF SUB DUP3 GT ISZERO PUSH2 0x142A JUMPI PUSH2 0x1429 PUSH2 0x1310 JUMP JUMPDEST JUMPDEST DUP3 DUP3 ADD SWAP1 POP SWAP3 SWAP2 POP POP JUMP JUMPDEST PUSH32 0x64732D6D6174682D6164642D6F766572666C6F77000000000000000000000000 PUSH1 0x0 DUP3 ADD MSTORE POP JUMP JUMPDEST PUSH1 0x0 PUSH2 0x146B PUSH1 0x14 DUP4 PUSH2 0x1030 JUMP JUMPDEST SWAP2 POP PUSH2 0x1476 DUP3 PUSH2 0x1435 JUMP JUMPDEST PUSH1 0x20 DUP3 ADD SWAP1 POP SWAP2 SWAP1 POP JUMP JUMPDEST PUSH1 0x0 PUSH1 0x20 DUP3 ADD SWAP1 POP DUP2 DUP2 SUB PUSH1 0x0 DUP4 ADD MSTORE PUSH2 0x149A DUP2 PUSH2 0x145E JUMP JUMPDEST SWAP1 POP SWAP2 SWAP1 POP JUMP INVALID LOG2 PUSH5 0x6970667358 0x22 SLT KECCAK256 0x49 0xD2 0xDE 0xBE DUP3 0xDB 0x25 RETURNDATACOPY 0xD0 DUP16 0x5C 0xC3 PUSH1 0x5F 0xEC STATICCALL LOG1 0xB5 0xB1 DUP8 CREATE2 SWAP14 SWAP4 0xF8 DUP12 0xE5 0xCE PUSH6 0x189F1B196473 PUSH16 0x6C634300080A00330000000000000000 "
				},
				"gasEstimates": {
					"creation": {
						"codeDepositCost": "1067000",
						"executionCost": "25274",
						"totalCost": "1092274"
					},
					"external": {
						"_totalSupply()": "329",
						"allowance(address,address)": "infinite",
						"approve(address,uint256)": "infinite",
						"balanceOf(address)": "2863",
						"decimals()": "424",
						"decreaseAllowance(address,uint256)": "infinite",
						"increaseAllowance(address,uint256)": "infinite",
						"name()": "infinite",
						"symbol()": "infinite",
						"totalSupply()": "382",
						"transfer(address,uint256)": "infinite",
						"transferFrom(address,address,uint256)": "infinite"
					},
					"internal": {
						"_transfer(address,address,uint256)": "infinite"
					}
				},
				"methodIdentifiers": {
					"_totalSupply()": "3eaaf86b",
					"allowance(address,address)": "dd62ed3e",
					"approve(address,uint256)": "095ea7b3",
					"balanceOf(address)": "70a08231",
					"decimals()": "313ce567",
					"decreaseAllowance(address,uint256)": "a457c2d7",
					"increaseAllowance(address,uint256)": "39509351",
					"name()": "06fdde03",
					"symbol()": "95d89b41",
					"totalSupply()": "18160ddd",
					"transfer(address,uint256)": "a9059cbb",
					"transferFrom(address,address,uint256)": "23b872dd"
				}
			},
			"storageLayout": {
				"storage": [
					{
						"astId": 26,
						"contract": "DefiToken.sol:DefiToken",
						"label": "_balances",
						"offset": 0,
						"slot": "0",
						"type": "t_mapping(t_address,t_uint256)"
					},
					{
						"astId": 32,
						"contract": "DefiToken.sol:DefiToken",
						"label": "_allowed",
						"offset": 0,
						"slot": "1",
						"type": "t_mapping(t_address,t_mapping(t_address,t_uint256))"
					}
				],
				"types": {
					"t_address": {
						"encoding": "inplace",
						"label": "address",
						"numberOfBytes": "20"
					},
					"t_mapping(t_address,t_mapping(t_address,t_uint256))": {
						"encoding": "mapping",
						"key": "t_address",
						"label": "mapping(address => mapping(address => uint256))",
						"numberOfBytes": "32",
						"value": "t_mapping(t_address,t_uint256)"
					},
					"t_mapping(t_address,t_uint256)": {
						"encoding": "mapping",
						"key": "t_address",
						"label": "mapping(address => uint256)",
						"numberOfBytes": "32",
						"value": "t_uint256"
					},
					"t_uint256": {
						"encoding": "inplace",
						"label": "uint256",
						"numberOfBytes": "32"
					}
				}
			},
			"userdoc": {
				"kind": "user",
				"methods": {
					"allowance(address,address)": {
						"notice": "Function to check the amount of tokens that an owner allowed to a spender."
					}
				},
				"version": 1
			}
		}
	}
}