{
	"LionToken.sol": {
		"LionToken": {
			"abi": [
				{
					"inputs": [],
					"stateMutability": "nonpayable",
					"type": "constructor"
				},
				{
					"anonymous": false,
					"inputs": [
						{
							"indexed": true,
							"internalType": "address",
							"name": "owner",
							"type": "address"
						},
						{
							"indexed": true,
							"internalType": "address",
							"name": "spender",
							"type": "address"
						},
						{
							"indexed": false,
							"internalType": "uint256",
							"name": "value",
							"type": "uint256"
						}
					],
					"name": "Approval",
					"type": "event"
				},
				{
					"anonymous": false,
					"inputs": [
						{
							"indexed": true,
							"internalType": "address",
							"name": "from",
							"type": "address"
						},
						{
							"indexed": true,
							"internalType": "address",
							"name": "to",
							"type": "address"
						},
						{
							"indexed": false,
							"internalType": "uint256",
							"name": "value",
							"type": "uint256"
						}
					],
					"name": "Transfer",
					"type": "event"
				},
				{
					"inputs": [],
					"name": "_totalSupply",
					"outputs": [
						{
							"internalType": "uint256",
							"name": "",
							"type": "uint256"
						}
					],
					"stateMutability": "view",
					"type": "function"
				},
				{
					"inputs": [
						{
							"internalType": "address",
							"name": "owner",
							"type": "address"
						},
						{
							"internalType": "address",
							"name": "spender",
							"type": "address"
						}
					],
					"name": "allowance",
					"outputs": [
						{
							"internalType": "uint256",
							"name": "",
							"type": "uint256"
						}
					],
					"stateMutability": "view",
					"type": "function"
				},
				{
					"inputs": [
						{
							"internalType": "address",
							"name": "spender",
							"type": "address"
						},
						{
							"internalType": "uint256",
							"name": "value",
							"type": "uint256"
						}
					],
					"name": "approve",
					"outputs": [
						{
							"internalType": "bool",
							"name": "",
							"type": "bool"
						}
					],
					"stateMutability": "nonpayable",
					"type": "function"
				},
				{
					"inputs": [
						{
							"internalType": "address",
							"name": "owner",
							"type": "address"
						}
					],
					"name": "balanceOf",
					"outputs": [
						{
							"internalType": "uint256",
							"name": "",
							"type": "uint256"
						}
					],
					"stateMutability": "view",
					"type": "function"
				},
				{
					"inputs": [
						{
							"internalType": "string",
							"name": "newName",
							"type": "string"
						}
					],
					"name": "changeName",
					"outputs": [
						{
							"internalType": "bool",
							"name": "",
							"type": "bool"
						}
					],
					"stateMutability": "nonpayable",
					"type": "function"
				},
				{
					"inputs": [],
					"name": "decimals",
					"outputs": [
						{
							"internalType": "uint8",
							"name": "",
							"type": "uint8"
						}
					],
					"stateMutability": "view",
					"type": "function"
				},
				{
					"inputs": [
						{
							"internalType": "address",
							"name": "spender",
							"type": "address"
						},
						{
							"internalType": "uint256",
							"name": "subtractedValue",
							"type": "uint256"
						}
					],
					"name": "decreaseAllowance",
					"outputs": [
						{
							"internalType": "bool",
							"name": "",
							"type": "bool"
						}
					],
					"stateMutability": "nonpayable",
					"type": "function"
				},
				{
					"inputs": [
						{
							"internalType": "address",
							"name": "spender",
							"type": "address"
						},
						{
							"internalType": "uint256",
							"name": "addedValue",
							"type": "uint256"
						}
					],
					"name": "increaseAllowance",
					"outputs": [
						{
							"internalType": "bool",
							"name": "",
							"type": "bool"
						}
					],
					"stateMutability": "nonpayable",
					"type": "function"
				},
				{
					"inputs": [],
					"name": "name",
					"outputs": [
						{
							"internalType": "string",
							"name": "",
							"type": "string"
						}
					],
					"stateMutability": "view",
					"type": "function"
				},
				{
					"inputs": [],
					"name": "symbol",
					"outputs": [
						{
							"internalType": "string",
							"name": "",
							"type": "string"
						}
					],
					"stateMutability": "view",
					"type": "function"
				},
				{
					"inputs": [],
					"name": "topAddress",
					"outputs": [
						{
							"internalType": "address",
							"name": "",
							"type": "address"
						}
					],
					"stateMutability": "view",
					"type": "function"
				},
				{
					"inputs": [],
					"name": "totalSupply",
					"outputs": [
						{
							"internalType": "uint256",
							"name": "",
							"type": "uint256"
						}
					],
					"stateMutability": "pure",
					"type": "function"
				},
				{
					"inputs": [
						{
							"internalType": "address",
							"name": "to",
							"type": "address"
						},
						{
							"internalType": "uint256",
							"name": "value",
							"type": "uint256"
						}
					],
					"name": "transfer",
					"outputs": [
						{
							"internalType": "bool",
							"name": "",
							"type": "bool"
						}
					],
					"stateMutability": "nonpayable",
					"type": "function"
				},
				{
					"inputs": [
						{
							"internalType": "address",
							"name": "from",
							"type": "address"
						},
						{
							"internalType": "address",
							"name": "to",
							"type": "address"
						},
						{
							"internalType": "uint256",
							"name": "value",
							"type": "uint256"
						}
					],
					"name": "transferFrom",
					"outputs": [
						{
							"internalType": "bool",
							"name": "",
							"type": "bool"
						}
					],
					"stateMutability": "nonpayable",
					"type": "function"
				}
			],
			"devdoc": {
				"kind": "dev",
				"methods": {},
				"version": 1
			},
			"evm": {
				"assembly": "    /* \"LionToken.sol\":134:3524  contract LionToken is IERC20 {... */\n  mstore(0x40, 0x80)\n    /* \"LionToken.sol\":247:280  string public name = 'Lion Token' */\n  mload(0x40)\n  dup1\n  0x40\n  add\n  0x40\n  mstore\n  dup1\n  0x0a\n  dup2\n  mstore\n  0x20\n  add\n  0x4c696f6e20546f6b656e00000000000000000000000000000000000000000000\n  dup2\n  mstore\n  pop\n  0x00\n  swap1\n  dup1\n  mload\n  swap1\n  0x20\n  add\n  swap1\n  tag_1\n  swap3\n  swap2\n  swap1\n  tag_2\n  jump\t// in\ntag_1:\n  pop\n    /* \"LionToken.sol\":738:887  constructor () {... */\n  callvalue\n  dup1\n  iszero\n  tag_3\n  jumpi\n  0x00\n  dup1\n  revert\ntag_3:\n  pop\n    /* \"LionToken.sol\":237:243  10**13 */\n  0x09184e72a000\n    /* \"LionToken.sol\":759:768  _balances */\n  0x02\n    /* \"LionToken.sol\":759:780  _balances[msg.sender] */\n  0x00\n    /* \"LionToken.sol\":769:779  msg.sender */\n  caller\n    /* \"LionToken.sol\":759:780  _balances[msg.sender] */\n  0xffffffffffffffffffffffffffffffffffffffff\n  and\n  0xffffffffffffffffffffffffffffffffffffffff\n  and\n  dup2\n  mstore\n  0x20\n  add\n  swap1\n  dup2\n  mstore\n  0x20\n  add\n  0x00\n  keccak256\n    /* \"LionToken.sol\":759:795  _balances[msg.sender] = _totalSupply */\n  dup2\n  swap1\n  sstore\n  pop\n    /* \"LionToken.sol\":814:824  msg.sender */\n  caller\n    /* \"LionToken.sol\":801:811  topAddress */\n  0x01\n  0x00\n    /* \"LionToken.sol\":801:824  topAddress = msg.sender */\n  0x0100\n  exp\n  dup2\n  sload\n  dup2\n  0xffffffffffffffffffffffffffffffffffffffff\n  mul\n  not\n  and\n  swap1\n  dup4\n  0xffffffffffffffffffffffffffffffffffffffff\n  and\n  mul\n  or\n  swap1\n  sstore\n  pop\n    /* \"LionToken.sol\":856:866  msg.sender */\n  caller\n    /* \"LionToken.sol\":835:882  Transfer(address(0), msg.sender , _totalSupply) */\n  0xffffffffffffffffffffffffffffffffffffffff\n  and\n    /* \"LionToken.sol\":852:853  0 */\n  0x00\n    /* \"LionToken.sol\":835:882  Transfer(address(0), msg.sender , _totalSupply) */\n  0xffffffffffffffffffffffffffffffffffffffff\n  and\n  0xddf252ad1be2c89b69c2b068fc378daa952ba7f163c4a11628f55a4df523b3ef\n    /* \"LionToken.sol\":237:243  10**13 */\n  0x09184e72a000\n    /* \"LionToken.sol\":835:882  Transfer(address(0), msg.sender , _totalSupply) */\n  mload(0x40)\n  tag_6\n  swap2\n  swap1\n  tag_7\n  jump\t// in\ntag_6:\n  mload(0x40)\n  dup1\n  swap2\n  sub\n  swap1\n  log3\n    /* \"LionToken.sol\":134:3524  contract LionToken is IERC20 {... */\n  jump(tag_8)\ntag_2:\n  dup3\n  dup1\n  sload\n  tag_9\n  swap1\n  tag_10\n  jump\t// in\ntag_9:\n  swap1\n  0x00\n  mstore\n  keccak256(0x00, 0x20)\n  swap1\n  0x1f\n  add\n  0x20\n  swap1\n  div\n  dup2\n  add\n  swap3\n  dup3\n  tag_12\n  jumpi\n  0x00\n  dup6\n  sstore\n  jump(tag_11)\ntag_12:\n  dup3\n  0x1f\n  lt\n  tag_13\n  jumpi\n  dup1\n  mload\n  not(0xff)\n  and\n  dup4\n  dup1\n  add\n  or\n  dup6\n  sstore\n  jump(tag_11)\ntag_13:\n  dup3\n  dup1\n  add\n  0x01\n  add\n  dup6\n  sstore\n  dup3\n  iszero\n  tag_11\n  jumpi\n  swap2\n  dup3\n  add\ntag_14:\n  dup3\n  dup2\n  gt\n  iszero\n  tag_15\n  jumpi\n  dup3\n  mload\n  dup3\n  sstore\n  swap2\n  0x20\n  add\n  swap2\n  swap1\n  0x01\n  add\n  swap1\n  jump(tag_14)\ntag_15:\ntag_11:\n  pop\n  swap1\n  pop\n  tag_16\n  swap2\n  swap1\n  tag_17\n  jump\t// in\ntag_16:\n  pop\n  swap1\n  jump\t// out\ntag_17:\ntag_18:\n  dup1\n  dup3\n  gt\n  iszero\n  tag_19\n  jumpi\n  0x00\n  dup2\n  0x00\n  swap1\n  sstore\n  pop\n  0x01\n  add\n  jump(tag_18)\ntag_19:\n  pop\n  swap1\n  jump\t// out\n    /* \"#utility.yul\":7:84   */\ntag_20:\n    /* \"#utility.yul\":44:51   */\n  0x00\n    /* \"#utility.yul\":73:78   */\n  dup2\n    /* \"#utility.yul\":62:78   */\n  swap1\n  pop\n    /* \"#utility.yul\":7:84   */\n  swap2\n  swap1\n  pop\n  jump\t// out\n    /* \"#utility.yul\":90:208   */\ntag_21:\n    /* \"#utility.yul\":177:201   */\n  tag_26\n    /* \"#utility.yul\":195:200   */\n  dup2\n    /* \"#utility.yul\":177:201   */\n  tag_20\n  jump\t// in\ntag_26:\n    /* \"#utility.yul\":172:175   */\n  dup3\n    /* \"#utility.yul\":165:202   */\n  mstore\n    /* \"#utility.yul\":90:208   */\n  pop\n  pop\n  jump\t// out\n    /* \"#utility.yul\":214:436   */\ntag_7:\n    /* \"#utility.yul\":307:311   */\n  0x00\n    /* \"#utility.yul\":345:347   */\n  0x20\n    /* \"#utility.yul\":334:343   */\n  dup3\n    /* \"#utility.yul\":330:348   */\n  add\n    /* \"#utility.yul\":322:348   */\n  swap1\n  pop\n    /* \"#utility.yul\":358:429   */\n  tag_28\n    /* \"#utility.yul\":426:427   */\n  0x00\n    /* \"#utility.yul\":415:424   */\n  dup4\n    /* \"#utility.yul\":411:428   */\n  add\n    /* \"#utility.yul\":402:408   */\n  dup5\n    /* \"#utility.yul\":358:429   */\n  tag_21\n  jump\t// in\ntag_28:\n    /* \"#utility.yul\":214:436   */\n  swap3\n  swap2\n  pop\n  pop\n  jump\t// out\n    /* \"#utility.yul\":442:622   */\ntag_22:\n    /* \"#utility.yul\":490:567   */\n  0x4e487b7100000000000000000000000000000000000000000000000000000000\n    /* \"#utility.yul\":487:488   */\n  0x00\n    /* \"#utility.yul\":480:568   */\n  mstore\n    /* \"#utility.yul\":587:591   */\n  0x22\n    /* \"#utility.yul\":584:585   */\n  0x04\n    /* \"#utility.yul\":577:592   */\n  mstore\n    /* \"#utility.yul\":611:615   */\n  0x24\n    /* \"#utility.yul\":608:609   */\n  0x00\n    /* \"#utility.yul\":601:616   */\n  revert\n    /* \"#utility.yul\":628:948   */\ntag_10:\n    /* \"#utility.yul\":672:678   */\n  0x00\n    /* \"#utility.yul\":709:710   */\n  0x02\n    /* \"#utility.yul\":703:707   */\n  dup3\n    /* \"#utility.yul\":699:711   */\n  div\n    /* \"#utility.yul\":689:711   */\n  swap1\n  pop\n    /* \"#utility.yul\":756:757   */\n  0x01\n    /* \"#utility.yul\":750:754   */\n  dup3\n    /* \"#utility.yul\":746:758   */\n  and\n    /* \"#utility.yul\":777:795   */\n  dup1\n    /* \"#utility.yul\":767:848   */\n  tag_31\n  jumpi\n    /* \"#utility.yul\":833:837   */\n  0x7f\n    /* \"#utility.yul\":825:831   */\n  dup3\n    /* \"#utility.yul\":821:838   */\n  and\n    /* \"#utility.yul\":811:838   */\n  swap2\n  pop\n    /* \"#utility.yul\":767:848   */\ntag_31:\n    /* \"#utility.yul\":895:897   */\n  0x20\n    /* \"#utility.yul\":887:893   */\n  dup3\n    /* \"#utility.yul\":884:898   */\n  lt\n    /* \"#utility.yul\":864:882   */\n  dup2\n    /* \"#utility.yul\":861:899   */\n  eq\n    /* \"#utility.yul\":858:942   */\n  iszero\n  tag_32\n  jumpi\n    /* \"#utility.yul\":914:932   */\n  tag_33\n  tag_22\n  jump\t// in\ntag_33:\n    /* \"#utility.yul\":858:942   */\ntag_32:\n    /* \"#utility.yul\":679:948   */\n  pop\n    /* \"#utility.yul\":628:948   */\n  swap2\n  swap1\n  pop\n  jump\t// out\n    /* \"LionToken.sol\":134:3524  contract LionToken is IERC20 {... */\ntag_8:\n  dataSize(sub_0)\n  dup1\n  dataOffset(sub_0)\n  0x00\n  codecopy\n  0x00\n  return\nstop\n\nsub_0: assembly {\n        /* \"LionToken.sol\":134:3524  contract LionToken is IERC20 {... */\n      mstore(0x40, 0x80)\n      callvalue\n      dup1\n      iszero\n      tag_1\n      jumpi\n      0x00\n      dup1\n      revert\n    tag_1:\n      pop\n      jumpi(tag_2, lt(calldatasize, 0x04))\n      shr(0xe0, calldataload(0x00))\n      dup1\n      0x3eaaf86b\n      gt\n      tag_17\n      jumpi\n      dup1\n      0x95d89b41\n      gt\n      tag_18\n      jumpi\n      dup1\n      0x95d89b41\n      eq\n      tag_13\n      jumpi\n      dup1\n      0xa457c2d7\n      eq\n      tag_14\n      jumpi\n      dup1\n      0xa9059cbb\n      eq\n      tag_15\n      jumpi\n      dup1\n      0xdd62ed3e\n      eq\n      tag_16\n      jumpi\n      jump(tag_2)\n    tag_18:\n      dup1\n      0x3eaaf86b\n      eq\n      tag_10\n      jumpi\n      dup1\n      0x5353a2d8\n      eq\n      tag_11\n      jumpi\n      dup1\n      0x70a08231\n      eq\n      tag_12\n      jumpi\n      jump(tag_2)\n    tag_17:\n      dup1\n      0x23539224\n      gt\n      tag_19\n      jumpi\n      dup1\n      0x23539224\n      eq\n      tag_6\n      jumpi\n      dup1\n      0x23b872dd\n      eq\n      tag_7\n      jumpi\n      dup1\n      0x313ce567\n      eq\n      tag_8\n      jumpi\n      dup1\n      0x39509351\n      eq\n      tag_9\n      jumpi\n      jump(tag_2)\n    tag_19:\n      dup1\n      0x06fdde03\n      eq\n      tag_3\n      jumpi\n      dup1\n      0x095ea7b3\n      eq\n      tag_4\n      jumpi\n      dup1\n      0x18160ddd\n      eq\n      tag_5\n      jumpi\n    tag_2:\n      0x00\n      dup1\n      revert\n        /* \"LionToken.sol\":247:280  string public name = 'Lion Token' */\n    tag_3:\n      tag_20\n      tag_21\n      jump\t// in\n    tag_20:\n      mload(0x40)\n      tag_22\n      swap2\n      swap1\n      tag_23\n      jump\t// in\n    tag_22:\n      mload(0x40)\n      dup1\n      swap2\n      sub\n      swap1\n      return\n        /* \"LionToken.sol\":1962:2190  function approve(address spender, uint256 value) public override returns (bool) {... */\n    tag_4:\n      tag_24\n      0x04\n      dup1\n      calldatasize\n      sub\n      dup2\n      add\n      swap1\n      tag_25\n      swap2\n      swap1\n      tag_26\n      jump\t// in\n    tag_25:\n      tag_27\n      jump\t// in\n    tag_24:\n      mload(0x40)\n      tag_28\n      swap2\n      swap1\n      tag_29\n      jump\t// in\n    tag_28:\n      mload(0x40)\n      dup1\n      swap2\n      sub\n      swap1\n      return\n        /* \"LionToken.sol\":891:985  function totalSupply() external override pure returns (uint256) {... */\n    tag_5:\n      tag_30\n      tag_31\n      jump\t// in\n    tag_30:\n      mload(0x40)\n      tag_32\n      swap2\n      swap1\n      tag_33\n      jump\t// in\n    tag_32:\n      mload(0x40)\n      dup1\n      swap2\n      sub\n      swap1\n      return\n        /* \"LionToken.sol\":365:390  address public topAddress */\n    tag_6:\n      tag_34\n      tag_35\n      jump\t// in\n    tag_34:\n      mload(0x40)\n      tag_36\n      swap2\n      swap1\n      tag_37\n      jump\t// in\n    tag_36:\n      mload(0x40)\n      dup1\n      swap2\n      sub\n      swap1\n      return\n        /* \"LionToken.sol\":2548:2888  function transferFrom( address from, address to, uint256 value) public override returns (bool){... */\n    tag_7:\n      tag_38\n      0x04\n      dup1\n      calldatasize\n      sub\n      dup2\n      add\n      swap1\n      tag_39\n      swap2\n      swap1\n      tag_40\n      jump\t// in\n    tag_39:\n      tag_41\n      jump\t// in\n    tag_38:\n      mload(0x40)\n      tag_42\n      swap2\n      swap1\n      tag_29\n      jump\t// in\n    tag_42:\n      mload(0x40)\n      dup1\n      swap2\n      sub\n      swap1\n      return\n        /* \"LionToken.sol\":284:319  uint8 public constant decimals = 10 */\n    tag_8:\n      tag_43\n      tag_44\n      jump\t// in\n    tag_43:\n      mload(0x40)\n      tag_45\n      swap2\n      swap1\n      tag_46\n      jump\t// in\n    tag_45:\n      mload(0x40)\n      dup1\n      swap2\n      sub\n      swap1\n      return\n        /* \"LionToken.sol\":2892:3201  function increaseAllowance( address spender, uint256 addedValue ) public returns (bool){... */\n    tag_9:\n      tag_47\n      0x04\n      dup1\n      calldatasize\n      sub\n      dup2\n      add\n      swap1\n      tag_48\n      swap2\n      swap1\n      tag_26\n      jump\t// in\n    tag_48:\n      tag_49\n      jump\t// in\n    tag_47:\n      mload(0x40)\n      tag_50\n      swap2\n      swap1\n      tag_29\n      jump\t// in\n    tag_50:\n      mload(0x40)\n      dup1\n      swap2\n      sub\n      swap1\n      return\n        /* \"LionToken.sol\":198:243  uint256 public constant _totalSupply = 10**13 */\n    tag_10:\n      tag_51\n      tag_52\n      jump\t// in\n    tag_51:\n      mload(0x40)\n      tag_53\n      swap2\n      swap1\n      tag_33\n      jump\t// in\n    tag_53:\n      mload(0x40)\n      dup1\n      swap2\n      sub\n      swap1\n      return\n        /* \"LionToken.sol\":1100:1268  function changeName(string memory newName) public returns (bool) {... */\n    tag_11:\n      tag_54\n      0x04\n      dup1\n      calldatasize\n      sub\n      dup2\n      add\n      swap1\n      tag_55\n      swap2\n      swap1\n      tag_56\n      jump\t// in\n    tag_55:\n      tag_57\n      jump\t// in\n    tag_54:\n      mload(0x40)\n      tag_58\n      swap2\n      swap1\n      tag_29\n      jump\t// in\n    tag_58:\n      mload(0x40)\n      dup1\n      swap2\n      sub\n      swap1\n      return\n        /* \"LionToken.sol\":989:1096  function balanceOf(address owner) public override view returns (uint256) {... */\n    tag_12:\n      tag_59\n      0x04\n      dup1\n      calldatasize\n      sub\n      dup2\n      add\n      swap1\n      tag_60\n      swap2\n      swap1\n      tag_61\n      jump\t// in\n    tag_60:\n      tag_62\n      jump\t// in\n    tag_59:\n      mload(0x40)\n      tag_63\n      swap2\n      swap1\n      tag_33\n      jump\t// in\n    tag_63:\n      mload(0x40)\n      dup1\n      swap2\n      sub\n      swap1\n      return\n        /* \"LionToken.sol\":323:361  string public constant symbol = 'LION' */\n    tag_13:\n      tag_64\n      tag_65\n      jump\t// in\n    tag_64:\n      mload(0x40)\n      tag_66\n      swap2\n      swap1\n      tag_23\n      jump\t// in\n    tag_66:\n      mload(0x40)\n      dup1\n      swap2\n      sub\n      swap1\n      return\n        /* \"LionToken.sol\":3205:3521  function decreaseAllowance(address spender,uint256 subtractedValue) public returns (bool){... */\n    tag_14:\n      tag_67\n      0x04\n      dup1\n      calldatasize\n      sub\n      dup2\n      add\n      swap1\n      tag_68\n      swap2\n      swap1\n      tag_26\n      jump\t// in\n    tag_68:\n      tag_69\n      jump\t// in\n    tag_67:\n      mload(0x40)\n      tag_70\n      swap2\n      swap1\n      tag_29\n      jump\t// in\n    tag_70:\n      mload(0x40)\n      dup1\n      swap2\n      sub\n      swap1\n      return\n        /* \"LionToken.sol\":1485:1958  function transfer(address to, uint256 value) public override returns (bool) {... */\n    tag_15:\n      tag_71\n      0x04\n      dup1\n      calldatasize\n      sub\n      dup2\n      add\n      swap1\n      tag_72\n      swap2\n      swap1\n      tag_26\n      jump\t// in\n    tag_72:\n      tag_73\n      jump\t// in\n    tag_71:\n      mload(0x40)\n      tag_74\n      swap2\n      swap1\n      tag_29\n      jump\t// in\n    tag_74:\n      mload(0x40)\n      dup1\n      swap2\n      sub\n      swap1\n      return\n        /* \"LionToken.sol\":1352:1481  function allowance(address owner,address spender)public override view returns (uint256){... */\n    tag_16:\n      tag_75\n      0x04\n      dup1\n      calldatasize\n      sub\n      dup2\n      add\n      swap1\n      tag_76\n      swap2\n      swap1\n      tag_77\n      jump\t// in\n    tag_76:\n      tag_78\n      jump\t// in\n    tag_75:\n      mload(0x40)\n      tag_79\n      swap2\n      swap1\n      tag_33\n      jump\t// in\n    tag_79:\n      mload(0x40)\n      dup1\n      swap2\n      sub\n      swap1\n      return\n        /* \"LionToken.sol\":247:280  string public name = 'Lion Token' */\n    tag_21:\n      0x00\n      dup1\n      sload\n      tag_80\n      swap1\n      tag_81\n      jump\t// in\n    tag_80:\n      dup1\n      0x1f\n      add\n      0x20\n      dup1\n      swap2\n      div\n      mul\n      0x20\n      add\n      mload(0x40)\n      swap1\n      dup2\n      add\n      0x40\n      mstore\n      dup1\n      swap3\n      swap2\n      swap1\n      dup2\n      dup2\n      mstore\n      0x20\n      add\n      dup3\n      dup1\n      sload\n      tag_82\n      swap1\n      tag_81\n      jump\t// in\n    tag_82:\n      dup1\n      iszero\n      tag_83\n      jumpi\n      dup1\n      0x1f\n      lt\n      tag_84\n      jumpi\n      0x0100\n      dup1\n      dup4\n      sload\n      div\n      mul\n      dup4\n      mstore\n      swap2\n      0x20\n      add\n      swap2\n      jump(tag_83)\n    tag_84:\n      dup3\n      add\n      swap2\n      swap1\n      0x00\n      mstore\n      keccak256(0x00, 0x20)\n      swap1\n    tag_85:\n      dup2\n      sload\n      dup2\n      mstore\n      swap1\n      0x01\n      add\n      swap1\n      0x20\n      add\n      dup1\n      dup4\n      gt\n      tag_85\n      jumpi\n      dup3\n      swap1\n      sub\n      0x1f\n      and\n      dup3\n      add\n      swap2\n    tag_83:\n      pop\n      pop\n      pop\n      pop\n      pop\n      dup2\n      jump\t// out\n        /* \"LionToken.sol\":1962:2190  function approve(address spender, uint256 value) public override returns (bool) {... */\n    tag_27:\n        /* \"LionToken.sol\":2036:2040  bool */\n      0x00\n        /* \"LionToken.sol\":2075:2076  0 */\n      dup1\n        /* \"LionToken.sol\":2056:2077  spender != address(0) */\n      0xffffffffffffffffffffffffffffffffffffffff\n      and\n        /* \"LionToken.sol\":2056:2063  spender */\n      dup4\n        /* \"LionToken.sol\":2056:2077  spender != address(0) */\n      0xffffffffffffffffffffffffffffffffffffffff\n      and\n      eq\n      iszero\n        /* \"LionToken.sol\":2048:2078  require(spender != address(0)) */\n      tag_87\n      jumpi\n      0x00\n      dup1\n      revert\n    tag_87:\n        /* \"LionToken.sol\":2116:2121  value */\n      dup2\n        /* \"LionToken.sol\":2084:2092  _allowed */\n      0x03\n        /* \"LionToken.sol\":2084:2104  _allowed[msg.sender] */\n      0x00\n        /* \"LionToken.sol\":2093:2103  msg.sender */\n      caller\n        /* \"LionToken.sol\":2084:2104  _allowed[msg.sender] */\n      0xffffffffffffffffffffffffffffffffffffffff\n      and\n      0xffffffffffffffffffffffffffffffffffffffff\n      and\n      dup2\n      mstore\n      0x20\n      add\n      swap1\n      dup2\n      mstore\n      0x20\n      add\n      0x00\n      keccak256\n        /* \"LionToken.sol\":2084:2113  _allowed[msg.sender][spender] */\n      0x00\n        /* \"LionToken.sol\":2105:2112  spender */\n      dup6\n        /* \"LionToken.sol\":2084:2113  _allowed[msg.sender][spender] */\n      0xffffffffffffffffffffffffffffffffffffffff\n      and\n      0xffffffffffffffffffffffffffffffffffffffff\n      and\n      dup2\n      mstore\n      0x20\n      add\n      swap1\n      dup2\n      mstore\n      0x20\n      add\n      0x00\n      keccak256\n        /* \"LionToken.sol\":2084:2121  _allowed[msg.sender][spender] = value */\n      dup2\n      swap1\n      sstore\n      pop\n        /* \"LionToken.sol\":2153:2160  spender */\n      dup3\n        /* \"LionToken.sol\":2132:2168  Approval(msg.sender, spender, value) */\n      0xffffffffffffffffffffffffffffffffffffffff\n      and\n        /* \"LionToken.sol\":2141:2151  msg.sender */\n      caller\n        /* \"LionToken.sol\":2132:2168  Approval(msg.sender, spender, value) */\n      0xffffffffffffffffffffffffffffffffffffffff\n      and\n      0x8c5be1e5ebec7d5bd14f71427d1e84f3dd0314c0f7b2291e5b200ac8c7c3b925\n        /* \"LionToken.sol\":2162:2167  value */\n      dup5\n        /* \"LionToken.sol\":2132:2168  Approval(msg.sender, spender, value) */\n      mload(0x40)\n      tag_88\n      swap2\n      swap1\n      tag_33\n      jump\t// in\n    tag_88:\n      mload(0x40)\n      dup1\n      swap2\n      sub\n      swap1\n      log3\n        /* \"LionToken.sol\":2181:2185  true */\n      0x01\n        /* \"LionToken.sol\":2174:2185  return true */\n      swap1\n      pop\n        /* \"LionToken.sol\":1962:2190  function approve(address spender, uint256 value) public override returns (bool) {... */\n      swap3\n      swap2\n      pop\n      pop\n      jump\t// out\n        /* \"LionToken.sol\":891:985  function totalSupply() external override pure returns (uint256) {... */\n    tag_31:\n        /* \"LionToken.sol\":946:953  uint256 */\n      0x00\n        /* \"LionToken.sol\":237:243  10**13 */\n      0x09184e72a000\n        /* \"LionToken.sol\":961:980  return _totalSupply */\n      swap1\n      pop\n        /* \"LionToken.sol\":891:985  function totalSupply() external override pure returns (uint256) {... */\n      swap1\n      jump\t// out\n        /* \"LionToken.sol\":365:390  address public topAddress */\n    tag_35:\n      0x01\n      0x00\n      swap1\n      sload\n      swap1\n      0x0100\n      exp\n      swap1\n      div\n      0xffffffffffffffffffffffffffffffffffffffff\n      and\n      dup2\n      jump\t// out\n        /* \"LionToken.sol\":2548:2888  function transferFrom( address from, address to, uint256 value) public override returns (bool){... */\n    tag_41:\n        /* \"LionToken.sol\":2637:2641  bool */\n      0x00\n        /* \"LionToken.sol\":2665:2674  _balances */\n      0x02\n        /* \"LionToken.sol\":2665:2680  _balances[from] */\n      0x00\n        /* \"LionToken.sol\":2675:2679  from */\n      dup6\n        /* \"LionToken.sol\":2665:2680  _balances[from] */\n      0xffffffffffffffffffffffffffffffffffffffff\n      and\n      0xffffffffffffffffffffffffffffffffffffffff\n      and\n      dup2\n      mstore\n      0x20\n      add\n      swap1\n      dup2\n      mstore\n      0x20\n      add\n      0x00\n      keccak256\n      sload\n        /* \"LionToken.sol\":2656:2661  value */\n      dup3\n        /* \"LionToken.sol\":2656:2680  value <= _balances[from] */\n      gt\n      iszero\n        /* \"LionToken.sol\":2648:2681  require(value <= _balances[from]) */\n      tag_91\n      jumpi\n      0x00\n      dup1\n      revert\n    tag_91:\n        /* \"LionToken.sol\":2704:2712  _allowed */\n      0x03\n        /* \"LionToken.sol\":2704:2718  _allowed[from] */\n      0x00\n        /* \"LionToken.sol\":2713:2717  from */\n      dup6\n        /* \"LionToken.sol\":2704:2718  _allowed[from] */\n      0xffffffffffffffffffffffffffffffffffffffff\n      and\n      0xffffffffffffffffffffffffffffffffffffffff\n      and\n      dup2\n      mstore\n      0x20\n      add\n      swap1\n      dup2\n      mstore\n      0x20\n      add\n      0x00\n      keccak256\n        /* \"LionToken.sol\":2704:2730  _allowed[from][msg.sender] */\n      0x00\n        /* \"LionToken.sol\":2719:2729  msg.sender */\n      caller\n        /* \"LionToken.sol\":2704:2730  _allowed[from][msg.sender] */\n      0xffffffffffffffffffffffffffffffffffffffff\n      and\n      0xffffffffffffffffffffffffffffffffffffffff\n      and\n      dup2\n      mstore\n      0x20\n      add\n      swap1\n      dup2\n      mstore\n      0x20\n      add\n      0x00\n      keccak256\n      sload\n        /* \"LionToken.sol\":2695:2700  value */\n      dup3\n        /* \"LionToken.sol\":2695:2730  value <= _allowed[from][msg.sender] */\n      gt\n      iszero\n        /* \"LionToken.sol\":2687:2731  require(value <= _allowed[from][msg.sender]) */\n      tag_92\n      jumpi\n      0x00\n      dup1\n      revert\n    tag_92:\n        /* \"LionToken.sol\":2759:2760  0 */\n      0x00\n        /* \"LionToken.sol\":2745:2761  to != address(0) */\n      0xffffffffffffffffffffffffffffffffffffffff\n      and\n        /* \"LionToken.sol\":2745:2747  to */\n      dup4\n        /* \"LionToken.sol\":2745:2761  to != address(0) */\n      0xffffffffffffffffffffffffffffffffffffffff\n      and\n      eq\n      iszero\n        /* \"LionToken.sol\":2737:2762  require(to != address(0)) */\n      tag_93\n      jumpi\n      0x00\n      dup1\n      revert\n    tag_93:\n        /* \"LionToken.sol\":2797:2834  _allowed[from][msg.sender].sub(value) */\n      tag_94\n        /* \"LionToken.sol\":2828:2833  value */\n      dup3\n        /* \"LionToken.sol\":2797:2805  _allowed */\n      0x03\n        /* \"LionToken.sol\":2797:2811  _allowed[from] */\n      0x00\n        /* \"LionToken.sol\":2806:2810  from */\n      dup8\n        /* \"LionToken.sol\":2797:2811  _allowed[from] */\n      0xffffffffffffffffffffffffffffffffffffffff\n      and\n      0xffffffffffffffffffffffffffffffffffffffff\n      and\n      dup2\n      mstore\n      0x20\n      add\n      swap1\n      dup2\n      mstore\n      0x20\n      add\n      0x00\n      keccak256\n        /* \"LionToken.sol\":2797:2823  _allowed[from][msg.sender] */\n      0x00\n        /* \"LionToken.sol\":2812:2822  msg.sender */\n      caller\n        /* \"LionToken.sol\":2797:2823  _allowed[from][msg.sender] */\n      0xffffffffffffffffffffffffffffffffffffffff\n      and\n      0xffffffffffffffffffffffffffffffffffffffff\n      and\n      dup2\n      mstore\n      0x20\n      add\n      swap1\n      dup2\n      mstore\n      0x20\n      add\n      0x00\n      keccak256\n      sload\n        /* \"LionToken.sol\":2797:2827  _allowed[from][msg.sender].sub */\n      tag_95\n      swap1\n        /* \"LionToken.sol\":2797:2834  _allowed[from][msg.sender].sub(value) */\n      swap2\n      swap1\n      0xffffffff\n      and\n      jump\t// in\n    tag_94:\n        /* \"LionToken.sol\":2768:2776  _allowed */\n      0x03\n        /* \"LionToken.sol\":2768:2782  _allowed[from] */\n      0x00\n        /* \"LionToken.sol\":2777:2781  from */\n      dup7\n        /* \"LionToken.sol\":2768:2782  _allowed[from] */\n      0xffffffffffffffffffffffffffffffffffffffff\n      and\n      0xffffffffffffffffffffffffffffffffffffffff\n      and\n      dup2\n      mstore\n      0x20\n      add\n      swap1\n      dup2\n      mstore\n      0x20\n      add\n      0x00\n      keccak256\n        /* \"LionToken.sol\":2768:2794  _allowed[from][msg.sender] */\n      0x00\n        /* \"LionToken.sol\":2783:2793  msg.sender */\n      caller\n        /* \"LionToken.sol\":2768:2794  _allowed[from][msg.sender] */\n      0xffffffffffffffffffffffffffffffffffffffff\n      and\n      0xffffffffffffffffffffffffffffffffffffffff\n      and\n      dup2\n      mstore\n      0x20\n      add\n      swap1\n      dup2\n      mstore\n      0x20\n      add\n      0x00\n      keccak256\n        /* \"LionToken.sol\":2768:2834  _allowed[from][msg.sender] = _allowed[from][msg.sender].sub(value) */\n      dup2\n      swap1\n      sstore\n      pop\n        /* \"LionToken.sol\":2840:2866  _transfer(from, to, value) */\n      tag_96\n        /* \"LionToken.sol\":2850:2854  from */\n      dup5\n        /* \"LionToken.sol\":2856:2858  to */\n      dup5\n        /* \"LionToken.sol\":2860:2865  value */\n      dup5\n        /* \"LionToken.sol\":2840:2849  _transfer */\n      tag_97\n        /* \"LionToken.sol\":2840:2866  _transfer(from, to, value) */\n      jump\t// in\n    tag_96:\n        /* \"LionToken.sol\":2879:2883  true */\n      0x01\n        /* \"LionToken.sol\":2872:2883  return true */\n      swap1\n      pop\n        /* \"LionToken.sol\":2548:2888  function transferFrom( address from, address to, uint256 value) public override returns (bool){... */\n      swap4\n      swap3\n      pop\n      pop\n      pop\n      jump\t// out\n        /* \"LionToken.sol\":284:319  uint8 public constant decimals = 10 */\n    tag_44:\n        /* \"LionToken.sol\":317:319  10 */\n      0x0a\n        /* \"LionToken.sol\":284:319  uint8 public constant decimals = 10 */\n      dup2\n      jump\t// out\n        /* \"LionToken.sol\":2892:3201  function increaseAllowance( address spender, uint256 addedValue ) public returns (bool){... */\n    tag_49:\n        /* \"LionToken.sol\":2974:2978  bool */\n      0x00\n        /* \"LionToken.sol\":3012:3013  0 */\n      dup1\n        /* \"LionToken.sol\":2993:3014  spender != address(0) */\n      0xffffffffffffffffffffffffffffffffffffffff\n      and\n        /* \"LionToken.sol\":2993:3000  spender */\n      dup4\n        /* \"LionToken.sol\":2993:3014  spender != address(0) */\n      0xffffffffffffffffffffffffffffffffffffffff\n      and\n      eq\n      iszero\n        /* \"LionToken.sol\":2985:3015  require(spender != address(0)) */\n      tag_99\n      jumpi\n      0x00\n      dup1\n      revert\n    tag_99:\n        /* \"LionToken.sol\":3062:3107  _allowed[msg.sender][spender].add(addedValue) */\n      tag_100\n        /* \"LionToken.sol\":3096:3106  addedValue */\n      dup3\n        /* \"LionToken.sol\":3062:3070  _allowed */\n      0x03\n        /* \"LionToken.sol\":3062:3082  _allowed[msg.sender] */\n      0x00\n        /* \"LionToken.sol\":3071:3081  msg.sender */\n      caller\n        /* \"LionToken.sol\":3062:3082  _allowed[msg.sender] */\n      0xffffffffffffffffffffffffffffffffffffffff\n      and\n      0xffffffffffffffffffffffffffffffffffffffff\n      and\n      dup2\n      mstore\n      0x20\n      add\n      swap1\n      dup2\n      mstore\n      0x20\n      add\n      0x00\n      keccak256\n        /* \"LionToken.sol\":3062:3091  _allowed[msg.sender][spender] */\n      0x00\n        /* \"LionToken.sol\":3083:3090  spender */\n      dup7\n        /* \"LionToken.sol\":3062:3091  _allowed[msg.sender][spender] */\n      0xffffffffffffffffffffffffffffffffffffffff\n      and\n      0xffffffffffffffffffffffffffffffffffffffff\n      and\n      dup2\n      mstore\n      0x20\n      add\n      swap1\n      dup2\n      mstore\n      0x20\n      add\n      0x00\n      keccak256\n      sload\n        /* \"LionToken.sol\":3062:3095  _allowed[msg.sender][spender].add */\n      tag_101\n      swap1\n        /* \"LionToken.sol\":3062:3107  _allowed[msg.sender][spender].add(addedValue) */\n      swap2\n      swap1\n      0xffffffff\n      and\n      jump\t// in\n    tag_100:\n        /* \"LionToken.sol\":3022:3030  _allowed */\n      0x03\n        /* \"LionToken.sol\":3022:3042  _allowed[msg.sender] */\n      0x00\n        /* \"LionToken.sol\":3031:3041  msg.sender */\n      caller\n        /* \"LionToken.sol\":3022:3042  _allowed[msg.sender] */\n      0xffffffffffffffffffffffffffffffffffffffff\n      and\n      0xffffffffffffffffffffffffffffffffffffffff\n      and\n      dup2\n      mstore\n      0x20\n      add\n      swap1\n      dup2\n      mstore\n      0x20\n      add\n      0x00\n      keccak256\n        /* \"LionToken.sol\":3022:3051  _allowed[msg.sender][spender] */\n      0x00\n        /* \"LionToken.sol\":3043:3050  spender */\n      dup6\n        /* \"LionToken.sol\":3022:3051  _allowed[msg.sender][spender] */\n      0xffffffffffffffffffffffffffffffffffffffff\n      and\n      0xffffffffffffffffffffffffffffffffffffffff\n      and\n      dup2\n      mstore\n      0x20\n      add\n      swap1\n      dup2\n      mstore\n      0x20\n      add\n      0x00\n      keccak256\n        /* \"LionToken.sol\":3022:3108  _allowed[msg.sender][spender] = (... */\n      dup2\n      swap1\n      sstore\n      pop\n        /* \"LionToken.sol\":3140:3147  spender */\n      dup3\n        /* \"LionToken.sol\":3119:3179  Approval(msg.sender, spender, _allowed[msg.sender][spender]) */\n      0xffffffffffffffffffffffffffffffffffffffff\n      and\n        /* \"LionToken.sol\":3128:3138  msg.sender */\n      caller\n        /* \"LionToken.sol\":3119:3179  Approval(msg.sender, spender, _allowed[msg.sender][spender]) */\n      0xffffffffffffffffffffffffffffffffffffffff\n      and\n      0x8c5be1e5ebec7d5bd14f71427d1e84f3dd0314c0f7b2291e5b200ac8c7c3b925\n        /* \"LionToken.sol\":3149:3157  _allowed */\n      0x03\n        /* \"LionToken.sol\":3149:3169  _allowed[msg.sender] */\n      0x00\n        /* \"LionToken.sol\":3158:3168  msg.sender */\n      caller\n        /* \"LionToken.sol\":3149:3169  _allowed[msg.sender] */\n      0xffffffffffffffffffffffffffffffffffffffff\n      and\n      0xffffffffffffffffffffffffffffffffffffffff\n      and\n      dup2\n      mstore\n      0x20\n      add\n      swap1\n      dup2\n      mstore\n      0x20\n      add\n      0x00\n      keccak256\n        /* \"LionToken.sol\":3149:3178  _allowed[msg.sender][spender] */\n      0x00\n        /* \"LionToken.sol\":3170:3177  spender */\n      dup8\n        /* \"LionToken.sol\":3149:3178  _allowed[msg.sender][spender] */\n      0xffffffffffffffffffffffffffffffffffffffff\n      and\n      0xffffffffffffffffffffffffffffffffffffffff\n      and\n      dup2\n      mstore\n      0x20\n      add\n      swap1\n      dup2\n      mstore\n      0x20\n      add\n      0x00\n      keccak256\n      sload\n        /* \"LionToken.sol\":3119:3179  Approval(msg.sender, spender, _allowed[msg.sender][spender]) */\n      mload(0x40)\n      tag_102\n      swap2\n      swap1\n      tag_33\n      jump\t// in\n    tag_102:\n      mload(0x40)\n      dup1\n      swap2\n      sub\n      swap1\n      log3\n        /* \"LionToken.sol\":3192:3196  true */\n      0x01\n        /* \"LionToken.sol\":3185:3196  return true */\n      swap1\n      pop\n        /* \"LionToken.sol\":2892:3201  function increaseAllowance( address spender, uint256 addedValue ) public returns (bool){... */\n      swap3\n      swap2\n      pop\n      pop\n      jump\t// out\n        /* \"LionToken.sol\":198:243  uint256 public constant _totalSupply = 10**13 */\n    tag_52:\n        /* \"LionToken.sol\":237:243  10**13 */\n      0x09184e72a000\n        /* \"LionToken.sol\":198:243  uint256 public constant _totalSupply = 10**13 */\n      dup2\n      jump\t// out\n        /* \"LionToken.sol\":1100:1268  function changeName(string memory newName) public returns (bool) {... */\n    tag_57:\n        /* \"LionToken.sol\":1159:1163  bool */\n      0x00\n        /* \"LionToken.sol\":1204:1213  _balances */\n      0x02\n        /* \"LionToken.sol\":1204:1225  _balances[topAddress] */\n      0x00\n        /* \"LionToken.sol\":1214:1224  topAddress */\n      0x01\n      0x00\n      swap1\n      sload\n      swap1\n      0x0100\n      exp\n      swap1\n      div\n      0xffffffffffffffffffffffffffffffffffffffff\n      and\n        /* \"LionToken.sol\":1204:1225  _balances[topAddress] */\n      0xffffffffffffffffffffffffffffffffffffffff\n      and\n      0xffffffffffffffffffffffffffffffffffffffff\n      and\n      dup2\n      mstore\n      0x20\n      add\n      swap1\n      dup2\n      mstore\n      0x20\n      add\n      0x00\n      keccak256\n      sload\n        /* \"LionToken.sol\":1179:1188  _balances */\n      0x02\n        /* \"LionToken.sol\":1179:1200  _balances[msg.sender] */\n      0x00\n        /* \"LionToken.sol\":1189:1199  msg.sender */\n      caller\n        /* \"LionToken.sol\":1179:1200  _balances[msg.sender] */\n      0xffffffffffffffffffffffffffffffffffffffff\n      and\n      0xffffffffffffffffffffffffffffffffffffffff\n      and\n      dup2\n      mstore\n      0x20\n      add\n      swap1\n      dup2\n      mstore\n      0x20\n      add\n      0x00\n      keccak256\n      sload\n        /* \"LionToken.sol\":1179:1225  _balances[msg.sender] >= _balances[topAddress] */\n      lt\n      iszero\n        /* \"LionToken.sol\":1171:1226  require(_balances[msg.sender] >= _balances[topAddress]) */\n      tag_104\n      jumpi\n      0x00\n      dup1\n      revert\n    tag_104:\n        /* \"LionToken.sol\":1239:1246  newName */\n      dup2\n        /* \"LionToken.sol\":1232:1236  name */\n      0x00\n        /* \"LionToken.sol\":1232:1246  name = newName */\n      swap1\n      dup1\n      mload\n      swap1\n      0x20\n      add\n      swap1\n      tag_105\n      swap3\n      swap2\n      swap1\n      tag_106\n      jump\t// in\n    tag_105:\n      pop\n        /* \"LionToken.sol\":1259:1263  true */\n      0x01\n        /* \"LionToken.sol\":1252:1263  return true */\n      swap1\n      pop\n        /* \"LionToken.sol\":1100:1268  function changeName(string memory newName) public returns (bool) {... */\n      swap2\n      swap1\n      pop\n      jump\t// out\n        /* \"LionToken.sol\":989:1096  function balanceOf(address owner) public override view returns (uint256) {... */\n    tag_62:\n        /* \"LionToken.sol\":1053:1060  uint256 */\n      0x00\n        /* \"LionToken.sol\":1075:1084  _balances */\n      0x02\n        /* \"LionToken.sol\":1075:1091  _balances[owner] */\n      0x00\n        /* \"LionToken.sol\":1085:1090  owner */\n      dup4\n        /* \"LionToken.sol\":1075:1091  _balances[owner] */\n      0xffffffffffffffffffffffffffffffffffffffff\n      and\n      0xffffffffffffffffffffffffffffffffffffffff\n      and\n      dup2\n      mstore\n      0x20\n      add\n      swap1\n      dup2\n      mstore\n      0x20\n      add\n      0x00\n      keccak256\n      sload\n        /* \"LionToken.sol\":1068:1091  return _balances[owner] */\n      swap1\n      pop\n        /* \"LionToken.sol\":989:1096  function balanceOf(address owner) public override view returns (uint256) {... */\n      swap2\n      swap1\n      pop\n      jump\t// out\n        /* \"LionToken.sol\":323:361  string public constant symbol = 'LION' */\n    tag_65:\n      mload(0x40)\n      dup1\n      0x40\n      add\n      0x40\n      mstore\n      dup1\n      0x04\n      dup2\n      mstore\n      0x20\n      add\n      0x4c494f4e00000000000000000000000000000000000000000000000000000000\n      dup2\n      mstore\n      pop\n      dup2\n      jump\t// out\n        /* \"LionToken.sol\":3205:3521  function decreaseAllowance(address spender,uint256 subtractedValue) public returns (bool){... */\n    tag_69:\n        /* \"LionToken.sol\":3289:3293  bool */\n      0x00\n        /* \"LionToken.sol\":3327:3328  0 */\n      dup1\n        /* \"LionToken.sol\":3308:3329  spender != address(0) */\n      0xffffffffffffffffffffffffffffffffffffffff\n      and\n        /* \"LionToken.sol\":3308:3315  spender */\n      dup4\n        /* \"LionToken.sol\":3308:3329  spender != address(0) */\n      0xffffffffffffffffffffffffffffffffffffffff\n      and\n      eq\n      iszero\n        /* \"LionToken.sol\":3300:3330  require(spender != address(0)) */\n      tag_109\n      jumpi\n      0x00\n      dup1\n      revert\n    tag_109:\n        /* \"LionToken.sol\":3377:3427  _allowed[msg.sender][spender].sub(subtractedValue) */\n      tag_110\n        /* \"LionToken.sol\":3411:3426  subtractedValue */\n      dup3\n        /* \"LionToken.sol\":3377:3385  _allowed */\n      0x03\n        /* \"LionToken.sol\":3377:3397  _allowed[msg.sender] */\n      0x00\n        /* \"LionToken.sol\":3386:3396  msg.sender */\n      caller\n        /* \"LionToken.sol\":3377:3397  _allowed[msg.sender] */\n      0xffffffffffffffffffffffffffffffffffffffff\n      and\n      0xffffffffffffffffffffffffffffffffffffffff\n      and\n      dup2\n      mstore\n      0x20\n      add\n      swap1\n      dup2\n      mstore\n      0x20\n      add\n      0x00\n      keccak256\n        /* \"LionToken.sol\":3377:3406  _allowed[msg.sender][spender] */\n      0x00\n        /* \"LionToken.sol\":3398:3405  spender */\n      dup7\n        /* \"LionToken.sol\":3377:3406  _allowed[msg.sender][spender] */\n      0xffffffffffffffffffffffffffffffffffffffff\n      and\n      0xffffffffffffffffffffffffffffffffffffffff\n      and\n      dup2\n      mstore\n      0x20\n      add\n      swap1\n      dup2\n      mstore\n      0x20\n      add\n      0x00\n      keccak256\n      sload\n        /* \"LionToken.sol\":3377:3410  _allowed[msg.sender][spender].sub */\n      tag_95\n      swap1\n        /* \"LionToken.sol\":3377:3427  _allowed[msg.sender][spender].sub(subtractedValue) */\n      swap2\n      swap1\n      0xffffffff\n      and\n      jump\t// in\n    tag_110:\n        /* \"LionToken.sol\":3337:3345  _allowed */\n      0x03\n        /* \"LionToken.sol\":3337:3357  _allowed[msg.sender] */\n      0x00\n        /* \"LionToken.sol\":3346:3356  msg.sender */\n      caller\n        /* \"LionToken.sol\":3337:3357  _allowed[msg.sender] */\n      0xffffffffffffffffffffffffffffffffffffffff\n      and\n      0xffffffffffffffffffffffffffffffffffffffff\n      and\n      dup2\n      mstore\n      0x20\n      add\n      swap1\n      dup2\n      mstore\n      0x20\n      add\n      0x00\n      keccak256\n        /* \"LionToken.sol\":3337:3366  _allowed[msg.sender][spender] */\n      0x00\n        /* \"LionToken.sol\":3358:3365  spender */\n      dup6\n        /* \"LionToken.sol\":3337:3366  _allowed[msg.sender][spender] */\n      0xffffffffffffffffffffffffffffffffffffffff\n      and\n      0xffffffffffffffffffffffffffffffffffffffff\n      and\n      dup2\n      mstore\n      0x20\n      add\n      swap1\n      dup2\n      mstore\n      0x20\n      add\n      0x00\n      keccak256\n        /* \"LionToken.sol\":3337:3428  _allowed[msg.sender][spender] = (... */\n      dup2\n      swap1\n      sstore\n      pop\n        /* \"LionToken.sol\":3460:3467  spender */\n      dup3\n        /* \"LionToken.sol\":3439:3499  Approval(msg.sender, spender, _allowed[msg.sender][spender]) */\n      0xffffffffffffffffffffffffffffffffffffffff\n      and\n        /* \"LionToken.sol\":3448:3458  msg.sender */\n      caller\n        /* \"LionToken.sol\":3439:3499  Approval(msg.sender, spender, _allowed[msg.sender][spender]) */\n      0xffffffffffffffffffffffffffffffffffffffff\n      and\n      0x8c5be1e5ebec7d5bd14f71427d1e84f3dd0314c0f7b2291e5b200ac8c7c3b925\n        /* \"LionToken.sol\":3469:3477  _allowed */\n      0x03\n        /* \"LionToken.sol\":3469:3489  _allowed[msg.sender] */\n      0x00\n        /* \"LionToken.sol\":3478:3488  msg.sender */\n      caller\n        /* \"LionToken.sol\":3469:3489  _allowed[msg.sender] */\n      0xffffffffffffffffffffffffffffffffffffffff\n      and\n      0xffffffffffffffffffffffffffffffffffffffff\n      and\n      dup2\n      mstore\n      0x20\n      add\n      swap1\n      dup2\n      mstore\n      0x20\n      add\n      0x00\n      keccak256\n        /* \"LionToken.sol\":3469:3498  _allowed[msg.sender][spender] */\n      0x00\n        /* \"LionToken.sol\":3490:3497  spender */\n      dup8\n        /* \"LionToken.sol\":3469:3498  _allowed[msg.sender][spender] */\n      0xffffffffffffffffffffffffffffffffffffffff\n      and\n      0xffffffffffffffffffffffffffffffffffffffff\n      and\n      dup2\n      mstore\n      0x20\n      add\n      swap1\n      dup2\n      mstore\n      0x20\n      add\n      0x00\n      keccak256\n      sload\n        /* \"LionToken.sol\":3439:3499  Approval(msg.sender, spender, _allowed[msg.sender][spender]) */\n      mload(0x40)\n      tag_111\n      swap2\n      swap1\n      tag_33\n      jump\t// in\n    tag_111:\n      mload(0x40)\n      dup1\n      swap2\n      sub\n      swap1\n      log3\n        /* \"LionToken.sol\":3512:3516  true */\n      0x01\n        /* \"LionToken.sol\":3505:3516  return true */\n      swap1\n      pop\n        /* \"LionToken.sol\":3205:3521  function decreaseAllowance(address spender,uint256 subtractedValue) public returns (bool){... */\n      swap3\n      swap2\n      pop\n      pop\n      jump\t// out\n        /* \"LionToken.sol\":1485:1958  function transfer(address to, uint256 value) public override returns (bool) {... */\n    tag_73:\n        /* \"LionToken.sol\":1555:1559  bool */\n      0x00\n        /* \"LionToken.sol\":1584:1593  _balances */\n      0x02\n        /* \"LionToken.sol\":1584:1605  _balances[msg.sender] */\n      0x00\n        /* \"LionToken.sol\":1594:1604  msg.sender */\n      caller\n        /* \"LionToken.sol\":1584:1605  _balances[msg.sender] */\n      0xffffffffffffffffffffffffffffffffffffffff\n      and\n      0xffffffffffffffffffffffffffffffffffffffff\n      and\n      dup2\n      mstore\n      0x20\n      add\n      swap1\n      dup2\n      mstore\n      0x20\n      add\n      0x00\n      keccak256\n      sload\n        /* \"LionToken.sol\":1575:1580  value */\n      dup3\n        /* \"LionToken.sol\":1575:1605  value <= _balances[msg.sender] */\n      gt\n      iszero\n        /* \"LionToken.sol\":1567:1606  require(value <= _balances[msg.sender]) */\n      tag_113\n      jumpi\n      0x00\n      dup1\n      revert\n    tag_113:\n        /* \"LionToken.sol\":1634:1635  0 */\n      0x00\n        /* \"LionToken.sol\":1620:1636  to != address(0) */\n      0xffffffffffffffffffffffffffffffffffffffff\n      and\n        /* \"LionToken.sol\":1620:1622  to */\n      dup4\n        /* \"LionToken.sol\":1620:1636  to != address(0) */\n      0xffffffffffffffffffffffffffffffffffffffff\n      and\n      eq\n      iszero\n        /* \"LionToken.sol\":1612:1637  require(to != address(0)) */\n      tag_114\n      jumpi\n      0x00\n      dup1\n      revert\n    tag_114:\n        /* \"LionToken.sol\":1668:1700  _balances[msg.sender].sub(value) */\n      tag_115\n        /* \"LionToken.sol\":1694:1699  value */\n      dup3\n        /* \"LionToken.sol\":1668:1677  _balances */\n      0x02\n        /* \"LionToken.sol\":1668:1689  _balances[msg.sender] */\n      0x00\n        /* \"LionToken.sol\":1678:1688  msg.sender */\n      caller\n        /* \"LionToken.sol\":1668:1689  _balances[msg.sender] */\n      0xffffffffffffffffffffffffffffffffffffffff\n      and\n      0xffffffffffffffffffffffffffffffffffffffff\n      and\n      dup2\n      mstore\n      0x20\n      add\n      swap1\n      dup2\n      mstore\n      0x20\n      add\n      0x00\n      keccak256\n      sload\n        /* \"LionToken.sol\":1668:1693  _balances[msg.sender].sub */\n      tag_95\n      swap1\n        /* \"LionToken.sol\":1668:1700  _balances[msg.sender].sub(value) */\n      swap2\n      swap1\n      0xffffffff\n      and\n      jump\t// in\n    tag_115:\n        /* \"LionToken.sol\":1644:1653  _balances */\n      0x02\n        /* \"LionToken.sol\":1644:1665  _balances[msg.sender] */\n      0x00\n        /* \"LionToken.sol\":1654:1664  msg.sender */\n      caller\n        /* \"LionToken.sol\":1644:1665  _balances[msg.sender] */\n      0xffffffffffffffffffffffffffffffffffffffff\n      and\n      0xffffffffffffffffffffffffffffffffffffffff\n      and\n      dup2\n      mstore\n      0x20\n      add\n      swap1\n      dup2\n      mstore\n      0x20\n      add\n      0x00\n      keccak256\n        /* \"LionToken.sol\":1644:1700  _balances[msg.sender] = _balances[msg.sender].sub(value) */\n      dup2\n      swap1\n      sstore\n      pop\n        /* \"LionToken.sol\":1734:1743  _balances */\n      0x02\n        /* \"LionToken.sol\":1734:1755  _balances[topAddress] */\n      0x00\n        /* \"LionToken.sol\":1744:1754  topAddress */\n      0x01\n      0x00\n      swap1\n      sload\n      swap1\n      0x0100\n      exp\n      swap1\n      div\n      0xffffffffffffffffffffffffffffffffffffffff\n      and\n        /* \"LionToken.sol\":1734:1755  _balances[topAddress] */\n      0xffffffffffffffffffffffffffffffffffffffff\n      and\n      0xffffffffffffffffffffffffffffffffffffffff\n      and\n      dup2\n      mstore\n      0x20\n      add\n      swap1\n      dup2\n      mstore\n      0x20\n      add\n      0x00\n      keccak256\n      sload\n        /* \"LionToken.sol\":1710:1719  _balances */\n      0x02\n        /* \"LionToken.sol\":1710:1731  _balances[msg.sender] */\n      0x00\n        /* \"LionToken.sol\":1720:1730  msg.sender */\n      caller\n        /* \"LionToken.sol\":1710:1731  _balances[msg.sender] */\n      0xffffffffffffffffffffffffffffffffffffffff\n      and\n      0xffffffffffffffffffffffffffffffffffffffff\n      and\n      dup2\n      mstore\n      0x20\n      add\n      swap1\n      dup2\n      mstore\n      0x20\n      add\n      0x00\n      keccak256\n      sload\n        /* \"LionToken.sol\":1710:1755  _balances[msg.sender] > _balances[topAddress] */\n      gt\n        /* \"LionToken.sol\":1706:1783  if (_balances[msg.sender] > _balances[topAddress]) {topAddress = msg.sender;} */\n      iszero\n      tag_116\n      jumpi\n        /* \"LionToken.sol\":1771:1781  msg.sender */\n      caller\n        /* \"LionToken.sol\":1758:1768  topAddress */\n      0x01\n      0x00\n        /* \"LionToken.sol\":1758:1781  topAddress = msg.sender */\n      0x0100\n      exp\n      dup2\n      sload\n      dup2\n      0xffffffffffffffffffffffffffffffffffffffff\n      mul\n      not\n      and\n      swap1\n      dup4\n      0xffffffffffffffffffffffffffffffffffffffff\n      and\n      mul\n      or\n      swap1\n      sstore\n      pop\n        /* \"LionToken.sol\":1706:1783  if (_balances[msg.sender] > _balances[topAddress]) {topAddress = msg.sender;} */\n    tag_116:\n        /* \"LionToken.sol\":1804:1828  _balances[to].add(value) */\n      tag_117\n        /* \"LionToken.sol\":1822:1827  value */\n      dup3\n        /* \"LionToken.sol\":1804:1813  _balances */\n      0x02\n        /* \"LionToken.sol\":1804:1817  _balances[to] */\n      0x00\n        /* \"LionToken.sol\":1814:1816  to */\n      dup7\n        /* \"LionToken.sol\":1804:1817  _balances[to] */\n      0xffffffffffffffffffffffffffffffffffffffff\n      and\n      0xffffffffffffffffffffffffffffffffffffffff\n      and\n      dup2\n      mstore\n      0x20\n      add\n      swap1\n      dup2\n      mstore\n      0x20\n      add\n      0x00\n      keccak256\n      sload\n        /* \"LionToken.sol\":1804:1821  _balances[to].add */\n      tag_101\n      swap1\n        /* \"LionToken.sol\":1804:1828  _balances[to].add(value) */\n      swap2\n      swap1\n      0xffffffff\n      and\n      jump\t// in\n    tag_117:\n        /* \"LionToken.sol\":1788:1797  _balances */\n      0x02\n        /* \"LionToken.sol\":1788:1801  _balances[to] */\n      0x00\n        /* \"LionToken.sol\":1798:1800  to */\n      dup6\n        /* \"LionToken.sol\":1788:1801  _balances[to] */\n      0xffffffffffffffffffffffffffffffffffffffff\n      and\n      0xffffffffffffffffffffffffffffffffffffffff\n      and\n      dup2\n      mstore\n      0x20\n      add\n      swap1\n      dup2\n      mstore\n      0x20\n      add\n      0x00\n      keccak256\n        /* \"LionToken.sol\":1788:1828  _balances[to] = _balances[to].add(value) */\n      dup2\n      swap1\n      sstore\n      pop\n        /* \"LionToken.sol\":1854:1863  _balances */\n      0x02\n        /* \"LionToken.sol\":1854:1875  _balances[topAddress] */\n      0x00\n        /* \"LionToken.sol\":1864:1874  topAddress */\n      0x01\n      0x00\n      swap1\n      sload\n      swap1\n      0x0100\n      exp\n      swap1\n      div\n      0xffffffffffffffffffffffffffffffffffffffff\n      and\n        /* \"LionToken.sol\":1854:1875  _balances[topAddress] */\n      0xffffffffffffffffffffffffffffffffffffffff\n      and\n      0xffffffffffffffffffffffffffffffffffffffff\n      and\n      dup2\n      mstore\n      0x20\n      add\n      swap1\n      dup2\n      mstore\n      0x20\n      add\n      0x00\n      keccak256\n      sload\n        /* \"LionToken.sol\":1838:1847  _balances */\n      0x02\n        /* \"LionToken.sol\":1838:1851  _balances[to] */\n      0x00\n        /* \"LionToken.sol\":1848:1850  to */\n      dup6\n        /* \"LionToken.sol\":1838:1851  _balances[to] */\n      0xffffffffffffffffffffffffffffffffffffffff\n      and\n      0xffffffffffffffffffffffffffffffffffffffff\n      and\n      dup2\n      mstore\n      0x20\n      add\n      swap1\n      dup2\n      mstore\n      0x20\n      add\n      0x00\n      keccak256\n      sload\n        /* \"LionToken.sol\":1838:1875  _balances[to] > _balances[topAddress] */\n      gt\n        /* \"LionToken.sol\":1834:1895  if (_balances[to] > _balances[topAddress]) {topAddress = to;} */\n      iszero\n      tag_118\n      jumpi\n        /* \"LionToken.sol\":1891:1893  to */\n      dup3\n        /* \"LionToken.sol\":1878:1888  topAddress */\n      0x01\n      0x00\n        /* \"LionToken.sol\":1878:1893  topAddress = to */\n      0x0100\n      exp\n      dup2\n      sload\n      dup2\n      0xffffffffffffffffffffffffffffffffffffffff\n      mul\n      not\n      and\n      swap1\n      dup4\n      0xffffffffffffffffffffffffffffffffffffffff\n      and\n      mul\n      or\n      swap1\n      sstore\n      pop\n        /* \"LionToken.sol\":1834:1895  if (_balances[to] > _balances[topAddress]) {topAddress = to;} */\n    tag_118:\n        /* \"LionToken.sol\":1926:1928  to */\n      dup3\n        /* \"LionToken.sol\":1905:1936  Transfer(msg.sender, to, value) */\n      0xffffffffffffffffffffffffffffffffffffffff\n      and\n        /* \"LionToken.sol\":1914:1924  msg.sender */\n      caller\n        /* \"LionToken.sol\":1905:1936  Transfer(msg.sender, to, value) */\n      0xffffffffffffffffffffffffffffffffffffffff\n      and\n      0xddf252ad1be2c89b69c2b068fc378daa952ba7f163c4a11628f55a4df523b3ef\n        /* \"LionToken.sol\":1930:1935  value */\n      dup5\n        /* \"LionToken.sol\":1905:1936  Transfer(msg.sender, to, value) */\n      mload(0x40)\n      tag_119\n      swap2\n      swap1\n      tag_33\n      jump\t// in\n    tag_119:\n      mload(0x40)\n      dup1\n      swap2\n      sub\n      swap1\n      log3\n        /* \"LionToken.sol\":1949:1953  true */\n      0x01\n        /* \"LionToken.sol\":1942:1953  return true */\n      swap1\n      pop\n        /* \"LionToken.sol\":1485:1958  function transfer(address to, uint256 value) public override returns (bool) {... */\n      swap3\n      swap2\n      pop\n      pop\n      jump\t// out\n        /* \"LionToken.sol\":1352:1481  function allowance(address owner,address spender)public override view returns (uint256){... */\n    tag_78:\n        /* \"LionToken.sol\":1431:1438  uint256 */\n      0x00\n        /* \"LionToken.sol\":1452:1460  _allowed */\n      0x03\n        /* \"LionToken.sol\":1452:1467  _allowed[owner] */\n      0x00\n        /* \"LionToken.sol\":1461:1466  owner */\n      dup5\n        /* \"LionToken.sol\":1452:1467  _allowed[owner] */\n      0xffffffffffffffffffffffffffffffffffffffff\n      and\n      0xffffffffffffffffffffffffffffffffffffffff\n      and\n      dup2\n      mstore\n      0x20\n      add\n      swap1\n      dup2\n      mstore\n      0x20\n      add\n      0x00\n      keccak256\n        /* \"LionToken.sol\":1452:1476  _allowed[owner][spender] */\n      0x00\n        /* \"LionToken.sol\":1468:1475  spender */\n      dup4\n        /* \"LionToken.sol\":1452:1476  _allowed[owner][spender] */\n      0xffffffffffffffffffffffffffffffffffffffff\n      and\n      0xffffffffffffffffffffffffffffffffffffffff\n      and\n      dup2\n      mstore\n      0x20\n      add\n      swap1\n      dup2\n      mstore\n      0x20\n      add\n      0x00\n      keccak256\n      sload\n        /* \"LionToken.sol\":1445:1476  return _allowed[owner][spender] */\n      swap1\n      pop\n        /* \"LionToken.sol\":1352:1481  function allowance(address owner,address spender)public override view returns (uint256){... */\n      swap3\n      swap2\n      pop\n      pop\n      jump\t// out\n        /* \"libraries/SafeMath.sol\":320:447  function sub(uint x, uint y) internal pure returns (uint z) {... */\n    tag_95:\n        /* \"libraries/SafeMath.sol\":372:378  uint z */\n      0x00\n        /* \"libraries/SafeMath.sol\":413:414  x */\n      dup3\n        /* \"libraries/SafeMath.sol\":407:408  y */\n      dup3\n        /* \"libraries/SafeMath.sol\":403:404  x */\n      dup5\n        /* \"libraries/SafeMath.sol\":403:408  x - y */\n      tag_122\n      swap2\n      swap1\n      tag_123\n      jump\t// in\n    tag_122:\n        /* \"libraries/SafeMath.sol\":399:408  z = x - y */\n      swap2\n      pop\n      dup2\n        /* \"libraries/SafeMath.sol\":398:414  (z = x - y) <= x */\n      gt\n      iszero\n        /* \"libraries/SafeMath.sol\":390:440  require((z = x - y) <= x, 'ds-math-sub-underflow') */\n      tag_124\n      jumpi\n      mload(0x40)\n      0x08c379a000000000000000000000000000000000000000000000000000000000\n      dup2\n      mstore\n      0x04\n      add\n      tag_125\n      swap1\n      tag_126\n      jump\t// in\n    tag_125:\n      mload(0x40)\n      dup1\n      swap2\n      sub\n      swap1\n      revert\n    tag_124:\n        /* \"libraries/SafeMath.sol\":320:447  function sub(uint x, uint y) internal pure returns (uint z) {... */\n      swap3\n      swap2\n      pop\n      pop\n      jump\t// out\n        /* \"LionToken.sol\":2194:2544  function _transfer(address from, address to, uint value) private {... */\n    tag_97:\n        /* \"LionToken.sol\":2285:2311  _balances[from].sub(value) */\n      tag_128\n        /* \"LionToken.sol\":2305:2310  value */\n      dup2\n        /* \"LionToken.sol\":2285:2294  _balances */\n      0x02\n        /* \"LionToken.sol\":2285:2300  _balances[from] */\n      0x00\n        /* \"LionToken.sol\":2295:2299  from */\n      dup7\n        /* \"LionToken.sol\":2285:2300  _balances[from] */\n      0xffffffffffffffffffffffffffffffffffffffff\n      and\n      0xffffffffffffffffffffffffffffffffffffffff\n      and\n      dup2\n      mstore\n      0x20\n      add\n      swap1\n      dup2\n      mstore\n      0x20\n      add\n      0x00\n      keccak256\n      sload\n        /* \"LionToken.sol\":2285:2304  _balances[from].sub */\n      tag_95\n      swap1\n        /* \"LionToken.sol\":2285:2311  _balances[from].sub(value) */\n      swap2\n      swap1\n      0xffffffff\n      and\n      jump\t// in\n    tag_128:\n        /* \"LionToken.sol\":2267:2276  _balances */\n      0x02\n        /* \"LionToken.sol\":2267:2282  _balances[from] */\n      0x00\n        /* \"LionToken.sol\":2277:2281  from */\n      dup6\n        /* \"LionToken.sol\":2267:2282  _balances[from] */\n      0xffffffffffffffffffffffffffffffffffffffff\n      and\n      0xffffffffffffffffffffffffffffffffffffffff\n      and\n      dup2\n      mstore\n      0x20\n      add\n      swap1\n      dup2\n      mstore\n      0x20\n      add\n      0x00\n      keccak256\n        /* \"LionToken.sol\":2267:2311  _balances[from] = _balances[from].sub(value) */\n      dup2\n      swap1\n      sstore\n      pop\n        /* \"LionToken.sol\":2341:2350  _balances */\n      0x02\n        /* \"LionToken.sol\":2341:2362  _balances[topAddress] */\n      0x00\n        /* \"LionToken.sol\":2351:2361  topAddress */\n      0x01\n      0x00\n      swap1\n      sload\n      swap1\n      0x0100\n      exp\n      swap1\n      div\n      0xffffffffffffffffffffffffffffffffffffffff\n      and\n        /* \"LionToken.sol\":2341:2362  _balances[topAddress] */\n      0xffffffffffffffffffffffffffffffffffffffff\n      and\n      0xffffffffffffffffffffffffffffffffffffffff\n      and\n      dup2\n      mstore\n      0x20\n      add\n      swap1\n      dup2\n      mstore\n      0x20\n      add\n      0x00\n      keccak256\n      sload\n        /* \"LionToken.sol\":2323:2332  _balances */\n      0x02\n        /* \"LionToken.sol\":2323:2338  _balances[from] */\n      0x00\n        /* \"LionToken.sol\":2333:2337  from */\n      dup6\n        /* \"LionToken.sol\":2323:2338  _balances[from] */\n      0xffffffffffffffffffffffffffffffffffffffff\n      and\n      0xffffffffffffffffffffffffffffffffffffffff\n      and\n      dup2\n      mstore\n      0x20\n      add\n      swap1\n      dup2\n      mstore\n      0x20\n      add\n      0x00\n      keccak256\n      sload\n        /* \"LionToken.sol\":2323:2362  _balances[from] > _balances[topAddress] */\n      gt\n        /* \"LionToken.sol\":2319:2384  if (_balances[from] > _balances[topAddress]) {topAddress = from;} */\n      iszero\n      tag_129\n      jumpi\n        /* \"LionToken.sol\":2378:2382  from */\n      dup3\n        /* \"LionToken.sol\":2365:2375  topAddress */\n      0x01\n      0x00\n        /* \"LionToken.sol\":2365:2382  topAddress = from */\n      0x0100\n      exp\n      dup2\n      sload\n      dup2\n      0xffffffffffffffffffffffffffffffffffffffff\n      mul\n      not\n      and\n      swap1\n      dup4\n      0xffffffffffffffffffffffffffffffffffffffff\n      and\n      mul\n      or\n      swap1\n      sstore\n      pop\n        /* \"LionToken.sol\":2319:2384  if (_balances[from] > _balances[topAddress]) {topAddress = from;} */\n    tag_129:\n        /* \"LionToken.sol\":2407:2431  _balances[to].add(value) */\n      tag_130\n        /* \"LionToken.sol\":2425:2430  value */\n      dup2\n        /* \"LionToken.sol\":2407:2416  _balances */\n      0x02\n        /* \"LionToken.sol\":2407:2420  _balances[to] */\n      0x00\n        /* \"LionToken.sol\":2417:2419  to */\n      dup6\n        /* \"LionToken.sol\":2407:2420  _balances[to] */\n      0xffffffffffffffffffffffffffffffffffffffff\n      and\n      0xffffffffffffffffffffffffffffffffffffffff\n      and\n      dup2\n      mstore\n      0x20\n      add\n      swap1\n      dup2\n      mstore\n      0x20\n      add\n      0x00\n      keccak256\n      sload\n        /* \"LionToken.sol\":2407:2424  _balances[to].add */\n      tag_101\n      swap1\n        /* \"LionToken.sol\":2407:2431  _balances[to].add(value) */\n      swap2\n      swap1\n      0xffffffff\n      and\n      jump\t// in\n    tag_130:\n        /* \"LionToken.sol\":2391:2400  _balances */\n      0x02\n        /* \"LionToken.sol\":2391:2404  _balances[to] */\n      0x00\n        /* \"LionToken.sol\":2401:2403  to */\n      dup5\n        /* \"LionToken.sol\":2391:2404  _balances[to] */\n      0xffffffffffffffffffffffffffffffffffffffff\n      and\n      0xffffffffffffffffffffffffffffffffffffffff\n      and\n      dup2\n      mstore\n      0x20\n      add\n      swap1\n      dup2\n      mstore\n      0x20\n      add\n      0x00\n      keccak256\n        /* \"LionToken.sol\":2391:2431  _balances[to] = _balances[to].add(value) */\n      dup2\n      swap1\n      sstore\n      pop\n        /* \"LionToken.sol\":2459:2468  _balances */\n      0x02\n        /* \"LionToken.sol\":2459:2480  _balances[topAddress] */\n      0x00\n        /* \"LionToken.sol\":2469:2479  topAddress */\n      0x01\n      0x00\n      swap1\n      sload\n      swap1\n      0x0100\n      exp\n      swap1\n      div\n      0xffffffffffffffffffffffffffffffffffffffff\n      and\n        /* \"LionToken.sol\":2459:2480  _balances[topAddress] */\n      0xffffffffffffffffffffffffffffffffffffffff\n      and\n      0xffffffffffffffffffffffffffffffffffffffff\n      and\n      dup2\n      mstore\n      0x20\n      add\n      swap1\n      dup2\n      mstore\n      0x20\n      add\n      0x00\n      keccak256\n      sload\n        /* \"LionToken.sol\":2443:2452  _balances */\n      0x02\n        /* \"LionToken.sol\":2443:2456  _balances[to] */\n      0x00\n        /* \"LionToken.sol\":2453:2455  to */\n      dup5\n        /* \"LionToken.sol\":2443:2456  _balances[to] */\n      0xffffffffffffffffffffffffffffffffffffffff\n      and\n      0xffffffffffffffffffffffffffffffffffffffff\n      and\n      dup2\n      mstore\n      0x20\n      add\n      swap1\n      dup2\n      mstore\n      0x20\n      add\n      0x00\n      keccak256\n      sload\n        /* \"LionToken.sol\":2443:2480  _balances[to] > _balances[topAddress] */\n      gt\n        /* \"LionToken.sol\":2439:2500  if (_balances[to] > _balances[topAddress]) {topAddress = to;} */\n      iszero\n      tag_131\n      jumpi\n        /* \"LionToken.sol\":2496:2498  to */\n      dup2\n        /* \"LionToken.sol\":2483:2493  topAddress */\n      0x01\n      0x00\n        /* \"LionToken.sol\":2483:2498  topAddress = to */\n      0x0100\n      exp\n      dup2\n      sload\n      dup2\n      0xffffffffffffffffffffffffffffffffffffffff\n      mul\n      not\n      and\n      swap1\n      dup4\n      0xffffffffffffffffffffffffffffffffffffffff\n      and\n      mul\n      or\n      swap1\n      sstore\n      pop\n        /* \"LionToken.sol\":2439:2500  if (_balances[to] > _balances[topAddress]) {topAddress = to;} */\n    tag_131:\n        /* \"LionToken.sol\":2527:2529  to */\n      dup2\n        /* \"LionToken.sol\":2512:2537  Transfer(from, to, value) */\n      0xffffffffffffffffffffffffffffffffffffffff\n      and\n        /* \"LionToken.sol\":2521:2525  from */\n      dup4\n        /* \"LionToken.sol\":2512:2537  Transfer(from, to, value) */\n      0xffffffffffffffffffffffffffffffffffffffff\n      and\n      0xddf252ad1be2c89b69c2b068fc378daa952ba7f163c4a11628f55a4df523b3ef\n        /* \"LionToken.sol\":2531:2536  value */\n      dup4\n        /* \"LionToken.sol\":2512:2537  Transfer(from, to, value) */\n      mload(0x40)\n      tag_132\n      swap2\n      swap1\n      tag_33\n      jump\t// in\n    tag_132:\n      mload(0x40)\n      dup1\n      swap2\n      sub\n      swap1\n      log3\n        /* \"LionToken.sol\":2194:2544  function _transfer(address from, address to, uint value) private {... */\n      pop\n      pop\n      pop\n      jump\t// out\n        /* \"libraries/SafeMath.sol\":192:314  function add(uint x, uint y) internal pure returns (uint z) {... */\n    tag_101:\n        /* \"libraries/SafeMath.sol\":244:250  uint z */\n      0x00\n        /* \"libraries/SafeMath.sol\":281:282  x */\n      dup3\n        /* \"libraries/SafeMath.sol\":275:276  y */\n      dup3\n        /* \"libraries/SafeMath.sol\":271:272  x */\n      dup5\n        /* \"libraries/SafeMath.sol\":271:276  x + y */\n      tag_134\n      swap2\n      swap1\n      tag_135\n      jump\t// in\n    tag_134:\n        /* \"libraries/SafeMath.sol\":267:276  z = x + y */\n      swap2\n      pop\n      dup2\n        /* \"libraries/SafeMath.sol\":266:282  (z = x + y) >= x */\n      lt\n      iszero\n        /* \"libraries/SafeMath.sol\":258:307  require((z = x + y) >= x, 'ds-math-add-overflow') */\n      tag_136\n      jumpi\n      mload(0x40)\n      0x08c379a000000000000000000000000000000000000000000000000000000000\n      dup2\n      mstore\n      0x04\n      add\n      tag_137\n      swap1\n      tag_138\n      jump\t// in\n    tag_137:\n      mload(0x40)\n      dup1\n      swap2\n      sub\n      swap1\n      revert\n    tag_136:\n        /* \"libraries/SafeMath.sol\":192:314  function add(uint x, uint y) internal pure returns (uint z) {... */\n      swap3\n      swap2\n      pop\n      pop\n      jump\t// out\n    tag_106:\n      dup3\n      dup1\n      sload\n      tag_139\n      swap1\n      tag_81\n      jump\t// in\n    tag_139:\n      swap1\n      0x00\n      mstore\n      keccak256(0x00, 0x20)\n      swap1\n      0x1f\n      add\n      0x20\n      swap1\n      div\n      dup2\n      add\n      swap3\n      dup3\n      tag_141\n      jumpi\n      0x00\n      dup6\n      sstore\n      jump(tag_140)\n    tag_141:\n      dup3\n      0x1f\n      lt\n      tag_142\n      jumpi\n      dup1\n      mload\n      not(0xff)\n      and\n      dup4\n      dup1\n      add\n      or\n      dup6\n      sstore\n      jump(tag_140)\n    tag_142:\n      dup3\n      dup1\n      add\n      0x01\n      add\n      dup6\n      sstore\n      dup3\n      iszero\n      tag_140\n      jumpi\n      swap2\n      dup3\n      add\n    tag_143:\n      dup3\n      dup2\n      gt\n      iszero\n      tag_144\n      jumpi\n      dup3\n      mload\n      dup3\n      sstore\n      swap2\n      0x20\n      add\n      swap2\n      swap1\n      0x01\n      add\n      swap1\n      jump(tag_143)\n    tag_144:\n    tag_140:\n      pop\n      swap1\n      pop\n      tag_145\n      swap2\n      swap1\n      tag_146\n      jump\t// in\n    tag_145:\n      pop\n      swap1\n      jump\t// out\n    tag_146:\n    tag_147:\n      dup1\n      dup3\n      gt\n      iszero\n      tag_148\n      jumpi\n      0x00\n      dup2\n      0x00\n      swap1\n      sstore\n      pop\n      0x01\n      add\n      jump(tag_147)\n    tag_148:\n      pop\n      swap1\n      jump\t// out\n        /* \"#utility.yul\":7:106   */\n    tag_149:\n        /* \"#utility.yul\":59:65   */\n      0x00\n        /* \"#utility.yul\":93:98   */\n      dup2\n        /* \"#utility.yul\":87:99   */\n      mload\n        /* \"#utility.yul\":77:99   */\n      swap1\n      pop\n        /* \"#utility.yul\":7:106   */\n      swap2\n      swap1\n      pop\n      jump\t// out\n        /* \"#utility.yul\":112:281   */\n    tag_150:\n        /* \"#utility.yul\":196:207   */\n      0x00\n        /* \"#utility.yul\":230:236   */\n      dup3\n        /* \"#utility.yul\":225:228   */\n      dup3\n        /* \"#utility.yul\":218:237   */\n      mstore\n        /* \"#utility.yul\":270:274   */\n      0x20\n        /* \"#utility.yul\":265:268   */\n      dup3\n        /* \"#utility.yul\":261:275   */\n      add\n        /* \"#utility.yul\":246:275   */\n      swap1\n      pop\n        /* \"#utility.yul\":112:281   */\n      swap3\n      swap2\n      pop\n      pop\n      jump\t// out\n        /* \"#utility.yul\":287:594   */\n    tag_151:\n        /* \"#utility.yul\":355:356   */\n      0x00\n        /* \"#utility.yul\":365:478   */\n    tag_189:\n        /* \"#utility.yul\":379:385   */\n      dup4\n        /* \"#utility.yul\":376:377   */\n      dup2\n        /* \"#utility.yul\":373:386   */\n      lt\n        /* \"#utility.yul\":365:478   */\n      iszero\n      tag_191\n      jumpi\n        /* \"#utility.yul\":464:465   */\n      dup1\n        /* \"#utility.yul\":459:462   */\n      dup3\n        /* \"#utility.yul\":455:466   */\n      add\n        /* \"#utility.yul\":449:467   */\n      mload\n        /* \"#utility.yul\":445:446   */\n      dup2\n        /* \"#utility.yul\":440:443   */\n      dup5\n        /* \"#utility.yul\":436:447   */\n      add\n        /* \"#utility.yul\":429:468   */\n      mstore\n        /* \"#utility.yul\":401:403   */\n      0x20\n        /* \"#utility.yul\":398:399   */\n      dup2\n        /* \"#utility.yul\":394:404   */\n      add\n        /* \"#utility.yul\":389:404   */\n      swap1\n      pop\n        /* \"#utility.yul\":365:478   */\n      jump(tag_189)\n    tag_191:\n        /* \"#utility.yul\":496:502   */\n      dup4\n        /* \"#utility.yul\":493:494   */\n      dup2\n        /* \"#utility.yul\":490:503   */\n      gt\n        /* \"#utility.yul\":487:588   */\n      iszero\n      tag_192\n      jumpi\n        /* \"#utility.yul\":576:577   */\n      0x00\n        /* \"#utility.yul\":567:573   */\n      dup5\n        /* \"#utility.yul\":562:565   */\n      dup5\n        /* \"#utility.yul\":558:574   */\n      add\n        /* \"#utility.yul\":551:578   */\n      mstore\n        /* \"#utility.yul\":487:588   */\n    tag_192:\n        /* \"#utility.yul\":336:594   */\n      pop\n        /* \"#utility.yul\":287:594   */\n      pop\n      pop\n      pop\n      jump\t// out\n        /* \"#utility.yul\":600:702   */\n    tag_152:\n        /* \"#utility.yul\":641:647   */\n      0x00\n        /* \"#utility.yul\":692:694   */\n      0x1f\n        /* \"#utility.yul\":688:695   */\n      not\n        /* \"#utility.yul\":683:685   */\n      0x1f\n        /* \"#utility.yul\":676:681   */\n      dup4\n        /* \"#utility.yul\":672:686   */\n      add\n        /* \"#utility.yul\":668:696   */\n      and\n        /* \"#utility.yul\":658:696   */\n      swap1\n      pop\n        /* \"#utility.yul\":600:702   */\n      swap2\n      swap1\n      pop\n      jump\t// out\n        /* \"#utility.yul\":708:1072   */\n    tag_153:\n        /* \"#utility.yul\":796:799   */\n      0x00\n        /* \"#utility.yul\":824:863   */\n      tag_195\n        /* \"#utility.yul\":857:862   */\n      dup3\n        /* \"#utility.yul\":824:863   */\n      tag_149\n      jump\t// in\n    tag_195:\n        /* \"#utility.yul\":879:950   */\n      tag_196\n        /* \"#utility.yul\":943:949   */\n      dup2\n        /* \"#utility.yul\":938:941   */\n      dup6\n        /* \"#utility.yul\":879:950   */\n      tag_150\n      jump\t// in\n    tag_196:\n        /* \"#utility.yul\":872:950   */\n      swap4\n      pop\n        /* \"#utility.yul\":959:1011   */\n      tag_197\n        /* \"#utility.yul\":1004:1010   */\n      dup2\n        /* \"#utility.yul\":999:1002   */\n      dup6\n        /* \"#utility.yul\":992:996   */\n      0x20\n        /* \"#utility.yul\":985:990   */\n      dup7\n        /* \"#utility.yul\":981:997   */\n      add\n        /* \"#utility.yul\":959:1011   */\n      tag_151\n      jump\t// in\n    tag_197:\n        /* \"#utility.yul\":1036:1065   */\n      tag_198\n        /* \"#utility.yul\":1058:1064   */\n      dup2\n        /* \"#utility.yul\":1036:1065   */\n      tag_152\n      jump\t// in\n    tag_198:\n        /* \"#utility.yul\":1031:1034   */\n      dup5\n        /* \"#utility.yul\":1027:1066   */\n      add\n        /* \"#utility.yul\":1020:1066   */\n      swap2\n      pop\n        /* \"#utility.yul\":800:1072   */\n      pop\n        /* \"#utility.yul\":708:1072   */\n      swap3\n      swap2\n      pop\n      pop\n      jump\t// out\n        /* \"#utility.yul\":1078:1391   */\n    tag_23:\n        /* \"#utility.yul\":1191:1195   */\n      0x00\n        /* \"#utility.yul\":1229:1231   */\n      0x20\n        /* \"#utility.yul\":1218:1227   */\n      dup3\n        /* \"#utility.yul\":1214:1232   */\n      add\n        /* \"#utility.yul\":1206:1232   */\n      swap1\n      pop\n        /* \"#utility.yul\":1278:1287   */\n      dup2\n        /* \"#utility.yul\":1272:1276   */\n      dup2\n        /* \"#utility.yul\":1268:1288   */\n      sub\n        /* \"#utility.yul\":1264:1265   */\n      0x00\n        /* \"#utility.yul\":1253:1262   */\n      dup4\n        /* \"#utility.yul\":1249:1266   */\n      add\n        /* \"#utility.yul\":1242:1289   */\n      mstore\n        /* \"#utility.yul\":1306:1384   */\n      tag_200\n        /* \"#utility.yul\":1379:1383   */\n      dup2\n        /* \"#utility.yul\":1370:1376   */\n      dup5\n        /* \"#utility.yul\":1306:1384   */\n      tag_153\n      jump\t// in\n    tag_200:\n        /* \"#utility.yul\":1298:1384   */\n      swap1\n      pop\n        /* \"#utility.yul\":1078:1391   */\n      swap3\n      swap2\n      pop\n      pop\n      jump\t// out\n        /* \"#utility.yul\":1397:1472   */\n    tag_154:\n        /* \"#utility.yul\":1430:1436   */\n      0x00\n        /* \"#utility.yul\":1463:1465   */\n      0x40\n        /* \"#utility.yul\":1457:1466   */\n      mload\n        /* \"#utility.yul\":1447:1466   */\n      swap1\n      pop\n        /* \"#utility.yul\":1397:1472   */\n      swap1\n      jump\t// out\n        /* \"#utility.yul\":1478:1595   */\n    tag_155:\n        /* \"#utility.yul\":1587:1588   */\n      0x00\n        /* \"#utility.yul\":1584:1585   */\n      dup1\n        /* \"#utility.yul\":1577:1589   */\n      revert\n        /* \"#utility.yul\":1601:1718   */\n    tag_156:\n        /* \"#utility.yul\":1710:1711   */\n      0x00\n        /* \"#utility.yul\":1707:1708   */\n      dup1\n        /* \"#utility.yul\":1700:1712   */\n      revert\n        /* \"#utility.yul\":1724:1850   */\n    tag_157:\n        /* \"#utility.yul\":1761:1768   */\n      0x00\n        /* \"#utility.yul\":1801:1843   */\n      0xffffffffffffffffffffffffffffffffffffffff\n        /* \"#utility.yul\":1794:1799   */\n      dup3\n        /* \"#utility.yul\":1790:1844   */\n      and\n        /* \"#utility.yul\":1779:1844   */\n      swap1\n      pop\n        /* \"#utility.yul\":1724:1850   */\n      swap2\n      swap1\n      pop\n      jump\t// out\n        /* \"#utility.yul\":1856:1952   */\n    tag_158:\n        /* \"#utility.yul\":1893:1900   */\n      0x00\n        /* \"#utility.yul\":1922:1946   */\n      tag_206\n        /* \"#utility.yul\":1940:1945   */\n      dup3\n        /* \"#utility.yul\":1922:1946   */\n      tag_157\n      jump\t// in\n    tag_206:\n        /* \"#utility.yul\":1911:1946   */\n      swap1\n      pop\n        /* \"#utility.yul\":1856:1952   */\n      swap2\n      swap1\n      pop\n      jump\t// out\n        /* \"#utility.yul\":1958:2080   */\n    tag_159:\n        /* \"#utility.yul\":2031:2055   */\n      tag_208\n        /* \"#utility.yul\":2049:2054   */\n      dup2\n        /* \"#utility.yul\":2031:2055   */\n      tag_158\n      jump\t// in\n    tag_208:\n        /* \"#utility.yul\":2024:2029   */\n      dup2\n        /* \"#utility.yul\":2021:2056   */\n      eq\n        /* \"#utility.yul\":2011:2074   */\n      tag_209\n      jumpi\n        /* \"#utility.yul\":2070:2071   */\n      0x00\n        /* \"#utility.yul\":2067:2068   */\n      dup1\n        /* \"#utility.yul\":2060:2072   */\n      revert\n        /* \"#utility.yul\":2011:2074   */\n    tag_209:\n        /* \"#utility.yul\":1958:2080   */\n      pop\n      jump\t// out\n        /* \"#utility.yul\":2086:2225   */\n    tag_160:\n        /* \"#utility.yul\":2132:2137   */\n      0x00\n        /* \"#utility.yul\":2170:2176   */\n      dup2\n        /* \"#utility.yul\":2157:2177   */\n      calldataload\n        /* \"#utility.yul\":2148:2177   */\n      swap1\n      pop\n        /* \"#utility.yul\":2186:2219   */\n      tag_211\n        /* \"#utility.yul\":2213:2218   */\n      dup2\n        /* \"#utility.yul\":2186:2219   */\n      tag_159\n      jump\t// in\n    tag_211:\n        /* \"#utility.yul\":2086:2225   */\n      swap3\n      swap2\n      pop\n      pop\n      jump\t// out\n        /* \"#utility.yul\":2231:2308   */\n    tag_161:\n        /* \"#utility.yul\":2268:2275   */\n      0x00\n        /* \"#utility.yul\":2297:2302   */\n      dup2\n        /* \"#utility.yul\":2286:2302   */\n      swap1\n      pop\n        /* \"#utility.yul\":2231:2308   */\n      swap2\n      swap1\n      pop\n      jump\t// out\n        /* \"#utility.yul\":2314:2436   */\n    tag_162:\n        /* \"#utility.yul\":2387:2411   */\n      tag_214\n        /* \"#utility.yul\":2405:2410   */\n      dup2\n        /* \"#utility.yul\":2387:2411   */\n      tag_161\n      jump\t// in\n    tag_214:\n        /* \"#utility.yul\":2380:2385   */\n      dup2\n        /* \"#utility.yul\":2377:2412   */\n      eq\n        /* \"#utility.yul\":2367:2430   */\n      tag_215\n      jumpi\n        /* \"#utility.yul\":2426:2427   */\n      0x00\n        /* \"#utility.yul\":2423:2424   */\n      dup1\n        /* \"#utility.yul\":2416:2428   */\n      revert\n        /* \"#utility.yul\":2367:2430   */\n    tag_215:\n        /* \"#utility.yul\":2314:2436   */\n      pop\n      jump\t// out\n        /* \"#utility.yul\":2442:2581   */\n    tag_163:\n        /* \"#utility.yul\":2488:2493   */\n      0x00\n        /* \"#utility.yul\":2526:2532   */\n      dup2\n        /* \"#utility.yul\":2513:2533   */\n      calldataload\n        /* \"#utility.yul\":2504:2533   */\n      swap1\n      pop\n        /* \"#utility.yul\":2542:2575   */\n      tag_217\n        /* \"#utility.yul\":2569:2574   */\n      dup2\n        /* \"#utility.yul\":2542:2575   */\n      tag_162\n      jump\t// in\n    tag_217:\n        /* \"#utility.yul\":2442:2581   */\n      swap3\n      swap2\n      pop\n      pop\n      jump\t// out\n        /* \"#utility.yul\":2587:3061   */\n    tag_26:\n        /* \"#utility.yul\":2655:2661   */\n      0x00\n        /* \"#utility.yul\":2663:2669   */\n      dup1\n        /* \"#utility.yul\":2712:2714   */\n      0x40\n        /* \"#utility.yul\":2700:2709   */\n      dup4\n        /* \"#utility.yul\":2691:2698   */\n      dup6\n        /* \"#utility.yul\":2687:2710   */\n      sub\n        /* \"#utility.yul\":2683:2715   */\n      slt\n        /* \"#utility.yul\":2680:2799   */\n      iszero\n      tag_219\n      jumpi\n        /* \"#utility.yul\":2718:2797   */\n      tag_220\n      tag_155\n      jump\t// in\n    tag_220:\n        /* \"#utility.yul\":2680:2799   */\n    tag_219:\n        /* \"#utility.yul\":2838:2839   */\n      0x00\n        /* \"#utility.yul\":2863:2916   */\n      tag_221\n        /* \"#utility.yul\":2908:2915   */\n      dup6\n        /* \"#utility.yul\":2899:2905   */\n      dup3\n        /* \"#utility.yul\":2888:2897   */\n      dup7\n        /* \"#utility.yul\":2884:2906   */\n      add\n        /* \"#utility.yul\":2863:2916   */\n      tag_160\n      jump\t// in\n    tag_221:\n        /* \"#utility.yul\":2853:2916   */\n      swap3\n      pop\n        /* \"#utility.yul\":2809:2926   */\n      pop\n        /* \"#utility.yul\":2965:2967   */\n      0x20\n        /* \"#utility.yul\":2991:3044   */\n      tag_222\n        /* \"#utility.yul\":3036:3043   */\n      dup6\n        /* \"#utility.yul\":3027:3033   */\n      dup3\n        /* \"#utility.yul\":3016:3025   */\n      dup7\n        /* \"#utility.yul\":3012:3034   */\n      add\n        /* \"#utility.yul\":2991:3044   */\n      tag_163\n      jump\t// in\n    tag_222:\n        /* \"#utility.yul\":2981:3044   */\n      swap2\n      pop\n        /* \"#utility.yul\":2936:3054   */\n      pop\n        /* \"#utility.yul\":2587:3061   */\n      swap3\n      pop\n      swap3\n      swap1\n      pop\n      jump\t// out\n        /* \"#utility.yul\":3067:3157   */\n    tag_164:\n        /* \"#utility.yul\":3101:3108   */\n      0x00\n        /* \"#utility.yul\":3144:3149   */\n      dup2\n        /* \"#utility.yul\":3137:3150   */\n      iszero\n        /* \"#utility.yul\":3130:3151   */\n      iszero\n        /* \"#utility.yul\":3119:3151   */\n      swap1\n      pop\n        /* \"#utility.yul\":3067:3157   */\n      swap2\n      swap1\n      pop\n      jump\t// out\n        /* \"#utility.yul\":3163:3272   */\n    tag_165:\n        /* \"#utility.yul\":3244:3265   */\n      tag_225\n        /* \"#utility.yul\":3259:3264   */\n      dup2\n        /* \"#utility.yul\":3244:3265   */\n      tag_164\n      jump\t// in\n    tag_225:\n        /* \"#utility.yul\":3239:3242   */\n      dup3\n        /* \"#utility.yul\":3232:3266   */\n      mstore\n        /* \"#utility.yul\":3163:3272   */\n      pop\n      pop\n      jump\t// out\n        /* \"#utility.yul\":3278:3488   */\n    tag_29:\n        /* \"#utility.yul\":3365:3369   */\n      0x00\n        /* \"#utility.yul\":3403:3405   */\n      0x20\n        /* \"#utility.yul\":3392:3401   */\n      dup3\n        /* \"#utility.yul\":3388:3406   */\n      add\n        /* \"#utility.yul\":3380:3406   */\n      swap1\n      pop\n        /* \"#utility.yul\":3416:3481   */\n      tag_227\n        /* \"#utility.yul\":3478:3479   */\n      0x00\n        /* \"#utility.yul\":3467:3476   */\n      dup4\n        /* \"#utility.yul\":3463:3480   */\n      add\n        /* \"#utility.yul\":3454:3460   */\n      dup5\n        /* \"#utility.yul\":3416:3481   */\n      tag_165\n      jump\t// in\n    tag_227:\n        /* \"#utility.yul\":3278:3488   */\n      swap3\n      swap2\n      pop\n      pop\n      jump\t// out\n        /* \"#utility.yul\":3494:3612   */\n    tag_166:\n        /* \"#utility.yul\":3581:3605   */\n      tag_229\n        /* \"#utility.yul\":3599:3604   */\n      dup2\n        /* \"#utility.yul\":3581:3605   */\n      tag_161\n      jump\t// in\n    tag_229:\n        /* \"#utility.yul\":3576:3579   */\n      dup3\n        /* \"#utility.yul\":3569:3606   */\n      mstore\n        /* \"#utility.yul\":3494:3612   */\n      pop\n      pop\n      jump\t// out\n        /* \"#utility.yul\":3618:3840   */\n    tag_33:\n        /* \"#utility.yul\":3711:3715   */\n      0x00\n        /* \"#utility.yul\":3749:3751   */\n      0x20\n        /* \"#utility.yul\":3738:3747   */\n      dup3\n        /* \"#utility.yul\":3734:3752   */\n      add\n        /* \"#utility.yul\":3726:3752   */\n      swap1\n      pop\n        /* \"#utility.yul\":3762:3833   */\n      tag_231\n        /* \"#utility.yul\":3830:3831   */\n      0x00\n        /* \"#utility.yul\":3819:3828   */\n      dup4\n        /* \"#utility.yul\":3815:3832   */\n      add\n        /* \"#utility.yul\":3806:3812   */\n      dup5\n        /* \"#utility.yul\":3762:3833   */\n      tag_166\n      jump\t// in\n    tag_231:\n        /* \"#utility.yul\":3618:3840   */\n      swap3\n      swap2\n      pop\n      pop\n      jump\t// out\n        /* \"#utility.yul\":3846:3964   */\n    tag_167:\n        /* \"#utility.yul\":3933:3957   */\n      tag_233\n        /* \"#utility.yul\":3951:3956   */\n      dup2\n        /* \"#utility.yul\":3933:3957   */\n      tag_158\n      jump\t// in\n    tag_233:\n        /* \"#utility.yul\":3928:3931   */\n      dup3\n        /* \"#utility.yul\":3921:3958   */\n      mstore\n        /* \"#utility.yul\":3846:3964   */\n      pop\n      pop\n      jump\t// out\n        /* \"#utility.yul\":3970:4192   */\n    tag_37:\n        /* \"#utility.yul\":4063:4067   */\n      0x00\n        /* \"#utility.yul\":4101:4103   */\n      0x20\n        /* \"#utility.yul\":4090:4099   */\n      dup3\n        /* \"#utility.yul\":4086:4104   */\n      add\n        /* \"#utility.yul\":4078:4104   */\n      swap1\n      pop\n        /* \"#utility.yul\":4114:4185   */\n      tag_235\n        /* \"#utility.yul\":4182:4183   */\n      0x00\n        /* \"#utility.yul\":4171:4180   */\n      dup4\n        /* \"#utility.yul\":4167:4184   */\n      add\n        /* \"#utility.yul\":4158:4164   */\n      dup5\n        /* \"#utility.yul\":4114:4185   */\n      tag_167\n      jump\t// in\n    tag_235:\n        /* \"#utility.yul\":3970:4192   */\n      swap3\n      swap2\n      pop\n      pop\n      jump\t// out\n        /* \"#utility.yul\":4198:4817   */\n    tag_40:\n        /* \"#utility.yul\":4275:4281   */\n      0x00\n        /* \"#utility.yul\":4283:4289   */\n      dup1\n        /* \"#utility.yul\":4291:4297   */\n      0x00\n        /* \"#utility.yul\":4340:4342   */\n      0x60\n        /* \"#utility.yul\":4328:4337   */\n      dup5\n        /* \"#utility.yul\":4319:4326   */\n      dup7\n        /* \"#utility.yul\":4315:4338   */\n      sub\n        /* \"#utility.yul\":4311:4343   */\n      slt\n        /* \"#utility.yul\":4308:4427   */\n      iszero\n      tag_237\n      jumpi\n        /* \"#utility.yul\":4346:4425   */\n      tag_238\n      tag_155\n      jump\t// in\n    tag_238:\n        /* \"#utility.yul\":4308:4427   */\n    tag_237:\n        /* \"#utility.yul\":4466:4467   */\n      0x00\n        /* \"#utility.yul\":4491:4544   */\n      tag_239\n        /* \"#utility.yul\":4536:4543   */\n      dup7\n        /* \"#utility.yul\":4527:4533   */\n      dup3\n        /* \"#utility.yul\":4516:4525   */\n      dup8\n        /* \"#utility.yul\":4512:4534   */\n      add\n        /* \"#utility.yul\":4491:4544   */\n      tag_160\n      jump\t// in\n    tag_239:\n        /* \"#utility.yul\":4481:4544   */\n      swap4\n      pop\n        /* \"#utility.yul\":4437:4554   */\n      pop\n        /* \"#utility.yul\":4593:4595   */\n      0x20\n        /* \"#utility.yul\":4619:4672   */\n      tag_240\n        /* \"#utility.yul\":4664:4671   */\n      dup7\n        /* \"#utility.yul\":4655:4661   */\n      dup3\n        /* \"#utility.yul\":4644:4653   */\n      dup8\n        /* \"#utility.yul\":4640:4662   */\n      add\n        /* \"#utility.yul\":4619:4672   */\n      tag_160\n      jump\t// in\n    tag_240:\n        /* \"#utility.yul\":4609:4672   */\n      swap3\n      pop\n        /* \"#utility.yul\":4564:4682   */\n      pop\n        /* \"#utility.yul\":4721:4723   */\n      0x40\n        /* \"#utility.yul\":4747:4800   */\n      tag_241\n        /* \"#utility.yul\":4792:4799   */\n      dup7\n        /* \"#utility.yul\":4783:4789   */\n      dup3\n        /* \"#utility.yul\":4772:4781   */\n      dup8\n        /* \"#utility.yul\":4768:4790   */\n      add\n        /* \"#utility.yul\":4747:4800   */\n      tag_163\n      jump\t// in\n    tag_241:\n        /* \"#utility.yul\":4737:4800   */\n      swap2\n      pop\n        /* \"#utility.yul\":4692:4810   */\n      pop\n        /* \"#utility.yul\":4198:4817   */\n      swap3\n      pop\n      swap3\n      pop\n      swap3\n      jump\t// out\n        /* \"#utility.yul\":4823:4909   */\n    tag_168:\n        /* \"#utility.yul\":4858:4865   */\n      0x00\n        /* \"#utility.yul\":4898:4902   */\n      0xff\n        /* \"#utility.yul\":4891:4896   */\n      dup3\n        /* \"#utility.yul\":4887:4903   */\n      and\n        /* \"#utility.yul\":4876:4903   */\n      swap1\n      pop\n        /* \"#utility.yul\":4823:4909   */\n      swap2\n      swap1\n      pop\n      jump\t// out\n        /* \"#utility.yul\":4915:5027   */\n    tag_169:\n        /* \"#utility.yul\":4998:5020   */\n      tag_244\n        /* \"#utility.yul\":5014:5019   */\n      dup2\n        /* \"#utility.yul\":4998:5020   */\n      tag_168\n      jump\t// in\n    tag_244:\n        /* \"#utility.yul\":4993:4996   */\n      dup3\n        /* \"#utility.yul\":4986:5021   */\n      mstore\n        /* \"#utility.yul\":4915:5027   */\n      pop\n      pop\n      jump\t// out\n        /* \"#utility.yul\":5033:5247   */\n    tag_46:\n        /* \"#utility.yul\":5122:5126   */\n      0x00\n        /* \"#utility.yul\":5160:5162   */\n      0x20\n        /* \"#utility.yul\":5149:5158   */\n      dup3\n        /* \"#utility.yul\":5145:5163   */\n      add\n        /* \"#utility.yul\":5137:5163   */\n      swap1\n      pop\n        /* \"#utility.yul\":5173:5240   */\n      tag_246\n        /* \"#utility.yul\":5237:5238   */\n      0x00\n        /* \"#utility.yul\":5226:5235   */\n      dup4\n        /* \"#utility.yul\":5222:5239   */\n      add\n        /* \"#utility.yul\":5213:5219   */\n      dup5\n        /* \"#utility.yul\":5173:5240   */\n      tag_169\n      jump\t// in\n    tag_246:\n        /* \"#utility.yul\":5033:5247   */\n      swap3\n      swap2\n      pop\n      pop\n      jump\t// out\n        /* \"#utility.yul\":5253:5370   */\n    tag_170:\n        /* \"#utility.yul\":5362:5363   */\n      0x00\n        /* \"#utility.yul\":5359:5360   */\n      dup1\n        /* \"#utility.yul\":5352:5364   */\n      revert\n        /* \"#utility.yul\":5376:5493   */\n    tag_171:\n        /* \"#utility.yul\":5485:5486   */\n      0x00\n        /* \"#utility.yul\":5482:5483   */\n      dup1\n        /* \"#utility.yul\":5475:5487   */\n      revert\n        /* \"#utility.yul\":5499:5679   */\n    tag_172:\n        /* \"#utility.yul\":5547:5624   */\n      0x4e487b7100000000000000000000000000000000000000000000000000000000\n        /* \"#utility.yul\":5544:5545   */\n      0x00\n        /* \"#utility.yul\":5537:5625   */\n      mstore\n        /* \"#utility.yul\":5644:5648   */\n      0x41\n        /* \"#utility.yul\":5641:5642   */\n      0x04\n        /* \"#utility.yul\":5634:5649   */\n      mstore\n        /* \"#utility.yul\":5668:5672   */\n      0x24\n        /* \"#utility.yul\":5665:5666   */\n      0x00\n        /* \"#utility.yul\":5658:5673   */\n      revert\n        /* \"#utility.yul\":5685:5966   */\n    tag_173:\n        /* \"#utility.yul\":5768:5795   */\n      tag_251\n        /* \"#utility.yul\":5790:5794   */\n      dup3\n        /* \"#utility.yul\":5768:5795   */\n      tag_152\n      jump\t// in\n    tag_251:\n        /* \"#utility.yul\":5760:5766   */\n      dup2\n        /* \"#utility.yul\":5756:5796   */\n      add\n        /* \"#utility.yul\":5898:5904   */\n      dup2\n        /* \"#utility.yul\":5886:5896   */\n      dup2\n        /* \"#utility.yul\":5883:5905   */\n      lt\n        /* \"#utility.yul\":5862:5880   */\n      0xffffffffffffffff\n        /* \"#utility.yul\":5850:5860   */\n      dup3\n        /* \"#utility.yul\":5847:5881   */\n      gt\n        /* \"#utility.yul\":5844:5906   */\n      or\n        /* \"#utility.yul\":5841:5929   */\n      iszero\n      tag_252\n      jumpi\n        /* \"#utility.yul\":5909:5927   */\n      tag_253\n      tag_172\n      jump\t// in\n    tag_253:\n        /* \"#utility.yul\":5841:5929   */\n    tag_252:\n        /* \"#utility.yul\":5949:5959   */\n      dup1\n        /* \"#utility.yul\":5945:5947   */\n      0x40\n        /* \"#utility.yul\":5938:5960   */\n      mstore\n        /* \"#utility.yul\":5728:5966   */\n      pop\n        /* \"#utility.yul\":5685:5966   */\n      pop\n      pop\n      jump\t// out\n        /* \"#utility.yul\":5972:6101   */\n    tag_174:\n        /* \"#utility.yul\":6006:6012   */\n      0x00\n        /* \"#utility.yul\":6033:6053   */\n      tag_255\n      tag_154\n      jump\t// in\n    tag_255:\n        /* \"#utility.yul\":6023:6053   */\n      swap1\n      pop\n        /* \"#utility.yul\":6062:6095   */\n      tag_256\n        /* \"#utility.yul\":6090:6094   */\n      dup3\n        /* \"#utility.yul\":6082:6088   */\n      dup3\n        /* \"#utility.yul\":6062:6095   */\n      tag_173\n      jump\t// in\n    tag_256:\n        /* \"#utility.yul\":5972:6101   */\n      swap2\n      swap1\n      pop\n      jump\t// out\n        /* \"#utility.yul\":6107:6415   */\n    tag_175:\n        /* \"#utility.yul\":6169:6173   */\n      0x00\n        /* \"#utility.yul\":6259:6277   */\n      0xffffffffffffffff\n        /* \"#utility.yul\":6251:6257   */\n      dup3\n        /* \"#utility.yul\":6248:6278   */\n      gt\n        /* \"#utility.yul\":6245:6301   */\n      iszero\n      tag_258\n      jumpi\n        /* \"#utility.yul\":6281:6299   */\n      tag_259\n      tag_172\n      jump\t// in\n    tag_259:\n        /* \"#utility.yul\":6245:6301   */\n    tag_258:\n        /* \"#utility.yul\":6319:6348   */\n      tag_260\n        /* \"#utility.yul\":6341:6347   */\n      dup3\n        /* \"#utility.yul\":6319:6348   */\n      tag_152\n      jump\t// in\n    tag_260:\n        /* \"#utility.yul\":6311:6348   */\n      swap1\n      pop\n        /* \"#utility.yul\":6403:6407   */\n      0x20\n        /* \"#utility.yul\":6397:6401   */\n      dup2\n        /* \"#utility.yul\":6393:6408   */\n      add\n        /* \"#utility.yul\":6385:6408   */\n      swap1\n      pop\n        /* \"#utility.yul\":6107:6415   */\n      swap2\n      swap1\n      pop\n      jump\t// out\n        /* \"#utility.yul\":6421:6575   */\n    tag_176:\n        /* \"#utility.yul\":6505:6511   */\n      dup3\n        /* \"#utility.yul\":6500:6503   */\n      dup2\n        /* \"#utility.yul\":6495:6498   */\n      dup4\n        /* \"#utility.yul\":6482:6512   */\n      calldatacopy\n        /* \"#utility.yul\":6567:6568   */\n      0x00\n        /* \"#utility.yul\":6558:6564   */\n      dup4\n        /* \"#utility.yul\":6553:6556   */\n      dup4\n        /* \"#utility.yul\":6549:6565   */\n      add\n        /* \"#utility.yul\":6542:6569   */\n      mstore\n        /* \"#utility.yul\":6421:6575   */\n      pop\n      pop\n      pop\n      jump\t// out\n        /* \"#utility.yul\":6581:6993   */\n    tag_177:\n        /* \"#utility.yul\":6659:6664   */\n      0x00\n        /* \"#utility.yul\":6684:6750   */\n      tag_263\n        /* \"#utility.yul\":6700:6749   */\n      tag_264\n        /* \"#utility.yul\":6742:6748   */\n      dup5\n        /* \"#utility.yul\":6700:6749   */\n      tag_175\n      jump\t// in\n    tag_264:\n        /* \"#utility.yul\":6684:6750   */\n      tag_174\n      jump\t// in\n    tag_263:\n        /* \"#utility.yul\":6675:6750   */\n      swap1\n      pop\n        /* \"#utility.yul\":6773:6779   */\n      dup3\n        /* \"#utility.yul\":6766:6771   */\n      dup2\n        /* \"#utility.yul\":6759:6780   */\n      mstore\n        /* \"#utility.yul\":6811:6815   */\n      0x20\n        /* \"#utility.yul\":6804:6809   */\n      dup2\n        /* \"#utility.yul\":6800:6816   */\n      add\n        /* \"#utility.yul\":6849:6852   */\n      dup5\n        /* \"#utility.yul\":6840:6846   */\n      dup5\n        /* \"#utility.yul\":6835:6838   */\n      dup5\n        /* \"#utility.yul\":6831:6847   */\n      add\n        /* \"#utility.yul\":6828:6853   */\n      gt\n        /* \"#utility.yul\":6825:6937   */\n      iszero\n      tag_265\n      jumpi\n        /* \"#utility.yul\":6856:6935   */\n      tag_266\n      tag_171\n      jump\t// in\n    tag_266:\n        /* \"#utility.yul\":6825:6937   */\n    tag_265:\n        /* \"#utility.yul\":6946:6987   */\n      tag_267\n        /* \"#utility.yul\":6980:6986   */\n      dup5\n        /* \"#utility.yul\":6975:6978   */\n      dup3\n        /* \"#utility.yul\":6970:6973   */\n      dup6\n        /* \"#utility.yul\":6946:6987   */\n      tag_176\n      jump\t// in\n    tag_267:\n        /* \"#utility.yul\":6665:6993   */\n      pop\n        /* \"#utility.yul\":6581:6993   */\n      swap4\n      swap3\n      pop\n      pop\n      pop\n      jump\t// out\n        /* \"#utility.yul\":7013:7353   */\n    tag_178:\n        /* \"#utility.yul\":7069:7074   */\n      0x00\n        /* \"#utility.yul\":7118:7121   */\n      dup3\n        /* \"#utility.yul\":7111:7115   */\n      0x1f\n        /* \"#utility.yul\":7103:7109   */\n      dup4\n        /* \"#utility.yul\":7099:7116   */\n      add\n        /* \"#utility.yul\":7095:7122   */\n      slt\n        /* \"#utility.yul\":7085:7207   */\n      tag_269\n      jumpi\n        /* \"#utility.yul\":7126:7205   */\n      tag_270\n      tag_170\n      jump\t// in\n    tag_270:\n        /* \"#utility.yul\":7085:7207   */\n    tag_269:\n        /* \"#utility.yul\":7243:7249   */\n      dup2\n        /* \"#utility.yul\":7230:7250   */\n      calldataload\n        /* \"#utility.yul\":7268:7347   */\n      tag_271\n        /* \"#utility.yul\":7343:7346   */\n      dup5\n        /* \"#utility.yul\":7335:7341   */\n      dup3\n        /* \"#utility.yul\":7328:7332   */\n      0x20\n        /* \"#utility.yul\":7320:7326   */\n      dup7\n        /* \"#utility.yul\":7316:7333   */\n      add\n        /* \"#utility.yul\":7268:7347   */\n      tag_177\n      jump\t// in\n    tag_271:\n        /* \"#utility.yul\":7259:7347   */\n      swap2\n      pop\n        /* \"#utility.yul\":7075:7353   */\n      pop\n        /* \"#utility.yul\":7013:7353   */\n      swap3\n      swap2\n      pop\n      pop\n      jump\t// out\n        /* \"#utility.yul\":7359:7868   */\n    tag_56:\n        /* \"#utility.yul\":7428:7434   */\n      0x00\n        /* \"#utility.yul\":7477:7479   */\n      0x20\n        /* \"#utility.yul\":7465:7474   */\n      dup3\n        /* \"#utility.yul\":7456:7463   */\n      dup5\n        /* \"#utility.yul\":7452:7475   */\n      sub\n        /* \"#utility.yul\":7448:7480   */\n      slt\n        /* \"#utility.yul\":7445:7564   */\n      iszero\n      tag_273\n      jumpi\n        /* \"#utility.yul\":7483:7562   */\n      tag_274\n      tag_155\n      jump\t// in\n    tag_274:\n        /* \"#utility.yul\":7445:7564   */\n    tag_273:\n        /* \"#utility.yul\":7631:7632   */\n      0x00\n        /* \"#utility.yul\":7620:7629   */\n      dup3\n        /* \"#utility.yul\":7616:7633   */\n      add\n        /* \"#utility.yul\":7603:7634   */\n      calldataload\n        /* \"#utility.yul\":7661:7679   */\n      0xffffffffffffffff\n        /* \"#utility.yul\":7653:7659   */\n      dup2\n        /* \"#utility.yul\":7650:7680   */\n      gt\n        /* \"#utility.yul\":7647:7764   */\n      iszero\n      tag_275\n      jumpi\n        /* \"#utility.yul\":7683:7762   */\n      tag_276\n      tag_156\n      jump\t// in\n    tag_276:\n        /* \"#utility.yul\":7647:7764   */\n    tag_275:\n        /* \"#utility.yul\":7788:7851   */\n      tag_277\n        /* \"#utility.yul\":7843:7850   */\n      dup5\n        /* \"#utility.yul\":7834:7840   */\n      dup3\n        /* \"#utility.yul\":7823:7832   */\n      dup6\n        /* \"#utility.yul\":7819:7841   */\n      add\n        /* \"#utility.yul\":7788:7851   */\n      tag_178\n      jump\t// in\n    tag_277:\n        /* \"#utility.yul\":7778:7851   */\n      swap2\n      pop\n        /* \"#utility.yul\":7574:7861   */\n      pop\n        /* \"#utility.yul\":7359:7868   */\n      swap3\n      swap2\n      pop\n      pop\n      jump\t// out\n        /* \"#utility.yul\":7874:8203   */\n    tag_61:\n        /* \"#utility.yul\":7933:7939   */\n      0x00\n        /* \"#utility.yul\":7982:7984   */\n      0x20\n        /* \"#utility.yul\":7970:7979   */\n      dup3\n        /* \"#utility.yul\":7961:7968   */\n      dup5\n        /* \"#utility.yul\":7957:7980   */\n      sub\n        /* \"#utility.yul\":7953:7985   */\n      slt\n        /* \"#utility.yul\":7950:8069   */\n      iszero\n      tag_279\n      jumpi\n        /* \"#utility.yul\":7988:8067   */\n      tag_280\n      tag_155\n      jump\t// in\n    tag_280:\n        /* \"#utility.yul\":7950:8069   */\n    tag_279:\n        /* \"#utility.yul\":8108:8109   */\n      0x00\n        /* \"#utility.yul\":8133:8186   */\n      tag_281\n        /* \"#utility.yul\":8178:8185   */\n      dup5\n        /* \"#utility.yul\":8169:8175   */\n      dup3\n        /* \"#utility.yul\":8158:8167   */\n      dup6\n        /* \"#utility.yul\":8154:8176   */\n      add\n        /* \"#utility.yul\":8133:8186   */\n      tag_160\n      jump\t// in\n    tag_281:\n        /* \"#utility.yul\":8123:8186   */\n      swap2\n      pop\n        /* \"#utility.yul\":8079:8196   */\n      pop\n        /* \"#utility.yul\":7874:8203   */\n      swap3\n      swap2\n      pop\n      pop\n      jump\t// out\n        /* \"#utility.yul\":8209:8683   */\n    tag_77:\n        /* \"#utility.yul\":8277:8283   */\n      0x00\n        /* \"#utility.yul\":8285:8291   */\n      dup1\n        /* \"#utility.yul\":8334:8336   */\n      0x40\n        /* \"#utility.yul\":8322:8331   */\n      dup4\n        /* \"#utility.yul\":8313:8320   */\n      dup6\n        /* \"#utility.yul\":8309:8332   */\n      sub\n        /* \"#utility.yul\":8305:8337   */\n      slt\n        /* \"#utility.yul\":8302:8421   */\n      iszero\n      tag_283\n      jumpi\n        /* \"#utility.yul\":8340:8419   */\n      tag_284\n      tag_155\n      jump\t// in\n    tag_284:\n        /* \"#utility.yul\":8302:8421   */\n    tag_283:\n        /* \"#utility.yul\":8460:8461   */\n      0x00\n        /* \"#utility.yul\":8485:8538   */\n      tag_285\n        /* \"#utility.yul\":8530:8537   */\n      dup6\n        /* \"#utility.yul\":8521:8527   */\n      dup3\n        /* \"#utility.yul\":8510:8519   */\n      dup7\n        /* \"#utility.yul\":8506:8528   */\n      add\n        /* \"#utility.yul\":8485:8538   */\n      tag_160\n      jump\t// in\n    tag_285:\n        /* \"#utility.yul\":8475:8538   */\n      swap3\n      pop\n        /* \"#utility.yul\":8431:8548   */\n      pop\n        /* \"#utility.yul\":8587:8589   */\n      0x20\n        /* \"#utility.yul\":8613:8666   */\n      tag_286\n        /* \"#utility.yul\":8658:8665   */\n      dup6\n        /* \"#utility.yul\":8649:8655   */\n      dup3\n        /* \"#utility.yul\":8638:8647   */\n      dup7\n        /* \"#utility.yul\":8634:8656   */\n      add\n        /* \"#utility.yul\":8613:8666   */\n      tag_160\n      jump\t// in\n    tag_286:\n        /* \"#utility.yul\":8603:8666   */\n      swap2\n      pop\n        /* \"#utility.yul\":8558:8676   */\n      pop\n        /* \"#utility.yul\":8209:8683   */\n      swap3\n      pop\n      swap3\n      swap1\n      pop\n      jump\t// out\n        /* \"#utility.yul\":8689:8869   */\n    tag_179:\n        /* \"#utility.yul\":8737:8814   */\n      0x4e487b7100000000000000000000000000000000000000000000000000000000\n        /* \"#utility.yul\":8734:8735   */\n      0x00\n        /* \"#utility.yul\":8727:8815   */\n      mstore\n        /* \"#utility.yul\":8834:8838   */\n      0x22\n        /* \"#utility.yul\":8831:8832   */\n      0x04\n        /* \"#utility.yul\":8824:8839   */\n      mstore\n        /* \"#utility.yul\":8858:8862   */\n      0x24\n        /* \"#utility.yul\":8855:8856   */\n      0x00\n        /* \"#utility.yul\":8848:8863   */\n      revert\n        /* \"#utility.yul\":8875:9195   */\n    tag_81:\n        /* \"#utility.yul\":8919:8925   */\n      0x00\n        /* \"#utility.yul\":8956:8957   */\n      0x02\n        /* \"#utility.yul\":8950:8954   */\n      dup3\n        /* \"#utility.yul\":8946:8958   */\n      div\n        /* \"#utility.yul\":8936:8958   */\n      swap1\n      pop\n        /* \"#utility.yul\":9003:9004   */\n      0x01\n        /* \"#utility.yul\":8997:9001   */\n      dup3\n        /* \"#utility.yul\":8993:9005   */\n      and\n        /* \"#utility.yul\":9024:9042   */\n      dup1\n        /* \"#utility.yul\":9014:9095   */\n      tag_289\n      jumpi\n        /* \"#utility.yul\":9080:9084   */\n      0x7f\n        /* \"#utility.yul\":9072:9078   */\n      dup3\n        /* \"#utility.yul\":9068:9085   */\n      and\n        /* \"#utility.yul\":9058:9085   */\n      swap2\n      pop\n        /* \"#utility.yul\":9014:9095   */\n    tag_289:\n        /* \"#utility.yul\":9142:9144   */\n      0x20\n        /* \"#utility.yul\":9134:9140   */\n      dup3\n        /* \"#utility.yul\":9131:9145   */\n      lt\n        /* \"#utility.yul\":9111:9129   */\n      dup2\n        /* \"#utility.yul\":9108:9146   */\n      eq\n        /* \"#utility.yul\":9105:9189   */\n      iszero\n      tag_290\n      jumpi\n        /* \"#utility.yul\":9161:9179   */\n      tag_291\n      tag_179\n      jump\t// in\n    tag_291:\n        /* \"#utility.yul\":9105:9189   */\n    tag_290:\n        /* \"#utility.yul\":8926:9195   */\n      pop\n        /* \"#utility.yul\":8875:9195   */\n      swap2\n      swap1\n      pop\n      jump\t// out\n        /* \"#utility.yul\":9201:9381   */\n    tag_180:\n        /* \"#utility.yul\":9249:9326   */\n      0x4e487b7100000000000000000000000000000000000000000000000000000000\n        /* \"#utility.yul\":9246:9247   */\n      0x00\n        /* \"#utility.yul\":9239:9327   */\n      mstore\n        /* \"#utility.yul\":9346:9350   */\n      0x11\n        /* \"#utility.yul\":9343:9344   */\n      0x04\n        /* \"#utility.yul\":9336:9351   */\n      mstore\n        /* \"#utility.yul\":9370:9374   */\n      0x24\n        /* \"#utility.yul\":9367:9368   */\n      0x00\n        /* \"#utility.yul\":9360:9375   */\n      revert\n        /* \"#utility.yul\":9387:9578   */\n    tag_123:\n        /* \"#utility.yul\":9427:9431   */\n      0x00\n        /* \"#utility.yul\":9447:9467   */\n      tag_294\n        /* \"#utility.yul\":9465:9466   */\n      dup3\n        /* \"#utility.yul\":9447:9467   */\n      tag_161\n      jump\t// in\n    tag_294:\n        /* \"#utility.yul\":9442:9467   */\n      swap2\n      pop\n        /* \"#utility.yul\":9481:9501   */\n      tag_295\n        /* \"#utility.yul\":9499:9500   */\n      dup4\n        /* \"#utility.yul\":9481:9501   */\n      tag_161\n      jump\t// in\n    tag_295:\n        /* \"#utility.yul\":9476:9501   */\n      swap3\n      pop\n        /* \"#utility.yul\":9520:9521   */\n      dup3\n        /* \"#utility.yul\":9517:9518   */\n      dup3\n        /* \"#utility.yul\":9514:9522   */\n      lt\n        /* \"#utility.yul\":9511:9545   */\n      iszero\n      tag_296\n      jumpi\n        /* \"#utility.yul\":9525:9543   */\n      tag_297\n      tag_180\n      jump\t// in\n    tag_297:\n        /* \"#utility.yul\":9511:9545   */\n    tag_296:\n        /* \"#utility.yul\":9570:9571   */\n      dup3\n        /* \"#utility.yul\":9567:9568   */\n      dup3\n        /* \"#utility.yul\":9563:9572   */\n      sub\n        /* \"#utility.yul\":9555:9572   */\n      swap1\n      pop\n        /* \"#utility.yul\":9387:9578   */\n      swap3\n      swap2\n      pop\n      pop\n      jump\t// out\n        /* \"#utility.yul\":9584:9755   */\n    tag_181:\n        /* \"#utility.yul\":9724:9747   */\n      0x64732d6d6174682d7375622d756e646572666c6f770000000000000000000000\n        /* \"#utility.yul\":9720:9721   */\n      0x00\n        /* \"#utility.yul\":9712:9718   */\n      dup3\n        /* \"#utility.yul\":9708:9722   */\n      add\n        /* \"#utility.yul\":9701:9748   */\n      mstore\n        /* \"#utility.yul\":9584:9755   */\n      pop\n      jump\t// out\n        /* \"#utility.yul\":9761:10127   */\n    tag_182:\n        /* \"#utility.yul\":9903:9906   */\n      0x00\n        /* \"#utility.yul\":9924:9991   */\n      tag_300\n        /* \"#utility.yul\":9988:9990   */\n      0x15\n        /* \"#utility.yul\":9983:9986   */\n      dup4\n        /* \"#utility.yul\":9924:9991   */\n      tag_150\n      jump\t// in\n    tag_300:\n        /* \"#utility.yul\":9917:9991   */\n      swap2\n      pop\n        /* \"#utility.yul\":10000:10093   */\n      tag_301\n        /* \"#utility.yul\":10089:10092   */\n      dup3\n        /* \"#utility.yul\":10000:10093   */\n      tag_181\n      jump\t// in\n    tag_301:\n        /* \"#utility.yul\":10118:10120   */\n      0x20\n        /* \"#utility.yul\":10113:10116   */\n      dup3\n        /* \"#utility.yul\":10109:10121   */\n      add\n        /* \"#utility.yul\":10102:10121   */\n      swap1\n      pop\n        /* \"#utility.yul\":9761:10127   */\n      swap2\n      swap1\n      pop\n      jump\t// out\n        /* \"#utility.yul\":10133:10552   */\n    tag_126:\n        /* \"#utility.yul\":10299:10303   */\n      0x00\n        /* \"#utility.yul\":10337:10339   */\n      0x20\n        /* \"#utility.yul\":10326:10335   */\n      dup3\n        /* \"#utility.yul\":10322:10340   */\n      add\n        /* \"#utility.yul\":10314:10340   */\n      swap1\n      pop\n        /* \"#utility.yul\":10386:10395   */\n      dup2\n        /* \"#utility.yul\":10380:10384   */\n      dup2\n        /* \"#utility.yul\":10376:10396   */\n      sub\n        /* \"#utility.yul\":10372:10373   */\n      0x00\n        /* \"#utility.yul\":10361:10370   */\n      dup4\n        /* \"#utility.yul\":10357:10374   */\n      add\n        /* \"#utility.yul\":10350:10397   */\n      mstore\n        /* \"#utility.yul\":10414:10545   */\n      tag_303\n        /* \"#utility.yul\":10540:10544   */\n      dup2\n        /* \"#utility.yul\":10414:10545   */\n      tag_182\n      jump\t// in\n    tag_303:\n        /* \"#utility.yul\":10406:10545   */\n      swap1\n      pop\n        /* \"#utility.yul\":10133:10552   */\n      swap2\n      swap1\n      pop\n      jump\t// out\n        /* \"#utility.yul\":10558:10863   */\n    tag_135:\n        /* \"#utility.yul\":10598:10601   */\n      0x00\n        /* \"#utility.yul\":10617:10637   */\n      tag_305\n        /* \"#utility.yul\":10635:10636   */\n      dup3\n        /* \"#utility.yul\":10617:10637   */\n      tag_161\n      jump\t// in\n    tag_305:\n        /* \"#utility.yul\":10612:10637   */\n      swap2\n      pop\n        /* \"#utility.yul\":10651:10671   */\n      tag_306\n        /* \"#utility.yul\":10669:10670   */\n      dup4\n        /* \"#utility.yul\":10651:10671   */\n      tag_161\n      jump\t// in\n    tag_306:\n        /* \"#utility.yul\":10646:10671   */\n      swap3\n      pop\n        /* \"#utility.yul\":10805:10806   */\n      dup3\n        /* \"#utility.yul\":10737:10803   */\n      0xffffffffffffffffffffffffffffffffffffffffffffffffffffffffffffffff\n        /* \"#utility.yul\":10733:10807   */\n      sub\n        /* \"#utility.yul\":10730:10731   */\n      dup3\n        /* \"#utility.yul\":10727:10808   */\n      gt\n        /* \"#utility.yul\":10724:10831   */\n      iszero\n      tag_307\n      jumpi\n        /* \"#utility.yul\":10811:10829   */\n      tag_308\n      tag_180\n      jump\t// in\n    tag_308:\n        /* \"#utility.yul\":10724:10831   */\n    tag_307:\n        /* \"#utility.yul\":10855:10856   */\n      dup3\n        /* \"#utility.yul\":10852:10853   */\n      dup3\n        /* \"#utility.yul\":10848:10857   */\n      add\n        /* \"#utility.yul\":10841:10857   */\n      swap1\n      pop\n        /* \"#utility.yul\":10558:10863   */\n      swap3\n      swap2\n      pop\n      pop\n      jump\t// out\n        /* \"#utility.yul\":10869:11039   */\n    tag_183:\n        /* \"#utility.yul\":11009:11031   */\n      0x64732d6d6174682d6164642d6f766572666c6f77000000000000000000000000\n        /* \"#utility.yul\":11005:11006   */\n      0x00\n        /* \"#utility.yul\":10997:11003   */\n      dup3\n        /* \"#utility.yul\":10993:11007   */\n      add\n        /* \"#utility.yul\":10986:11032   */\n      mstore\n        /* \"#utility.yul\":10869:11039   */\n      pop\n      jump\t// out\n        /* \"#utility.yul\":11045:11411   */\n    tag_184:\n        /* \"#utility.yul\":11187:11190   */\n      0x00\n        /* \"#utility.yul\":11208:11275   */\n      tag_311\n        /* \"#utility.yul\":11272:11274   */\n      0x14\n        /* \"#utility.yul\":11267:11270   */\n      dup4\n        /* \"#utility.yul\":11208:11275   */\n      tag_150\n      jump\t// in\n    tag_311:\n        /* \"#utility.yul\":11201:11275   */\n      swap2\n      pop\n        /* \"#utility.yul\":11284:11377   */\n      tag_312\n        /* \"#utility.yul\":11373:11376   */\n      dup3\n        /* \"#utility.yul\":11284:11377   */\n      tag_183\n      jump\t// in\n    tag_312:\n        /* \"#utility.yul\":11402:11404   */\n      0x20\n        /* \"#utility.yul\":11397:11400   */\n      dup3\n        /* \"#utility.yul\":11393:11405   */\n      add\n        /* \"#utility.yul\":11386:11405   */\n      swap1\n      pop\n        /* \"#utility.yul\":11045:11411   */\n      swap2\n      swap1\n      pop\n      jump\t// out\n        /* \"#utility.yul\":11417:11836   */\n    tag_138:\n        /* \"#utility.yul\":11583:11587   */\n      0x00\n        /* \"#utility.yul\":11621:11623   */\n      0x20\n        /* \"#utility.yul\":11610:11619   */\n      dup3\n        /* \"#utility.yul\":11606:11624   */\n      add\n        /* \"#utility.yul\":11598:11624   */\n      swap1\n      pop\n        /* \"#utility.yul\":11670:11679   */\n      dup2\n        /* \"#utility.yul\":11664:11668   */\n      dup2\n        /* \"#utility.yul\":11660:11680   */\n      sub\n        /* \"#utility.yul\":11656:11657   */\n      0x00\n        /* \"#utility.yul\":11645:11654   */\n      dup4\n        /* \"#utility.yul\":11641:11658   */\n      add\n        /* \"#utility.yul\":11634:11681   */\n      mstore\n        /* \"#utility.yul\":11698:11829   */\n      tag_314\n        /* \"#utility.yul\":11824:11828   */\n      dup2\n        /* \"#utility.yul\":11698:11829   */\n      tag_184\n      jump\t// in\n    tag_314:\n        /* \"#utility.yul\":11690:11829   */\n      swap1\n      pop\n        /* \"#utility.yul\":11417:11836   */\n      swap2\n      swap1\n      pop\n      jump\t// out\n\n    auxdata: 0xa26469706673582212206212915b08f857da8bb15d48780440ec5e6753b1ecd8d1c30fe6d4d2712c82c064736f6c634300080a0033\n}\n",
				"bytecode": {
					"linkReferences": {},
					"object": "60806040526040518060400160405280600a81526020017f4c696f6e20546f6b656e0000000000000000000000000000000000000000000081525060009080519060200190620000519291906200015f565b503480156200005f57600080fd5b506509184e72a000600260003373ffffffffffffffffffffffffffffffffffffffff1673ffffffffffffffffffffffffffffffffffffffff1681526020019081526020016000208190555033600160006101000a81548173ffffffffffffffffffffffffffffffffffffffff021916908373ffffffffffffffffffffffffffffffffffffffff1602179055503373ffffffffffffffffffffffffffffffffffffffff16600073ffffffffffffffffffffffffffffffffffffffff167fddf252ad1be2c89b69c2b068fc378daa952ba7f163c4a11628f55a4df523b3ef6509184e72a0006040516200015191906200022a565b60405180910390a3620002ac565b8280546200016d9062000276565b90600052602060002090601f016020900481019282620001915760008555620001dd565b82601f10620001ac57805160ff1916838001178555620001dd565b82800160010185558215620001dd579182015b82811115620001dc578251825591602001919060010190620001bf565b5b509050620001ec9190620001f0565b5090565b5b808211156200020b576000816000905550600101620001f1565b5090565b6000819050919050565b62000224816200020f565b82525050565b600060208201905062000241600083018462000219565b92915050565b7f4e487b7100000000000000000000000000000000000000000000000000000000600052602260045260246000fd5b600060028204905060018216806200028f57607f821691505b60208210811415620002a657620002a562000247565b5b50919050565b611d1380620002bc6000396000f3fe608060405234801561001057600080fd5b50600436106100ea5760003560e01c80633eaaf86b1161008c57806395d89b411161006657806395d89b4114610275578063a457c2d714610293578063a9059cbb146102c3578063dd62ed3e146102f3576100ea565b80633eaaf86b146101f75780635353a2d81461021557806370a0823114610245576100ea565b806323539224116100c8578063235392241461015b57806323b872dd14610179578063313ce567146101a957806339509351146101c7576100ea565b806306fdde03146100ef578063095ea7b31461010d57806318160ddd1461013d575b600080fd5b6100f7610323565b60405161010491906116e2565b60405180910390f35b610127600480360381019061012291906117ac565b6103b1565b6040516101349190611807565b60405180910390f35b6101456104dc565b6040516101529190611831565b60405180910390f35b6101636104ea565b604051610170919061185b565b60405180910390f35b610193600480360381019061018e9190611876565b610510565b6040516101a09190611807565b60405180910390f35b6101b1610746565b6040516101be91906118e5565b60405180910390f35b6101e160048036038101906101dc91906117ac565b61074b565b6040516101ee9190611807565b60405180910390f35b6101ff610980565b60405161020c9190611831565b60405180910390f35b61022f600480360381019061022a9190611a35565b61098a565b60405161023c9190611807565b60405180910390f35b61025f600480360381019061025a9190611a7e565b610a59565b60405161026c9190611831565b60405180910390f35b61027d610aa2565b60405161028a91906116e2565b60405180910390f35b6102ad60048036038101906102a891906117ac565b610adb565b6040516102ba9190611807565b60405180910390f35b6102dd60048036038101906102d891906117ac565b610d10565b6040516102ea9190611807565b60405180910390f35b61030d60048036038101906103089190611aab565b611105565b60405161031a9190611831565b60405180910390f35b6000805461033090611b1a565b80601f016020809104026020016040519081016040528092919081815260200182805461035c90611b1a565b80156103a95780601f1061037e576101008083540402835291602001916103a9565b820191906000526020600020905b81548152906001019060200180831161038c57829003601f168201915b505050505081565b60008073ffffffffffffffffffffffffffffffffffffffff168373ffffffffffffffffffffffffffffffffffffffff1614156103ec57600080fd5b81600360003373ffffffffffffffffffffffffffffffffffffffff1673ffffffffffffffffffffffffffffffffffffffff16815260200190815260200160002060008573ffffffffffffffffffffffffffffffffffffffff1673ffffffffffffffffffffffffffffffffffffffff168152602001908152602001600020819055508273ffffffffffffffffffffffffffffffffffffffff163373ffffffffffffffffffffffffffffffffffffffff167f8c5be1e5ebec7d5bd14f71427d1e84f3dd0314c0f7b2291e5b200ac8c7c3b925846040516104ca9190611831565b60405180910390a36001905092915050565b60006509184e72a000905090565b600160009054906101000a900473ffffffffffffffffffffffffffffffffffffffff1681565b6000600260008573ffffffffffffffffffffffffffffffffffffffff1673ffffffffffffffffffffffffffffffffffffffff1681526020019081526020016000205482111561055e57600080fd5b600360008573ffffffffffffffffffffffffffffffffffffffff1673ffffffffffffffffffffffffffffffffffffffff16815260200190815260200160002060003373ffffffffffffffffffffffffffffffffffffffff1673ffffffffffffffffffffffffffffffffffffffff168152602001908152602001600020548211156105e757600080fd5b600073ffffffffffffffffffffffffffffffffffffffff168373ffffffffffffffffffffffffffffffffffffffff16141561062157600080fd5b6106b082600360008773ffffffffffffffffffffffffffffffffffffffff1673ffffffffffffffffffffffffffffffffffffffff16815260200190815260200160002060003373ffffffffffffffffffffffffffffffffffffffff1673ffffffffffffffffffffffffffffffffffffffff1681526020019081526020016000205461118c90919063ffffffff16565b600360008673ffffffffffffffffffffffffffffffffffffffff1673ffffffffffffffffffffffffffffffffffffffff16815260200190815260200160002060003373ffffffffffffffffffffffffffffffffffffffff1673ffffffffffffffffffffffffffffffffffffffff1681526020019081526020016000208190555061073b8484846111e5565b600190509392505050565b600a81565b60008073ffffffffffffffffffffffffffffffffffffffff168373ffffffffffffffffffffffffffffffffffffffff16141561078657600080fd5b61081582600360003373ffffffffffffffffffffffffffffffffffffffff1673ffffffffffffffffffffffffffffffffffffffff16815260200190815260200160002060008673ffffffffffffffffffffffffffffffffffffffff1673ffffffffffffffffffffffffffffffffffffffff1681526020019081526020016000205461154d90919063ffffffff16565b600360003373ffffffffffffffffffffffffffffffffffffffff1673ffffffffffffffffffffffffffffffffffffffff16815260200190815260200160002060008573ffffffffffffffffffffffffffffffffffffffff1673ffffffffffffffffffffffffffffffffffffffff168152602001908152602001600020819055508273ffffffffffffffffffffffffffffffffffffffff163373ffffffffffffffffffffffffffffffffffffffff167f8c5be1e5ebec7d5bd14f71427d1e84f3dd0314c0f7b2291e5b200ac8c7c3b925600360003373ffffffffffffffffffffffffffffffffffffffff1673ffffffffffffffffffffffffffffffffffffffff16815260200190815260200160002060008773ffffffffffffffffffffffffffffffffffffffff1673ffffffffffffffffffffffffffffffffffffffff1681526020019081526020016000205460405161096e9190611831565b60405180910390a36001905092915050565b6509184e72a00081565b600060026000600160009054906101000a900473ffffffffffffffffffffffffffffffffffffffff1673ffffffffffffffffffffffffffffffffffffffff1673ffffffffffffffffffffffffffffffffffffffff16815260200190815260200160002054600260003373ffffffffffffffffffffffffffffffffffffffff1673ffffffffffffffffffffffffffffffffffffffff168152602001908152602001600020541015610a3957600080fd5b8160009080519060200190610a4f9291906115a6565b5060019050919050565b6000600260008373ffffffffffffffffffffffffffffffffffffffff1673ffffffffffffffffffffffffffffffffffffffff168152602001908152602001600020549050919050565b6040518060400160405280600481526020017f4c494f4e0000000000000000000000000000000000000000000000000000000081525081565b60008073ffffffffffffffffffffffffffffffffffffffff168373ffffffffffffffffffffffffffffffffffffffff161415610b1657600080fd5b610ba582600360003373ffffffffffffffffffffffffffffffffffffffff1673ffffffffffffffffffffffffffffffffffffffff16815260200190815260200160002060008673ffffffffffffffffffffffffffffffffffffffff1673ffffffffffffffffffffffffffffffffffffffff1681526020019081526020016000205461118c90919063ffffffff16565b600360003373ffffffffffffffffffffffffffffffffffffffff1673ffffffffffffffffffffffffffffffffffffffff16815260200190815260200160002060008573ffffffffffffffffffffffffffffffffffffffff1673ffffffffffffffffffffffffffffffffffffffff168152602001908152602001600020819055508273ffffffffffffffffffffffffffffffffffffffff163373ffffffffffffffffffffffffffffffffffffffff167f8c5be1e5ebec7d5bd14f71427d1e84f3dd0314c0f7b2291e5b200ac8c7c3b925600360003373ffffffffffffffffffffffffffffffffffffffff1673ffffffffffffffffffffffffffffffffffffffff16815260200190815260200160002060008773ffffffffffffffffffffffffffffffffffffffff1673ffffffffffffffffffffffffffffffffffffffff16815260200190815260200160002054604051610cfe9190611831565b60405180910390a36001905092915050565b6000600260003373ffffffffffffffffffffffffffffffffffffffff1673ffffffffffffffffffffffffffffffffffffffff16815260200190815260200160002054821115610d5e57600080fd5b600073ffffffffffffffffffffffffffffffffffffffff168373ffffffffffffffffffffffffffffffffffffffff161415610d9857600080fd5b610dea82600260003373ffffffffffffffffffffffffffffffffffffffff1673ffffffffffffffffffffffffffffffffffffffff1681526020019081526020016000205461118c90919063ffffffff16565b600260003373ffffffffffffffffffffffffffffffffffffffff1673ffffffffffffffffffffffffffffffffffffffff1681526020019081526020016000208190555060026000600160009054906101000a900473ffffffffffffffffffffffffffffffffffffffff1673ffffffffffffffffffffffffffffffffffffffff1673ffffffffffffffffffffffffffffffffffffffff16815260200190815260200160002054600260003373ffffffffffffffffffffffffffffffffffffffff1673ffffffffffffffffffffffffffffffffffffffff168152602001908152602001600020541115610f175733600160006101000a81548173ffffffffffffffffffffffffffffffffffffffff021916908373ffffffffffffffffffffffffffffffffffffffff1602179055505b610f6982600260008673ffffffffffffffffffffffffffffffffffffffff1673ffffffffffffffffffffffffffffffffffffffff1681526020019081526020016000205461154d90919063ffffffff16565b600260008573ffffffffffffffffffffffffffffffffffffffff1673ffffffffffffffffffffffffffffffffffffffff1681526020019081526020016000208190555060026000600160009054906101000a900473ffffffffffffffffffffffffffffffffffffffff1673ffffffffffffffffffffffffffffffffffffffff1673ffffffffffffffffffffffffffffffffffffffff16815260200190815260200160002054600260008573ffffffffffffffffffffffffffffffffffffffff1673ffffffffffffffffffffffffffffffffffffffff1681526020019081526020016000205411156110965782600160006101000a81548173ffffffffffffffffffffffffffffffffffffffff021916908373ffffffffffffffffffffffffffffffffffffffff1602179055505b8273ffffffffffffffffffffffffffffffffffffffff163373ffffffffffffffffffffffffffffffffffffffff167fddf252ad1be2c89b69c2b068fc378daa952ba7f163c4a11628f55a4df523b3ef846040516110f39190611831565b60405180910390a36001905092915050565b6000600360008473ffffffffffffffffffffffffffffffffffffffff1673ffffffffffffffffffffffffffffffffffffffff16815260200190815260200160002060008373ffffffffffffffffffffffffffffffffffffffff1673ffffffffffffffffffffffffffffffffffffffff16815260200190815260200160002054905092915050565b600082828461119b9190611b7b565b91508111156111df576040517f08c379a00000000000000000000000000000000000000000000000000000000081526004016111d690611bfb565b60405180910390fd5b92915050565b61123781600260008673ffffffffffffffffffffffffffffffffffffffff1673ffffffffffffffffffffffffffffffffffffffff1681526020019081526020016000205461118c90919063ffffffff16565b600260008573ffffffffffffffffffffffffffffffffffffffff1673ffffffffffffffffffffffffffffffffffffffff1681526020019081526020016000208190555060026000600160009054906101000a900473ffffffffffffffffffffffffffffffffffffffff1673ffffffffffffffffffffffffffffffffffffffff1673ffffffffffffffffffffffffffffffffffffffff16815260200190815260200160002054600260008573ffffffffffffffffffffffffffffffffffffffff1673ffffffffffffffffffffffffffffffffffffffff1681526020019081526020016000205411156113645782600160006101000a81548173ffffffffffffffffffffffffffffffffffffffff021916908373ffffffffffffffffffffffffffffffffffffffff1602179055505b6113b681600260008573ffffffffffffffffffffffffffffffffffffffff1673ffffffffffffffffffffffffffffffffffffffff1681526020019081526020016000205461154d90919063ffffffff16565b600260008473ffffffffffffffffffffffffffffffffffffffff1673ffffffffffffffffffffffffffffffffffffffff1681526020019081526020016000208190555060026000600160009054906101000a900473ffffffffffffffffffffffffffffffffffffffff1673ffffffffffffffffffffffffffffffffffffffff1673ffffffffffffffffffffffffffffffffffffffff16815260200190815260200160002054600260008473ffffffffffffffffffffffffffffffffffffffff1673ffffffffffffffffffffffffffffffffffffffff1681526020019081526020016000205411156114e35781600160006101000a81548173ffffffffffffffffffffffffffffffffffffffff021916908373ffffffffffffffffffffffffffffffffffffffff1602179055505b8173ffffffffffffffffffffffffffffffffffffffff168373ffffffffffffffffffffffffffffffffffffffff167fddf252ad1be2c89b69c2b068fc378daa952ba7f163c4a11628f55a4df523b3ef836040516115409190611831565b60405180910390a3505050565b600082828461155c9190611c1b565b91508110156115a0576040517f08c379a000000000000000000000000000000000000000000000000000000000815260040161159790611cbd565b60405180910390fd5b92915050565b8280546115b290611b1a565b90600052602060002090601f0160209004810192826115d4576000855561161b565b82601f106115ed57805160ff191683800117855561161b565b8280016001018555821561161b579182015b8281111561161a5782518255916020019190600101906115ff565b5b509050611628919061162c565b5090565b5b8082111561164557600081600090555060010161162d565b5090565b600081519050919050565b600082825260208201905092915050565b60005b83811015611683578082015181840152602081019050611668565b83811115611692576000848401525b50505050565b6000601f19601f8301169050919050565b60006116b482611649565b6116be8185611654565b93506116ce818560208601611665565b6116d781611698565b840191505092915050565b600060208201905081810360008301526116fc81846116a9565b905092915050565b6000604051905090565b600080fd5b600080fd5b600073ffffffffffffffffffffffffffffffffffffffff82169050919050565b600061174382611718565b9050919050565b61175381611738565b811461175e57600080fd5b50565b6000813590506117708161174a565b92915050565b6000819050919050565b61178981611776565b811461179457600080fd5b50565b6000813590506117a681611780565b92915050565b600080604083850312156117c3576117c261170e565b5b60006117d185828601611761565b92505060206117e285828601611797565b9150509250929050565b60008115159050919050565b611801816117ec565b82525050565b600060208201905061181c60008301846117f8565b92915050565b61182b81611776565b82525050565b60006020820190506118466000830184611822565b92915050565b61185581611738565b82525050565b6000602082019050611870600083018461184c565b92915050565b60008060006060848603121561188f5761188e61170e565b5b600061189d86828701611761565b93505060206118ae86828701611761565b92505060406118bf86828701611797565b9150509250925092565b600060ff82169050919050565b6118df816118c9565b82525050565b60006020820190506118fa60008301846118d6565b92915050565b600080fd5b600080fd5b7f4e487b7100000000000000000000000000000000000000000000000000000000600052604160045260246000fd5b61194282611698565b810181811067ffffffffffffffff821117156119615761196061190a565b5b80604052505050565b6000611974611704565b90506119808282611939565b919050565b600067ffffffffffffffff8211156119a05761199f61190a565b5b6119a982611698565b9050602081019050919050565b82818337600083830152505050565b60006119d86119d384611985565b61196a565b9050828152602081018484840111156119f4576119f3611905565b5b6119ff8482856119b6565b509392505050565b600082601f830112611a1c57611a1b611900565b5b8135611a2c8482602086016119c5565b91505092915050565b600060208284031215611a4b57611a4a61170e565b5b600082013567ffffffffffffffff811115611a6957611a68611713565b5b611a7584828501611a07565b91505092915050565b600060208284031215611a9457611a9361170e565b5b6000611aa284828501611761565b91505092915050565b60008060408385031215611ac257611ac161170e565b5b6000611ad085828601611761565b9250506020611ae185828601611761565b9150509250929050565b7f4e487b7100000000000000000000000000000000000000000000000000000000600052602260045260246000fd5b60006002820490506001821680611b3257607f821691505b60208210811415611b4657611b45611aeb565b5b50919050565b7f4e487b7100000000000000000000000000000000000000000000000000000000600052601160045260246000fd5b6000611b8682611776565b9150611b9183611776565b925082821015611ba457611ba3611b4c565b5b828203905092915050565b7f64732d6d6174682d7375622d756e646572666c6f770000000000000000000000600082015250565b6000611be5601583611654565b9150611bf082611baf565b602082019050919050565b60006020820190508181036000830152611c1481611bd8565b9050919050565b6000611c2682611776565b9150611c3183611776565b9250827fffffffffffffffffffffffffffffffffffffffffffffffffffffffffffffffff03821115611c6657611c65611b4c565b5b828201905092915050565b7f64732d6d6174682d6164642d6f766572666c6f77000000000000000000000000600082015250565b6000611ca7601483611654565b9150611cb282611c71565b602082019050919050565b60006020820190508181036000830152611cd681611c9a565b905091905056fea26469706673582212206212915b08f857da8bb15d48780440ec5e6753b1ecd8d1c30fe6d4d2712c82c064736f6c634300080a0033",
					"opcodes": "PUSH1 0x80 PUSH1 0x40 MSTORE PUSH1 0x40 MLOAD DUP1 PUSH1 0x40 ADD PUSH1 0x40 MSTORE DUP1 PUSH1 0xA DUP2 MSTORE PUSH1 0x20 ADD PUSH32 0x4C696F6E20546F6B656E00000000000000000000000000000000000000000000 DUP2 MSTORE POP PUSH1 0x0 SWAP1 DUP1 MLOAD SWAP1 PUSH1 0x20 ADD SWAP1 PUSH3 0x51 SWAP3 SWAP2 SWAP1 PUSH3 0x15F JUMP JUMPDEST POP CALLVALUE DUP1 ISZERO PUSH3 0x5F JUMPI PUSH1 0x0 DUP1 REVERT JUMPDEST POP PUSH6 0x9184E72A000 PUSH1 0x2 PUSH1 0x0 CALLER PUSH20 0xFFFFFFFFFFFFFFFFFFFFFFFFFFFFFFFFFFFFFFFF AND PUSH20 0xFFFFFFFFFFFFFFFFFFFFFFFFFFFFFFFFFFFFFFFF AND DUP2 MSTORE PUSH1 0x20 ADD SWAP1 DUP2 MSTORE PUSH1 0x20 ADD PUSH1 0x0 KECCAK256 DUP2 SWAP1 SSTORE POP CALLER PUSH1 0x1 PUSH1 0x0 PUSH2 0x100 EXP DUP2 SLOAD DUP2 PUSH20 0xFFFFFFFFFFFFFFFFFFFFFFFFFFFFFFFFFFFFFFFF MUL NOT AND SWAP1 DUP4 PUSH20 0xFFFFFFFFFFFFFFFFFFFFFFFFFFFFFFFFFFFFFFFF AND MUL OR SWAP1 SSTORE POP CALLER PUSH20 0xFFFFFFFFFFFFFFFFFFFFFFFFFFFFFFFFFFFFFFFF AND PUSH1 0x0 PUSH20 0xFFFFFFFFFFFFFFFFFFFFFFFFFFFFFFFFFFFFFFFF AND PUSH32 0xDDF252AD1BE2C89B69C2B068FC378DAA952BA7F163C4A11628F55A4DF523B3EF PUSH6 0x9184E72A000 PUSH1 0x40 MLOAD PUSH3 0x151 SWAP2 SWAP1 PUSH3 0x22A JUMP JUMPDEST PUSH1 0x40 MLOAD DUP1 SWAP2 SUB SWAP1 LOG3 PUSH3 0x2AC JUMP JUMPDEST DUP3 DUP1 SLOAD PUSH3 0x16D SWAP1 PUSH3 0x276 JUMP JUMPDEST SWAP1 PUSH1 0x0 MSTORE PUSH1 0x20 PUSH1 0x0 KECCAK256 SWAP1 PUSH1 0x1F ADD PUSH1 0x20 SWAP1 DIV DUP2 ADD SWAP3 DUP3 PUSH3 0x191 JUMPI PUSH1 0x0 DUP6 SSTORE PUSH3 0x1DD JUMP JUMPDEST DUP3 PUSH1 0x1F LT PUSH3 0x1AC JUMPI DUP1 MLOAD PUSH1 0xFF NOT AND DUP4 DUP1 ADD OR DUP6 SSTORE PUSH3 0x1DD JUMP JUMPDEST DUP3 DUP1 ADD PUSH1 0x1 ADD DUP6 SSTORE DUP3 ISZERO PUSH3 0x1DD JUMPI SWAP2 DUP3 ADD JUMPDEST DUP3 DUP2 GT ISZERO PUSH3 0x1DC JUMPI DUP3 MLOAD DUP3 SSTORE SWAP2 PUSH1 0x20 ADD SWAP2 SWAP1 PUSH1 0x1 ADD SWAP1 PUSH3 0x1BF JUMP JUMPDEST JUMPDEST POP SWAP1 POP PUSH3 0x1EC SWAP2 SWAP1 PUSH3 0x1F0 JUMP JUMPDEST POP SWAP1 JUMP JUMPDEST JUMPDEST DUP1 DUP3 GT ISZERO PUSH3 0x20B JUMPI PUSH1 0x0 DUP2 PUSH1 0x0 SWAP1 SSTORE POP PUSH1 0x1 ADD PUSH3 0x1F1 JUMP JUMPDEST POP SWAP1 JUMP JUMPDEST PUSH1 0x0 DUP2 SWAP1 POP SWAP2 SWAP1 POP JUMP JUMPDEST PUSH3 0x224 DUP2 PUSH3 0x20F JUMP JUMPDEST DUP3 MSTORE POP POP JUMP JUMPDEST PUSH1 0x0 PUSH1 0x20 DUP3 ADD SWAP1 POP PUSH3 0x241 PUSH1 0x0 DUP4 ADD DUP5 PUSH3 0x219 JUMP JUMPDEST SWAP3 SWAP2 POP POP JUMP JUMPDEST PUSH32 0x4E487B7100000000000000000000000000000000000000000000000000000000 PUSH1 0x0 MSTORE PUSH1 0x22 PUSH1 0x4 MSTORE PUSH1 0x24 PUSH1 0x0 REVERT JUMPDEST PUSH1 0x0 PUSH1 0x2 DUP3 DIV SWAP1 POP PUSH1 0x1 DUP3 AND DUP1 PUSH3 0x28F JUMPI PUSH1 0x7F DUP3 AND SWAP2 POP JUMPDEST PUSH1 0x20 DUP3 LT DUP2 EQ ISZERO PUSH3 0x2A6 JUMPI PUSH3 0x2A5 PUSH3 0x247 JUMP JUMPDEST JUMPDEST POP SWAP2 SWAP1 POP JUMP JUMPDEST PUSH2 0x1D13 DUP1 PUSH3 0x2BC PUSH1 0x0 CODECOPY PUSH1 0x0 RETURN INVALID PUSH1 0x80 PUSH1 0x40 MSTORE CALLVALUE DUP1 ISZERO PUSH2 0x10 JUMPI PUSH1 0x0 DUP1 REVERT JUMPDEST POP PUSH1 0x4 CALLDATASIZE LT PUSH2 0xEA JUMPI PUSH1 0x0 CALLDATALOAD PUSH1 0xE0 SHR DUP1 PUSH4 0x3EAAF86B GT PUSH2 0x8C JUMPI DUP1 PUSH4 0x95D89B41 GT PUSH2 0x66 JUMPI DUP1 PUSH4 0x95D89B41 EQ PUSH2 0x275 JUMPI DUP1 PUSH4 0xA457C2D7 EQ PUSH2 0x293 JUMPI DUP1 PUSH4 0xA9059CBB EQ PUSH2 0x2C3 JUMPI DUP1 PUSH4 0xDD62ED3E EQ PUSH2 0x2F3 JUMPI PUSH2 0xEA JUMP JUMPDEST DUP1 PUSH4 0x3EAAF86B EQ PUSH2 0x1F7 JUMPI DUP1 PUSH4 0x5353A2D8 EQ PUSH2 0x215 JUMPI DUP1 PUSH4 0x70A08231 EQ PUSH2 0x245 JUMPI PUSH2 0xEA JUMP JUMPDEST DUP1 PUSH4 0x23539224 GT PUSH2 0xC8 JUMPI DUP1 PUSH4 0x23539224 EQ PUSH2 0x15B JUMPI DUP1 PUSH4 0x23B872DD EQ PUSH2 0x179 JUMPI DUP1 PUSH4 0x313CE567 EQ PUSH2 0x1A9 JUMPI DUP1 PUSH4 0x39509351 EQ PUSH2 0x1C7 JUMPI PUSH2 0xEA JUMP JUMPDEST DUP1 PUSH4 0x6FDDE03 EQ PUSH2 0xEF JUMPI DUP1 PUSH4 0x95EA7B3 EQ PUSH2 0x10D JUMPI DUP1 PUSH4 0x18160DDD EQ PUSH2 0x13D JUMPI JUMPDEST PUSH1 0x0 DUP1 REVERT JUMPDEST PUSH2 0xF7 PUSH2 0x323 JUMP JUMPDEST PUSH1 0x40 MLOAD PUSH2 0x104 SWAP2 SWAP1 PUSH2 0x16E2 JUMP JUMPDEST PUSH1 0x40 MLOAD DUP1 SWAP2 SUB SWAP1 RETURN JUMPDEST PUSH2 0x127 PUSH1 0x4 DUP1 CALLDATASIZE SUB DUP2 ADD SWAP1 PUSH2 0x122 SWAP2 SWAP1 PUSH2 0x17AC JUMP JUMPDEST PUSH2 0x3B1 JUMP JUMPDEST PUSH1 0x40 MLOAD PUSH2 0x134 SWAP2 SWAP1 PUSH2 0x1807 JUMP JUMPDEST PUSH1 0x40 MLOAD DUP1 SWAP2 SUB SWAP1 RETURN JUMPDEST PUSH2 0x145 PUSH2 0x4DC JUMP JUMPDEST PUSH1 0x40 MLOAD PUSH2 0x152 SWAP2 SWAP1 PUSH2 0x1831 JUMP JUMPDEST PUSH1 0x40 MLOAD DUP1 SWAP2 SUB SWAP1 RETURN JUMPDEST PUSH2 0x163 PUSH2 0x4EA JUMP JUMPDEST PUSH1 0x40 MLOAD PUSH2 0x170 SWAP2 SWAP1 PUSH2 0x185B JUMP JUMPDEST PUSH1 0x40 MLOAD DUP1 SWAP2 SUB SWAP1 RETURN JUMPDEST PUSH2 0x193 PUSH1 0x4 DUP1 CALLDATASIZE SUB DUP2 ADD SWAP1 PUSH2 0x18E SWAP2 SWAP1 PUSH2 0x1876 JUMP JUMPDEST PUSH2 0x510 JUMP JUMPDEST PUSH1 0x40 MLOAD PUSH2 0x1A0 SWAP2 SWAP1 PUSH2 0x1807 JUMP JUMPDEST PUSH1 0x40 MLOAD DUP1 SWAP2 SUB SWAP1 RETURN JUMPDEST PUSH2 0x1B1 PUSH2 0x746 JUMP JUMPDEST PUSH1 0x40 MLOAD PUSH2 0x1BE SWAP2 SWAP1 PUSH2 0x18E5 JUMP JUMPDEST PUSH1 0x40 MLOAD DUP1 SWAP2 SUB SWAP1 RETURN JUMPDEST PUSH2 0x1E1 PUSH1 0x4 DUP1 CALLDATASIZE SUB DUP2 ADD SWAP1 PUSH2 0x1DC SWAP2 SWAP1 PUSH2 0x17AC JUMP JUMPDEST PUSH2 0x74B JUMP JUMPDEST PUSH1 0x40 MLOAD PUSH2 0x1EE SWAP2 SWAP1 PUSH2 0x1807 JUMP JUMPDEST PUSH1 0x40 MLOAD DUP1 SWAP2 SUB SWAP1 RETURN JUMPDEST PUSH2 0x1FF PUSH2 0x980 JUMP JUMPDEST PUSH1 0x40 MLOAD PUSH2 0x20C SWAP2 SWAP1 PUSH2 0x1831 JUMP JUMPDEST PUSH1 0x40 MLOAD DUP1 SWAP2 SUB SWAP1 RETURN JUMPDEST PUSH2 0x22F PUSH1 0x4 DUP1 CALLDATASIZE SUB DUP2 ADD SWAP1 PUSH2 0x22A SWAP2 SWAP1 PUSH2 0x1A35 JUMP JUMPDEST PUSH2 0x98A JUMP JUMPDEST PUSH1 0x40 MLOAD PUSH2 0x23C SWAP2 SWAP1 PUSH2 0x1807 JUMP JUMPDEST PUSH1 0x40 MLOAD DUP1 SWAP2 SUB SWAP1 RETURN JUMPDEST PUSH2 0x25F PUSH1 0x4 DUP1 CALLDATASIZE SUB DUP2 ADD SWAP1 PUSH2 0x25A SWAP2 SWAP1 PUSH2 0x1A7E JUMP JUMPDEST PUSH2 0xA59 JUMP JUMPDEST PUSH1 0x40 MLOAD PUSH2 0x26C SWAP2 SWAP1 PUSH2 0x1831 JUMP JUMPDEST PUSH1 0x40 MLOAD DUP1 SWAP2 SUB SWAP1 RETURN JUMPDEST PUSH2 0x27D PUSH2 0xAA2 JUMP JUMPDEST PUSH1 0x40 MLOAD PUSH2 0x28A SWAP2 SWAP1 PUSH2 0x16E2 JUMP JUMPDEST PUSH1 0x40 MLOAD DUP1 SWAP2 SUB SWAP1 RETURN JUMPDEST PUSH2 0x2AD PUSH1 0x4 DUP1 CALLDATASIZE SUB DUP2 ADD SWAP1 PUSH2 0x2A8 SWAP2 SWAP1 PUSH2 0x17AC JUMP JUMPDEST PUSH2 0xADB JUMP JUMPDEST PUSH1 0x40 MLOAD PUSH2 0x2BA SWAP2 SWAP1 PUSH2 0x1807 JUMP JUMPDEST PUSH1 0x40 MLOAD DUP1 SWAP2 SUB SWAP1 RETURN JUMPDEST PUSH2 0x2DD PUSH1 0x4 DUP1 CALLDATASIZE SUB DUP2 ADD SWAP1 PUSH2 0x2D8 SWAP2 SWAP1 PUSH2 0x17AC JUMP JUMPDEST PUSH2 0xD10 JUMP JUMPDEST PUSH1 0x40 MLOAD PUSH2 0x2EA SWAP2 SWAP1 PUSH2 0x1807 JUMP JUMPDEST PUSH1 0x40 MLOAD DUP1 SWAP2 SUB SWAP1 RETURN JUMPDEST PUSH2 0x30D PUSH1 0x4 DUP1 CALLDATASIZE SUB DUP2 ADD SWAP1 PUSH2 0x308 SWAP2 SWAP1 PUSH2 0x1AAB JUMP JUMPDEST PUSH2 0x1105 JUMP JUMPDEST PUSH1 0x40 MLOAD PUSH2 0x31A SWAP2 SWAP1 PUSH2 0x1831 JUMP JUMPDEST PUSH1 0x40 MLOAD DUP1 SWAP2 SUB SWAP1 RETURN JUMPDEST PUSH1 0x0 DUP1 SLOAD PUSH2 0x330 SWAP1 PUSH2 0x1B1A JUMP JUMPDEST DUP1 PUSH1 0x1F ADD PUSH1 0x20 DUP1 SWAP2 DIV MUL PUSH1 0x20 ADD PUSH1 0x40 MLOAD SWAP1 DUP2 ADD PUSH1 0x40 MSTORE DUP1 SWAP3 SWAP2 SWAP1 DUP2 DUP2 MSTORE PUSH1 0x20 ADD DUP3 DUP1 SLOAD PUSH2 0x35C SWAP1 PUSH2 0x1B1A JUMP JUMPDEST DUP1 ISZERO PUSH2 0x3A9 JUMPI DUP1 PUSH1 0x1F LT PUSH2 0x37E JUMPI PUSH2 0x100 DUP1 DUP4 SLOAD DIV MUL DUP4 MSTORE SWAP2 PUSH1 0x20 ADD SWAP2 PUSH2 0x3A9 JUMP JUMPDEST DUP3 ADD SWAP2 SWAP1 PUSH1 0x0 MSTORE PUSH1 0x20 PUSH1 0x0 KECCAK256 SWAP1 JUMPDEST DUP2 SLOAD DUP2 MSTORE SWAP1 PUSH1 0x1 ADD SWAP1 PUSH1 0x20 ADD DUP1 DUP4 GT PUSH2 0x38C JUMPI DUP3 SWAP1 SUB PUSH1 0x1F AND DUP3 ADD SWAP2 JUMPDEST POP POP POP POP POP DUP2 JUMP JUMPDEST PUSH1 0x0 DUP1 PUSH20 0xFFFFFFFFFFFFFFFFFFFFFFFFFFFFFFFFFFFFFFFF AND DUP4 PUSH20 0xFFFFFFFFFFFFFFFFFFFFFFFFFFFFFFFFFFFFFFFF AND EQ ISZERO PUSH2 0x3EC JUMPI PUSH1 0x0 DUP1 REVERT JUMPDEST DUP2 PUSH1 0x3 PUSH1 0x0 CALLER PUSH20 0xFFFFFFFFFFFFFFFFFFFFFFFFFFFFFFFFFFFFFFFF AND PUSH20 0xFFFFFFFFFFFFFFFFFFFFFFFFFFFFFFFFFFFFFFFF AND DUP2 MSTORE PUSH1 0x20 ADD SWAP1 DUP2 MSTORE PUSH1 0x20 ADD PUSH1 0x0 KECCAK256 PUSH1 0x0 DUP6 PUSH20 0xFFFFFFFFFFFFFFFFFFFFFFFFFFFFFFFFFFFFFFFF AND PUSH20 0xFFFFFFFFFFFFFFFFFFFFFFFFFFFFFFFFFFFFFFFF AND DUP2 MSTORE PUSH1 0x20 ADD SWAP1 DUP2 MSTORE PUSH1 0x20 ADD PUSH1 0x0 KECCAK256 DUP2 SWAP1 SSTORE POP DUP3 PUSH20 0xFFFFFFFFFFFFFFFFFFFFFFFFFFFFFFFFFFFFFFFF AND CALLER PUSH20 0xFFFFFFFFFFFFFFFFFFFFFFFFFFFFFFFFFFFFFFFF AND PUSH32 0x8C5BE1E5EBEC7D5BD14F71427D1E84F3DD0314C0F7B2291E5B200AC8C7C3B925 DUP5 PUSH1 0x40 MLOAD PUSH2 0x4CA SWAP2 SWAP1 PUSH2 0x1831 JUMP JUMPDEST PUSH1 0x40 MLOAD DUP1 SWAP2 SUB SWAP1 LOG3 PUSH1 0x1 SWAP1 POP SWAP3 SWAP2 POP POP JUMP JUMPDEST PUSH1 0x0 PUSH6 0x9184E72A000 SWAP1 POP SWAP1 JUMP JUMPDEST PUSH1 0x1 PUSH1 0x0 SWAP1 SLOAD SWAP1 PUSH2 0x100 EXP SWAP1 DIV PUSH20 0xFFFFFFFFFFFFFFFFFFFFFFFFFFFFFFFFFFFFFFFF AND DUP2 JUMP JUMPDEST PUSH1 0x0 PUSH1 0x2 PUSH1 0x0 DUP6 PUSH20 0xFFFFFFFFFFFFFFFFFFFFFFFFFFFFFFFFFFFFFFFF AND PUSH20 0xFFFFFFFFFFFFFFFFFFFFFFFFFFFFFFFFFFFFFFFF AND DUP2 MSTORE PUSH1 0x20 ADD SWAP1 DUP2 MSTORE PUSH1 0x20 ADD PUSH1 0x0 KECCAK256 SLOAD DUP3 GT ISZERO PUSH2 0x55E JUMPI PUSH1 0x0 DUP1 REVERT JUMPDEST PUSH1 0x3 PUSH1 0x0 DUP6 PUSH20 0xFFFFFFFFFFFFFFFFFFFFFFFFFFFFFFFFFFFFFFFF AND PUSH20 0xFFFFFFFFFFFFFFFFFFFFFFFFFFFFFFFFFFFFFFFF AND DUP2 MSTORE PUSH1 0x20 ADD SWAP1 DUP2 MSTORE PUSH1 0x20 ADD PUSH1 0x0 KECCAK256 PUSH1 0x0 CALLER PUSH20 0xFFFFFFFFFFFFFFFFFFFFFFFFFFFFFFFFFFFFFFFF AND PUSH20 0xFFFFFFFFFFFFFFFFFFFFFFFFFFFFFFFFFFFFFFFF AND DUP2 MSTORE PUSH1 0x20 ADD SWAP1 DUP2 MSTORE PUSH1 0x20 ADD PUSH1 0x0 KECCAK256 SLOAD DUP3 GT ISZERO PUSH2 0x5E7 JUMPI PUSH1 0x0 DUP1 REVERT JUMPDEST PUSH1 0x0 PUSH20 0xFFFFFFFFFFFFFFFFFFFFFFFFFFFFFFFFFFFFFFFF AND DUP4 PUSH20 0xFFFFFFFFFFFFFFFFFFFFFFFFFFFFFFFFFFFFFFFF AND EQ ISZERO PUSH2 0x621 JUMPI PUSH1 0x0 DUP1 REVERT JUMPDEST PUSH2 0x6B0 DUP3 PUSH1 0x3 PUSH1 0x0 DUP8 PUSH20 0xFFFFFFFFFFFFFFFFFFFFFFFFFFFFFFFFFFFFFFFF AND PUSH20 0xFFFFFFFFFFFFFFFFFFFFFFFFFFFFFFFFFFFFFFFF AND DUP2 MSTORE PUSH1 0x20 ADD SWAP1 DUP2 MSTORE PUSH1 0x20 ADD PUSH1 0x0 KECCAK256 PUSH1 0x0 CALLER PUSH20 0xFFFFFFFFFFFFFFFFFFFFFFFFFFFFFFFFFFFFFFFF AND PUSH20 0xFFFFFFFFFFFFFFFFFFFFFFFFFFFFFFFFFFFFFFFF AND DUP2 MSTORE PUSH1 0x20 ADD SWAP1 DUP2 MSTORE PUSH1 0x20 ADD PUSH1 0x0 KECCAK256 SLOAD PUSH2 0x118C SWAP1 SWAP2 SWAP1 PUSH4 0xFFFFFFFF AND JUMP JUMPDEST PUSH1 0x3 PUSH1 0x0 DUP7 PUSH20 0xFFFFFFFFFFFFFFFFFFFFFFFFFFFFFFFFFFFFFFFF AND PUSH20 0xFFFFFFFFFFFFFFFFFFFFFFFFFFFFFFFFFFFFFFFF AND DUP2 MSTORE PUSH1 0x20 ADD SWAP1 DUP2 MSTORE PUSH1 0x20 ADD PUSH1 0x0 KECCAK256 PUSH1 0x0 CALLER PUSH20 0xFFFFFFFFFFFFFFFFFFFFFFFFFFFFFFFFFFFFFFFF AND PUSH20 0xFFFFFFFFFFFFFFFFFFFFFFFFFFFFFFFFFFFFFFFF AND DUP2 MSTORE PUSH1 0x20 ADD SWAP1 DUP2 MSTORE PUSH1 0x20 ADD PUSH1 0x0 KECCAK256 DUP2 SWAP1 SSTORE POP PUSH2 0x73B DUP5 DUP5 DUP5 PUSH2 0x11E5 JUMP JUMPDEST PUSH1 0x1 SWAP1 POP SWAP4 SWAP3 POP POP POP JUMP JUMPDEST PUSH1 0xA DUP2 JUMP JUMPDEST PUSH1 0x0 DUP1 PUSH20 0xFFFFFFFFFFFFFFFFFFFFFFFFFFFFFFFFFFFFFFFF AND DUP4 PUSH20 0xFFFFFFFFFFFFFFFFFFFFFFFFFFFFFFFFFFFFFFFF AND EQ ISZERO PUSH2 0x786 JUMPI PUSH1 0x0 DUP1 REVERT JUMPDEST PUSH2 0x815 DUP3 PUSH1 0x3 PUSH1 0x0 CALLER PUSH20 0xFFFFFFFFFFFFFFFFFFFFFFFFFFFFFFFFFFFFFFFF AND PUSH20 0xFFFFFFFFFFFFFFFFFFFFFFFFFFFFFFFFFFFFFFFF AND DUP2 MSTORE PUSH1 0x20 ADD SWAP1 DUP2 MSTORE PUSH1 0x20 ADD PUSH1 0x0 KECCAK256 PUSH1 0x0 DUP7 PUSH20 0xFFFFFFFFFFFFFFFFFFFFFFFFFFFFFFFFFFFFFFFF AND PUSH20 0xFFFFFFFFFFFFFFFFFFFFFFFFFFFFFFFFFFFFFFFF AND DUP2 MSTORE PUSH1 0x20 ADD SWAP1 DUP2 MSTORE PUSH1 0x20 ADD PUSH1 0x0 KECCAK256 SLOAD PUSH2 0x154D SWAP1 SWAP2 SWAP1 PUSH4 0xFFFFFFFF AND JUMP JUMPDEST PUSH1 0x3 PUSH1 0x0 CALLER PUSH20 0xFFFFFFFFFFFFFFFFFFFFFFFFFFFFFFFFFFFFFFFF AND PUSH20 0xFFFFFFFFFFFFFFFFFFFFFFFFFFFFFFFFFFFFFFFF AND DUP2 MSTORE PUSH1 0x20 ADD SWAP1 DUP2 MSTORE PUSH1 0x20 ADD PUSH1 0x0 KECCAK256 PUSH1 0x0 DUP6 PUSH20 0xFFFFFFFFFFFFFFFFFFFFFFFFFFFFFFFFFFFFFFFF AND PUSH20 0xFFFFFFFFFFFFFFFFFFFFFFFFFFFFFFFFFFFFFFFF AND DUP2 MSTORE PUSH1 0x20 ADD SWAP1 DUP2 MSTORE PUSH1 0x20 ADD PUSH1 0x0 KECCAK256 DUP2 SWAP1 SSTORE POP DUP3 PUSH20 0xFFFFFFFFFFFFFFFFFFFFFFFFFFFFFFFFFFFFFFFF AND CALLER PUSH20 0xFFFFFFFFFFFFFFFFFFFFFFFFFFFFFFFFFFFFFFFF AND PUSH32 0x8C5BE1E5EBEC7D5BD14F71427D1E84F3DD0314C0F7B2291E5B200AC8C7C3B925 PUSH1 0x3 PUSH1 0x0 CALLER PUSH20 0xFFFFFFFFFFFFFFFFFFFFFFFFFFFFFFFFFFFFFFFF AND PUSH20 0xFFFFFFFFFFFFFFFFFFFFFFFFFFFFFFFFFFFFFFFF AND DUP2 MSTORE PUSH1 0x20 ADD SWAP1 DUP2 MSTORE PUSH1 0x20 ADD PUSH1 0x0 KECCAK256 PUSH1 0x0 DUP8 PUSH20 0xFFFFFFFFFFFFFFFFFFFFFFFFFFFFFFFFFFFFFFFF AND PUSH20 0xFFFFFFFFFFFFFFFFFFFFFFFFFFFFFFFFFFFFFFFF AND DUP2 MSTORE PUSH1 0x20 ADD SWAP1 DUP2 MSTORE PUSH1 0x20 ADD PUSH1 0x0 KECCAK256 SLOAD PUSH1 0x40 MLOAD PUSH2 0x96E SWAP2 SWAP1 PUSH2 0x1831 JUMP JUMPDEST PUSH1 0x40 MLOAD DUP1 SWAP2 SUB SWAP1 LOG3 PUSH1 0x1 SWAP1 POP SWAP3 SWAP2 POP POP JUMP JUMPDEST PUSH6 0x9184E72A000 DUP2 JUMP JUMPDEST PUSH1 0x0 PUSH1 0x2 PUSH1 0x0 PUSH1 0x1 PUSH1 0x0 SWAP1 SLOAD SWAP1 PUSH2 0x100 EXP SWAP1 DIV PUSH20 0xFFFFFFFFFFFFFFFFFFFFFFFFFFFFFFFFFFFFFFFF AND PUSH20 0xFFFFFFFFFFFFFFFFFFFFFFFFFFFFFFFFFFFFFFFF AND PUSH20 0xFFFFFFFFFFFFFFFFFFFFFFFFFFFFFFFFFFFFFFFF AND DUP2 MSTORE PUSH1 0x20 ADD SWAP1 DUP2 MSTORE PUSH1 0x20 ADD PUSH1 0x0 KECCAK256 SLOAD PUSH1 0x2 PUSH1 0x0 CALLER PUSH20 0xFFFFFFFFFFFFFFFFFFFFFFFFFFFFFFFFFFFFFFFF AND PUSH20 0xFFFFFFFFFFFFFFFFFFFFFFFFFFFFFFFFFFFFFFFF AND DUP2 MSTORE PUSH1 0x20 ADD SWAP1 DUP2 MSTORE PUSH1 0x20 ADD PUSH1 0x0 KECCAK256 SLOAD LT ISZERO PUSH2 0xA39 JUMPI PUSH1 0x0 DUP1 REVERT JUMPDEST DUP2 PUSH1 0x0 SWAP1 DUP1 MLOAD SWAP1 PUSH1 0x20 ADD SWAP1 PUSH2 0xA4F SWAP3 SWAP2 SWAP1 PUSH2 0x15A6 JUMP JUMPDEST POP PUSH1 0x1 SWAP1 POP SWAP2 SWAP1 POP JUMP JUMPDEST PUSH1 0x0 PUSH1 0x2 PUSH1 0x0 DUP4 PUSH20 0xFFFFFFFFFFFFFFFFFFFFFFFFFFFFFFFFFFFFFFFF AND PUSH20 0xFFFFFFFFFFFFFFFFFFFFFFFFFFFFFFFFFFFFFFFF AND DUP2 MSTORE PUSH1 0x20 ADD SWAP1 DUP2 MSTORE PUSH1 0x20 ADD PUSH1 0x0 KECCAK256 SLOAD SWAP1 POP SWAP2 SWAP1 POP JUMP JUMPDEST PUSH1 0x40 MLOAD DUP1 PUSH1 0x40 ADD PUSH1 0x40 MSTORE DUP1 PUSH1 0x4 DUP2 MSTORE PUSH1 0x20 ADD PUSH32 0x4C494F4E00000000000000000000000000000000000000000000000000000000 DUP2 MSTORE POP DUP2 JUMP JUMPDEST PUSH1 0x0 DUP1 PUSH20 0xFFFFFFFFFFFFFFFFFFFFFFFFFFFFFFFFFFFFFFFF AND DUP4 PUSH20 0xFFFFFFFFFFFFFFFFFFFFFFFFFFFFFFFFFFFFFFFF AND EQ ISZERO PUSH2 0xB16 JUMPI PUSH1 0x0 DUP1 REVERT JUMPDEST PUSH2 0xBA5 DUP3 PUSH1 0x3 PUSH1 0x0 CALLER PUSH20 0xFFFFFFFFFFFFFFFFFFFFFFFFFFFFFFFFFFFFFFFF AND PUSH20 0xFFFFFFFFFFFFFFFFFFFFFFFFFFFFFFFFFFFFFFFF AND DUP2 MSTORE PUSH1 0x20 ADD SWAP1 DUP2 MSTORE PUSH1 0x20 ADD PUSH1 0x0 KECCAK256 PUSH1 0x0 DUP7 PUSH20 0xFFFFFFFFFFFFFFFFFFFFFFFFFFFFFFFFFFFFFFFF AND PUSH20 0xFFFFFFFFFFFFFFFFFFFFFFFFFFFFFFFFFFFFFFFF AND DUP2 MSTORE PUSH1 0x20 ADD SWAP1 DUP2 MSTORE PUSH1 0x20 ADD PUSH1 0x0 KECCAK256 SLOAD PUSH2 0x118C SWAP1 SWAP2 SWAP1 PUSH4 0xFFFFFFFF AND JUMP JUMPDEST PUSH1 0x3 PUSH1 0x0 CALLER PUSH20 0xFFFFFFFFFFFFFFFFFFFFFFFFFFFFFFFFFFFFFFFF AND PUSH20 0xFFFFFFFFFFFFFFFFFFFFFFFFFFFFFFFFFFFFFFFF AND DUP2 MSTORE PUSH1 0x20 ADD SWAP1 DUP2 MSTORE PUSH1 0x20 ADD PUSH1 0x0 KECCAK256 PUSH1 0x0 DUP6 PUSH20 0xFFFFFFFFFFFFFFFFFFFFFFFFFFFFFFFFFFFFFFFF AND PUSH20 0xFFFFFFFFFFFFFFFFFFFFFFFFFFFFFFFFFFFFFFFF AND DUP2 MSTORE PUSH1 0x20 ADD SWAP1 DUP2 MSTORE PUSH1 0x20 ADD PUSH1 0x0 KECCAK256 DUP2 SWAP1 SSTORE POP DUP3 PUSH20 0xFFFFFFFFFFFFFFFFFFFFFFFFFFFFFFFFFFFFFFFF AND CALLER PUSH20 0xFFFFFFFFFFFFFFFFFFFFFFFFFFFFFFFFFFFFFFFF AND PUSH32 0x8C5BE1E5EBEC7D5BD14F71427D1E84F3DD0314C0F7B2291E5B200AC8C7C3B925 PUSH1 0x3 PUSH1 0x0 CALLER PUSH20 0xFFFFFFFFFFFFFFFFFFFFFFFFFFFFFFFFFFFFFFFF AND PUSH20 0xFFFFFFFFFFFFFFFFFFFFFFFFFFFFFFFFFFFFFFFF AND DUP2 MSTORE PUSH1 0x20 ADD SWAP1 DUP2 MSTORE PUSH1 0x20 ADD PUSH1 0x0 KECCAK256 PUSH1 0x0 DUP8 PUSH20 0xFFFFFFFFFFFFFFFFFFFFFFFFFFFFFFFFFFFFFFFF AND PUSH20 0xFFFFFFFFFFFFFFFFFFFFFFFFFFFFFFFFFFFFFFFF AND DUP2 MSTORE PUSH1 0x20 ADD SWAP1 DUP2 MSTORE PUSH1 0x20 ADD PUSH1 0x0 KECCAK256 SLOAD PUSH1 0x40 MLOAD PUSH2 0xCFE SWAP2 SWAP1 PUSH2 0x1831 JUMP JUMPDEST PUSH1 0x40 MLOAD DUP1 SWAP2 SUB SWAP1 LOG3 PUSH1 0x1 SWAP1 POP SWAP3 SWAP2 POP POP JUMP JUMPDEST PUSH1 0x0 PUSH1 0x2 PUSH1 0x0 CALLER PUSH20 0xFFFFFFFFFFFFFFFFFFFFFFFFFFFFFFFFFFFFFFFF AND PUSH20 0xFFFFFFFFFFFFFFFFFFFFFFFFFFFFFFFFFFFFFFFF AND DUP2 MSTORE PUSH1 0x20 ADD SWAP1 DUP2 MSTORE PUSH1 0x20 ADD PUSH1 0x0 KECCAK256 SLOAD DUP3 GT ISZERO PUSH2 0xD5E JUMPI PUSH1 0x0 DUP1 REVERT JUMPDEST PUSH1 0x0 PUSH20 0xFFFFFFFFFFFFFFFFFFFFFFFFFFFFFFFFFFFFFFFF AND DUP4 PUSH20 0xFFFFFFFFFFFFFFFFFFFFFFFFFFFFFFFFFFFFFFFF AND EQ ISZERO PUSH2 0xD98 JUMPI PUSH1 0x0 DUP1 REVERT JUMPDEST PUSH2 0xDEA DUP3 PUSH1 0x2 PUSH1 0x0 CALLER PUSH20 0xFFFFFFFFFFFFFFFFFFFFFFFFFFFFFFFFFFFFFFFF AND PUSH20 0xFFFFFFFFFFFFFFFFFFFFFFFFFFFFFFFFFFFFFFFF AND DUP2 MSTORE PUSH1 0x20 ADD SWAP1 DUP2 MSTORE PUSH1 0x20 ADD PUSH1 0x0 KECCAK256 SLOAD PUSH2 0x118C SWAP1 SWAP2 SWAP1 PUSH4 0xFFFFFFFF AND JUMP JUMPDEST PUSH1 0x2 PUSH1 0x0 CALLER PUSH20 0xFFFFFFFFFFFFFFFFFFFFFFFFFFFFFFFFFFFFFFFF AND PUSH20 0xFFFFFFFFFFFFFFFFFFFFFFFFFFFFFFFFFFFFFFFF AND DUP2 MSTORE PUSH1 0x20 ADD SWAP1 DUP2 MSTORE PUSH1 0x20 ADD PUSH1 0x0 KECCAK256 DUP2 SWAP1 SSTORE POP PUSH1 0x2 PUSH1 0x0 PUSH1 0x1 PUSH1 0x0 SWAP1 SLOAD SWAP1 PUSH2 0x100 EXP SWAP1 DIV PUSH20 0xFFFFFFFFFFFFFFFFFFFFFFFFFFFFFFFFFFFFFFFF AND PUSH20 0xFFFFFFFFFFFFFFFFFFFFFFFFFFFFFFFFFFFFFFFF AND PUSH20 0xFFFFFFFFFFFFFFFFFFFFFFFFFFFFFFFFFFFFFFFF AND DUP2 MSTORE PUSH1 0x20 ADD SWAP1 DUP2 MSTORE PUSH1 0x20 ADD PUSH1 0x0 KECCAK256 SLOAD PUSH1 0x2 PUSH1 0x0 CALLER PUSH20 0xFFFFFFFFFFFFFFFFFFFFFFFFFFFFFFFFFFFFFFFF AND PUSH20 0xFFFFFFFFFFFFFFFFFFFFFFFFFFFFFFFFFFFFFFFF AND DUP2 MSTORE PUSH1 0x20 ADD SWAP1 DUP2 MSTORE PUSH1 0x20 ADD PUSH1 0x0 KECCAK256 SLOAD GT ISZERO PUSH2 0xF17 JUMPI CALLER PUSH1 0x1 PUSH1 0x0 PUSH2 0x100 EXP DUP2 SLOAD DUP2 PUSH20 0xFFFFFFFFFFFFFFFFFFFFFFFFFFFFFFFFFFFFFFFF MUL NOT AND SWAP1 DUP4 PUSH20 0xFFFFFFFFFFFFFFFFFFFFFFFFFFFFFFFFFFFFFFFF AND MUL OR SWAP1 SSTORE POP JUMPDEST PUSH2 0xF69 DUP3 PUSH1 0x2 PUSH1 0x0 DUP7 PUSH20 0xFFFFFFFFFFFFFFFFFFFFFFFFFFFFFFFFFFFFFFFF AND PUSH20 0xFFFFFFFFFFFFFFFFFFFFFFFFFFFFFFFFFFFFFFFF AND DUP2 MSTORE PUSH1 0x20 ADD SWAP1 DUP2 MSTORE PUSH1 0x20 ADD PUSH1 0x0 KECCAK256 SLOAD PUSH2 0x154D SWAP1 SWAP2 SWAP1 PUSH4 0xFFFFFFFF AND JUMP JUMPDEST PUSH1 0x2 PUSH1 0x0 DUP6 PUSH20 0xFFFFFFFFFFFFFFFFFFFFFFFFFFFFFFFFFFFFFFFF AND PUSH20 0xFFFFFFFFFFFFFFFFFFFFFFFFFFFFFFFFFFFFFFFF AND DUP2 MSTORE PUSH1 0x20 ADD SWAP1 DUP2 MSTORE PUSH1 0x20 ADD PUSH1 0x0 KECCAK256 DUP2 SWAP1 SSTORE POP PUSH1 0x2 PUSH1 0x0 PUSH1 0x1 PUSH1 0x0 SWAP1 SLOAD SWAP1 PUSH2 0x100 EXP SWAP1 DIV PUSH20 0xFFFFFFFFFFFFFFFFFFFFFFFFFFFFFFFFFFFFFFFF AND PUSH20 0xFFFFFFFFFFFFFFFFFFFFFFFFFFFFFFFFFFFFFFFF AND PUSH20 0xFFFFFFFFFFFFFFFFFFFFFFFFFFFFFFFFFFFFFFFF AND DUP2 MSTORE PUSH1 0x20 ADD SWAP1 DUP2 MSTORE PUSH1 0x20 ADD PUSH1 0x0 KECCAK256 SLOAD PUSH1 0x2 PUSH1 0x0 DUP6 PUSH20 0xFFFFFFFFFFFFFFFFFFFFFFFFFFFFFFFFFFFFFFFF AND PUSH20 0xFFFFFFFFFFFFFFFFFFFFFFFFFFFFFFFFFFFFFFFF AND DUP2 MSTORE PUSH1 0x20 ADD SWAP1 DUP2 MSTORE PUSH1 0x20 ADD PUSH1 0x0 KECCAK256 SLOAD GT ISZERO PUSH2 0x1096 JUMPI DUP3 PUSH1 0x1 PUSH1 0x0 PUSH2 0x100 EXP DUP2 SLOAD DUP2 PUSH20 0xFFFFFFFFFFFFFFFFFFFFFFFFFFFFFFFFFFFFFFFF MUL NOT AND SWAP1 DUP4 PUSH20 0xFFFFFFFFFFFFFFFFFFFFFFFFFFFFFFFFFFFFFFFF AND MUL OR SWAP1 SSTORE POP JUMPDEST DUP3 PUSH20 0xFFFFFFFFFFFFFFFFFFFFFFFFFFFFFFFFFFFFFFFF AND CALLER PUSH20 0xFFFFFFFFFFFFFFFFFFFFFFFFFFFFFFFFFFFFFFFF AND PUSH32 0xDDF252AD1BE2C89B69C2B068FC378DAA952BA7F163C4A11628F55A4DF523B3EF DUP5 PUSH1 0x40 MLOAD PUSH2 0x10F3 SWAP2 SWAP1 PUSH2 0x1831 JUMP JUMPDEST PUSH1 0x40 MLOAD DUP1 SWAP2 SUB SWAP1 LOG3 PUSH1 0x1 SWAP1 POP SWAP3 SWAP2 POP POP JUMP JUMPDEST PUSH1 0x0 PUSH1 0x3 PUSH1 0x0 DUP5 PUSH20 0xFFFFFFFFFFFFFFFFFFFFFFFFFFFFFFFFFFFFFFFF AND PUSH20 0xFFFFFFFFFFFFFFFFFFFFFFFFFFFFFFFFFFFFFFFF AND DUP2 MSTORE PUSH1 0x20 ADD SWAP1 DUP2 MSTORE PUSH1 0x20 ADD PUSH1 0x0 KECCAK256 PUSH1 0x0 DUP4 PUSH20 0xFFFFFFFFFFFFFFFFFFFFFFFFFFFFFFFFFFFFFFFF AND PUSH20 0xFFFFFFFFFFFFFFFFFFFFFFFFFFFFFFFFFFFFFFFF AND DUP2 MSTORE PUSH1 0x20 ADD SWAP1 DUP2 MSTORE PUSH1 0x20 ADD PUSH1 0x0 KECCAK256 SLOAD SWAP1 POP SWAP3 SWAP2 POP POP JUMP JUMPDEST PUSH1 0x0 DUP3 DUP3 DUP5 PUSH2 0x119B SWAP2 SWAP1 PUSH2 0x1B7B JUMP JUMPDEST SWAP2 POP DUP2 GT ISZERO PUSH2 0x11DF JUMPI PUSH1 0x40 MLOAD PUSH32 0x8C379A000000000000000000000000000000000000000000000000000000000 DUP2 MSTORE PUSH1 0x4 ADD PUSH2 0x11D6 SWAP1 PUSH2 0x1BFB JUMP JUMPDEST PUSH1 0x40 MLOAD DUP1 SWAP2 SUB SWAP1 REVERT JUMPDEST SWAP3 SWAP2 POP POP JUMP JUMPDEST PUSH2 0x1237 DUP2 PUSH1 0x2 PUSH1 0x0 DUP7 PUSH20 0xFFFFFFFFFFFFFFFFFFFFFFFFFFFFFFFFFFFFFFFF AND PUSH20 0xFFFFFFFFFFFFFFFFFFFFFFFFFFFFFFFFFFFFFFFF AND DUP2 MSTORE PUSH1 0x20 ADD SWAP1 DUP2 MSTORE PUSH1 0x20 ADD PUSH1 0x0 KECCAK256 SLOAD PUSH2 0x118C SWAP1 SWAP2 SWAP1 PUSH4 0xFFFFFFFF AND JUMP JUMPDEST PUSH1 0x2 PUSH1 0x0 DUP6 PUSH20 0xFFFFFFFFFFFFFFFFFFFFFFFFFFFFFFFFFFFFFFFF AND PUSH20 0xFFFFFFFFFFFFFFFFFFFFFFFFFFFFFFFFFFFFFFFF AND DUP2 MSTORE PUSH1 0x20 ADD SWAP1 DUP2 MSTORE PUSH1 0x20 ADD PUSH1 0x0 KECCAK256 DUP2 SWAP1 SSTORE POP PUSH1 0x2 PUSH1 0x0 PUSH1 0x1 PUSH1 0x0 SWAP1 SLOAD SWAP1 PUSH2 0x100 EXP SWAP1 DIV PUSH20 0xFFFFFFFFFFFFFFFFFFFFFFFFFFFFFFFFFFFFFFFF AND PUSH20 0xFFFFFFFFFFFFFFFFFFFFFFFFFFFFFFFFFFFFFFFF AND PUSH20 0xFFFFFFFFFFFFFFFFFFFFFFFFFFFFFFFFFFFFFFFF AND DUP2 MSTORE PUSH1 0x20 ADD SWAP1 DUP2 MSTORE PUSH1 0x20 ADD PUSH1 0x0 KECCAK256 SLOAD PUSH1 0x2 PUSH1 0x0 DUP6 PUSH20 0xFFFFFFFFFFFFFFFFFFFFFFFFFFFFFFFFFFFFFFFF AND PUSH20 0xFFFFFFFFFFFFFFFFFFFFFFFFFFFFFFFFFFFFFFFF AND DUP2 MSTORE PUSH1 0x20 ADD SWAP1 DUP2 MSTORE PUSH1 0x20 ADD PUSH1 0x0 KECCAK256 SLOAD GT ISZERO PUSH2 0x1364 JUMPI DUP3 PUSH1 0x1 PUSH1 0x0 PUSH2 0x100 EXP DUP2 SLOAD DUP2 PUSH20 0xFFFFFFFFFFFFFFFFFFFFFFFFFFFFFFFFFFFFFFFF MUL NOT AND SWAP1 DUP4 PUSH20 0xFFFFFFFFFFFFFFFFFFFFFFFFFFFFFFFFFFFFFFFF AND MUL OR SWAP1 SSTORE POP JUMPDEST PUSH2 0x13B6 DUP2 PUSH1 0x2 PUSH1 0x0 DUP6 PUSH20 0xFFFFFFFFFFFFFFFFFFFFFFFFFFFFFFFFFFFFFFFF AND PUSH20 0xFFFFFFFFFFFFFFFFFFFFFFFFFFFFFFFFFFFFFFFF AND DUP2 MSTORE PUSH1 0x20 ADD SWAP1 DUP2 MSTORE PUSH1 0x20 ADD PUSH1 0x0 KECCAK256 SLOAD PUSH2 0x154D SWAP1 SWAP2 SWAP1 PUSH4 0xFFFFFFFF AND JUMP JUMPDEST PUSH1 0x2 PUSH1 0x0 DUP5 PUSH20 0xFFFFFFFFFFFFFFFFFFFFFFFFFFFFFFFFFFFFFFFF AND PUSH20 0xFFFFFFFFFFFFFFFFFFFFFFFFFFFFFFFFFFFFFFFF AND DUP2 MSTORE PUSH1 0x20 ADD SWAP1 DUP2 MSTORE PUSH1 0x20 ADD PUSH1 0x0 KECCAK256 DUP2 SWAP1 SSTORE POP PUSH1 0x2 PUSH1 0x0 PUSH1 0x1 PUSH1 0x0 SWAP1 SLOAD SWAP1 PUSH2 0x100 EXP SWAP1 DIV PUSH20 0xFFFFFFFFFFFFFFFFFFFFFFFFFFFFFFFFFFFFFFFF AND PUSH20 0xFFFFFFFFFFFFFFFFFFFFFFFFFFFFFFFFFFFFFFFF AND PUSH20 0xFFFFFFFFFFFFFFFFFFFFFFFFFFFFFFFFFFFFFFFF AND DUP2 MSTORE PUSH1 0x20 ADD SWAP1 DUP2 MSTORE PUSH1 0x20 ADD PUSH1 0x0 KECCAK256 SLOAD PUSH1 0x2 PUSH1 0x0 DUP5 PUSH20 0xFFFFFFFFFFFFFFFFFFFFFFFFFFFFFFFFFFFFFFFF AND PUSH20 0xFFFFFFFFFFFFFFFFFFFFFFFFFFFFFFFFFFFFFFFF AND DUP2 MSTORE PUSH1 0x20 ADD SWAP1 DUP2 MSTORE PUSH1 0x20 ADD PUSH1 0x0 KECCAK256 SLOAD GT ISZERO PUSH2 0x14E3 JUMPI DUP2 PUSH1 0x1 PUSH1 0x0 PUSH2 0x100 EXP DUP2 SLOAD DUP2 PUSH20 0xFFFFFFFFFFFFFFFFFFFFFFFFFFFFFFFFFFFFFFFF MUL NOT AND SWAP1 DUP4 PUSH20 0xFFFFFFFFFFFFFFFFFFFFFFFFFFFFFFFFFFFFFFFF AND MUL OR SWAP1 SSTORE POP JUMPDEST DUP2 PUSH20 0xFFFFFFFFFFFFFFFFFFFFFFFFFFFFFFFFFFFFFFFF AND DUP4 PUSH20 0xFFFFFFFFFFFFFFFFFFFFFFFFFFFFFFFFFFFFFFFF AND PUSH32 0xDDF252AD1BE2C89B69C2B068FC378DAA952BA7F163C4A11628F55A4DF523B3EF DUP4 PUSH1 0x40 MLOAD PUSH2 0x1540 SWAP2 SWAP1 PUSH2 0x1831 JUMP JUMPDEST PUSH1 0x40 MLOAD DUP1 SWAP2 SUB SWAP1 LOG3 POP POP POP JUMP JUMPDEST PUSH1 0x0 DUP3 DUP3 DUP5 PUSH2 0x155C SWAP2 SWAP1 PUSH2 0x1C1B JUMP JUMPDEST SWAP2 POP DUP2 LT ISZERO PUSH2 0x15A0 JUMPI PUSH1 0x40 MLOAD PUSH32 0x8C379A000000000000000000000000000000000000000000000000000000000 DUP2 MSTORE PUSH1 0x4 ADD PUSH2 0x1597 SWAP1 PUSH2 0x1CBD JUMP JUMPDEST PUSH1 0x40 MLOAD DUP1 SWAP2 SUB SWAP1 REVERT JUMPDEST SWAP3 SWAP2 POP POP JUMP JUMPDEST DUP3 DUP1 SLOAD PUSH2 0x15B2 SWAP1 PUSH2 0x1B1A JUMP JUMPDEST SWAP1 PUSH1 0x0 MSTORE PUSH1 0x20 PUSH1 0x0 KECCAK256 SWAP1 PUSH1 0x1F ADD PUSH1 0x20 SWAP1 DIV DUP2 ADD SWAP3 DUP3 PUSH2 0x15D4 JUMPI PUSH1 0x0 DUP6 SSTORE PUSH2 0x161B JUMP JUMPDEST DUP3 PUSH1 0x1F LT PUSH2 0x15ED JUMPI DUP1 MLOAD PUSH1 0xFF NOT AND DUP4 DUP1 ADD OR DUP6 SSTORE PUSH2 0x161B JUMP JUMPDEST DUP3 DUP1 ADD PUSH1 0x1 ADD DUP6 SSTORE DUP3 ISZERO PUSH2 0x161B JUMPI SWAP2 DUP3 ADD JUMPDEST DUP3 DUP2 GT ISZERO PUSH2 0x161A JUMPI DUP3 MLOAD DUP3 SSTORE SWAP2 PUSH1 0x20 ADD SWAP2 SWAP1 PUSH1 0x1 ADD SWAP1 PUSH2 0x15FF JUMP JUMPDEST JUMPDEST POP SWAP1 POP PUSH2 0x1628 SWAP2 SWAP1 PUSH2 0x162C JUMP JUMPDEST POP SWAP1 JUMP JUMPDEST JUMPDEST DUP1 DUP3 GT ISZERO PUSH2 0x1645 JUMPI PUSH1 0x0 DUP2 PUSH1 0x0 SWAP1 SSTORE POP PUSH1 0x1 ADD PUSH2 0x162D JUMP JUMPDEST POP SWAP1 JUMP JUMPDEST PUSH1 0x0 DUP2 MLOAD SWAP1 POP SWAP2 SWAP1 POP JUMP JUMPDEST PUSH1 0x0 DUP3 DUP3 MSTORE PUSH1 0x20 DUP3 ADD SWAP1 POP SWAP3 SWAP2 POP POP JUMP JUMPDEST PUSH1 0x0 JUMPDEST DUP4 DUP2 LT ISZERO PUSH2 0x1683 JUMPI DUP1 DUP3 ADD MLOAD DUP2 DUP5 ADD MSTORE PUSH1 0x20 DUP2 ADD SWAP1 POP PUSH2 0x1668 JUMP JUMPDEST DUP4 DUP2 GT ISZERO PUSH2 0x1692 JUMPI PUSH1 0x0 DUP5 DUP5 ADD MSTORE JUMPDEST POP POP POP POP JUMP JUMPDEST PUSH1 0x0 PUSH1 0x1F NOT PUSH1 0x1F DUP4 ADD AND SWAP1 POP SWAP2 SWAP1 POP JUMP JUMPDEST PUSH1 0x0 PUSH2 0x16B4 DUP3 PUSH2 0x1649 JUMP JUMPDEST PUSH2 0x16BE DUP2 DUP6 PUSH2 0x1654 JUMP JUMPDEST SWAP4 POP PUSH2 0x16CE DUP2 DUP6 PUSH1 0x20 DUP7 ADD PUSH2 0x1665 JUMP JUMPDEST PUSH2 0x16D7 DUP2 PUSH2 0x1698 JUMP JUMPDEST DUP5 ADD SWAP2 POP POP SWAP3 SWAP2 POP POP JUMP JUMPDEST PUSH1 0x0 PUSH1 0x20 DUP3 ADD SWAP1 POP DUP2 DUP2 SUB PUSH1 0x0 DUP4 ADD MSTORE PUSH2 0x16FC DUP2 DUP5 PUSH2 0x16A9 JUMP JUMPDEST SWAP1 POP SWAP3 SWAP2 POP POP JUMP JUMPDEST PUSH1 0x0 PUSH1 0x40 MLOAD SWAP1 POP SWAP1 JUMP JUMPDEST PUSH1 0x0 DUP1 REVERT JUMPDEST PUSH1 0x0 DUP1 REVERT JUMPDEST PUSH1 0x0 PUSH20 0xFFFFFFFFFFFFFFFFFFFFFFFFFFFFFFFFFFFFFFFF DUP3 AND SWAP1 POP SWAP2 SWAP1 POP JUMP JUMPDEST PUSH1 0x0 PUSH2 0x1743 DUP3 PUSH2 0x1718 JUMP JUMPDEST SWAP1 POP SWAP2 SWAP1 POP JUMP JUMPDEST PUSH2 0x1753 DUP2 PUSH2 0x1738 JUMP JUMPDEST DUP2 EQ PUSH2 0x175E JUMPI PUSH1 0x0 DUP1 REVERT JUMPDEST POP JUMP JUMPDEST PUSH1 0x0 DUP2 CALLDATALOAD SWAP1 POP PUSH2 0x1770 DUP2 PUSH2 0x174A JUMP JUMPDEST SWAP3 SWAP2 POP POP JUMP JUMPDEST PUSH1 0x0 DUP2 SWAP1 POP SWAP2 SWAP1 POP JUMP JUMPDEST PUSH2 0x1789 DUP2 PUSH2 0x1776 JUMP JUMPDEST DUP2 EQ PUSH2 0x1794 JUMPI PUSH1 0x0 DUP1 REVERT JUMPDEST POP JUMP JUMPDEST PUSH1 0x0 DUP2 CALLDATALOAD SWAP1 POP PUSH2 0x17A6 DUP2 PUSH2 0x1780 JUMP JUMPDEST SWAP3 SWAP2 POP POP JUMP JUMPDEST PUSH1 0x0 DUP1 PUSH1 0x40 DUP4 DUP6 SUB SLT ISZERO PUSH2 0x17C3 JUMPI PUSH2 0x17C2 PUSH2 0x170E JUMP JUMPDEST JUMPDEST PUSH1 0x0 PUSH2 0x17D1 DUP6 DUP3 DUP7 ADD PUSH2 0x1761 JUMP JUMPDEST SWAP3 POP POP PUSH1 0x20 PUSH2 0x17E2 DUP6 DUP3 DUP7 ADD PUSH2 0x1797 JUMP JUMPDEST SWAP2 POP POP SWAP3 POP SWAP3 SWAP1 POP JUMP JUMPDEST PUSH1 0x0 DUP2 ISZERO ISZERO SWAP1 POP SWAP2 SWAP1 POP JUMP JUMPDEST PUSH2 0x1801 DUP2 PUSH2 0x17EC JUMP JUMPDEST DUP3 MSTORE POP POP JUMP JUMPDEST PUSH1 0x0 PUSH1 0x20 DUP3 ADD SWAP1 POP PUSH2 0x181C PUSH1 0x0 DUP4 ADD DUP5 PUSH2 0x17F8 JUMP JUMPDEST SWAP3 SWAP2 POP POP JUMP JUMPDEST PUSH2 0x182B DUP2 PUSH2 0x1776 JUMP JUMPDEST DUP3 MSTORE POP POP JUMP JUMPDEST PUSH1 0x0 PUSH1 0x20 DUP3 ADD SWAP1 POP PUSH2 0x1846 PUSH1 0x0 DUP4 ADD DUP5 PUSH2 0x1822 JUMP JUMPDEST SWAP3 SWAP2 POP POP JUMP JUMPDEST PUSH2 0x1855 DUP2 PUSH2 0x1738 JUMP JUMPDEST DUP3 MSTORE POP POP JUMP JUMPDEST PUSH1 0x0 PUSH1 0x20 DUP3 ADD SWAP1 POP PUSH2 0x1870 PUSH1 0x0 DUP4 ADD DUP5 PUSH2 0x184C JUMP JUMPDEST SWAP3 SWAP2 POP POP JUMP JUMPDEST PUSH1 0x0 DUP1 PUSH1 0x0 PUSH1 0x60 DUP5 DUP7 SUB SLT ISZERO PUSH2 0x188F JUMPI PUSH2 0x188E PUSH2 0x170E JUMP JUMPDEST JUMPDEST PUSH1 0x0 PUSH2 0x189D DUP7 DUP3 DUP8 ADD PUSH2 0x1761 JUMP JUMPDEST SWAP4 POP POP PUSH1 0x20 PUSH2 0x18AE DUP7 DUP3 DUP8 ADD PUSH2 0x1761 JUMP JUMPDEST SWAP3 POP POP PUSH1 0x40 PUSH2 0x18BF DUP7 DUP3 DUP8 ADD PUSH2 0x1797 JUMP JUMPDEST SWAP2 POP POP SWAP3 POP SWAP3 POP SWAP3 JUMP JUMPDEST PUSH1 0x0 PUSH1 0xFF DUP3 AND SWAP1 POP SWAP2 SWAP1 POP JUMP JUMPDEST PUSH2 0x18DF DUP2 PUSH2 0x18C9 JUMP JUMPDEST DUP3 MSTORE POP POP JUMP JUMPDEST PUSH1 0x0 PUSH1 0x20 DUP3 ADD SWAP1 POP PUSH2 0x18FA PUSH1 0x0 DUP4 ADD DUP5 PUSH2 0x18D6 JUMP JUMPDEST SWAP3 SWAP2 POP POP JUMP JUMPDEST PUSH1 0x0 DUP1 REVERT JUMPDEST PUSH1 0x0 DUP1 REVERT JUMPDEST PUSH32 0x4E487B7100000000000000000000000000000000000000000000000000000000 PUSH1 0x0 MSTORE PUSH1 0x41 PUSH1 0x4 MSTORE PUSH1 0x24 PUSH1 0x0 REVERT JUMPDEST PUSH2 0x1942 DUP3 PUSH2 0x1698 JUMP JUMPDEST DUP2 ADD DUP2 DUP2 LT PUSH8 0xFFFFFFFFFFFFFFFF DUP3 GT OR ISZERO PUSH2 0x1961 JUMPI PUSH2 0x1960 PUSH2 0x190A JUMP JUMPDEST JUMPDEST DUP1 PUSH1 0x40 MSTORE POP POP POP JUMP JUMPDEST PUSH1 0x0 PUSH2 0x1974 PUSH2 0x1704 JUMP JUMPDEST SWAP1 POP PUSH2 0x1980 DUP3 DUP3 PUSH2 0x1939 JUMP JUMPDEST SWAP2 SWAP1 POP JUMP JUMPDEST PUSH1 0x0 PUSH8 0xFFFFFFFFFFFFFFFF DUP3 GT ISZERO PUSH2 0x19A0 JUMPI PUSH2 0x199F PUSH2 0x190A JUMP JUMPDEST JUMPDEST PUSH2 0x19A9 DUP3 PUSH2 0x1698 JUMP JUMPDEST SWAP1 POP PUSH1 0x20 DUP2 ADD SWAP1 POP SWAP2 SWAP1 POP JUMP JUMPDEST DUP3 DUP2 DUP4 CALLDATACOPY PUSH1 0x0 DUP4 DUP4 ADD MSTORE POP POP POP JUMP JUMPDEST PUSH1 0x0 PUSH2 0x19D8 PUSH2 0x19D3 DUP5 PUSH2 0x1985 JUMP JUMPDEST PUSH2 0x196A JUMP JUMPDEST SWAP1 POP DUP3 DUP2 MSTORE PUSH1 0x20 DUP2 ADD DUP5 DUP5 DUP5 ADD GT ISZERO PUSH2 0x19F4 JUMPI PUSH2 0x19F3 PUSH2 0x1905 JUMP JUMPDEST JUMPDEST PUSH2 0x19FF DUP5 DUP3 DUP6 PUSH2 0x19B6 JUMP JUMPDEST POP SWAP4 SWAP3 POP POP POP JUMP JUMPDEST PUSH1 0x0 DUP3 PUSH1 0x1F DUP4 ADD SLT PUSH2 0x1A1C JUMPI PUSH2 0x1A1B PUSH2 0x1900 JUMP JUMPDEST JUMPDEST DUP2 CALLDATALOAD PUSH2 0x1A2C DUP5 DUP3 PUSH1 0x20 DUP7 ADD PUSH2 0x19C5 JUMP JUMPDEST SWAP2 POP POP SWAP3 SWAP2 POP POP JUMP JUMPDEST PUSH1 0x0 PUSH1 0x20 DUP3 DUP5 SUB SLT ISZERO PUSH2 0x1A4B JUMPI PUSH2 0x1A4A PUSH2 0x170E JUMP JUMPDEST JUMPDEST PUSH1 0x0 DUP3 ADD CALLDATALOAD PUSH8 0xFFFFFFFFFFFFFFFF DUP2 GT ISZERO PUSH2 0x1A69 JUMPI PUSH2 0x1A68 PUSH2 0x1713 JUMP JUMPDEST JUMPDEST PUSH2 0x1A75 DUP5 DUP3 DUP6 ADD PUSH2 0x1A07 JUMP JUMPDEST SWAP2 POP POP SWAP3 SWAP2 POP POP JUMP JUMPDEST PUSH1 0x0 PUSH1 0x20 DUP3 DUP5 SUB SLT ISZERO PUSH2 0x1A94 JUMPI PUSH2 0x1A93 PUSH2 0x170E JUMP JUMPDEST JUMPDEST PUSH1 0x0 PUSH2 0x1AA2 DUP5 DUP3 DUP6 ADD PUSH2 0x1761 JUMP JUMPDEST SWAP2 POP POP SWAP3 SWAP2 POP POP JUMP JUMPDEST PUSH1 0x0 DUP1 PUSH1 0x40 DUP4 DUP6 SUB SLT ISZERO PUSH2 0x1AC2 JUMPI PUSH2 0x1AC1 PUSH2 0x170E JUMP JUMPDEST JUMPDEST PUSH1 0x0 PUSH2 0x1AD0 DUP6 DUP3 DUP7 ADD PUSH2 0x1761 JUMP JUMPDEST SWAP3 POP POP PUSH1 0x20 PUSH2 0x1AE1 DUP6 DUP3 DUP7 ADD PUSH2 0x1761 JUMP JUMPDEST SWAP2 POP POP SWAP3 POP SWAP3 SWAP1 POP JUMP JUMPDEST PUSH32 0x4E487B7100000000000000000000000000000000000000000000000000000000 PUSH1 0x0 MSTORE PUSH1 0x22 PUSH1 0x4 MSTORE PUSH1 0x24 PUSH1 0x0 REVERT JUMPDEST PUSH1 0x0 PUSH1 0x2 DUP3 DIV SWAP1 POP PUSH1 0x1 DUP3 AND DUP1 PUSH2 0x1B32 JUMPI PUSH1 0x7F DUP3 AND SWAP2 POP JUMPDEST PUSH1 0x20 DUP3 LT DUP2 EQ ISZERO PUSH2 0x1B46 JUMPI PUSH2 0x1B45 PUSH2 0x1AEB JUMP JUMPDEST JUMPDEST POP SWAP2 SWAP1 POP JUMP JUMPDEST PUSH32 0x4E487B7100000000000000000000000000000000000000000000000000000000 PUSH1 0x0 MSTORE PUSH1 0x11 PUSH1 0x4 MSTORE PUSH1 0x24 PUSH1 0x0 REVERT JUMPDEST PUSH1 0x0 PUSH2 0x1B86 DUP3 PUSH2 0x1776 JUMP JUMPDEST SWAP2 POP PUSH2 0x1B91 DUP4 PUSH2 0x1776 JUMP JUMPDEST SWAP3 POP DUP3 DUP3 LT ISZERO PUSH2 0x1BA4 JUMPI PUSH2 0x1BA3 PUSH2 0x1B4C JUMP JUMPDEST JUMPDEST DUP3 DUP3 SUB SWAP1 POP SWAP3 SWAP2 POP POP JUMP JUMPDEST PUSH32 0x64732D6D6174682D7375622D756E646572666C6F770000000000000000000000 PUSH1 0x0 DUP3 ADD MSTORE POP JUMP JUMPDEST PUSH1 0x0 PUSH2 0x1BE5 PUSH1 0x15 DUP4 PUSH2 0x1654 JUMP JUMPDEST SWAP2 POP PUSH2 0x1BF0 DUP3 PUSH2 0x1BAF JUMP JUMPDEST PUSH1 0x20 DUP3 ADD SWAP1 POP SWAP2 SWAP1 POP JUMP JUMPDEST PUSH1 0x0 PUSH1 0x20 DUP3 ADD SWAP1 POP DUP2 DUP2 SUB PUSH1 0x0 DUP4 ADD MSTORE PUSH2 0x1C14 DUP2 PUSH2 0x1BD8 JUMP JUMPDEST SWAP1 POP SWAP2 SWAP1 POP JUMP JUMPDEST PUSH1 0x0 PUSH2 0x1C26 DUP3 PUSH2 0x1776 JUMP JUMPDEST SWAP2 POP PUSH2 0x1C31 DUP4 PUSH2 0x1776 JUMP JUMPDEST SWAP3 POP DUP3 PUSH32 0xFFFFFFFFFFFFFFFFFFFFFFFFFFFFFFFFFFFFFFFFFFFFFFFFFFFFFFFFFFFFFFFF SUB DUP3 GT ISZERO PUSH2 0x1C66 JUMPI PUSH2 0x1C65 PUSH2 0x1B4C JUMP JUMPDEST JUMPDEST DUP3 DUP3 ADD SWAP1 POP SWAP3 SWAP2 POP POP JUMP JUMPDEST PUSH32 0x64732D6D6174682D6164642D6F766572666C6F77000000000000000000000000 PUSH1 0x0 DUP3 ADD MSTORE POP JUMP JUMPDEST PUSH1 0x0 PUSH2 0x1CA7 PUSH1 0x14 DUP4 PUSH2 0x1654 JUMP JUMPDEST SWAP2 POP PUSH2 0x1CB2 DUP3 PUSH2 0x1C71 JUMP JUMPDEST PUSH1 0x20 DUP3 ADD SWAP1 POP SWAP2 SWAP1 POP JUMP JUMPDEST PUSH1 0x0 PUSH1 0x20 DUP3 ADD SWAP1 POP DUP2 DUP2 SUB PUSH1 0x0 DUP4 ADD MSTORE PUSH2 0x1CD6 DUP2 PUSH2 0x1C9A JUMP JUMPDEST SWAP1 POP SWAP2 SWAP1 POP JUMP INVALID LOG2 PUSH5 0x6970667358 0x22 SLT KECCAK256 PUSH3 0x12915B ADDMOD 0xF8 JUMPI 0xDA DUP12 0xB1 0x5D BASEFEE PUSH25 0x440EC5E6753B1ECD8D1C30FE6D4D2712C82C064736F6C6343 STOP ADDMOD EXP STOP CALLER "
				},
				"gasEstimates": {
					"creation": {
						"codeDepositCost": "1488600",
						"executionCost": "infinite",
						"totalCost": "infinite"
					},
					"external": {
						"_totalSupply()": "352",
						"allowance(address,address)": "infinite",
						"approve(address,uint256)": "infinite",
						"balanceOf(address)": "2908",
						"changeName(string)": "infinite",
						"decimals()": "402",
						"decreaseAllowance(address,uint256)": "infinite",
						"increaseAllowance(address,uint256)": "infinite",
						"name()": "infinite",
						"symbol()": "infinite",
						"topAddress()": "2537",
						"totalSupply()": "405",
						"transfer(address,uint256)": "infinite",
						"transferFrom(address,address,uint256)": "infinite"
					},
					"internal": {
						"_transfer(address,address,uint256)": "infinite"
					}
				},
				"methodIdentifiers": {
					"_totalSupply()": "3eaaf86b",
					"allowance(address,address)": "dd62ed3e",
					"approve(address,uint256)": "095ea7b3",
					"balanceOf(address)": "70a08231",
					"changeName(string)": "5353a2d8",
					"decimals()": "313ce567",
					"decreaseAllowance(address,uint256)": "a457c2d7",
					"increaseAllowance(address,uint256)": "39509351",
					"name()": "06fdde03",
					"symbol()": "95d89b41",
					"topAddress()": "23539224",
					"totalSupply()": "18160ddd",
					"transfer(address,uint256)": "a9059cbb",
					"transferFrom(address,address,uint256)": "23b872dd"
				}
			},
			"storageLayout": {
				"storage": [
					{
						"astId": 16,
						"contract": "LionToken.sol:LionToken",
						"label": "name",
						"offset": 0,
						"slot": "0",
						"type": "t_string_storage"
					},
					{
						"astId": 24,
						"contract": "LionToken.sol:LionToken",
						"label": "topAddress",
						"offset": 0,
						"slot": "1",
						"type": "t_address"
					},
					{
						"astId": 28,
						"contract": "LionToken.sol:LionToken",
						"label": "_balances",
						"offset": 0,
						"slot": "2",
						"type": "t_mapping(t_address,t_uint256)"
					},
					{
						"astId": 34,
						"contract": "LionToken.sol:LionToken",
						"label": "_allowed",
						"offset": 0,
						"slot": "3",
						"type": "t_mapping(t_address,t_mapping(t_address,t_uint256))"
					}
				],
				"types": {
					"t_address": {
						"encoding": "inplace",
						"label": "address",
						"numberOfBytes": "20"
					},
					"t_mapping(t_address,t_mapping(t_address,t_uint256))": {
						"encoding": "mapping",
						"key": "t_address",
						"label": "mapping(address => mapping(address => uint256))",
						"numberOfBytes": "32",
						"value": "t_mapping(t_address,t_uint256)"
					},
					"t_mapping(t_address,t_uint256)": {
						"encoding": "mapping",
						"key": "t_address",
						"label": "mapping(address => uint256)",
						"numberOfBytes": "32",
						"value": "t_uint256"
					},
					"t_string_storage": {
						"encoding": "bytes",
						"label": "string",
						"numberOfBytes": "32"
					},
					"t_uint256": {
						"encoding": "inplace",
						"label": "uint256",
						"numberOfBytes": "32"
					}
				}
			},
			"userdoc": {
				"kind": "user",
				"methods": {},
				"version": 1
			}
		}
	}
}