{
	"Factory.sol": {
		"UniswapV2Factory": {
			"abi": [
				{
					"inputs": [
						{
							"internalType": "address",
							"name": "_feeToSetter",
							"type": "address"
						}
					],
					"stateMutability": "nonpayable",
					"type": "constructor"
				},
				{
					"anonymous": false,
					"inputs": [
						{
							"indexed": true,
							"internalType": "address",
							"name": "token0",
							"type": "address"
						},
						{
							"indexed": true,
							"internalType": "address",
							"name": "token1",
							"type": "address"
						},
						{
							"indexed": false,
							"internalType": "address",
							"name": "pair",
							"type": "address"
						},
						{
							"indexed": false,
							"internalType": "uint256",
							"name": "",
							"type": "uint256"
						}
					],
					"name": "PairCreated",
					"type": "event"
				},
				{
					"inputs": [
						{
							"internalType": "uint256",
							"name": "",
							"type": "uint256"
						}
					],
					"name": "allPairs",
					"outputs": [
						{
							"internalType": "address",
							"name": "",
							"type": "address"
						}
					],
					"stateMutability": "view",
					"type": "function"
				},
				{
					"inputs": [],
					"name": "allPairsLength",
					"outputs": [
						{
							"internalType": "uint256",
							"name": "",
							"type": "uint256"
						}
					],
					"stateMutability": "view",
					"type": "function"
				},
				{
					"inputs": [
						{
							"internalType": "address",
							"name": "tokenA",
							"type": "address"
						},
						{
							"internalType": "address",
							"name": "tokenB",
							"type": "address"
						}
					],
					"name": "createPair",
					"outputs": [
						{
							"internalType": "address",
							"name": "pair",
							"type": "address"
						}
					],
					"stateMutability": "nonpayable",
					"type": "function"
				},
				{
					"inputs": [],
					"name": "feeTo",
					"outputs": [
						{
							"internalType": "address",
							"name": "",
							"type": "address"
						}
					],
					"stateMutability": "view",
					"type": "function"
				},
				{
					"inputs": [],
					"name": "feeToSetter",
					"outputs": [
						{
							"internalType": "address",
							"name": "",
							"type": "address"
						}
					],
					"stateMutability": "view",
					"type": "function"
				},
				{
					"inputs": [
						{
							"internalType": "address",
							"name": "",
							"type": "address"
						},
						{
							"internalType": "address",
							"name": "",
							"type": "address"
						}
					],
					"name": "getPair",
					"outputs": [
						{
							"internalType": "address",
							"name": "",
							"type": "address"
						}
					],
					"stateMutability": "view",
					"type": "function"
				},
				{
					"inputs": [
						{
							"internalType": "address",
							"name": "_feeTo",
							"type": "address"
						}
					],
					"name": "setFeeTo",
					"outputs": [],
					"stateMutability": "nonpayable",
					"type": "function"
				},
				{
					"inputs": [
						{
							"internalType": "address",
							"name": "_feeToSetter",
							"type": "address"
						}
					],
					"name": "setFeeToSetter",
					"outputs": [],
					"stateMutability": "nonpayable",
					"type": "function"
				}
			],
			"devdoc": {
				"kind": "dev",
				"methods": {},
				"version": 1
			},
			"evm": {
				"assembly": "    /* \"Factory.sol\":123:1958  contract UniswapV2Factory is IUniswapV2Factory {... */\n  mstore(0x40, 0x80)\n    /* \"Factory.sol\":464:548  constructor(address _feeToSetter) public {... */\n  callvalue\n  dup1\n  iszero\n  tag_1\n  jumpi\n  0x00\n  dup1\n  revert\ntag_1:\n  pop\n  mload(0x40)\n  sub(codesize, bytecodeSize)\n  dup1\n  bytecodeSize\n  dup4\n  codecopy\n  dup2\n  dup2\n  add\n  0x40\n  mstore\n  0x20\n  dup2\n  lt\n  iszero\n  tag_2\n  jumpi\n  0x00\n  dup1\n  revert\ntag_2:\n  dup2\n  add\n  swap1\n  dup1\n  dup1\n  mload\n  swap1\n  0x20\n  add\n  swap1\n  swap3\n  swap2\n  swap1\n  pop\n  pop\n  pop\n    /* \"Factory.sol\":529:541  _feeToSetter */\n  dup1\n    /* \"Factory.sol\":515:526  feeToSetter */\n  0x01\n  0x00\n    /* \"Factory.sol\":515:541  feeToSetter = _feeToSetter */\n  0x0100\n  exp\n  dup2\n  sload\n  dup2\n  0xffffffffffffffffffffffffffffffffffffffff\n  mul\n  not\n  and\n  swap1\n  dup4\n  0xffffffffffffffffffffffffffffffffffffffff\n  and\n  mul\n  or\n  swap1\n  sstore\n  pop\n    /* \"Factory.sol\":464:548  constructor(address _feeToSetter) public {... */\n  pop\n    /* \"Factory.sol\":123:1958  contract UniswapV2Factory is IUniswapV2Factory {... */\n  dataSize(sub_0)\n  dup1\n  dataOffset(sub_0)\n  0x00\n  codecopy\n  0x00\n  return\nstop\n\nsub_0: assembly {\n        /* \"Factory.sol\":123:1958  contract UniswapV2Factory is IUniswapV2Factory {... */\n      mstore(0x40, 0x80)\n      callvalue\n      dup1\n      iszero\n      tag_1\n      jumpi\n      0x00\n      dup1\n      revert\n    tag_1:\n      pop\n      jumpi(tag_2, lt(calldatasize, 0x04))\n      shr(0xe0, calldataload(0x00))\n      dup1\n      0xa2e74af6\n      gt\n      tag_11\n      jumpi\n      dup1\n      0xa2e74af6\n      eq\n      tag_7\n      jumpi\n      dup1\n      0xc9c65396\n      eq\n      tag_8\n      jumpi\n      dup1\n      0xe6a43905\n      eq\n      tag_9\n      jumpi\n      dup1\n      0xf46901ed\n      eq\n      tag_10\n      jumpi\n      jump(tag_2)\n    tag_11:\n      dup1\n      0x017e7e58\n      eq\n      tag_3\n      jumpi\n      dup1\n      0x094b7415\n      eq\n      tag_4\n      jumpi\n      dup1\n      0x1e3dd18b\n      eq\n      tag_5\n      jumpi\n      dup1\n      0x574f2ba3\n      eq\n      tag_6\n      jumpi\n    tag_2:\n      0x00\n      dup1\n      revert\n        /* \"Factory.sol\":176:205  address public override feeTo */\n    tag_3:\n      tag_12\n      tag_13\n      jump\t// in\n    tag_12:\n      mload(0x40)\n      dup1\n      dup3\n      0xffffffffffffffffffffffffffffffffffffffff\n      and\n      dup2\n      mstore\n      0x20\n      add\n      swap2\n      pop\n      pop\n      mload(0x40)\n      dup1\n      swap2\n      sub\n      swap1\n      return\n        /* \"Factory.sol\":211:246  address public override feeToSetter */\n    tag_4:\n      tag_14\n      tag_15\n      jump\t// in\n    tag_14:\n      mload(0x40)\n      dup1\n      dup3\n      0xffffffffffffffffffffffffffffffffffffffff\n      and\n      dup2\n      mstore\n      0x20\n      add\n      swap2\n      pop\n      pop\n      mload(0x40)\n      dup1\n      swap2\n      sub\n      swap1\n      return\n        /* \"Factory.sol\":330:364  address[] public override allPairs */\n    tag_5:\n      tag_16\n      0x04\n      dup1\n      calldatasize\n      sub\n      0x20\n      dup2\n      lt\n      iszero\n      tag_17\n      jumpi\n      0x00\n      dup1\n      revert\n    tag_17:\n      dup2\n      add\n      swap1\n      dup1\n      dup1\n      calldataload\n      swap1\n      0x20\n      add\n      swap1\n      swap3\n      swap2\n      swap1\n      pop\n      pop\n      pop\n      tag_18\n      jump\t// in\n    tag_16:\n      mload(0x40)\n      dup1\n      dup3\n      0xffffffffffffffffffffffffffffffffffffffff\n      and\n      dup2\n      mstore\n      0x20\n      add\n      swap2\n      pop\n      pop\n      mload(0x40)\n      dup1\n      swap2\n      sub\n      swap1\n      return\n        /* \"Factory.sol\":554:657  function allPairsLength() external override view returns (uint) {... */\n    tag_6:\n      tag_19\n      tag_20\n      jump\t// in\n    tag_19:\n      mload(0x40)\n      dup1\n      dup3\n      dup2\n      mstore\n      0x20\n      add\n      swap2\n      pop\n      pop\n      mload(0x40)\n      dup1\n      swap2\n      sub\n      swap1\n      return\n        /* \"Factory.sol\":1782:1956  function setFeeToSetter(address _feeToSetter) external override{... */\n    tag_7:\n      tag_21\n      0x04\n      dup1\n      calldatasize\n      sub\n      0x20\n      dup2\n      lt\n      iszero\n      tag_22\n      jumpi\n      0x00\n      dup1\n      revert\n    tag_22:\n      dup2\n      add\n      swap1\n      dup1\n      dup1\n      calldataload\n      0xffffffffffffffffffffffffffffffffffffffff\n      and\n      swap1\n      0x20\n      add\n      swap1\n      swap3\n      swap2\n      swap1\n      pop\n      pop\n      pop\n      tag_23\n      jump\t// in\n    tag_21:\n      stop\n        /* \"Factory.sol\":663:1619  function createPair(address tokenA, address tokenB) external override returns (address pair) {... */\n    tag_8:\n      tag_24\n      0x04\n      dup1\n      calldatasize\n      sub\n      0x40\n      dup2\n      lt\n      iszero\n      tag_25\n      jumpi\n      0x00\n      dup1\n      revert\n    tag_25:\n      dup2\n      add\n      swap1\n      dup1\n      dup1\n      calldataload\n      0xffffffffffffffffffffffffffffffffffffffff\n      and\n      swap1\n      0x20\n      add\n      swap1\n      swap3\n      swap2\n      swap1\n      dup1\n      calldataload\n      0xffffffffffffffffffffffffffffffffffffffff\n      and\n      swap1\n      0x20\n      add\n      swap1\n      swap3\n      swap2\n      swap1\n      pop\n      pop\n      pop\n      tag_26\n      jump\t// in\n    tag_24:\n      mload(0x40)\n      dup1\n      dup3\n      0xffffffffffffffffffffffffffffffffffffffff\n      and\n      dup2\n      mstore\n      0x20\n      add\n      swap2\n      pop\n      pop\n      mload(0x40)\n      dup1\n      swap2\n      sub\n      swap1\n      return\n        /* \"Factory.sol\":253:324  mapping(address => mapping(address => address)) public override getPair */\n    tag_9:\n      tag_27\n      0x04\n      dup1\n      calldatasize\n      sub\n      0x40\n      dup2\n      lt\n      iszero\n      tag_28\n      jumpi\n      0x00\n      dup1\n      revert\n    tag_28:\n      dup2\n      add\n      swap1\n      dup1\n      dup1\n      calldataload\n      0xffffffffffffffffffffffffffffffffffffffff\n      and\n      swap1\n      0x20\n      add\n      swap1\n      swap3\n      swap2\n      swap1\n      dup1\n      calldataload\n      0xffffffffffffffffffffffffffffffffffffffff\n      and\n      swap1\n      0x20\n      add\n      swap1\n      swap3\n      swap2\n      swap1\n      pop\n      pop\n      pop\n      tag_29\n      jump\t// in\n    tag_27:\n      mload(0x40)\n      dup1\n      dup3\n      0xffffffffffffffffffffffffffffffffffffffff\n      and\n      dup2\n      mstore\n      0x20\n      add\n      swap2\n      pop\n      pop\n      mload(0x40)\n      dup1\n      swap2\n      sub\n      swap1\n      return\n        /* \"Factory.sol\":1625:1776  function setFeeTo(address _feeTo) external override {... */\n    tag_10:\n      tag_30\n      0x04\n      dup1\n      calldatasize\n      sub\n      0x20\n      dup2\n      lt\n      iszero\n      tag_31\n      jumpi\n      0x00\n      dup1\n      revert\n    tag_31:\n      dup2\n      add\n      swap1\n      dup1\n      dup1\n      calldataload\n      0xffffffffffffffffffffffffffffffffffffffff\n      and\n      swap1\n      0x20\n      add\n      swap1\n      swap3\n      swap2\n      swap1\n      pop\n      pop\n      pop\n      tag_32\n      jump\t// in\n    tag_30:\n      stop\n        /* \"Factory.sol\":176:205  address public override feeTo */\n    tag_13:\n      0x00\n      dup1\n      sload\n      swap1\n      0x0100\n      exp\n      swap1\n      div\n      0xffffffffffffffffffffffffffffffffffffffff\n      and\n      dup2\n      jump\t// out\n        /* \"Factory.sol\":211:246  address public override feeToSetter */\n    tag_15:\n      0x01\n      0x00\n      swap1\n      sload\n      swap1\n      0x0100\n      exp\n      swap1\n      div\n      0xffffffffffffffffffffffffffffffffffffffff\n      and\n      dup2\n      jump\t// out\n        /* \"Factory.sol\":330:364  address[] public override allPairs */\n    tag_18:\n      0x03\n      dup2\n      dup2\n      sload\n      dup2\n      lt\n      tag_33\n      jumpi\n      invalid\n    tag_33:\n      swap1\n      0x00\n      mstore\n      keccak256(0x00, 0x20)\n      add\n      0x00\n      swap2\n      pop\n      sload\n      swap1\n      0x0100\n      exp\n      swap1\n      div\n      0xffffffffffffffffffffffffffffffffffffffff\n      and\n      dup2\n      jump\t// out\n        /* \"Factory.sol\":554:657  function allPairsLength() external override view returns (uint) {... */\n    tag_20:\n        /* \"Factory.sol\":612:616  uint */\n      0x00\n        /* \"Factory.sol\":635:643  allPairs */\n      0x03\n        /* \"Factory.sol\":635:650  allPairs.length */\n      dup1\n      sload\n      swap1\n      pop\n        /* \"Factory.sol\":628:650  return allPairs.length */\n      swap1\n      pop\n        /* \"Factory.sol\":554:657  function allPairsLength() external override view returns (uint) {... */\n      swap1\n      jump\t// out\n        /* \"Factory.sol\":1782:1956  function setFeeToSetter(address _feeToSetter) external override{... */\n    tag_23:\n        /* \"Factory.sol\":1877:1888  feeToSetter */\n      0x01\n      0x00\n      swap1\n      sload\n      swap1\n      0x0100\n      exp\n      swap1\n      div\n      0xffffffffffffffffffffffffffffffffffffffff\n      and\n        /* \"Factory.sol\":1863:1888  msg.sender == feeToSetter */\n      0xffffffffffffffffffffffffffffffffffffffff\n      and\n        /* \"Factory.sol\":1863:1873  msg.sender */\n      caller\n        /* \"Factory.sol\":1863:1888  msg.sender == feeToSetter */\n      0xffffffffffffffffffffffffffffffffffffffff\n      and\n      eq\n        /* \"Factory.sol\":1855:1913  require(msg.sender == feeToSetter, 'UniswapV2: FORBIDDEN') */\n      tag_37\n      jumpi\n      mload(0x40)\n      0x08c379a000000000000000000000000000000000000000000000000000000000\n      dup2\n      mstore\n      0x04\n      add\n      dup1\n      dup1\n      0x20\n      add\n      dup3\n      dup2\n      sub\n      dup3\n      mstore\n      0x14\n      dup2\n      mstore\n      0x20\n      add\n      dup1\n      0x556e697377617056323a20464f5242494444454e000000000000000000000000\n      dup2\n      mstore\n      pop\n      0x20\n      add\n      swap2\n      pop\n      pop\n      mload(0x40)\n      dup1\n      swap2\n      sub\n      swap1\n      revert\n    tag_37:\n        /* \"Factory.sol\":1937:1949  _feeToSetter */\n      dup1\n        /* \"Factory.sol\":1923:1934  feeToSetter */\n      0x01\n      0x00\n        /* \"Factory.sol\":1923:1949  feeToSetter = _feeToSetter */\n      0x0100\n      exp\n      dup2\n      sload\n      dup2\n      0xffffffffffffffffffffffffffffffffffffffff\n      mul\n      not\n      and\n      swap1\n      dup4\n      0xffffffffffffffffffffffffffffffffffffffff\n      and\n      mul\n      or\n      swap1\n      sstore\n      pop\n        /* \"Factory.sol\":1782:1956  function setFeeToSetter(address _feeToSetter) external override{... */\n      pop\n      jump\t// out\n        /* \"Factory.sol\":663:1619  function createPair(address tokenA, address tokenB) external override returns (address pair) {... */\n    tag_26:\n        /* \"Factory.sol\":742:754  address pair */\n      0x00\n        /* \"Factory.sol\":784:790  tokenB */\n      dup2\n        /* \"Factory.sol\":774:790  tokenA != tokenB */\n      0xffffffffffffffffffffffffffffffffffffffff\n      and\n        /* \"Factory.sol\":774:780  tokenA */\n      dup4\n        /* \"Factory.sol\":774:790  tokenA != tokenB */\n      0xffffffffffffffffffffffffffffffffffffffff\n      and\n      eq\n      iszero\n        /* \"Factory.sol\":766:825  require(tokenA != tokenB, 'UniswapV2: IDENTICAL_ADDRESSES') */\n      tag_39\n      jumpi\n      mload(0x40)\n      0x08c379a000000000000000000000000000000000000000000000000000000000\n      dup2\n      mstore\n      0x04\n      add\n      dup1\n      dup1\n      0x20\n      add\n      dup3\n      dup2\n      sub\n      dup3\n      mstore\n      0x1e\n      dup2\n      mstore\n      0x20\n      add\n      dup1\n      0x556e697377617056323a204944454e544943414c5f4144445245535345530000\n      dup2\n      mstore\n      pop\n      0x20\n      add\n      swap2\n      pop\n      pop\n      mload(0x40)\n      dup1\n      swap2\n      sub\n      swap1\n      revert\n    tag_39:\n        /* \"Factory.sol\":836:850  address token0 */\n      0x00\n        /* \"Factory.sol\":852:866  address token1 */\n      dup1\n        /* \"Factory.sol\":879:885  tokenB */\n      dup4\n        /* \"Factory.sol\":870:885  tokenA < tokenB */\n      0xffffffffffffffffffffffffffffffffffffffff\n      and\n        /* \"Factory.sol\":870:876  tokenA */\n      dup6\n        /* \"Factory.sol\":870:885  tokenA < tokenB */\n      0xffffffffffffffffffffffffffffffffffffffff\n      and\n      lt\n        /* \"Factory.sol\":870:923  tokenA < tokenB ? (tokenA, tokenB) : (tokenB, tokenA) */\n      tag_40\n      jumpi\n        /* \"Factory.sol\":908:914  tokenB */\n      dup4\n        /* \"Factory.sol\":916:922  tokenA */\n      dup6\n        /* \"Factory.sol\":870:923  tokenA < tokenB ? (tokenA, tokenB) : (tokenB, tokenA) */\n      jump(tag_41)\n    tag_40:\n        /* \"Factory.sol\":889:895  tokenA */\n      dup5\n        /* \"Factory.sol\":897:903  tokenB */\n      dup5\n        /* \"Factory.sol\":870:923  tokenA < tokenB ? (tokenA, tokenB) : (tokenB, tokenA) */\n    tag_41:\n        /* \"Factory.sol\":835:923  (address token0, address token1) = tokenA < tokenB ? (tokenA, tokenB) : (tokenB, tokenA) */\n      swap2\n      pop\n      swap2\n      pop\n        /* \"Factory.sol\":959:960  0 */\n      0x00\n        /* \"Factory.sol\":941:961  token0 != address(0) */\n      0xffffffffffffffffffffffffffffffffffffffff\n      and\n        /* \"Factory.sol\":941:947  token0 */\n      dup3\n        /* \"Factory.sol\":941:961  token0 != address(0) */\n      0xffffffffffffffffffffffffffffffffffffffff\n      and\n      eq\n      iszero\n        /* \"Factory.sol\":933:989  require(token0 != address(0), 'UniswapV2: ZERO_ADDRESS') */\n      tag_42\n      jumpi\n      mload(0x40)\n      0x08c379a000000000000000000000000000000000000000000000000000000000\n      dup2\n      mstore\n      0x04\n      add\n      dup1\n      dup1\n      0x20\n      add\n      dup3\n      dup2\n      sub\n      dup3\n      mstore\n      0x17\n      dup2\n      mstore\n      0x20\n      add\n      dup1\n      0x556e697377617056323a205a45524f5f41444452455353000000000000000000\n      dup2\n      mstore\n      pop\n      0x20\n      add\n      swap2\n      pop\n      pop\n      mload(0x40)\n      dup1\n      swap2\n      sub\n      swap1\n      revert\n    tag_42:\n        /* \"Factory.sol\":1042:1043  0 */\n      0x00\n        /* \"Factory.sol\":1007:1044  getPair[token0][token1] == address(0) */\n      0xffffffffffffffffffffffffffffffffffffffff\n      and\n        /* \"Factory.sol\":1007:1014  getPair */\n      0x02\n        /* \"Factory.sol\":1007:1022  getPair[token0] */\n      0x00\n        /* \"Factory.sol\":1015:1021  token0 */\n      dup5\n        /* \"Factory.sol\":1007:1022  getPair[token0] */\n      0xffffffffffffffffffffffffffffffffffffffff\n      and\n      0xffffffffffffffffffffffffffffffffffffffff\n      and\n      dup2\n      mstore\n      0x20\n      add\n      swap1\n      dup2\n      mstore\n      0x20\n      add\n      0x00\n      keccak256\n        /* \"Factory.sol\":1007:1030  getPair[token0][token1] */\n      0x00\n        /* \"Factory.sol\":1023:1029  token1 */\n      dup4\n        /* \"Factory.sol\":1007:1030  getPair[token0][token1] */\n      0xffffffffffffffffffffffffffffffffffffffff\n      and\n      0xffffffffffffffffffffffffffffffffffffffff\n      and\n      dup2\n      mstore\n      0x20\n      add\n      swap1\n      dup2\n      mstore\n      0x20\n      add\n      0x00\n      keccak256\n      0x00\n      swap1\n      sload\n      swap1\n      0x0100\n      exp\n      swap1\n      div\n      0xffffffffffffffffffffffffffffffffffffffff\n      and\n        /* \"Factory.sol\":1007:1044  getPair[token0][token1] == address(0) */\n      0xffffffffffffffffffffffffffffffffffffffff\n      and\n      eq\n        /* \"Factory.sol\":999:1071  require(getPair[token0][token1] == address(0), 'UniswapV2: PAIR_EXISTS') */\n      tag_43\n      jumpi\n      mload(0x40)\n      0x08c379a000000000000000000000000000000000000000000000000000000000\n      dup2\n      mstore\n      0x04\n      add\n      dup1\n      dup1\n      0x20\n      add\n      dup3\n      dup2\n      sub\n      dup3\n      mstore\n      0x16\n      dup2\n      mstore\n      0x20\n      add\n      dup1\n      0x556e697377617056323a20504149525f45584953545300000000000000000000\n      dup2\n      mstore\n      pop\n      0x20\n      add\n      swap2\n      pop\n      pop\n      mload(0x40)\n      dup1\n      swap2\n      sub\n      swap1\n      revert\n    tag_43:\n        /* \"Factory.sol\":1111:1132  bytes memory bytecode */\n      0x60\n        /* \"Factory.sol\":1135:1167  type(UniswapV2Pair).creationCode */\n      mload(0x40)\n      dup1\n      0x20\n      add\n      tag_44\n      swap1\n      tag_45\n      jump\t// in\n    tag_44:\n      0x20\n      dup3\n      add\n      dup2\n      sub\n      dup3\n      mstore\n      not(0x1f)\n      0x1f\n      dup3\n      add\n      and\n      0x40\n      mstore\n      pop\n        /* \"Factory.sol\":1111:1167  bytes memory bytecode = type(UniswapV2Pair).creationCode */\n      swap1\n      pop\n        /* \"Factory.sol\":1177:1189  bytes32 salt */\n      0x00\n        /* \"Factory.sol\":1219:1225  token0 */\n      dup4\n        /* \"Factory.sol\":1227:1233  token1 */\n      dup4\n        /* \"Factory.sol\":1202:1234  abi.encodePacked(token0, token1) */\n      add(0x20, mload(0x40))\n      dup1\n      dup4\n      0xffffffffffffffffffffffffffffffffffffffff\n      and\n      0x60\n      shl\n      dup2\n      mstore\n      0x14\n      add\n      dup3\n      0xffffffffffffffffffffffffffffffffffffffff\n      and\n      0x60\n      shl\n      dup2\n      mstore\n      0x14\n      add\n      swap3\n      pop\n      pop\n      pop\n      mload(0x40)\n      0x20\n      dup2\n      dup4\n      sub\n      sub\n      dup2\n      mstore\n      swap1\n      0x40\n      mstore\n        /* \"Factory.sol\":1192:1235  keccak256(abi.encodePacked(token0, token1)) */\n      dup1\n      mload\n      swap1\n      0x20\n      add\n      keccak256\n        /* \"Factory.sol\":1177:1235  bytes32 salt = keccak256(abi.encodePacked(token0, token1)) */\n      swap1\n      pop\n        /* \"Factory.sol\":1323:1327  salt */\n      dup1\n        /* \"Factory.sol\":1312:1320  bytecode */\n      dup3\n        /* \"Factory.sol\":1306:1321  mload(bytecode) */\n      mload\n        /* \"Factory.sol\":1301:1303  32 */\n      0x20\n        /* \"Factory.sol\":1291:1299  bytecode */\n      dup5\n        /* \"Factory.sol\":1287:1304  add(bytecode, 32) */\n      add\n        /* \"Factory.sol\":1284:1285  0 */\n      0x00\n        /* \"Factory.sol\":1276:1328  create2(0, add(bytecode, 32), mload(bytecode), salt) */\n      create2\n        /* \"Factory.sol\":1268:1328  pair := create2(0, add(bytecode, 32), mload(bytecode), salt) */\n      swap5\n      pop\n        /* \"Factory.sol\":1361:1365  pair */\n      dup5\n        /* \"Factory.sol\":1347:1377  UniswapV2Pair(pair).initialize */\n      0xffffffffffffffffffffffffffffffffffffffff\n      and\n      0x485cc955\n        /* \"Factory.sol\":1378:1384  token0 */\n      dup6\n        /* \"Factory.sol\":1386:1392  token1 */\n      dup6\n        /* \"Factory.sol\":1347:1393  UniswapV2Pair(pair).initialize(token0, token1) */\n      mload(0x40)\n      dup4\n      0xffffffff\n      and\n      0xe0\n      shl\n      dup2\n      mstore\n      0x04\n      add\n      dup1\n      dup4\n      0xffffffffffffffffffffffffffffffffffffffff\n      and\n      dup2\n      mstore\n      0x20\n      add\n      dup3\n      0xffffffffffffffffffffffffffffffffffffffff\n      and\n      dup2\n      mstore\n      0x20\n      add\n      swap3\n      pop\n      pop\n      pop\n      0x00\n      mload(0x40)\n      dup1\n      dup4\n      sub\n      dup2\n      0x00\n      dup8\n      dup1\n      extcodesize\n      iszero\n      dup1\n      iszero\n      tag_46\n      jumpi\n      0x00\n      dup1\n      revert\n    tag_46:\n      pop\n      gas\n      call\n      iszero\n      dup1\n      iszero\n      tag_48\n      jumpi\n      returndatasize\n      0x00\n      dup1\n      returndatacopy\n      revert(0x00, returndatasize)\n    tag_48:\n      pop\n      pop\n      pop\n      pop\n        /* \"Factory.sol\":1429:1433  pair */\n      dup5\n        /* \"Factory.sol\":1403:1410  getPair */\n      0x02\n        /* \"Factory.sol\":1403:1418  getPair[token0] */\n      0x00\n        /* \"Factory.sol\":1411:1417  token0 */\n      dup7\n        /* \"Factory.sol\":1403:1418  getPair[token0] */\n      0xffffffffffffffffffffffffffffffffffffffff\n      and\n      0xffffffffffffffffffffffffffffffffffffffff\n      and\n      dup2\n      mstore\n      0x20\n      add\n      swap1\n      dup2\n      mstore\n      0x20\n      add\n      0x00\n      keccak256\n        /* \"Factory.sol\":1403:1426  getPair[token0][token1] */\n      0x00\n        /* \"Factory.sol\":1419:1425  token1 */\n      dup6\n        /* \"Factory.sol\":1403:1426  getPair[token0][token1] */\n      0xffffffffffffffffffffffffffffffffffffffff\n      and\n      0xffffffffffffffffffffffffffffffffffffffff\n      and\n      dup2\n      mstore\n      0x20\n      add\n      swap1\n      dup2\n      mstore\n      0x20\n      add\n      0x00\n      keccak256\n      0x00\n        /* \"Factory.sol\":1403:1433  getPair[token0][token1] = pair */\n      0x0100\n      exp\n      dup2\n      sload\n      dup2\n      0xffffffffffffffffffffffffffffffffffffffff\n      mul\n      not\n      and\n      swap1\n      dup4\n      0xffffffffffffffffffffffffffffffffffffffff\n      and\n      mul\n      or\n      swap1\n      sstore\n      pop\n        /* \"Factory.sol\":1469:1473  pair */\n      dup5\n        /* \"Factory.sol\":1443:1450  getPair */\n      0x02\n        /* \"Factory.sol\":1443:1458  getPair[token1] */\n      0x00\n        /* \"Factory.sol\":1451:1457  token1 */\n      dup6\n        /* \"Factory.sol\":1443:1458  getPair[token1] */\n      0xffffffffffffffffffffffffffffffffffffffff\n      and\n      0xffffffffffffffffffffffffffffffffffffffff\n      and\n      dup2\n      mstore\n      0x20\n      add\n      swap1\n      dup2\n      mstore\n      0x20\n      add\n      0x00\n      keccak256\n        /* \"Factory.sol\":1443:1466  getPair[token1][token0] */\n      0x00\n        /* \"Factory.sol\":1459:1465  token0 */\n      dup7\n        /* \"Factory.sol\":1443:1466  getPair[token1][token0] */\n      0xffffffffffffffffffffffffffffffffffffffff\n      and\n      0xffffffffffffffffffffffffffffffffffffffff\n      and\n      dup2\n      mstore\n      0x20\n      add\n      swap1\n      dup2\n      mstore\n      0x20\n      add\n      0x00\n      keccak256\n      0x00\n        /* \"Factory.sol\":1443:1473  getPair[token1][token0] = pair */\n      0x0100\n      exp\n      dup2\n      sload\n      dup2\n      0xffffffffffffffffffffffffffffffffffffffff\n      mul\n      not\n      and\n      swap1\n      dup4\n      0xffffffffffffffffffffffffffffffffffffffff\n      and\n      mul\n      or\n      swap1\n      sstore\n      pop\n        /* \"Factory.sol\":1528:1536  allPairs */\n      0x03\n        /* \"Factory.sol\":1542:1546  pair */\n      dup6\n        /* \"Factory.sol\":1528:1547  allPairs.push(pair) */\n      swap1\n      dup1\n      0x01\n      dup2\n      sload\n      add\n      dup1\n      dup3\n      sstore\n      dup1\n      swap2\n      pop\n      pop\n      0x01\n      swap1\n      sub\n      swap1\n      0x00\n      mstore\n      keccak256(0x00, 0x20)\n      add\n      0x00\n      swap1\n      swap2\n      swap1\n      swap2\n      swap1\n      swap2\n      0x0100\n      exp\n      dup2\n      sload\n      dup2\n      0xffffffffffffffffffffffffffffffffffffffff\n      mul\n      not\n      and\n      swap1\n      dup4\n      0xffffffffffffffffffffffffffffffffffffffff\n      and\n      mul\n      or\n      swap1\n      sstore\n      pop\n        /* \"Factory.sol\":1582:1588  token1 */\n      dup3\n        /* \"Factory.sol\":1562:1612  PairCreated(token0, token1, pair, allPairs.length) */\n      0xffffffffffffffffffffffffffffffffffffffff\n      and\n        /* \"Factory.sol\":1574:1580  token0 */\n      dup5\n        /* \"Factory.sol\":1562:1612  PairCreated(token0, token1, pair, allPairs.length) */\n      0xffffffffffffffffffffffffffffffffffffffff\n      and\n      0x0d3648bd0f6ba80134a33ba9275ac585d9d315f0ad8355cddefde31afa28d0e9\n        /* \"Factory.sol\":1590:1594  pair */\n      dup8\n        /* \"Factory.sol\":1596:1604  allPairs */\n      0x03\n        /* \"Factory.sol\":1596:1611  allPairs.length */\n      dup1\n      sload\n      swap1\n      pop\n        /* \"Factory.sol\":1562:1612  PairCreated(token0, token1, pair, allPairs.length) */\n      mload(0x40)\n      dup1\n      dup4\n      0xffffffffffffffffffffffffffffffffffffffff\n      and\n      dup2\n      mstore\n      0x20\n      add\n      dup3\n      dup2\n      mstore\n      0x20\n      add\n      swap3\n      pop\n      pop\n      pop\n      mload(0x40)\n      dup1\n      swap2\n      sub\n      swap1\n      log3\n        /* \"Factory.sol\":663:1619  function createPair(address tokenA, address tokenB) external override returns (address pair) {... */\n      pop\n      pop\n      pop\n      pop\n      swap3\n      swap2\n      pop\n      pop\n      jump\t// out\n        /* \"Factory.sol\":253:324  mapping(address => mapping(address => address)) public override getPair */\n    tag_29:\n      mstore(0x20, 0x02)\n      dup2\n      0x00\n      mstore\n      mstore(0x20, keccak256(0x00, 0x40))\n      dup1\n      0x00\n      mstore\n      keccak256(0x00, 0x40)\n      0x00\n      swap2\n      pop\n      swap2\n      pop\n      swap1\n      sload\n      swap1\n      0x0100\n      exp\n      swap1\n      div\n      0xffffffffffffffffffffffffffffffffffffffff\n      and\n      dup2\n      jump\t// out\n        /* \"Factory.sol\":1625:1776  function setFeeTo(address _feeTo) external override {... */\n    tag_32:\n        /* \"Factory.sol\":1709:1720  feeToSetter */\n      0x01\n      0x00\n      swap1\n      sload\n      swap1\n      0x0100\n      exp\n      swap1\n      div\n      0xffffffffffffffffffffffffffffffffffffffff\n      and\n        /* \"Factory.sol\":1695:1720  msg.sender == feeToSetter */\n      0xffffffffffffffffffffffffffffffffffffffff\n      and\n        /* \"Factory.sol\":1695:1705  msg.sender */\n      caller\n        /* \"Factory.sol\":1695:1720  msg.sender == feeToSetter */\n      0xffffffffffffffffffffffffffffffffffffffff\n      and\n      eq\n        /* \"Factory.sol\":1687:1745  require(msg.sender == feeToSetter, 'UniswapV2: FORBIDDEN') */\n      tag_51\n      jumpi\n      mload(0x40)\n      0x08c379a000000000000000000000000000000000000000000000000000000000\n      dup2\n      mstore\n      0x04\n      add\n      dup1\n      dup1\n      0x20\n      add\n      dup3\n      dup2\n      sub\n      dup3\n      mstore\n      0x14\n      dup2\n      mstore\n      0x20\n      add\n      dup1\n      0x556e697377617056323a20464f5242494444454e000000000000000000000000\n      dup2\n      mstore\n      pop\n      0x20\n      add\n      swap2\n      pop\n      pop\n      mload(0x40)\n      dup1\n      swap2\n      sub\n      swap1\n      revert\n    tag_51:\n        /* \"Factory.sol\":1763:1769  _feeTo */\n      dup1\n        /* \"Factory.sol\":1755:1760  feeTo */\n      0x00\n      dup1\n        /* \"Factory.sol\":1755:1769  feeTo = _feeTo */\n      0x0100\n      exp\n      dup2\n      sload\n      dup2\n      0xffffffffffffffffffffffffffffffffffffffff\n      mul\n      not\n      and\n      swap1\n      dup4\n      0xffffffffffffffffffffffffffffffffffffffff\n      and\n      mul\n      or\n      swap1\n      sstore\n      pop\n        /* \"Factory.sol\":1625:1776  function setFeeTo(address _feeTo) external override {... */\n      pop\n      jump\t// out\n    tag_45:\n      dataSize(sub_0)\n      dup1\n      dataOffset(sub_0)\n      dup4\n      codecopy\n      add\n      swap1\n      jump\t// out\n    stop\n\n    sub_0: assembly {\n            /* \"Pair.sol\":259:9540  contract UniswapV2Pair is ERC20 {... */\n          mstore(0x40, 0x80)\n            /* \"Pair.sol\":1972:2030  constructor() public {... */\n          callvalue\n          dup1\n          iszero\n          tag_1\n          jumpi\n          0x00\n          dup1\n          revert\n        tag_1:\n          pop\n            /* \"Pair.sol\":2013:2023  msg.sender */\n          caller\n            /* \"Pair.sol\":2003:2010  factory */\n          0x04\n          0x00\n            /* \"Pair.sol\":2003:2023  factory = msg.sender */\n          0x0100\n          exp\n          dup2\n          sload\n          dup2\n          0xffffffffffffffffffffffffffffffffffffffff\n          mul\n          not\n          and\n          swap1\n          dup4\n          0xffffffffffffffffffffffffffffffffffffffff\n          and\n          mul\n          or\n          swap1\n          sstore\n          pop\n            /* \"Pair.sol\":259:9540  contract UniswapV2Pair is ERC20 {... */\n          dataSize(sub_0)\n          dup1\n          dataOffset(sub_0)\n          0x00\n          codecopy\n          0x00\n          return\n        stop\n\n        sub_0: assembly {\n                /* \"Pair.sol\":259:9540  contract UniswapV2Pair is ERC20 {... */\n              mstore(0x40, 0x80)\n              callvalue\n              dup1\n              iszero\n              tag_1\n              jumpi\n              0x00\n              dup1\n              revert\n            tag_1:\n              pop\n              jumpi(tag_2, lt(calldatasize, 0x04))\n              shr(0xe0, calldataload(0x00))\n              dup1\n              0x70a08231\n              gt\n              tag_27\n              jumpi\n              dup1\n              0xba9a7a56\n              gt\n              tag_28\n              jumpi\n              dup1\n              0xba9a7a56\n              eq\n              tag_21\n              jumpi\n              dup1\n              0xbc25cf77\n              eq\n              tag_22\n              jumpi\n              dup1\n              0xc45a0155\n              eq\n              tag_23\n              jumpi\n              dup1\n              0xd21220a7\n              eq\n              tag_24\n              jumpi\n              dup1\n              0xdd62ed3e\n              eq\n              tag_25\n              jumpi\n              dup1\n              0xfff6cae9\n              eq\n              tag_26\n              jumpi\n              jump(tag_2)\n            tag_28:\n              dup1\n              0x70a08231\n              eq\n              tag_15\n              jumpi\n              dup1\n              0x7464fc3d\n              eq\n              tag_16\n              jumpi\n              dup1\n              0x7ecebe00\n              eq\n              tag_17\n              jumpi\n              dup1\n              0x89afcb44\n              eq\n              tag_18\n              jumpi\n              dup1\n              0x95d89b41\n              eq\n              tag_19\n              jumpi\n              dup1\n              0xa9059cbb\n              eq\n              tag_20\n              jumpi\n              jump(tag_2)\n            tag_27:\n              dup1\n              0x23b872dd\n              gt\n              tag_29\n              jumpi\n              dup1\n              0x23b872dd\n              eq\n              tag_9\n              jumpi\n              dup1\n              0x313ce567\n              eq\n              tag_10\n              jumpi\n              dup1\n              0x485cc955\n              eq\n              tag_11\n              jumpi\n              dup1\n              0x5909c0d5\n              eq\n              tag_12\n              jumpi\n              dup1\n              0x5a3d5493\n              eq\n              tag_13\n              jumpi\n              dup1\n              0x6a627842\n              eq\n              tag_14\n              jumpi\n              jump(tag_2)\n            tag_29:\n              dup1\n              0x022c0d9f\n              eq\n              tag_3\n              jumpi\n              dup1\n              0x06fdde03\n              eq\n              tag_4\n              jumpi\n              dup1\n              0x0902f1ac\n              eq\n              tag_5\n              jumpi\n              dup1\n              0x095ea7b3\n              eq\n              tag_6\n              jumpi\n              dup1\n              0x0dfe1681\n              eq\n              tag_7\n              jumpi\n              dup1\n              0x18160ddd\n              eq\n              tag_8\n              jumpi\n            tag_2:\n              0x00\n              dup1\n              revert\n                /* \"Pair.sol\":7114:8970  function swap(uint amount0Out, uint amount1Out, address to, bytes calldata data) external {... */\n            tag_3:\n              tag_30\n              0x04\n              dup1\n              calldatasize\n              sub\n              0x80\n              dup2\n              lt\n              iszero\n              tag_31\n              jumpi\n              0x00\n              dup1\n              revert\n            tag_31:\n              dup2\n              add\n              swap1\n              dup1\n              dup1\n              calldataload\n              swap1\n              0x20\n              add\n              swap1\n              swap3\n              swap2\n              swap1\n              dup1\n              calldataload\n              swap1\n              0x20\n              add\n              swap1\n              swap3\n              swap2\n              swap1\n              dup1\n              calldataload\n              0xffffffffffffffffffffffffffffffffffffffff\n              and\n              swap1\n              0x20\n              add\n              swap1\n              swap3\n              swap2\n              swap1\n              dup1\n              calldataload\n              swap1\n              0x20\n              add\n              swap1\n              0x0100000000\n              dup2\n              gt\n              iszero\n              tag_32\n              jumpi\n              0x00\n              dup1\n              revert\n            tag_32:\n              dup3\n              add\n              dup4\n              0x20\n              dup3\n              add\n              gt\n              iszero\n              tag_33\n              jumpi\n              0x00\n              dup1\n              revert\n            tag_33:\n              dup1\n              calldataload\n              swap1\n              0x20\n              add\n              swap2\n              dup5\n              0x01\n              dup4\n              mul\n              dup5\n              add\n              gt\n              0x0100000000\n              dup4\n              gt\n              or\n              iszero\n              tag_34\n              jumpi\n              0x00\n              dup1\n              revert\n            tag_34:\n              swap1\n              swap2\n              swap3\n              swap4\n              swap2\n              swap3\n              swap4\n              swap1\n              pop\n              pop\n              pop\n              tag_35\n              jump\t// in\n            tag_30:\n              stop\n                /* \"ERC20.sol\":151:193  string public constant name = 'Uniswap V2' */\n            tag_4:\n              tag_36\n              tag_37\n              jump\t// in\n            tag_36:\n              mload(0x40)\n              dup1\n              dup1\n              0x20\n              add\n              dup3\n              dup2\n              sub\n              dup3\n              mstore\n              dup4\n              dup2\n              dup2\n              mload\n              dup2\n              mstore\n              0x20\n              add\n              swap2\n              pop\n              dup1\n              mload\n              swap1\n              0x20\n              add\n              swap1\n              dup1\n              dup4\n              dup4\n              0x00\n            tag_38:\n              dup4\n              dup2\n              lt\n              iszero\n              tag_40\n              jumpi\n              dup1\n              dup3\n              add\n              mload\n              dup2\n              dup5\n              add\n              mstore\n              0x20\n              dup2\n              add\n              swap1\n              pop\n              jump(tag_38)\n            tag_40:\n              pop\n              pop\n              pop\n              pop\n              swap1\n              pop\n              swap1\n              dup2\n              add\n              swap1\n              0x1f\n              and\n              dup1\n              iszero\n              tag_41\n              jumpi\n              dup1\n              dup3\n              sub\n              dup1\n              mload\n              0x01\n              dup4\n              0x20\n              sub\n              0x0100\n              exp\n              sub\n              not\n              and\n              dup2\n              mstore\n              0x20\n              add\n              swap2\n              pop\n            tag_41:\n              pop\n              swap3\n              pop\n              pop\n              pop\n              mload(0x40)\n              dup1\n              swap2\n              sub\n              swap1\n              return\n                /* \"Pair.sol\":1060:1287  function getReserves() public view returns (uint112 _reserve0, uint112 _reserve1, uint32 _blockTimestampLast) {... */\n            tag_5:\n              tag_42\n              tag_43\n              jump\t// in\n            tag_42:\n              mload(0x40)\n              dup1\n              dup5\n              0xffffffffffffffffffffffffffff\n              and\n              dup2\n              mstore\n              0x20\n              add\n              dup4\n              0xffffffffffffffffffffffffffff\n              and\n              dup2\n              mstore\n              0x20\n              add\n              dup3\n              0xffffffff\n              and\n              dup2\n              mstore\n              0x20\n              add\n              swap4\n              pop\n              pop\n              pop\n              pop\n              mload(0x40)\n              dup1\n              swap2\n              sub\n              swap1\n              return\n                /* \"ERC20.sol\":1477:1621  function approve(address spender, uint value) external returns (bool) {... */\n            tag_6:\n              tag_44\n              0x04\n              dup1\n              calldatasize\n              sub\n              0x40\n              dup2\n              lt\n              iszero\n              tag_45\n              jumpi\n              0x00\n              dup1\n              revert\n            tag_45:\n              dup2\n              add\n              swap1\n              dup1\n              dup1\n              calldataload\n              0xffffffffffffffffffffffffffffffffffffffff\n              and\n              swap1\n              0x20\n              add\n              swap1\n              swap3\n              swap2\n              swap1\n              dup1\n              calldataload\n              swap1\n              0x20\n              add\n              swap1\n              swap3\n              swap2\n              swap1\n              pop\n              pop\n              pop\n              tag_46\n              jump\t// in\n            tag_44:\n              mload(0x40)\n              dup1\n              dup3\n              iszero\n              iszero\n              dup2\n              mstore\n              0x20\n              add\n              swap2\n              pop\n              pop\n              mload(0x40)\n              dup1\n              swap2\n              sub\n              swap1\n              return\n                /* \"Pair.sol\":536:557  address public token0 */\n            tag_7:\n              tag_47\n              tag_48\n              jump\t// in\n            tag_47:\n              mload(0x40)\n              dup1\n              dup3\n              0xffffffffffffffffffffffffffffffffffffffff\n              and\n              dup2\n              mstore\n              0x20\n              add\n              swap2\n              pop\n              pop\n              mload(0x40)\n              dup1\n              swap2\n              sub\n              swap1\n              return\n                /* \"ERC20.sol\":286:311  uint  public  totalSupply */\n            tag_8:\n              tag_49\n              tag_50\n              jump\t// in\n            tag_49:\n              mload(0x40)\n              dup1\n              dup3\n              dup2\n              mstore\n              0x20\n              add\n              swap2\n              pop\n              pop\n              mload(0x40)\n              dup1\n              swap2\n              sub\n              swap1\n              return\n                /* \"ERC20.sol\":1769:2065  function transferFrom(address from, address to, uint value) external  returns (bool) {... */\n            tag_9:\n              tag_51\n              0x04\n              dup1\n              calldatasize\n              sub\n              0x60\n              dup2\n              lt\n              iszero\n              tag_52\n              jumpi\n              0x00\n              dup1\n              revert\n            tag_52:\n              dup2\n              add\n              swap1\n              dup1\n              dup1\n              calldataload\n              0xffffffffffffffffffffffffffffffffffffffff\n              and\n              swap1\n              0x20\n              add\n              swap1\n              swap3\n              swap2\n              swap1\n              dup1\n              calldataload\n              0xffffffffffffffffffffffffffffffffffffffff\n              and\n              swap1\n              0x20\n              add\n              swap1\n              swap3\n              swap2\n              swap1\n              dup1\n              calldataload\n              swap1\n              0x20\n              add\n              swap1\n              swap3\n              swap2\n              swap1\n              pop\n              pop\n              pop\n              tag_53\n              jump\t// in\n            tag_51:\n              mload(0x40)\n              dup1\n              dup3\n              iszero\n              iszero\n              dup2\n              mstore\n              0x20\n              add\n              swap2\n              pop\n              pop\n              mload(0x40)\n              dup1\n              swap2\n              sub\n              swap1\n              return\n                /* \"ERC20.sol\":245:280  uint8 public constant decimals = 18 */\n            tag_10:\n              tag_54\n              tag_55\n              jump\t// in\n            tag_54:\n              mload(0x40)\n              dup1\n              dup3\n              0xff\n              and\n              dup2\n              mstore\n              0x20\n              add\n              swap2\n              pop\n              pop\n              mload(0x40)\n              dup1\n              swap2\n              sub\n              swap1\n              return\n                /* \"Pair.sol\":2092:2298  function initialize(address _token0, address _token1) external {... */\n            tag_11:\n              tag_56\n              0x04\n              dup1\n              calldatasize\n              sub\n              0x40\n              dup2\n              lt\n              iszero\n              tag_57\n              jumpi\n              0x00\n              dup1\n              revert\n            tag_57:\n              dup2\n              add\n              swap1\n              dup1\n              dup1\n              calldataload\n              0xffffffffffffffffffffffffffffffffffffffff\n              and\n              swap1\n              0x20\n              add\n              swap1\n              swap3\n              swap2\n              swap1\n              dup1\n              calldataload\n              0xffffffffffffffffffffffffffffffffffffffff\n              and\n              swap1\n              0x20\n              add\n              swap1\n              swap3\n              swap2\n              swap1\n              pop\n              pop\n              pop\n              tag_58\n              jump\t// in\n            tag_56:\n              stop\n                /* \"Pair.sol\":880:912  uint public price0CumulativeLast */\n            tag_12:\n              tag_59\n              tag_60\n              jump\t// in\n            tag_59:\n              mload(0x40)\n              dup1\n              dup3\n              dup2\n              mstore\n              0x20\n              add\n              swap2\n              pop\n              pop\n              mload(0x40)\n              dup1\n              swap2\n              sub\n              swap1\n              return\n                /* \"Pair.sol\":918:950  uint public price1CumulativeLast */\n            tag_13:\n              tag_61\n              tag_62\n              jump\t// in\n            tag_61:\n              mload(0x40)\n              dup1\n              dup3\n              dup2\n              mstore\n              0x20\n              add\n              swap2\n              pop\n              pop\n              mload(0x40)\n              dup1\n              swap2\n              sub\n              swap1\n              return\n                /* \"Pair.sol\":4242:5457  function mint(address to) external  returns (uint liquidity) {... */\n            tag_14:\n              tag_63\n              0x04\n              dup1\n              calldatasize\n              sub\n              0x20\n              dup2\n              lt\n              iszero\n              tag_64\n              jumpi\n              0x00\n              dup1\n              revert\n            tag_64:\n              dup2\n              add\n              swap1\n              dup1\n              dup1\n              calldataload\n              0xffffffffffffffffffffffffffffffffffffffff\n              and\n              swap1\n              0x20\n              add\n              swap1\n              swap3\n              swap2\n              swap1\n              pop\n              pop\n              pop\n              tag_65\n              jump\t// in\n            tag_63:\n              mload(0x40)\n              dup1\n              dup3\n              dup2\n              mstore\n              0x20\n              add\n              swap2\n              pop\n              pop\n              mload(0x40)\n              dup1\n              swap2\n              sub\n              swap1\n              return\n                /* \"ERC20.sol\":317:359  mapping(address => uint) public  balanceOf */\n            tag_15:\n              tag_66\n              0x04\n              dup1\n              calldatasize\n              sub\n              0x20\n              dup2\n              lt\n              iszero\n              tag_67\n              jumpi\n              0x00\n              dup1\n              revert\n            tag_67:\n              dup2\n              add\n              swap1\n              dup1\n              dup1\n              calldataload\n              0xffffffffffffffffffffffffffffffffffffffff\n              and\n              swap1\n              0x20\n              add\n              swap1\n              swap3\n              swap2\n              swap1\n              pop\n              pop\n              pop\n              tag_68\n              jump\t// in\n            tag_66:\n              mload(0x40)\n              dup1\n              dup3\n              dup2\n              mstore\n              0x20\n              add\n              swap2\n              pop\n              pop\n              mload(0x40)\n              dup1\n              swap2\n              sub\n              swap1\n              return\n                /* \"Pair.sol\":956:973  uint public kLast */\n            tag_16:\n              tag_69\n              tag_70\n              jump\t// in\n            tag_69:\n              mload(0x40)\n              dup1\n              dup3\n              dup2\n              mstore\n              0x20\n              add\n              swap2\n              pop\n              pop\n              mload(0x40)\n              dup1\n              swap2\n              sub\n              swap1\n              return\n                /* \"ERC20.sol\":433:471  mapping(address => uint) public nonces */\n            tag_17:\n              tag_71\n              0x04\n              dup1\n              calldatasize\n              sub\n              0x20\n              dup2\n              lt\n              iszero\n              tag_72\n              jumpi\n              0x00\n              dup1\n              revert\n            tag_72:\n              dup2\n              add\n              swap1\n              dup1\n              dup1\n              calldataload\n              0xffffffffffffffffffffffffffffffffffffffff\n              and\n              swap1\n              0x20\n              add\n              swap1\n              swap3\n              swap2\n              swap1\n              pop\n              pop\n              pop\n              tag_73\n              jump\t// in\n            tag_71:\n              mload(0x40)\n              dup1\n              dup3\n              dup2\n              mstore\n              0x20\n              add\n              swap2\n              pop\n              pop\n              mload(0x40)\n              dup1\n              swap2\n              sub\n              swap1\n              return\n                /* \"Pair.sol\":5566:7005  function burn(address to) external returns (uint amount0, uint amount1) {... */\n            tag_18:\n              tag_74\n              0x04\n              dup1\n              calldatasize\n              sub\n              0x20\n              dup2\n              lt\n              iszero\n              tag_75\n              jumpi\n              0x00\n              dup1\n              revert\n            tag_75:\n              dup2\n              add\n              swap1\n              dup1\n              dup1\n              calldataload\n              0xffffffffffffffffffffffffffffffffffffffff\n              and\n              swap1\n              0x20\n              add\n              swap1\n              swap3\n              swap2\n              swap1\n              pop\n              pop\n              pop\n              tag_76\n              jump\t// in\n            tag_74:\n              mload(0x40)\n              dup1\n              dup4\n              dup2\n              mstore\n              0x20\n              add\n              dup3\n              dup2\n              mstore\n              0x20\n              add\n              swap3\n              pop\n              pop\n              pop\n              mload(0x40)\n              dup1\n              swap2\n              sub\n              swap1\n              return\n                /* \"ERC20.sol\":199:239  string public constant symbol = 'UNI-V2' */\n            tag_19:\n              tag_77\n              tag_78\n              jump\t// in\n            tag_77:\n              mload(0x40)\n              dup1\n              dup1\n              0x20\n              add\n              dup3\n              dup2\n              sub\n              dup3\n              mstore\n              dup4\n              dup2\n              dup2\n              mload\n              dup2\n              mstore\n              0x20\n              add\n              swap2\n              pop\n              dup1\n              mload\n              swap1\n              0x20\n              add\n              swap1\n              dup1\n              dup4\n              dup4\n              0x00\n            tag_79:\n              dup4\n              dup2\n              lt\n              iszero\n              tag_81\n              jumpi\n              dup1\n              dup3\n              add\n              mload\n              dup2\n              dup5\n              add\n              mstore\n              0x20\n              dup2\n              add\n              swap1\n              pop\n              jump(tag_79)\n            tag_81:\n              pop\n              pop\n              pop\n              pop\n              swap1\n              pop\n              swap1\n              dup2\n              add\n              swap1\n              0x1f\n              and\n              dup1\n              iszero\n              tag_82\n              jumpi\n              dup1\n              dup3\n              sub\n              dup1\n              mload\n              0x01\n              dup4\n              0x20\n              sub\n              0x0100\n              exp\n              sub\n              not\n              and\n              dup2\n              mstore\n              0x20\n              add\n              swap2\n              pop\n            tag_82:\n              pop\n              swap3\n              pop\n              pop\n              pop\n              mload(0x40)\n              dup1\n              swap2\n              sub\n              swap1\n              return\n                /* \"ERC20.sol\":1627:1763  function transfer(address to, uint value) external returns (bool) {... */\n            tag_20:\n              tag_83\n              0x04\n              dup1\n              calldatasize\n              sub\n              0x40\n              dup2\n              lt\n              iszero\n              tag_84\n              jumpi\n              0x00\n              dup1\n              revert\n            tag_84:\n              dup2\n              add\n              swap1\n              dup1\n              dup1\n              calldataload\n              0xffffffffffffffffffffffffffffffffffffffff\n              and\n              swap1\n              0x20\n              add\n              swap1\n              swap3\n              swap2\n              swap1\n              dup1\n              calldataload\n              swap1\n              0x20\n              add\n              swap1\n              swap3\n              swap2\n              swap1\n              pop\n              pop\n              pop\n              tag_85\n              jump\t// in\n            tag_83:\n              mload(0x40)\n              dup1\n              dup3\n              iszero\n              iszero\n              dup2\n              mstore\n              0x20\n              add\n              swap2\n              pop\n              pop\n              mload(0x40)\n              dup1\n              swap2\n              sub\n              swap1\n              return\n                /* \"Pair.sol\":361:407  uint public constant MINIMUM_LIQUIDITY = 10**3 */\n            tag_21:\n              tag_86\n              tag_87\n              jump\t// in\n            tag_86:\n              mload(0x40)\n              dup1\n              dup3\n              dup2\n              mstore\n              0x20\n              add\n              swap2\n              pop\n              pop\n              mload(0x40)\n              dup1\n              swap2\n              sub\n              swap1\n              return\n                /* \"Pair.sol\":9016:9340  function skim(address to) external {... */\n            tag_22:\n              tag_88\n              0x04\n              dup1\n              calldatasize\n              sub\n              0x20\n              dup2\n              lt\n              iszero\n              tag_89\n              jumpi\n              0x00\n              dup1\n              revert\n            tag_89:\n              dup2\n              add\n              swap1\n              dup1\n              dup1\n              calldataload\n              0xffffffffffffffffffffffffffffffffffffffff\n              and\n              swap1\n              0x20\n              add\n              swap1\n              swap3\n              swap2\n              swap1\n              pop\n              pop\n              pop\n              tag_90\n              jump\t// in\n            tag_88:\n              stop\n                /* \"Pair.sol\":508:530  address public factory */\n            tag_23:\n              tag_91\n              tag_92\n              jump\t// in\n            tag_91:\n              mload(0x40)\n              dup1\n              dup3\n              0xffffffffffffffffffffffffffffffffffffffff\n              and\n              dup2\n              mstore\n              0x20\n              add\n              swap2\n              pop\n              pop\n              mload(0x40)\n              dup1\n              swap2\n              sub\n              swap1\n              return\n                /* \"Pair.sol\":563:584  address public token1 */\n            tag_24:\n              tag_93\n              tag_94\n              jump\t// in\n            tag_93:\n              mload(0x40)\n              dup1\n              dup3\n              0xffffffffffffffffffffffffffffffffffffffff\n              and\n              dup2\n              mstore\n              0x20\n              add\n              swap2\n              pop\n              pop\n              mload(0x40)\n              dup1\n              swap2\n              sub\n              swap1\n              return\n                /* \"ERC20.sol\":365:426  mapping(address => mapping(address => uint)) public allowance */\n            tag_25:\n              tag_95\n              0x04\n              dup1\n              calldatasize\n              sub\n              0x40\n              dup2\n              lt\n              iszero\n              tag_96\n              jumpi\n              0x00\n              dup1\n              revert\n            tag_96:\n              dup2\n              add\n              swap1\n              dup1\n              dup1\n              calldataload\n              0xffffffffffffffffffffffffffffffffffffffff\n              and\n              swap1\n              0x20\n              add\n              swap1\n              swap3\n              swap2\n              swap1\n              dup1\n              calldataload\n              0xffffffffffffffffffffffffffffffffffffffff\n              and\n              swap1\n              0x20\n              add\n              swap1\n              swap3\n              swap2\n              swap1\n              pop\n              pop\n              pop\n              tag_97\n              jump\t// in\n            tag_95:\n              mload(0x40)\n              dup1\n              dup3\n              dup2\n              mstore\n              0x20\n              add\n              swap2\n              pop\n              pop\n              mload(0x40)\n              dup1\n              swap2\n              sub\n              swap1\n              return\n                /* \"Pair.sol\":9386:9538  function sync() external  {... */\n            tag_26:\n              tag_98\n              tag_99\n              jump\t// in\n            tag_98:\n              stop\n                /* \"Pair.sol\":7114:8970  function swap(uint amount0Out, uint amount1Out, address to, bytes calldata data) external {... */\n            tag_35:\n                /* \"Pair.sol\":7235:7236  0 */\n              0x00\n                /* \"Pair.sol\":7222:7232  amount0Out */\n              dup6\n                /* \"Pair.sol\":7222:7236  amount0Out > 0 */\n              gt\n                /* \"Pair.sol\":7222:7254  amount0Out > 0 || amount1Out > 0 */\n              dup1\n              tag_101\n              jumpi\n              pop\n                /* \"Pair.sol\":7253:7254  0 */\n              0x00\n                /* \"Pair.sol\":7240:7250  amount1Out */\n              dup5\n                /* \"Pair.sol\":7240:7254  amount1Out > 0 */\n              gt\n                /* \"Pair.sol\":7222:7254  amount0Out > 0 || amount1Out > 0 */\n            tag_101:\n                /* \"Pair.sol\":7214:7296  require(amount0Out > 0 || amount1Out > 0, 'UniswapV2: INSUFFICIENT_OUTPUT_AMOUNT') */\n              tag_102\n              jumpi\n              mload(0x40)\n              0x08c379a000000000000000000000000000000000000000000000000000000000\n              dup2\n              mstore\n              0x04\n              add\n              dup1\n              dup1\n              0x20\n              add\n              dup3\n              dup2\n              sub\n              dup3\n              mstore\n              0x25\n              dup2\n              mstore\n              0x20\n              add\n              dup1\n              data_05339493da7e2cbe77e17beadf6b91132eb307939495f5f1797bf88d95539e83\n              0x25\n              swap2\n              codecopy\n              0x40\n              add\n              swap2\n              pop\n              pop\n              mload(0x40)\n              dup1\n              swap2\n              sub\n              swap1\n              revert\n            tag_102:\n                /* \"Pair.sol\":7307:7324  uint112 _reserve0 */\n              0x00\n                /* \"Pair.sol\":7326:7343  uint112 _reserve1 */\n              dup1\n                /* \"Pair.sol\":7348:7361  getReserves() */\n              tag_103\n                /* \"Pair.sol\":7348:7359  getReserves */\n              tag_43\n                /* \"Pair.sol\":7348:7361  getReserves() */\n              jump\t// in\n            tag_103:\n                /* \"Pair.sol\":7306:7361  (uint112 _reserve0, uint112 _reserve1,) = getReserves() */\n              pop\n              swap2\n              pop\n              swap2\n              pop\n                /* \"Pair.sol\":7407:7416  _reserve0 */\n              dup2\n                /* \"Pair.sol\":7394:7416  amount0Out < _reserve0 */\n              0xffffffffffffffffffffffffffff\n              and\n                /* \"Pair.sol\":7394:7404  amount0Out */\n              dup8\n                /* \"Pair.sol\":7394:7416  amount0Out < _reserve0 */\n              lt\n                /* \"Pair.sol\":7394:7442  amount0Out < _reserve0 && amount1Out < _reserve1 */\n              dup1\n              iszero\n              tag_104\n              jumpi\n              pop\n                /* \"Pair.sol\":7433:7442  _reserve1 */\n              dup1\n                /* \"Pair.sol\":7420:7442  amount1Out < _reserve1 */\n              0xffffffffffffffffffffffffffff\n              and\n                /* \"Pair.sol\":7420:7430  amount1Out */\n              dup7\n                /* \"Pair.sol\":7420:7442  amount1Out < _reserve1 */\n              lt\n                /* \"Pair.sol\":7394:7442  amount0Out < _reserve0 && amount1Out < _reserve1 */\n            tag_104:\n                /* \"Pair.sol\":7386:7480  require(amount0Out < _reserve0 && amount1Out < _reserve1, 'UniswapV2: INSUFFICIENT_LIQUIDITY') */\n              tag_105\n              jumpi\n              mload(0x40)\n              0x08c379a000000000000000000000000000000000000000000000000000000000\n              dup2\n              mstore\n              0x04\n              add\n              dup1\n              dup1\n              0x20\n              add\n              dup3\n              dup2\n              sub\n              dup3\n              mstore\n              0x21\n              dup2\n              mstore\n              0x20\n              add\n              dup1\n              data_3f354ef449b2a9b081220ce21f57691008110b653edc191d8288e60cef58bb5f\n              0x21\n              swap2\n              codecopy\n              0x40\n              add\n              swap2\n              pop\n              pop\n              mload(0x40)\n              dup1\n              swap2\n              sub\n              swap1\n              revert\n            tag_105:\n                /* \"Pair.sol\":7491:7504  uint balance0 */\n              0x00\n                /* \"Pair.sol\":7514:7527  uint balance1 */\n              dup1\n                /* \"Pair.sol\":7602:7617  address _token0 */\n              0x00\n                /* \"Pair.sol\":7620:7626  token0 */\n              0x05\n              0x00\n              swap1\n              sload\n              swap1\n              0x0100\n              exp\n              swap1\n              div\n              0xffffffffffffffffffffffffffffffffffffffff\n              and\n                /* \"Pair.sol\":7602:7626  address _token0 = token0 */\n              swap1\n              pop\n                /* \"Pair.sol\":7636:7651  address _token1 */\n              0x00\n                /* \"Pair.sol\":7654:7660  token1 */\n              0x06\n              0x00\n              swap1\n              sload\n              swap1\n              0x0100\n              exp\n              swap1\n              div\n              0xffffffffffffffffffffffffffffffffffffffff\n              and\n                /* \"Pair.sol\":7636:7660  address _token1 = token1 */\n              swap1\n              pop\n                /* \"Pair.sol\":7684:7691  _token0 */\n              dup2\n                /* \"Pair.sol\":7678:7691  to != _token0 */\n              0xffffffffffffffffffffffffffffffffffffffff\n              and\n                /* \"Pair.sol\":7678:7680  to */\n              dup10\n                /* \"Pair.sol\":7678:7691  to != _token0 */\n              0xffffffffffffffffffffffffffffffffffffffff\n              and\n              eq\n              iszero\n                /* \"Pair.sol\":7678:7708  to != _token0 && to != _token1 */\n              dup1\n              iszero\n              tag_106\n              jumpi\n              pop\n                /* \"Pair.sol\":7701:7708  _token1 */\n              dup1\n                /* \"Pair.sol\":7695:7708  to != _token1 */\n              0xffffffffffffffffffffffffffffffffffffffff\n              and\n                /* \"Pair.sol\":7695:7697  to */\n              dup10\n                /* \"Pair.sol\":7695:7708  to != _token1 */\n              0xffffffffffffffffffffffffffffffffffffffff\n              and\n              eq\n              iszero\n                /* \"Pair.sol\":7678:7708  to != _token0 && to != _token1 */\n            tag_106:\n                /* \"Pair.sol\":7670:7734  require(to != _token0 && to != _token1, 'UniswapV2: INVALID_TO') */\n              tag_107\n              jumpi\n              mload(0x40)\n              0x08c379a000000000000000000000000000000000000000000000000000000000\n              dup2\n              mstore\n              0x04\n              add\n              dup1\n              dup1\n              0x20\n              add\n              dup3\n              dup2\n              sub\n              dup3\n              mstore\n              0x15\n              dup2\n              mstore\n              0x20\n              add\n              dup1\n              0x556e697377617056323a20494e56414c49445f544f0000000000000000000000\n              dup2\n              mstore\n              pop\n              0x20\n              add\n              swap2\n              pop\n              pop\n              mload(0x40)\n              dup1\n              swap2\n              sub\n              swap1\n              revert\n            tag_107:\n                /* \"Pair.sol\":7761:7762  0 */\n              0x00\n                /* \"Pair.sol\":7748:7758  amount0Out */\n              dup12\n                /* \"Pair.sol\":7748:7762  amount0Out > 0 */\n              gt\n                /* \"Pair.sol\":7744:7802  if (amount0Out > 0) _safeTransfer(_token0, to, amount0Out) */\n              iszero\n              tag_108\n              jumpi\n                /* \"Pair.sol\":7764:7802  _safeTransfer(_token0, to, amount0Out) */\n              tag_109\n                /* \"Pair.sol\":7778:7785  _token0 */\n              dup3\n                /* \"Pair.sol\":7787:7789  to */\n              dup11\n                /* \"Pair.sol\":7791:7801  amount0Out */\n              dup14\n                /* \"Pair.sol\":7764:7777  _safeTransfer */\n              tag_110\n                /* \"Pair.sol\":7764:7802  _safeTransfer(_token0, to, amount0Out) */\n              jump\t// in\n            tag_109:\n                /* \"Pair.sol\":7744:7802  if (amount0Out > 0) _safeTransfer(_token0, to, amount0Out) */\n            tag_108:\n                /* \"Pair.sol\":7863:7864  0 */\n              0x00\n                /* \"Pair.sol\":7850:7860  amount1Out */\n              dup11\n                /* \"Pair.sol\":7850:7864  amount1Out > 0 */\n              gt\n                /* \"Pair.sol\":7846:7904  if (amount1Out > 0) _safeTransfer(_token1, to, amount1Out) */\n              iszero\n              tag_111\n              jumpi\n                /* \"Pair.sol\":7866:7904  _safeTransfer(_token1, to, amount1Out) */\n              tag_112\n                /* \"Pair.sol\":7880:7887  _token1 */\n              dup2\n                /* \"Pair.sol\":7889:7891  to */\n              dup11\n                /* \"Pair.sol\":7893:7903  amount1Out */\n              dup13\n                /* \"Pair.sol\":7866:7879  _safeTransfer */\n              tag_110\n                /* \"Pair.sol\":7866:7904  _safeTransfer(_token1, to, amount1Out) */\n              jump\t// in\n            tag_112:\n                /* \"Pair.sol\":7846:7904  if (amount1Out > 0) _safeTransfer(_token1, to, amount1Out) */\n            tag_111:\n                /* \"Pair.sol\":7966:7967  0 */\n              0x00\n                /* \"Pair.sol\":7952:7956  data */\n              dup9\n              dup9\n                /* \"Pair.sol\":7952:7963  data.length */\n              swap1\n              pop\n                /* \"Pair.sol\":7952:7967  data.length > 0 */\n              gt\n                /* \"Pair.sol\":7948:8045  if (data.length > 0) IUniswapV2Callee(to).uniswapV2Call(msg.sender, amount0Out, amount1Out, data) */\n              iszero\n              tag_113\n              jumpi\n                /* \"Pair.sol\":7986:7988  to */\n              dup9\n                /* \"Pair.sol\":7969:8003  IUniswapV2Callee(to).uniswapV2Call */\n              0xffffffffffffffffffffffffffffffffffffffff\n              and\n              0x10d1e85c\n                /* \"Pair.sol\":8004:8014  msg.sender */\n              caller\n                /* \"Pair.sol\":8016:8026  amount0Out */\n              dup14\n                /* \"Pair.sol\":8028:8038  amount1Out */\n              dup14\n                /* \"Pair.sol\":8040:8044  data */\n              dup13\n              dup13\n                /* \"Pair.sol\":7969:8045  IUniswapV2Callee(to).uniswapV2Call(msg.sender, amount0Out, amount1Out, data) */\n              mload(0x40)\n              dup7\n              0xffffffff\n              and\n              0xe0\n              shl\n              dup2\n              mstore\n              0x04\n              add\n              dup1\n              dup7\n              0xffffffffffffffffffffffffffffffffffffffff\n              and\n              dup2\n              mstore\n              0x20\n              add\n              dup6\n              dup2\n              mstore\n              0x20\n              add\n              dup5\n              dup2\n              mstore\n              0x20\n              add\n              dup1\n              0x20\n              add\n              dup3\n              dup2\n              sub\n              dup3\n              mstore\n              dup5\n              dup5\n              dup3\n              dup2\n              dup2\n              mstore\n              0x20\n              add\n              swap3\n              pop\n              dup1\n              dup3\n              dup5\n              calldatacopy\n              0x00\n              dup2\n              dup5\n              add\n              mstore\n              not(0x1f)\n              0x1f\n              dup3\n              add\n              and\n              swap1\n              pop\n              dup1\n              dup4\n              add\n              swap3\n              pop\n              pop\n              pop\n              swap7\n              pop\n              pop\n              pop\n              pop\n              pop\n              pop\n              pop\n              0x00\n              mload(0x40)\n              dup1\n              dup4\n              sub\n              dup2\n              0x00\n              dup8\n              dup1\n              extcodesize\n              iszero\n              dup1\n              iszero\n              tag_114\n              jumpi\n              0x00\n              dup1\n              revert\n            tag_114:\n              pop\n              gas\n              call\n              iszero\n              dup1\n              iszero\n              tag_116\n              jumpi\n              returndatasize\n              0x00\n              dup1\n              returndatacopy\n              revert(0x00, returndatasize)\n            tag_116:\n              pop\n              pop\n              pop\n              pop\n                /* \"Pair.sol\":7948:8045  if (data.length > 0) IUniswapV2Callee(to).uniswapV2Call(msg.sender, amount0Out, amount1Out, data) */\n            tag_113:\n                /* \"Pair.sol\":8073:8080  _token0 */\n              dup2\n                /* \"Pair.sol\":8066:8091  IERC20(_token0).balanceOf */\n              0xffffffffffffffffffffffffffffffffffffffff\n              and\n              0x70a08231\n                /* \"Pair.sol\":8100:8104  this */\n              address\n                /* \"Pair.sol\":8066:8106  IERC20(_token0).balanceOf(address(this)) */\n              mload(0x40)\n              dup3\n              0xffffffff\n              and\n              0xe0\n              shl\n              dup2\n              mstore\n              0x04\n              add\n              dup1\n              dup3\n              0xffffffffffffffffffffffffffffffffffffffff\n              and\n              dup2\n              mstore\n              0x20\n              add\n              swap2\n              pop\n              pop\n              0x20\n              mload(0x40)\n              dup1\n              dup4\n              sub\n              dup2\n              dup7\n              dup1\n              extcodesize\n              iszero\n              dup1\n              iszero\n              tag_117\n              jumpi\n              0x00\n              dup1\n              revert\n            tag_117:\n              pop\n              gas\n              staticcall\n              iszero\n              dup1\n              iszero\n              tag_119\n              jumpi\n              returndatasize\n              0x00\n              dup1\n              returndatacopy\n              revert(0x00, returndatasize)\n            tag_119:\n              pop\n              pop\n              pop\n              pop\n              mload(0x40)\n              returndatasize\n              0x20\n              dup2\n              lt\n              iszero\n              tag_120\n              jumpi\n              0x00\n              dup1\n              revert\n            tag_120:\n              dup2\n              add\n              swap1\n              dup1\n              dup1\n              mload\n              swap1\n              0x20\n              add\n              swap1\n              swap3\n              swap2\n              swap1\n              pop\n              pop\n              pop\n                /* \"Pair.sol\":8055:8106  balance0 = IERC20(_token0).balanceOf(address(this)) */\n              swap4\n              pop\n                /* \"Pair.sol\":8134:8141  _token1 */\n              dup1\n                /* \"Pair.sol\":8127:8152  IERC20(_token1).balanceOf */\n              0xffffffffffffffffffffffffffffffffffffffff\n              and\n              0x70a08231\n                /* \"Pair.sol\":8161:8165  this */\n              address\n                /* \"Pair.sol\":8127:8167  IERC20(_token1).balanceOf(address(this)) */\n              mload(0x40)\n              dup3\n              0xffffffff\n              and\n              0xe0\n              shl\n              dup2\n              mstore\n              0x04\n              add\n              dup1\n              dup3\n              0xffffffffffffffffffffffffffffffffffffffff\n              and\n              dup2\n              mstore\n              0x20\n              add\n              swap2\n              pop\n              pop\n              0x20\n              mload(0x40)\n              dup1\n              dup4\n              sub\n              dup2\n              dup7\n              dup1\n              extcodesize\n              iszero\n              dup1\n              iszero\n              tag_121\n              jumpi\n              0x00\n              dup1\n              revert\n            tag_121:\n              pop\n              gas\n              staticcall\n              iszero\n              dup1\n              iszero\n              tag_123\n              jumpi\n              returndatasize\n              0x00\n              dup1\n              returndatacopy\n              revert(0x00, returndatasize)\n            tag_123:\n              pop\n              pop\n              pop\n              pop\n              mload(0x40)\n              returndatasize\n              0x20\n              dup2\n              lt\n              iszero\n              tag_124\n              jumpi\n              0x00\n              dup1\n              revert\n            tag_124:\n              dup2\n              add\n              swap1\n              dup1\n              dup1\n              mload\n              swap1\n              0x20\n              add\n              swap1\n              swap3\n              swap2\n              swap1\n              pop\n              pop\n              pop\n                /* \"Pair.sol\":8116:8167  balance1 = IERC20(_token1).balanceOf(address(this)) */\n              swap3\n              pop\n                /* \"Pair.sol\":7114:8970  function swap(uint amount0Out, uint amount1Out, address to, bytes calldata data) external {... */\n              pop\n              pop\n                /* \"Pair.sol\":8187:8201  uint amount0In */\n              0x00\n                /* \"Pair.sol\":8227:8237  amount0Out */\n              dup10\n                /* \"Pair.sol\":8215:8224  _reserve0 */\n              dup6\n                /* \"Pair.sol\":8215:8237  _reserve0 - amount0Out */\n              0xffffffffffffffffffffffffffff\n              and\n              sub\n                /* \"Pair.sol\":8204:8212  balance0 */\n              dup4\n                /* \"Pair.sol\":8204:8237  balance0 > _reserve0 - amount0Out */\n              gt\n                /* \"Pair.sol\":8204:8279  balance0 > _reserve0 - amount0Out ? balance0 - (_reserve0 - amount0Out) : 0 */\n              tag_125\n              jumpi\n                /* \"Pair.sol\":8278:8279  0 */\n              0x00\n                /* \"Pair.sol\":8204:8279  balance0 > _reserve0 - amount0Out ? balance0 - (_reserve0 - amount0Out) : 0 */\n              jump(tag_126)\n            tag_125:\n                /* \"Pair.sol\":8264:8274  amount0Out */\n              dup10\n                /* \"Pair.sol\":8252:8261  _reserve0 */\n              dup6\n                /* \"Pair.sol\":8252:8274  _reserve0 - amount0Out */\n              0xffffffffffffffffffffffffffff\n              and\n              sub\n                /* \"Pair.sol\":8240:8248  balance0 */\n              dup4\n                /* \"Pair.sol\":8240:8275  balance0 - (_reserve0 - amount0Out) */\n              sub\n                /* \"Pair.sol\":8204:8279  balance0 > _reserve0 - amount0Out ? balance0 - (_reserve0 - amount0Out) : 0 */\n            tag_126:\n                /* \"Pair.sol\":8187:8279  uint amount0In = balance0 > _reserve0 - amount0Out ? balance0 - (_reserve0 - amount0Out) : 0 */\n              swap1\n              pop\n                /* \"Pair.sol\":8289:8303  uint amount1In */\n              0x00\n                /* \"Pair.sol\":8329:8339  amount1Out */\n              dup10\n                /* \"Pair.sol\":8317:8326  _reserve1 */\n              dup6\n                /* \"Pair.sol\":8317:8339  _reserve1 - amount1Out */\n              0xffffffffffffffffffffffffffff\n              and\n              sub\n                /* \"Pair.sol\":8306:8314  balance1 */\n              dup4\n                /* \"Pair.sol\":8306:8339  balance1 > _reserve1 - amount1Out */\n              gt\n                /* \"Pair.sol\":8306:8381  balance1 > _reserve1 - amount1Out ? balance1 - (_reserve1 - amount1Out) : 0 */\n              tag_127\n              jumpi\n                /* \"Pair.sol\":8380:8381  0 */\n              0x00\n                /* \"Pair.sol\":8306:8381  balance1 > _reserve1 - amount1Out ? balance1 - (_reserve1 - amount1Out) : 0 */\n              jump(tag_128)\n            tag_127:\n                /* \"Pair.sol\":8366:8376  amount1Out */\n              dup10\n                /* \"Pair.sol\":8354:8363  _reserve1 */\n              dup6\n                /* \"Pair.sol\":8354:8376  _reserve1 - amount1Out */\n              0xffffffffffffffffffffffffffff\n              and\n              sub\n                /* \"Pair.sol\":8342:8350  balance1 */\n              dup4\n                /* \"Pair.sol\":8342:8377  balance1 - (_reserve1 - amount1Out) */\n              sub\n                /* \"Pair.sol\":8306:8381  balance1 > _reserve1 - amount1Out ? balance1 - (_reserve1 - amount1Out) : 0 */\n            tag_128:\n                /* \"Pair.sol\":8289:8381  uint amount1In = balance1 > _reserve1 - amount1Out ? balance1 - (_reserve1 - amount1Out) : 0 */\n              swap1\n              pop\n                /* \"Pair.sol\":8411:8412  0 */\n              0x00\n                /* \"Pair.sol\":8399:8408  amount0In */\n              dup3\n                /* \"Pair.sol\":8399:8412  amount0In > 0 */\n              gt\n                /* \"Pair.sol\":8399:8429  amount0In > 0 || amount1In > 0 */\n              dup1\n              tag_129\n              jumpi\n              pop\n                /* \"Pair.sol\":8428:8429  0 */\n              0x00\n                /* \"Pair.sol\":8416:8425  amount1In */\n              dup2\n                /* \"Pair.sol\":8416:8429  amount1In > 0 */\n              gt\n                /* \"Pair.sol\":8399:8429  amount0In > 0 || amount1In > 0 */\n            tag_129:\n                /* \"Pair.sol\":8391:8470  require(amount0In > 0 || amount1In > 0, 'UniswapV2: INSUFFICIENT_INPUT_AMOUNT') */\n              tag_130\n              jumpi\n              mload(0x40)\n              0x08c379a000000000000000000000000000000000000000000000000000000000\n              dup2\n              mstore\n              0x04\n              add\n              dup1\n              dup1\n              0x20\n              add\n              dup3\n              dup2\n              sub\n              dup3\n              mstore\n              0x24\n              dup2\n              mstore\n              0x20\n              add\n              dup1\n              data_10e2efc32d8a31d3b2c11a545b3ed09c2dbabc58ef6de4033929d0002e425b67\n              0x24\n              swap2\n              codecopy\n              0x40\n              add\n              swap2\n              pop\n              pop\n              mload(0x40)\n              dup1\n              swap2\n              sub\n              swap1\n              revert\n            tag_130:\n                /* \"Pair.sol\":8554:8575  uint balance0Adjusted */\n              0x00\n                /* \"Pair.sol\":8578:8618  balance0.mul(1000).sub(amount0In.mul(3)) */\n              tag_131\n                /* \"Pair.sol\":8601:8617  amount0In.mul(3) */\n              tag_132\n                /* \"Pair.sol\":8615:8616  3 */\n              0x03\n                /* \"Pair.sol\":8601:8610  amount0In */\n              dup6\n                /* \"Pair.sol\":8601:8614  amount0In.mul */\n              tag_133\n              swap1\n                /* \"Pair.sol\":8601:8617  amount0In.mul(3) */\n              swap2\n              swap1\n              0xffffffff\n              and\n              jump\t// in\n            tag_132:\n                /* \"Pair.sol\":8578:8596  balance0.mul(1000) */\n              tag_134\n                /* \"Pair.sol\":8591:8595  1000 */\n              0x03e8\n                /* \"Pair.sol\":8578:8586  balance0 */\n              dup9\n                /* \"Pair.sol\":8578:8590  balance0.mul */\n              tag_133\n              swap1\n                /* \"Pair.sol\":8578:8596  balance0.mul(1000) */\n              swap2\n              swap1\n              0xffffffff\n              and\n              jump\t// in\n            tag_134:\n                /* \"Pair.sol\":8578:8600  balance0.mul(1000).sub */\n              tag_135\n              swap1\n                /* \"Pair.sol\":8578:8618  balance0.mul(1000).sub(amount0In.mul(3)) */\n              swap2\n              swap1\n              0xffffffff\n              and\n              jump\t// in\n            tag_131:\n                /* \"Pair.sol\":8554:8618  uint balance0Adjusted = balance0.mul(1000).sub(amount0In.mul(3)) */\n              swap1\n              pop\n                /* \"Pair.sol\":8628:8649  uint balance1Adjusted */\n              0x00\n                /* \"Pair.sol\":8652:8692  balance1.mul(1000).sub(amount1In.mul(3)) */\n              tag_136\n                /* \"Pair.sol\":8675:8691  amount1In.mul(3) */\n              tag_137\n                /* \"Pair.sol\":8689:8690  3 */\n              0x03\n                /* \"Pair.sol\":8675:8684  amount1In */\n              dup6\n                /* \"Pair.sol\":8675:8688  amount1In.mul */\n              tag_133\n              swap1\n                /* \"Pair.sol\":8675:8691  amount1In.mul(3) */\n              swap2\n              swap1\n              0xffffffff\n              and\n              jump\t// in\n            tag_137:\n                /* \"Pair.sol\":8652:8670  balance1.mul(1000) */\n              tag_138\n                /* \"Pair.sol\":8665:8669  1000 */\n              0x03e8\n                /* \"Pair.sol\":8652:8660  balance1 */\n              dup9\n                /* \"Pair.sol\":8652:8664  balance1.mul */\n              tag_133\n              swap1\n                /* \"Pair.sol\":8652:8670  balance1.mul(1000) */\n              swap2\n              swap1\n              0xffffffff\n              and\n              jump\t// in\n            tag_138:\n                /* \"Pair.sol\":8652:8674  balance1.mul(1000).sub */\n              tag_135\n              swap1\n                /* \"Pair.sol\":8652:8692  balance1.mul(1000).sub(amount1In.mul(3)) */\n              swap2\n              swap1\n              0xffffffff\n              and\n              jump\t// in\n            tag_136:\n                /* \"Pair.sol\":8628:8692  uint balance1Adjusted = balance1.mul(1000).sub(amount1In.mul(3)) */\n              swap1\n              pop\n                /* \"Pair.sol\":8752:8795  uint(_reserve0).mul(_reserve1).mul(1000**2) */\n              tag_139\n                /* \"Pair.sol\":8787:8794  1000**2 */\n              0x0f4240\n                /* \"Pair.sol\":8752:8782  uint(_reserve0).mul(_reserve1) */\n              tag_140\n                /* \"Pair.sol\":8772:8781  _reserve1 */\n              dup10\n                /* \"Pair.sol\":8752:8782  uint(_reserve0).mul(_reserve1) */\n              0xffffffffffffffffffffffffffff\n              and\n                /* \"Pair.sol\":8757:8766  _reserve0 */\n              dup12\n                /* \"Pair.sol\":8752:8767  uint(_reserve0) */\n              0xffffffffffffffffffffffffffff\n              and\n                /* \"Pair.sol\":8752:8771  uint(_reserve0).mul */\n              tag_133\n              swap1\n                /* \"Pair.sol\":8752:8782  uint(_reserve0).mul(_reserve1) */\n              swap2\n              swap1\n              0xffffffff\n              and\n              jump\t// in\n            tag_140:\n                /* \"Pair.sol\":8752:8786  uint(_reserve0).mul(_reserve1).mul */\n              tag_133\n              swap1\n                /* \"Pair.sol\":8752:8795  uint(_reserve0).mul(_reserve1).mul(1000**2) */\n              swap2\n              swap1\n              0xffffffff\n              and\n              jump\t// in\n            tag_139:\n                /* \"Pair.sol\":8710:8748  balance0Adjusted.mul(balance1Adjusted) */\n              tag_141\n                /* \"Pair.sol\":8731:8747  balance1Adjusted */\n              dup3\n                /* \"Pair.sol\":8710:8726  balance0Adjusted */\n              dup5\n                /* \"Pair.sol\":8710:8730  balance0Adjusted.mul */\n              tag_133\n              swap1\n                /* \"Pair.sol\":8710:8748  balance0Adjusted.mul(balance1Adjusted) */\n              swap2\n              swap1\n              0xffffffff\n              and\n              jump\t// in\n            tag_141:\n                /* \"Pair.sol\":8710:8795  balance0Adjusted.mul(balance1Adjusted) >= uint(_reserve0).mul(_reserve1).mul(1000**2) */\n              lt\n              iszero\n                /* \"Pair.sol\":8702:8812  require(balance0Adjusted.mul(balance1Adjusted) >= uint(_reserve0).mul(_reserve1).mul(1000**2), 'UniswapV2: K') */\n              tag_142\n              jumpi\n              mload(0x40)\n              0x08c379a000000000000000000000000000000000000000000000000000000000\n              dup2\n              mstore\n              0x04\n              add\n              dup1\n              dup1\n              0x20\n              add\n              dup3\n              dup2\n              sub\n              dup3\n              mstore\n              0x0c\n              dup2\n              mstore\n              0x20\n              add\n              dup1\n              0x556e697377617056323a204b0000000000000000000000000000000000000000\n              dup2\n              mstore\n              pop\n              0x20\n              add\n              swap2\n              pop\n              pop\n              mload(0x40)\n              dup1\n              swap2\n              sub\n              swap1\n              revert\n            tag_142:\n                /* \"Pair.sol\":7114:8970  function swap(uint amount0Out, uint amount1Out, address to, bytes calldata data) external {... */\n              pop\n              pop\n                /* \"Pair.sol\":8833:8882  _update(balance0, balance1, _reserve0, _reserve1) */\n              tag_143\n                /* \"Pair.sol\":8841:8849  balance0 */\n              dup5\n                /* \"Pair.sol\":8851:8859  balance1 */\n              dup5\n                /* \"Pair.sol\":8861:8870  _reserve0 */\n              dup9\n                /* \"Pair.sol\":8872:8881  _reserve1 */\n              dup9\n                /* \"Pair.sol\":8833:8840  _update */\n              tag_144\n                /* \"Pair.sol\":8833:8882  _update(balance0, balance1, _reserve0, _reserve1) */\n              jump\t// in\n            tag_143:\n                /* \"Pair.sol\":8960:8962  to */\n              dup9\n                /* \"Pair.sol\":8897:8963  Swap(msg.sender, amount0In, amount1In, amount0Out, amount1Out, to) */\n              0xffffffffffffffffffffffffffffffffffffffff\n              and\n                /* \"Pair.sol\":8902:8912  msg.sender */\n              caller\n                /* \"Pair.sol\":8897:8963  Swap(msg.sender, amount0In, amount1In, amount0Out, amount1Out, to) */\n              0xffffffffffffffffffffffffffffffffffffffff\n              and\n              0xd78ad95fa46c994b6551d0da85fc275fe613ce37657fb8d5e3d130840159d822\n                /* \"Pair.sol\":8914:8923  amount0In */\n              dup5\n                /* \"Pair.sol\":8925:8934  amount1In */\n              dup5\n                /* \"Pair.sol\":8936:8946  amount0Out */\n              dup16\n                /* \"Pair.sol\":8948:8958  amount1Out */\n              dup16\n                /* \"Pair.sol\":8897:8963  Swap(msg.sender, amount0In, amount1In, amount0Out, amount1Out, to) */\n              mload(0x40)\n              dup1\n              dup6\n              dup2\n              mstore\n              0x20\n              add\n              dup5\n              dup2\n              mstore\n              0x20\n              add\n              dup4\n              dup2\n              mstore\n              0x20\n              add\n              dup3\n              dup2\n              mstore\n              0x20\n              add\n              swap5\n              pop\n              pop\n              pop\n              pop\n              pop\n              mload(0x40)\n              dup1\n              swap2\n              sub\n              swap1\n              log3\n                /* \"Pair.sol\":7114:8970  function swap(uint amount0Out, uint amount1Out, address to, bytes calldata data) external {... */\n              pop\n              pop\n              pop\n              pop\n              pop\n              pop\n              pop\n              pop\n              pop\n              pop\n              pop\n              jump\t// out\n                /* \"ERC20.sol\":151:193  string public constant name = 'Uniswap V2' */\n            tag_37:\n              mload(0x40)\n              dup1\n              0x40\n              add\n              0x40\n              mstore\n              dup1\n              0x0a\n              dup2\n              mstore\n              0x20\n              add\n              0x556e697377617020563200000000000000000000000000000000000000000000\n              dup2\n              mstore\n              pop\n              dup2\n              jump\t// out\n                /* \"Pair.sol\":1060:1287  function getReserves() public view returns (uint112 _reserve0, uint112 _reserve1, uint32 _blockTimestampLast) {... */\n            tag_43:\n                /* \"Pair.sol\":1104:1121  uint112 _reserve0 */\n              0x00\n                /* \"Pair.sol\":1123:1140  uint112 _reserve1 */\n              dup1\n                /* \"Pair.sol\":1142:1168  uint32 _blockTimestampLast */\n              0x00\n                /* \"Pair.sol\":1192:1200  reserve0 */\n              0x07\n              0x00\n              swap1\n              sload\n              swap1\n              0x0100\n              exp\n              swap1\n              div\n              0xffffffffffffffffffffffffffff\n              and\n                /* \"Pair.sol\":1180:1200  _reserve0 = reserve0 */\n              swap3\n              pop\n                /* \"Pair.sol\":1222:1230  reserve1 */\n              0x07\n              0x0e\n              swap1\n              sload\n              swap1\n              0x0100\n              exp\n              swap1\n              div\n              0xffffffffffffffffffffffffffff\n              and\n                /* \"Pair.sol\":1210:1230  _reserve1 = reserve1 */\n              swap2\n              pop\n                /* \"Pair.sol\":1262:1280  blockTimestampLast */\n              0x07\n              0x1c\n              swap1\n              sload\n              swap1\n              0x0100\n              exp\n              swap1\n              div\n              0xffffffff\n              and\n                /* \"Pair.sol\":1240:1280  _blockTimestampLast = blockTimestampLast */\n              swap1\n              pop\n                /* \"Pair.sol\":1060:1287  function getReserves() public view returns (uint112 _reserve0, uint112 _reserve1, uint32 _blockTimestampLast) {... */\n              swap1\n              swap2\n              swap3\n              jump\t// out\n                /* \"ERC20.sol\":1477:1621  function approve(address spender, uint value) external returns (bool) {... */\n            tag_46:\n                /* \"ERC20.sol\":1541:1545  bool */\n              0x00\n                /* \"ERC20.sol\":1557:1593  _approve(msg.sender, spender, value) */\n              tag_147\n                /* \"ERC20.sol\":1566:1576  msg.sender */\n              caller\n                /* \"ERC20.sol\":1578:1585  spender */\n              dup5\n                /* \"ERC20.sol\":1587:1592  value */\n              dup5\n                /* \"ERC20.sol\":1557:1565  _approve */\n              tag_148\n                /* \"ERC20.sol\":1557:1593  _approve(msg.sender, spender, value) */\n              jump\t// in\n            tag_147:\n                /* \"ERC20.sol\":1610:1614  true */\n              0x01\n                /* \"ERC20.sol\":1603:1614  return true */\n              swap1\n              pop\n                /* \"ERC20.sol\":1477:1621  function approve(address spender, uint value) external returns (bool) {... */\n              swap3\n              swap2\n              pop\n              pop\n              jump\t// out\n                /* \"Pair.sol\":536:557  address public token0 */\n            tag_48:\n              0x05\n              0x00\n              swap1\n              sload\n              swap1\n              0x0100\n              exp\n              swap1\n              div\n              0xffffffffffffffffffffffffffffffffffffffff\n              and\n              dup2\n              jump\t// out\n                /* \"ERC20.sol\":286:311  uint  public  totalSupply */\n            tag_50:\n              sload(0x00)\n              dup2\n              jump\t// out\n                /* \"ERC20.sol\":1769:2065  function transferFrom(address from, address to, uint value) external  returns (bool) {... */\n            tag_53:\n                /* \"ERC20.sol\":1848:1852  bool */\n              0x00\n                /* \"ERC20.sol\":1904:1906  -1 */\n              0xffffffffffffffffffffffffffffffffffffffffffffffffffffffffffffffff\n                /* \"ERC20.sol\":1868:1877  allowance */\n              0x02\n                /* \"ERC20.sol\":1868:1883  allowance[from] */\n              0x00\n                /* \"ERC20.sol\":1878:1882  from */\n              dup7\n                /* \"ERC20.sol\":1868:1883  allowance[from] */\n              0xffffffffffffffffffffffffffffffffffffffff\n              and\n              0xffffffffffffffffffffffffffffffffffffffff\n              and\n              dup2\n              mstore\n              0x20\n              add\n              swap1\n              dup2\n              mstore\n              0x20\n              add\n              0x00\n              keccak256\n                /* \"ERC20.sol\":1868:1895  allowance[from][msg.sender] */\n              0x00\n                /* \"ERC20.sol\":1884:1894  msg.sender */\n              caller\n                /* \"ERC20.sol\":1868:1895  allowance[from][msg.sender] */\n              0xffffffffffffffffffffffffffffffffffffffff\n              and\n              0xffffffffffffffffffffffffffffffffffffffff\n              and\n              dup2\n              mstore\n              0x20\n              add\n              swap1\n              dup2\n              mstore\n              0x20\n              add\n              0x00\n              keccak256\n              sload\n                /* \"ERC20.sol\":1868:1907  allowance[from][msg.sender] != uint(-1) */\n              eq\n                /* \"ERC20.sol\":1864:2002  if (allowance[from][msg.sender] != uint(-1)) {... */\n              tag_150\n              jumpi\n                /* \"ERC20.sol\":1953:1991  allowance[from][msg.sender].sub(value) */\n              tag_151\n                /* \"ERC20.sol\":1985:1990  value */\n              dup3\n                /* \"ERC20.sol\":1953:1962  allowance */\n              0x02\n                /* \"ERC20.sol\":1953:1968  allowance[from] */\n              0x00\n                /* \"ERC20.sol\":1963:1967  from */\n              dup8\n                /* \"ERC20.sol\":1953:1968  allowance[from] */\n              0xffffffffffffffffffffffffffffffffffffffff\n              and\n              0xffffffffffffffffffffffffffffffffffffffff\n              and\n              dup2\n              mstore\n              0x20\n              add\n              swap1\n              dup2\n              mstore\n              0x20\n              add\n              0x00\n              keccak256\n                /* \"ERC20.sol\":1953:1980  allowance[from][msg.sender] */\n              0x00\n                /* \"ERC20.sol\":1969:1979  msg.sender */\n              caller\n                /* \"ERC20.sol\":1953:1980  allowance[from][msg.sender] */\n              0xffffffffffffffffffffffffffffffffffffffff\n              and\n              0xffffffffffffffffffffffffffffffffffffffff\n              and\n              dup2\n              mstore\n              0x20\n              add\n              swap1\n              dup2\n              mstore\n              0x20\n              add\n              0x00\n              keccak256\n              sload\n                /* \"ERC20.sol\":1953:1984  allowance[from][msg.sender].sub */\n              tag_135\n              swap1\n                /* \"ERC20.sol\":1953:1991  allowance[from][msg.sender].sub(value) */\n              swap2\n              swap1\n              0xffffffff\n              and\n              jump\t// in\n            tag_151:\n                /* \"ERC20.sol\":1923:1932  allowance */\n              0x02\n                /* \"ERC20.sol\":1923:1938  allowance[from] */\n              0x00\n                /* \"ERC20.sol\":1933:1937  from */\n              dup7\n                /* \"ERC20.sol\":1923:1938  allowance[from] */\n              0xffffffffffffffffffffffffffffffffffffffff\n              and\n              0xffffffffffffffffffffffffffffffffffffffff\n              and\n              dup2\n              mstore\n              0x20\n              add\n              swap1\n              dup2\n              mstore\n              0x20\n              add\n              0x00\n              keccak256\n                /* \"ERC20.sol\":1923:1950  allowance[from][msg.sender] */\n              0x00\n                /* \"ERC20.sol\":1939:1949  msg.sender */\n              caller\n                /* \"ERC20.sol\":1923:1950  allowance[from][msg.sender] */\n              0xffffffffffffffffffffffffffffffffffffffff\n              and\n              0xffffffffffffffffffffffffffffffffffffffff\n              and\n              dup2\n              mstore\n              0x20\n              add\n              swap1\n              dup2\n              mstore\n              0x20\n              add\n              0x00\n              keccak256\n                /* \"ERC20.sol\":1923:1991  allowance[from][msg.sender] = allowance[from][msg.sender].sub(value) */\n              dup2\n              swap1\n              sstore\n              pop\n                /* \"ERC20.sol\":1864:2002  if (allowance[from][msg.sender] != uint(-1)) {... */\n            tag_150:\n                /* \"ERC20.sol\":2011:2037  _transfer(from, to, value) */\n              tag_152\n                /* \"ERC20.sol\":2021:2025  from */\n              dup5\n                /* \"ERC20.sol\":2027:2029  to */\n              dup5\n                /* \"ERC20.sol\":2031:2036  value */\n              dup5\n                /* \"ERC20.sol\":2011:2020  _transfer */\n              tag_153\n                /* \"ERC20.sol\":2011:2037  _transfer(from, to, value) */\n              jump\t// in\n            tag_152:\n                /* \"ERC20.sol\":2054:2058  true */\n              0x01\n                /* \"ERC20.sol\":2047:2058  return true */\n              swap1\n              pop\n                /* \"ERC20.sol\":1769:2065  function transferFrom(address from, address to, uint value) external  returns (bool) {... */\n              swap4\n              swap3\n              pop\n              pop\n              pop\n              jump\t// out\n                /* \"ERC20.sol\":245:280  uint8 public constant decimals = 18 */\n            tag_55:\n                /* \"ERC20.sol\":278:280  18 */\n              0x12\n                /* \"ERC20.sol\":245:280  uint8 public constant decimals = 18 */\n              dup2\n              jump\t// out\n                /* \"Pair.sol\":2092:2298  function initialize(address _token0, address _token1) external {... */\n            tag_58:\n                /* \"Pair.sol\":2187:2194  factory */\n              0x04\n              0x00\n              swap1\n              sload\n              swap1\n              0x0100\n              exp\n              swap1\n              div\n              0xffffffffffffffffffffffffffffffffffffffff\n              and\n                /* \"Pair.sol\":2173:2194  msg.sender == factory */\n              0xffffffffffffffffffffffffffffffffffffffff\n              and\n                /* \"Pair.sol\":2173:2183  msg.sender */\n              caller\n                /* \"Pair.sol\":2173:2194  msg.sender == factory */\n              0xffffffffffffffffffffffffffffffffffffffff\n              and\n              eq\n                /* \"Pair.sol\":2165:2219  require(msg.sender == factory, 'UniswapV2: FORBIDDEN') */\n              tag_155\n              jumpi\n              mload(0x40)\n              0x08c379a000000000000000000000000000000000000000000000000000000000\n              dup2\n              mstore\n              0x04\n              add\n              dup1\n              dup1\n              0x20\n              add\n              dup3\n              dup2\n              sub\n              dup3\n              mstore\n              0x14\n              dup2\n              mstore\n              0x20\n              add\n              dup1\n              0x556e697377617056323a20464f5242494444454e000000000000000000000000\n              dup2\n              mstore\n              pop\n              0x20\n              add\n              swap2\n              pop\n              pop\n              mload(0x40)\n              dup1\n              swap2\n              sub\n              swap1\n              revert\n            tag_155:\n                /* \"Pair.sol\":2258:2265  _token0 */\n              dup2\n                /* \"Pair.sol\":2249:2255  token0 */\n              0x05\n              0x00\n                /* \"Pair.sol\":2249:2265  token0 = _token0 */\n              0x0100\n              exp\n              dup2\n              sload\n              dup2\n              0xffffffffffffffffffffffffffffffffffffffff\n              mul\n              not\n              and\n              swap1\n              dup4\n              0xffffffffffffffffffffffffffffffffffffffff\n              and\n              mul\n              or\n              swap1\n              sstore\n              pop\n                /* \"Pair.sol\":2284:2291  _token1 */\n              dup1\n                /* \"Pair.sol\":2275:2281  token1 */\n              0x06\n              0x00\n                /* \"Pair.sol\":2275:2291  token1 = _token1 */\n              0x0100\n              exp\n              dup2\n              sload\n              dup2\n              0xffffffffffffffffffffffffffffffffffffffff\n              mul\n              not\n              and\n              swap1\n              dup4\n              0xffffffffffffffffffffffffffffffffffffffff\n              and\n              mul\n              or\n              swap1\n              sstore\n              pop\n                /* \"Pair.sol\":2092:2298  function initialize(address _token0, address _token1) external {... */\n              pop\n              pop\n              jump\t// out\n                /* \"Pair.sol\":880:912  uint public price0CumulativeLast */\n            tag_60:\n              sload(0x08)\n              dup2\n              jump\t// out\n                /* \"Pair.sol\":918:950  uint public price1CumulativeLast */\n            tag_62:\n              sload(0x09)\n              dup2\n              jump\t// out\n                /* \"Pair.sol\":4242:5457  function mint(address to) external  returns (uint liquidity) {... */\n            tag_65:\n                /* \"Pair.sol\":4287:4301  uint liquidity */\n              0x00\n                /* \"Pair.sol\":4314:4331  uint112 _reserve0 */\n              dup1\n                /* \"Pair.sol\":4333:4350  uint112 _reserve1 */\n              0x00\n                /* \"Pair.sol\":4355:4368  getReserves() */\n              tag_157\n                /* \"Pair.sol\":4355:4366  getReserves */\n              tag_43\n                /* \"Pair.sol\":4355:4368  getReserves() */\n              jump\t// in\n            tag_157:\n                /* \"Pair.sol\":4313:4368  (uint112 _reserve0, uint112 _reserve1,) = getReserves() */\n              pop\n              swap2\n              pop\n              swap2\n              pop\n                /* \"Pair.sol\":4393:4406  uint balance0 */\n              0x00\n                /* \"Pair.sol\":4416:4422  token0 */\n              0x05\n              0x00\n              swap1\n              sload\n              swap1\n              0x0100\n              exp\n              swap1\n              div\n              0xffffffffffffffffffffffffffffffffffffffff\n              and\n                /* \"Pair.sol\":4409:4433  IERC20(token0).balanceOf */\n              0xffffffffffffffffffffffffffffffffffffffff\n              and\n              0x70a08231\n                /* \"Pair.sol\":4442:4446  this */\n              address\n                /* \"Pair.sol\":4409:4448  IERC20(token0).balanceOf(address(this)) */\n              mload(0x40)\n              dup3\n              0xffffffff\n              and\n              0xe0\n              shl\n              dup2\n              mstore\n              0x04\n              add\n              dup1\n              dup3\n              0xffffffffffffffffffffffffffffffffffffffff\n              and\n              dup2\n              mstore\n              0x20\n              add\n              swap2\n              pop\n              pop\n              0x20\n              mload(0x40)\n              dup1\n              dup4\n              sub\n              dup2\n              dup7\n              dup1\n              extcodesize\n              iszero\n              dup1\n              iszero\n              tag_158\n              jumpi\n              0x00\n              dup1\n              revert\n            tag_158:\n              pop\n              gas\n              staticcall\n              iszero\n              dup1\n              iszero\n              tag_160\n              jumpi\n              returndatasize\n              0x00\n              dup1\n              returndatacopy\n              revert(0x00, returndatasize)\n            tag_160:\n              pop\n              pop\n              pop\n              pop\n              mload(0x40)\n              returndatasize\n              0x20\n              dup2\n              lt\n              iszero\n              tag_161\n              jumpi\n              0x00\n              dup1\n              revert\n            tag_161:\n              dup2\n              add\n              swap1\n              dup1\n              dup1\n              mload\n              swap1\n              0x20\n              add\n              swap1\n              swap3\n              swap2\n              swap1\n              pop\n              pop\n              pop\n                /* \"Pair.sol\":4393:4448  uint balance0 = IERC20(token0).balanceOf(address(this)) */\n              swap1\n              pop\n                /* \"Pair.sol\":4458:4471  uint balance1 */\n              0x00\n                /* \"Pair.sol\":4481:4487  token1 */\n              0x06\n              0x00\n              swap1\n              sload\n              swap1\n              0x0100\n              exp\n              swap1\n              div\n              0xffffffffffffffffffffffffffffffffffffffff\n              and\n                /* \"Pair.sol\":4474:4498  IERC20(token1).balanceOf */\n              0xffffffffffffffffffffffffffffffffffffffff\n              and\n              0x70a08231\n                /* \"Pair.sol\":4507:4511  this */\n              address\n                /* \"Pair.sol\":4474:4513  IERC20(token1).balanceOf(address(this)) */\n              mload(0x40)\n              dup3\n              0xffffffff\n              and\n              0xe0\n              shl\n              dup2\n              mstore\n              0x04\n              add\n              dup1\n              dup3\n              0xffffffffffffffffffffffffffffffffffffffff\n              and\n              dup2\n              mstore\n              0x20\n              add\n              swap2\n              pop\n              pop\n              0x20\n              mload(0x40)\n              dup1\n              dup4\n              sub\n              dup2\n              dup7\n              dup1\n              extcodesize\n              iszero\n              dup1\n              iszero\n              tag_162\n              jumpi\n              0x00\n              dup1\n              revert\n            tag_162:\n              pop\n              gas\n              staticcall\n              iszero\n              dup1\n              iszero\n              tag_164\n              jumpi\n              returndatasize\n              0x00\n              dup1\n              returndatacopy\n              revert(0x00, returndatasize)\n            tag_164:\n              pop\n              pop\n              pop\n              pop\n              mload(0x40)\n              returndatasize\n              0x20\n              dup2\n              lt\n              iszero\n              tag_165\n              jumpi\n              0x00\n              dup1\n              revert\n            tag_165:\n              dup2\n              add\n              swap1\n              dup1\n              dup1\n              mload\n              swap1\n              0x20\n              add\n              swap1\n              swap3\n              swap2\n              swap1\n              pop\n              pop\n              pop\n                /* \"Pair.sol\":4458:4513  uint balance1 = IERC20(token1).balanceOf(address(this)) */\n              swap1\n              pop\n                /* \"Pair.sol\":4523:4535  uint amount0 */\n              0x00\n                /* \"Pair.sol\":4538:4561  balance0.sub(_reserve0) */\n              tag_166\n                /* \"Pair.sol\":4551:4560  _reserve0 */\n              dup6\n                /* \"Pair.sol\":4538:4561  balance0.sub(_reserve0) */\n              0xffffffffffffffffffffffffffff\n              and\n                /* \"Pair.sol\":4538:4546  balance0 */\n              dup5\n                /* \"Pair.sol\":4538:4550  balance0.sub */\n              tag_135\n              swap1\n                /* \"Pair.sol\":4538:4561  balance0.sub(_reserve0) */\n              swap2\n              swap1\n              0xffffffff\n              and\n              jump\t// in\n            tag_166:\n                /* \"Pair.sol\":4523:4561  uint amount0 = balance0.sub(_reserve0) */\n              swap1\n              pop\n                /* \"Pair.sol\":4571:4583  uint amount1 */\n              0x00\n                /* \"Pair.sol\":4586:4609  balance1.sub(_reserve1) */\n              tag_167\n                /* \"Pair.sol\":4599:4608  _reserve1 */\n              dup6\n                /* \"Pair.sol\":4586:4609  balance1.sub(_reserve1) */\n              0xffffffffffffffffffffffffffff\n              and\n                /* \"Pair.sol\":4586:4594  balance1 */\n              dup5\n                /* \"Pair.sol\":4586:4598  balance1.sub */\n              tag_135\n              swap1\n                /* \"Pair.sol\":4586:4609  balance1.sub(_reserve1) */\n              swap2\n              swap1\n              0xffffffff\n              and\n              jump\t// in\n            tag_167:\n                /* \"Pair.sol\":4571:4609  uint amount1 = balance1.sub(_reserve1) */\n              swap1\n              pop\n                /* \"Pair.sol\":4620:4630  bool feeOn */\n              0x00\n                /* \"Pair.sol\":4633:4663  _mintFee(_reserve0, _reserve1) */\n              tag_168\n                /* \"Pair.sol\":4642:4651  _reserve0 */\n              dup8\n                /* \"Pair.sol\":4653:4662  _reserve1 */\n              dup8\n                /* \"Pair.sol\":4633:4641  _mintFee */\n              tag_169\n                /* \"Pair.sol\":4633:4663  _mintFee(_reserve0, _reserve1) */\n              jump\t// in\n            tag_168:\n                /* \"Pair.sol\":4620:4663  bool feeOn = _mintFee(_reserve0, _reserve1) */\n              swap1\n              pop\n                /* \"Pair.sol\":4673:4690  uint _totalSupply */\n              0x00\n                /* \"Pair.sol\":4693:4704  totalSupply */\n              dup1\n              sload\n                /* \"Pair.sol\":4673:4704  uint _totalSupply = totalSupply */\n              swap1\n              pop\n                /* \"Pair.sol\":4812:4813  0 */\n              0x00\n                /* \"Pair.sol\":4796:4808  _totalSupply */\n              dup2\n                /* \"Pair.sol\":4796:4813  _totalSupply == 0 */\n              eq\n                /* \"Pair.sol\":4792:5139  if (_totalSupply == 0) {... */\n              iszero\n              tag_170\n              jumpi\n                /* \"Pair.sol\":4841:4895  Math.sqrt(amount0.mul(amount1)).sub(MINIMUM_LIQUIDITY) */\n              tag_171\n                /* \"Pair.sol\":402:407  10**3 */\n              0x03e8\n                /* \"Pair.sol\":4841:4872  Math.sqrt(amount0.mul(amount1)) */\n              tag_172\n                /* \"Pair.sol\":4851:4871  amount0.mul(amount1) */\n              tag_173\n                /* \"Pair.sol\":4863:4870  amount1 */\n              dup7\n                /* \"Pair.sol\":4851:4858  amount0 */\n              dup9\n                /* \"Pair.sol\":4851:4862  amount0.mul */\n              tag_133\n              swap1\n                /* \"Pair.sol\":4851:4871  amount0.mul(amount1) */\n              swap2\n              swap1\n              0xffffffff\n              and\n              jump\t// in\n            tag_173:\n                /* \"Pair.sol\":4841:4850  Math.sqrt */\n              tag_174\n                /* \"Pair.sol\":4841:4872  Math.sqrt(amount0.mul(amount1)) */\n              jump\t// in\n            tag_172:\n                /* \"Pair.sol\":4841:4876  Math.sqrt(amount0.mul(amount1)).sub */\n              tag_135\n              swap1\n                /* \"Pair.sol\":4841:4895  Math.sqrt(amount0.mul(amount1)).sub(MINIMUM_LIQUIDITY) */\n              swap2\n              swap1\n              0xffffffff\n              and\n              jump\t// in\n            tag_171:\n                /* \"Pair.sol\":4829:4895  liquidity = Math.sqrt(amount0.mul(amount1)).sub(MINIMUM_LIQUIDITY) */\n              swap9\n              pop\n                /* \"Pair.sol\":4908:4944  _mint(address(0), MINIMUM_LIQUIDITY) */\n              tag_175\n                /* \"Pair.sol\":4922:4923  0 */\n              0x00\n                /* \"Pair.sol\":402:407  10**3 */\n              0x03e8\n                /* \"Pair.sol\":4908:4913  _mint */\n              tag_176\n                /* \"Pair.sol\":4908:4944  _mint(address(0), MINIMUM_LIQUIDITY) */\n              jump\t// in\n            tag_175:\n                /* \"Pair.sol\":4792:5139  if (_totalSupply == 0) {... */\n              jump(tag_177)\n            tag_170:\n                /* \"Pair.sol\":5042:5128  Math.min(amount0.mul(_totalSupply) / _reserve0, amount1.mul(_totalSupply) / _reserve1) */\n              tag_178\n                /* \"Pair.sol\":5079:5088  _reserve0 */\n              dup9\n                /* \"Pair.sol\":5051:5088  amount0.mul(_totalSupply) / _reserve0 */\n              0xffffffffffffffffffffffffffff\n              and\n                /* \"Pair.sol\":5051:5076  amount0.mul(_totalSupply) */\n              tag_179\n                /* \"Pair.sol\":5063:5075  _totalSupply */\n              dup4\n                /* \"Pair.sol\":5051:5058  amount0 */\n              dup8\n                /* \"Pair.sol\":5051:5062  amount0.mul */\n              tag_133\n              swap1\n                /* \"Pair.sol\":5051:5076  amount0.mul(_totalSupply) */\n              swap2\n              swap1\n              0xffffffff\n              and\n              jump\t// in\n            tag_179:\n                /* \"Pair.sol\":5051:5088  amount0.mul(_totalSupply) / _reserve0 */\n              dup2\n              tag_180\n              jumpi\n              invalid\n            tag_180:\n              div\n                /* \"Pair.sol\":5118:5127  _reserve1 */\n              dup9\n                /* \"Pair.sol\":5090:5127  amount1.mul(_totalSupply) / _reserve1 */\n              0xffffffffffffffffffffffffffff\n              and\n                /* \"Pair.sol\":5090:5115  amount1.mul(_totalSupply) */\n              tag_181\n                /* \"Pair.sol\":5102:5114  _totalSupply */\n              dup5\n                /* \"Pair.sol\":5090:5097  amount1 */\n              dup8\n                /* \"Pair.sol\":5090:5101  amount1.mul */\n              tag_133\n              swap1\n                /* \"Pair.sol\":5090:5115  amount1.mul(_totalSupply) */\n              swap2\n              swap1\n              0xffffffff\n              and\n              jump\t// in\n            tag_181:\n                /* \"Pair.sol\":5090:5127  amount1.mul(_totalSupply) / _reserve1 */\n              dup2\n              tag_182\n              jumpi\n              invalid\n            tag_182:\n              div\n                /* \"Pair.sol\":5042:5050  Math.min */\n              tag_183\n                /* \"Pair.sol\":5042:5128  Math.min(amount0.mul(_totalSupply) / _reserve0, amount1.mul(_totalSupply) / _reserve1) */\n              jump\t// in\n            tag_178:\n                /* \"Pair.sol\":5030:5128  liquidity = Math.min(amount0.mul(_totalSupply) / _reserve0, amount1.mul(_totalSupply) / _reserve1) */\n              swap9\n              pop\n                /* \"Pair.sol\":4792:5139  if (_totalSupply == 0) {... */\n            tag_177:\n                /* \"Pair.sol\":5168:5169  0 */\n              0x00\n                /* \"Pair.sol\":5156:5165  liquidity */\n              dup10\n                /* \"Pair.sol\":5156:5169  liquidity > 0 */\n              gt\n                /* \"Pair.sol\":5148:5214  require(liquidity > 0, 'UniswapV2: INSUFFICIENT_LIQUIDITY_MINTED') */\n              tag_184\n              jumpi\n              mload(0x40)\n              0x08c379a000000000000000000000000000000000000000000000000000000000\n              dup2\n              mstore\n              0x04\n              add\n              dup1\n              dup1\n              0x20\n              add\n              dup3\n              dup2\n              sub\n              dup3\n              mstore\n              0x28\n              dup2\n              mstore\n              0x20\n              add\n              dup1\n              data_6591c9f5bf1fefaad109b76a20e25c857b696080c952191f86220f001a83663e\n              0x28\n              swap2\n              codecopy\n              0x40\n              add\n              swap2\n              pop\n              pop\n              mload(0x40)\n              dup1\n              swap2\n              sub\n              swap1\n              revert\n            tag_184:\n                /* \"Pair.sol\":5224:5244  _mint(to, liquidity) */\n              tag_185\n                /* \"Pair.sol\":5230:5232  to */\n              dup11\n                /* \"Pair.sol\":5234:5243  liquidity */\n              dup11\n                /* \"Pair.sol\":5224:5229  _mint */\n              tag_176\n                /* \"Pair.sol\":5224:5244  _mint(to, liquidity) */\n              jump\t// in\n            tag_185:\n                /* \"Pair.sol\":5255:5304  _update(balance0, balance1, _reserve0, _reserve1) */\n              tag_186\n                /* \"Pair.sol\":5263:5271  balance0 */\n              dup7\n                /* \"Pair.sol\":5273:5281  balance1 */\n              dup7\n                /* \"Pair.sol\":5283:5292  _reserve0 */\n              dup11\n                /* \"Pair.sol\":5294:5303  _reserve1 */\n              dup11\n                /* \"Pair.sol\":5255:5262  _update */\n              tag_144\n                /* \"Pair.sol\":5255:5304  _update(balance0, balance1, _reserve0, _reserve1) */\n              jump\t// in\n            tag_186:\n                /* \"Pair.sol\":5318:5323  feeOn */\n              dup2\n                /* \"Pair.sol\":5314:5361  if (feeOn) kLast = uint(reserve0).mul(reserve1) */\n              iszero\n              tag_187\n              jumpi\n                /* \"Pair.sol\":5333:5361  uint(reserve0).mul(reserve1) */\n              tag_188\n                /* \"Pair.sol\":5352:5360  reserve1 */\n              0x07\n              0x0e\n              swap1\n              sload\n              swap1\n              0x0100\n              exp\n              swap1\n              div\n              0xffffffffffffffffffffffffffff\n              and\n                /* \"Pair.sol\":5333:5361  uint(reserve0).mul(reserve1) */\n              0xffffffffffffffffffffffffffff\n              and\n                /* \"Pair.sol\":5338:5346  reserve0 */\n              0x07\n              0x00\n              swap1\n              sload\n              swap1\n              0x0100\n              exp\n              swap1\n              div\n              0xffffffffffffffffffffffffffff\n              and\n                /* \"Pair.sol\":5333:5347  uint(reserve0) */\n              0xffffffffffffffffffffffffffff\n              and\n                /* \"Pair.sol\":5333:5351  uint(reserve0).mul */\n              tag_133\n              swap1\n                /* \"Pair.sol\":5333:5361  uint(reserve0).mul(reserve1) */\n              swap2\n              swap1\n              0xffffffff\n              and\n              jump\t// in\n            tag_188:\n                /* \"Pair.sol\":5325:5330  kLast */\n              0x0a\n                /* \"Pair.sol\":5325:5361  kLast = uint(reserve0).mul(reserve1) */\n              dup2\n              swap1\n              sstore\n              pop\n                /* \"Pair.sol\":5314:5361  if (feeOn) kLast = uint(reserve0).mul(reserve1) */\n            tag_187:\n                /* \"Pair.sol\":5421:5431  msg.sender */\n              caller\n                /* \"Pair.sol\":5416:5450  Mint(msg.sender, amount0, amount1) */\n              0xffffffffffffffffffffffffffffffffffffffff\n              and\n              0x4c209b5fc8ad50758f13e2e1088ba56a560dff690a1c6fef26394f4c03821c4f\n                /* \"Pair.sol\":5433:5440  amount0 */\n              dup6\n                /* \"Pair.sol\":5442:5449  amount1 */\n              dup6\n                /* \"Pair.sol\":5416:5450  Mint(msg.sender, amount0, amount1) */\n              mload(0x40)\n              dup1\n              dup4\n              dup2\n              mstore\n              0x20\n              add\n              dup3\n              dup2\n              mstore\n              0x20\n              add\n              swap3\n              pop\n              pop\n              pop\n              mload(0x40)\n              dup1\n              swap2\n              sub\n              swap1\n              log2\n                /* \"Pair.sol\":4242:5457  function mint(address to) external  returns (uint liquidity) {... */\n              pop\n              pop\n              pop\n              pop\n              pop\n              pop\n              pop\n              pop\n              swap2\n              swap1\n              pop\n              jump\t// out\n                /* \"ERC20.sol\":317:359  mapping(address => uint) public  balanceOf */\n            tag_68:\n              mstore(0x20, 0x01)\n              dup1\n              0x00\n              mstore\n              keccak256(0x00, 0x40)\n              0x00\n              swap2\n              pop\n              swap1\n              pop\n              sload\n              dup2\n              jump\t// out\n                /* \"Pair.sol\":956:973  uint public kLast */\n            tag_70:\n              sload(0x0a)\n              dup2\n              jump\t// out\n                /* \"ERC20.sol\":433:471  mapping(address => uint) public nonces */\n            tag_73:\n              mstore(0x20, 0x03)\n              dup1\n              0x00\n              mstore\n              keccak256(0x00, 0x40)\n              0x00\n              swap2\n              pop\n              swap1\n              pop\n              sload\n              dup2\n              jump\t// out\n                /* \"Pair.sol\":5566:7005  function burn(address to) external returns (uint amount0, uint amount1) {... */\n            tag_76:\n                /* \"Pair.sol\":5610:5622  uint amount0 */\n              0x00\n                /* \"Pair.sol\":5624:5636  uint amount1 */\n              dup1\n                /* \"Pair.sol\":5649:5666  uint112 _reserve0 */\n              0x00\n                /* \"Pair.sol\":5668:5685  uint112 _reserve1 */\n              dup1\n                /* \"Pair.sol\":5690:5703  getReserves() */\n              tag_190\n                /* \"Pair.sol\":5690:5701  getReserves */\n              tag_43\n                /* \"Pair.sol\":5690:5703  getReserves() */\n              jump\t// in\n            tag_190:\n                /* \"Pair.sol\":5648:5703  (uint112 _reserve0, uint112 _reserve1,) = getReserves() */\n              pop\n              swap2\n              pop\n              swap2\n              pop\n                /* \"Pair.sol\":5728:5743  address _token0 */\n              0x00\n                /* \"Pair.sol\":5746:5752  token0 */\n              0x05\n              0x00\n              swap1\n              sload\n              swap1\n              0x0100\n              exp\n              swap1\n              div\n              0xffffffffffffffffffffffffffffffffffffffff\n              and\n                /* \"Pair.sol\":5728:5752  address _token0 = token0 */\n              swap1\n              pop\n                /* \"Pair.sol\":5808:5823  address _token1 */\n              0x00\n                /* \"Pair.sol\":5826:5832  token1 */\n              0x06\n              0x00\n              swap1\n              sload\n              swap1\n              0x0100\n              exp\n              swap1\n              div\n              0xffffffffffffffffffffffffffffffffffffffff\n              and\n                /* \"Pair.sol\":5808:5832  address _token1 = token1 */\n              swap1\n              pop\n                /* \"Pair.sol\":5888:5901  uint balance0 */\n              0x00\n                /* \"Pair.sol\":5911:5918  _token0 */\n              dup3\n                /* \"Pair.sol\":5904:5929  IERC20(_token0).balanceOf */\n              0xffffffffffffffffffffffffffffffffffffffff\n              and\n              0x70a08231\n                /* \"Pair.sol\":5938:5942  this */\n              address\n                /* \"Pair.sol\":5904:5944  IERC20(_token0).balanceOf(address(this)) */\n              mload(0x40)\n              dup3\n              0xffffffff\n              and\n              0xe0\n              shl\n              dup2\n              mstore\n              0x04\n              add\n              dup1\n              dup3\n              0xffffffffffffffffffffffffffffffffffffffff\n              and\n              dup2\n              mstore\n              0x20\n              add\n              swap2\n              pop\n              pop\n              0x20\n              mload(0x40)\n              dup1\n              dup4\n              sub\n              dup2\n              dup7\n              dup1\n              extcodesize\n              iszero\n              dup1\n              iszero\n              tag_191\n              jumpi\n              0x00\n              dup1\n              revert\n            tag_191:\n              pop\n              gas\n              staticcall\n              iszero\n              dup1\n              iszero\n              tag_193\n              jumpi\n              returndatasize\n              0x00\n              dup1\n              returndatacopy\n              revert(0x00, returndatasize)\n            tag_193:\n              pop\n              pop\n              pop\n              pop\n              mload(0x40)\n              returndatasize\n              0x20\n              dup2\n              lt\n              iszero\n              tag_194\n              jumpi\n              0x00\n              dup1\n              revert\n            tag_194:\n              dup2\n              add\n              swap1\n              dup1\n              dup1\n              mload\n              swap1\n              0x20\n              add\n              swap1\n              swap3\n              swap2\n              swap1\n              pop\n              pop\n              pop\n                /* \"Pair.sol\":5888:5944  uint balance0 = IERC20(_token0).balanceOf(address(this)) */\n              swap1\n              pop\n                /* \"Pair.sol\":5954:5967  uint balance1 */\n              0x00\n                /* \"Pair.sol\":5977:5984  _token1 */\n              dup3\n                /* \"Pair.sol\":5970:5995  IERC20(_token1).balanceOf */\n              0xffffffffffffffffffffffffffffffffffffffff\n              and\n              0x70a08231\n                /* \"Pair.sol\":6004:6008  this */\n              address\n                /* \"Pair.sol\":5970:6010  IERC20(_token1).balanceOf(address(this)) */\n              mload(0x40)\n              dup3\n              0xffffffff\n              and\n              0xe0\n              shl\n              dup2\n              mstore\n              0x04\n              add\n              dup1\n              dup3\n              0xffffffffffffffffffffffffffffffffffffffff\n              and\n              dup2\n              mstore\n              0x20\n              add\n              swap2\n              pop\n              pop\n              0x20\n              mload(0x40)\n              dup1\n              dup4\n              sub\n              dup2\n              dup7\n              dup1\n              extcodesize\n              iszero\n              dup1\n              iszero\n              tag_195\n              jumpi\n              0x00\n              dup1\n              revert\n            tag_195:\n              pop\n              gas\n              staticcall\n              iszero\n              dup1\n              iszero\n              tag_197\n              jumpi\n              returndatasize\n              0x00\n              dup1\n              returndatacopy\n              revert(0x00, returndatasize)\n            tag_197:\n              pop\n              pop\n              pop\n              pop\n              mload(0x40)\n              returndatasize\n              0x20\n              dup2\n              lt\n              iszero\n              tag_198\n              jumpi\n              0x00\n              dup1\n              revert\n            tag_198:\n              dup2\n              add\n              swap1\n              dup1\n              dup1\n              mload\n              swap1\n              0x20\n              add\n              swap1\n              swap3\n              swap2\n              swap1\n              pop\n              pop\n              pop\n                /* \"Pair.sol\":5954:6010  uint balance1 = IERC20(_token1).balanceOf(address(this)) */\n              swap1\n              pop\n                /* \"Pair.sol\":6020:6034  uint liquidity */\n              0x00\n                /* \"Pair.sol\":6037:6046  balanceOf */\n              0x01\n                /* \"Pair.sol\":6037:6061  balanceOf[address(this)] */\n              0x00\n                /* \"Pair.sol\":6055:6059  this */\n              address\n                /* \"Pair.sol\":6037:6061  balanceOf[address(this)] */\n              0xffffffffffffffffffffffffffffffffffffffff\n              and\n              0xffffffffffffffffffffffffffffffffffffffff\n              and\n              dup2\n              mstore\n              0x20\n              add\n              swap1\n              dup2\n              mstore\n              0x20\n              add\n              0x00\n              keccak256\n              sload\n                /* \"Pair.sol\":6020:6061  uint liquidity = balanceOf[address(this)] */\n              swap1\n              pop\n                /* \"Pair.sol\":6072:6082  bool feeOn */\n              0x00\n                /* \"Pair.sol\":6085:6115  _mintFee(_reserve0, _reserve1) */\n              tag_199\n                /* \"Pair.sol\":6094:6103  _reserve0 */\n              dup9\n                /* \"Pair.sol\":6105:6114  _reserve1 */\n              dup9\n                /* \"Pair.sol\":6085:6093  _mintFee */\n              tag_169\n                /* \"Pair.sol\":6085:6115  _mintFee(_reserve0, _reserve1) */\n              jump\t// in\n            tag_199:\n                /* \"Pair.sol\":6072:6115  bool feeOn = _mintFee(_reserve0, _reserve1) */\n              swap1\n              pop\n                /* \"Pair.sol\":6125:6142  uint _totalSupply */\n              0x00\n                /* \"Pair.sol\":6145:6156  totalSupply */\n              dup1\n              sload\n                /* \"Pair.sol\":6125:6156  uint _totalSupply = totalSupply */\n              swap1\n              pop\n                /* \"Pair.sol\":6280:6292  _totalSupply */\n              dup1\n                /* \"Pair.sol\":6254:6277  liquidity.mul(balance0) */\n              tag_200\n                /* \"Pair.sol\":6268:6276  balance0 */\n              dup7\n                /* \"Pair.sol\":6254:6263  liquidity */\n              dup6\n                /* \"Pair.sol\":6254:6267  liquidity.mul */\n              tag_133\n              swap1\n                /* \"Pair.sol\":6254:6277  liquidity.mul(balance0) */\n              swap2\n              swap1\n              0xffffffff\n              and\n              jump\t// in\n            tag_200:\n                /* \"Pair.sol\":6254:6292  liquidity.mul(balance0) / _totalSupply */\n              dup2\n              tag_201\n              jumpi\n              invalid\n            tag_201:\n              div\n                /* \"Pair.sol\":6244:6292  amount0 = liquidity.mul(balance0) / _totalSupply */\n              swap11\n              pop\n                /* \"Pair.sol\":6386:6398  _totalSupply */\n              dup1\n                /* \"Pair.sol\":6360:6383  liquidity.mul(balance1) */\n              tag_202\n                /* \"Pair.sol\":6374:6382  balance1 */\n              dup6\n                /* \"Pair.sol\":6360:6369  liquidity */\n              dup6\n                /* \"Pair.sol\":6360:6373  liquidity.mul */\n              tag_133\n              swap1\n                /* \"Pair.sol\":6360:6383  liquidity.mul(balance1) */\n              swap2\n              swap1\n              0xffffffff\n              and\n              jump\t// in\n            tag_202:\n                /* \"Pair.sol\":6360:6398  liquidity.mul(balance1) / _totalSupply */\n              dup2\n              tag_203\n              jumpi\n              invalid\n            tag_203:\n              div\n                /* \"Pair.sol\":6350:6398  amount1 = liquidity.mul(balance1) / _totalSupply */\n              swap10\n              pop\n                /* \"Pair.sol\":6474:6475  0 */\n              0x00\n                /* \"Pair.sol\":6464:6471  amount0 */\n              dup12\n                /* \"Pair.sol\":6464:6475  amount0 > 0 */\n              gt\n                /* \"Pair.sol\":6464:6490  amount0 > 0 && amount1 > 0 */\n              dup1\n              iszero\n              tag_204\n              jumpi\n              pop\n                /* \"Pair.sol\":6489:6490  0 */\n              0x00\n                /* \"Pair.sol\":6479:6486  amount1 */\n              dup11\n                /* \"Pair.sol\":6479:6490  amount1 > 0 */\n              gt\n                /* \"Pair.sol\":6464:6490  amount0 > 0 && amount1 > 0 */\n            tag_204:\n                /* \"Pair.sol\":6456:6535  require(amount0 > 0 && amount1 > 0, 'UniswapV2: INSUFFICIENT_LIQUIDITY_BURNED') */\n              tag_205\n              jumpi\n              mload(0x40)\n              0x08c379a000000000000000000000000000000000000000000000000000000000\n              dup2\n              mstore\n              0x04\n              add\n              dup1\n              dup1\n              0x20\n              add\n              dup3\n              dup2\n              sub\n              dup3\n              mstore\n              0x28\n              dup2\n              mstore\n              0x20\n              add\n              dup1\n              data_57ebfb4dd8b5082cdba0f23c17077e3b0ecb9782a51e0e9a15e9bc8c4b30c562\n              0x28\n              swap2\n              codecopy\n              0x40\n              add\n              swap2\n              pop\n              pop\n              mload(0x40)\n              dup1\n              swap2\n              sub\n              swap1\n              revert\n            tag_205:\n                /* \"Pair.sol\":6545:6576  _burn(address(this), liquidity) */\n              tag_206\n                /* \"Pair.sol\":6559:6563  this */\n              address\n                /* \"Pair.sol\":6566:6575  liquidity */\n              dup5\n                /* \"Pair.sol\":6545:6550  _burn */\n              tag_207\n                /* \"Pair.sol\":6545:6576  _burn(address(this), liquidity) */\n              jump\t// in\n            tag_206:\n                /* \"Pair.sol\":6586:6621  _safeTransfer(_token0, to, amount0) */\n              tag_208\n                /* \"Pair.sol\":6600:6607  _token0 */\n              dup8\n                /* \"Pair.sol\":6609:6611  to */\n              dup14\n                /* \"Pair.sol\":6613:6620  amount0 */\n              dup14\n                /* \"Pair.sol\":6586:6599  _safeTransfer */\n              tag_110\n                /* \"Pair.sol\":6586:6621  _safeTransfer(_token0, to, amount0) */\n              jump\t// in\n            tag_208:\n                /* \"Pair.sol\":6631:6666  _safeTransfer(_token1, to, amount1) */\n              tag_209\n                /* \"Pair.sol\":6645:6652  _token1 */\n              dup7\n                /* \"Pair.sol\":6654:6656  to */\n              dup14\n                /* \"Pair.sol\":6658:6665  amount1 */\n              dup13\n                /* \"Pair.sol\":6631:6644  _safeTransfer */\n              tag_110\n                /* \"Pair.sol\":6631:6666  _safeTransfer(_token1, to, amount1) */\n              jump\t// in\n            tag_209:\n                /* \"Pair.sol\":6694:6701  _token0 */\n              dup7\n                /* \"Pair.sol\":6687:6712  IERC20(_token0).balanceOf */\n              0xffffffffffffffffffffffffffffffffffffffff\n              and\n              0x70a08231\n                /* \"Pair.sol\":6721:6725  this */\n              address\n                /* \"Pair.sol\":6687:6727  IERC20(_token0).balanceOf(address(this)) */\n              mload(0x40)\n              dup3\n              0xffffffff\n              and\n              0xe0\n              shl\n              dup2\n              mstore\n              0x04\n              add\n              dup1\n              dup3\n              0xffffffffffffffffffffffffffffffffffffffff\n              and\n              dup2\n              mstore\n              0x20\n              add\n              swap2\n              pop\n              pop\n              0x20\n              mload(0x40)\n              dup1\n              dup4\n              sub\n              dup2\n              dup7\n              dup1\n              extcodesize\n              iszero\n              dup1\n              iszero\n              tag_210\n              jumpi\n              0x00\n              dup1\n              revert\n            tag_210:\n              pop\n              gas\n              staticcall\n              iszero\n              dup1\n              iszero\n              tag_212\n              jumpi\n              returndatasize\n              0x00\n              dup1\n              returndatacopy\n              revert(0x00, returndatasize)\n            tag_212:\n              pop\n              pop\n              pop\n              pop\n              mload(0x40)\n              returndatasize\n              0x20\n              dup2\n              lt\n              iszero\n              tag_213\n              jumpi\n              0x00\n              dup1\n              revert\n            tag_213:\n              dup2\n              add\n              swap1\n              dup1\n              dup1\n              mload\n              swap1\n              0x20\n              add\n              swap1\n              swap3\n              swap2\n              swap1\n              pop\n              pop\n              pop\n                /* \"Pair.sol\":6676:6727  balance0 = IERC20(_token0).balanceOf(address(this)) */\n              swap5\n              pop\n                /* \"Pair.sol\":6755:6762  _token1 */\n              dup6\n                /* \"Pair.sol\":6748:6773  IERC20(_token1).balanceOf */\n              0xffffffffffffffffffffffffffffffffffffffff\n              and\n              0x70a08231\n                /* \"Pair.sol\":6782:6786  this */\n              address\n                /* \"Pair.sol\":6748:6788  IERC20(_token1).balanceOf(address(this)) */\n              mload(0x40)\n              dup3\n              0xffffffff\n              and\n              0xe0\n              shl\n              dup2\n              mstore\n              0x04\n              add\n              dup1\n              dup3\n              0xffffffffffffffffffffffffffffffffffffffff\n              and\n              dup2\n              mstore\n              0x20\n              add\n              swap2\n              pop\n              pop\n              0x20\n              mload(0x40)\n              dup1\n              dup4\n              sub\n              dup2\n              dup7\n              dup1\n              extcodesize\n              iszero\n              dup1\n              iszero\n              tag_214\n              jumpi\n              0x00\n              dup1\n              revert\n            tag_214:\n              pop\n              gas\n              staticcall\n              iszero\n              dup1\n              iszero\n              tag_216\n              jumpi\n              returndatasize\n              0x00\n              dup1\n              returndatacopy\n              revert(0x00, returndatasize)\n            tag_216:\n              pop\n              pop\n              pop\n              pop\n              mload(0x40)\n              returndatasize\n              0x20\n              dup2\n              lt\n              iszero\n              tag_217\n              jumpi\n              0x00\n              dup1\n              revert\n            tag_217:\n              dup2\n              add\n              swap1\n              dup1\n              dup1\n              mload\n              swap1\n              0x20\n              add\n              swap1\n              swap3\n              swap2\n              swap1\n              pop\n              pop\n              pop\n                /* \"Pair.sol\":6737:6788  balance1 = IERC20(_token1).balanceOf(address(this)) */\n              swap4\n              pop\n                /* \"Pair.sol\":6799:6848  _update(balance0, balance1, _reserve0, _reserve1) */\n              tag_218\n                /* \"Pair.sol\":6807:6815  balance0 */\n              dup6\n                /* \"Pair.sol\":6817:6825  balance1 */\n              dup6\n                /* \"Pair.sol\":6827:6836  _reserve0 */\n              dup12\n                /* \"Pair.sol\":6838:6847  _reserve1 */\n              dup12\n                /* \"Pair.sol\":6799:6806  _update */\n              tag_144\n                /* \"Pair.sol\":6799:6848  _update(balance0, balance1, _reserve0, _reserve1) */\n              jump\t// in\n            tag_218:\n                /* \"Pair.sol\":6862:6867  feeOn */\n              dup2\n                /* \"Pair.sol\":6858:6905  if (feeOn) kLast = uint(reserve0).mul(reserve1) */\n              iszero\n              tag_219\n              jumpi\n                /* \"Pair.sol\":6877:6905  uint(reserve0).mul(reserve1) */\n              tag_220\n                /* \"Pair.sol\":6896:6904  reserve1 */\n              0x07\n              0x0e\n              swap1\n              sload\n              swap1\n              0x0100\n              exp\n              swap1\n              div\n              0xffffffffffffffffffffffffffff\n              and\n                /* \"Pair.sol\":6877:6905  uint(reserve0).mul(reserve1) */\n              0xffffffffffffffffffffffffffff\n              and\n                /* \"Pair.sol\":6882:6890  reserve0 */\n              0x07\n              0x00\n              swap1\n              sload\n              swap1\n              0x0100\n              exp\n              swap1\n              div\n              0xffffffffffffffffffffffffffff\n              and\n                /* \"Pair.sol\":6877:6891  uint(reserve0) */\n              0xffffffffffffffffffffffffffff\n              and\n                /* \"Pair.sol\":6877:6895  uint(reserve0).mul */\n              tag_133\n              swap1\n                /* \"Pair.sol\":6877:6905  uint(reserve0).mul(reserve1) */\n              swap2\n              swap1\n              0xffffffff\n              and\n              jump\t// in\n            tag_220:\n                /* \"Pair.sol\":6869:6874  kLast */\n              0x0a\n                /* \"Pair.sol\":6869:6905  kLast = uint(reserve0).mul(reserve1) */\n              dup2\n              swap1\n              sstore\n              pop\n                /* \"Pair.sol\":6858:6905  if (feeOn) kLast = uint(reserve0).mul(reserve1) */\n            tag_219:\n                /* \"Pair.sol\":6995:6997  to */\n              dup12\n                /* \"Pair.sol\":6960:6998  Burn(msg.sender, amount0, amount1, to) */\n              0xffffffffffffffffffffffffffffffffffffffff\n              and\n                /* \"Pair.sol\":6965:6975  msg.sender */\n              caller\n                /* \"Pair.sol\":6960:6998  Burn(msg.sender, amount0, amount1, to) */\n              0xffffffffffffffffffffffffffffffffffffffff\n              and\n              0xdccd412f0b1252819cb1fd330b93224ca42612892bb3f4f789976e6d81936496\n                /* \"Pair.sol\":6977:6984  amount0 */\n              dup14\n                /* \"Pair.sol\":6986:6993  amount1 */\n              dup14\n                /* \"Pair.sol\":6960:6998  Burn(msg.sender, amount0, amount1, to) */\n              mload(0x40)\n              dup1\n              dup4\n              dup2\n              mstore\n              0x20\n              add\n              dup3\n              dup2\n              mstore\n              0x20\n              add\n              swap3\n              pop\n              pop\n              pop\n              mload(0x40)\n              dup1\n              swap2\n              sub\n              swap1\n              log3\n                /* \"Pair.sol\":5566:7005  function burn(address to) external returns (uint amount0, uint amount1) {... */\n              pop\n              pop\n              pop\n              pop\n              pop\n              pop\n              pop\n              pop\n              pop\n              swap2\n              pop\n              swap2\n              jump\t// out\n                /* \"ERC20.sol\":199:239  string public constant symbol = 'UNI-V2' */\n            tag_78:\n              mload(0x40)\n              dup1\n              0x40\n              add\n              0x40\n              mstore\n              dup1\n              0x06\n              dup2\n              mstore\n              0x20\n              add\n              0x554e492d56320000000000000000000000000000000000000000000000000000\n              dup2\n              mstore\n              pop\n              dup2\n              jump\t// out\n                /* \"ERC20.sol\":1627:1763  function transfer(address to, uint value) external returns (bool) {... */\n            tag_85:\n                /* \"ERC20.sol\":1687:1691  bool */\n              0x00\n                /* \"ERC20.sol\":1703:1735  _transfer(msg.sender, to, value) */\n              tag_222\n                /* \"ERC20.sol\":1713:1723  msg.sender */\n              caller\n                /* \"ERC20.sol\":1725:1727  to */\n              dup5\n                /* \"ERC20.sol\":1729:1734  value */\n              dup5\n                /* \"ERC20.sol\":1703:1712  _transfer */\n              tag_153\n                /* \"ERC20.sol\":1703:1735  _transfer(msg.sender, to, value) */\n              jump\t// in\n            tag_222:\n                /* \"ERC20.sol\":1752:1756  true */\n              0x01\n                /* \"ERC20.sol\":1745:1756  return true */\n              swap1\n              pop\n                /* \"ERC20.sol\":1627:1763  function transfer(address to, uint value) external returns (bool) {... */\n              swap3\n              swap2\n              pop\n              pop\n              jump\t// out\n                /* \"Pair.sol\":361:407  uint public constant MINIMUM_LIQUIDITY = 10**3 */\n            tag_87:\n                /* \"Pair.sol\":402:407  10**3 */\n              0x03e8\n                /* \"Pair.sol\":361:407  uint public constant MINIMUM_LIQUIDITY = 10**3 */\n              dup2\n              jump\t// out\n                /* \"Pair.sol\":9016:9340  function skim(address to) external {... */\n            tag_90:\n                /* \"Pair.sol\":9061:9076  address _token0 */\n              0x00\n                /* \"Pair.sol\":9079:9085  token0 */\n              0x05\n              0x00\n              swap1\n              sload\n              swap1\n              0x0100\n              exp\n              swap1\n              div\n              0xffffffffffffffffffffffffffffffffffffffff\n              and\n                /* \"Pair.sol\":9061:9085  address _token0 = token0 */\n              swap1\n              pop\n                /* \"Pair.sol\":9110:9125  address _token1 */\n              0x00\n                /* \"Pair.sol\":9128:9134  token1 */\n              0x06\n              0x00\n              swap1\n              sload\n              swap1\n              0x0100\n              exp\n              swap1\n              div\n              0xffffffffffffffffffffffffffffffffffffffff\n              and\n                /* \"Pair.sol\":9110:9134  address _token1 = token1 */\n              swap1\n              pop\n                /* \"Pair.sol\":9159:9241  _safeTransfer(_token0, to, IERC20(_token0).balanceOf(address(this)).sub(reserve0)) */\n              tag_224\n                /* \"Pair.sol\":9173:9180  _token0 */\n              dup3\n                /* \"Pair.sol\":9182:9184  to */\n              dup5\n                /* \"Pair.sol\":9186:9240  IERC20(_token0).balanceOf(address(this)).sub(reserve0) */\n              tag_225\n                /* \"Pair.sol\":9231:9239  reserve0 */\n              0x07\n              0x00\n              swap1\n              sload\n              swap1\n              0x0100\n              exp\n              swap1\n              div\n              0xffffffffffffffffffffffffffff\n              and\n                /* \"Pair.sol\":9186:9240  IERC20(_token0).balanceOf(address(this)).sub(reserve0) */\n              0xffffffffffffffffffffffffffff\n              and\n                /* \"Pair.sol\":9193:9200  _token0 */\n              dup7\n                /* \"Pair.sol\":9186:9211  IERC20(_token0).balanceOf */\n              0xffffffffffffffffffffffffffffffffffffffff\n              and\n              0x70a08231\n                /* \"Pair.sol\":9220:9224  this */\n              address\n                /* \"Pair.sol\":9186:9226  IERC20(_token0).balanceOf(address(this)) */\n              mload(0x40)\n              dup3\n              0xffffffff\n              and\n              0xe0\n              shl\n              dup2\n              mstore\n              0x04\n              add\n              dup1\n              dup3\n              0xffffffffffffffffffffffffffffffffffffffff\n              and\n              dup2\n              mstore\n              0x20\n              add\n              swap2\n              pop\n              pop\n              0x20\n              mload(0x40)\n              dup1\n              dup4\n              sub\n              dup2\n              dup7\n              dup1\n              extcodesize\n              iszero\n              dup1\n              iszero\n              tag_226\n              jumpi\n              0x00\n              dup1\n              revert\n            tag_226:\n              pop\n              gas\n              staticcall\n              iszero\n              dup1\n              iszero\n              tag_228\n              jumpi\n              returndatasize\n              0x00\n              dup1\n              returndatacopy\n              revert(0x00, returndatasize)\n            tag_228:\n              pop\n              pop\n              pop\n              pop\n              mload(0x40)\n              returndatasize\n              0x20\n              dup2\n              lt\n              iszero\n              tag_229\n              jumpi\n              0x00\n              dup1\n              revert\n            tag_229:\n              dup2\n              add\n              swap1\n              dup1\n              dup1\n              mload\n              swap1\n              0x20\n              add\n              swap1\n              swap3\n              swap2\n              swap1\n              pop\n              pop\n              pop\n                /* \"Pair.sol\":9186:9230  IERC20(_token0).balanceOf(address(this)).sub */\n              tag_135\n              swap1\n                /* \"Pair.sol\":9186:9240  IERC20(_token0).balanceOf(address(this)).sub(reserve0) */\n              swap2\n              swap1\n              0xffffffff\n              and\n              jump\t// in\n            tag_225:\n                /* \"Pair.sol\":9159:9172  _safeTransfer */\n              tag_110\n                /* \"Pair.sol\":9159:9241  _safeTransfer(_token0, to, IERC20(_token0).balanceOf(address(this)).sub(reserve0)) */\n              jump\t// in\n            tag_224:\n                /* \"Pair.sol\":9251:9333  _safeTransfer(_token1, to, IERC20(_token1).balanceOf(address(this)).sub(reserve1)) */\n              tag_230\n                /* \"Pair.sol\":9265:9272  _token1 */\n              dup2\n                /* \"Pair.sol\":9274:9276  to */\n              dup5\n                /* \"Pair.sol\":9278:9332  IERC20(_token1).balanceOf(address(this)).sub(reserve1) */\n              tag_231\n                /* \"Pair.sol\":9323:9331  reserve1 */\n              0x07\n              0x0e\n              swap1\n              sload\n              swap1\n              0x0100\n              exp\n              swap1\n              div\n              0xffffffffffffffffffffffffffff\n              and\n                /* \"Pair.sol\":9278:9332  IERC20(_token1).balanceOf(address(this)).sub(reserve1) */\n              0xffffffffffffffffffffffffffff\n              and\n                /* \"Pair.sol\":9285:9292  _token1 */\n              dup6\n                /* \"Pair.sol\":9278:9303  IERC20(_token1).balanceOf */\n              0xffffffffffffffffffffffffffffffffffffffff\n              and\n              0x70a08231\n                /* \"Pair.sol\":9312:9316  this */\n              address\n                /* \"Pair.sol\":9278:9318  IERC20(_token1).balanceOf(address(this)) */\n              mload(0x40)\n              dup3\n              0xffffffff\n              and\n              0xe0\n              shl\n              dup2\n              mstore\n              0x04\n              add\n              dup1\n              dup3\n              0xffffffffffffffffffffffffffffffffffffffff\n              and\n              dup2\n              mstore\n              0x20\n              add\n              swap2\n              pop\n              pop\n              0x20\n              mload(0x40)\n              dup1\n              dup4\n              sub\n              dup2\n              dup7\n              dup1\n              extcodesize\n              iszero\n              dup1\n              iszero\n              tag_232\n              jumpi\n              0x00\n              dup1\n              revert\n            tag_232:\n              pop\n              gas\n              staticcall\n              iszero\n              dup1\n              iszero\n              tag_234\n              jumpi\n              returndatasize\n              0x00\n              dup1\n              returndatacopy\n              revert(0x00, returndatasize)\n            tag_234:\n              pop\n              pop\n              pop\n              pop\n              mload(0x40)\n              returndatasize\n              0x20\n              dup2\n              lt\n              iszero\n              tag_235\n              jumpi\n              0x00\n              dup1\n              revert\n            tag_235:\n              dup2\n              add\n              swap1\n              dup1\n              dup1\n              mload\n              swap1\n              0x20\n              add\n              swap1\n              swap3\n              swap2\n              swap1\n              pop\n              pop\n              pop\n                /* \"Pair.sol\":9278:9322  IERC20(_token1).balanceOf(address(this)).sub */\n              tag_135\n              swap1\n                /* \"Pair.sol\":9278:9332  IERC20(_token1).balanceOf(address(this)).sub(reserve1) */\n              swap2\n              swap1\n              0xffffffff\n              and\n              jump\t// in\n            tag_231:\n                /* \"Pair.sol\":9251:9264  _safeTransfer */\n              tag_110\n                /* \"Pair.sol\":9251:9333  _safeTransfer(_token1, to, IERC20(_token1).balanceOf(address(this)).sub(reserve1)) */\n              jump\t// in\n            tag_230:\n                /* \"Pair.sol\":9016:9340  function skim(address to) external {... */\n              pop\n              pop\n              pop\n              jump\t// out\n                /* \"Pair.sol\":508:530  address public factory */\n            tag_92:\n              0x04\n              0x00\n              swap1\n              sload\n              swap1\n              0x0100\n              exp\n              swap1\n              div\n              0xffffffffffffffffffffffffffffffffffffffff\n              and\n              dup2\n              jump\t// out\n                /* \"Pair.sol\":563:584  address public token1 */\n            tag_94:\n              0x06\n              0x00\n              swap1\n              sload\n              swap1\n              0x0100\n              exp\n              swap1\n              div\n              0xffffffffffffffffffffffffffffffffffffffff\n              and\n              dup2\n              jump\t// out\n                /* \"ERC20.sol\":365:426  mapping(address => mapping(address => uint)) public allowance */\n            tag_97:\n              mstore(0x20, 0x02)\n              dup2\n              0x00\n              mstore\n              mstore(0x20, keccak256(0x00, 0x40))\n              dup1\n              0x00\n              mstore\n              keccak256(0x00, 0x40)\n              0x00\n              swap2\n              pop\n              swap2\n              pop\n              pop\n              sload\n              dup2\n              jump\t// out\n                /* \"Pair.sol\":9386:9538  function sync() external  {... */\n            tag_99:\n                /* \"Pair.sol\":9422:9531  _update(IERC20(token0).balanceOf(address(this)), IERC20(token1).balanceOf(address(this)), reserve0, reserve1) */\n              tag_237\n                /* \"Pair.sol\":9437:9443  token0 */\n              0x05\n              0x00\n              swap1\n              sload\n              swap1\n              0x0100\n              exp\n              swap1\n              div\n              0xffffffffffffffffffffffffffffffffffffffff\n              and\n                /* \"Pair.sol\":9430:9454  IERC20(token0).balanceOf */\n              0xffffffffffffffffffffffffffffffffffffffff\n              and\n              0x70a08231\n                /* \"Pair.sol\":9463:9467  this */\n              address\n                /* \"Pair.sol\":9430:9469  IERC20(token0).balanceOf(address(this)) */\n              mload(0x40)\n              dup3\n              0xffffffff\n              and\n              0xe0\n              shl\n              dup2\n              mstore\n              0x04\n              add\n              dup1\n              dup3\n              0xffffffffffffffffffffffffffffffffffffffff\n              and\n              dup2\n              mstore\n              0x20\n              add\n              swap2\n              pop\n              pop\n              0x20\n              mload(0x40)\n              dup1\n              dup4\n              sub\n              dup2\n              dup7\n              dup1\n              extcodesize\n              iszero\n              dup1\n              iszero\n              tag_238\n              jumpi\n              0x00\n              dup1\n              revert\n            tag_238:\n              pop\n              gas\n              staticcall\n              iszero\n              dup1\n              iszero\n              tag_240\n              jumpi\n              returndatasize\n              0x00\n              dup1\n              returndatacopy\n              revert(0x00, returndatasize)\n            tag_240:\n              pop\n              pop\n              pop\n              pop\n              mload(0x40)\n              returndatasize\n              0x20\n              dup2\n              lt\n              iszero\n              tag_241\n              jumpi\n              0x00\n              dup1\n              revert\n            tag_241:\n              dup2\n              add\n              swap1\n              dup1\n              dup1\n              mload\n              swap1\n              0x20\n              add\n              swap1\n              swap3\n              swap2\n              swap1\n              pop\n              pop\n              pop\n                /* \"Pair.sol\":9478:9484  token1 */\n              0x06\n              0x00\n              swap1\n              sload\n              swap1\n              0x0100\n              exp\n              swap1\n              div\n              0xffffffffffffffffffffffffffffffffffffffff\n              and\n                /* \"Pair.sol\":9471:9495  IERC20(token1).balanceOf */\n              0xffffffffffffffffffffffffffffffffffffffff\n              and\n              0x70a08231\n                /* \"Pair.sol\":9504:9508  this */\n              address\n                /* \"Pair.sol\":9471:9510  IERC20(token1).balanceOf(address(this)) */\n              mload(0x40)\n              dup3\n              0xffffffff\n              and\n              0xe0\n              shl\n              dup2\n              mstore\n              0x04\n              add\n              dup1\n              dup3\n              0xffffffffffffffffffffffffffffffffffffffff\n              and\n              dup2\n              mstore\n              0x20\n              add\n              swap2\n              pop\n              pop\n              0x20\n              mload(0x40)\n              dup1\n              dup4\n              sub\n              dup2\n              dup7\n              dup1\n              extcodesize\n              iszero\n              dup1\n              iszero\n              tag_242\n              jumpi\n              0x00\n              dup1\n              revert\n            tag_242:\n              pop\n              gas\n              staticcall\n              iszero\n              dup1\n              iszero\n              tag_244\n              jumpi\n              returndatasize\n              0x00\n              dup1\n              returndatacopy\n              revert(0x00, returndatasize)\n            tag_244:\n              pop\n              pop\n              pop\n              pop\n              mload(0x40)\n              returndatasize\n              0x20\n              dup2\n              lt\n              iszero\n              tag_245\n              jumpi\n              0x00\n              dup1\n              revert\n            tag_245:\n              dup2\n              add\n              swap1\n              dup1\n              dup1\n              mload\n              swap1\n              0x20\n              add\n              swap1\n              swap3\n              swap2\n              swap1\n              pop\n              pop\n              pop\n                /* \"Pair.sol\":9512:9520  reserve0 */\n              0x07\n              0x00\n              swap1\n              sload\n              swap1\n              0x0100\n              exp\n              swap1\n              div\n              0xffffffffffffffffffffffffffff\n              and\n                /* \"Pair.sol\":9522:9530  reserve1 */\n              0x07\n              0x0e\n              swap1\n              sload\n              swap1\n              0x0100\n              exp\n              swap1\n              div\n              0xffffffffffffffffffffffffffff\n              and\n                /* \"Pair.sol\":9422:9429  _update */\n              tag_144\n                /* \"Pair.sol\":9422:9531  _update(IERC20(token0).balanceOf(address(this)), IERC20(token1).balanceOf(address(this)), reserve0, reserve1) */\n              jump\t// in\n            tag_237:\n                /* \"Pair.sol\":9386:9538  function sync() external  {... */\n              jump\t// out\n                /* \"Pair.sol\":1293:1577  function _safeTransfer(address token, address to, uint value) private {... */\n            tag_110:\n                /* \"Pair.sol\":1374:1386  bool success */\n              0x00\n                /* \"Pair.sol\":1388:1405  bytes memory data */\n              0x60\n                /* \"Pair.sol\":1409:1414  token */\n              dup5\n                /* \"Pair.sol\":1409:1419  token.call */\n              0xffffffffffffffffffffffffffffffffffffffff\n              and\n                /* \"Pair.sol\":465:499  bytes('transfer(address,uint256)') */\n              mload(0x40)\n              dup1\n              0x40\n              add\n              0x40\n              mstore\n              dup1\n              0x19\n              dup2\n              mstore\n              0x20\n              add\n              0x7472616e7366657228616464726573732c75696e743235362900000000000000\n              dup2\n              mstore\n              pop\n                /* \"Pair.sol\":455:500  keccak256(bytes('transfer(address,uint256)')) */\n              dup1\n              mload\n              swap1\n              0x20\n              add\n              keccak256\n                /* \"Pair.sol\":1453:1455  to */\n              dup6\n                /* \"Pair.sol\":1457:1462  value */\n              dup6\n                /* \"Pair.sol\":1420:1463  abi.encodeWithSelector(SELECTOR, to, value) */\n              add(0x24, mload(0x40))\n              dup1\n              dup4\n              0xffffffffffffffffffffffffffffffffffffffff\n              and\n              dup2\n              mstore\n              0x20\n              add\n              dup3\n              dup2\n              mstore\n              0x20\n              add\n              swap3\n              pop\n              pop\n              pop\n              mload(0x40)\n              0x20\n              dup2\n              dup4\n              sub\n              sub\n              dup2\n              mstore\n              swap1\n              0x40\n              mstore\n              swap1\n              not(0xffffffffffffffffffffffffffffffffffffffffffffffffffffffff)\n              and\n              0x20\n              dup3\n              add\n              dup1\n              mload\n              0xffffffffffffffffffffffffffffffffffffffffffffffffffffffff\n              dup4\n              dup2\n              dup4\n              and\n              or\n              dup4\n              mstore\n              pop\n              pop\n              pop\n              pop\n                /* \"Pair.sol\":1409:1464  token.call(abi.encodeWithSelector(SELECTOR, to, value)) */\n              mload(0x40)\n              dup1\n              dup3\n              dup1\n              mload\n              swap1\n              0x20\n              add\n              swap1\n              dup1\n              dup4\n              dup4\n            tag_247:\n              0x20\n              dup4\n              lt\n              tag_249\n              jumpi\n              dup1\n              mload\n              dup3\n              mstore\n              0x20\n              dup3\n              add\n              swap2\n              pop\n              0x20\n              dup2\n              add\n              swap1\n              pop\n              0x20\n              dup4\n              sub\n              swap3\n              pop\n              jump(tag_247)\n            tag_249:\n              0x01\n              dup4\n              0x20\n              sub\n              0x0100\n              exp\n              sub\n              dup1\n              not\n              dup3\n              mload\n              and\n              dup2\n              dup5\n              mload\n              and\n              dup1\n              dup3\n              or\n              dup6\n              mstore\n              pop\n              pop\n              pop\n              pop\n              pop\n              pop\n              swap1\n              pop\n              add\n              swap2\n              pop\n              pop\n              0x00\n              mload(0x40)\n              dup1\n              dup4\n              sub\n              dup2\n              0x00\n              dup7\n              gas\n              call\n              swap2\n              pop\n              pop\n              returndatasize\n              dup1\n              0x00\n              dup2\n              eq\n              tag_252\n              jumpi\n              mload(0x40)\n              swap2\n              pop\n              and(add(returndatasize, 0x3f), not(0x1f))\n              dup3\n              add\n              0x40\n              mstore\n              returndatasize\n              dup3\n              mstore\n              returndatasize\n              0x00\n              0x20\n              dup5\n              add\n              returndatacopy\n              jump(tag_251)\n            tag_252:\n              0x60\n              swap2\n              pop\n            tag_251:\n              pop\n                /* \"Pair.sol\":1373:1464  (bool success, bytes memory data) = token.call(abi.encodeWithSelector(SELECTOR, to, value)) */\n              swap2\n              pop\n              swap2\n              pop\n                /* \"Pair.sol\":1482:1489  success */\n              dup2\n                /* \"Pair.sol\":1482:1539  success && (data.length == 0 || abi.decode(data, (bool))) */\n              dup1\n              iszero\n              tag_253\n              jumpi\n              pop\n                /* \"Pair.sol\":1509:1510  0 */\n              0x00\n                /* \"Pair.sol\":1494:1498  data */\n              dup2\n                /* \"Pair.sol\":1494:1505  data.length */\n              mload\n                /* \"Pair.sol\":1494:1510  data.length == 0 */\n              eq\n                /* \"Pair.sol\":1494:1538  data.length == 0 || abi.decode(data, (bool)) */\n              dup1\n              tag_254\n              jumpi\n              pop\n                /* \"Pair.sol\":1525:1529  data */\n              dup1\n                /* \"Pair.sol\":1514:1538  abi.decode(data, (bool)) */\n              dup1\n              0x20\n              add\n              swap1\n              mload\n              0x20\n              dup2\n              lt\n              iszero\n              tag_255\n              jumpi\n              0x00\n              dup1\n              revert\n            tag_255:\n              dup2\n              add\n              swap1\n              dup1\n              dup1\n              mload\n              swap1\n              0x20\n              add\n              swap1\n              swap3\n              swap2\n              swap1\n              pop\n              pop\n              pop\n                /* \"Pair.sol\":1494:1538  data.length == 0 || abi.decode(data, (bool)) */\n            tag_254:\n                /* \"Pair.sol\":1482:1539  success && (data.length == 0 || abi.decode(data, (bool))) */\n            tag_253:\n                /* \"Pair.sol\":1474:1570  require(success && (data.length == 0 || abi.decode(data, (bool))), 'UniswapV2: TRANSFER_FAILED') */\n              tag_256\n              jumpi\n              mload(0x40)\n              0x08c379a000000000000000000000000000000000000000000000000000000000\n              dup2\n              mstore\n              0x04\n              add\n              dup1\n              dup1\n              0x20\n              add\n              dup3\n              dup2\n              sub\n              dup3\n              mstore\n              0x1a\n              dup2\n              mstore\n              0x20\n              add\n              dup1\n              0x556e697377617056323a205452414e534645525f4641494c4544000000000000\n              dup2\n              mstore\n              pop\n              0x20\n              add\n              swap2\n              pop\n              pop\n              mload(0x40)\n              dup1\n              swap2\n              sub\n              swap1\n              revert\n            tag_256:\n                /* \"Pair.sol\":1293:1577  function _safeTransfer(address token, address to, uint value) private {... */\n              pop\n              pop\n              pop\n              pop\n              pop\n              jump\t// out\n                /* \"libraries/SafeMath.sol\":453:593  function mul(uint x, uint y) internal pure returns (uint z) {... */\n            tag_133:\n                /* \"libraries/SafeMath.sol\":505:511  uint z */\n              0x00\n                /* \"libraries/SafeMath.sol\":536:537  0 */\n              dup1\n                /* \"libraries/SafeMath.sol\":531:532  y */\n              dup3\n                /* \"libraries/SafeMath.sol\":531:537  y == 0 */\n              eq\n                /* \"libraries/SafeMath.sol\":531:561  y == 0 || (z = x * y) / y == x */\n              dup1\n              tag_258\n              jumpi\n              pop\n                /* \"libraries/SafeMath.sol\":560:561  x */\n              dup3\n                /* \"libraries/SafeMath.sol\":555:556  y */\n              dup3\n                /* \"libraries/SafeMath.sol\":550:551  y */\n              dup4\n                /* \"libraries/SafeMath.sol\":546:547  x */\n              dup6\n                /* \"libraries/SafeMath.sol\":546:551  x * y */\n              mul\n                /* \"libraries/SafeMath.sol\":542:551  z = x * y */\n              swap3\n              pop\n              dup3\n                /* \"libraries/SafeMath.sol\":541:556  (z = x * y) / y */\n              dup2\n              tag_259\n              jumpi\n              invalid\n            tag_259:\n              div\n                /* \"libraries/SafeMath.sol\":541:561  (z = x * y) / y == x */\n              eq\n                /* \"libraries/SafeMath.sol\":531:561  y == 0 || (z = x * y) / y == x */\n            tag_258:\n                /* \"libraries/SafeMath.sol\":523:586  require(y == 0 || (z = x * y) / y == x, 'ds-math-mul-overflow') */\n              tag_260\n              jumpi\n              mload(0x40)\n              0x08c379a000000000000000000000000000000000000000000000000000000000\n              dup2\n              mstore\n              0x04\n              add\n              dup1\n              dup1\n              0x20\n              add\n              dup3\n              dup2\n              sub\n              dup3\n              mstore\n              0x14\n              dup2\n              mstore\n              0x20\n              add\n              dup1\n              0x64732d6d6174682d6d756c2d6f766572666c6f77000000000000000000000000\n              dup2\n              mstore\n              pop\n              0x20\n              add\n              swap2\n              pop\n              pop\n              mload(0x40)\n              dup1\n              swap2\n              sub\n              swap1\n              revert\n            tag_260:\n                /* \"libraries/SafeMath.sol\":453:593  function mul(uint x, uint y) internal pure returns (uint z) {... */\n              swap3\n              swap2\n              pop\n              pop\n              jump\t// out\n                /* \"libraries/SafeMath.sol\":320:447  function sub(uint x, uint y) internal pure returns (uint z) {... */\n            tag_135:\n                /* \"libraries/SafeMath.sol\":372:378  uint z */\n              0x00\n                /* \"libraries/SafeMath.sol\":413:414  x */\n              dup3\n                /* \"libraries/SafeMath.sol\":407:408  y */\n              dup3\n                /* \"libraries/SafeMath.sol\":403:404  x */\n              dup5\n                /* \"libraries/SafeMath.sol\":403:408  x - y */\n              sub\n                /* \"libraries/SafeMath.sol\":399:408  z = x - y */\n              swap2\n              pop\n              dup2\n                /* \"libraries/SafeMath.sol\":398:414  (z = x - y) <= x */\n              gt\n              iszero\n                /* \"libraries/SafeMath.sol\":390:440  require((z = x - y) <= x, 'ds-math-sub-underflow') */\n              tag_262\n              jumpi\n              mload(0x40)\n              0x08c379a000000000000000000000000000000000000000000000000000000000\n              dup2\n              mstore\n              0x04\n              add\n              dup1\n              dup1\n              0x20\n              add\n              dup3\n              dup2\n              sub\n              dup3\n              mstore\n              0x15\n              dup2\n              mstore\n              0x20\n              add\n              dup1\n              0x64732d6d6174682d7375622d756e646572666c6f770000000000000000000000\n              dup2\n              mstore\n              pop\n              0x20\n              add\n              swap2\n              pop\n              pop\n              mload(0x40)\n              dup1\n              swap2\n              sub\n              swap1\n              revert\n            tag_262:\n                /* \"libraries/SafeMath.sol\":320:447  function sub(uint x, uint y) internal pure returns (uint z) {... */\n              swap3\n              swap2\n              pop\n              pop\n              jump\t// out\n                /* \"Pair.sol\":2380:3227  function _update(uint balance0, uint balance1, uint112 _reserve0, uint112 _reserve1) private {... */\n            tag_144:\n                /* \"Pair.sol\":2511:2513  -1 */\n              0xffffffffffffffffffffffffffffffffffffffffffffffffffffffffffffffff\n                /* \"Pair.sol\":2491:2514  balance0 <= uint112(-1) */\n              0xffffffffffffffffffffffffffff\n              and\n                /* \"Pair.sol\":2491:2499  balance0 */\n              dup5\n                /* \"Pair.sol\":2491:2514  balance0 <= uint112(-1) */\n              gt\n              iszero\n                /* \"Pair.sol\":2491:2541  balance0 <= uint112(-1) && balance1 <= uint112(-1) */\n              dup1\n              iszero\n              tag_264\n              jumpi\n              pop\n                /* \"Pair.sol\":2538:2540  -1 */\n              0xffffffffffffffffffffffffffffffffffffffffffffffffffffffffffffffff\n                /* \"Pair.sol\":2518:2541  balance1 <= uint112(-1) */\n              0xffffffffffffffffffffffffffff\n              and\n                /* \"Pair.sol\":2518:2526  balance1 */\n              dup4\n                /* \"Pair.sol\":2518:2541  balance1 <= uint112(-1) */\n              gt\n              iszero\n                /* \"Pair.sol\":2491:2541  balance0 <= uint112(-1) && balance1 <= uint112(-1) */\n            tag_264:\n                /* \"Pair.sol\":2483:2565  require(balance0 <= uint112(-1) && balance1 <= uint112(-1), 'UniswapV2: OVERFLOW') */\n              tag_265\n              jumpi\n              mload(0x40)\n              0x08c379a000000000000000000000000000000000000000000000000000000000\n              dup2\n              mstore\n              0x04\n              add\n              dup1\n              dup1\n              0x20\n              add\n              dup3\n              dup2\n              sub\n              dup3\n              mstore\n              0x13\n              dup2\n              mstore\n              0x20\n              add\n              dup1\n              0x556e697377617056323a204f564552464c4f5700000000000000000000000000\n              dup2\n              mstore\n              pop\n              0x20\n              add\n              swap2\n              pop\n              pop\n              mload(0x40)\n              dup1\n              swap2\n              sub\n              swap1\n              revert\n            tag_265:\n                /* \"Pair.sol\":2575:2596  uint32 blockTimestamp */\n              0x00\n                /* \"Pair.sol\":2624:2629  2**32 */\n              0x0100000000\n                /* \"Pair.sol\":2606:2621  block.timestamp */\n              timestamp\n                /* \"Pair.sol\":2606:2629  block.timestamp % 2**32 */\n              dup2\n              tag_266\n              jumpi\n              invalid\n            tag_266:\n              mod\n                /* \"Pair.sol\":2575:2630  uint32 blockTimestamp = uint32(block.timestamp % 2**32) */\n              swap1\n              pop\n                /* \"Pair.sol\":2640:2658  uint32 timeElapsed */\n              0x00\n                /* \"Pair.sol\":2678:2696  blockTimestampLast */\n              0x07\n              0x1c\n              swap1\n              sload\n              swap1\n              0x0100\n              exp\n              swap1\n              div\n              0xffffffff\n              and\n                /* \"Pair.sol\":2661:2675  blockTimestamp */\n              dup3\n                /* \"Pair.sol\":2661:2696  blockTimestamp - blockTimestampLast */\n              sub\n                /* \"Pair.sol\":2640:2696  uint32 timeElapsed = blockTimestamp - blockTimestampLast */\n              swap1\n              pop\n                /* \"Pair.sol\":2747:2748  0 */\n              0x00\n                /* \"Pair.sol\":2733:2744  timeElapsed */\n              dup2\n                /* \"Pair.sol\":2733:2748  timeElapsed > 0 */\n              0xffffffff\n              and\n              gt\n                /* \"Pair.sol\":2733:2766  timeElapsed > 0 && _reserve0 != 0 */\n              dup1\n              iszero\n              tag_267\n              jumpi\n              pop\n                /* \"Pair.sol\":2765:2766  0 */\n              0x00\n                /* \"Pair.sol\":2752:2761  _reserve0 */\n              dup5\n                /* \"Pair.sol\":2752:2766  _reserve0 != 0 */\n              0xffffffffffffffffffffffffffff\n              and\n              eq\n              iszero\n                /* \"Pair.sol\":2733:2766  timeElapsed > 0 && _reserve0 != 0 */\n            tag_267:\n                /* \"Pair.sol\":2733:2784  timeElapsed > 0 && _reserve0 != 0 && _reserve1 != 0 */\n              dup1\n              iszero\n              tag_268\n              jumpi\n              pop\n                /* \"Pair.sol\":2783:2784  0 */\n              0x00\n                /* \"Pair.sol\":2770:2779  _reserve1 */\n              dup4\n                /* \"Pair.sol\":2770:2784  _reserve1 != 0 */\n              0xffffffffffffffffffffffffffff\n              and\n              eq\n              iszero\n                /* \"Pair.sol\":2733:2784  timeElapsed > 0 && _reserve0 != 0 && _reserve1 != 0 */\n            tag_268:\n                /* \"Pair.sol\":2729:3061  if (timeElapsed > 0 && _reserve0 != 0 && _reserve1 != 0) {... */\n              iszero\n              tag_269\n              jumpi\n                /* \"Pair.sol\":2937:2948  timeElapsed */\n              dup1\n                /* \"Pair.sol\":2884:2948  uint(UQ112x112.encode(_reserve1).uqdiv(_reserve0)) * timeElapsed */\n              0xffffffff\n              and\n                /* \"Pair.sol\":2889:2933  UQ112x112.encode(_reserve1).uqdiv(_reserve0) */\n              tag_270\n                /* \"Pair.sol\":2923:2932  _reserve0 */\n              dup6\n                /* \"Pair.sol\":2889:2916  UQ112x112.encode(_reserve1) */\n              tag_271\n                /* \"Pair.sol\":2906:2915  _reserve1 */\n              dup7\n                /* \"Pair.sol\":2889:2905  UQ112x112.encode */\n              tag_272\n                /* \"Pair.sol\":2889:2916  UQ112x112.encode(_reserve1) */\n              jump\t// in\n            tag_271:\n                /* \"Pair.sol\":2889:2922  UQ112x112.encode(_reserve1).uqdiv */\n              0xffffffffffffffffffffffffffffffffffffffffffffffffffffffff\n              and\n              tag_273\n              swap1\n                /* \"Pair.sol\":2889:2933  UQ112x112.encode(_reserve1).uqdiv(_reserve0) */\n              swap2\n              swap1\n              0xffffffff\n              and\n              jump\t// in\n            tag_270:\n                /* \"Pair.sol\":2884:2934  uint(UQ112x112.encode(_reserve1).uqdiv(_reserve0)) */\n              0xffffffffffffffffffffffffffffffffffffffffffffffffffffffff\n              and\n                /* \"Pair.sol\":2884:2948  uint(UQ112x112.encode(_reserve1).uqdiv(_reserve0)) * timeElapsed */\n              mul\n                /* \"Pair.sol\":2860:2880  price0CumulativeLast */\n              0x08\n              0x00\n                /* \"Pair.sol\":2860:2948  price0CumulativeLast += uint(UQ112x112.encode(_reserve1).uqdiv(_reserve0)) * timeElapsed */\n              dup3\n              dup3\n              sload\n              add\n              swap3\n              pop\n              pop\n              dup2\n              swap1\n              sstore\n              pop\n                /* \"Pair.sol\":3039:3050  timeElapsed */\n              dup1\n                /* \"Pair.sol\":2986:3050  uint(UQ112x112.encode(_reserve0).uqdiv(_reserve1)) * timeElapsed */\n              0xffffffff\n              and\n                /* \"Pair.sol\":2991:3035  UQ112x112.encode(_reserve0).uqdiv(_reserve1) */\n              tag_274\n                /* \"Pair.sol\":3025:3034  _reserve1 */\n              dup5\n                /* \"Pair.sol\":2991:3018  UQ112x112.encode(_reserve0) */\n              tag_275\n                /* \"Pair.sol\":3008:3017  _reserve0 */\n              dup8\n                /* \"Pair.sol\":2991:3007  UQ112x112.encode */\n              tag_272\n                /* \"Pair.sol\":2991:3018  UQ112x112.encode(_reserve0) */\n              jump\t// in\n            tag_275:\n                /* \"Pair.sol\":2991:3024  UQ112x112.encode(_reserve0).uqdiv */\n              0xffffffffffffffffffffffffffffffffffffffffffffffffffffffff\n              and\n              tag_273\n              swap1\n                /* \"Pair.sol\":2991:3035  UQ112x112.encode(_reserve0).uqdiv(_reserve1) */\n              swap2\n              swap1\n              0xffffffff\n              and\n              jump\t// in\n            tag_274:\n                /* \"Pair.sol\":2986:3036  uint(UQ112x112.encode(_reserve0).uqdiv(_reserve1)) */\n              0xffffffffffffffffffffffffffffffffffffffffffffffffffffffff\n              and\n                /* \"Pair.sol\":2986:3050  uint(UQ112x112.encode(_reserve0).uqdiv(_reserve1)) * timeElapsed */\n              mul\n                /* \"Pair.sol\":2962:2982  price1CumulativeLast */\n              0x09\n              0x00\n                /* \"Pair.sol\":2962:3050  price1CumulativeLast += uint(UQ112x112.encode(_reserve0).uqdiv(_reserve1)) * timeElapsed */\n              dup3\n              dup3\n              sload\n              add\n              swap3\n              pop\n              pop\n              dup2\n              swap1\n              sstore\n              pop\n                /* \"Pair.sol\":2729:3061  if (timeElapsed > 0 && _reserve0 != 0 && _reserve1 != 0) {... */\n            tag_269:\n                /* \"Pair.sol\":3089:3097  balance0 */\n              dup6\n                /* \"Pair.sol\":3070:3078  reserve0 */\n              0x07\n              0x00\n                /* \"Pair.sol\":3070:3098  reserve0 = uint112(balance0) */\n              0x0100\n              exp\n              dup2\n              sload\n              dup2\n              0xffffffffffffffffffffffffffff\n              mul\n              not\n              and\n              swap1\n              dup4\n              0xffffffffffffffffffffffffffff\n              and\n              mul\n              or\n              swap1\n              sstore\n              pop\n                /* \"Pair.sol\":3127:3135  balance1 */\n              dup5\n                /* \"Pair.sol\":3108:3116  reserve1 */\n              0x07\n              0x0e\n                /* \"Pair.sol\":3108:3136  reserve1 = uint112(balance1) */\n              0x0100\n              exp\n              dup2\n              sload\n              dup2\n              0xffffffffffffffffffffffffffff\n              mul\n              not\n              and\n              swap1\n              dup4\n              0xffffffffffffffffffffffffffff\n              and\n              mul\n              or\n              swap1\n              sstore\n              pop\n                /* \"Pair.sol\":3167:3181  blockTimestamp */\n              dup2\n                /* \"Pair.sol\":3146:3164  blockTimestampLast */\n              0x07\n              0x1c\n                /* \"Pair.sol\":3146:3181  blockTimestampLast = blockTimestamp */\n              0x0100\n              exp\n              dup2\n              sload\n              dup2\n              0xffffffff\n              mul\n              not\n              and\n              swap1\n              dup4\n              0xffffffff\n              and\n              mul\n              or\n              swap1\n              sstore\n              pop\n                /* \"Pair.sol\":3196:3220  Sync(reserve0, reserve1) */\n              0x1c411e9a96e071241c2f21f7726b17ae89e3cab4c78be50e062b03a9fffbbad1\n                /* \"Pair.sol\":3201:3209  reserve0 */\n              0x07\n              0x00\n              swap1\n              sload\n              swap1\n              0x0100\n              exp\n              swap1\n              div\n              0xffffffffffffffffffffffffffff\n              and\n                /* \"Pair.sol\":3211:3219  reserve1 */\n              0x07\n              0x0e\n              swap1\n              sload\n              swap1\n              0x0100\n              exp\n              swap1\n              div\n              0xffffffffffffffffffffffffffff\n              and\n                /* \"Pair.sol\":3196:3220  Sync(reserve0, reserve1) */\n              mload(0x40)\n              dup1\n              dup4\n              0xffffffffffffffffffffffffffff\n              and\n              dup2\n              mstore\n              0x20\n              add\n              dup3\n              0xffffffffffffffffffffffffffff\n              and\n              dup2\n              mstore\n              0x20\n              add\n              swap3\n              pop\n              pop\n              pop\n              mload(0x40)\n              dup1\n              swap2\n              sub\n              swap1\n              log1\n                /* \"Pair.sol\":2380:3227  function _update(uint balance0, uint balance1, uint112 _reserve0, uint112 _reserve1) private {... */\n              pop\n              pop\n              pop\n              pop\n              pop\n              pop\n              jump\t// out\n                /* \"ERC20.sol\":1083:1249  function _approve(address owner, address spender, uint value) private {... */\n            tag_148:\n                /* \"ERC20.sol\":1191:1196  value */\n              dup1\n                /* \"ERC20.sol\":1163:1172  allowance */\n              0x02\n                /* \"ERC20.sol\":1163:1179  allowance[owner] */\n              0x00\n                /* \"ERC20.sol\":1173:1178  owner */\n              dup6\n                /* \"ERC20.sol\":1163:1179  allowance[owner] */\n              0xffffffffffffffffffffffffffffffffffffffff\n              and\n              0xffffffffffffffffffffffffffffffffffffffff\n              and\n              dup2\n              mstore\n              0x20\n              add\n              swap1\n              dup2\n              mstore\n              0x20\n              add\n              0x00\n              keccak256\n                /* \"ERC20.sol\":1163:1188  allowance[owner][spender] */\n              0x00\n                /* \"ERC20.sol\":1180:1187  spender */\n              dup5\n                /* \"ERC20.sol\":1163:1188  allowance[owner][spender] */\n              0xffffffffffffffffffffffffffffffffffffffff\n              and\n              0xffffffffffffffffffffffffffffffffffffffff\n              and\n              dup2\n              mstore\n              0x20\n              add\n              swap1\n              dup2\n              mstore\n              0x20\n              add\n              0x00\n              keccak256\n                /* \"ERC20.sol\":1163:1196  allowance[owner][spender] = value */\n              dup2\n              swap1\n              sstore\n              pop\n                /* \"ERC20.sol\":1227:1234  spender */\n              dup2\n                /* \"ERC20.sol\":1211:1242  Approval(owner, spender, value) */\n              0xffffffffffffffffffffffffffffffffffffffff\n              and\n                /* \"ERC20.sol\":1220:1225  owner */\n              dup4\n                /* \"ERC20.sol\":1211:1242  Approval(owner, spender, value) */\n              0xffffffffffffffffffffffffffffffffffffffff\n              and\n              0x8c5be1e5ebec7d5bd14f71427d1e84f3dd0314c0f7b2291e5b200ac8c7c3b925\n                /* \"ERC20.sol\":1236:1241  value */\n              dup4\n                /* \"ERC20.sol\":1211:1242  Approval(owner, spender, value) */\n              mload(0x40)\n              dup1\n              dup3\n              dup2\n              mstore\n              0x20\n              add\n              swap2\n              pop\n              pop\n              mload(0x40)\n              dup1\n              swap2\n              sub\n              swap1\n              log3\n                /* \"ERC20.sol\":1083:1249  function _approve(address owner, address spender, uint value) private {... */\n              pop\n              pop\n              pop\n              jump\t// out\n                /* \"ERC20.sol\":1255:1471  function _transfer(address from, address to, uint value) private {... */\n            tag_153:\n                /* \"ERC20.sol\":1348:1374  balanceOf[from].sub(value) */\n              tag_278\n                /* \"ERC20.sol\":1368:1373  value */\n              dup2\n                /* \"ERC20.sol\":1348:1357  balanceOf */\n              0x01\n                /* \"ERC20.sol\":1348:1363  balanceOf[from] */\n              0x00\n                /* \"ERC20.sol\":1358:1362  from */\n              dup7\n                /* \"ERC20.sol\":1348:1363  balanceOf[from] */\n              0xffffffffffffffffffffffffffffffffffffffff\n              and\n              0xffffffffffffffffffffffffffffffffffffffff\n              and\n              dup2\n              mstore\n              0x20\n              add\n              swap1\n              dup2\n              mstore\n              0x20\n              add\n              0x00\n              keccak256\n              sload\n                /* \"ERC20.sol\":1348:1367  balanceOf[from].sub */\n              tag_135\n              swap1\n                /* \"ERC20.sol\":1348:1374  balanceOf[from].sub(value) */\n              swap2\n              swap1\n              0xffffffff\n              and\n              jump\t// in\n            tag_278:\n                /* \"ERC20.sol\":1330:1339  balanceOf */\n              0x01\n                /* \"ERC20.sol\":1330:1345  balanceOf[from] */\n              0x00\n                /* \"ERC20.sol\":1340:1344  from */\n              dup6\n                /* \"ERC20.sol\":1330:1345  balanceOf[from] */\n              0xffffffffffffffffffffffffffffffffffffffff\n              and\n              0xffffffffffffffffffffffffffffffffffffffff\n              and\n              dup2\n              mstore\n              0x20\n              add\n              swap1\n              dup2\n              mstore\n              0x20\n              add\n              0x00\n              keccak256\n                /* \"ERC20.sol\":1330:1374  balanceOf[from] = balanceOf[from].sub(value) */\n              dup2\n              swap1\n              sstore\n              pop\n                /* \"ERC20.sol\":1400:1424  balanceOf[to].add(value) */\n              tag_279\n                /* \"ERC20.sol\":1418:1423  value */\n              dup2\n                /* \"ERC20.sol\":1400:1409  balanceOf */\n              0x01\n                /* \"ERC20.sol\":1400:1413  balanceOf[to] */\n              0x00\n                /* \"ERC20.sol\":1410:1412  to */\n              dup6\n                /* \"ERC20.sol\":1400:1413  balanceOf[to] */\n              0xffffffffffffffffffffffffffffffffffffffff\n              and\n              0xffffffffffffffffffffffffffffffffffffffff\n              and\n              dup2\n              mstore\n              0x20\n              add\n              swap1\n              dup2\n              mstore\n              0x20\n              add\n              0x00\n              keccak256\n              sload\n                /* \"ERC20.sol\":1400:1417  balanceOf[to].add */\n              tag_280\n              swap1\n                /* \"ERC20.sol\":1400:1424  balanceOf[to].add(value) */\n              swap2\n              swap1\n              0xffffffff\n              and\n              jump\t// in\n            tag_279:\n                /* \"ERC20.sol\":1384:1393  balanceOf */\n              0x01\n                /* \"ERC20.sol\":1384:1397  balanceOf[to] */\n              0x00\n                /* \"ERC20.sol\":1394:1396  to */\n              dup5\n                /* \"ERC20.sol\":1384:1397  balanceOf[to] */\n              0xffffffffffffffffffffffffffffffffffffffff\n              and\n              0xffffffffffffffffffffffffffffffffffffffff\n              and\n              dup2\n              mstore\n              0x20\n              add\n              swap1\n              dup2\n              mstore\n              0x20\n              add\n              0x00\n              keccak256\n                /* \"ERC20.sol\":1384:1424  balanceOf[to] = balanceOf[to].add(value) */\n              dup2\n              swap1\n              sstore\n              pop\n                /* \"ERC20.sol\":1454:1456  to */\n              dup2\n                /* \"ERC20.sol\":1439:1464  Transfer(from, to, value) */\n              0xffffffffffffffffffffffffffffffffffffffff\n              and\n                /* \"ERC20.sol\":1448:1452  from */\n              dup4\n                /* \"ERC20.sol\":1439:1464  Transfer(from, to, value) */\n              0xffffffffffffffffffffffffffffffffffffffff\n              and\n              0xddf252ad1be2c89b69c2b068fc378daa952ba7f163c4a11628f55a4df523b3ef\n                /* \"ERC20.sol\":1458:1463  value */\n              dup4\n                /* \"ERC20.sol\":1439:1464  Transfer(from, to, value) */\n              mload(0x40)\n              dup1\n              dup3\n              dup2\n              mstore\n              0x20\n              add\n              swap2\n              pop\n              pop\n              mload(0x40)\n              dup1\n              swap2\n              sub\n              swap1\n              log3\n                /* \"ERC20.sol\":1255:1471  function _transfer(address from, address to, uint value) private {... */\n              pop\n              pop\n              pop\n              jump\t// out\n                /* \"Pair.sol\":3314:4133  function _mintFee(uint112 _reserve0, uint112 _reserve1) private returns (bool feeOn) {... */\n            tag_169:\n                /* \"Pair.sol\":3387:3397  bool feeOn */\n              0x00\n                /* \"Pair.sol\":3409:3422  address feeTo */\n              dup1\n                /* \"Pair.sol\":3443:3450  factory */\n              0x04\n              0x00\n              swap1\n              sload\n              swap1\n              0x0100\n              exp\n              swap1\n              div\n              0xffffffffffffffffffffffffffffffffffffffff\n              and\n                /* \"Pair.sol\":3425:3457  IUniswapV2Factory(factory).feeTo */\n              0xffffffffffffffffffffffffffffffffffffffff\n              and\n              0x017e7e58\n                /* \"Pair.sol\":3425:3459  IUniswapV2Factory(factory).feeTo() */\n              mload(0x40)\n              dup2\n              0xffffffff\n              and\n              0xe0\n              shl\n              dup2\n              mstore\n              0x04\n              add\n              0x20\n              mload(0x40)\n              dup1\n              dup4\n              sub\n              dup2\n              dup7\n              dup1\n              extcodesize\n              iszero\n              dup1\n              iszero\n              tag_282\n              jumpi\n              0x00\n              dup1\n              revert\n            tag_282:\n              pop\n              gas\n              staticcall\n              iszero\n              dup1\n              iszero\n              tag_284\n              jumpi\n              returndatasize\n              0x00\n              dup1\n              returndatacopy\n              revert(0x00, returndatasize)\n            tag_284:\n              pop\n              pop\n              pop\n              pop\n              mload(0x40)\n              returndatasize\n              0x20\n              dup2\n              lt\n              iszero\n              tag_285\n              jumpi\n              0x00\n              dup1\n              revert\n            tag_285:\n              dup2\n              add\n              swap1\n              dup1\n              dup1\n              mload\n              swap1\n              0x20\n              add\n              swap1\n              swap3\n              swap2\n              swap1\n              pop\n              pop\n              pop\n                /* \"Pair.sol\":3409:3459  address feeTo = IUniswapV2Factory(factory).feeTo() */\n              swap1\n              pop\n                /* \"Pair.sol\":3494:3495  0 */\n              0x00\n                /* \"Pair.sol\":3477:3496  feeTo != address(0) */\n              0xffffffffffffffffffffffffffffffffffffffff\n              and\n                /* \"Pair.sol\":3477:3482  feeTo */\n              dup2\n                /* \"Pair.sol\":3477:3496  feeTo != address(0) */\n              0xffffffffffffffffffffffffffffffffffffffff\n              and\n              eq\n              iszero\n                /* \"Pair.sol\":3469:3496  feeOn = feeTo != address(0) */\n              swap2\n              pop\n                /* \"Pair.sol\":3506:3517  uint _kLast */\n              0x00\n                /* \"Pair.sol\":3520:3525  kLast */\n              sload(0x0a)\n                /* \"Pair.sol\":3506:3525  uint _kLast = kLast */\n              swap1\n              pop\n                /* \"Pair.sol\":3554:3559  feeOn */\n              dup3\n                /* \"Pair.sol\":3550:4127  if (feeOn) {... */\n              iszero\n              tag_286\n              jumpi\n                /* \"Pair.sol\":3589:3590  0 */\n              0x00\n                /* \"Pair.sol\":3579:3585  _kLast */\n              dup2\n                /* \"Pair.sol\":3579:3590  _kLast != 0 */\n              eq\n                /* \"Pair.sol\":3575:4060  if (_kLast != 0) {... */\n              tag_287\n              jumpi\n                /* \"Pair.sol\":3610:3620  uint rootK */\n              0x00\n                /* \"Pair.sol\":3623:3664  Math.sqrt(uint(_reserve0).mul(_reserve1)) */\n              tag_288\n                /* \"Pair.sol\":3633:3663  uint(_reserve0).mul(_reserve1) */\n              tag_289\n                /* \"Pair.sol\":3653:3662  _reserve1 */\n              dup7\n                /* \"Pair.sol\":3633:3663  uint(_reserve0).mul(_reserve1) */\n              0xffffffffffffffffffffffffffff\n              and\n                /* \"Pair.sol\":3638:3647  _reserve0 */\n              dup9\n                /* \"Pair.sol\":3633:3648  uint(_reserve0) */\n              0xffffffffffffffffffffffffffff\n              and\n                /* \"Pair.sol\":3633:3652  uint(_reserve0).mul */\n              tag_133\n              swap1\n                /* \"Pair.sol\":3633:3663  uint(_reserve0).mul(_reserve1) */\n              swap2\n              swap1\n              0xffffffff\n              and\n              jump\t// in\n            tag_289:\n                /* \"Pair.sol\":3623:3632  Math.sqrt */\n              tag_174\n                /* \"Pair.sol\":3623:3664  Math.sqrt(uint(_reserve0).mul(_reserve1)) */\n              jump\t// in\n            tag_288:\n                /* \"Pair.sol\":3610:3664  uint rootK = Math.sqrt(uint(_reserve0).mul(_reserve1)) */\n              swap1\n              pop\n                /* \"Pair.sol\":3682:3696  uint rootKLast */\n              0x00\n                /* \"Pair.sol\":3699:3716  Math.sqrt(_kLast) */\n              tag_290\n                /* \"Pair.sol\":3709:3715  _kLast */\n              dup4\n                /* \"Pair.sol\":3699:3708  Math.sqrt */\n              tag_174\n                /* \"Pair.sol\":3699:3716  Math.sqrt(_kLast) */\n              jump\t// in\n            tag_290:\n                /* \"Pair.sol\":3682:3716  uint rootKLast = Math.sqrt(_kLast) */\n              swap1\n              pop\n                /* \"Pair.sol\":3746:3755  rootKLast */\n              dup1\n                /* \"Pair.sol\":3738:3743  rootK */\n              dup3\n                /* \"Pair.sol\":3738:3755  rootK > rootKLast */\n              gt\n                /* \"Pair.sol\":3734:4046  if (rootK > rootKLast) {... */\n              iszero\n              tag_291\n              jumpi\n                /* \"Pair.sol\":3779:3793  uint numerator */\n              0x00\n                /* \"Pair.sol\":3796:3833  totalSupply.mul(rootK.sub(rootKLast)) */\n              tag_292\n                /* \"Pair.sol\":3812:3832  rootK.sub(rootKLast) */\n              tag_293\n                /* \"Pair.sol\":3822:3831  rootKLast */\n              dup4\n                /* \"Pair.sol\":3812:3817  rootK */\n              dup6\n                /* \"Pair.sol\":3812:3821  rootK.sub */\n              tag_135\n              swap1\n                /* \"Pair.sol\":3812:3832  rootK.sub(rootKLast) */\n              swap2\n              swap1\n              0xffffffff\n              and\n              jump\t// in\n            tag_293:\n                /* \"Pair.sol\":3796:3807  totalSupply */\n              sload(0x00)\n                /* \"Pair.sol\":3796:3811  totalSupply.mul */\n              tag_133\n              swap1\n                /* \"Pair.sol\":3796:3833  totalSupply.mul(rootK.sub(rootKLast)) */\n              swap2\n              swap1\n              0xffffffff\n              and\n              jump\t// in\n            tag_292:\n                /* \"Pair.sol\":3779:3833  uint numerator = totalSupply.mul(rootK.sub(rootKLast)) */\n              swap1\n              pop\n                /* \"Pair.sol\":3855:3871  uint denominator */\n              0x00\n                /* \"Pair.sol\":3874:3901  rootK.mul(5).add(rootKLast) */\n              tag_294\n                /* \"Pair.sol\":3891:3900  rootKLast */\n              dup4\n                /* \"Pair.sol\":3874:3886  rootK.mul(5) */\n              tag_295\n                /* \"Pair.sol\":3884:3885  5 */\n              0x05\n                /* \"Pair.sol\":3874:3879  rootK */\n              dup8\n                /* \"Pair.sol\":3874:3883  rootK.mul */\n              tag_133\n              swap1\n                /* \"Pair.sol\":3874:3886  rootK.mul(5) */\n              swap2\n              swap1\n              0xffffffff\n              and\n              jump\t// in\n            tag_295:\n                /* \"Pair.sol\":3874:3890  rootK.mul(5).add */\n              tag_280\n              swap1\n                /* \"Pair.sol\":3874:3901  rootK.mul(5).add(rootKLast) */\n              swap2\n              swap1\n              0xffffffff\n              and\n              jump\t// in\n            tag_294:\n                /* \"Pair.sol\":3855:3901  uint denominator = rootK.mul(5).add(rootKLast) */\n              swap1\n              pop\n                /* \"Pair.sol\":3923:3937  uint liquidity */\n              0x00\n                /* \"Pair.sol\":3952:3963  denominator */\n              dup2\n                /* \"Pair.sol\":3940:3949  numerator */\n              dup4\n                /* \"Pair.sol\":3940:3963  numerator / denominator */\n              dup2\n              tag_296\n              jumpi\n              invalid\n            tag_296:\n              div\n                /* \"Pair.sol\":3923:3963  uint liquidity = numerator / denominator */\n              swap1\n              pop\n                /* \"Pair.sol\":4001:4002  0 */\n              0x00\n                /* \"Pair.sol\":3989:3998  liquidity */\n              dup2\n                /* \"Pair.sol\":3989:4002  liquidity > 0 */\n              gt\n                /* \"Pair.sol\":3985:4027  if (liquidity > 0) _mint(feeTo, liquidity) */\n              iszero\n              tag_297\n              jumpi\n                /* \"Pair.sol\":4004:4027  _mint(feeTo, liquidity) */\n              tag_298\n                /* \"Pair.sol\":4010:4015  feeTo */\n              dup8\n                /* \"Pair.sol\":4017:4026  liquidity */\n              dup3\n                /* \"Pair.sol\":4004:4009  _mint */\n              tag_176\n                /* \"Pair.sol\":4004:4027  _mint(feeTo, liquidity) */\n              jump\t// in\n            tag_298:\n                /* \"Pair.sol\":3985:4027  if (liquidity > 0) _mint(feeTo, liquidity) */\n            tag_297:\n                /* \"Pair.sol\":3734:4046  if (rootK > rootKLast) {... */\n              pop\n              pop\n              pop\n            tag_291:\n                /* \"Pair.sol\":3575:4060  if (_kLast != 0) {... */\n              pop\n              pop\n            tag_287:\n                /* \"Pair.sol\":3550:4127  if (feeOn) {... */\n              jump(tag_299)\n            tag_286:\n                /* \"Pair.sol\":4090:4091  0 */\n              0x00\n                /* \"Pair.sol\":4080:4086  _kLast */\n              dup2\n                /* \"Pair.sol\":4080:4091  _kLast != 0 */\n              eq\n                /* \"Pair.sol\":4076:4127  if (_kLast != 0) {... */\n              tag_300\n              jumpi\n                /* \"Pair.sol\":4115:4116  0 */\n              0x00\n                /* \"Pair.sol\":4107:4112  kLast */\n              0x0a\n                /* \"Pair.sol\":4107:4116  kLast = 0 */\n              dup2\n              swap1\n              sstore\n              pop\n                /* \"Pair.sol\":4076:4127  if (_kLast != 0) {... */\n            tag_300:\n                /* \"Pair.sol\":3550:4127  if (feeOn) {... */\n            tag_299:\n                /* \"Pair.sol\":3314:4133  function _mintFee(uint112 _reserve0, uint112 _reserve1) private returns (bool feeOn) {... */\n              pop\n              pop\n              swap3\n              swap2\n              pop\n              pop\n              jump\t// out\n                /* \"libraries/Math.sol\":345:637  function sqrt(uint y) internal pure returns (uint z) {... */\n            tag_174:\n                /* \"libraries/Math.sol\":390:396  uint z */\n              0x00\n                /* \"libraries/Math.sol\":416:417  3 */\n              0x03\n                /* \"libraries/Math.sol\":412:413  y */\n              dup3\n                /* \"libraries/Math.sol\":412:417  y > 3 */\n              gt\n                /* \"libraries/Math.sol\":408:631  if (y > 3) {... */\n              iszero\n              tag_302\n              jumpi\n                /* \"libraries/Math.sol\":437:438  y */\n              dup2\n                /* \"libraries/Math.sol\":433:438  z = y */\n              swap1\n              pop\n                /* \"libraries/Math.sol\":452:458  uint x */\n              0x00\n                /* \"libraries/Math.sol\":469:470  1 */\n              0x01\n                /* \"libraries/Math.sol\":465:466  2 */\n              0x02\n                /* \"libraries/Math.sol\":461:462  y */\n              dup5\n                /* \"libraries/Math.sol\":461:466  y / 2 */\n              dup2\n              tag_303\n              jumpi\n              invalid\n            tag_303:\n              div\n                /* \"libraries/Math.sol\":461:470  y / 2 + 1 */\n              add\n                /* \"libraries/Math.sol\":452:470  uint x = y / 2 + 1 */\n              swap1\n              pop\n                /* \"libraries/Math.sol\":484:573  while (x < z) {... */\n            tag_304:\n                /* \"libraries/Math.sol\":495:496  z */\n              dup2\n                /* \"libraries/Math.sol\":491:492  x */\n              dup2\n                /* \"libraries/Math.sol\":491:496  x < z */\n              lt\n                /* \"libraries/Math.sol\":484:573  while (x < z) {... */\n              iszero\n              tag_305\n              jumpi\n                /* \"libraries/Math.sol\":520:521  x */\n              dup1\n                /* \"libraries/Math.sol\":516:521  z = x */\n              swap2\n              pop\n                /* \"libraries/Math.sol\":557:558  2 */\n              0x02\n                /* \"libraries/Math.sol\":552:553  x */\n              dup2\n                /* \"libraries/Math.sol\":548:549  x */\n              dup3\n                /* \"libraries/Math.sol\":544:545  y */\n              dup6\n                /* \"libraries/Math.sol\":544:549  y / x */\n              dup2\n              tag_306\n              jumpi\n              invalid\n            tag_306:\n              div\n                /* \"libraries/Math.sol\":544:553  y / x + x */\n              add\n                /* \"libraries/Math.sol\":543:558  (y / x + x) / 2 */\n              dup2\n              tag_307\n              jumpi\n              invalid\n            tag_307:\n              div\n                /* \"libraries/Math.sol\":539:558  x = (y / x + x) / 2 */\n              swap1\n              pop\n                /* \"libraries/Math.sol\":484:573  while (x < z) {... */\n              jump(tag_304)\n            tag_305:\n                /* \"libraries/Math.sol\":408:631  if (y > 3) {... */\n              pop\n              jump(tag_308)\n            tag_302:\n                /* \"libraries/Math.sol\":598:599  0 */\n              0x00\n                /* \"libraries/Math.sol\":593:594  y */\n              dup3\n                /* \"libraries/Math.sol\":593:599  y != 0 */\n              eq\n                /* \"libraries/Math.sol\":589:631  if (y != 0) {... */\n              tag_309\n              jumpi\n                /* \"libraries/Math.sol\":619:620  1 */\n              0x01\n                /* \"libraries/Math.sol\":615:620  z = 1 */\n              swap1\n              pop\n                /* \"libraries/Math.sol\":589:631  if (y != 0) {... */\n            tag_309:\n                /* \"libraries/Math.sol\":408:631  if (y > 3) {... */\n            tag_308:\n                /* \"libraries/Math.sol\":345:637  function sqrt(uint y) internal pure returns (uint z) {... */\n              swap2\n              swap1\n              pop\n              jump\t// out\n                /* \"ERC20.sol\":669:866  function _mint(address to, uint value) internal {... */\n            tag_176:\n                /* \"ERC20.sol\":741:763  totalSupply.add(value) */\n              tag_311\n                /* \"ERC20.sol\":757:762  value */\n              dup2\n                /* \"ERC20.sol\":741:752  totalSupply */\n              sload(0x00)\n                /* \"ERC20.sol\":741:756  totalSupply.add */\n              tag_280\n              swap1\n                /* \"ERC20.sol\":741:763  totalSupply.add(value) */\n              swap2\n              swap1\n              0xffffffff\n              and\n              jump\t// in\n            tag_311:\n                /* \"ERC20.sol\":727:738  totalSupply */\n              0x00\n                /* \"ERC20.sol\":727:763  totalSupply = totalSupply.add(value) */\n              dup2\n              swap1\n              sstore\n              pop\n                /* \"ERC20.sol\":789:813  balanceOf[to].add(value) */\n              tag_312\n                /* \"ERC20.sol\":807:812  value */\n              dup2\n                /* \"ERC20.sol\":789:798  balanceOf */\n              0x01\n                /* \"ERC20.sol\":789:802  balanceOf[to] */\n              0x00\n                /* \"ERC20.sol\":799:801  to */\n              dup6\n                /* \"ERC20.sol\":789:802  balanceOf[to] */\n              0xffffffffffffffffffffffffffffffffffffffff\n              and\n              0xffffffffffffffffffffffffffffffffffffffff\n              and\n              dup2\n              mstore\n              0x20\n              add\n              swap1\n              dup2\n              mstore\n              0x20\n              add\n              0x00\n              keccak256\n              sload\n                /* \"ERC20.sol\":789:806  balanceOf[to].add */\n              tag_280\n              swap1\n                /* \"ERC20.sol\":789:813  balanceOf[to].add(value) */\n              swap2\n              swap1\n              0xffffffff\n              and\n              jump\t// in\n            tag_312:\n                /* \"ERC20.sol\":773:782  balanceOf */\n              0x01\n                /* \"ERC20.sol\":773:786  balanceOf[to] */\n              0x00\n                /* \"ERC20.sol\":783:785  to */\n              dup5\n                /* \"ERC20.sol\":773:786  balanceOf[to] */\n              0xffffffffffffffffffffffffffffffffffffffff\n              and\n              0xffffffffffffffffffffffffffffffffffffffff\n              and\n              dup2\n              mstore\n              0x20\n              add\n              swap1\n              dup2\n              mstore\n              0x20\n              add\n              0x00\n              keccak256\n                /* \"ERC20.sol\":773:813  balanceOf[to] = balanceOf[to].add(value) */\n              dup2\n              swap1\n              sstore\n              pop\n                /* \"ERC20.sol\":849:851  to */\n              dup2\n                /* \"ERC20.sol\":828:859  Transfer(address(0), to, value) */\n              0xffffffffffffffffffffffffffffffffffffffff\n              and\n                /* \"ERC20.sol\":845:846  0 */\n              0x00\n                /* \"ERC20.sol\":828:859  Transfer(address(0), to, value) */\n              0xffffffffffffffffffffffffffffffffffffffff\n              and\n              0xddf252ad1be2c89b69c2b068fc378daa952ba7f163c4a11628f55a4df523b3ef\n                /* \"ERC20.sol\":853:858  value */\n              dup4\n                /* \"ERC20.sol\":828:859  Transfer(address(0), to, value) */\n              mload(0x40)\n              dup1\n              dup3\n              dup2\n              mstore\n              0x20\n              add\n              swap2\n              pop\n              pop\n              mload(0x40)\n              dup1\n              swap2\n              sub\n              swap1\n              log3\n                /* \"ERC20.sol\":669:866  function _mint(address to, uint value) internal {... */\n              pop\n              pop\n              jump\t// out\n                /* \"libraries/Math.sol\":136:230  function min(uint x, uint y) internal pure returns (uint z) {... */\n            tag_183:\n                /* \"libraries/Math.sol\":188:194  uint z */\n              0x00\n                /* \"libraries/Math.sol\":214:215  y */\n              dup2\n                /* \"libraries/Math.sol\":210:211  x */\n              dup4\n                /* \"libraries/Math.sol\":210:215  x < y */\n              lt\n                /* \"libraries/Math.sol\":210:223  x < y ? x : y */\n              tag_314\n              jumpi\n                /* \"libraries/Math.sol\":222:223  y */\n              dup2\n                /* \"libraries/Math.sol\":210:223  x < y ? x : y */\n              jump(tag_315)\n            tag_314:\n                /* \"libraries/Math.sol\":218:219  x */\n              dup3\n                /* \"libraries/Math.sol\":210:223  x < y ? x : y */\n            tag_315:\n                /* \"libraries/Math.sol\":206:223  z = x < y ? x : y */\n              swap1\n              pop\n                /* \"libraries/Math.sol\":136:230  function min(uint x, uint y) internal pure returns (uint z) {... */\n              swap3\n              swap2\n              pop\n              pop\n              jump\t// out\n                /* \"ERC20.sol\":872:1077  function _burn(address from, uint value) internal {... */\n            tag_207:\n                /* \"ERC20.sol\":950:976  balanceOf[from].sub(value) */\n              tag_317\n                /* \"ERC20.sol\":970:975  value */\n              dup2\n                /* \"ERC20.sol\":950:959  balanceOf */\n              0x01\n                /* \"ERC20.sol\":950:965  balanceOf[from] */\n              0x00\n                /* \"ERC20.sol\":960:964  from */\n              dup6\n                /* \"ERC20.sol\":950:965  balanceOf[from] */\n              0xffffffffffffffffffffffffffffffffffffffff\n              and\n              0xffffffffffffffffffffffffffffffffffffffff\n              and\n              dup2\n              mstore\n              0x20\n              add\n              swap1\n              dup2\n              mstore\n              0x20\n              add\n              0x00\n              keccak256\n              sload\n                /* \"ERC20.sol\":950:969  balanceOf[from].sub */\n              tag_135\n              swap1\n                /* \"ERC20.sol\":950:976  balanceOf[from].sub(value) */\n              swap2\n              swap1\n              0xffffffff\n              and\n              jump\t// in\n            tag_317:\n                /* \"ERC20.sol\":932:941  balanceOf */\n              0x01\n                /* \"ERC20.sol\":932:947  balanceOf[from] */\n              0x00\n                /* \"ERC20.sol\":942:946  from */\n              dup5\n                /* \"ERC20.sol\":932:947  balanceOf[from] */\n              0xffffffffffffffffffffffffffffffffffffffff\n              and\n              0xffffffffffffffffffffffffffffffffffffffff\n              and\n              dup2\n              mstore\n              0x20\n              add\n              swap1\n              dup2\n              mstore\n              0x20\n              add\n              0x00\n              keccak256\n                /* \"ERC20.sol\":932:976  balanceOf[from] = balanceOf[from].sub(value) */\n              dup2\n              swap1\n              sstore\n              pop\n                /* \"ERC20.sol\":1000:1022  totalSupply.sub(value) */\n              tag_318\n                /* \"ERC20.sol\":1016:1021  value */\n              dup2\n                /* \"ERC20.sol\":1000:1011  totalSupply */\n              sload(0x00)\n                /* \"ERC20.sol\":1000:1015  totalSupply.sub */\n              tag_135\n              swap1\n                /* \"ERC20.sol\":1000:1022  totalSupply.sub(value) */\n              swap2\n              swap1\n              0xffffffff\n              and\n              jump\t// in\n            tag_318:\n                /* \"ERC20.sol\":986:997  totalSupply */\n              0x00\n                /* \"ERC20.sol\":986:1022  totalSupply = totalSupply.sub(value) */\n              dup2\n              swap1\n              sstore\n              pop\n                /* \"ERC20.sol\":1060:1061  0 */\n              0x00\n                /* \"ERC20.sol\":1037:1070  Transfer(from, address(0), value) */\n              0xffffffffffffffffffffffffffffffffffffffff\n              and\n                /* \"ERC20.sol\":1046:1050  from */\n              dup3\n                /* \"ERC20.sol\":1037:1070  Transfer(from, address(0), value) */\n              0xffffffffffffffffffffffffffffffffffffffff\n              and\n              0xddf252ad1be2c89b69c2b068fc378daa952ba7f163c4a11628f55a4df523b3ef\n                /* \"ERC20.sol\":1064:1069  value */\n              dup4\n                /* \"ERC20.sol\":1037:1070  Transfer(from, address(0), value) */\n              mload(0x40)\n              dup1\n              dup3\n              dup2\n              mstore\n              0x20\n              add\n              swap2\n              pop\n              pop\n              mload(0x40)\n              dup1\n              swap2\n              sub\n              swap1\n              log3\n                /* \"ERC20.sol\":872:1077  function _burn(address from, uint value) internal {... */\n              pop\n              pop\n              jump\t// out\n                /* \"libraries/UQ112x112.sol\":321:439  function encode(uint112 y) internal pure returns (uint224 z) {... */\n            tag_272:\n                /* \"libraries/UQ112x112.sol\":371:380  uint224 z */\n              0x00\n                /* \"libraries/UQ112x112.sol\":269:275  2**112 */\n              0x010000000000000000000000000000\n                /* \"libraries/UQ112x112.sol\":404:405  y */\n              dup3\n                /* \"libraries/UQ112x112.sol\":396:406  uint224(y) */\n              0xffffffffffffffffffffffffffff\n              and\n                /* \"libraries/UQ112x112.sol\":396:413  uint224(y) * Q112 */\n              mul\n                /* \"libraries/UQ112x112.sol\":392:413  z = uint224(y) * Q112 */\n              swap1\n              pop\n                /* \"libraries/UQ112x112.sol\":321:439  function encode(uint112 y) internal pure returns (uint224 z) {... */\n              swap2\n              swap1\n              pop\n              jump\t// out\n                /* \"libraries/UQ112x112.sol\":507:613  function uqdiv(uint224 x, uint112 y) internal pure returns (uint224 z) {... */\n            tag_273:\n                /* \"libraries/UQ112x112.sol\":567:576  uint224 z */\n              0x00\n                /* \"libraries/UQ112x112.sol\":604:605  y */\n              dup2\n                /* \"libraries/UQ112x112.sol\":596:606  uint224(y) */\n              0xffffffffffffffffffffffffffff\n              and\n                /* \"libraries/UQ112x112.sol\":592:606  x / uint224(y) */\n              0xffffffffffffffffffffffffffffffffffffffffffffffffffffffff\n              and\n                /* \"libraries/UQ112x112.sol\":592:593  x */\n              dup4\n                /* \"libraries/UQ112x112.sol\":592:606  x / uint224(y) */\n              0xffffffffffffffffffffffffffffffffffffffffffffffffffffffff\n              and\n              dup2\n              tag_321\n              jumpi\n              invalid\n            tag_321:\n              div\n                /* \"libraries/UQ112x112.sol\":588:606  z = x / uint224(y) */\n              swap1\n              pop\n                /* \"libraries/UQ112x112.sol\":507:613  function uqdiv(uint224 x, uint112 y) internal pure returns (uint224 z) {... */\n              swap3\n              swap2\n              pop\n              pop\n              jump\t// out\n                /* \"libraries/SafeMath.sol\":192:314  function add(uint x, uint y) internal pure returns (uint z) {... */\n            tag_280:\n                /* \"libraries/SafeMath.sol\":244:250  uint z */\n              0x00\n                /* \"libraries/SafeMath.sol\":281:282  x */\n              dup3\n                /* \"libraries/SafeMath.sol\":275:276  y */\n              dup3\n                /* \"libraries/SafeMath.sol\":271:272  x */\n              dup5\n                /* \"libraries/SafeMath.sol\":271:276  x + y */\n              add\n                /* \"libraries/SafeMath.sol\":267:276  z = x + y */\n              swap2\n              pop\n              dup2\n                /* \"libraries/SafeMath.sol\":266:282  (z = x + y) >= x */\n              lt\n              iszero\n                /* \"libraries/SafeMath.sol\":258:307  require((z = x + y) >= x, 'ds-math-add-overflow') */\n              tag_323\n              jumpi\n              mload(0x40)\n              0x08c379a000000000000000000000000000000000000000000000000000000000\n              dup2\n              mstore\n              0x04\n              add\n              dup1\n              dup1\n              0x20\n              add\n              dup3\n              dup2\n              sub\n              dup3\n              mstore\n              0x14\n              dup2\n              mstore\n              0x20\n              add\n              dup1\n              0x64732d6d6174682d6164642d6f766572666c6f77000000000000000000000000\n              dup2\n              mstore\n              pop\n              0x20\n              add\n              swap2\n              pop\n              pop\n              mload(0x40)\n              dup1\n              swap2\n              sub\n              swap1\n              revert\n            tag_323:\n                /* \"libraries/SafeMath.sol\":192:314  function add(uint x, uint y) internal pure returns (uint z) {... */\n              swap3\n              swap2\n              pop\n              pop\n              jump\t// out\n            stop\n            data_05339493da7e2cbe77e17beadf6b91132eb307939495f5f1797bf88d95539e83 556e697377617056323a20494e53554646494349454e545f4f55545055545f414d4f554e54\n            data_10e2efc32d8a31d3b2c11a545b3ed09c2dbabc58ef6de4033929d0002e425b67 556e697377617056323a20494e53554646494349454e545f494e5055545f414d4f554e54\n            data_3f354ef449b2a9b081220ce21f57691008110b653edc191d8288e60cef58bb5f 556e697377617056323a20494e53554646494349454e545f4c4951554944495459\n            data_57ebfb4dd8b5082cdba0f23c17077e3b0ecb9782a51e0e9a15e9bc8c4b30c562 556e697377617056323a20494e53554646494349454e545f4c49515549444954595f4255524e4544\n            data_6591c9f5bf1fefaad109b76a20e25c857b696080c952191f86220f001a83663e 556e697377617056323a20494e53554646494349454e545f4c49515549444954595f4d494e544544\n\n            auxdata: 0xa26469706673582212208e61aeddd0fcd468a349e618f103babfc019222a967629f6b2117d6b4030df8064736f6c634300060c0033\n        }\n    }\n\n    auxdata: 0xa26469706673582212205f78be588e8a2ae76a71805f3386f6eb415d7338c20d10b8de38b711506ec06a64736f6c634300060c0033\n}\n",
				"bytecode": {
					"linkReferences": {},
					"object": "608060405234801561001057600080fd5b50604051613efd380380613efd8339818101604052602081101561003357600080fd5b810190808051906020019092919050505080600160006101000a81548173ffffffffffffffffffffffffffffffffffffffff021916908373ffffffffffffffffffffffffffffffffffffffff16021790555050613e68806100956000396000f3fe608060405234801561001057600080fd5b50600436106100885760003560e01c8063a2e74af61161005b578063a2e74af61461016b578063c9c65396146101af578063e6a439051461023d578063f46901ed146102cb57610088565b8063017e7e581461008d578063094b7415146100c15780631e3dd18b146100f5578063574f2ba31461014d575b600080fd5b61009561030f565b604051808273ffffffffffffffffffffffffffffffffffffffff16815260200191505060405180910390f35b6100c9610333565b604051808273ffffffffffffffffffffffffffffffffffffffff16815260200191505060405180910390f35b6101216004803603602081101561010b57600080fd5b8101908080359060200190929190505050610359565b604051808273ffffffffffffffffffffffffffffffffffffffff16815260200191505060405180910390f35b610155610395565b6040518082815260200191505060405180910390f35b6101ad6004803603602081101561018157600080fd5b81019080803573ffffffffffffffffffffffffffffffffffffffff1690602001909291905050506103a2565b005b610211600480360360408110156101c557600080fd5b81019080803573ffffffffffffffffffffffffffffffffffffffff169060200190929190803573ffffffffffffffffffffffffffffffffffffffff1690602001909291905050506104a9565b604051808273ffffffffffffffffffffffffffffffffffffffff16815260200191505060405180910390f35b61029f6004803603604081101561025357600080fd5b81019080803573ffffffffffffffffffffffffffffffffffffffff169060200190929190803573ffffffffffffffffffffffffffffffffffffffff169060200190929190505050610b15565b604051808273ffffffffffffffffffffffffffffffffffffffff16815260200191505060405180910390f35b61030d600480360360208110156102e157600080fd5b81019080803573ffffffffffffffffffffffffffffffffffffffff169060200190929190505050610b57565b005b60008054906101000a900473ffffffffffffffffffffffffffffffffffffffff1681565b600160009054906101000a900473ffffffffffffffffffffffffffffffffffffffff1681565b6003818154811061036657fe5b906000526020600020016000915054906101000a900473ffffffffffffffffffffffffffffffffffffffff1681565b6000600380549050905090565b600160009054906101000a900473ffffffffffffffffffffffffffffffffffffffff1673ffffffffffffffffffffffffffffffffffffffff163373ffffffffffffffffffffffffffffffffffffffff1614610465576040517f08c379a00000000000000000000000000000000000000000000000000000000081526004018080602001828103825260148152602001807f556e697377617056323a20464f5242494444454e00000000000000000000000081525060200191505060405180910390fd5b80600160006101000a81548173ffffffffffffffffffffffffffffffffffffffff021916908373ffffffffffffffffffffffffffffffffffffffff16021790555050565b60008173ffffffffffffffffffffffffffffffffffffffff168373ffffffffffffffffffffffffffffffffffffffff16141561054d576040517f08c379a000000000000000000000000000000000000000000000000000000000815260040180806020018281038252601e8152602001807f556e697377617056323a204944454e544943414c5f414444524553534553000081525060200191505060405180910390fd5b6000808373ffffffffffffffffffffffffffffffffffffffff168573ffffffffffffffffffffffffffffffffffffffff161061058a57838561058d565b84845b91509150600073ffffffffffffffffffffffffffffffffffffffff168273ffffffffffffffffffffffffffffffffffffffff161415610634576040517f08c379a00000000000000000000000000000000000000000000000000000000081526004018080602001828103825260178152602001807f556e697377617056323a205a45524f5f4144445245535300000000000000000081525060200191505060405180910390fd5b600073ffffffffffffffffffffffffffffffffffffffff16600260008473ffffffffffffffffffffffffffffffffffffffff1673ffffffffffffffffffffffffffffffffffffffff16815260200190815260200160002060008373ffffffffffffffffffffffffffffffffffffffff1673ffffffffffffffffffffffffffffffffffffffff16815260200190815260200160002060009054906101000a900473ffffffffffffffffffffffffffffffffffffffff1673ffffffffffffffffffffffffffffffffffffffff1614610772576040517f08c379a00000000000000000000000000000000000000000000000000000000081526004018080602001828103825260168152602001807f556e697377617056323a20504149525f4558495354530000000000000000000081525060200191505060405180910390fd5b60606040518060200161078490610c5d565b6020820181038252601f19601f82011660405250905060008383604051602001808373ffffffffffffffffffffffffffffffffffffffff1660601b81526014018273ffffffffffffffffffffffffffffffffffffffff1660601b815260140192505050604051602081830303815290604052805190602001209050808251602084016000f594508473ffffffffffffffffffffffffffffffffffffffff1663485cc95585856040518363ffffffff1660e01b8152600401808373ffffffffffffffffffffffffffffffffffffffff1681526020018273ffffffffffffffffffffffffffffffffffffffff16815260200192505050600060405180830381600087803b15801561089257600080fd5b505af11580156108a6573d6000803e3d6000fd5b5050505084600260008673ffffffffffffffffffffffffffffffffffffffff1673ffffffffffffffffffffffffffffffffffffffff16815260200190815260200160002060008573ffffffffffffffffffffffffffffffffffffffff1673ffffffffffffffffffffffffffffffffffffffff16815260200190815260200160002060006101000a81548173ffffffffffffffffffffffffffffffffffffffff021916908373ffffffffffffffffffffffffffffffffffffffff16021790555084600260008573ffffffffffffffffffffffffffffffffffffffff1673ffffffffffffffffffffffffffffffffffffffff16815260200190815260200160002060008673ffffffffffffffffffffffffffffffffffffffff1673ffffffffffffffffffffffffffffffffffffffff16815260200190815260200160002060006101000a81548173ffffffffffffffffffffffffffffffffffffffff021916908373ffffffffffffffffffffffffffffffffffffffff1602179055506003859080600181540180825580915050600190039060005260206000200160009091909190916101000a81548173ffffffffffffffffffffffffffffffffffffffff021916908373ffffffffffffffffffffffffffffffffffffffff1602179055508273ffffffffffffffffffffffffffffffffffffffff168473ffffffffffffffffffffffffffffffffffffffff167f0d3648bd0f6ba80134a33ba9275ac585d9d315f0ad8355cddefde31afa28d0e987600380549050604051808373ffffffffffffffffffffffffffffffffffffffff1681526020018281526020019250505060405180910390a35050505092915050565b60026020528160005260406000206020528060005260406000206000915091509054906101000a900473ffffffffffffffffffffffffffffffffffffffff1681565b600160009054906101000a900473ffffffffffffffffffffffffffffffffffffffff1673ffffffffffffffffffffffffffffffffffffffff163373ffffffffffffffffffffffffffffffffffffffff1614610c1a576040517f08c379a00000000000000000000000000000000000000000000000000000000081526004018080602001828103825260148152602001807f556e697377617056323a20464f5242494444454e00000000000000000000000081525060200191505060405180910390fd5b806000806101000a81548173ffffffffffffffffffffffffffffffffffffffff021916908373ffffffffffffffffffffffffffffffffffffffff16021790555050565b6131c880610c6b8339019056fe608060405234801561001057600080fd5b5033600460006101000a81548173ffffffffffffffffffffffffffffffffffffffff021916908373ffffffffffffffffffffffffffffffffffffffff160217905550613167806100616000396000f3fe608060405234801561001057600080fd5b50600436106101585760003560e01c806370a08231116100c3578063ba9a7a561161007c578063ba9a7a5614610746578063bc25cf7714610764578063c45a0155146107a8578063d21220a7146107dc578063dd62ed3e14610810578063fff6cae91461088857610158565b806370a08231146105325780637464fc3d1461058a5780637ecebe00146105a857806389afcb441461060057806395d89b411461065f578063a9059cbb146106e257610158565b806323b872dd1161011557806323b872dd14610395578063313ce56714610419578063485cc9551461043a5780635909c0d51461049e5780635a3d5493146104bc5780636a627842146104da57610158565b8063022c0d9f1461015d57806306fdde031461020a5780630902f1ac1461028d578063095ea7b3146102df5780630dfe16811461034357806318160ddd14610377575b600080fd5b6102086004803603608081101561017357600080fd5b810190808035906020019092919080359060200190929190803573ffffffffffffffffffffffffffffffffffffffff169060200190929190803590602001906401000000008111156101c457600080fd5b8201836020820111156101d657600080fd5b803590602001918460018302840111640100000000831117156101f857600080fd5b9091929391929390505050610892565b005b610212610fb5565b6040518080602001828103825283818151815260200191508051906020019080838360005b83811015610252578082015181840152602081019050610237565b50505050905090810190601f16801561027f5780820380516001836020036101000a031916815260200191505b509250505060405180910390f35b610295610fee565b60405180846dffffffffffffffffffffffffffff168152602001836dffffffffffffffffffffffffffff1681526020018263ffffffff168152602001935050505060405180910390f35b61032b600480360360408110156102f557600080fd5b81019080803573ffffffffffffffffffffffffffffffffffffffff1690602001909291908035906020019092919050505061104b565b60405180821515815260200191505060405180910390f35b61034b611062565b604051808273ffffffffffffffffffffffffffffffffffffffff16815260200191505060405180910390f35b61037f611088565b6040518082815260200191505060405180910390f35b610401600480360360608110156103ab57600080fd5b81019080803573ffffffffffffffffffffffffffffffffffffffff169060200190929190803573ffffffffffffffffffffffffffffffffffffffff1690602001909291908035906020019092919050505061108e565b60405180821515815260200191505060405180910390f35b610421611259565b604051808260ff16815260200191505060405180910390f35b61049c6004803603604081101561045057600080fd5b81019080803573ffffffffffffffffffffffffffffffffffffffff169060200190929190803573ffffffffffffffffffffffffffffffffffffffff16906020019092919050505061125e565b005b6104a66113a7565b6040518082815260200191505060405180910390f35b6104c46113ad565b6040518082815260200191505060405180910390f35b61051c600480360360208110156104f057600080fd5b81019080803573ffffffffffffffffffffffffffffffffffffffff1690602001909291905050506113b3565b6040518082815260200191505060405180910390f35b6105746004803603602081101561054857600080fd5b81019080803573ffffffffffffffffffffffffffffffffffffffff1690602001909291905050506117b0565b6040518082815260200191505060405180910390f35b6105926117c8565b6040518082815260200191505060405180910390f35b6105ea600480360360208110156105be57600080fd5b81019080803573ffffffffffffffffffffffffffffffffffffffff1690602001909291905050506117ce565b6040518082815260200191505060405180910390f35b6106426004803603602081101561061657600080fd5b81019080803573ffffffffffffffffffffffffffffffffffffffff1690602001909291905050506117e6565b604051808381526020018281526020019250505060405180910390f35b610667611cf3565b6040518080602001828103825283818151815260200191508051906020019080838360005b838110156106a757808201518184015260208101905061068c565b50505050905090810190601f1680156106d45780820380516001836020036101000a031916815260200191505b509250505060405180910390f35b61072e600480360360408110156106f857600080fd5b81019080803573ffffffffffffffffffffffffffffffffffffffff16906020019092919080359060200190929190505050611d2c565b60405180821515815260200191505060405180910390f35b61074e611d43565b6040518082815260200191505060405180910390f35b6107a66004803603602081101561077a57600080fd5b81019080803573ffffffffffffffffffffffffffffffffffffffff169060200190929190505050611d49565b005b6107b0611f70565b604051808273ffffffffffffffffffffffffffffffffffffffff16815260200191505060405180910390f35b6107e4611f96565b604051808273ffffffffffffffffffffffffffffffffffffffff16815260200191505060405180910390f35b6108726004803603604081101561082657600080fd5b81019080803573ffffffffffffffffffffffffffffffffffffffff169060200190929190803573ffffffffffffffffffffffffffffffffffffffff169060200190929190505050611fbc565b6040518082815260200191505060405180910390f35b610890611fe1565b005b60008511806108a15750600084115b6108f6576040517f08c379a00000000000000000000000000000000000000000000000000000000081526004018080602001828103825260258152602001806130786025913960400191505060405180910390fd5b600080610901610fee565b5091509150816dffffffffffffffffffffffffffff16871080156109345750806dffffffffffffffffffffffffffff1686105b610989576040517f08c379a00000000000000000000000000000000000000000000000000000000081526004018080602001828103825260218152602001806130c16021913960400191505060405180910390fd5b6000806000600560009054906101000a900473ffffffffffffffffffffffffffffffffffffffff1690506000600660009054906101000a900473ffffffffffffffffffffffffffffffffffffffff1690508173ffffffffffffffffffffffffffffffffffffffff168973ffffffffffffffffffffffffffffffffffffffff1614158015610a4257508073ffffffffffffffffffffffffffffffffffffffff168973ffffffffffffffffffffffffffffffffffffffff1614155b610ab4576040517f08c379a00000000000000000000000000000000000000000000000000000000081526004018080602001828103825260158152602001807f556e697377617056323a20494e56414c49445f544f000000000000000000000081525060200191505060405180910390fd5b60008b1115610ac957610ac8828a8d6121ad565b5b60008a1115610ade57610add818a8c6121ad565b5b6000888890501115610bb0578873ffffffffffffffffffffffffffffffffffffffff166310d1e85c338d8d8c8c6040518663ffffffff1660e01b8152600401808673ffffffffffffffffffffffffffffffffffffffff168152602001858152602001848152602001806020018281038252848482818152602001925080828437600081840152601f19601f8201169050808301925050509650505050505050600060405180830381600087803b158015610b9757600080fd5b505af1158015610bab573d6000803e3d6000fd5b505050505b8173ffffffffffffffffffffffffffffffffffffffff166370a08231306040518263ffffffff1660e01b8152600401808273ffffffffffffffffffffffffffffffffffffffff16815260200191505060206040518083038186803b158015610c1757600080fd5b505afa158015610c2b573d6000803e3d6000fd5b505050506040513d6020811015610c4157600080fd5b810190808051906020019092919050505093508073ffffffffffffffffffffffffffffffffffffffff166370a08231306040518263ffffffff1660e01b8152600401808273ffffffffffffffffffffffffffffffffffffffff16815260200191505060206040518083038186803b158015610cbb57600080fd5b505afa158015610ccf573d6000803e3d6000fd5b505050506040513d6020811015610ce557600080fd5b810190808051906020019092919050505092505050600089856dffffffffffffffffffffffffffff16038311610d1c576000610d32565b89856dffffffffffffffffffffffffffff160383035b9050600089856dffffffffffffffffffffffffffff16038311610d56576000610d6c565b89856dffffffffffffffffffffffffffff160383035b90506000821180610d7d5750600081115b610dd2576040517f08c379a000000000000000000000000000000000000000000000000000000000815260040180806020018281038252602481526020018061309d6024913960400191505060405180910390fd5b6000610e0e610deb6003856123e490919063ffffffff16565b610e006103e8886123e490919063ffffffff16565b61247990919063ffffffff16565b90506000610e4c610e296003856123e490919063ffffffff16565b610e3e6103e8886123e490919063ffffffff16565b61247990919063ffffffff16565b9050610e96620f4240610e88896dffffffffffffffffffffffffffff168b6dffffffffffffffffffffffffffff166123e490919063ffffffff16565b6123e490919063ffffffff16565b610ea982846123e490919063ffffffff16565b1015610f1d576040517f08c379a000000000000000000000000000000000000000000000000000000000815260040180806020018281038252600c8152602001807f556e697377617056323a204b000000000000000000000000000000000000000081525060200191505060405180910390fd5b5050610f2b848488886124fc565b8873ffffffffffffffffffffffffffffffffffffffff163373ffffffffffffffffffffffffffffffffffffffff167fd78ad95fa46c994b6551d0da85fc275fe613ce37657fb8d5e3d130840159d82284848f8f6040518085815260200184815260200183815260200182815260200194505050505060405180910390a35050505050505050505050565b6040518060400160405280600a81526020017f556e69737761702056320000000000000000000000000000000000000000000081525081565b6000806000600760009054906101000a90046dffffffffffffffffffffffffffff1692506007600e9054906101000a90046dffffffffffffffffffffffffffff1691506007601c9054906101000a900463ffffffff169050909192565b600061105833848461285a565b6001905092915050565b600560009054906101000a900473ffffffffffffffffffffffffffffffffffffffff1681565b60005481565b60007fffffffffffffffffffffffffffffffffffffffffffffffffffffffffffffffff600260008673ffffffffffffffffffffffffffffffffffffffff1673ffffffffffffffffffffffffffffffffffffffff16815260200190815260200160002060003373ffffffffffffffffffffffffffffffffffffffff1673ffffffffffffffffffffffffffffffffffffffff1681526020019081526020016000205414611243576111c282600260008773ffffffffffffffffffffffffffffffffffffffff1673ffffffffffffffffffffffffffffffffffffffff16815260200190815260200160002060003373ffffffffffffffffffffffffffffffffffffffff1673ffffffffffffffffffffffffffffffffffffffff1681526020019081526020016000205461247990919063ffffffff16565b600260008673ffffffffffffffffffffffffffffffffffffffff1673ffffffffffffffffffffffffffffffffffffffff16815260200190815260200160002060003373ffffffffffffffffffffffffffffffffffffffff1673ffffffffffffffffffffffffffffffffffffffff168152602001908152602001600020819055505b61124e848484612945565b600190509392505050565b601281565b600460009054906101000a900473ffffffffffffffffffffffffffffffffffffffff1673ffffffffffffffffffffffffffffffffffffffff163373ffffffffffffffffffffffffffffffffffffffff1614611321576040517f08c379a00000000000000000000000000000000000000000000000000000000081526004018080602001828103825260148152602001807f556e697377617056323a20464f5242494444454e00000000000000000000000081525060200191505060405180910390fd5b81600560006101000a81548173ffffffffffffffffffffffffffffffffffffffff021916908373ffffffffffffffffffffffffffffffffffffffff16021790555080600660006101000a81548173ffffffffffffffffffffffffffffffffffffffff021916908373ffffffffffffffffffffffffffffffffffffffff1602179055505050565b60085481565b60095481565b60008060006113c0610fee565b50915091506000600560009054906101000a900473ffffffffffffffffffffffffffffffffffffffff1673ffffffffffffffffffffffffffffffffffffffff166370a08231306040518263ffffffff1660e01b8152600401808273ffffffffffffffffffffffffffffffffffffffff16815260200191505060206040518083038186803b15801561145057600080fd5b505afa158015611464573d6000803e3d6000fd5b505050506040513d602081101561147a57600080fd5b810190808051906020019092919050505090506000600660009054906101000a900473ffffffffffffffffffffffffffffffffffffffff1673ffffffffffffffffffffffffffffffffffffffff166370a08231306040518263ffffffff1660e01b8152600401808273ffffffffffffffffffffffffffffffffffffffff16815260200191505060206040518083038186803b15801561151857600080fd5b505afa15801561152c573d6000803e3d6000fd5b505050506040513d602081101561154257600080fd5b81019080805190602001909291905050509050600061157a856dffffffffffffffffffffffffffff168461247990919063ffffffff16565b905060006115a1856dffffffffffffffffffffffffffff168461247990919063ffffffff16565b905060006115af8787612ad9565b90506000805490506000811415611603576115ef6103e86115e16115dc86886123e490919063ffffffff16565b612cba565b61247990919063ffffffff16565b98506115fe60006103e8612d1c565b611666565b611663886dffffffffffffffffffffffffffff1661162a83876123e490919063ffffffff16565b8161163157fe5b04886dffffffffffffffffffffffffffff1661165684876123e490919063ffffffff16565b8161165d57fe5b04612e36565b98505b600089116116bf576040517f08c379a000000000000000000000000000000000000000000000000000000000815260040180806020018281038252602881526020018061310a6028913960400191505060405180910390fd5b6116c98a8a612d1c565b6116d586868a8a6124fc565b811561174d576117466007600e9054906101000a90046dffffffffffffffffffffffffffff166dffffffffffffffffffffffffffff16600760009054906101000a90046dffffffffffffffffffffffffffff166dffffffffffffffffffffffffffff166123e490919063ffffffff16565b600a819055505b3373ffffffffffffffffffffffffffffffffffffffff167f4c209b5fc8ad50758f13e2e1088ba56a560dff690a1c6fef26394f4c03821c4f8585604051808381526020018281526020019250505060405180910390a25050505050505050919050565b60016020528060005260406000206000915090505481565b600a5481565b60036020528060005260406000206000915090505481565b6000806000806117f4610fee565b50915091506000600560009054906101000a900473ffffffffffffffffffffffffffffffffffffffff1690506000600660009054906101000a900473ffffffffffffffffffffffffffffffffffffffff16905060008273ffffffffffffffffffffffffffffffffffffffff166370a08231306040518263ffffffff1660e01b8152600401808273ffffffffffffffffffffffffffffffffffffffff16815260200191505060206040518083038186803b1580156118b057600080fd5b505afa1580156118c4573d6000803e3d6000fd5b505050506040513d60208110156118da57600080fd5b8101908080519060200190929190505050905060008273ffffffffffffffffffffffffffffffffffffffff166370a08231306040518263ffffffff1660e01b8152600401808273ffffffffffffffffffffffffffffffffffffffff16815260200191505060206040518083038186803b15801561195657600080fd5b505afa15801561196a573d6000803e3d6000fd5b505050506040513d602081101561198057600080fd5b810190808051906020019092919050505090506000600160003073ffffffffffffffffffffffffffffffffffffffff1673ffffffffffffffffffffffffffffffffffffffff16815260200190815260200160002054905060006119e38888612ad9565b9050600080549050806119ff86856123e490919063ffffffff16565b81611a0657fe5b049a5080611a1d85856123e490919063ffffffff16565b81611a2457fe5b04995060008b118015611a37575060008a115b611a8c576040517f08c379a00000000000000000000000000000000000000000000000000000000081526004018080602001828103825260288152602001806130e26028913960400191505060405180910390fd5b611a963084612e4f565b611aa1878d8d6121ad565b611aac868d8c6121ad565b8673ffffffffffffffffffffffffffffffffffffffff166370a08231306040518263ffffffff1660e01b8152600401808273ffffffffffffffffffffffffffffffffffffffff16815260200191505060206040518083038186803b158015611b1357600080fd5b505afa158015611b27573d6000803e3d6000fd5b505050506040513d6020811015611b3d57600080fd5b810190808051906020019092919050505094508573ffffffffffffffffffffffffffffffffffffffff166370a08231306040518263ffffffff1660e01b8152600401808273ffffffffffffffffffffffffffffffffffffffff16815260200191505060206040518083038186803b158015611bb757600080fd5b505afa158015611bcb573d6000803e3d6000fd5b505050506040513d6020811015611be157600080fd5b81019080805190602001909291905050509350611c0085858b8b6124fc565b8115611c7857611c716007600e9054906101000a90046dffffffffffffffffffffffffffff166dffffffffffffffffffffffffffff16600760009054906101000a90046dffffffffffffffffffffffffffff166dffffffffffffffffffffffffffff166123e490919063ffffffff16565b600a819055505b8b73ffffffffffffffffffffffffffffffffffffffff163373ffffffffffffffffffffffffffffffffffffffff167fdccd412f0b1252819cb1fd330b93224ca42612892bb3f4f789976e6d819364968d8d604051808381526020018281526020019250505060405180910390a3505050505050505050915091565b6040518060400160405280600681526020017f554e492d5632000000000000000000000000000000000000000000000000000081525081565b6000611d39338484612945565b6001905092915050565b6103e881565b6000600560009054906101000a900473ffffffffffffffffffffffffffffffffffffffff1690506000600660009054906101000a900473ffffffffffffffffffffffffffffffffffffffff169050611e818284611e7c600760009054906101000a90046dffffffffffffffffffffffffffff166dffffffffffffffffffffffffffff168673ffffffffffffffffffffffffffffffffffffffff166370a08231306040518263ffffffff1660e01b8152600401808273ffffffffffffffffffffffffffffffffffffffff16815260200191505060206040518083038186803b158015611e3357600080fd5b505afa158015611e47573d6000803e3d6000fd5b505050506040513d6020811015611e5d57600080fd5b810190808051906020019092919050505061247990919063ffffffff16565b6121ad565b611f6b8184611f666007600e9054906101000a90046dffffffffffffffffffffffffffff166dffffffffffffffffffffffffffff168573ffffffffffffffffffffffffffffffffffffffff166370a08231306040518263ffffffff1660e01b8152600401808273ffffffffffffffffffffffffffffffffffffffff16815260200191505060206040518083038186803b158015611f1d57600080fd5b505afa158015611f31573d6000803e3d6000fd5b505050506040513d6020811015611f4757600080fd5b810190808051906020019092919050505061247990919063ffffffff16565b6121ad565b505050565b600460009054906101000a900473ffffffffffffffffffffffffffffffffffffffff1681565b600660009054906101000a900473ffffffffffffffffffffffffffffffffffffffff1681565b6002602052816000526040600020602052806000526040600020600091509150505481565b6121ab600560009054906101000a900473ffffffffffffffffffffffffffffffffffffffff1673ffffffffffffffffffffffffffffffffffffffff166370a08231306040518263ffffffff1660e01b8152600401808273ffffffffffffffffffffffffffffffffffffffff16815260200191505060206040518083038186803b15801561206d57600080fd5b505afa158015612081573d6000803e3d6000fd5b505050506040513d602081101561209757600080fd5b8101908080519060200190929190505050600660009054906101000a900473ffffffffffffffffffffffffffffffffffffffff1673ffffffffffffffffffffffffffffffffffffffff166370a08231306040518263ffffffff1660e01b8152600401808273ffffffffffffffffffffffffffffffffffffffff16815260200191505060206040518083038186803b15801561213157600080fd5b505afa158015612145573d6000803e3d6000fd5b505050506040513d602081101561215b57600080fd5b8101908080519060200190929190505050600760009054906101000a90046dffffffffffffffffffffffffffff166007600e9054906101000a90046dffffffffffffffffffffffffffff166124fc565b565b600060608473ffffffffffffffffffffffffffffffffffffffff166040518060400160405280601981526020017f7472616e7366657228616464726573732c75696e743235362900000000000000815250805190602001208585604051602401808373ffffffffffffffffffffffffffffffffffffffff16815260200182815260200192505050604051602081830303815290604052907bffffffffffffffffffffffffffffffffffffffffffffffffffffffff19166020820180517bffffffffffffffffffffffffffffffffffffffffffffffffffffffff83818316178352505050506040518082805190602001908083835b602083106122c457805182526020820191506020810190506020830392506122a1565b6001836020036101000a0380198251168184511680821785525050505050509050019150506000604051808303816000865af19150503d8060008114612326576040519150601f19603f3d011682016040523d82523d6000602084013e61232b565b606091505b509150915081801561236b575060008151148061236a575080806020019051602081101561235857600080fd5b81019080805190602001909291905050505b5b6123dd576040517f08c379a000000000000000000000000000000000000000000000000000000000815260040180806020018281038252601a8152602001807f556e697377617056323a205452414e534645525f4641494c454400000000000081525060200191505060405180910390fd5b5050505050565b60008082148061240157508282838502925082816123fe57fe5b04145b612473576040517f08c379a00000000000000000000000000000000000000000000000000000000081526004018080602001828103825260148152602001807f64732d6d6174682d6d756c2d6f766572666c6f7700000000000000000000000081525060200191505060405180910390fd5b92915050565b60008282840391508111156124f6576040517f08c379a00000000000000000000000000000000000000000000000000000000081526004018080602001828103825260158152602001807f64732d6d6174682d7375622d756e646572666c6f77000000000000000000000081525060200191505060405180910390fd5b92915050565b7fffffffffffffffffffffffffffffffffffffffffffffffffffffffffffffffff6dffffffffffffffffffffffffffff16841115801561256c57507fffffffffffffffffffffffffffffffffffffffffffffffffffffffffffffffff6dffffffffffffffffffffffffffff168311155b6125de576040517f08c379a00000000000000000000000000000000000000000000000000000000081526004018080602001828103825260138152602001807f556e697377617056323a204f564552464c4f570000000000000000000000000081525060200191505060405180910390fd5b600064010000000042816125ee57fe5b06905060006007601c9054906101000a900463ffffffff168203905060008163ffffffff1611801561263157506000846dffffffffffffffffffffffffffff1614155b801561264e57506000836dffffffffffffffffffffffffffff1614155b15612730578063ffffffff166126938561266786612f69565b7bffffffffffffffffffffffffffffffffffffffffffffffffffffffff16612f9490919063ffffffff16565b7bffffffffffffffffffffffffffffffffffffffffffffffffffffffff16026008600082825401925050819055508063ffffffff16612701846126d587612f69565b7bffffffffffffffffffffffffffffffffffffffffffffffffffffffff16612f9490919063ffffffff16565b7bffffffffffffffffffffffffffffffffffffffffffffffffffffffff16026009600082825401925050819055505b85600760006101000a8154816dffffffffffffffffffffffffffff02191690836dffffffffffffffffffffffffffff160217905550846007600e6101000a8154816dffffffffffffffffffffffffffff02191690836dffffffffffffffffffffffffffff160217905550816007601c6101000a81548163ffffffff021916908363ffffffff1602179055507f1c411e9a96e071241c2f21f7726b17ae89e3cab4c78be50e062b03a9fffbbad1600760009054906101000a90046dffffffffffffffffffffffffffff166007600e9054906101000a90046dffffffffffffffffffffffffffff1660405180836dffffffffffffffffffffffffffff168152602001826dffffffffffffffffffffffffffff1681526020019250505060405180910390a1505050505050565b80600260008573ffffffffffffffffffffffffffffffffffffffff1673ffffffffffffffffffffffffffffffffffffffff16815260200190815260200160002060008473ffffffffffffffffffffffffffffffffffffffff1673ffffffffffffffffffffffffffffffffffffffff168152602001908152602001600020819055508173ffffffffffffffffffffffffffffffffffffffff168373ffffffffffffffffffffffffffffffffffffffff167f8c5be1e5ebec7d5bd14f71427d1e84f3dd0314c0f7b2291e5b200ac8c7c3b925836040518082815260200191505060405180910390a3505050565b61299781600160008673ffffffffffffffffffffffffffffffffffffffff1673ffffffffffffffffffffffffffffffffffffffff1681526020019081526020016000205461247990919063ffffffff16565b600160008573ffffffffffffffffffffffffffffffffffffffff1673ffffffffffffffffffffffffffffffffffffffff16815260200190815260200160002081905550612a2c81600160008573ffffffffffffffffffffffffffffffffffffffff1673ffffffffffffffffffffffffffffffffffffffff16815260200190815260200160002054612ff490919063ffffffff16565b600160008473ffffffffffffffffffffffffffffffffffffffff1673ffffffffffffffffffffffffffffffffffffffff168152602001908152602001600020819055508173ffffffffffffffffffffffffffffffffffffffff168373ffffffffffffffffffffffffffffffffffffffff167fddf252ad1be2c89b69c2b068fc378daa952ba7f163c4a11628f55a4df523b3ef836040518082815260200191505060405180910390a3505050565b600080600460009054906101000a900473ffffffffffffffffffffffffffffffffffffffff1673ffffffffffffffffffffffffffffffffffffffff1663017e7e586040518163ffffffff1660e01b815260040160206040518083038186803b158015612b4457600080fd5b505afa158015612b58573d6000803e3d6000fd5b505050506040513d6020811015612b6e57600080fd5b81019080805190602001909291905050509050600073ffffffffffffffffffffffffffffffffffffffff168173ffffffffffffffffffffffffffffffffffffffff16141591506000600a5490508215612ca05760008114612c9b576000612c06612c01866dffffffffffffffffffffffffffff16886dffffffffffffffffffffffffffff166123e490919063ffffffff16565b612cba565b90506000612c1383612cba565b905080821115612c98576000612c46612c35838561247990919063ffffffff16565b6000546123e490919063ffffffff16565b90506000612c7083612c626005876123e490919063ffffffff16565b612ff490919063ffffffff16565b90506000818381612c7d57fe5b0490506000811115612c9457612c938782612d1c565b5b5050505b50505b612cb2565b60008114612cb1576000600a819055505b5b505092915050565b60006003821115612d09578190506000600160028481612cd657fe5b040190505b81811015612d0357809150600281828581612cf257fe5b040181612cfb57fe5b049050612cdb565b50612d17565b60008214612d1657600190505b5b919050565b612d3181600054612ff490919063ffffffff16565b600081905550612d8981600160008573ffffffffffffffffffffffffffffffffffffffff1673ffffffffffffffffffffffffffffffffffffffff16815260200190815260200160002054612ff490919063ffffffff16565b600160008473ffffffffffffffffffffffffffffffffffffffff1673ffffffffffffffffffffffffffffffffffffffff168152602001908152602001600020819055508173ffffffffffffffffffffffffffffffffffffffff16600073ffffffffffffffffffffffffffffffffffffffff167fddf252ad1be2c89b69c2b068fc378daa952ba7f163c4a11628f55a4df523b3ef836040518082815260200191505060405180910390a35050565b6000818310612e455781612e47565b825b905092915050565b612ea181600160008573ffffffffffffffffffffffffffffffffffffffff1673ffffffffffffffffffffffffffffffffffffffff1681526020019081526020016000205461247990919063ffffffff16565b600160008473ffffffffffffffffffffffffffffffffffffffff1673ffffffffffffffffffffffffffffffffffffffff16815260200190815260200160002081905550612ef98160005461247990919063ffffffff16565b600081905550600073ffffffffffffffffffffffffffffffffffffffff168273ffffffffffffffffffffffffffffffffffffffff167fddf252ad1be2c89b69c2b068fc378daa952ba7f163c4a11628f55a4df523b3ef836040518082815260200191505060405180910390a35050565b60006e010000000000000000000000000000826dffffffffffffffffffffffffffff16029050919050565b6000816dffffffffffffffffffffffffffff167bffffffffffffffffffffffffffffffffffffffffffffffffffffffff16837bffffffffffffffffffffffffffffffffffffffffffffffffffffffff1681612feb57fe5b04905092915050565b6000828284019150811015613071576040517f08c379a00000000000000000000000000000000000000000000000000000000081526004018080602001828103825260148152602001807f64732d6d6174682d6164642d6f766572666c6f7700000000000000000000000081525060200191505060405180910390fd5b9291505056fe556e697377617056323a20494e53554646494349454e545f4f55545055545f414d4f554e54556e697377617056323a20494e53554646494349454e545f494e5055545f414d4f554e54556e697377617056323a20494e53554646494349454e545f4c4951554944495459556e697377617056323a20494e53554646494349454e545f4c49515549444954595f4255524e4544556e697377617056323a20494e53554646494349454e545f4c49515549444954595f4d494e544544a26469706673582212208e61aeddd0fcd468a349e618f103babfc019222a967629f6b2117d6b4030df8064736f6c634300060c0033a26469706673582212205f78be588e8a2ae76a71805f3386f6eb415d7338c20d10b8de38b711506ec06a64736f6c634300060c0033",
					"opcodes": "PUSH1 0x80 PUSH1 0x40 MSTORE CALLVALUE DUP1 ISZERO PUSH2 0x10 JUMPI PUSH1 0x0 DUP1 REVERT JUMPDEST POP PUSH1 0x40 MLOAD PUSH2 0x3EFD CODESIZE SUB DUP1 PUSH2 0x3EFD DUP4 CODECOPY DUP2 DUP2 ADD PUSH1 0x40 MSTORE PUSH1 0x20 DUP2 LT ISZERO PUSH2 0x33 JUMPI PUSH1 0x0 DUP1 REVERT JUMPDEST DUP2 ADD SWAP1 DUP1 DUP1 MLOAD SWAP1 PUSH1 0x20 ADD SWAP1 SWAP3 SWAP2 SWAP1 POP POP POP DUP1 PUSH1 0x1 PUSH1 0x0 PUSH2 0x100 EXP DUP2 SLOAD DUP2 PUSH20 0xFFFFFFFFFFFFFFFFFFFFFFFFFFFFFFFFFFFFFFFF MUL NOT AND SWAP1 DUP4 PUSH20 0xFFFFFFFFFFFFFFFFFFFFFFFFFFFFFFFFFFFFFFFF AND MUL OR SWAP1 SSTORE POP POP PUSH2 0x3E68 DUP1 PUSH2 0x95 PUSH1 0x0 CODECOPY PUSH1 0x0 RETURN INVALID PUSH1 0x80 PUSH1 0x40 MSTORE CALLVALUE DUP1 ISZERO PUSH2 0x10 JUMPI PUSH1 0x0 DUP1 REVERT JUMPDEST POP PUSH1 0x4 CALLDATASIZE LT PUSH2 0x88 JUMPI PUSH1 0x0 CALLDATALOAD PUSH1 0xE0 SHR DUP1 PUSH4 0xA2E74AF6 GT PUSH2 0x5B JUMPI DUP1 PUSH4 0xA2E74AF6 EQ PUSH2 0x16B JUMPI DUP1 PUSH4 0xC9C65396 EQ PUSH2 0x1AF JUMPI DUP1 PUSH4 0xE6A43905 EQ PUSH2 0x23D JUMPI DUP1 PUSH4 0xF46901ED EQ PUSH2 0x2CB JUMPI PUSH2 0x88 JUMP JUMPDEST DUP1 PUSH4 0x17E7E58 EQ PUSH2 0x8D JUMPI DUP1 PUSH4 0x94B7415 EQ PUSH2 0xC1 JUMPI DUP1 PUSH4 0x1E3DD18B EQ PUSH2 0xF5 JUMPI DUP1 PUSH4 0x574F2BA3 EQ PUSH2 0x14D JUMPI JUMPDEST PUSH1 0x0 DUP1 REVERT JUMPDEST PUSH2 0x95 PUSH2 0x30F JUMP JUMPDEST PUSH1 0x40 MLOAD DUP1 DUP3 PUSH20 0xFFFFFFFFFFFFFFFFFFFFFFFFFFFFFFFFFFFFFFFF AND DUP2 MSTORE PUSH1 0x20 ADD SWAP2 POP POP PUSH1 0x40 MLOAD DUP1 SWAP2 SUB SWAP1 RETURN JUMPDEST PUSH2 0xC9 PUSH2 0x333 JUMP JUMPDEST PUSH1 0x40 MLOAD DUP1 DUP3 PUSH20 0xFFFFFFFFFFFFFFFFFFFFFFFFFFFFFFFFFFFFFFFF AND DUP2 MSTORE PUSH1 0x20 ADD SWAP2 POP POP PUSH1 0x40 MLOAD DUP1 SWAP2 SUB SWAP1 RETURN JUMPDEST PUSH2 0x121 PUSH1 0x4 DUP1 CALLDATASIZE SUB PUSH1 0x20 DUP2 LT ISZERO PUSH2 0x10B JUMPI PUSH1 0x0 DUP1 REVERT JUMPDEST DUP2 ADD SWAP1 DUP1 DUP1 CALLDATALOAD SWAP1 PUSH1 0x20 ADD SWAP1 SWAP3 SWAP2 SWAP1 POP POP POP PUSH2 0x359 JUMP JUMPDEST PUSH1 0x40 MLOAD DUP1 DUP3 PUSH20 0xFFFFFFFFFFFFFFFFFFFFFFFFFFFFFFFFFFFFFFFF AND DUP2 MSTORE PUSH1 0x20 ADD SWAP2 POP POP PUSH1 0x40 MLOAD DUP1 SWAP2 SUB SWAP1 RETURN JUMPDEST PUSH2 0x155 PUSH2 0x395 JUMP JUMPDEST PUSH1 0x40 MLOAD DUP1 DUP3 DUP2 MSTORE PUSH1 0x20 ADD SWAP2 POP POP PUSH1 0x40 MLOAD DUP1 SWAP2 SUB SWAP1 RETURN JUMPDEST PUSH2 0x1AD PUSH1 0x4 DUP1 CALLDATASIZE SUB PUSH1 0x20 DUP2 LT ISZERO PUSH2 0x181 JUMPI PUSH1 0x0 DUP1 REVERT JUMPDEST DUP2 ADD SWAP1 DUP1 DUP1 CALLDATALOAD PUSH20 0xFFFFFFFFFFFFFFFFFFFFFFFFFFFFFFFFFFFFFFFF AND SWAP1 PUSH1 0x20 ADD SWAP1 SWAP3 SWAP2 SWAP1 POP POP POP PUSH2 0x3A2 JUMP JUMPDEST STOP JUMPDEST PUSH2 0x211 PUSH1 0x4 DUP1 CALLDATASIZE SUB PUSH1 0x40 DUP2 LT ISZERO PUSH2 0x1C5 JUMPI PUSH1 0x0 DUP1 REVERT JUMPDEST DUP2 ADD SWAP1 DUP1 DUP1 CALLDATALOAD PUSH20 0xFFFFFFFFFFFFFFFFFFFFFFFFFFFFFFFFFFFFFFFF AND SWAP1 PUSH1 0x20 ADD SWAP1 SWAP3 SWAP2 SWAP1 DUP1 CALLDATALOAD PUSH20 0xFFFFFFFFFFFFFFFFFFFFFFFFFFFFFFFFFFFFFFFF AND SWAP1 PUSH1 0x20 ADD SWAP1 SWAP3 SWAP2 SWAP1 POP POP POP PUSH2 0x4A9 JUMP JUMPDEST PUSH1 0x40 MLOAD DUP1 DUP3 PUSH20 0xFFFFFFFFFFFFFFFFFFFFFFFFFFFFFFFFFFFFFFFF AND DUP2 MSTORE PUSH1 0x20 ADD SWAP2 POP POP PUSH1 0x40 MLOAD DUP1 SWAP2 SUB SWAP1 RETURN JUMPDEST PUSH2 0x29F PUSH1 0x4 DUP1 CALLDATASIZE SUB PUSH1 0x40 DUP2 LT ISZERO PUSH2 0x253 JUMPI PUSH1 0x0 DUP1 REVERT JUMPDEST DUP2 ADD SWAP1 DUP1 DUP1 CALLDATALOAD PUSH20 0xFFFFFFFFFFFFFFFFFFFFFFFFFFFFFFFFFFFFFFFF AND SWAP1 PUSH1 0x20 ADD SWAP1 SWAP3 SWAP2 SWAP1 DUP1 CALLDATALOAD PUSH20 0xFFFFFFFFFFFFFFFFFFFFFFFFFFFFFFFFFFFFFFFF AND SWAP1 PUSH1 0x20 ADD SWAP1 SWAP3 SWAP2 SWAP1 POP POP POP PUSH2 0xB15 JUMP JUMPDEST PUSH1 0x40 MLOAD DUP1 DUP3 PUSH20 0xFFFFFFFFFFFFFFFFFFFFFFFFFFFFFFFFFFFFFFFF AND DUP2 MSTORE PUSH1 0x20 ADD SWAP2 POP POP PUSH1 0x40 MLOAD DUP1 SWAP2 SUB SWAP1 RETURN JUMPDEST PUSH2 0x30D PUSH1 0x4 DUP1 CALLDATASIZE SUB PUSH1 0x20 DUP2 LT ISZERO PUSH2 0x2E1 JUMPI PUSH1 0x0 DUP1 REVERT JUMPDEST DUP2 ADD SWAP1 DUP1 DUP1 CALLDATALOAD PUSH20 0xFFFFFFFFFFFFFFFFFFFFFFFFFFFFFFFFFFFFFFFF AND SWAP1 PUSH1 0x20 ADD SWAP1 SWAP3 SWAP2 SWAP1 POP POP POP PUSH2 0xB57 JUMP JUMPDEST STOP JUMPDEST PUSH1 0x0 DUP1 SLOAD SWAP1 PUSH2 0x100 EXP SWAP1 DIV PUSH20 0xFFFFFFFFFFFFFFFFFFFFFFFFFFFFFFFFFFFFFFFF AND DUP2 JUMP JUMPDEST PUSH1 0x1 PUSH1 0x0 SWAP1 SLOAD SWAP1 PUSH2 0x100 EXP SWAP1 DIV PUSH20 0xFFFFFFFFFFFFFFFFFFFFFFFFFFFFFFFFFFFFFFFF AND DUP2 JUMP JUMPDEST PUSH1 0x3 DUP2 DUP2 SLOAD DUP2 LT PUSH2 0x366 JUMPI INVALID JUMPDEST SWAP1 PUSH1 0x0 MSTORE PUSH1 0x20 PUSH1 0x0 KECCAK256 ADD PUSH1 0x0 SWAP2 POP SLOAD SWAP1 PUSH2 0x100 EXP SWAP1 DIV PUSH20 0xFFFFFFFFFFFFFFFFFFFFFFFFFFFFFFFFFFFFFFFF AND DUP2 JUMP JUMPDEST PUSH1 0x0 PUSH1 0x3 DUP1 SLOAD SWAP1 POP SWAP1 POP SWAP1 JUMP JUMPDEST PUSH1 0x1 PUSH1 0x0 SWAP1 SLOAD SWAP1 PUSH2 0x100 EXP SWAP1 DIV PUSH20 0xFFFFFFFFFFFFFFFFFFFFFFFFFFFFFFFFFFFFFFFF AND PUSH20 0xFFFFFFFFFFFFFFFFFFFFFFFFFFFFFFFFFFFFFFFF AND CALLER PUSH20 0xFFFFFFFFFFFFFFFFFFFFFFFFFFFFFFFFFFFFFFFF AND EQ PUSH2 0x465 JUMPI PUSH1 0x40 MLOAD PUSH32 0x8C379A000000000000000000000000000000000000000000000000000000000 DUP2 MSTORE PUSH1 0x4 ADD DUP1 DUP1 PUSH1 0x20 ADD DUP3 DUP2 SUB DUP3 MSTORE PUSH1 0x14 DUP2 MSTORE PUSH1 0x20 ADD DUP1 PUSH32 0x556E697377617056323A20464F5242494444454E000000000000000000000000 DUP2 MSTORE POP PUSH1 0x20 ADD SWAP2 POP POP PUSH1 0x40 MLOAD DUP1 SWAP2 SUB SWAP1 REVERT JUMPDEST DUP1 PUSH1 0x1 PUSH1 0x0 PUSH2 0x100 EXP DUP2 SLOAD DUP2 PUSH20 0xFFFFFFFFFFFFFFFFFFFFFFFFFFFFFFFFFFFFFFFF MUL NOT AND SWAP1 DUP4 PUSH20 0xFFFFFFFFFFFFFFFFFFFFFFFFFFFFFFFFFFFFFFFF AND MUL OR SWAP1 SSTORE POP POP JUMP JUMPDEST PUSH1 0x0 DUP2 PUSH20 0xFFFFFFFFFFFFFFFFFFFFFFFFFFFFFFFFFFFFFFFF AND DUP4 PUSH20 0xFFFFFFFFFFFFFFFFFFFFFFFFFFFFFFFFFFFFFFFF AND EQ ISZERO PUSH2 0x54D JUMPI PUSH1 0x40 MLOAD PUSH32 0x8C379A000000000000000000000000000000000000000000000000000000000 DUP2 MSTORE PUSH1 0x4 ADD DUP1 DUP1 PUSH1 0x20 ADD DUP3 DUP2 SUB DUP3 MSTORE PUSH1 0x1E DUP2 MSTORE PUSH1 0x20 ADD DUP1 PUSH32 0x556E697377617056323A204944454E544943414C5F4144445245535345530000 DUP2 MSTORE POP PUSH1 0x20 ADD SWAP2 POP POP PUSH1 0x40 MLOAD DUP1 SWAP2 SUB SWAP1 REVERT JUMPDEST PUSH1 0x0 DUP1 DUP4 PUSH20 0xFFFFFFFFFFFFFFFFFFFFFFFFFFFFFFFFFFFFFFFF AND DUP6 PUSH20 0xFFFFFFFFFFFFFFFFFFFFFFFFFFFFFFFFFFFFFFFF AND LT PUSH2 0x58A JUMPI DUP4 DUP6 PUSH2 0x58D JUMP JUMPDEST DUP5 DUP5 JUMPDEST SWAP2 POP SWAP2 POP PUSH1 0x0 PUSH20 0xFFFFFFFFFFFFFFFFFFFFFFFFFFFFFFFFFFFFFFFF AND DUP3 PUSH20 0xFFFFFFFFFFFFFFFFFFFFFFFFFFFFFFFFFFFFFFFF AND EQ ISZERO PUSH2 0x634 JUMPI PUSH1 0x40 MLOAD PUSH32 0x8C379A000000000000000000000000000000000000000000000000000000000 DUP2 MSTORE PUSH1 0x4 ADD DUP1 DUP1 PUSH1 0x20 ADD DUP3 DUP2 SUB DUP3 MSTORE PUSH1 0x17 DUP2 MSTORE PUSH1 0x20 ADD DUP1 PUSH32 0x556E697377617056323A205A45524F5F41444452455353000000000000000000 DUP2 MSTORE POP PUSH1 0x20 ADD SWAP2 POP POP PUSH1 0x40 MLOAD DUP1 SWAP2 SUB SWAP1 REVERT JUMPDEST PUSH1 0x0 PUSH20 0xFFFFFFFFFFFFFFFFFFFFFFFFFFFFFFFFFFFFFFFF AND PUSH1 0x2 PUSH1 0x0 DUP5 PUSH20 0xFFFFFFFFFFFFFFFFFFFFFFFFFFFFFFFFFFFFFFFF AND PUSH20 0xFFFFFFFFFFFFFFFFFFFFFFFFFFFFFFFFFFFFFFFF AND DUP2 MSTORE PUSH1 0x20 ADD SWAP1 DUP2 MSTORE PUSH1 0x20 ADD PUSH1 0x0 KECCAK256 PUSH1 0x0 DUP4 PUSH20 0xFFFFFFFFFFFFFFFFFFFFFFFFFFFFFFFFFFFFFFFF AND PUSH20 0xFFFFFFFFFFFFFFFFFFFFFFFFFFFFFFFFFFFFFFFF AND DUP2 MSTORE PUSH1 0x20 ADD SWAP1 DUP2 MSTORE PUSH1 0x20 ADD PUSH1 0x0 KECCAK256 PUSH1 0x0 SWAP1 SLOAD SWAP1 PUSH2 0x100 EXP SWAP1 DIV PUSH20 0xFFFFFFFFFFFFFFFFFFFFFFFFFFFFFFFFFFFFFFFF AND PUSH20 0xFFFFFFFFFFFFFFFFFFFFFFFFFFFFFFFFFFFFFFFF AND EQ PUSH2 0x772 JUMPI PUSH1 0x40 MLOAD PUSH32 0x8C379A000000000000000000000000000000000000000000000000000000000 DUP2 MSTORE PUSH1 0x4 ADD DUP1 DUP1 PUSH1 0x20 ADD DUP3 DUP2 SUB DUP3 MSTORE PUSH1 0x16 DUP2 MSTORE PUSH1 0x20 ADD DUP1 PUSH32 0x556E697377617056323A20504149525F45584953545300000000000000000000 DUP2 MSTORE POP PUSH1 0x20 ADD SWAP2 POP POP PUSH1 0x40 MLOAD DUP1 SWAP2 SUB SWAP1 REVERT JUMPDEST PUSH1 0x60 PUSH1 0x40 MLOAD DUP1 PUSH1 0x20 ADD PUSH2 0x784 SWAP1 PUSH2 0xC5D JUMP JUMPDEST PUSH1 0x20 DUP3 ADD DUP2 SUB DUP3 MSTORE PUSH1 0x1F NOT PUSH1 0x1F DUP3 ADD AND PUSH1 0x40 MSTORE POP SWAP1 POP PUSH1 0x0 DUP4 DUP4 PUSH1 0x40 MLOAD PUSH1 0x20 ADD DUP1 DUP4 PUSH20 0xFFFFFFFFFFFFFFFFFFFFFFFFFFFFFFFFFFFFFFFF AND PUSH1 0x60 SHL DUP2 MSTORE PUSH1 0x14 ADD DUP3 PUSH20 0xFFFFFFFFFFFFFFFFFFFFFFFFFFFFFFFFFFFFFFFF AND PUSH1 0x60 SHL DUP2 MSTORE PUSH1 0x14 ADD SWAP3 POP POP POP PUSH1 0x40 MLOAD PUSH1 0x20 DUP2 DUP4 SUB SUB DUP2 MSTORE SWAP1 PUSH1 0x40 MSTORE DUP1 MLOAD SWAP1 PUSH1 0x20 ADD KECCAK256 SWAP1 POP DUP1 DUP3 MLOAD PUSH1 0x20 DUP5 ADD PUSH1 0x0 CREATE2 SWAP5 POP DUP5 PUSH20 0xFFFFFFFFFFFFFFFFFFFFFFFFFFFFFFFFFFFFFFFF AND PUSH4 0x485CC955 DUP6 DUP6 PUSH1 0x40 MLOAD DUP4 PUSH4 0xFFFFFFFF AND PUSH1 0xE0 SHL DUP2 MSTORE PUSH1 0x4 ADD DUP1 DUP4 PUSH20 0xFFFFFFFFFFFFFFFFFFFFFFFFFFFFFFFFFFFFFFFF AND DUP2 MSTORE PUSH1 0x20 ADD DUP3 PUSH20 0xFFFFFFFFFFFFFFFFFFFFFFFFFFFFFFFFFFFFFFFF AND DUP2 MSTORE PUSH1 0x20 ADD SWAP3 POP POP POP PUSH1 0x0 PUSH1 0x40 MLOAD DUP1 DUP4 SUB DUP2 PUSH1 0x0 DUP8 DUP1 EXTCODESIZE ISZERO DUP1 ISZERO PUSH2 0x892 JUMPI PUSH1 0x0 DUP1 REVERT JUMPDEST POP GAS CALL ISZERO DUP1 ISZERO PUSH2 0x8A6 JUMPI RETURNDATASIZE PUSH1 0x0 DUP1 RETURNDATACOPY RETURNDATASIZE PUSH1 0x0 REVERT JUMPDEST POP POP POP POP DUP5 PUSH1 0x2 PUSH1 0x0 DUP7 PUSH20 0xFFFFFFFFFFFFFFFFFFFFFFFFFFFFFFFFFFFFFFFF AND PUSH20 0xFFFFFFFFFFFFFFFFFFFFFFFFFFFFFFFFFFFFFFFF AND DUP2 MSTORE PUSH1 0x20 ADD SWAP1 DUP2 MSTORE PUSH1 0x20 ADD PUSH1 0x0 KECCAK256 PUSH1 0x0 DUP6 PUSH20 0xFFFFFFFFFFFFFFFFFFFFFFFFFFFFFFFFFFFFFFFF AND PUSH20 0xFFFFFFFFFFFFFFFFFFFFFFFFFFFFFFFFFFFFFFFF AND DUP2 MSTORE PUSH1 0x20 ADD SWAP1 DUP2 MSTORE PUSH1 0x20 ADD PUSH1 0x0 KECCAK256 PUSH1 0x0 PUSH2 0x100 EXP DUP2 SLOAD DUP2 PUSH20 0xFFFFFFFFFFFFFFFFFFFFFFFFFFFFFFFFFFFFFFFF MUL NOT AND SWAP1 DUP4 PUSH20 0xFFFFFFFFFFFFFFFFFFFFFFFFFFFFFFFFFFFFFFFF AND MUL OR SWAP1 SSTORE POP DUP5 PUSH1 0x2 PUSH1 0x0 DUP6 PUSH20 0xFFFFFFFFFFFFFFFFFFFFFFFFFFFFFFFFFFFFFFFF AND PUSH20 0xFFFFFFFFFFFFFFFFFFFFFFFFFFFFFFFFFFFFFFFF AND DUP2 MSTORE PUSH1 0x20 ADD SWAP1 DUP2 MSTORE PUSH1 0x20 ADD PUSH1 0x0 KECCAK256 PUSH1 0x0 DUP7 PUSH20 0xFFFFFFFFFFFFFFFFFFFFFFFFFFFFFFFFFFFFFFFF AND PUSH20 0xFFFFFFFFFFFFFFFFFFFFFFFFFFFFFFFFFFFFFFFF AND DUP2 MSTORE PUSH1 0x20 ADD SWAP1 DUP2 MSTORE PUSH1 0x20 ADD PUSH1 0x0 KECCAK256 PUSH1 0x0 PUSH2 0x100 EXP DUP2 SLOAD DUP2 PUSH20 0xFFFFFFFFFFFFFFFFFFFFFFFFFFFFFFFFFFFFFFFF MUL NOT AND SWAP1 DUP4 PUSH20 0xFFFFFFFFFFFFFFFFFFFFFFFFFFFFFFFFFFFFFFFF AND MUL OR SWAP1 SSTORE POP PUSH1 0x3 DUP6 SWAP1 DUP1 PUSH1 0x1 DUP2 SLOAD ADD DUP1 DUP3 SSTORE DUP1 SWAP2 POP POP PUSH1 0x1 SWAP1 SUB SWAP1 PUSH1 0x0 MSTORE PUSH1 0x20 PUSH1 0x0 KECCAK256 ADD PUSH1 0x0 SWAP1 SWAP2 SWAP1 SWAP2 SWAP1 SWAP2 PUSH2 0x100 EXP DUP2 SLOAD DUP2 PUSH20 0xFFFFFFFFFFFFFFFFFFFFFFFFFFFFFFFFFFFFFFFF MUL NOT AND SWAP1 DUP4 PUSH20 0xFFFFFFFFFFFFFFFFFFFFFFFFFFFFFFFFFFFFFFFF AND MUL OR SWAP1 SSTORE POP DUP3 PUSH20 0xFFFFFFFFFFFFFFFFFFFFFFFFFFFFFFFFFFFFFFFF AND DUP5 PUSH20 0xFFFFFFFFFFFFFFFFFFFFFFFFFFFFFFFFFFFFFFFF AND PUSH32 0xD3648BD0F6BA80134A33BA9275AC585D9D315F0AD8355CDDEFDE31AFA28D0E9 DUP8 PUSH1 0x3 DUP1 SLOAD SWAP1 POP PUSH1 0x40 MLOAD DUP1 DUP4 PUSH20 0xFFFFFFFFFFFFFFFFFFFFFFFFFFFFFFFFFFFFFFFF AND DUP2 MSTORE PUSH1 0x20 ADD DUP3 DUP2 MSTORE PUSH1 0x20 ADD SWAP3 POP POP POP PUSH1 0x40 MLOAD DUP1 SWAP2 SUB SWAP1 LOG3 POP POP POP POP SWAP3 SWAP2 POP POP JUMP JUMPDEST PUSH1 0x2 PUSH1 0x20 MSTORE DUP2 PUSH1 0x0 MSTORE PUSH1 0x40 PUSH1 0x0 KECCAK256 PUSH1 0x20 MSTORE DUP1 PUSH1 0x0 MSTORE PUSH1 0x40 PUSH1 0x0 KECCAK256 PUSH1 0x0 SWAP2 POP SWAP2 POP SWAP1 SLOAD SWAP1 PUSH2 0x100 EXP SWAP1 DIV PUSH20 0xFFFFFFFFFFFFFFFFFFFFFFFFFFFFFFFFFFFFFFFF AND DUP2 JUMP JUMPDEST PUSH1 0x1 PUSH1 0x0 SWAP1 SLOAD SWAP1 PUSH2 0x100 EXP SWAP1 DIV PUSH20 0xFFFFFFFFFFFFFFFFFFFFFFFFFFFFFFFFFFFFFFFF AND PUSH20 0xFFFFFFFFFFFFFFFFFFFFFFFFFFFFFFFFFFFFFFFF AND CALLER PUSH20 0xFFFFFFFFFFFFFFFFFFFFFFFFFFFFFFFFFFFFFFFF AND EQ PUSH2 0xC1A JUMPI PUSH1 0x40 MLOAD PUSH32 0x8C379A000000000000000000000000000000000000000000000000000000000 DUP2 MSTORE PUSH1 0x4 ADD DUP1 DUP1 PUSH1 0x20 ADD DUP3 DUP2 SUB DUP3 MSTORE PUSH1 0x14 DUP2 MSTORE PUSH1 0x20 ADD DUP1 PUSH32 0x556E697377617056323A20464F5242494444454E000000000000000000000000 DUP2 MSTORE POP PUSH1 0x20 ADD SWAP2 POP POP PUSH1 0x40 MLOAD DUP1 SWAP2 SUB SWAP1 REVERT JUMPDEST DUP1 PUSH1 0x0 DUP1 PUSH2 0x100 EXP DUP2 SLOAD DUP2 PUSH20 0xFFFFFFFFFFFFFFFFFFFFFFFFFFFFFFFFFFFFFFFF MUL NOT AND SWAP1 DUP4 PUSH20 0xFFFFFFFFFFFFFFFFFFFFFFFFFFFFFFFFFFFFFFFF AND MUL OR SWAP1 SSTORE POP POP JUMP JUMPDEST PUSH2 0x31C8 DUP1 PUSH2 0xC6B DUP4 CODECOPY ADD SWAP1 JUMP INVALID PUSH1 0x80 PUSH1 0x40 MSTORE CALLVALUE DUP1 ISZERO PUSH2 0x10 JUMPI PUSH1 0x0 DUP1 REVERT JUMPDEST POP CALLER PUSH1 0x4 PUSH1 0x0 PUSH2 0x100 EXP DUP2 SLOAD DUP2 PUSH20 0xFFFFFFFFFFFFFFFFFFFFFFFFFFFFFFFFFFFFFFFF MUL NOT AND SWAP1 DUP4 PUSH20 0xFFFFFFFFFFFFFFFFFFFFFFFFFFFFFFFFFFFFFFFF AND MUL OR SWAP1 SSTORE POP PUSH2 0x3167 DUP1 PUSH2 0x61 PUSH1 0x0 CODECOPY PUSH1 0x0 RETURN INVALID PUSH1 0x80 PUSH1 0x40 MSTORE CALLVALUE DUP1 ISZERO PUSH2 0x10 JUMPI PUSH1 0x0 DUP1 REVERT JUMPDEST POP PUSH1 0x4 CALLDATASIZE LT PUSH2 0x158 JUMPI PUSH1 0x0 CALLDATALOAD PUSH1 0xE0 SHR DUP1 PUSH4 0x70A08231 GT PUSH2 0xC3 JUMPI DUP1 PUSH4 0xBA9A7A56 GT PUSH2 0x7C JUMPI DUP1 PUSH4 0xBA9A7A56 EQ PUSH2 0x746 JUMPI DUP1 PUSH4 0xBC25CF77 EQ PUSH2 0x764 JUMPI DUP1 PUSH4 0xC45A0155 EQ PUSH2 0x7A8 JUMPI DUP1 PUSH4 0xD21220A7 EQ PUSH2 0x7DC JUMPI DUP1 PUSH4 0xDD62ED3E EQ PUSH2 0x810 JUMPI DUP1 PUSH4 0xFFF6CAE9 EQ PUSH2 0x888 JUMPI PUSH2 0x158 JUMP JUMPDEST DUP1 PUSH4 0x70A08231 EQ PUSH2 0x532 JUMPI DUP1 PUSH4 0x7464FC3D EQ PUSH2 0x58A JUMPI DUP1 PUSH4 0x7ECEBE00 EQ PUSH2 0x5A8 JUMPI DUP1 PUSH4 0x89AFCB44 EQ PUSH2 0x600 JUMPI DUP1 PUSH4 0x95D89B41 EQ PUSH2 0x65F JUMPI DUP1 PUSH4 0xA9059CBB EQ PUSH2 0x6E2 JUMPI PUSH2 0x158 JUMP JUMPDEST DUP1 PUSH4 0x23B872DD GT PUSH2 0x115 JUMPI DUP1 PUSH4 0x23B872DD EQ PUSH2 0x395 JUMPI DUP1 PUSH4 0x313CE567 EQ PUSH2 0x419 JUMPI DUP1 PUSH4 0x485CC955 EQ PUSH2 0x43A JUMPI DUP1 PUSH4 0x5909C0D5 EQ PUSH2 0x49E JUMPI DUP1 PUSH4 0x5A3D5493 EQ PUSH2 0x4BC JUMPI DUP1 PUSH4 0x6A627842 EQ PUSH2 0x4DA JUMPI PUSH2 0x158 JUMP JUMPDEST DUP1 PUSH4 0x22C0D9F EQ PUSH2 0x15D JUMPI DUP1 PUSH4 0x6FDDE03 EQ PUSH2 0x20A JUMPI DUP1 PUSH4 0x902F1AC EQ PUSH2 0x28D JUMPI DUP1 PUSH4 0x95EA7B3 EQ PUSH2 0x2DF JUMPI DUP1 PUSH4 0xDFE1681 EQ PUSH2 0x343 JUMPI DUP1 PUSH4 0x18160DDD EQ PUSH2 0x377 JUMPI JUMPDEST PUSH1 0x0 DUP1 REVERT JUMPDEST PUSH2 0x208 PUSH1 0x4 DUP1 CALLDATASIZE SUB PUSH1 0x80 DUP2 LT ISZERO PUSH2 0x173 JUMPI PUSH1 0x0 DUP1 REVERT JUMPDEST DUP2 ADD SWAP1 DUP1 DUP1 CALLDATALOAD SWAP1 PUSH1 0x20 ADD SWAP1 SWAP3 SWAP2 SWAP1 DUP1 CALLDATALOAD SWAP1 PUSH1 0x20 ADD SWAP1 SWAP3 SWAP2 SWAP1 DUP1 CALLDATALOAD PUSH20 0xFFFFFFFFFFFFFFFFFFFFFFFFFFFFFFFFFFFFFFFF AND SWAP1 PUSH1 0x20 ADD SWAP1 SWAP3 SWAP2 SWAP1 DUP1 CALLDATALOAD SWAP1 PUSH1 0x20 ADD SWAP1 PUSH5 0x100000000 DUP2 GT ISZERO PUSH2 0x1C4 JUMPI PUSH1 0x0 DUP1 REVERT JUMPDEST DUP3 ADD DUP4 PUSH1 0x20 DUP3 ADD GT ISZERO PUSH2 0x1D6 JUMPI PUSH1 0x0 DUP1 REVERT JUMPDEST DUP1 CALLDATALOAD SWAP1 PUSH1 0x20 ADD SWAP2 DUP5 PUSH1 0x1 DUP4 MUL DUP5 ADD GT PUSH5 0x100000000 DUP4 GT OR ISZERO PUSH2 0x1F8 JUMPI PUSH1 0x0 DUP1 REVERT JUMPDEST SWAP1 SWAP2 SWAP3 SWAP4 SWAP2 SWAP3 SWAP4 SWAP1 POP POP POP PUSH2 0x892 JUMP JUMPDEST STOP JUMPDEST PUSH2 0x212 PUSH2 0xFB5 JUMP JUMPDEST PUSH1 0x40 MLOAD DUP1 DUP1 PUSH1 0x20 ADD DUP3 DUP2 SUB DUP3 MSTORE DUP4 DUP2 DUP2 MLOAD DUP2 MSTORE PUSH1 0x20 ADD SWAP2 POP DUP1 MLOAD SWAP1 PUSH1 0x20 ADD SWAP1 DUP1 DUP4 DUP4 PUSH1 0x0 JUMPDEST DUP4 DUP2 LT ISZERO PUSH2 0x252 JUMPI DUP1 DUP3 ADD MLOAD DUP2 DUP5 ADD MSTORE PUSH1 0x20 DUP2 ADD SWAP1 POP PUSH2 0x237 JUMP JUMPDEST POP POP POP POP SWAP1 POP SWAP1 DUP2 ADD SWAP1 PUSH1 0x1F AND DUP1 ISZERO PUSH2 0x27F JUMPI DUP1 DUP3 SUB DUP1 MLOAD PUSH1 0x1 DUP4 PUSH1 0x20 SUB PUSH2 0x100 EXP SUB NOT AND DUP2 MSTORE PUSH1 0x20 ADD SWAP2 POP JUMPDEST POP SWAP3 POP POP POP PUSH1 0x40 MLOAD DUP1 SWAP2 SUB SWAP1 RETURN JUMPDEST PUSH2 0x295 PUSH2 0xFEE JUMP JUMPDEST PUSH1 0x40 MLOAD DUP1 DUP5 PUSH14 0xFFFFFFFFFFFFFFFFFFFFFFFFFFFF AND DUP2 MSTORE PUSH1 0x20 ADD DUP4 PUSH14 0xFFFFFFFFFFFFFFFFFFFFFFFFFFFF AND DUP2 MSTORE PUSH1 0x20 ADD DUP3 PUSH4 0xFFFFFFFF AND DUP2 MSTORE PUSH1 0x20 ADD SWAP4 POP POP POP POP PUSH1 0x40 MLOAD DUP1 SWAP2 SUB SWAP1 RETURN JUMPDEST PUSH2 0x32B PUSH1 0x4 DUP1 CALLDATASIZE SUB PUSH1 0x40 DUP2 LT ISZERO PUSH2 0x2F5 JUMPI PUSH1 0x0 DUP1 REVERT JUMPDEST DUP2 ADD SWAP1 DUP1 DUP1 CALLDATALOAD PUSH20 0xFFFFFFFFFFFFFFFFFFFFFFFFFFFFFFFFFFFFFFFF AND SWAP1 PUSH1 0x20 ADD SWAP1 SWAP3 SWAP2 SWAP1 DUP1 CALLDATALOAD SWAP1 PUSH1 0x20 ADD SWAP1 SWAP3 SWAP2 SWAP1 POP POP POP PUSH2 0x104B JUMP JUMPDEST PUSH1 0x40 MLOAD DUP1 DUP3 ISZERO ISZERO DUP2 MSTORE PUSH1 0x20 ADD SWAP2 POP POP PUSH1 0x40 MLOAD DUP1 SWAP2 SUB SWAP1 RETURN JUMPDEST PUSH2 0x34B PUSH2 0x1062 JUMP JUMPDEST PUSH1 0x40 MLOAD DUP1 DUP3 PUSH20 0xFFFFFFFFFFFFFFFFFFFFFFFFFFFFFFFFFFFFFFFF AND DUP2 MSTORE PUSH1 0x20 ADD SWAP2 POP POP PUSH1 0x40 MLOAD DUP1 SWAP2 SUB SWAP1 RETURN JUMPDEST PUSH2 0x37F PUSH2 0x1088 JUMP JUMPDEST PUSH1 0x40 MLOAD DUP1 DUP3 DUP2 MSTORE PUSH1 0x20 ADD SWAP2 POP POP PUSH1 0x40 MLOAD DUP1 SWAP2 SUB SWAP1 RETURN JUMPDEST PUSH2 0x401 PUSH1 0x4 DUP1 CALLDATASIZE SUB PUSH1 0x60 DUP2 LT ISZERO PUSH2 0x3AB JUMPI PUSH1 0x0 DUP1 REVERT JUMPDEST DUP2 ADD SWAP1 DUP1 DUP1 CALLDATALOAD PUSH20 0xFFFFFFFFFFFFFFFFFFFFFFFFFFFFFFFFFFFFFFFF AND SWAP1 PUSH1 0x20 ADD SWAP1 SWAP3 SWAP2 SWAP1 DUP1 CALLDATALOAD PUSH20 0xFFFFFFFFFFFFFFFFFFFFFFFFFFFFFFFFFFFFFFFF AND SWAP1 PUSH1 0x20 ADD SWAP1 SWAP3 SWAP2 SWAP1 DUP1 CALLDATALOAD SWAP1 PUSH1 0x20 ADD SWAP1 SWAP3 SWAP2 SWAP1 POP POP POP PUSH2 0x108E JUMP JUMPDEST PUSH1 0x40 MLOAD DUP1 DUP3 ISZERO ISZERO DUP2 MSTORE PUSH1 0x20 ADD SWAP2 POP POP PUSH1 0x40 MLOAD DUP1 SWAP2 SUB SWAP1 RETURN JUMPDEST PUSH2 0x421 PUSH2 0x1259 JUMP JUMPDEST PUSH1 0x40 MLOAD DUP1 DUP3 PUSH1 0xFF AND DUP2 MSTORE PUSH1 0x20 ADD SWAP2 POP POP PUSH1 0x40 MLOAD DUP1 SWAP2 SUB SWAP1 RETURN JUMPDEST PUSH2 0x49C PUSH1 0x4 DUP1 CALLDATASIZE SUB PUSH1 0x40 DUP2 LT ISZERO PUSH2 0x450 JUMPI PUSH1 0x0 DUP1 REVERT JUMPDEST DUP2 ADD SWAP1 DUP1 DUP1 CALLDATALOAD PUSH20 0xFFFFFFFFFFFFFFFFFFFFFFFFFFFFFFFFFFFFFFFF AND SWAP1 PUSH1 0x20 ADD SWAP1 SWAP3 SWAP2 SWAP1 DUP1 CALLDATALOAD PUSH20 0xFFFFFFFFFFFFFFFFFFFFFFFFFFFFFFFFFFFFFFFF AND SWAP1 PUSH1 0x20 ADD SWAP1 SWAP3 SWAP2 SWAP1 POP POP POP PUSH2 0x125E JUMP JUMPDEST STOP JUMPDEST PUSH2 0x4A6 PUSH2 0x13A7 JUMP JUMPDEST PUSH1 0x40 MLOAD DUP1 DUP3 DUP2 MSTORE PUSH1 0x20 ADD SWAP2 POP POP PUSH1 0x40 MLOAD DUP1 SWAP2 SUB SWAP1 RETURN JUMPDEST PUSH2 0x4C4 PUSH2 0x13AD JUMP JUMPDEST PUSH1 0x40 MLOAD DUP1 DUP3 DUP2 MSTORE PUSH1 0x20 ADD SWAP2 POP POP PUSH1 0x40 MLOAD DUP1 SWAP2 SUB SWAP1 RETURN JUMPDEST PUSH2 0x51C PUSH1 0x4 DUP1 CALLDATASIZE SUB PUSH1 0x20 DUP2 LT ISZERO PUSH2 0x4F0 JUMPI PUSH1 0x0 DUP1 REVERT JUMPDEST DUP2 ADD SWAP1 DUP1 DUP1 CALLDATALOAD PUSH20 0xFFFFFFFFFFFFFFFFFFFFFFFFFFFFFFFFFFFFFFFF AND SWAP1 PUSH1 0x20 ADD SWAP1 SWAP3 SWAP2 SWAP1 POP POP POP PUSH2 0x13B3 JUMP JUMPDEST PUSH1 0x40 MLOAD DUP1 DUP3 DUP2 MSTORE PUSH1 0x20 ADD SWAP2 POP POP PUSH1 0x40 MLOAD DUP1 SWAP2 SUB SWAP1 RETURN JUMPDEST PUSH2 0x574 PUSH1 0x4 DUP1 CALLDATASIZE SUB PUSH1 0x20 DUP2 LT ISZERO PUSH2 0x548 JUMPI PUSH1 0x0 DUP1 REVERT JUMPDEST DUP2 ADD SWAP1 DUP1 DUP1 CALLDATALOAD PUSH20 0xFFFFFFFFFFFFFFFFFFFFFFFFFFFFFFFFFFFFFFFF AND SWAP1 PUSH1 0x20 ADD SWAP1 SWAP3 SWAP2 SWAP1 POP POP POP PUSH2 0x17B0 JUMP JUMPDEST PUSH1 0x40 MLOAD DUP1 DUP3 DUP2 MSTORE PUSH1 0x20 ADD SWAP2 POP POP PUSH1 0x40 MLOAD DUP1 SWAP2 SUB SWAP1 RETURN JUMPDEST PUSH2 0x592 PUSH2 0x17C8 JUMP JUMPDEST PUSH1 0x40 MLOAD DUP1 DUP3 DUP2 MSTORE PUSH1 0x20 ADD SWAP2 POP POP PUSH1 0x40 MLOAD DUP1 SWAP2 SUB SWAP1 RETURN JUMPDEST PUSH2 0x5EA PUSH1 0x4 DUP1 CALLDATASIZE SUB PUSH1 0x20 DUP2 LT ISZERO PUSH2 0x5BE JUMPI PUSH1 0x0 DUP1 REVERT JUMPDEST DUP2 ADD SWAP1 DUP1 DUP1 CALLDATALOAD PUSH20 0xFFFFFFFFFFFFFFFFFFFFFFFFFFFFFFFFFFFFFFFF AND SWAP1 PUSH1 0x20 ADD SWAP1 SWAP3 SWAP2 SWAP1 POP POP POP PUSH2 0x17CE JUMP JUMPDEST PUSH1 0x40 MLOAD DUP1 DUP3 DUP2 MSTORE PUSH1 0x20 ADD SWAP2 POP POP PUSH1 0x40 MLOAD DUP1 SWAP2 SUB SWAP1 RETURN JUMPDEST PUSH2 0x642 PUSH1 0x4 DUP1 CALLDATASIZE SUB PUSH1 0x20 DUP2 LT ISZERO PUSH2 0x616 JUMPI PUSH1 0x0 DUP1 REVERT JUMPDEST DUP2 ADD SWAP1 DUP1 DUP1 CALLDATALOAD PUSH20 0xFFFFFFFFFFFFFFFFFFFFFFFFFFFFFFFFFFFFFFFF AND SWAP1 PUSH1 0x20 ADD SWAP1 SWAP3 SWAP2 SWAP1 POP POP POP PUSH2 0x17E6 JUMP JUMPDEST PUSH1 0x40 MLOAD DUP1 DUP4 DUP2 MSTORE PUSH1 0x20 ADD DUP3 DUP2 MSTORE PUSH1 0x20 ADD SWAP3 POP POP POP PUSH1 0x40 MLOAD DUP1 SWAP2 SUB SWAP1 RETURN JUMPDEST PUSH2 0x667 PUSH2 0x1CF3 JUMP JUMPDEST PUSH1 0x40 MLOAD DUP1 DUP1 PUSH1 0x20 ADD DUP3 DUP2 SUB DUP3 MSTORE DUP4 DUP2 DUP2 MLOAD DUP2 MSTORE PUSH1 0x20 ADD SWAP2 POP DUP1 MLOAD SWAP1 PUSH1 0x20 ADD SWAP1 DUP1 DUP4 DUP4 PUSH1 0x0 JUMPDEST DUP4 DUP2 LT ISZERO PUSH2 0x6A7 JUMPI DUP1 DUP3 ADD MLOAD DUP2 DUP5 ADD MSTORE PUSH1 0x20 DUP2 ADD SWAP1 POP PUSH2 0x68C JUMP JUMPDEST POP POP POP POP SWAP1 POP SWAP1 DUP2 ADD SWAP1 PUSH1 0x1F AND DUP1 ISZERO PUSH2 0x6D4 JUMPI DUP1 DUP3 SUB DUP1 MLOAD PUSH1 0x1 DUP4 PUSH1 0x20 SUB PUSH2 0x100 EXP SUB NOT AND DUP2 MSTORE PUSH1 0x20 ADD SWAP2 POP JUMPDEST POP SWAP3 POP POP POP PUSH1 0x40 MLOAD DUP1 SWAP2 SUB SWAP1 RETURN JUMPDEST PUSH2 0x72E PUSH1 0x4 DUP1 CALLDATASIZE SUB PUSH1 0x40 DUP2 LT ISZERO PUSH2 0x6F8 JUMPI PUSH1 0x0 DUP1 REVERT JUMPDEST DUP2 ADD SWAP1 DUP1 DUP1 CALLDATALOAD PUSH20 0xFFFFFFFFFFFFFFFFFFFFFFFFFFFFFFFFFFFFFFFF AND SWAP1 PUSH1 0x20 ADD SWAP1 SWAP3 SWAP2 SWAP1 DUP1 CALLDATALOAD SWAP1 PUSH1 0x20 ADD SWAP1 SWAP3 SWAP2 SWAP1 POP POP POP PUSH2 0x1D2C JUMP JUMPDEST PUSH1 0x40 MLOAD DUP1 DUP3 ISZERO ISZERO DUP2 MSTORE PUSH1 0x20 ADD SWAP2 POP POP PUSH1 0x40 MLOAD DUP1 SWAP2 SUB SWAP1 RETURN JUMPDEST PUSH2 0x74E PUSH2 0x1D43 JUMP JUMPDEST PUSH1 0x40 MLOAD DUP1 DUP3 DUP2 MSTORE PUSH1 0x20 ADD SWAP2 POP POP PUSH1 0x40 MLOAD DUP1 SWAP2 SUB SWAP1 RETURN JUMPDEST PUSH2 0x7A6 PUSH1 0x4 DUP1 CALLDATASIZE SUB PUSH1 0x20 DUP2 LT ISZERO PUSH2 0x77A JUMPI PUSH1 0x0 DUP1 REVERT JUMPDEST DUP2 ADD SWAP1 DUP1 DUP1 CALLDATALOAD PUSH20 0xFFFFFFFFFFFFFFFFFFFFFFFFFFFFFFFFFFFFFFFF AND SWAP1 PUSH1 0x20 ADD SWAP1 SWAP3 SWAP2 SWAP1 POP POP POP PUSH2 0x1D49 JUMP JUMPDEST STOP JUMPDEST PUSH2 0x7B0 PUSH2 0x1F70 JUMP JUMPDEST PUSH1 0x40 MLOAD DUP1 DUP3 PUSH20 0xFFFFFFFFFFFFFFFFFFFFFFFFFFFFFFFFFFFFFFFF AND DUP2 MSTORE PUSH1 0x20 ADD SWAP2 POP POP PUSH1 0x40 MLOAD DUP1 SWAP2 SUB SWAP1 RETURN JUMPDEST PUSH2 0x7E4 PUSH2 0x1F96 JUMP JUMPDEST PUSH1 0x40 MLOAD DUP1 DUP3 PUSH20 0xFFFFFFFFFFFFFFFFFFFFFFFFFFFFFFFFFFFFFFFF AND DUP2 MSTORE PUSH1 0x20 ADD SWAP2 POP POP PUSH1 0x40 MLOAD DUP1 SWAP2 SUB SWAP1 RETURN JUMPDEST PUSH2 0x872 PUSH1 0x4 DUP1 CALLDATASIZE SUB PUSH1 0x40 DUP2 LT ISZERO PUSH2 0x826 JUMPI PUSH1 0x0 DUP1 REVERT JUMPDEST DUP2 ADD SWAP1 DUP1 DUP1 CALLDATALOAD PUSH20 0xFFFFFFFFFFFFFFFFFFFFFFFFFFFFFFFFFFFFFFFF AND SWAP1 PUSH1 0x20 ADD SWAP1 SWAP3 SWAP2 SWAP1 DUP1 CALLDATALOAD PUSH20 0xFFFFFFFFFFFFFFFFFFFFFFFFFFFFFFFFFFFFFFFF AND SWAP1 PUSH1 0x20 ADD SWAP1 SWAP3 SWAP2 SWAP1 POP POP POP PUSH2 0x1FBC JUMP JUMPDEST PUSH1 0x40 MLOAD DUP1 DUP3 DUP2 MSTORE PUSH1 0x20 ADD SWAP2 POP POP PUSH1 0x40 MLOAD DUP1 SWAP2 SUB SWAP1 RETURN JUMPDEST PUSH2 0x890 PUSH2 0x1FE1 JUMP JUMPDEST STOP JUMPDEST PUSH1 0x0 DUP6 GT DUP1 PUSH2 0x8A1 JUMPI POP PUSH1 0x0 DUP5 GT JUMPDEST PUSH2 0x8F6 JUMPI PUSH1 0x40 MLOAD PUSH32 0x8C379A000000000000000000000000000000000000000000000000000000000 DUP2 MSTORE PUSH1 0x4 ADD DUP1 DUP1 PUSH1 0x20 ADD DUP3 DUP2 SUB DUP3 MSTORE PUSH1 0x25 DUP2 MSTORE PUSH1 0x20 ADD DUP1 PUSH2 0x3078 PUSH1 0x25 SWAP2 CODECOPY PUSH1 0x40 ADD SWAP2 POP POP PUSH1 0x40 MLOAD DUP1 SWAP2 SUB SWAP1 REVERT JUMPDEST PUSH1 0x0 DUP1 PUSH2 0x901 PUSH2 0xFEE JUMP JUMPDEST POP SWAP2 POP SWAP2 POP DUP2 PUSH14 0xFFFFFFFFFFFFFFFFFFFFFFFFFFFF AND DUP8 LT DUP1 ISZERO PUSH2 0x934 JUMPI POP DUP1 PUSH14 0xFFFFFFFFFFFFFFFFFFFFFFFFFFFF AND DUP7 LT JUMPDEST PUSH2 0x989 JUMPI PUSH1 0x40 MLOAD PUSH32 0x8C379A000000000000000000000000000000000000000000000000000000000 DUP2 MSTORE PUSH1 0x4 ADD DUP1 DUP1 PUSH1 0x20 ADD DUP3 DUP2 SUB DUP3 MSTORE PUSH1 0x21 DUP2 MSTORE PUSH1 0x20 ADD DUP1 PUSH2 0x30C1 PUSH1 0x21 SWAP2 CODECOPY PUSH1 0x40 ADD SWAP2 POP POP PUSH1 0x40 MLOAD DUP1 SWAP2 SUB SWAP1 REVERT JUMPDEST PUSH1 0x0 DUP1 PUSH1 0x0 PUSH1 0x5 PUSH1 0x0 SWAP1 SLOAD SWAP1 PUSH2 0x100 EXP SWAP1 DIV PUSH20 0xFFFFFFFFFFFFFFFFFFFFFFFFFFFFFFFFFFFFFFFF AND SWAP1 POP PUSH1 0x0 PUSH1 0x6 PUSH1 0x0 SWAP1 SLOAD SWAP1 PUSH2 0x100 EXP SWAP1 DIV PUSH20 0xFFFFFFFFFFFFFFFFFFFFFFFFFFFFFFFFFFFFFFFF AND SWAP1 POP DUP2 PUSH20 0xFFFFFFFFFFFFFFFFFFFFFFFFFFFFFFFFFFFFFFFF AND DUP10 PUSH20 0xFFFFFFFFFFFFFFFFFFFFFFFFFFFFFFFFFFFFFFFF AND EQ ISZERO DUP1 ISZERO PUSH2 0xA42 JUMPI POP DUP1 PUSH20 0xFFFFFFFFFFFFFFFFFFFFFFFFFFFFFFFFFFFFFFFF AND DUP10 PUSH20 0xFFFFFFFFFFFFFFFFFFFFFFFFFFFFFFFFFFFFFFFF AND EQ ISZERO JUMPDEST PUSH2 0xAB4 JUMPI PUSH1 0x40 MLOAD PUSH32 0x8C379A000000000000000000000000000000000000000000000000000000000 DUP2 MSTORE PUSH1 0x4 ADD DUP1 DUP1 PUSH1 0x20 ADD DUP3 DUP2 SUB DUP3 MSTORE PUSH1 0x15 DUP2 MSTORE PUSH1 0x20 ADD DUP1 PUSH32 0x556E697377617056323A20494E56414C49445F544F0000000000000000000000 DUP2 MSTORE POP PUSH1 0x20 ADD SWAP2 POP POP PUSH1 0x40 MLOAD DUP1 SWAP2 SUB SWAP1 REVERT JUMPDEST PUSH1 0x0 DUP12 GT ISZERO PUSH2 0xAC9 JUMPI PUSH2 0xAC8 DUP3 DUP11 DUP14 PUSH2 0x21AD JUMP JUMPDEST JUMPDEST PUSH1 0x0 DUP11 GT ISZERO PUSH2 0xADE JUMPI PUSH2 0xADD DUP2 DUP11 DUP13 PUSH2 0x21AD JUMP JUMPDEST JUMPDEST PUSH1 0x0 DUP9 DUP9 SWAP1 POP GT ISZERO PUSH2 0xBB0 JUMPI DUP9 PUSH20 0xFFFFFFFFFFFFFFFFFFFFFFFFFFFFFFFFFFFFFFFF AND PUSH4 0x10D1E85C CALLER DUP14 DUP14 DUP13 DUP13 PUSH1 0x40 MLOAD DUP7 PUSH4 0xFFFFFFFF AND PUSH1 0xE0 SHL DUP2 MSTORE PUSH1 0x4 ADD DUP1 DUP7 PUSH20 0xFFFFFFFFFFFFFFFFFFFFFFFFFFFFFFFFFFFFFFFF AND DUP2 MSTORE PUSH1 0x20 ADD DUP6 DUP2 MSTORE PUSH1 0x20 ADD DUP5 DUP2 MSTORE PUSH1 0x20 ADD DUP1 PUSH1 0x20 ADD DUP3 DUP2 SUB DUP3 MSTORE DUP5 DUP5 DUP3 DUP2 DUP2 MSTORE PUSH1 0x20 ADD SWAP3 POP DUP1 DUP3 DUP5 CALLDATACOPY PUSH1 0x0 DUP2 DUP5 ADD MSTORE PUSH1 0x1F NOT PUSH1 0x1F DUP3 ADD AND SWAP1 POP DUP1 DUP4 ADD SWAP3 POP POP POP SWAP7 POP POP POP POP POP POP POP PUSH1 0x0 PUSH1 0x40 MLOAD DUP1 DUP4 SUB DUP2 PUSH1 0x0 DUP8 DUP1 EXTCODESIZE ISZERO DUP1 ISZERO PUSH2 0xB97 JUMPI PUSH1 0x0 DUP1 REVERT JUMPDEST POP GAS CALL ISZERO DUP1 ISZERO PUSH2 0xBAB JUMPI RETURNDATASIZE PUSH1 0x0 DUP1 RETURNDATACOPY RETURNDATASIZE PUSH1 0x0 REVERT JUMPDEST POP POP POP POP JUMPDEST DUP2 PUSH20 0xFFFFFFFFFFFFFFFFFFFFFFFFFFFFFFFFFFFFFFFF AND PUSH4 0x70A08231 ADDRESS PUSH1 0x40 MLOAD DUP3 PUSH4 0xFFFFFFFF AND PUSH1 0xE0 SHL DUP2 MSTORE PUSH1 0x4 ADD DUP1 DUP3 PUSH20 0xFFFFFFFFFFFFFFFFFFFFFFFFFFFFFFFFFFFFFFFF AND DUP2 MSTORE PUSH1 0x20 ADD SWAP2 POP POP PUSH1 0x20 PUSH1 0x40 MLOAD DUP1 DUP4 SUB DUP2 DUP7 DUP1 EXTCODESIZE ISZERO DUP1 ISZERO PUSH2 0xC17 JUMPI PUSH1 0x0 DUP1 REVERT JUMPDEST POP GAS STATICCALL ISZERO DUP1 ISZERO PUSH2 0xC2B JUMPI RETURNDATASIZE PUSH1 0x0 DUP1 RETURNDATACOPY RETURNDATASIZE PUSH1 0x0 REVERT JUMPDEST POP POP POP POP PUSH1 0x40 MLOAD RETURNDATASIZE PUSH1 0x20 DUP2 LT ISZERO PUSH2 0xC41 JUMPI PUSH1 0x0 DUP1 REVERT JUMPDEST DUP2 ADD SWAP1 DUP1 DUP1 MLOAD SWAP1 PUSH1 0x20 ADD SWAP1 SWAP3 SWAP2 SWAP1 POP POP POP SWAP4 POP DUP1 PUSH20 0xFFFFFFFFFFFFFFFFFFFFFFFFFFFFFFFFFFFFFFFF AND PUSH4 0x70A08231 ADDRESS PUSH1 0x40 MLOAD DUP3 PUSH4 0xFFFFFFFF AND PUSH1 0xE0 SHL DUP2 MSTORE PUSH1 0x4 ADD DUP1 DUP3 PUSH20 0xFFFFFFFFFFFFFFFFFFFFFFFFFFFFFFFFFFFFFFFF AND DUP2 MSTORE PUSH1 0x20 ADD SWAP2 POP POP PUSH1 0x20 PUSH1 0x40 MLOAD DUP1 DUP4 SUB DUP2 DUP7 DUP1 EXTCODESIZE ISZERO DUP1 ISZERO PUSH2 0xCBB JUMPI PUSH1 0x0 DUP1 REVERT JUMPDEST POP GAS STATICCALL ISZERO DUP1 ISZERO PUSH2 0xCCF JUMPI RETURNDATASIZE PUSH1 0x0 DUP1 RETURNDATACOPY RETURNDATASIZE PUSH1 0x0 REVERT JUMPDEST POP POP POP POP PUSH1 0x40 MLOAD RETURNDATASIZE PUSH1 0x20 DUP2 LT ISZERO PUSH2 0xCE5 JUMPI PUSH1 0x0 DUP1 REVERT JUMPDEST DUP2 ADD SWAP1 DUP1 DUP1 MLOAD SWAP1 PUSH1 0x20 ADD SWAP1 SWAP3 SWAP2 SWAP1 POP POP POP SWAP3 POP POP POP PUSH1 0x0 DUP10 DUP6 PUSH14 0xFFFFFFFFFFFFFFFFFFFFFFFFFFFF AND SUB DUP4 GT PUSH2 0xD1C JUMPI PUSH1 0x0 PUSH2 0xD32 JUMP JUMPDEST DUP10 DUP6 PUSH14 0xFFFFFFFFFFFFFFFFFFFFFFFFFFFF AND SUB DUP4 SUB JUMPDEST SWAP1 POP PUSH1 0x0 DUP10 DUP6 PUSH14 0xFFFFFFFFFFFFFFFFFFFFFFFFFFFF AND SUB DUP4 GT PUSH2 0xD56 JUMPI PUSH1 0x0 PUSH2 0xD6C JUMP JUMPDEST DUP10 DUP6 PUSH14 0xFFFFFFFFFFFFFFFFFFFFFFFFFFFF AND SUB DUP4 SUB JUMPDEST SWAP1 POP PUSH1 0x0 DUP3 GT DUP1 PUSH2 0xD7D JUMPI POP PUSH1 0x0 DUP2 GT JUMPDEST PUSH2 0xDD2 JUMPI PUSH1 0x40 MLOAD PUSH32 0x8C379A000000000000000000000000000000000000000000000000000000000 DUP2 MSTORE PUSH1 0x4 ADD DUP1 DUP1 PUSH1 0x20 ADD DUP3 DUP2 SUB DUP3 MSTORE PUSH1 0x24 DUP2 MSTORE PUSH1 0x20 ADD DUP1 PUSH2 0x309D PUSH1 0x24 SWAP2 CODECOPY PUSH1 0x40 ADD SWAP2 POP POP PUSH1 0x40 MLOAD DUP1 SWAP2 SUB SWAP1 REVERT JUMPDEST PUSH1 0x0 PUSH2 0xE0E PUSH2 0xDEB PUSH1 0x3 DUP6 PUSH2 0x23E4 SWAP1 SWAP2 SWAP1 PUSH4 0xFFFFFFFF AND JUMP JUMPDEST PUSH2 0xE00 PUSH2 0x3E8 DUP9 PUSH2 0x23E4 SWAP1 SWAP2 SWAP1 PUSH4 0xFFFFFFFF AND JUMP JUMPDEST PUSH2 0x2479 SWAP1 SWAP2 SWAP1 PUSH4 0xFFFFFFFF AND JUMP JUMPDEST SWAP1 POP PUSH1 0x0 PUSH2 0xE4C PUSH2 0xE29 PUSH1 0x3 DUP6 PUSH2 0x23E4 SWAP1 SWAP2 SWAP1 PUSH4 0xFFFFFFFF AND JUMP JUMPDEST PUSH2 0xE3E PUSH2 0x3E8 DUP9 PUSH2 0x23E4 SWAP1 SWAP2 SWAP1 PUSH4 0xFFFFFFFF AND JUMP JUMPDEST PUSH2 0x2479 SWAP1 SWAP2 SWAP1 PUSH4 0xFFFFFFFF AND JUMP JUMPDEST SWAP1 POP PUSH2 0xE96 PUSH3 0xF4240 PUSH2 0xE88 DUP10 PUSH14 0xFFFFFFFFFFFFFFFFFFFFFFFFFFFF AND DUP12 PUSH14 0xFFFFFFFFFFFFFFFFFFFFFFFFFFFF AND PUSH2 0x23E4 SWAP1 SWAP2 SWAP1 PUSH4 0xFFFFFFFF AND JUMP JUMPDEST PUSH2 0x23E4 SWAP1 SWAP2 SWAP1 PUSH4 0xFFFFFFFF AND JUMP JUMPDEST PUSH2 0xEA9 DUP3 DUP5 PUSH2 0x23E4 SWAP1 SWAP2 SWAP1 PUSH4 0xFFFFFFFF AND JUMP JUMPDEST LT ISZERO PUSH2 0xF1D JUMPI PUSH1 0x40 MLOAD PUSH32 0x8C379A000000000000000000000000000000000000000000000000000000000 DUP2 MSTORE PUSH1 0x4 ADD DUP1 DUP1 PUSH1 0x20 ADD DUP3 DUP2 SUB DUP3 MSTORE PUSH1 0xC DUP2 MSTORE PUSH1 0x20 ADD DUP1 PUSH32 0x556E697377617056323A204B0000000000000000000000000000000000000000 DUP2 MSTORE POP PUSH1 0x20 ADD SWAP2 POP POP PUSH1 0x40 MLOAD DUP1 SWAP2 SUB SWAP1 REVERT JUMPDEST POP POP PUSH2 0xF2B DUP5 DUP5 DUP9 DUP9 PUSH2 0x24FC JUMP JUMPDEST DUP9 PUSH20 0xFFFFFFFFFFFFFFFFFFFFFFFFFFFFFFFFFFFFFFFF AND CALLER PUSH20 0xFFFFFFFFFFFFFFFFFFFFFFFFFFFFFFFFFFFFFFFF AND PUSH32 0xD78AD95FA46C994B6551D0DA85FC275FE613CE37657FB8D5E3D130840159D822 DUP5 DUP5 DUP16 DUP16 PUSH1 0x40 MLOAD DUP1 DUP6 DUP2 MSTORE PUSH1 0x20 ADD DUP5 DUP2 MSTORE PUSH1 0x20 ADD DUP4 DUP2 MSTORE PUSH1 0x20 ADD DUP3 DUP2 MSTORE PUSH1 0x20 ADD SWAP5 POP POP POP POP POP PUSH1 0x40 MLOAD DUP1 SWAP2 SUB SWAP1 LOG3 POP POP POP POP POP POP POP POP POP POP POP JUMP JUMPDEST PUSH1 0x40 MLOAD DUP1 PUSH1 0x40 ADD PUSH1 0x40 MSTORE DUP1 PUSH1 0xA DUP2 MSTORE PUSH1 0x20 ADD PUSH32 0x556E697377617020563200000000000000000000000000000000000000000000 DUP2 MSTORE POP DUP2 JUMP JUMPDEST PUSH1 0x0 DUP1 PUSH1 0x0 PUSH1 0x7 PUSH1 0x0 SWAP1 SLOAD SWAP1 PUSH2 0x100 EXP SWAP1 DIV PUSH14 0xFFFFFFFFFFFFFFFFFFFFFFFFFFFF AND SWAP3 POP PUSH1 0x7 PUSH1 0xE SWAP1 SLOAD SWAP1 PUSH2 0x100 EXP SWAP1 DIV PUSH14 0xFFFFFFFFFFFFFFFFFFFFFFFFFFFF AND SWAP2 POP PUSH1 0x7 PUSH1 0x1C SWAP1 SLOAD SWAP1 PUSH2 0x100 EXP SWAP1 DIV PUSH4 0xFFFFFFFF AND SWAP1 POP SWAP1 SWAP2 SWAP3 JUMP JUMPDEST PUSH1 0x0 PUSH2 0x1058 CALLER DUP5 DUP5 PUSH2 0x285A JUMP JUMPDEST PUSH1 0x1 SWAP1 POP SWAP3 SWAP2 POP POP JUMP JUMPDEST PUSH1 0x5 PUSH1 0x0 SWAP1 SLOAD SWAP1 PUSH2 0x100 EXP SWAP1 DIV PUSH20 0xFFFFFFFFFFFFFFFFFFFFFFFFFFFFFFFFFFFFFFFF AND DUP2 JUMP JUMPDEST PUSH1 0x0 SLOAD DUP2 JUMP JUMPDEST PUSH1 0x0 PUSH32 0xFFFFFFFFFFFFFFFFFFFFFFFFFFFFFFFFFFFFFFFFFFFFFFFFFFFFFFFFFFFFFFFF PUSH1 0x2 PUSH1 0x0 DUP7 PUSH20 0xFFFFFFFFFFFFFFFFFFFFFFFFFFFFFFFFFFFFFFFF AND PUSH20 0xFFFFFFFFFFFFFFFFFFFFFFFFFFFFFFFFFFFFFFFF AND DUP2 MSTORE PUSH1 0x20 ADD SWAP1 DUP2 MSTORE PUSH1 0x20 ADD PUSH1 0x0 KECCAK256 PUSH1 0x0 CALLER PUSH20 0xFFFFFFFFFFFFFFFFFFFFFFFFFFFFFFFFFFFFFFFF AND PUSH20 0xFFFFFFFFFFFFFFFFFFFFFFFFFFFFFFFFFFFFFFFF AND DUP2 MSTORE PUSH1 0x20 ADD SWAP1 DUP2 MSTORE PUSH1 0x20 ADD PUSH1 0x0 KECCAK256 SLOAD EQ PUSH2 0x1243 JUMPI PUSH2 0x11C2 DUP3 PUSH1 0x2 PUSH1 0x0 DUP8 PUSH20 0xFFFFFFFFFFFFFFFFFFFFFFFFFFFFFFFFFFFFFFFF AND PUSH20 0xFFFFFFFFFFFFFFFFFFFFFFFFFFFFFFFFFFFFFFFF AND DUP2 MSTORE PUSH1 0x20 ADD SWAP1 DUP2 MSTORE PUSH1 0x20 ADD PUSH1 0x0 KECCAK256 PUSH1 0x0 CALLER PUSH20 0xFFFFFFFFFFFFFFFFFFFFFFFFFFFFFFFFFFFFFFFF AND PUSH20 0xFFFFFFFFFFFFFFFFFFFFFFFFFFFFFFFFFFFFFFFF AND DUP2 MSTORE PUSH1 0x20 ADD SWAP1 DUP2 MSTORE PUSH1 0x20 ADD PUSH1 0x0 KECCAK256 SLOAD PUSH2 0x2479 SWAP1 SWAP2 SWAP1 PUSH4 0xFFFFFFFF AND JUMP JUMPDEST PUSH1 0x2 PUSH1 0x0 DUP7 PUSH20 0xFFFFFFFFFFFFFFFFFFFFFFFFFFFFFFFFFFFFFFFF AND PUSH20 0xFFFFFFFFFFFFFFFFFFFFFFFFFFFFFFFFFFFFFFFF AND DUP2 MSTORE PUSH1 0x20 ADD SWAP1 DUP2 MSTORE PUSH1 0x20 ADD PUSH1 0x0 KECCAK256 PUSH1 0x0 CALLER PUSH20 0xFFFFFFFFFFFFFFFFFFFFFFFFFFFFFFFFFFFFFFFF AND PUSH20 0xFFFFFFFFFFFFFFFFFFFFFFFFFFFFFFFFFFFFFFFF AND DUP2 MSTORE PUSH1 0x20 ADD SWAP1 DUP2 MSTORE PUSH1 0x20 ADD PUSH1 0x0 KECCAK256 DUP2 SWAP1 SSTORE POP JUMPDEST PUSH2 0x124E DUP5 DUP5 DUP5 PUSH2 0x2945 JUMP JUMPDEST PUSH1 0x1 SWAP1 POP SWAP4 SWAP3 POP POP POP JUMP JUMPDEST PUSH1 0x12 DUP2 JUMP JUMPDEST PUSH1 0x4 PUSH1 0x0 SWAP1 SLOAD SWAP1 PUSH2 0x100 EXP SWAP1 DIV PUSH20 0xFFFFFFFFFFFFFFFFFFFFFFFFFFFFFFFFFFFFFFFF AND PUSH20 0xFFFFFFFFFFFFFFFFFFFFFFFFFFFFFFFFFFFFFFFF AND CALLER PUSH20 0xFFFFFFFFFFFFFFFFFFFFFFFFFFFFFFFFFFFFFFFF AND EQ PUSH2 0x1321 JUMPI PUSH1 0x40 MLOAD PUSH32 0x8C379A000000000000000000000000000000000000000000000000000000000 DUP2 MSTORE PUSH1 0x4 ADD DUP1 DUP1 PUSH1 0x20 ADD DUP3 DUP2 SUB DUP3 MSTORE PUSH1 0x14 DUP2 MSTORE PUSH1 0x20 ADD DUP1 PUSH32 0x556E697377617056323A20464F5242494444454E000000000000000000000000 DUP2 MSTORE POP PUSH1 0x20 ADD SWAP2 POP POP PUSH1 0x40 MLOAD DUP1 SWAP2 SUB SWAP1 REVERT JUMPDEST DUP2 PUSH1 0x5 PUSH1 0x0 PUSH2 0x100 EXP DUP2 SLOAD DUP2 PUSH20 0xFFFFFFFFFFFFFFFFFFFFFFFFFFFFFFFFFFFFFFFF MUL NOT AND SWAP1 DUP4 PUSH20 0xFFFFFFFFFFFFFFFFFFFFFFFFFFFFFFFFFFFFFFFF AND MUL OR SWAP1 SSTORE POP DUP1 PUSH1 0x6 PUSH1 0x0 PUSH2 0x100 EXP DUP2 SLOAD DUP2 PUSH20 0xFFFFFFFFFFFFFFFFFFFFFFFFFFFFFFFFFFFFFFFF MUL NOT AND SWAP1 DUP4 PUSH20 0xFFFFFFFFFFFFFFFFFFFFFFFFFFFFFFFFFFFFFFFF AND MUL OR SWAP1 SSTORE POP POP POP JUMP JUMPDEST PUSH1 0x8 SLOAD DUP2 JUMP JUMPDEST PUSH1 0x9 SLOAD DUP2 JUMP JUMPDEST PUSH1 0x0 DUP1 PUSH1 0x0 PUSH2 0x13C0 PUSH2 0xFEE JUMP JUMPDEST POP SWAP2 POP SWAP2 POP PUSH1 0x0 PUSH1 0x5 PUSH1 0x0 SWAP1 SLOAD SWAP1 PUSH2 0x100 EXP SWAP1 DIV PUSH20 0xFFFFFFFFFFFFFFFFFFFFFFFFFFFFFFFFFFFFFFFF AND PUSH20 0xFFFFFFFFFFFFFFFFFFFFFFFFFFFFFFFFFFFFFFFF AND PUSH4 0x70A08231 ADDRESS PUSH1 0x40 MLOAD DUP3 PUSH4 0xFFFFFFFF AND PUSH1 0xE0 SHL DUP2 MSTORE PUSH1 0x4 ADD DUP1 DUP3 PUSH20 0xFFFFFFFFFFFFFFFFFFFFFFFFFFFFFFFFFFFFFFFF AND DUP2 MSTORE PUSH1 0x20 ADD SWAP2 POP POP PUSH1 0x20 PUSH1 0x40 MLOAD DUP1 DUP4 SUB DUP2 DUP7 DUP1 EXTCODESIZE ISZERO DUP1 ISZERO PUSH2 0x1450 JUMPI PUSH1 0x0 DUP1 REVERT JUMPDEST POP GAS STATICCALL ISZERO DUP1 ISZERO PUSH2 0x1464 JUMPI RETURNDATASIZE PUSH1 0x0 DUP1 RETURNDATACOPY RETURNDATASIZE PUSH1 0x0 REVERT JUMPDEST POP POP POP POP PUSH1 0x40 MLOAD RETURNDATASIZE PUSH1 0x20 DUP2 LT ISZERO PUSH2 0x147A JUMPI PUSH1 0x0 DUP1 REVERT JUMPDEST DUP2 ADD SWAP1 DUP1 DUP1 MLOAD SWAP1 PUSH1 0x20 ADD SWAP1 SWAP3 SWAP2 SWAP1 POP POP POP SWAP1 POP PUSH1 0x0 PUSH1 0x6 PUSH1 0x0 SWAP1 SLOAD SWAP1 PUSH2 0x100 EXP SWAP1 DIV PUSH20 0xFFFFFFFFFFFFFFFFFFFFFFFFFFFFFFFFFFFFFFFF AND PUSH20 0xFFFFFFFFFFFFFFFFFFFFFFFFFFFFFFFFFFFFFFFF AND PUSH4 0x70A08231 ADDRESS PUSH1 0x40 MLOAD DUP3 PUSH4 0xFFFFFFFF AND PUSH1 0xE0 SHL DUP2 MSTORE PUSH1 0x4 ADD DUP1 DUP3 PUSH20 0xFFFFFFFFFFFFFFFFFFFFFFFFFFFFFFFFFFFFFFFF AND DUP2 MSTORE PUSH1 0x20 ADD SWAP2 POP POP PUSH1 0x20 PUSH1 0x40 MLOAD DUP1 DUP4 SUB DUP2 DUP7 DUP1 EXTCODESIZE ISZERO DUP1 ISZERO PUSH2 0x1518 JUMPI PUSH1 0x0 DUP1 REVERT JUMPDEST POP GAS STATICCALL ISZERO DUP1 ISZERO PUSH2 0x152C JUMPI RETURNDATASIZE PUSH1 0x0 DUP1 RETURNDATACOPY RETURNDATASIZE PUSH1 0x0 REVERT JUMPDEST POP POP POP POP PUSH1 0x40 MLOAD RETURNDATASIZE PUSH1 0x20 DUP2 LT ISZERO PUSH2 0x1542 JUMPI PUSH1 0x0 DUP1 REVERT JUMPDEST DUP2 ADD SWAP1 DUP1 DUP1 MLOAD SWAP1 PUSH1 0x20 ADD SWAP1 SWAP3 SWAP2 SWAP1 POP POP POP SWAP1 POP PUSH1 0x0 PUSH2 0x157A DUP6 PUSH14 0xFFFFFFFFFFFFFFFFFFFFFFFFFFFF AND DUP5 PUSH2 0x2479 SWAP1 SWAP2 SWAP1 PUSH4 0xFFFFFFFF AND JUMP JUMPDEST SWAP1 POP PUSH1 0x0 PUSH2 0x15A1 DUP6 PUSH14 0xFFFFFFFFFFFFFFFFFFFFFFFFFFFF AND DUP5 PUSH2 0x2479 SWAP1 SWAP2 SWAP1 PUSH4 0xFFFFFFFF AND JUMP JUMPDEST SWAP1 POP PUSH1 0x0 PUSH2 0x15AF DUP8 DUP8 PUSH2 0x2AD9 JUMP JUMPDEST SWAP1 POP PUSH1 0x0 DUP1 SLOAD SWAP1 POP PUSH1 0x0 DUP2 EQ ISZERO PUSH2 0x1603 JUMPI PUSH2 0x15EF PUSH2 0x3E8 PUSH2 0x15E1 PUSH2 0x15DC DUP7 DUP9 PUSH2 0x23E4 SWAP1 SWAP2 SWAP1 PUSH4 0xFFFFFFFF AND JUMP JUMPDEST PUSH2 0x2CBA JUMP JUMPDEST PUSH2 0x2479 SWAP1 SWAP2 SWAP1 PUSH4 0xFFFFFFFF AND JUMP JUMPDEST SWAP9 POP PUSH2 0x15FE PUSH1 0x0 PUSH2 0x3E8 PUSH2 0x2D1C JUMP JUMPDEST PUSH2 0x1666 JUMP JUMPDEST PUSH2 0x1663 DUP9 PUSH14 0xFFFFFFFFFFFFFFFFFFFFFFFFFFFF AND PUSH2 0x162A DUP4 DUP8 PUSH2 0x23E4 SWAP1 SWAP2 SWAP1 PUSH4 0xFFFFFFFF AND JUMP JUMPDEST DUP2 PUSH2 0x1631 JUMPI INVALID JUMPDEST DIV DUP9 PUSH14 0xFFFFFFFFFFFFFFFFFFFFFFFFFFFF AND PUSH2 0x1656 DUP5 DUP8 PUSH2 0x23E4 SWAP1 SWAP2 SWAP1 PUSH4 0xFFFFFFFF AND JUMP JUMPDEST DUP2 PUSH2 0x165D JUMPI INVALID JUMPDEST DIV PUSH2 0x2E36 JUMP JUMPDEST SWAP9 POP JUMPDEST PUSH1 0x0 DUP10 GT PUSH2 0x16BF JUMPI PUSH1 0x40 MLOAD PUSH32 0x8C379A000000000000000000000000000000000000000000000000000000000 DUP2 MSTORE PUSH1 0x4 ADD DUP1 DUP1 PUSH1 0x20 ADD DUP3 DUP2 SUB DUP3 MSTORE PUSH1 0x28 DUP2 MSTORE PUSH1 0x20 ADD DUP1 PUSH2 0x310A PUSH1 0x28 SWAP2 CODECOPY PUSH1 0x40 ADD SWAP2 POP POP PUSH1 0x40 MLOAD DUP1 SWAP2 SUB SWAP1 REVERT JUMPDEST PUSH2 0x16C9 DUP11 DUP11 PUSH2 0x2D1C JUMP JUMPDEST PUSH2 0x16D5 DUP7 DUP7 DUP11 DUP11 PUSH2 0x24FC JUMP JUMPDEST DUP2 ISZERO PUSH2 0x174D JUMPI PUSH2 0x1746 PUSH1 0x7 PUSH1 0xE SWAP1 SLOAD SWAP1 PUSH2 0x100 EXP SWAP1 DIV PUSH14 0xFFFFFFFFFFFFFFFFFFFFFFFFFFFF AND PUSH14 0xFFFFFFFFFFFFFFFFFFFFFFFFFFFF AND PUSH1 0x7 PUSH1 0x0 SWAP1 SLOAD SWAP1 PUSH2 0x100 EXP SWAP1 DIV PUSH14 0xFFFFFFFFFFFFFFFFFFFFFFFFFFFF AND PUSH14 0xFFFFFFFFFFFFFFFFFFFFFFFFFFFF AND PUSH2 0x23E4 SWAP1 SWAP2 SWAP1 PUSH4 0xFFFFFFFF AND JUMP JUMPDEST PUSH1 0xA DUP2 SWAP1 SSTORE POP JUMPDEST CALLER PUSH20 0xFFFFFFFFFFFFFFFFFFFFFFFFFFFFFFFFFFFFFFFF AND PUSH32 0x4C209B5FC8AD50758F13E2E1088BA56A560DFF690A1C6FEF26394F4C03821C4F DUP6 DUP6 PUSH1 0x40 MLOAD DUP1 DUP4 DUP2 MSTORE PUSH1 0x20 ADD DUP3 DUP2 MSTORE PUSH1 0x20 ADD SWAP3 POP POP POP PUSH1 0x40 MLOAD DUP1 SWAP2 SUB SWAP1 LOG2 POP POP POP POP POP POP POP POP SWAP2 SWAP1 POP JUMP JUMPDEST PUSH1 0x1 PUSH1 0x20 MSTORE DUP1 PUSH1 0x0 MSTORE PUSH1 0x40 PUSH1 0x0 KECCAK256 PUSH1 0x0 SWAP2 POP SWAP1 POP SLOAD DUP2 JUMP JUMPDEST PUSH1 0xA SLOAD DUP2 JUMP JUMPDEST PUSH1 0x3 PUSH1 0x20 MSTORE DUP1 PUSH1 0x0 MSTORE PUSH1 0x40 PUSH1 0x0 KECCAK256 PUSH1 0x0 SWAP2 POP SWAP1 POP SLOAD DUP2 JUMP JUMPDEST PUSH1 0x0 DUP1 PUSH1 0x0 DUP1 PUSH2 0x17F4 PUSH2 0xFEE JUMP JUMPDEST POP SWAP2 POP SWAP2 POP PUSH1 0x0 PUSH1 0x5 PUSH1 0x0 SWAP1 SLOAD SWAP1 PUSH2 0x100 EXP SWAP1 DIV PUSH20 0xFFFFFFFFFFFFFFFFFFFFFFFFFFFFFFFFFFFFFFFF AND SWAP1 POP PUSH1 0x0 PUSH1 0x6 PUSH1 0x0 SWAP1 SLOAD SWAP1 PUSH2 0x100 EXP SWAP1 DIV PUSH20 0xFFFFFFFFFFFFFFFFFFFFFFFFFFFFFFFFFFFFFFFF AND SWAP1 POP PUSH1 0x0 DUP3 PUSH20 0xFFFFFFFFFFFFFFFFFFFFFFFFFFFFFFFFFFFFFFFF AND PUSH4 0x70A08231 ADDRESS PUSH1 0x40 MLOAD DUP3 PUSH4 0xFFFFFFFF AND PUSH1 0xE0 SHL DUP2 MSTORE PUSH1 0x4 ADD DUP1 DUP3 PUSH20 0xFFFFFFFFFFFFFFFFFFFFFFFFFFFFFFFFFFFFFFFF AND DUP2 MSTORE PUSH1 0x20 ADD SWAP2 POP POP PUSH1 0x20 PUSH1 0x40 MLOAD DUP1 DUP4 SUB DUP2 DUP7 DUP1 EXTCODESIZE ISZERO DUP1 ISZERO PUSH2 0x18B0 JUMPI PUSH1 0x0 DUP1 REVERT JUMPDEST POP GAS STATICCALL ISZERO DUP1 ISZERO PUSH2 0x18C4 JUMPI RETURNDATASIZE PUSH1 0x0 DUP1 RETURNDATACOPY RETURNDATASIZE PUSH1 0x0 REVERT JUMPDEST POP POP POP POP PUSH1 0x40 MLOAD RETURNDATASIZE PUSH1 0x20 DUP2 LT ISZERO PUSH2 0x18DA JUMPI PUSH1 0x0 DUP1 REVERT JUMPDEST DUP2 ADD SWAP1 DUP1 DUP1 MLOAD SWAP1 PUSH1 0x20 ADD SWAP1 SWAP3 SWAP2 SWAP1 POP POP POP SWAP1 POP PUSH1 0x0 DUP3 PUSH20 0xFFFFFFFFFFFFFFFFFFFFFFFFFFFFFFFFFFFFFFFF AND PUSH4 0x70A08231 ADDRESS PUSH1 0x40 MLOAD DUP3 PUSH4 0xFFFFFFFF AND PUSH1 0xE0 SHL DUP2 MSTORE PUSH1 0x4 ADD DUP1 DUP3 PUSH20 0xFFFFFFFFFFFFFFFFFFFFFFFFFFFFFFFFFFFFFFFF AND DUP2 MSTORE PUSH1 0x20 ADD SWAP2 POP POP PUSH1 0x20 PUSH1 0x40 MLOAD DUP1 DUP4 SUB DUP2 DUP7 DUP1 EXTCODESIZE ISZERO DUP1 ISZERO PUSH2 0x1956 JUMPI PUSH1 0x0 DUP1 REVERT JUMPDEST POP GAS STATICCALL ISZERO DUP1 ISZERO PUSH2 0x196A JUMPI RETURNDATASIZE PUSH1 0x0 DUP1 RETURNDATACOPY RETURNDATASIZE PUSH1 0x0 REVERT JUMPDEST POP POP POP POP PUSH1 0x40 MLOAD RETURNDATASIZE PUSH1 0x20 DUP2 LT ISZERO PUSH2 0x1980 JUMPI PUSH1 0x0 DUP1 REVERT JUMPDEST DUP2 ADD SWAP1 DUP1 DUP1 MLOAD SWAP1 PUSH1 0x20 ADD SWAP1 SWAP3 SWAP2 SWAP1 POP POP POP SWAP1 POP PUSH1 0x0 PUSH1 0x1 PUSH1 0x0 ADDRESS PUSH20 0xFFFFFFFFFFFFFFFFFFFFFFFFFFFFFFFFFFFFFFFF AND PUSH20 0xFFFFFFFFFFFFFFFFFFFFFFFFFFFFFFFFFFFFFFFF AND DUP2 MSTORE PUSH1 0x20 ADD SWAP1 DUP2 MSTORE PUSH1 0x20 ADD PUSH1 0x0 KECCAK256 SLOAD SWAP1 POP PUSH1 0x0 PUSH2 0x19E3 DUP9 DUP9 PUSH2 0x2AD9 JUMP JUMPDEST SWAP1 POP PUSH1 0x0 DUP1 SLOAD SWAP1 POP DUP1 PUSH2 0x19FF DUP7 DUP6 PUSH2 0x23E4 SWAP1 SWAP2 SWAP1 PUSH4 0xFFFFFFFF AND JUMP JUMPDEST DUP2 PUSH2 0x1A06 JUMPI INVALID JUMPDEST DIV SWAP11 POP DUP1 PUSH2 0x1A1D DUP6 DUP6 PUSH2 0x23E4 SWAP1 SWAP2 SWAP1 PUSH4 0xFFFFFFFF AND JUMP JUMPDEST DUP2 PUSH2 0x1A24 JUMPI INVALID JUMPDEST DIV SWAP10 POP PUSH1 0x0 DUP12 GT DUP1 ISZERO PUSH2 0x1A37 JUMPI POP PUSH1 0x0 DUP11 GT JUMPDEST PUSH2 0x1A8C JUMPI PUSH1 0x40 MLOAD PUSH32 0x8C379A000000000000000000000000000000000000000000000000000000000 DUP2 MSTORE PUSH1 0x4 ADD DUP1 DUP1 PUSH1 0x20 ADD DUP3 DUP2 SUB DUP3 MSTORE PUSH1 0x28 DUP2 MSTORE PUSH1 0x20 ADD DUP1 PUSH2 0x30E2 PUSH1 0x28 SWAP2 CODECOPY PUSH1 0x40 ADD SWAP2 POP POP PUSH1 0x40 MLOAD DUP1 SWAP2 SUB SWAP1 REVERT JUMPDEST PUSH2 0x1A96 ADDRESS DUP5 PUSH2 0x2E4F JUMP JUMPDEST PUSH2 0x1AA1 DUP8 DUP14 DUP14 PUSH2 0x21AD JUMP JUMPDEST PUSH2 0x1AAC DUP7 DUP14 DUP13 PUSH2 0x21AD JUMP JUMPDEST DUP7 PUSH20 0xFFFFFFFFFFFFFFFFFFFFFFFFFFFFFFFFFFFFFFFF AND PUSH4 0x70A08231 ADDRESS PUSH1 0x40 MLOAD DUP3 PUSH4 0xFFFFFFFF AND PUSH1 0xE0 SHL DUP2 MSTORE PUSH1 0x4 ADD DUP1 DUP3 PUSH20 0xFFFFFFFFFFFFFFFFFFFFFFFFFFFFFFFFFFFFFFFF AND DUP2 MSTORE PUSH1 0x20 ADD SWAP2 POP POP PUSH1 0x20 PUSH1 0x40 MLOAD DUP1 DUP4 SUB DUP2 DUP7 DUP1 EXTCODESIZE ISZERO DUP1 ISZERO PUSH2 0x1B13 JUMPI PUSH1 0x0 DUP1 REVERT JUMPDEST POP GAS STATICCALL ISZERO DUP1 ISZERO PUSH2 0x1B27 JUMPI RETURNDATASIZE PUSH1 0x0 DUP1 RETURNDATACOPY RETURNDATASIZE PUSH1 0x0 REVERT JUMPDEST POP POP POP POP PUSH1 0x40 MLOAD RETURNDATASIZE PUSH1 0x20 DUP2 LT ISZERO PUSH2 0x1B3D JUMPI PUSH1 0x0 DUP1 REVERT JUMPDEST DUP2 ADD SWAP1 DUP1 DUP1 MLOAD SWAP1 PUSH1 0x20 ADD SWAP1 SWAP3 SWAP2 SWAP1 POP POP POP SWAP5 POP DUP6 PUSH20 0xFFFFFFFFFFFFFFFFFFFFFFFFFFFFFFFFFFFFFFFF AND PUSH4 0x70A08231 ADDRESS PUSH1 0x40 MLOAD DUP3 PUSH4 0xFFFFFFFF AND PUSH1 0xE0 SHL DUP2 MSTORE PUSH1 0x4 ADD DUP1 DUP3 PUSH20 0xFFFFFFFFFFFFFFFFFFFFFFFFFFFFFFFFFFFFFFFF AND DUP2 MSTORE PUSH1 0x20 ADD SWAP2 POP POP PUSH1 0x20 PUSH1 0x40 MLOAD DUP1 DUP4 SUB DUP2 DUP7 DUP1 EXTCODESIZE ISZERO DUP1 ISZERO PUSH2 0x1BB7 JUMPI PUSH1 0x0 DUP1 REVERT JUMPDEST POP GAS STATICCALL ISZERO DUP1 ISZERO PUSH2 0x1BCB JUMPI RETURNDATASIZE PUSH1 0x0 DUP1 RETURNDATACOPY RETURNDATASIZE PUSH1 0x0 REVERT JUMPDEST POP POP POP POP PUSH1 0x40 MLOAD RETURNDATASIZE PUSH1 0x20 DUP2 LT ISZERO PUSH2 0x1BE1 JUMPI PUSH1 0x0 DUP1 REVERT JUMPDEST DUP2 ADD SWAP1 DUP1 DUP1 MLOAD SWAP1 PUSH1 0x20 ADD SWAP1 SWAP3 SWAP2 SWAP1 POP POP POP SWAP4 POP PUSH2 0x1C00 DUP6 DUP6 DUP12 DUP12 PUSH2 0x24FC JUMP JUMPDEST DUP2 ISZERO PUSH2 0x1C78 JUMPI PUSH2 0x1C71 PUSH1 0x7 PUSH1 0xE SWAP1 SLOAD SWAP1 PUSH2 0x100 EXP SWAP1 DIV PUSH14 0xFFFFFFFFFFFFFFFFFFFFFFFFFFFF AND PUSH14 0xFFFFFFFFFFFFFFFFFFFFFFFFFFFF AND PUSH1 0x7 PUSH1 0x0 SWAP1 SLOAD SWAP1 PUSH2 0x100 EXP SWAP1 DIV PUSH14 0xFFFFFFFFFFFFFFFFFFFFFFFFFFFF AND PUSH14 0xFFFFFFFFFFFFFFFFFFFFFFFFFFFF AND PUSH2 0x23E4 SWAP1 SWAP2 SWAP1 PUSH4 0xFFFFFFFF AND JUMP JUMPDEST PUSH1 0xA DUP2 SWAP1 SSTORE POP JUMPDEST DUP12 PUSH20 0xFFFFFFFFFFFFFFFFFFFFFFFFFFFFFFFFFFFFFFFF AND CALLER PUSH20 0xFFFFFFFFFFFFFFFFFFFFFFFFFFFFFFFFFFFFFFFF AND PUSH32 0xDCCD412F0B1252819CB1FD330B93224CA42612892BB3F4F789976E6D81936496 DUP14 DUP14 PUSH1 0x40 MLOAD DUP1 DUP4 DUP2 MSTORE PUSH1 0x20 ADD DUP3 DUP2 MSTORE PUSH1 0x20 ADD SWAP3 POP POP POP PUSH1 0x40 MLOAD DUP1 SWAP2 SUB SWAP1 LOG3 POP POP POP POP POP POP POP POP POP SWAP2 POP SWAP2 JUMP JUMPDEST PUSH1 0x40 MLOAD DUP1 PUSH1 0x40 ADD PUSH1 0x40 MSTORE DUP1 PUSH1 0x6 DUP2 MSTORE PUSH1 0x20 ADD PUSH32 0x554E492D56320000000000000000000000000000000000000000000000000000 DUP2 MSTORE POP DUP2 JUMP JUMPDEST PUSH1 0x0 PUSH2 0x1D39 CALLER DUP5 DUP5 PUSH2 0x2945 JUMP JUMPDEST PUSH1 0x1 SWAP1 POP SWAP3 SWAP2 POP POP JUMP JUMPDEST PUSH2 0x3E8 DUP2 JUMP JUMPDEST PUSH1 0x0 PUSH1 0x5 PUSH1 0x0 SWAP1 SLOAD SWAP1 PUSH2 0x100 EXP SWAP1 DIV PUSH20 0xFFFFFFFFFFFFFFFFFFFFFFFFFFFFFFFFFFFFFFFF AND SWAP1 POP PUSH1 0x0 PUSH1 0x6 PUSH1 0x0 SWAP1 SLOAD SWAP1 PUSH2 0x100 EXP SWAP1 DIV PUSH20 0xFFFFFFFFFFFFFFFFFFFFFFFFFFFFFFFFFFFFFFFF AND SWAP1 POP PUSH2 0x1E81 DUP3 DUP5 PUSH2 0x1E7C PUSH1 0x7 PUSH1 0x0 SWAP1 SLOAD SWAP1 PUSH2 0x100 EXP SWAP1 DIV PUSH14 0xFFFFFFFFFFFFFFFFFFFFFFFFFFFF AND PUSH14 0xFFFFFFFFFFFFFFFFFFFFFFFFFFFF AND DUP7 PUSH20 0xFFFFFFFFFFFFFFFFFFFFFFFFFFFFFFFFFFFFFFFF AND PUSH4 0x70A08231 ADDRESS PUSH1 0x40 MLOAD DUP3 PUSH4 0xFFFFFFFF AND PUSH1 0xE0 SHL DUP2 MSTORE PUSH1 0x4 ADD DUP1 DUP3 PUSH20 0xFFFFFFFFFFFFFFFFFFFFFFFFFFFFFFFFFFFFFFFF AND DUP2 MSTORE PUSH1 0x20 ADD SWAP2 POP POP PUSH1 0x20 PUSH1 0x40 MLOAD DUP1 DUP4 SUB DUP2 DUP7 DUP1 EXTCODESIZE ISZERO DUP1 ISZERO PUSH2 0x1E33 JUMPI PUSH1 0x0 DUP1 REVERT JUMPDEST POP GAS STATICCALL ISZERO DUP1 ISZERO PUSH2 0x1E47 JUMPI RETURNDATASIZE PUSH1 0x0 DUP1 RETURNDATACOPY RETURNDATASIZE PUSH1 0x0 REVERT JUMPDEST POP POP POP POP PUSH1 0x40 MLOAD RETURNDATASIZE PUSH1 0x20 DUP2 LT ISZERO PUSH2 0x1E5D JUMPI PUSH1 0x0 DUP1 REVERT JUMPDEST DUP2 ADD SWAP1 DUP1 DUP1 MLOAD SWAP1 PUSH1 0x20 ADD SWAP1 SWAP3 SWAP2 SWAP1 POP POP POP PUSH2 0x2479 SWAP1 SWAP2 SWAP1 PUSH4 0xFFFFFFFF AND JUMP JUMPDEST PUSH2 0x21AD JUMP JUMPDEST PUSH2 0x1F6B DUP2 DUP5 PUSH2 0x1F66 PUSH1 0x7 PUSH1 0xE SWAP1 SLOAD SWAP1 PUSH2 0x100 EXP SWAP1 DIV PUSH14 0xFFFFFFFFFFFFFFFFFFFFFFFFFFFF AND PUSH14 0xFFFFFFFFFFFFFFFFFFFFFFFFFFFF AND DUP6 PUSH20 0xFFFFFFFFFFFFFFFFFFFFFFFFFFFFFFFFFFFFFFFF AND PUSH4 0x70A08231 ADDRESS PUSH1 0x40 MLOAD DUP3 PUSH4 0xFFFFFFFF AND PUSH1 0xE0 SHL DUP2 MSTORE PUSH1 0x4 ADD DUP1 DUP3 PUSH20 0xFFFFFFFFFFFFFFFFFFFFFFFFFFFFFFFFFFFFFFFF AND DUP2 MSTORE PUSH1 0x20 ADD SWAP2 POP POP PUSH1 0x20 PUSH1 0x40 MLOAD DUP1 DUP4 SUB DUP2 DUP7 DUP1 EXTCODESIZE ISZERO DUP1 ISZERO PUSH2 0x1F1D JUMPI PUSH1 0x0 DUP1 REVERT JUMPDEST POP GAS STATICCALL ISZERO DUP1 ISZERO PUSH2 0x1F31 JUMPI RETURNDATASIZE PUSH1 0x0 DUP1 RETURNDATACOPY RETURNDATASIZE PUSH1 0x0 REVERT JUMPDEST POP POP POP POP PUSH1 0x40 MLOAD RETURNDATASIZE PUSH1 0x20 DUP2 LT ISZERO PUSH2 0x1F47 JUMPI PUSH1 0x0 DUP1 REVERT JUMPDEST DUP2 ADD SWAP1 DUP1 DUP1 MLOAD SWAP1 PUSH1 0x20 ADD SWAP1 SWAP3 SWAP2 SWAP1 POP POP POP PUSH2 0x2479 SWAP1 SWAP2 SWAP1 PUSH4 0xFFFFFFFF AND JUMP JUMPDEST PUSH2 0x21AD JUMP JUMPDEST POP POP POP JUMP JUMPDEST PUSH1 0x4 PUSH1 0x0 SWAP1 SLOAD SWAP1 PUSH2 0x100 EXP SWAP1 DIV PUSH20 0xFFFFFFFFFFFFFFFFFFFFFFFFFFFFFFFFFFFFFFFF AND DUP2 JUMP JUMPDEST PUSH1 0x6 PUSH1 0x0 SWAP1 SLOAD SWAP1 PUSH2 0x100 EXP SWAP1 DIV PUSH20 0xFFFFFFFFFFFFFFFFFFFFFFFFFFFFFFFFFFFFFFFF AND DUP2 JUMP JUMPDEST PUSH1 0x2 PUSH1 0x20 MSTORE DUP2 PUSH1 0x0 MSTORE PUSH1 0x40 PUSH1 0x0 KECCAK256 PUSH1 0x20 MSTORE DUP1 PUSH1 0x0 MSTORE PUSH1 0x40 PUSH1 0x0 KECCAK256 PUSH1 0x0 SWAP2 POP SWAP2 POP POP SLOAD DUP2 JUMP JUMPDEST PUSH2 0x21AB PUSH1 0x5 PUSH1 0x0 SWAP1 SLOAD SWAP1 PUSH2 0x100 EXP SWAP1 DIV PUSH20 0xFFFFFFFFFFFFFFFFFFFFFFFFFFFFFFFFFFFFFFFF AND PUSH20 0xFFFFFFFFFFFFFFFFFFFFFFFFFFFFFFFFFFFFFFFF AND PUSH4 0x70A08231 ADDRESS PUSH1 0x40 MLOAD DUP3 PUSH4 0xFFFFFFFF AND PUSH1 0xE0 SHL DUP2 MSTORE PUSH1 0x4 ADD DUP1 DUP3 PUSH20 0xFFFFFFFFFFFFFFFFFFFFFFFFFFFFFFFFFFFFFFFF AND DUP2 MSTORE PUSH1 0x20 ADD SWAP2 POP POP PUSH1 0x20 PUSH1 0x40 MLOAD DUP1 DUP4 SUB DUP2 DUP7 DUP1 EXTCODESIZE ISZERO DUP1 ISZERO PUSH2 0x206D JUMPI PUSH1 0x0 DUP1 REVERT JUMPDEST POP GAS STATICCALL ISZERO DUP1 ISZERO PUSH2 0x2081 JUMPI RETURNDATASIZE PUSH1 0x0 DUP1 RETURNDATACOPY RETURNDATASIZE PUSH1 0x0 REVERT JUMPDEST POP POP POP POP PUSH1 0x40 MLOAD RETURNDATASIZE PUSH1 0x20 DUP2 LT ISZERO PUSH2 0x2097 JUMPI PUSH1 0x0 DUP1 REVERT JUMPDEST DUP2 ADD SWAP1 DUP1 DUP1 MLOAD SWAP1 PUSH1 0x20 ADD SWAP1 SWAP3 SWAP2 SWAP1 POP POP POP PUSH1 0x6 PUSH1 0x0 SWAP1 SLOAD SWAP1 PUSH2 0x100 EXP SWAP1 DIV PUSH20 0xFFFFFFFFFFFFFFFFFFFFFFFFFFFFFFFFFFFFFFFF AND PUSH20 0xFFFFFFFFFFFFFFFFFFFFFFFFFFFFFFFFFFFFFFFF AND PUSH4 0x70A08231 ADDRESS PUSH1 0x40 MLOAD DUP3 PUSH4 0xFFFFFFFF AND PUSH1 0xE0 SHL DUP2 MSTORE PUSH1 0x4 ADD DUP1 DUP3 PUSH20 0xFFFFFFFFFFFFFFFFFFFFFFFFFFFFFFFFFFFFFFFF AND DUP2 MSTORE PUSH1 0x20 ADD SWAP2 POP POP PUSH1 0x20 PUSH1 0x40 MLOAD DUP1 DUP4 SUB DUP2 DUP7 DUP1 EXTCODESIZE ISZERO DUP1 ISZERO PUSH2 0x2131 JUMPI PUSH1 0x0 DUP1 REVERT JUMPDEST POP GAS STATICCALL ISZERO DUP1 ISZERO PUSH2 0x2145 JUMPI RETURNDATASIZE PUSH1 0x0 DUP1 RETURNDATACOPY RETURNDATASIZE PUSH1 0x0 REVERT JUMPDEST POP POP POP POP PUSH1 0x40 MLOAD RETURNDATASIZE PUSH1 0x20 DUP2 LT ISZERO PUSH2 0x215B JUMPI PUSH1 0x0 DUP1 REVERT JUMPDEST DUP2 ADD SWAP1 DUP1 DUP1 MLOAD SWAP1 PUSH1 0x20 ADD SWAP1 SWAP3 SWAP2 SWAP1 POP POP POP PUSH1 0x7 PUSH1 0x0 SWAP1 SLOAD SWAP1 PUSH2 0x100 EXP SWAP1 DIV PUSH14 0xFFFFFFFFFFFFFFFFFFFFFFFFFFFF AND PUSH1 0x7 PUSH1 0xE SWAP1 SLOAD SWAP1 PUSH2 0x100 EXP SWAP1 DIV PUSH14 0xFFFFFFFFFFFFFFFFFFFFFFFFFFFF AND PUSH2 0x24FC JUMP JUMPDEST JUMP JUMPDEST PUSH1 0x0 PUSH1 0x60 DUP5 PUSH20 0xFFFFFFFFFFFFFFFFFFFFFFFFFFFFFFFFFFFFFFFF AND PUSH1 0x40 MLOAD DUP1 PUSH1 0x40 ADD PUSH1 0x40 MSTORE DUP1 PUSH1 0x19 DUP2 MSTORE PUSH1 0x20 ADD PUSH32 0x7472616E7366657228616464726573732C75696E743235362900000000000000 DUP2 MSTORE POP DUP1 MLOAD SWAP1 PUSH1 0x20 ADD KECCAK256 DUP6 DUP6 PUSH1 0x40 MLOAD PUSH1 0x24 ADD DUP1 DUP4 PUSH20 0xFFFFFFFFFFFFFFFFFFFFFFFFFFFFFFFFFFFFFFFF AND DUP2 MSTORE PUSH1 0x20 ADD DUP3 DUP2 MSTORE PUSH1 0x20 ADD SWAP3 POP POP POP PUSH1 0x40 MLOAD PUSH1 0x20 DUP2 DUP4 SUB SUB DUP2 MSTORE SWAP1 PUSH1 0x40 MSTORE SWAP1 PUSH28 0xFFFFFFFFFFFFFFFFFFFFFFFFFFFFFFFFFFFFFFFFFFFFFFFFFFFFFFFF NOT AND PUSH1 0x20 DUP3 ADD DUP1 MLOAD PUSH28 0xFFFFFFFFFFFFFFFFFFFFFFFFFFFFFFFFFFFFFFFFFFFFFFFFFFFFFFFF DUP4 DUP2 DUP4 AND OR DUP4 MSTORE POP POP POP POP PUSH1 0x40 MLOAD DUP1 DUP3 DUP1 MLOAD SWAP1 PUSH1 0x20 ADD SWAP1 DUP1 DUP4 DUP4 JUMPDEST PUSH1 0x20 DUP4 LT PUSH2 0x22C4 JUMPI DUP1 MLOAD DUP3 MSTORE PUSH1 0x20 DUP3 ADD SWAP2 POP PUSH1 0x20 DUP2 ADD SWAP1 POP PUSH1 0x20 DUP4 SUB SWAP3 POP PUSH2 0x22A1 JUMP JUMPDEST PUSH1 0x1 DUP4 PUSH1 0x20 SUB PUSH2 0x100 EXP SUB DUP1 NOT DUP3 MLOAD AND DUP2 DUP5 MLOAD AND DUP1 DUP3 OR DUP6 MSTORE POP POP POP POP POP POP SWAP1 POP ADD SWAP2 POP POP PUSH1 0x0 PUSH1 0x40 MLOAD DUP1 DUP4 SUB DUP2 PUSH1 0x0 DUP7 GAS CALL SWAP2 POP POP RETURNDATASIZE DUP1 PUSH1 0x0 DUP2 EQ PUSH2 0x2326 JUMPI PUSH1 0x40 MLOAD SWAP2 POP PUSH1 0x1F NOT PUSH1 0x3F RETURNDATASIZE ADD AND DUP3 ADD PUSH1 0x40 MSTORE RETURNDATASIZE DUP3 MSTORE RETURNDATASIZE PUSH1 0x0 PUSH1 0x20 DUP5 ADD RETURNDATACOPY PUSH2 0x232B JUMP JUMPDEST PUSH1 0x60 SWAP2 POP JUMPDEST POP SWAP2 POP SWAP2 POP DUP2 DUP1 ISZERO PUSH2 0x236B JUMPI POP PUSH1 0x0 DUP2 MLOAD EQ DUP1 PUSH2 0x236A JUMPI POP DUP1 DUP1 PUSH1 0x20 ADD SWAP1 MLOAD PUSH1 0x20 DUP2 LT ISZERO PUSH2 0x2358 JUMPI PUSH1 0x0 DUP1 REVERT JUMPDEST DUP2 ADD SWAP1 DUP1 DUP1 MLOAD SWAP1 PUSH1 0x20 ADD SWAP1 SWAP3 SWAP2 SWAP1 POP POP POP JUMPDEST JUMPDEST PUSH2 0x23DD JUMPI PUSH1 0x40 MLOAD PUSH32 0x8C379A000000000000000000000000000000000000000000000000000000000 DUP2 MSTORE PUSH1 0x4 ADD DUP1 DUP1 PUSH1 0x20 ADD DUP3 DUP2 SUB DUP3 MSTORE PUSH1 0x1A DUP2 MSTORE PUSH1 0x20 ADD DUP1 PUSH32 0x556E697377617056323A205452414E534645525F4641494C4544000000000000 DUP2 MSTORE POP PUSH1 0x20 ADD SWAP2 POP POP PUSH1 0x40 MLOAD DUP1 SWAP2 SUB SWAP1 REVERT JUMPDEST POP POP POP POP POP JUMP JUMPDEST PUSH1 0x0 DUP1 DUP3 EQ DUP1 PUSH2 0x2401 JUMPI POP DUP3 DUP3 DUP4 DUP6 MUL SWAP3 POP DUP3 DUP2 PUSH2 0x23FE JUMPI INVALID JUMPDEST DIV EQ JUMPDEST PUSH2 0x2473 JUMPI PUSH1 0x40 MLOAD PUSH32 0x8C379A000000000000000000000000000000000000000000000000000000000 DUP2 MSTORE PUSH1 0x4 ADD DUP1 DUP1 PUSH1 0x20 ADD DUP3 DUP2 SUB DUP3 MSTORE PUSH1 0x14 DUP2 MSTORE PUSH1 0x20 ADD DUP1 PUSH32 0x64732D6D6174682D6D756C2D6F766572666C6F77000000000000000000000000 DUP2 MSTORE POP PUSH1 0x20 ADD SWAP2 POP POP PUSH1 0x40 MLOAD DUP1 SWAP2 SUB SWAP1 REVERT JUMPDEST SWAP3 SWAP2 POP POP JUMP JUMPDEST PUSH1 0x0 DUP3 DUP3 DUP5 SUB SWAP2 POP DUP2 GT ISZERO PUSH2 0x24F6 JUMPI PUSH1 0x40 MLOAD PUSH32 0x8C379A000000000000000000000000000000000000000000000000000000000 DUP2 MSTORE PUSH1 0x4 ADD DUP1 DUP1 PUSH1 0x20 ADD DUP3 DUP2 SUB DUP3 MSTORE PUSH1 0x15 DUP2 MSTORE PUSH1 0x20 ADD DUP1 PUSH32 0x64732D6D6174682D7375622D756E646572666C6F770000000000000000000000 DUP2 MSTORE POP PUSH1 0x20 ADD SWAP2 POP POP PUSH1 0x40 MLOAD DUP1 SWAP2 SUB SWAP1 REVERT JUMPDEST SWAP3 SWAP2 POP POP JUMP JUMPDEST PUSH32 0xFFFFFFFFFFFFFFFFFFFFFFFFFFFFFFFFFFFFFFFFFFFFFFFFFFFFFFFFFFFFFFFF PUSH14 0xFFFFFFFFFFFFFFFFFFFFFFFFFFFF AND DUP5 GT ISZERO DUP1 ISZERO PUSH2 0x256C JUMPI POP PUSH32 0xFFFFFFFFFFFFFFFFFFFFFFFFFFFFFFFFFFFFFFFFFFFFFFFFFFFFFFFFFFFFFFFF PUSH14 0xFFFFFFFFFFFFFFFFFFFFFFFFFFFF AND DUP4 GT ISZERO JUMPDEST PUSH2 0x25DE JUMPI PUSH1 0x40 MLOAD PUSH32 0x8C379A000000000000000000000000000000000000000000000000000000000 DUP2 MSTORE PUSH1 0x4 ADD DUP1 DUP1 PUSH1 0x20 ADD DUP3 DUP2 SUB DUP3 MSTORE PUSH1 0x13 DUP2 MSTORE PUSH1 0x20 ADD DUP1 PUSH32 0x556E697377617056323A204F564552464C4F5700000000000000000000000000 DUP2 MSTORE POP PUSH1 0x20 ADD SWAP2 POP POP PUSH1 0x40 MLOAD DUP1 SWAP2 SUB SWAP1 REVERT JUMPDEST PUSH1 0x0 PUSH5 0x100000000 TIMESTAMP DUP2 PUSH2 0x25EE JUMPI INVALID JUMPDEST MOD SWAP1 POP PUSH1 0x0 PUSH1 0x7 PUSH1 0x1C SWAP1 SLOAD SWAP1 PUSH2 0x100 EXP SWAP1 DIV PUSH4 0xFFFFFFFF AND DUP3 SUB SWAP1 POP PUSH1 0x0 DUP2 PUSH4 0xFFFFFFFF AND GT DUP1 ISZERO PUSH2 0x2631 JUMPI POP PUSH1 0x0 DUP5 PUSH14 0xFFFFFFFFFFFFFFFFFFFFFFFFFFFF AND EQ ISZERO JUMPDEST DUP1 ISZERO PUSH2 0x264E JUMPI POP PUSH1 0x0 DUP4 PUSH14 0xFFFFFFFFFFFFFFFFFFFFFFFFFFFF AND EQ ISZERO JUMPDEST ISZERO PUSH2 0x2730 JUMPI DUP1 PUSH4 0xFFFFFFFF AND PUSH2 0x2693 DUP6 PUSH2 0x2667 DUP7 PUSH2 0x2F69 JUMP JUMPDEST PUSH28 0xFFFFFFFFFFFFFFFFFFFFFFFFFFFFFFFFFFFFFFFFFFFFFFFFFFFFFFFF AND PUSH2 0x2F94 SWAP1 SWAP2 SWAP1 PUSH4 0xFFFFFFFF AND JUMP JUMPDEST PUSH28 0xFFFFFFFFFFFFFFFFFFFFFFFFFFFFFFFFFFFFFFFFFFFFFFFFFFFFFFFF AND MUL PUSH1 0x8 PUSH1 0x0 DUP3 DUP3 SLOAD ADD SWAP3 POP POP DUP2 SWAP1 SSTORE POP DUP1 PUSH4 0xFFFFFFFF AND PUSH2 0x2701 DUP5 PUSH2 0x26D5 DUP8 PUSH2 0x2F69 JUMP JUMPDEST PUSH28 0xFFFFFFFFFFFFFFFFFFFFFFFFFFFFFFFFFFFFFFFFFFFFFFFFFFFFFFFF AND PUSH2 0x2F94 SWAP1 SWAP2 SWAP1 PUSH4 0xFFFFFFFF AND JUMP JUMPDEST PUSH28 0xFFFFFFFFFFFFFFFFFFFFFFFFFFFFFFFFFFFFFFFFFFFFFFFFFFFFFFFF AND MUL PUSH1 0x9 PUSH1 0x0 DUP3 DUP3 SLOAD ADD SWAP3 POP POP DUP2 SWAP1 SSTORE POP JUMPDEST DUP6 PUSH1 0x7 PUSH1 0x0 PUSH2 0x100 EXP DUP2 SLOAD DUP2 PUSH14 0xFFFFFFFFFFFFFFFFFFFFFFFFFFFF MUL NOT AND SWAP1 DUP4 PUSH14 0xFFFFFFFFFFFFFFFFFFFFFFFFFFFF AND MUL OR SWAP1 SSTORE POP DUP5 PUSH1 0x7 PUSH1 0xE PUSH2 0x100 EXP DUP2 SLOAD DUP2 PUSH14 0xFFFFFFFFFFFFFFFFFFFFFFFFFFFF MUL NOT AND SWAP1 DUP4 PUSH14 0xFFFFFFFFFFFFFFFFFFFFFFFFFFFF AND MUL OR SWAP1 SSTORE POP DUP2 PUSH1 0x7 PUSH1 0x1C PUSH2 0x100 EXP DUP2 SLOAD DUP2 PUSH4 0xFFFFFFFF MUL NOT AND SWAP1 DUP4 PUSH4 0xFFFFFFFF AND MUL OR SWAP1 SSTORE POP PUSH32 0x1C411E9A96E071241C2F21F7726B17AE89E3CAB4C78BE50E062B03A9FFFBBAD1 PUSH1 0x7 PUSH1 0x0 SWAP1 SLOAD SWAP1 PUSH2 0x100 EXP SWAP1 DIV PUSH14 0xFFFFFFFFFFFFFFFFFFFFFFFFFFFF AND PUSH1 0x7 PUSH1 0xE SWAP1 SLOAD SWAP1 PUSH2 0x100 EXP SWAP1 DIV PUSH14 0xFFFFFFFFFFFFFFFFFFFFFFFFFFFF AND PUSH1 0x40 MLOAD DUP1 DUP4 PUSH14 0xFFFFFFFFFFFFFFFFFFFFFFFFFFFF AND DUP2 MSTORE PUSH1 0x20 ADD DUP3 PUSH14 0xFFFFFFFFFFFFFFFFFFFFFFFFFFFF AND DUP2 MSTORE PUSH1 0x20 ADD SWAP3 POP POP POP PUSH1 0x40 MLOAD DUP1 SWAP2 SUB SWAP1 LOG1 POP POP POP POP POP POP JUMP JUMPDEST DUP1 PUSH1 0x2 PUSH1 0x0 DUP6 PUSH20 0xFFFFFFFFFFFFFFFFFFFFFFFFFFFFFFFFFFFFFFFF AND PUSH20 0xFFFFFFFFFFFFFFFFFFFFFFFFFFFFFFFFFFFFFFFF AND DUP2 MSTORE PUSH1 0x20 ADD SWAP1 DUP2 MSTORE PUSH1 0x20 ADD PUSH1 0x0 KECCAK256 PUSH1 0x0 DUP5 PUSH20 0xFFFFFFFFFFFFFFFFFFFFFFFFFFFFFFFFFFFFFFFF AND PUSH20 0xFFFFFFFFFFFFFFFFFFFFFFFFFFFFFFFFFFFFFFFF AND DUP2 MSTORE PUSH1 0x20 ADD SWAP1 DUP2 MSTORE PUSH1 0x20 ADD PUSH1 0x0 KECCAK256 DUP2 SWAP1 SSTORE POP DUP2 PUSH20 0xFFFFFFFFFFFFFFFFFFFFFFFFFFFFFFFFFFFFFFFF AND DUP4 PUSH20 0xFFFFFFFFFFFFFFFFFFFFFFFFFFFFFFFFFFFFFFFF AND PUSH32 0x8C5BE1E5EBEC7D5BD14F71427D1E84F3DD0314C0F7B2291E5B200AC8C7C3B925 DUP4 PUSH1 0x40 MLOAD DUP1 DUP3 DUP2 MSTORE PUSH1 0x20 ADD SWAP2 POP POP PUSH1 0x40 MLOAD DUP1 SWAP2 SUB SWAP1 LOG3 POP POP POP JUMP JUMPDEST PUSH2 0x2997 DUP2 PUSH1 0x1 PUSH1 0x0 DUP7 PUSH20 0xFFFFFFFFFFFFFFFFFFFFFFFFFFFFFFFFFFFFFFFF AND PUSH20 0xFFFFFFFFFFFFFFFFFFFFFFFFFFFFFFFFFFFFFFFF AND DUP2 MSTORE PUSH1 0x20 ADD SWAP1 DUP2 MSTORE PUSH1 0x20 ADD PUSH1 0x0 KECCAK256 SLOAD PUSH2 0x2479 SWAP1 SWAP2 SWAP1 PUSH4 0xFFFFFFFF AND JUMP JUMPDEST PUSH1 0x1 PUSH1 0x0 DUP6 PUSH20 0xFFFFFFFFFFFFFFFFFFFFFFFFFFFFFFFFFFFFFFFF AND PUSH20 0xFFFFFFFFFFFFFFFFFFFFFFFFFFFFFFFFFFFFFFFF AND DUP2 MSTORE PUSH1 0x20 ADD SWAP1 DUP2 MSTORE PUSH1 0x20 ADD PUSH1 0x0 KECCAK256 DUP2 SWAP1 SSTORE POP PUSH2 0x2A2C DUP2 PUSH1 0x1 PUSH1 0x0 DUP6 PUSH20 0xFFFFFFFFFFFFFFFFFFFFFFFFFFFFFFFFFFFFFFFF AND PUSH20 0xFFFFFFFFFFFFFFFFFFFFFFFFFFFFFFFFFFFFFFFF AND DUP2 MSTORE PUSH1 0x20 ADD SWAP1 DUP2 MSTORE PUSH1 0x20 ADD PUSH1 0x0 KECCAK256 SLOAD PUSH2 0x2FF4 SWAP1 SWAP2 SWAP1 PUSH4 0xFFFFFFFF AND JUMP JUMPDEST PUSH1 0x1 PUSH1 0x0 DUP5 PUSH20 0xFFFFFFFFFFFFFFFFFFFFFFFFFFFFFFFFFFFFFFFF AND PUSH20 0xFFFFFFFFFFFFFFFFFFFFFFFFFFFFFFFFFFFFFFFF AND DUP2 MSTORE PUSH1 0x20 ADD SWAP1 DUP2 MSTORE PUSH1 0x20 ADD PUSH1 0x0 KECCAK256 DUP2 SWAP1 SSTORE POP DUP2 PUSH20 0xFFFFFFFFFFFFFFFFFFFFFFFFFFFFFFFFFFFFFFFF AND DUP4 PUSH20 0xFFFFFFFFFFFFFFFFFFFFFFFFFFFFFFFFFFFFFFFF AND PUSH32 0xDDF252AD1BE2C89B69C2B068FC378DAA952BA7F163C4A11628F55A4DF523B3EF DUP4 PUSH1 0x40 MLOAD DUP1 DUP3 DUP2 MSTORE PUSH1 0x20 ADD SWAP2 POP POP PUSH1 0x40 MLOAD DUP1 SWAP2 SUB SWAP1 LOG3 POP POP POP JUMP JUMPDEST PUSH1 0x0 DUP1 PUSH1 0x4 PUSH1 0x0 SWAP1 SLOAD SWAP1 PUSH2 0x100 EXP SWAP1 DIV PUSH20 0xFFFFFFFFFFFFFFFFFFFFFFFFFFFFFFFFFFFFFFFF AND PUSH20 0xFFFFFFFFFFFFFFFFFFFFFFFFFFFFFFFFFFFFFFFF AND PUSH4 0x17E7E58 PUSH1 0x40 MLOAD DUP2 PUSH4 0xFFFFFFFF AND PUSH1 0xE0 SHL DUP2 MSTORE PUSH1 0x4 ADD PUSH1 0x20 PUSH1 0x40 MLOAD DUP1 DUP4 SUB DUP2 DUP7 DUP1 EXTCODESIZE ISZERO DUP1 ISZERO PUSH2 0x2B44 JUMPI PUSH1 0x0 DUP1 REVERT JUMPDEST POP GAS STATICCALL ISZERO DUP1 ISZERO PUSH2 0x2B58 JUMPI RETURNDATASIZE PUSH1 0x0 DUP1 RETURNDATACOPY RETURNDATASIZE PUSH1 0x0 REVERT JUMPDEST POP POP POP POP PUSH1 0x40 MLOAD RETURNDATASIZE PUSH1 0x20 DUP2 LT ISZERO PUSH2 0x2B6E JUMPI PUSH1 0x0 DUP1 REVERT JUMPDEST DUP2 ADD SWAP1 DUP1 DUP1 MLOAD SWAP1 PUSH1 0x20 ADD SWAP1 SWAP3 SWAP2 SWAP1 POP POP POP SWAP1 POP PUSH1 0x0 PUSH20 0xFFFFFFFFFFFFFFFFFFFFFFFFFFFFFFFFFFFFFFFF AND DUP2 PUSH20 0xFFFFFFFFFFFFFFFFFFFFFFFFFFFFFFFFFFFFFFFF AND EQ ISZERO SWAP2 POP PUSH1 0x0 PUSH1 0xA SLOAD SWAP1 POP DUP3 ISZERO PUSH2 0x2CA0 JUMPI PUSH1 0x0 DUP2 EQ PUSH2 0x2C9B JUMPI PUSH1 0x0 PUSH2 0x2C06 PUSH2 0x2C01 DUP7 PUSH14 0xFFFFFFFFFFFFFFFFFFFFFFFFFFFF AND DUP9 PUSH14 0xFFFFFFFFFFFFFFFFFFFFFFFFFFFF AND PUSH2 0x23E4 SWAP1 SWAP2 SWAP1 PUSH4 0xFFFFFFFF AND JUMP JUMPDEST PUSH2 0x2CBA JUMP JUMPDEST SWAP1 POP PUSH1 0x0 PUSH2 0x2C13 DUP4 PUSH2 0x2CBA JUMP JUMPDEST SWAP1 POP DUP1 DUP3 GT ISZERO PUSH2 0x2C98 JUMPI PUSH1 0x0 PUSH2 0x2C46 PUSH2 0x2C35 DUP4 DUP6 PUSH2 0x2479 SWAP1 SWAP2 SWAP1 PUSH4 0xFFFFFFFF AND JUMP JUMPDEST PUSH1 0x0 SLOAD PUSH2 0x23E4 SWAP1 SWAP2 SWAP1 PUSH4 0xFFFFFFFF AND JUMP JUMPDEST SWAP1 POP PUSH1 0x0 PUSH2 0x2C70 DUP4 PUSH2 0x2C62 PUSH1 0x5 DUP8 PUSH2 0x23E4 SWAP1 SWAP2 SWAP1 PUSH4 0xFFFFFFFF AND JUMP JUMPDEST PUSH2 0x2FF4 SWAP1 SWAP2 SWAP1 PUSH4 0xFFFFFFFF AND JUMP JUMPDEST SWAP1 POP PUSH1 0x0 DUP2 DUP4 DUP2 PUSH2 0x2C7D JUMPI INVALID JUMPDEST DIV SWAP1 POP PUSH1 0x0 DUP2 GT ISZERO PUSH2 0x2C94 JUMPI PUSH2 0x2C93 DUP8 DUP3 PUSH2 0x2D1C JUMP JUMPDEST JUMPDEST POP POP POP JUMPDEST POP POP JUMPDEST PUSH2 0x2CB2 JUMP JUMPDEST PUSH1 0x0 DUP2 EQ PUSH2 0x2CB1 JUMPI PUSH1 0x0 PUSH1 0xA DUP2 SWAP1 SSTORE POP JUMPDEST JUMPDEST POP POP SWAP3 SWAP2 POP POP JUMP JUMPDEST PUSH1 0x0 PUSH1 0x3 DUP3 GT ISZERO PUSH2 0x2D09 JUMPI DUP2 SWAP1 POP PUSH1 0x0 PUSH1 0x1 PUSH1 0x2 DUP5 DUP2 PUSH2 0x2CD6 JUMPI INVALID JUMPDEST DIV ADD SWAP1 POP JUMPDEST DUP2 DUP2 LT ISZERO PUSH2 0x2D03 JUMPI DUP1 SWAP2 POP PUSH1 0x2 DUP2 DUP3 DUP6 DUP2 PUSH2 0x2CF2 JUMPI INVALID JUMPDEST DIV ADD DUP2 PUSH2 0x2CFB JUMPI INVALID JUMPDEST DIV SWAP1 POP PUSH2 0x2CDB JUMP JUMPDEST POP PUSH2 0x2D17 JUMP JUMPDEST PUSH1 0x0 DUP3 EQ PUSH2 0x2D16 JUMPI PUSH1 0x1 SWAP1 POP JUMPDEST JUMPDEST SWAP2 SWAP1 POP JUMP JUMPDEST PUSH2 0x2D31 DUP2 PUSH1 0x0 SLOAD PUSH2 0x2FF4 SWAP1 SWAP2 SWAP1 PUSH4 0xFFFFFFFF AND JUMP JUMPDEST PUSH1 0x0 DUP2 SWAP1 SSTORE POP PUSH2 0x2D89 DUP2 PUSH1 0x1 PUSH1 0x0 DUP6 PUSH20 0xFFFFFFFFFFFFFFFFFFFFFFFFFFFFFFFFFFFFFFFF AND PUSH20 0xFFFFFFFFFFFFFFFFFFFFFFFFFFFFFFFFFFFFFFFF AND DUP2 MSTORE PUSH1 0x20 ADD SWAP1 DUP2 MSTORE PUSH1 0x20 ADD PUSH1 0x0 KECCAK256 SLOAD PUSH2 0x2FF4 SWAP1 SWAP2 SWAP1 PUSH4 0xFFFFFFFF AND JUMP JUMPDEST PUSH1 0x1 PUSH1 0x0 DUP5 PUSH20 0xFFFFFFFFFFFFFFFFFFFFFFFFFFFFFFFFFFFFFFFF AND PUSH20 0xFFFFFFFFFFFFFFFFFFFFFFFFFFFFFFFFFFFFFFFF AND DUP2 MSTORE PUSH1 0x20 ADD SWAP1 DUP2 MSTORE PUSH1 0x20 ADD PUSH1 0x0 KECCAK256 DUP2 SWAP1 SSTORE POP DUP2 PUSH20 0xFFFFFFFFFFFFFFFFFFFFFFFFFFFFFFFFFFFFFFFF AND PUSH1 0x0 PUSH20 0xFFFFFFFFFFFFFFFFFFFFFFFFFFFFFFFFFFFFFFFF AND PUSH32 0xDDF252AD1BE2C89B69C2B068FC378DAA952BA7F163C4A11628F55A4DF523B3EF DUP4 PUSH1 0x40 MLOAD DUP1 DUP3 DUP2 MSTORE PUSH1 0x20 ADD SWAP2 POP POP PUSH1 0x40 MLOAD DUP1 SWAP2 SUB SWAP1 LOG3 POP POP JUMP JUMPDEST PUSH1 0x0 DUP2 DUP4 LT PUSH2 0x2E45 JUMPI DUP2 PUSH2 0x2E47 JUMP JUMPDEST DUP3 JUMPDEST SWAP1 POP SWAP3 SWAP2 POP POP JUMP JUMPDEST PUSH2 0x2EA1 DUP2 PUSH1 0x1 PUSH1 0x0 DUP6 PUSH20 0xFFFFFFFFFFFFFFFFFFFFFFFFFFFFFFFFFFFFFFFF AND PUSH20 0xFFFFFFFFFFFFFFFFFFFFFFFFFFFFFFFFFFFFFFFF AND DUP2 MSTORE PUSH1 0x20 ADD SWAP1 DUP2 MSTORE PUSH1 0x20 ADD PUSH1 0x0 KECCAK256 SLOAD PUSH2 0x2479 SWAP1 SWAP2 SWAP1 PUSH4 0xFFFFFFFF AND JUMP JUMPDEST PUSH1 0x1 PUSH1 0x0 DUP5 PUSH20 0xFFFFFFFFFFFFFFFFFFFFFFFFFFFFFFFFFFFFFFFF AND PUSH20 0xFFFFFFFFFFFFFFFFFFFFFFFFFFFFFFFFFFFFFFFF AND DUP2 MSTORE PUSH1 0x20 ADD SWAP1 DUP2 MSTORE PUSH1 0x20 ADD PUSH1 0x0 KECCAK256 DUP2 SWAP1 SSTORE POP PUSH2 0x2EF9 DUP2 PUSH1 0x0 SLOAD PUSH2 0x2479 SWAP1 SWAP2 SWAP1 PUSH4 0xFFFFFFFF AND JUMP JUMPDEST PUSH1 0x0 DUP2 SWAP1 SSTORE POP PUSH1 0x0 PUSH20 0xFFFFFFFFFFFFFFFFFFFFFFFFFFFFFFFFFFFFFFFF AND DUP3 PUSH20 0xFFFFFFFFFFFFFFFFFFFFFFFFFFFFFFFFFFFFFFFF AND PUSH32 0xDDF252AD1BE2C89B69C2B068FC378DAA952BA7F163C4A11628F55A4DF523B3EF DUP4 PUSH1 0x40 MLOAD DUP1 DUP3 DUP2 MSTORE PUSH1 0x20 ADD SWAP2 POP POP PUSH1 0x40 MLOAD DUP1 SWAP2 SUB SWAP1 LOG3 POP POP JUMP JUMPDEST PUSH1 0x0 PUSH15 0x10000000000000000000000000000 DUP3 PUSH14 0xFFFFFFFFFFFFFFFFFFFFFFFFFFFF AND MUL SWAP1 POP SWAP2 SWAP1 POP JUMP JUMPDEST PUSH1 0x0 DUP2 PUSH14 0xFFFFFFFFFFFFFFFFFFFFFFFFFFFF AND PUSH28 0xFFFFFFFFFFFFFFFFFFFFFFFFFFFFFFFFFFFFFFFFFFFFFFFFFFFFFFFF AND DUP4 PUSH28 0xFFFFFFFFFFFFFFFFFFFFFFFFFFFFFFFFFFFFFFFFFFFFFFFFFFFFFFFF AND DUP2 PUSH2 0x2FEB JUMPI INVALID JUMPDEST DIV SWAP1 POP SWAP3 SWAP2 POP POP JUMP JUMPDEST PUSH1 0x0 DUP3 DUP3 DUP5 ADD SWAP2 POP DUP2 LT ISZERO PUSH2 0x3071 JUMPI PUSH1 0x40 MLOAD PUSH32 0x8C379A000000000000000000000000000000000000000000000000000000000 DUP2 MSTORE PUSH1 0x4 ADD DUP1 DUP1 PUSH1 0x20 ADD DUP3 DUP2 SUB DUP3 MSTORE PUSH1 0x14 DUP2 MSTORE PUSH1 0x20 ADD DUP1 PUSH32 0x64732D6D6174682D6164642D6F766572666C6F77000000000000000000000000 DUP2 MSTORE POP PUSH1 0x20 ADD SWAP2 POP POP PUSH1 0x40 MLOAD DUP1 SWAP2 SUB SWAP1 REVERT JUMPDEST SWAP3 SWAP2 POP POP JUMP INVALID SSTORE PUSH15 0x697377617056323A20494E53554646 0x49 NUMBER 0x49 GASLIMIT 0x4E SLOAD 0x5F 0x4F SSTORE SLOAD POP SSTORE SLOAD 0x5F COINBASE 0x4D 0x4F SSTORE 0x4E SLOAD SSTORE PUSH15 0x697377617056323A20494E53554646 0x49 NUMBER 0x49 GASLIMIT 0x4E SLOAD 0x5F 0x49 0x4E POP SSTORE SLOAD 0x5F COINBASE 0x4D 0x4F SSTORE 0x4E SLOAD SSTORE PUSH15 0x697377617056323A20494E53554646 0x49 NUMBER 0x49 GASLIMIT 0x4E SLOAD 0x5F 0x4C 0x49 MLOAD SSTORE 0x49 DIFFICULTY 0x49 SLOAD MSIZE SSTORE PUSH15 0x697377617056323A20494E53554646 0x49 NUMBER 0x49 GASLIMIT 0x4E SLOAD 0x5F 0x4C 0x49 MLOAD SSTORE 0x49 DIFFICULTY 0x49 SLOAD MSIZE 0x5F TIMESTAMP SSTORE MSTORE 0x4E GASLIMIT DIFFICULTY SSTORE PUSH15 0x697377617056323A20494E53554646 0x49 NUMBER 0x49 GASLIMIT 0x4E SLOAD 0x5F 0x4C 0x49 MLOAD SSTORE 0x49 DIFFICULTY 0x49 SLOAD MSIZE 0x5F 0x4D 0x49 0x4E SLOAD GASLIMIT DIFFICULTY LOG2 PUSH5 0x6970667358 0x22 SLT KECCAK256 DUP15 PUSH2 0xAEDD 0xD0 0xFC 0xD4 PUSH9 0xA349E618F103BABFC0 NOT 0x22 0x2A SWAP7 PUSH23 0x29F6B2117D6B4030DF8064736F6C634300060C0033A264 PUSH10 0x706673582212205F78BE PC DUP15 DUP11 0x2A 0xE7 PUSH11 0x71805F3386F6EB415D7338 0xC2 0xD LT 0xB8 0xDE CODESIZE 0xB7 GT POP PUSH15 0xC06A64736F6C634300060C00330000 "
				},
				"gasEstimates": {
					"creation": {
						"codeDepositCost": "3195200",
						"executionCost": "infinite",
						"totalCost": "infinite"
					},
					"external": {
						"allPairs(uint256)": "2056",
						"allPairsLength()": "1088",
						"createPair(address,address)": "infinite",
						"feeTo()": "1045",
						"feeToSetter()": "1070",
						"getPair(address,address)": "1348",
						"setFeeTo(address)": "22037",
						"setFeeToSetter(address)": "21971"
					}
				},
				"methodIdentifiers": {
					"allPairs(uint256)": "1e3dd18b",
					"allPairsLength()": "574f2ba3",
					"createPair(address,address)": "c9c65396",
					"feeTo()": "017e7e58",
					"feeToSetter()": "094b7415",
					"getPair(address,address)": "e6a43905",
					"setFeeTo(address)": "f46901ed",
					"setFeeToSetter(address)": "a2e74af6"
				}
			},
			"storageLayout": {
				"storage": [
					{
						"astId": 281,
						"contract": "Factory.sol:UniswapV2Factory",
						"label": "feeTo",
						"offset": 0,
						"slot": "0",
						"type": "t_address"
					},
					{
						"astId": 284,
						"contract": "Factory.sol:UniswapV2Factory",
						"label": "feeToSetter",
						"offset": 0,
						"slot": "1",
						"type": "t_address"
					},
					{
						"astId": 291,
						"contract": "Factory.sol:UniswapV2Factory",
						"label": "getPair",
						"offset": 0,
						"slot": "2",
						"type": "t_mapping(t_address,t_mapping(t_address,t_address))"
					},
					{
						"astId": 295,
						"contract": "Factory.sol:UniswapV2Factory",
						"label": "allPairs",
						"offset": 0,
						"slot": "3",
						"type": "t_array(t_address)dyn_storage"
					}
				],
				"types": {
					"t_address": {
						"encoding": "inplace",
						"label": "address",
						"numberOfBytes": "20"
					},
					"t_array(t_address)dyn_storage": {
						"base": "t_address",
						"encoding": "dynamic_array",
						"label": "address[]",
						"numberOfBytes": "32"
					},
					"t_mapping(t_address,t_address)": {
						"encoding": "mapping",
						"key": "t_address",
						"label": "mapping(address => address)",
						"numberOfBytes": "32",
						"value": "t_address"
					},
					"t_mapping(t_address,t_mapping(t_address,t_address))": {
						"encoding": "mapping",
						"key": "t_address",
						"label": "mapping(address => mapping(address => address))",
						"numberOfBytes": "32",
						"value": "t_mapping(t_address,t_address)"
					}
				}
			},
			"userdoc": {
				"kind": "user",
				"methods": {},
				"version": 1
			}
		}
	}
}