{
	"LeoToken.sol": {
		"LeoToken": {
			"abi": [
				{
					"inputs": [],
					"stateMutability": "nonpayable",
					"type": "constructor"
				},
				{
					"anonymous": false,
					"inputs": [
						{
							"indexed": true,
							"internalType": "address",
							"name": "owner",
							"type": "address"
						},
						{
							"indexed": true,
							"internalType": "address",
							"name": "spender",
							"type": "address"
						},
						{
							"indexed": false,
							"internalType": "uint256",
							"name": "value",
							"type": "uint256"
						}
					],
					"name": "Approval",
					"type": "event"
				},
				{
					"anonymous": false,
					"inputs": [
						{
							"indexed": true,
							"internalType": "address",
							"name": "from",
							"type": "address"
						},
						{
							"indexed": true,
							"internalType": "address",
							"name": "to",
							"type": "address"
						},
						{
							"indexed": false,
							"internalType": "uint256",
							"name": "value",
							"type": "uint256"
						}
					],
					"name": "Transfer",
					"type": "event"
				},
				{
					"inputs": [],
					"name": "_totalSupply",
					"outputs": [
						{
							"internalType": "uint256",
							"name": "",
							"type": "uint256"
						}
					],
					"stateMutability": "view",
					"type": "function"
				},
				{
					"inputs": [
						{
							"internalType": "address",
							"name": "owner",
							"type": "address"
						},
						{
							"internalType": "address",
							"name": "spender",
							"type": "address"
						}
					],
					"name": "allowance",
					"outputs": [
						{
							"internalType": "uint256",
							"name": "",
							"type": "uint256"
						}
					],
					"stateMutability": "view",
					"type": "function"
				},
				{
					"inputs": [
						{
							"internalType": "address",
							"name": "spender",
							"type": "address"
						},
						{
							"internalType": "uint256",
							"name": "value",
							"type": "uint256"
						}
					],
					"name": "approve",
					"outputs": [
						{
							"internalType": "bool",
							"name": "",
							"type": "bool"
						}
					],
					"stateMutability": "nonpayable",
					"type": "function"
				},
				{
					"inputs": [
						{
							"internalType": "address",
							"name": "owner",
							"type": "address"
						}
					],
					"name": "balanceOf",
					"outputs": [
						{
							"internalType": "uint256",
							"name": "",
							"type": "uint256"
						}
					],
					"stateMutability": "view",
					"type": "function"
				},
				{
					"inputs": [
						{
							"internalType": "string",
							"name": "newName",
							"type": "string"
						}
					],
					"name": "changeName",
					"outputs": [
						{
							"internalType": "bool",
							"name": "",
							"type": "bool"
						}
					],
					"stateMutability": "nonpayable",
					"type": "function"
				},
				{
					"inputs": [],
					"name": "decimals",
					"outputs": [
						{
							"internalType": "uint8",
							"name": "",
							"type": "uint8"
						}
					],
					"stateMutability": "view",
					"type": "function"
				},
				{
					"inputs": [
						{
							"internalType": "address",
							"name": "spender",
							"type": "address"
						},
						{
							"internalType": "uint256",
							"name": "subtractedValue",
							"type": "uint256"
						}
					],
					"name": "decreaseAllowance",
					"outputs": [
						{
							"internalType": "bool",
							"name": "",
							"type": "bool"
						}
					],
					"stateMutability": "nonpayable",
					"type": "function"
				},
				{
					"inputs": [
						{
							"internalType": "address",
							"name": "spender",
							"type": "address"
						},
						{
							"internalType": "uint256",
							"name": "addedValue",
							"type": "uint256"
						}
					],
					"name": "increaseAllowance",
					"outputs": [
						{
							"internalType": "bool",
							"name": "",
							"type": "bool"
						}
					],
					"stateMutability": "nonpayable",
					"type": "function"
				},
				{
					"inputs": [],
					"name": "name",
					"outputs": [
						{
							"internalType": "string",
							"name": "",
							"type": "string"
						}
					],
					"stateMutability": "view",
					"type": "function"
				},
				{
					"inputs": [],
					"name": "symbol",
					"outputs": [
						{
							"internalType": "string",
							"name": "",
							"type": "string"
						}
					],
					"stateMutability": "view",
					"type": "function"
				},
				{
					"inputs": [],
					"name": "topAddress",
					"outputs": [
						{
							"internalType": "address",
							"name": "",
							"type": "address"
						}
					],
					"stateMutability": "view",
					"type": "function"
				},
				{
					"inputs": [],
					"name": "totalSupply",
					"outputs": [
						{
							"internalType": "uint256",
							"name": "",
							"type": "uint256"
						}
					],
					"stateMutability": "pure",
					"type": "function"
				},
				{
					"inputs": [
						{
							"internalType": "address",
							"name": "to",
							"type": "address"
						},
						{
							"internalType": "uint256",
							"name": "value",
							"type": "uint256"
						}
					],
					"name": "transfer",
					"outputs": [
						{
							"internalType": "bool",
							"name": "",
							"type": "bool"
						}
					],
					"stateMutability": "nonpayable",
					"type": "function"
				},
				{
					"inputs": [
						{
							"internalType": "address",
							"name": "from",
							"type": "address"
						},
						{
							"internalType": "address",
							"name": "to",
							"type": "address"
						},
						{
							"internalType": "uint256",
							"name": "value",
							"type": "uint256"
						}
					],
					"name": "transferFrom",
					"outputs": [
						{
							"internalType": "bool",
							"name": "",
							"type": "bool"
						}
					],
					"stateMutability": "nonpayable",
					"type": "function"
				}
			],
			"devdoc": {
				"kind": "dev",
				"methods": {},
				"version": 1
			},
			"evm": {
				"assembly": "    /* \"LeoToken.sol\":134:3470  contract LeoToken is IERC20 {... */\n  mstore(0x40, 0x80)\n    /* \"LeoToken.sol\":246:278  string public name = 'Leo Token' */\n  mload(0x40)\n  dup1\n  0x40\n  add\n  0x40\n  mstore\n  dup1\n  0x09\n  dup2\n  mstore\n  0x20\n  add\n  0x4c656f20546f6b656e0000000000000000000000000000000000000000000000\n  dup2\n  mstore\n  pop\n  0x00\n  swap1\n  dup1\n  mload\n  swap1\n  0x20\n  add\n  swap1\n  tag_1\n  swap3\n  swap2\n  swap1\n  tag_2\n  jump\t// in\ntag_1:\n  pop\n    /* \"LeoToken.sol\":674:823  constructor () {... */\n  callvalue\n  dup1\n  iszero\n  tag_3\n  jumpi\n  0x00\n  dup1\n  revert\ntag_3:\n  pop\n    /* \"LeoToken.sol\":236:242  10**10 */\n  0x02540be400\n    /* \"LeoToken.sol\":695:704  _balances */\n  0x02\n    /* \"LeoToken.sol\":695:716  _balances[msg.sender] */\n  0x00\n    /* \"LeoToken.sol\":705:715  msg.sender */\n  caller\n    /* \"LeoToken.sol\":695:716  _balances[msg.sender] */\n  0xffffffffffffffffffffffffffffffffffffffff\n  and\n  0xffffffffffffffffffffffffffffffffffffffff\n  and\n  dup2\n  mstore\n  0x20\n  add\n  swap1\n  dup2\n  mstore\n  0x20\n  add\n  0x00\n  keccak256\n    /* \"LeoToken.sol\":695:731  _balances[msg.sender] = _totalSupply */\n  dup2\n  swap1\n  sstore\n  pop\n    /* \"LeoToken.sol\":750:760  msg.sender */\n  caller\n    /* \"LeoToken.sol\":737:747  topAddress */\n  0x01\n  0x00\n    /* \"LeoToken.sol\":737:760  topAddress = msg.sender */\n  0x0100\n  exp\n  dup2\n  sload\n  dup2\n  0xffffffffffffffffffffffffffffffffffffffff\n  mul\n  not\n  and\n  swap1\n  dup4\n  0xffffffffffffffffffffffffffffffffffffffff\n  and\n  mul\n  or\n  swap1\n  sstore\n  pop\n    /* \"LeoToken.sol\":792:802  msg.sender */\n  caller\n    /* \"LeoToken.sol\":771:818  Transfer(address(0), msg.sender , _totalSupply) */\n  0xffffffffffffffffffffffffffffffffffffffff\n  and\n    /* \"LeoToken.sol\":788:789  0 */\n  0x00\n    /* \"LeoToken.sol\":771:818  Transfer(address(0), msg.sender , _totalSupply) */\n  0xffffffffffffffffffffffffffffffffffffffff\n  and\n  0xddf252ad1be2c89b69c2b068fc378daa952ba7f163c4a11628f55a4df523b3ef\n    /* \"LeoToken.sol\":236:242  10**10 */\n  0x02540be400\n    /* \"LeoToken.sol\":771:818  Transfer(address(0), msg.sender , _totalSupply) */\n  mload(0x40)\n  tag_6\n  swap2\n  swap1\n  tag_7\n  jump\t// in\ntag_6:\n  mload(0x40)\n  dup1\n  swap2\n  sub\n  swap1\n  log3\n    /* \"LeoToken.sol\":134:3470  contract LeoToken is IERC20 {... */\n  jump(tag_8)\ntag_2:\n  dup3\n  dup1\n  sload\n  tag_9\n  swap1\n  tag_10\n  jump\t// in\ntag_9:\n  swap1\n  0x00\n  mstore\n  keccak256(0x00, 0x20)\n  swap1\n  0x1f\n  add\n  0x20\n  swap1\n  div\n  dup2\n  add\n  swap3\n  dup3\n  tag_12\n  jumpi\n  0x00\n  dup6\n  sstore\n  jump(tag_11)\ntag_12:\n  dup3\n  0x1f\n  lt\n  tag_13\n  jumpi\n  dup1\n  mload\n  not(0xff)\n  and\n  dup4\n  dup1\n  add\n  or\n  dup6\n  sstore\n  jump(tag_11)\ntag_13:\n  dup3\n  dup1\n  add\n  0x01\n  add\n  dup6\n  sstore\n  dup3\n  iszero\n  tag_11\n  jumpi\n  swap2\n  dup3\n  add\ntag_14:\n  dup3\n  dup2\n  gt\n  iszero\n  tag_15\n  jumpi\n  dup3\n  mload\n  dup3\n  sstore\n  swap2\n  0x20\n  add\n  swap2\n  swap1\n  0x01\n  add\n  swap1\n  jump(tag_14)\ntag_15:\ntag_11:\n  pop\n  swap1\n  pop\n  tag_16\n  swap2\n  swap1\n  tag_17\n  jump\t// in\ntag_16:\n  pop\n  swap1\n  jump\t// out\ntag_17:\ntag_18:\n  dup1\n  dup3\n  gt\n  iszero\n  tag_19\n  jumpi\n  0x00\n  dup2\n  0x00\n  swap1\n  sstore\n  pop\n  0x01\n  add\n  jump(tag_18)\ntag_19:\n  pop\n  swap1\n  jump\t// out\n    /* \"#utility.yul\":7:84   */\ntag_20:\n    /* \"#utility.yul\":44:51   */\n  0x00\n    /* \"#utility.yul\":73:78   */\n  dup2\n    /* \"#utility.yul\":62:78   */\n  swap1\n  pop\n    /* \"#utility.yul\":7:84   */\n  swap2\n  swap1\n  pop\n  jump\t// out\n    /* \"#utility.yul\":90:208   */\ntag_21:\n    /* \"#utility.yul\":177:201   */\n  tag_26\n    /* \"#utility.yul\":195:200   */\n  dup2\n    /* \"#utility.yul\":177:201   */\n  tag_20\n  jump\t// in\ntag_26:\n    /* \"#utility.yul\":172:175   */\n  dup3\n    /* \"#utility.yul\":165:202   */\n  mstore\n    /* \"#utility.yul\":90:208   */\n  pop\n  pop\n  jump\t// out\n    /* \"#utility.yul\":214:436   */\ntag_7:\n    /* \"#utility.yul\":307:311   */\n  0x00\n    /* \"#utility.yul\":345:347   */\n  0x20\n    /* \"#utility.yul\":334:343   */\n  dup3\n    /* \"#utility.yul\":330:348   */\n  add\n    /* \"#utility.yul\":322:348   */\n  swap1\n  pop\n    /* \"#utility.yul\":358:429   */\n  tag_28\n    /* \"#utility.yul\":426:427   */\n  0x00\n    /* \"#utility.yul\":415:424   */\n  dup4\n    /* \"#utility.yul\":411:428   */\n  add\n    /* \"#utility.yul\":402:408   */\n  dup5\n    /* \"#utility.yul\":358:429   */\n  tag_21\n  jump\t// in\ntag_28:\n    /* \"#utility.yul\":214:436   */\n  swap3\n  swap2\n  pop\n  pop\n  jump\t// out\n    /* \"#utility.yul\":442:622   */\ntag_22:\n    /* \"#utility.yul\":490:567   */\n  0x4e487b7100000000000000000000000000000000000000000000000000000000\n    /* \"#utility.yul\":487:488   */\n  0x00\n    /* \"#utility.yul\":480:568   */\n  mstore\n    /* \"#utility.yul\":587:591   */\n  0x22\n    /* \"#utility.yul\":584:585   */\n  0x04\n    /* \"#utility.yul\":577:592   */\n  mstore\n    /* \"#utility.yul\":611:615   */\n  0x24\n    /* \"#utility.yul\":608:609   */\n  0x00\n    /* \"#utility.yul\":601:616   */\n  revert\n    /* \"#utility.yul\":628:948   */\ntag_10:\n    /* \"#utility.yul\":672:678   */\n  0x00\n    /* \"#utility.yul\":709:710   */\n  0x02\n    /* \"#utility.yul\":703:707   */\n  dup3\n    /* \"#utility.yul\":699:711   */\n  div\n    /* \"#utility.yul\":689:711   */\n  swap1\n  pop\n    /* \"#utility.yul\":756:757   */\n  0x01\n    /* \"#utility.yul\":750:754   */\n  dup3\n    /* \"#utility.yul\":746:758   */\n  and\n    /* \"#utility.yul\":777:795   */\n  dup1\n    /* \"#utility.yul\":767:848   */\n  tag_31\n  jumpi\n    /* \"#utility.yul\":833:837   */\n  0x7f\n    /* \"#utility.yul\":825:831   */\n  dup3\n    /* \"#utility.yul\":821:838   */\n  and\n    /* \"#utility.yul\":811:838   */\n  swap2\n  pop\n    /* \"#utility.yul\":767:848   */\ntag_31:\n    /* \"#utility.yul\":895:897   */\n  0x20\n    /* \"#utility.yul\":887:893   */\n  dup3\n    /* \"#utility.yul\":884:898   */\n  lt\n    /* \"#utility.yul\":864:882   */\n  dup2\n    /* \"#utility.yul\":861:899   */\n  eq\n    /* \"#utility.yul\":858:942   */\n  iszero\n  tag_32\n  jumpi\n    /* \"#utility.yul\":914:932   */\n  tag_33\n  tag_22\n  jump\t// in\ntag_33:\n    /* \"#utility.yul\":858:942   */\ntag_32:\n    /* \"#utility.yul\":679:948   */\n  pop\n    /* \"#utility.yul\":628:948   */\n  swap2\n  swap1\n  pop\n  jump\t// out\n    /* \"LeoToken.sol\":134:3470  contract LeoToken is IERC20 {... */\ntag_8:\n  dataSize(sub_0)\n  dup1\n  dataOffset(sub_0)\n  0x00\n  codecopy\n  0x00\n  return\nstop\n\nsub_0: assembly {\n        /* \"LeoToken.sol\":134:3470  contract LeoToken is IERC20 {... */\n      mstore(0x40, 0x80)\n      callvalue\n      dup1\n      iszero\n      tag_1\n      jumpi\n      0x00\n      dup1\n      revert\n    tag_1:\n      pop\n      jumpi(tag_2, lt(calldatasize, 0x04))\n      shr(0xe0, calldataload(0x00))\n      dup1\n      0x3eaaf86b\n      gt\n      tag_17\n      jumpi\n      dup1\n      0x95d89b41\n      gt\n      tag_18\n      jumpi\n      dup1\n      0x95d89b41\n      eq\n      tag_13\n      jumpi\n      dup1\n      0xa457c2d7\n      eq\n      tag_14\n      jumpi\n      dup1\n      0xa9059cbb\n      eq\n      tag_15\n      jumpi\n      dup1\n      0xdd62ed3e\n      eq\n      tag_16\n      jumpi\n      jump(tag_2)\n    tag_18:\n      dup1\n      0x3eaaf86b\n      eq\n      tag_10\n      jumpi\n      dup1\n      0x5353a2d8\n      eq\n      tag_11\n      jumpi\n      dup1\n      0x70a08231\n      eq\n      tag_12\n      jumpi\n      jump(tag_2)\n    tag_17:\n      dup1\n      0x23539224\n      gt\n      tag_19\n      jumpi\n      dup1\n      0x23539224\n      eq\n      tag_6\n      jumpi\n      dup1\n      0x23b872dd\n      eq\n      tag_7\n      jumpi\n      dup1\n      0x313ce567\n      eq\n      tag_8\n      jumpi\n      dup1\n      0x39509351\n      eq\n      tag_9\n      jumpi\n      jump(tag_2)\n    tag_19:\n      dup1\n      0x06fdde03\n      eq\n      tag_3\n      jumpi\n      dup1\n      0x095ea7b3\n      eq\n      tag_4\n      jumpi\n      dup1\n      0x18160ddd\n      eq\n      tag_5\n      jumpi\n    tag_2:\n      0x00\n      dup1\n      revert\n        /* \"LeoToken.sol\":246:278  string public name = 'Leo Token' */\n    tag_3:\n      tag_20\n      tag_21\n      jump\t// in\n    tag_20:\n      mload(0x40)\n      tag_22\n      swap2\n      swap1\n      tag_23\n      jump\t// in\n    tag_22:\n      mload(0x40)\n      dup1\n      swap2\n      sub\n      swap1\n      return\n        /* \"LeoToken.sol\":1908:2136  function approve(address spender, uint256 value) public override returns (bool) {... */\n    tag_4:\n      tag_24\n      0x04\n      dup1\n      calldatasize\n      sub\n      dup2\n      add\n      swap1\n      tag_25\n      swap2\n      swap1\n      tag_26\n      jump\t// in\n    tag_25:\n      tag_27\n      jump\t// in\n    tag_24:\n      mload(0x40)\n      tag_28\n      swap2\n      swap1\n      tag_29\n      jump\t// in\n    tag_28:\n      mload(0x40)\n      dup1\n      swap2\n      sub\n      swap1\n      return\n        /* \"LeoToken.sol\":827:921  function totalSupply() external override pure returns (uint256) {... */\n    tag_5:\n      tag_30\n      tag_31\n      jump\t// in\n    tag_30:\n      mload(0x40)\n      tag_32\n      swap2\n      swap1\n      tag_33\n      jump\t// in\n    tag_32:\n      mload(0x40)\n      dup1\n      swap2\n      sub\n      swap1\n      return\n        /* \"LeoToken.sol\":403:428  address public topAddress */\n    tag_6:\n      tag_34\n      tag_35\n      jump\t// in\n    tag_34:\n      mload(0x40)\n      tag_36\n      swap2\n      swap1\n      tag_37\n      jump\t// in\n    tag_36:\n      mload(0x40)\n      dup1\n      swap2\n      sub\n      swap1\n      return\n        /* \"LeoToken.sol\":2494:2834  function transferFrom( address from, address to, uint256 value) public override returns (bool){... */\n    tag_7:\n      tag_38\n      0x04\n      dup1\n      calldatasize\n      sub\n      dup2\n      add\n      swap1\n      tag_39\n      swap2\n      swap1\n      tag_40\n      jump\t// in\n    tag_39:\n      tag_41\n      jump\t// in\n    tag_38:\n      mload(0x40)\n      tag_42\n      swap2\n      swap1\n      tag_29\n      jump\t// in\n    tag_42:\n      mload(0x40)\n      dup1\n      swap2\n      sub\n      swap1\n      return\n        /* \"LeoToken.sol\":282:317  uint8 public constant decimals = 10 */\n    tag_8:\n      tag_43\n      tag_44\n      jump\t// in\n    tag_43:\n      mload(0x40)\n      tag_45\n      swap2\n      swap1\n      tag_46\n      jump\t// in\n    tag_45:\n      mload(0x40)\n      dup1\n      swap2\n      sub\n      swap1\n      return\n        /* \"LeoToken.sol\":2838:3147  function increaseAllowance( address spender, uint256 addedValue ) public returns (bool){... */\n    tag_9:\n      tag_47\n      0x04\n      dup1\n      calldatasize\n      sub\n      dup2\n      add\n      swap1\n      tag_48\n      swap2\n      swap1\n      tag_26\n      jump\t// in\n    tag_48:\n      tag_49\n      jump\t// in\n    tag_47:\n      mload(0x40)\n      tag_50\n      swap2\n      swap1\n      tag_29\n      jump\t// in\n    tag_50:\n      mload(0x40)\n      dup1\n      swap2\n      sub\n      swap1\n      return\n        /* \"LeoToken.sol\":197:242  uint256 public constant _totalSupply = 10**10 */\n    tag_10:\n      tag_51\n      tag_52\n      jump\t// in\n    tag_51:\n      mload(0x40)\n      tag_53\n      swap2\n      swap1\n      tag_33\n      jump\t// in\n    tag_53:\n      mload(0x40)\n      dup1\n      swap2\n      sub\n      swap1\n      return\n        /* \"LeoToken.sol\":1036:1204  function changeName(string memory newName) public returns (bool) {... */\n    tag_11:\n      tag_54\n      0x04\n      dup1\n      calldatasize\n      sub\n      dup2\n      add\n      swap1\n      tag_55\n      swap2\n      swap1\n      tag_56\n      jump\t// in\n    tag_55:\n      tag_57\n      jump\t// in\n    tag_54:\n      mload(0x40)\n      tag_58\n      swap2\n      swap1\n      tag_29\n      jump\t// in\n    tag_58:\n      mload(0x40)\n      dup1\n      swap2\n      sub\n      swap1\n      return\n        /* \"LeoToken.sol\":925:1032  function balanceOf(address owner) public override view returns (uint256) {... */\n    tag_12:\n      tag_59\n      0x04\n      dup1\n      calldatasize\n      sub\n      dup2\n      add\n      swap1\n      tag_60\n      swap2\n      swap1\n      tag_61\n      jump\t// in\n    tag_60:\n      tag_62\n      jump\t// in\n    tag_59:\n      mload(0x40)\n      tag_63\n      swap2\n      swap1\n      tag_33\n      jump\t// in\n    tag_63:\n      mload(0x40)\n      dup1\n      swap2\n      sub\n      swap1\n      return\n        /* \"LeoToken.sol\":321:358  string public constant symbol = 'LEO' */\n    tag_13:\n      tag_64\n      tag_65\n      jump\t// in\n    tag_64:\n      mload(0x40)\n      tag_66\n      swap2\n      swap1\n      tag_23\n      jump\t// in\n    tag_66:\n      mload(0x40)\n      dup1\n      swap2\n      sub\n      swap1\n      return\n        /* \"LeoToken.sol\":3151:3467  function decreaseAllowance(address spender,uint256 subtractedValue) public returns (bool){... */\n    tag_14:\n      tag_67\n      0x04\n      dup1\n      calldatasize\n      sub\n      dup2\n      add\n      swap1\n      tag_68\n      swap2\n      swap1\n      tag_26\n      jump\t// in\n    tag_68:\n      tag_69\n      jump\t// in\n    tag_67:\n      mload(0x40)\n      tag_70\n      swap2\n      swap1\n      tag_29\n      jump\t// in\n    tag_70:\n      mload(0x40)\n      dup1\n      swap2\n      sub\n      swap1\n      return\n        /* \"LeoToken.sol\":1431:1904  function transfer(address to, uint256 value) public override returns (bool) {... */\n    tag_15:\n      tag_71\n      0x04\n      dup1\n      calldatasize\n      sub\n      dup2\n      add\n      swap1\n      tag_72\n      swap2\n      swap1\n      tag_26\n      jump\t// in\n    tag_72:\n      tag_73\n      jump\t// in\n    tag_71:\n      mload(0x40)\n      tag_74\n      swap2\n      swap1\n      tag_29\n      jump\t// in\n    tag_74:\n      mload(0x40)\n      dup1\n      swap2\n      sub\n      swap1\n      return\n        /* \"LeoToken.sol\":1298:1427  function allowance(address owner,address spender)public override view returns (uint256){... */\n    tag_16:\n      tag_75\n      0x04\n      dup1\n      calldatasize\n      sub\n      dup2\n      add\n      swap1\n      tag_76\n      swap2\n      swap1\n      tag_77\n      jump\t// in\n    tag_76:\n      tag_78\n      jump\t// in\n    tag_75:\n      mload(0x40)\n      tag_79\n      swap2\n      swap1\n      tag_33\n      jump\t// in\n    tag_79:\n      mload(0x40)\n      dup1\n      swap2\n      sub\n      swap1\n      return\n        /* \"LeoToken.sol\":246:278  string public name = 'Leo Token' */\n    tag_21:\n      0x00\n      dup1\n      sload\n      tag_80\n      swap1\n      tag_81\n      jump\t// in\n    tag_80:\n      dup1\n      0x1f\n      add\n      0x20\n      dup1\n      swap2\n      div\n      mul\n      0x20\n      add\n      mload(0x40)\n      swap1\n      dup2\n      add\n      0x40\n      mstore\n      dup1\n      swap3\n      swap2\n      swap1\n      dup2\n      dup2\n      mstore\n      0x20\n      add\n      dup3\n      dup1\n      sload\n      tag_82\n      swap1\n      tag_81\n      jump\t// in\n    tag_82:\n      dup1\n      iszero\n      tag_83\n      jumpi\n      dup1\n      0x1f\n      lt\n      tag_84\n      jumpi\n      0x0100\n      dup1\n      dup4\n      sload\n      div\n      mul\n      dup4\n      mstore\n      swap2\n      0x20\n      add\n      swap2\n      jump(tag_83)\n    tag_84:\n      dup3\n      add\n      swap2\n      swap1\n      0x00\n      mstore\n      keccak256(0x00, 0x20)\n      swap1\n    tag_85:\n      dup2\n      sload\n      dup2\n      mstore\n      swap1\n      0x01\n      add\n      swap1\n      0x20\n      add\n      dup1\n      dup4\n      gt\n      tag_85\n      jumpi\n      dup3\n      swap1\n      sub\n      0x1f\n      and\n      dup3\n      add\n      swap2\n    tag_83:\n      pop\n      pop\n      pop\n      pop\n      pop\n      dup2\n      jump\t// out\n        /* \"LeoToken.sol\":1908:2136  function approve(address spender, uint256 value) public override returns (bool) {... */\n    tag_27:\n        /* \"LeoToken.sol\":1982:1986  bool */\n      0x00\n        /* \"LeoToken.sol\":2021:2022  0 */\n      dup1\n        /* \"LeoToken.sol\":2002:2023  spender != address(0) */\n      0xffffffffffffffffffffffffffffffffffffffff\n      and\n        /* \"LeoToken.sol\":2002:2009  spender */\n      dup4\n        /* \"LeoToken.sol\":2002:2023  spender != address(0) */\n      0xffffffffffffffffffffffffffffffffffffffff\n      and\n      eq\n      iszero\n        /* \"LeoToken.sol\":1994:2024  require(spender != address(0)) */\n      tag_87\n      jumpi\n      0x00\n      dup1\n      revert\n    tag_87:\n        /* \"LeoToken.sol\":2062:2067  value */\n      dup2\n        /* \"LeoToken.sol\":2030:2038  _allowed */\n      0x03\n        /* \"LeoToken.sol\":2030:2050  _allowed[msg.sender] */\n      0x00\n        /* \"LeoToken.sol\":2039:2049  msg.sender */\n      caller\n        /* \"LeoToken.sol\":2030:2050  _allowed[msg.sender] */\n      0xffffffffffffffffffffffffffffffffffffffff\n      and\n      0xffffffffffffffffffffffffffffffffffffffff\n      and\n      dup2\n      mstore\n      0x20\n      add\n      swap1\n      dup2\n      mstore\n      0x20\n      add\n      0x00\n      keccak256\n        /* \"LeoToken.sol\":2030:2059  _allowed[msg.sender][spender] */\n      0x00\n        /* \"LeoToken.sol\":2051:2058  spender */\n      dup6\n        /* \"LeoToken.sol\":2030:2059  _allowed[msg.sender][spender] */\n      0xffffffffffffffffffffffffffffffffffffffff\n      and\n      0xffffffffffffffffffffffffffffffffffffffff\n      and\n      dup2\n      mstore\n      0x20\n      add\n      swap1\n      dup2\n      mstore\n      0x20\n      add\n      0x00\n      keccak256\n        /* \"LeoToken.sol\":2030:2067  _allowed[msg.sender][spender] = value */\n      dup2\n      swap1\n      sstore\n      pop\n        /* \"LeoToken.sol\":2099:2106  spender */\n      dup3\n        /* \"LeoToken.sol\":2078:2114  Approval(msg.sender, spender, value) */\n      0xffffffffffffffffffffffffffffffffffffffff\n      and\n        /* \"LeoToken.sol\":2087:2097  msg.sender */\n      caller\n        /* \"LeoToken.sol\":2078:2114  Approval(msg.sender, spender, value) */\n      0xffffffffffffffffffffffffffffffffffffffff\n      and\n      0x8c5be1e5ebec7d5bd14f71427d1e84f3dd0314c0f7b2291e5b200ac8c7c3b925\n        /* \"LeoToken.sol\":2108:2113  value */\n      dup5\n        /* \"LeoToken.sol\":2078:2114  Approval(msg.sender, spender, value) */\n      mload(0x40)\n      tag_88\n      swap2\n      swap1\n      tag_33\n      jump\t// in\n    tag_88:\n      mload(0x40)\n      dup1\n      swap2\n      sub\n      swap1\n      log3\n        /* \"LeoToken.sol\":2127:2131  true */\n      0x01\n        /* \"LeoToken.sol\":2120:2131  return true */\n      swap1\n      pop\n        /* \"LeoToken.sol\":1908:2136  function approve(address spender, uint256 value) public override returns (bool) {... */\n      swap3\n      swap2\n      pop\n      pop\n      jump\t// out\n        /* \"LeoToken.sol\":827:921  function totalSupply() external override pure returns (uint256) {... */\n    tag_31:\n        /* \"LeoToken.sol\":882:889  uint256 */\n      0x00\n        /* \"LeoToken.sol\":236:242  10**10 */\n      0x02540be400\n        /* \"LeoToken.sol\":897:916  return _totalSupply */\n      swap1\n      pop\n        /* \"LeoToken.sol\":827:921  function totalSupply() external override pure returns (uint256) {... */\n      swap1\n      jump\t// out\n        /* \"LeoToken.sol\":403:428  address public topAddress */\n    tag_35:\n      0x01\n      0x00\n      swap1\n      sload\n      swap1\n      0x0100\n      exp\n      swap1\n      div\n      0xffffffffffffffffffffffffffffffffffffffff\n      and\n      dup2\n      jump\t// out\n        /* \"LeoToken.sol\":2494:2834  function transferFrom( address from, address to, uint256 value) public override returns (bool){... */\n    tag_41:\n        /* \"LeoToken.sol\":2583:2587  bool */\n      0x00\n        /* \"LeoToken.sol\":2611:2620  _balances */\n      0x02\n        /* \"LeoToken.sol\":2611:2626  _balances[from] */\n      0x00\n        /* \"LeoToken.sol\":2621:2625  from */\n      dup6\n        /* \"LeoToken.sol\":2611:2626  _balances[from] */\n      0xffffffffffffffffffffffffffffffffffffffff\n      and\n      0xffffffffffffffffffffffffffffffffffffffff\n      and\n      dup2\n      mstore\n      0x20\n      add\n      swap1\n      dup2\n      mstore\n      0x20\n      add\n      0x00\n      keccak256\n      sload\n        /* \"LeoToken.sol\":2602:2607  value */\n      dup3\n        /* \"LeoToken.sol\":2602:2626  value <= _balances[from] */\n      gt\n      iszero\n        /* \"LeoToken.sol\":2594:2627  require(value <= _balances[from]) */\n      tag_91\n      jumpi\n      0x00\n      dup1\n      revert\n    tag_91:\n        /* \"LeoToken.sol\":2650:2658  _allowed */\n      0x03\n        /* \"LeoToken.sol\":2650:2664  _allowed[from] */\n      0x00\n        /* \"LeoToken.sol\":2659:2663  from */\n      dup6\n        /* \"LeoToken.sol\":2650:2664  _allowed[from] */\n      0xffffffffffffffffffffffffffffffffffffffff\n      and\n      0xffffffffffffffffffffffffffffffffffffffff\n      and\n      dup2\n      mstore\n      0x20\n      add\n      swap1\n      dup2\n      mstore\n      0x20\n      add\n      0x00\n      keccak256\n        /* \"LeoToken.sol\":2650:2676  _allowed[from][msg.sender] */\n      0x00\n        /* \"LeoToken.sol\":2665:2675  msg.sender */\n      caller\n        /* \"LeoToken.sol\":2650:2676  _allowed[from][msg.sender] */\n      0xffffffffffffffffffffffffffffffffffffffff\n      and\n      0xffffffffffffffffffffffffffffffffffffffff\n      and\n      dup2\n      mstore\n      0x20\n      add\n      swap1\n      dup2\n      mstore\n      0x20\n      add\n      0x00\n      keccak256\n      sload\n        /* \"LeoToken.sol\":2641:2646  value */\n      dup3\n        /* \"LeoToken.sol\":2641:2676  value <= _allowed[from][msg.sender] */\n      gt\n      iszero\n        /* \"LeoToken.sol\":2633:2677  require(value <= _allowed[from][msg.sender]) */\n      tag_92\n      jumpi\n      0x00\n      dup1\n      revert\n    tag_92:\n        /* \"LeoToken.sol\":2705:2706  0 */\n      0x00\n        /* \"LeoToken.sol\":2691:2707  to != address(0) */\n      0xffffffffffffffffffffffffffffffffffffffff\n      and\n        /* \"LeoToken.sol\":2691:2693  to */\n      dup4\n        /* \"LeoToken.sol\":2691:2707  to != address(0) */\n      0xffffffffffffffffffffffffffffffffffffffff\n      and\n      eq\n      iszero\n        /* \"LeoToken.sol\":2683:2708  require(to != address(0)) */\n      tag_93\n      jumpi\n      0x00\n      dup1\n      revert\n    tag_93:\n        /* \"LeoToken.sol\":2743:2780  _allowed[from][msg.sender].sub(value) */\n      tag_94\n        /* \"LeoToken.sol\":2774:2779  value */\n      dup3\n        /* \"LeoToken.sol\":2743:2751  _allowed */\n      0x03\n        /* \"LeoToken.sol\":2743:2757  _allowed[from] */\n      0x00\n        /* \"LeoToken.sol\":2752:2756  from */\n      dup8\n        /* \"LeoToken.sol\":2743:2757  _allowed[from] */\n      0xffffffffffffffffffffffffffffffffffffffff\n      and\n      0xffffffffffffffffffffffffffffffffffffffff\n      and\n      dup2\n      mstore\n      0x20\n      add\n      swap1\n      dup2\n      mstore\n      0x20\n      add\n      0x00\n      keccak256\n        /* \"LeoToken.sol\":2743:2769  _allowed[from][msg.sender] */\n      0x00\n        /* \"LeoToken.sol\":2758:2768  msg.sender */\n      caller\n        /* \"LeoToken.sol\":2743:2769  _allowed[from][msg.sender] */\n      0xffffffffffffffffffffffffffffffffffffffff\n      and\n      0xffffffffffffffffffffffffffffffffffffffff\n      and\n      dup2\n      mstore\n      0x20\n      add\n      swap1\n      dup2\n      mstore\n      0x20\n      add\n      0x00\n      keccak256\n      sload\n        /* \"LeoToken.sol\":2743:2773  _allowed[from][msg.sender].sub */\n      tag_95\n      swap1\n        /* \"LeoToken.sol\":2743:2780  _allowed[from][msg.sender].sub(value) */\n      swap2\n      swap1\n      0xffffffff\n      and\n      jump\t// in\n    tag_94:\n        /* \"LeoToken.sol\":2714:2722  _allowed */\n      0x03\n        /* \"LeoToken.sol\":2714:2728  _allowed[from] */\n      0x00\n        /* \"LeoToken.sol\":2723:2727  from */\n      dup7\n        /* \"LeoToken.sol\":2714:2728  _allowed[from] */\n      0xffffffffffffffffffffffffffffffffffffffff\n      and\n      0xffffffffffffffffffffffffffffffffffffffff\n      and\n      dup2\n      mstore\n      0x20\n      add\n      swap1\n      dup2\n      mstore\n      0x20\n      add\n      0x00\n      keccak256\n        /* \"LeoToken.sol\":2714:2740  _allowed[from][msg.sender] */\n      0x00\n        /* \"LeoToken.sol\":2729:2739  msg.sender */\n      caller\n        /* \"LeoToken.sol\":2714:2740  _allowed[from][msg.sender] */\n      0xffffffffffffffffffffffffffffffffffffffff\n      and\n      0xffffffffffffffffffffffffffffffffffffffff\n      and\n      dup2\n      mstore\n      0x20\n      add\n      swap1\n      dup2\n      mstore\n      0x20\n      add\n      0x00\n      keccak256\n        /* \"LeoToken.sol\":2714:2780  _allowed[from][msg.sender] = _allowed[from][msg.sender].sub(value) */\n      dup2\n      swap1\n      sstore\n      pop\n        /* \"LeoToken.sol\":2786:2812  _transfer(from, to, value) */\n      tag_96\n        /* \"LeoToken.sol\":2796:2800  from */\n      dup5\n        /* \"LeoToken.sol\":2802:2804  to */\n      dup5\n        /* \"LeoToken.sol\":2806:2811  value */\n      dup5\n        /* \"LeoToken.sol\":2786:2795  _transfer */\n      tag_97\n        /* \"LeoToken.sol\":2786:2812  _transfer(from, to, value) */\n      jump\t// in\n    tag_96:\n        /* \"LeoToken.sol\":2825:2829  true */\n      0x01\n        /* \"LeoToken.sol\":2818:2829  return true */\n      swap1\n      pop\n        /* \"LeoToken.sol\":2494:2834  function transferFrom( address from, address to, uint256 value) public override returns (bool){... */\n      swap4\n      swap3\n      pop\n      pop\n      pop\n      jump\t// out\n        /* \"LeoToken.sol\":282:317  uint8 public constant decimals = 10 */\n    tag_44:\n        /* \"LeoToken.sol\":315:317  10 */\n      0x0a\n        /* \"LeoToken.sol\":282:317  uint8 public constant decimals = 10 */\n      dup2\n      jump\t// out\n        /* \"LeoToken.sol\":2838:3147  function increaseAllowance( address spender, uint256 addedValue ) public returns (bool){... */\n    tag_49:\n        /* \"LeoToken.sol\":2920:2924  bool */\n      0x00\n        /* \"LeoToken.sol\":2958:2959  0 */\n      dup1\n        /* \"LeoToken.sol\":2939:2960  spender != address(0) */\n      0xffffffffffffffffffffffffffffffffffffffff\n      and\n        /* \"LeoToken.sol\":2939:2946  spender */\n      dup4\n        /* \"LeoToken.sol\":2939:2960  spender != address(0) */\n      0xffffffffffffffffffffffffffffffffffffffff\n      and\n      eq\n      iszero\n        /* \"LeoToken.sol\":2931:2961  require(spender != address(0)) */\n      tag_99\n      jumpi\n      0x00\n      dup1\n      revert\n    tag_99:\n        /* \"LeoToken.sol\":3008:3053  _allowed[msg.sender][spender].add(addedValue) */\n      tag_100\n        /* \"LeoToken.sol\":3042:3052  addedValue */\n      dup3\n        /* \"LeoToken.sol\":3008:3016  _allowed */\n      0x03\n        /* \"LeoToken.sol\":3008:3028  _allowed[msg.sender] */\n      0x00\n        /* \"LeoToken.sol\":3017:3027  msg.sender */\n      caller\n        /* \"LeoToken.sol\":3008:3028  _allowed[msg.sender] */\n      0xffffffffffffffffffffffffffffffffffffffff\n      and\n      0xffffffffffffffffffffffffffffffffffffffff\n      and\n      dup2\n      mstore\n      0x20\n      add\n      swap1\n      dup2\n      mstore\n      0x20\n      add\n      0x00\n      keccak256\n        /* \"LeoToken.sol\":3008:3037  _allowed[msg.sender][spender] */\n      0x00\n        /* \"LeoToken.sol\":3029:3036  spender */\n      dup7\n        /* \"LeoToken.sol\":3008:3037  _allowed[msg.sender][spender] */\n      0xffffffffffffffffffffffffffffffffffffffff\n      and\n      0xffffffffffffffffffffffffffffffffffffffff\n      and\n      dup2\n      mstore\n      0x20\n      add\n      swap1\n      dup2\n      mstore\n      0x20\n      add\n      0x00\n      keccak256\n      sload\n        /* \"LeoToken.sol\":3008:3041  _allowed[msg.sender][spender].add */\n      tag_101\n      swap1\n        /* \"LeoToken.sol\":3008:3053  _allowed[msg.sender][spender].add(addedValue) */\n      swap2\n      swap1\n      0xffffffff\n      and\n      jump\t// in\n    tag_100:\n        /* \"LeoToken.sol\":2968:2976  _allowed */\n      0x03\n        /* \"LeoToken.sol\":2968:2988  _allowed[msg.sender] */\n      0x00\n        /* \"LeoToken.sol\":2977:2987  msg.sender */\n      caller\n        /* \"LeoToken.sol\":2968:2988  _allowed[msg.sender] */\n      0xffffffffffffffffffffffffffffffffffffffff\n      and\n      0xffffffffffffffffffffffffffffffffffffffff\n      and\n      dup2\n      mstore\n      0x20\n      add\n      swap1\n      dup2\n      mstore\n      0x20\n      add\n      0x00\n      keccak256\n        /* \"LeoToken.sol\":2968:2997  _allowed[msg.sender][spender] */\n      0x00\n        /* \"LeoToken.sol\":2989:2996  spender */\n      dup6\n        /* \"LeoToken.sol\":2968:2997  _allowed[msg.sender][spender] */\n      0xffffffffffffffffffffffffffffffffffffffff\n      and\n      0xffffffffffffffffffffffffffffffffffffffff\n      and\n      dup2\n      mstore\n      0x20\n      add\n      swap1\n      dup2\n      mstore\n      0x20\n      add\n      0x00\n      keccak256\n        /* \"LeoToken.sol\":2968:3054  _allowed[msg.sender][spender] = (... */\n      dup2\n      swap1\n      sstore\n      pop\n        /* \"LeoToken.sol\":3086:3093  spender */\n      dup3\n        /* \"LeoToken.sol\":3065:3125  Approval(msg.sender, spender, _allowed[msg.sender][spender]) */\n      0xffffffffffffffffffffffffffffffffffffffff\n      and\n        /* \"LeoToken.sol\":3074:3084  msg.sender */\n      caller\n        /* \"LeoToken.sol\":3065:3125  Approval(msg.sender, spender, _allowed[msg.sender][spender]) */\n      0xffffffffffffffffffffffffffffffffffffffff\n      and\n      0x8c5be1e5ebec7d5bd14f71427d1e84f3dd0314c0f7b2291e5b200ac8c7c3b925\n        /* \"LeoToken.sol\":3095:3103  _allowed */\n      0x03\n        /* \"LeoToken.sol\":3095:3115  _allowed[msg.sender] */\n      0x00\n        /* \"LeoToken.sol\":3104:3114  msg.sender */\n      caller\n        /* \"LeoToken.sol\":3095:3115  _allowed[msg.sender] */\n      0xffffffffffffffffffffffffffffffffffffffff\n      and\n      0xffffffffffffffffffffffffffffffffffffffff\n      and\n      dup2\n      mstore\n      0x20\n      add\n      swap1\n      dup2\n      mstore\n      0x20\n      add\n      0x00\n      keccak256\n        /* \"LeoToken.sol\":3095:3124  _allowed[msg.sender][spender] */\n      0x00\n        /* \"LeoToken.sol\":3116:3123  spender */\n      dup8\n        /* \"LeoToken.sol\":3095:3124  _allowed[msg.sender][spender] */\n      0xffffffffffffffffffffffffffffffffffffffff\n      and\n      0xffffffffffffffffffffffffffffffffffffffff\n      and\n      dup2\n      mstore\n      0x20\n      add\n      swap1\n      dup2\n      mstore\n      0x20\n      add\n      0x00\n      keccak256\n      sload\n        /* \"LeoToken.sol\":3065:3125  Approval(msg.sender, spender, _allowed[msg.sender][spender]) */\n      mload(0x40)\n      tag_102\n      swap2\n      swap1\n      tag_33\n      jump\t// in\n    tag_102:\n      mload(0x40)\n      dup1\n      swap2\n      sub\n      swap1\n      log3\n        /* \"LeoToken.sol\":3138:3142  true */\n      0x01\n        /* \"LeoToken.sol\":3131:3142  return true */\n      swap1\n      pop\n        /* \"LeoToken.sol\":2838:3147  function increaseAllowance( address spender, uint256 addedValue ) public returns (bool){... */\n      swap3\n      swap2\n      pop\n      pop\n      jump\t// out\n        /* \"LeoToken.sol\":197:242  uint256 public constant _totalSupply = 10**10 */\n    tag_52:\n        /* \"LeoToken.sol\":236:242  10**10 */\n      0x02540be400\n        /* \"LeoToken.sol\":197:242  uint256 public constant _totalSupply = 10**10 */\n      dup2\n      jump\t// out\n        /* \"LeoToken.sol\":1036:1204  function changeName(string memory newName) public returns (bool) {... */\n    tag_57:\n        /* \"LeoToken.sol\":1095:1099  bool */\n      0x00\n        /* \"LeoToken.sol\":1140:1149  _balances */\n      0x02\n        /* \"LeoToken.sol\":1140:1161  _balances[topAddress] */\n      0x00\n        /* \"LeoToken.sol\":1150:1160  topAddress */\n      0x01\n      0x00\n      swap1\n      sload\n      swap1\n      0x0100\n      exp\n      swap1\n      div\n      0xffffffffffffffffffffffffffffffffffffffff\n      and\n        /* \"LeoToken.sol\":1140:1161  _balances[topAddress] */\n      0xffffffffffffffffffffffffffffffffffffffff\n      and\n      0xffffffffffffffffffffffffffffffffffffffff\n      and\n      dup2\n      mstore\n      0x20\n      add\n      swap1\n      dup2\n      mstore\n      0x20\n      add\n      0x00\n      keccak256\n      sload\n        /* \"LeoToken.sol\":1115:1124  _balances */\n      0x02\n        /* \"LeoToken.sol\":1115:1136  _balances[msg.sender] */\n      0x00\n        /* \"LeoToken.sol\":1125:1135  msg.sender */\n      caller\n        /* \"LeoToken.sol\":1115:1136  _balances[msg.sender] */\n      0xffffffffffffffffffffffffffffffffffffffff\n      and\n      0xffffffffffffffffffffffffffffffffffffffff\n      and\n      dup2\n      mstore\n      0x20\n      add\n      swap1\n      dup2\n      mstore\n      0x20\n      add\n      0x00\n      keccak256\n      sload\n        /* \"LeoToken.sol\":1115:1161  _balances[msg.sender] >= _balances[topAddress] */\n      lt\n      iszero\n        /* \"LeoToken.sol\":1107:1162  require(_balances[msg.sender] >= _balances[topAddress]) */\n      tag_104\n      jumpi\n      0x00\n      dup1\n      revert\n    tag_104:\n        /* \"LeoToken.sol\":1175:1182  newName */\n      dup2\n        /* \"LeoToken.sol\":1168:1172  name */\n      0x00\n        /* \"LeoToken.sol\":1168:1182  name = newName */\n      swap1\n      dup1\n      mload\n      swap1\n      0x20\n      add\n      swap1\n      tag_105\n      swap3\n      swap2\n      swap1\n      tag_106\n      jump\t// in\n    tag_105:\n      pop\n        /* \"LeoToken.sol\":1195:1199  true */\n      0x01\n        /* \"LeoToken.sol\":1188:1199  return true */\n      swap1\n      pop\n        /* \"LeoToken.sol\":1036:1204  function changeName(string memory newName) public returns (bool) {... */\n      swap2\n      swap1\n      pop\n      jump\t// out\n        /* \"LeoToken.sol\":925:1032  function balanceOf(address owner) public override view returns (uint256) {... */\n    tag_62:\n        /* \"LeoToken.sol\":989:996  uint256 */\n      0x00\n        /* \"LeoToken.sol\":1011:1020  _balances */\n      0x02\n        /* \"LeoToken.sol\":1011:1027  _balances[owner] */\n      0x00\n        /* \"LeoToken.sol\":1021:1026  owner */\n      dup4\n        /* \"LeoToken.sol\":1011:1027  _balances[owner] */\n      0xffffffffffffffffffffffffffffffffffffffff\n      and\n      0xffffffffffffffffffffffffffffffffffffffff\n      and\n      dup2\n      mstore\n      0x20\n      add\n      swap1\n      dup2\n      mstore\n      0x20\n      add\n      0x00\n      keccak256\n      sload\n        /* \"LeoToken.sol\":1004:1027  return _balances[owner] */\n      swap1\n      pop\n        /* \"LeoToken.sol\":925:1032  function balanceOf(address owner) public override view returns (uint256) {... */\n      swap2\n      swap1\n      pop\n      jump\t// out\n        /* \"LeoToken.sol\":321:358  string public constant symbol = 'LEO' */\n    tag_65:\n      mload(0x40)\n      dup1\n      0x40\n      add\n      0x40\n      mstore\n      dup1\n      0x03\n      dup2\n      mstore\n      0x20\n      add\n      0x4c454f0000000000000000000000000000000000000000000000000000000000\n      dup2\n      mstore\n      pop\n      dup2\n      jump\t// out\n        /* \"LeoToken.sol\":3151:3467  function decreaseAllowance(address spender,uint256 subtractedValue) public returns (bool){... */\n    tag_69:\n        /* \"LeoToken.sol\":3235:3239  bool */\n      0x00\n        /* \"LeoToken.sol\":3273:3274  0 */\n      dup1\n        /* \"LeoToken.sol\":3254:3275  spender != address(0) */\n      0xffffffffffffffffffffffffffffffffffffffff\n      and\n        /* \"LeoToken.sol\":3254:3261  spender */\n      dup4\n        /* \"LeoToken.sol\":3254:3275  spender != address(0) */\n      0xffffffffffffffffffffffffffffffffffffffff\n      and\n      eq\n      iszero\n        /* \"LeoToken.sol\":3246:3276  require(spender != address(0)) */\n      tag_109\n      jumpi\n      0x00\n      dup1\n      revert\n    tag_109:\n        /* \"LeoToken.sol\":3323:3373  _allowed[msg.sender][spender].sub(subtractedValue) */\n      tag_110\n        /* \"LeoToken.sol\":3357:3372  subtractedValue */\n      dup3\n        /* \"LeoToken.sol\":3323:3331  _allowed */\n      0x03\n        /* \"LeoToken.sol\":3323:3343  _allowed[msg.sender] */\n      0x00\n        /* \"LeoToken.sol\":3332:3342  msg.sender */\n      caller\n        /* \"LeoToken.sol\":3323:3343  _allowed[msg.sender] */\n      0xffffffffffffffffffffffffffffffffffffffff\n      and\n      0xffffffffffffffffffffffffffffffffffffffff\n      and\n      dup2\n      mstore\n      0x20\n      add\n      swap1\n      dup2\n      mstore\n      0x20\n      add\n      0x00\n      keccak256\n        /* \"LeoToken.sol\":3323:3352  _allowed[msg.sender][spender] */\n      0x00\n        /* \"LeoToken.sol\":3344:3351  spender */\n      dup7\n        /* \"LeoToken.sol\":3323:3352  _allowed[msg.sender][spender] */\n      0xffffffffffffffffffffffffffffffffffffffff\n      and\n      0xffffffffffffffffffffffffffffffffffffffff\n      and\n      dup2\n      mstore\n      0x20\n      add\n      swap1\n      dup2\n      mstore\n      0x20\n      add\n      0x00\n      keccak256\n      sload\n        /* \"LeoToken.sol\":3323:3356  _allowed[msg.sender][spender].sub */\n      tag_95\n      swap1\n        /* \"LeoToken.sol\":3323:3373  _allowed[msg.sender][spender].sub(subtractedValue) */\n      swap2\n      swap1\n      0xffffffff\n      and\n      jump\t// in\n    tag_110:\n        /* \"LeoToken.sol\":3283:3291  _allowed */\n      0x03\n        /* \"LeoToken.sol\":3283:3303  _allowed[msg.sender] */\n      0x00\n        /* \"LeoToken.sol\":3292:3302  msg.sender */\n      caller\n        /* \"LeoToken.sol\":3283:3303  _allowed[msg.sender] */\n      0xffffffffffffffffffffffffffffffffffffffff\n      and\n      0xffffffffffffffffffffffffffffffffffffffff\n      and\n      dup2\n      mstore\n      0x20\n      add\n      swap1\n      dup2\n      mstore\n      0x20\n      add\n      0x00\n      keccak256\n        /* \"LeoToken.sol\":3283:3312  _allowed[msg.sender][spender] */\n      0x00\n        /* \"LeoToken.sol\":3304:3311  spender */\n      dup6\n        /* \"LeoToken.sol\":3283:3312  _allowed[msg.sender][spender] */\n      0xffffffffffffffffffffffffffffffffffffffff\n      and\n      0xffffffffffffffffffffffffffffffffffffffff\n      and\n      dup2\n      mstore\n      0x20\n      add\n      swap1\n      dup2\n      mstore\n      0x20\n      add\n      0x00\n      keccak256\n        /* \"LeoToken.sol\":3283:3374  _allowed[msg.sender][spender] = (... */\n      dup2\n      swap1\n      sstore\n      pop\n        /* \"LeoToken.sol\":3406:3413  spender */\n      dup3\n        /* \"LeoToken.sol\":3385:3445  Approval(msg.sender, spender, _allowed[msg.sender][spender]) */\n      0xffffffffffffffffffffffffffffffffffffffff\n      and\n        /* \"LeoToken.sol\":3394:3404  msg.sender */\n      caller\n        /* \"LeoToken.sol\":3385:3445  Approval(msg.sender, spender, _allowed[msg.sender][spender]) */\n      0xffffffffffffffffffffffffffffffffffffffff\n      and\n      0x8c5be1e5ebec7d5bd14f71427d1e84f3dd0314c0f7b2291e5b200ac8c7c3b925\n        /* \"LeoToken.sol\":3415:3423  _allowed */\n      0x03\n        /* \"LeoToken.sol\":3415:3435  _allowed[msg.sender] */\n      0x00\n        /* \"LeoToken.sol\":3424:3434  msg.sender */\n      caller\n        /* \"LeoToken.sol\":3415:3435  _allowed[msg.sender] */\n      0xffffffffffffffffffffffffffffffffffffffff\n      and\n      0xffffffffffffffffffffffffffffffffffffffff\n      and\n      dup2\n      mstore\n      0x20\n      add\n      swap1\n      dup2\n      mstore\n      0x20\n      add\n      0x00\n      keccak256\n        /* \"LeoToken.sol\":3415:3444  _allowed[msg.sender][spender] */\n      0x00\n        /* \"LeoToken.sol\":3436:3443  spender */\n      dup8\n        /* \"LeoToken.sol\":3415:3444  _allowed[msg.sender][spender] */\n      0xffffffffffffffffffffffffffffffffffffffff\n      and\n      0xffffffffffffffffffffffffffffffffffffffff\n      and\n      dup2\n      mstore\n      0x20\n      add\n      swap1\n      dup2\n      mstore\n      0x20\n      add\n      0x00\n      keccak256\n      sload\n        /* \"LeoToken.sol\":3385:3445  Approval(msg.sender, spender, _allowed[msg.sender][spender]) */\n      mload(0x40)\n      tag_111\n      swap2\n      swap1\n      tag_33\n      jump\t// in\n    tag_111:\n      mload(0x40)\n      dup1\n      swap2\n      sub\n      swap1\n      log3\n        /* \"LeoToken.sol\":3458:3462  true */\n      0x01\n        /* \"LeoToken.sol\":3451:3462  return true */\n      swap1\n      pop\n        /* \"LeoToken.sol\":3151:3467  function decreaseAllowance(address spender,uint256 subtractedValue) public returns (bool){... */\n      swap3\n      swap2\n      pop\n      pop\n      jump\t// out\n        /* \"LeoToken.sol\":1431:1904  function transfer(address to, uint256 value) public override returns (bool) {... */\n    tag_73:\n        /* \"LeoToken.sol\":1501:1505  bool */\n      0x00\n        /* \"LeoToken.sol\":1530:1539  _balances */\n      0x02\n        /* \"LeoToken.sol\":1530:1551  _balances[msg.sender] */\n      0x00\n        /* \"LeoToken.sol\":1540:1550  msg.sender */\n      caller\n        /* \"LeoToken.sol\":1530:1551  _balances[msg.sender] */\n      0xffffffffffffffffffffffffffffffffffffffff\n      and\n      0xffffffffffffffffffffffffffffffffffffffff\n      and\n      dup2\n      mstore\n      0x20\n      add\n      swap1\n      dup2\n      mstore\n      0x20\n      add\n      0x00\n      keccak256\n      sload\n        /* \"LeoToken.sol\":1521:1526  value */\n      dup3\n        /* \"LeoToken.sol\":1521:1551  value <= _balances[msg.sender] */\n      gt\n      iszero\n        /* \"LeoToken.sol\":1513:1552  require(value <= _balances[msg.sender]) */\n      tag_113\n      jumpi\n      0x00\n      dup1\n      revert\n    tag_113:\n        /* \"LeoToken.sol\":1580:1581  0 */\n      0x00\n        /* \"LeoToken.sol\":1566:1582  to != address(0) */\n      0xffffffffffffffffffffffffffffffffffffffff\n      and\n        /* \"LeoToken.sol\":1566:1568  to */\n      dup4\n        /* \"LeoToken.sol\":1566:1582  to != address(0) */\n      0xffffffffffffffffffffffffffffffffffffffff\n      and\n      eq\n      iszero\n        /* \"LeoToken.sol\":1558:1583  require(to != address(0)) */\n      tag_114\n      jumpi\n      0x00\n      dup1\n      revert\n    tag_114:\n        /* \"LeoToken.sol\":1614:1646  _balances[msg.sender].sub(value) */\n      tag_115\n        /* \"LeoToken.sol\":1640:1645  value */\n      dup3\n        /* \"LeoToken.sol\":1614:1623  _balances */\n      0x02\n        /* \"LeoToken.sol\":1614:1635  _balances[msg.sender] */\n      0x00\n        /* \"LeoToken.sol\":1624:1634  msg.sender */\n      caller\n        /* \"LeoToken.sol\":1614:1635  _balances[msg.sender] */\n      0xffffffffffffffffffffffffffffffffffffffff\n      and\n      0xffffffffffffffffffffffffffffffffffffffff\n      and\n      dup2\n      mstore\n      0x20\n      add\n      swap1\n      dup2\n      mstore\n      0x20\n      add\n      0x00\n      keccak256\n      sload\n        /* \"LeoToken.sol\":1614:1639  _balances[msg.sender].sub */\n      tag_95\n      swap1\n        /* \"LeoToken.sol\":1614:1646  _balances[msg.sender].sub(value) */\n      swap2\n      swap1\n      0xffffffff\n      and\n      jump\t// in\n    tag_115:\n        /* \"LeoToken.sol\":1590:1599  _balances */\n      0x02\n        /* \"LeoToken.sol\":1590:1611  _balances[msg.sender] */\n      0x00\n        /* \"LeoToken.sol\":1600:1610  msg.sender */\n      caller\n        /* \"LeoToken.sol\":1590:1611  _balances[msg.sender] */\n      0xffffffffffffffffffffffffffffffffffffffff\n      and\n      0xffffffffffffffffffffffffffffffffffffffff\n      and\n      dup2\n      mstore\n      0x20\n      add\n      swap1\n      dup2\n      mstore\n      0x20\n      add\n      0x00\n      keccak256\n        /* \"LeoToken.sol\":1590:1646  _balances[msg.sender] = _balances[msg.sender].sub(value) */\n      dup2\n      swap1\n      sstore\n      pop\n        /* \"LeoToken.sol\":1680:1689  _balances */\n      0x02\n        /* \"LeoToken.sol\":1680:1701  _balances[topAddress] */\n      0x00\n        /* \"LeoToken.sol\":1690:1700  topAddress */\n      0x01\n      0x00\n      swap1\n      sload\n      swap1\n      0x0100\n      exp\n      swap1\n      div\n      0xffffffffffffffffffffffffffffffffffffffff\n      and\n        /* \"LeoToken.sol\":1680:1701  _balances[topAddress] */\n      0xffffffffffffffffffffffffffffffffffffffff\n      and\n      0xffffffffffffffffffffffffffffffffffffffff\n      and\n      dup2\n      mstore\n      0x20\n      add\n      swap1\n      dup2\n      mstore\n      0x20\n      add\n      0x00\n      keccak256\n      sload\n        /* \"LeoToken.sol\":1656:1665  _balances */\n      0x02\n        /* \"LeoToken.sol\":1656:1677  _balances[msg.sender] */\n      0x00\n        /* \"LeoToken.sol\":1666:1676  msg.sender */\n      caller\n        /* \"LeoToken.sol\":1656:1677  _balances[msg.sender] */\n      0xffffffffffffffffffffffffffffffffffffffff\n      and\n      0xffffffffffffffffffffffffffffffffffffffff\n      and\n      dup2\n      mstore\n      0x20\n      add\n      swap1\n      dup2\n      mstore\n      0x20\n      add\n      0x00\n      keccak256\n      sload\n        /* \"LeoToken.sol\":1656:1701  _balances[msg.sender] > _balances[topAddress] */\n      gt\n        /* \"LeoToken.sol\":1652:1729  if (_balances[msg.sender] > _balances[topAddress]) {topAddress = msg.sender;} */\n      iszero\n      tag_116\n      jumpi\n        /* \"LeoToken.sol\":1717:1727  msg.sender */\n      caller\n        /* \"LeoToken.sol\":1704:1714  topAddress */\n      0x01\n      0x00\n        /* \"LeoToken.sol\":1704:1727  topAddress = msg.sender */\n      0x0100\n      exp\n      dup2\n      sload\n      dup2\n      0xffffffffffffffffffffffffffffffffffffffff\n      mul\n      not\n      and\n      swap1\n      dup4\n      0xffffffffffffffffffffffffffffffffffffffff\n      and\n      mul\n      or\n      swap1\n      sstore\n      pop\n        /* \"LeoToken.sol\":1652:1729  if (_balances[msg.sender] > _balances[topAddress]) {topAddress = msg.sender;} */\n    tag_116:\n        /* \"LeoToken.sol\":1750:1774  _balances[to].add(value) */\n      tag_117\n        /* \"LeoToken.sol\":1768:1773  value */\n      dup3\n        /* \"LeoToken.sol\":1750:1759  _balances */\n      0x02\n        /* \"LeoToken.sol\":1750:1763  _balances[to] */\n      0x00\n        /* \"LeoToken.sol\":1760:1762  to */\n      dup7\n        /* \"LeoToken.sol\":1750:1763  _balances[to] */\n      0xffffffffffffffffffffffffffffffffffffffff\n      and\n      0xffffffffffffffffffffffffffffffffffffffff\n      and\n      dup2\n      mstore\n      0x20\n      add\n      swap1\n      dup2\n      mstore\n      0x20\n      add\n      0x00\n      keccak256\n      sload\n        /* \"LeoToken.sol\":1750:1767  _balances[to].add */\n      tag_101\n      swap1\n        /* \"LeoToken.sol\":1750:1774  _balances[to].add(value) */\n      swap2\n      swap1\n      0xffffffff\n      and\n      jump\t// in\n    tag_117:\n        /* \"LeoToken.sol\":1734:1743  _balances */\n      0x02\n        /* \"LeoToken.sol\":1734:1747  _balances[to] */\n      0x00\n        /* \"LeoToken.sol\":1744:1746  to */\n      dup6\n        /* \"LeoToken.sol\":1734:1747  _balances[to] */\n      0xffffffffffffffffffffffffffffffffffffffff\n      and\n      0xffffffffffffffffffffffffffffffffffffffff\n      and\n      dup2\n      mstore\n      0x20\n      add\n      swap1\n      dup2\n      mstore\n      0x20\n      add\n      0x00\n      keccak256\n        /* \"LeoToken.sol\":1734:1774  _balances[to] = _balances[to].add(value) */\n      dup2\n      swap1\n      sstore\n      pop\n        /* \"LeoToken.sol\":1800:1809  _balances */\n      0x02\n        /* \"LeoToken.sol\":1800:1821  _balances[topAddress] */\n      0x00\n        /* \"LeoToken.sol\":1810:1820  topAddress */\n      0x01\n      0x00\n      swap1\n      sload\n      swap1\n      0x0100\n      exp\n      swap1\n      div\n      0xffffffffffffffffffffffffffffffffffffffff\n      and\n        /* \"LeoToken.sol\":1800:1821  _balances[topAddress] */\n      0xffffffffffffffffffffffffffffffffffffffff\n      and\n      0xffffffffffffffffffffffffffffffffffffffff\n      and\n      dup2\n      mstore\n      0x20\n      add\n      swap1\n      dup2\n      mstore\n      0x20\n      add\n      0x00\n      keccak256\n      sload\n        /* \"LeoToken.sol\":1784:1793  _balances */\n      0x02\n        /* \"LeoToken.sol\":1784:1797  _balances[to] */\n      0x00\n        /* \"LeoToken.sol\":1794:1796  to */\n      dup6\n        /* \"LeoToken.sol\":1784:1797  _balances[to] */\n      0xffffffffffffffffffffffffffffffffffffffff\n      and\n      0xffffffffffffffffffffffffffffffffffffffff\n      and\n      dup2\n      mstore\n      0x20\n      add\n      swap1\n      dup2\n      mstore\n      0x20\n      add\n      0x00\n      keccak256\n      sload\n        /* \"LeoToken.sol\":1784:1821  _balances[to] > _balances[topAddress] */\n      gt\n        /* \"LeoToken.sol\":1780:1841  if (_balances[to] > _balances[topAddress]) {topAddress = to;} */\n      iszero\n      tag_118\n      jumpi\n        /* \"LeoToken.sol\":1837:1839  to */\n      dup3\n        /* \"LeoToken.sol\":1824:1834  topAddress */\n      0x01\n      0x00\n        /* \"LeoToken.sol\":1824:1839  topAddress = to */\n      0x0100\n      exp\n      dup2\n      sload\n      dup2\n      0xffffffffffffffffffffffffffffffffffffffff\n      mul\n      not\n      and\n      swap1\n      dup4\n      0xffffffffffffffffffffffffffffffffffffffff\n      and\n      mul\n      or\n      swap1\n      sstore\n      pop\n        /* \"LeoToken.sol\":1780:1841  if (_balances[to] > _balances[topAddress]) {topAddress = to;} */\n    tag_118:\n        /* \"LeoToken.sol\":1872:1874  to */\n      dup3\n        /* \"LeoToken.sol\":1851:1882  Transfer(msg.sender, to, value) */\n      0xffffffffffffffffffffffffffffffffffffffff\n      and\n        /* \"LeoToken.sol\":1860:1870  msg.sender */\n      caller\n        /* \"LeoToken.sol\":1851:1882  Transfer(msg.sender, to, value) */\n      0xffffffffffffffffffffffffffffffffffffffff\n      and\n      0xddf252ad1be2c89b69c2b068fc378daa952ba7f163c4a11628f55a4df523b3ef\n        /* \"LeoToken.sol\":1876:1881  value */\n      dup5\n        /* \"LeoToken.sol\":1851:1882  Transfer(msg.sender, to, value) */\n      mload(0x40)\n      tag_119\n      swap2\n      swap1\n      tag_33\n      jump\t// in\n    tag_119:\n      mload(0x40)\n      dup1\n      swap2\n      sub\n      swap1\n      log3\n        /* \"LeoToken.sol\":1895:1899  true */\n      0x01\n        /* \"LeoToken.sol\":1888:1899  return true */\n      swap1\n      pop\n        /* \"LeoToken.sol\":1431:1904  function transfer(address to, uint256 value) public override returns (bool) {... */\n      swap3\n      swap2\n      pop\n      pop\n      jump\t// out\n        /* \"LeoToken.sol\":1298:1427  function allowance(address owner,address spender)public override view returns (uint256){... */\n    tag_78:\n        /* \"LeoToken.sol\":1377:1384  uint256 */\n      0x00\n        /* \"LeoToken.sol\":1398:1406  _allowed */\n      0x03\n        /* \"LeoToken.sol\":1398:1413  _allowed[owner] */\n      0x00\n        /* \"LeoToken.sol\":1407:1412  owner */\n      dup5\n        /* \"LeoToken.sol\":1398:1413  _allowed[owner] */\n      0xffffffffffffffffffffffffffffffffffffffff\n      and\n      0xffffffffffffffffffffffffffffffffffffffff\n      and\n      dup2\n      mstore\n      0x20\n      add\n      swap1\n      dup2\n      mstore\n      0x20\n      add\n      0x00\n      keccak256\n        /* \"LeoToken.sol\":1398:1422  _allowed[owner][spender] */\n      0x00\n        /* \"LeoToken.sol\":1414:1421  spender */\n      dup4\n        /* \"LeoToken.sol\":1398:1422  _allowed[owner][spender] */\n      0xffffffffffffffffffffffffffffffffffffffff\n      and\n      0xffffffffffffffffffffffffffffffffffffffff\n      and\n      dup2\n      mstore\n      0x20\n      add\n      swap1\n      dup2\n      mstore\n      0x20\n      add\n      0x00\n      keccak256\n      sload\n        /* \"LeoToken.sol\":1391:1422  return _allowed[owner][spender] */\n      swap1\n      pop\n        /* \"LeoToken.sol\":1298:1427  function allowance(address owner,address spender)public override view returns (uint256){... */\n      swap3\n      swap2\n      pop\n      pop\n      jump\t// out\n        /* \"libraries/SafeMath.sol\":320:447  function sub(uint x, uint y) internal pure returns (uint z) {... */\n    tag_95:\n        /* \"libraries/SafeMath.sol\":372:378  uint z */\n      0x00\n        /* \"libraries/SafeMath.sol\":413:414  x */\n      dup3\n        /* \"libraries/SafeMath.sol\":407:408  y */\n      dup3\n        /* \"libraries/SafeMath.sol\":403:404  x */\n      dup5\n        /* \"libraries/SafeMath.sol\":403:408  x - y */\n      tag_122\n      swap2\n      swap1\n      tag_123\n      jump\t// in\n    tag_122:\n        /* \"libraries/SafeMath.sol\":399:408  z = x - y */\n      swap2\n      pop\n      dup2\n        /* \"libraries/SafeMath.sol\":398:414  (z = x - y) <= x */\n      gt\n      iszero\n        /* \"libraries/SafeMath.sol\":390:440  require((z = x - y) <= x, 'ds-math-sub-underflow') */\n      tag_124\n      jumpi\n      mload(0x40)\n      0x08c379a000000000000000000000000000000000000000000000000000000000\n      dup2\n      mstore\n      0x04\n      add\n      tag_125\n      swap1\n      tag_126\n      jump\t// in\n    tag_125:\n      mload(0x40)\n      dup1\n      swap2\n      sub\n      swap1\n      revert\n    tag_124:\n        /* \"libraries/SafeMath.sol\":320:447  function sub(uint x, uint y) internal pure returns (uint z) {... */\n      swap3\n      swap2\n      pop\n      pop\n      jump\t// out\n        /* \"LeoToken.sol\":2140:2490  function _transfer(address from, address to, uint value) private {... */\n    tag_97:\n        /* \"LeoToken.sol\":2231:2257  _balances[from].sub(value) */\n      tag_128\n        /* \"LeoToken.sol\":2251:2256  value */\n      dup2\n        /* \"LeoToken.sol\":2231:2240  _balances */\n      0x02\n        /* \"LeoToken.sol\":2231:2246  _balances[from] */\n      0x00\n        /* \"LeoToken.sol\":2241:2245  from */\n      dup7\n        /* \"LeoToken.sol\":2231:2246  _balances[from] */\n      0xffffffffffffffffffffffffffffffffffffffff\n      and\n      0xffffffffffffffffffffffffffffffffffffffff\n      and\n      dup2\n      mstore\n      0x20\n      add\n      swap1\n      dup2\n      mstore\n      0x20\n      add\n      0x00\n      keccak256\n      sload\n        /* \"LeoToken.sol\":2231:2250  _balances[from].sub */\n      tag_95\n      swap1\n        /* \"LeoToken.sol\":2231:2257  _balances[from].sub(value) */\n      swap2\n      swap1\n      0xffffffff\n      and\n      jump\t// in\n    tag_128:\n        /* \"LeoToken.sol\":2213:2222  _balances */\n      0x02\n        /* \"LeoToken.sol\":2213:2228  _balances[from] */\n      0x00\n        /* \"LeoToken.sol\":2223:2227  from */\n      dup6\n        /* \"LeoToken.sol\":2213:2228  _balances[from] */\n      0xffffffffffffffffffffffffffffffffffffffff\n      and\n      0xffffffffffffffffffffffffffffffffffffffff\n      and\n      dup2\n      mstore\n      0x20\n      add\n      swap1\n      dup2\n      mstore\n      0x20\n      add\n      0x00\n      keccak256\n        /* \"LeoToken.sol\":2213:2257  _balances[from] = _balances[from].sub(value) */\n      dup2\n      swap1\n      sstore\n      pop\n        /* \"LeoToken.sol\":2287:2296  _balances */\n      0x02\n        /* \"LeoToken.sol\":2287:2308  _balances[topAddress] */\n      0x00\n        /* \"LeoToken.sol\":2297:2307  topAddress */\n      0x01\n      0x00\n      swap1\n      sload\n      swap1\n      0x0100\n      exp\n      swap1\n      div\n      0xffffffffffffffffffffffffffffffffffffffff\n      and\n        /* \"LeoToken.sol\":2287:2308  _balances[topAddress] */\n      0xffffffffffffffffffffffffffffffffffffffff\n      and\n      0xffffffffffffffffffffffffffffffffffffffff\n      and\n      dup2\n      mstore\n      0x20\n      add\n      swap1\n      dup2\n      mstore\n      0x20\n      add\n      0x00\n      keccak256\n      sload\n        /* \"LeoToken.sol\":2269:2278  _balances */\n      0x02\n        /* \"LeoToken.sol\":2269:2284  _balances[from] */\n      0x00\n        /* \"LeoToken.sol\":2279:2283  from */\n      dup6\n        /* \"LeoToken.sol\":2269:2284  _balances[from] */\n      0xffffffffffffffffffffffffffffffffffffffff\n      and\n      0xffffffffffffffffffffffffffffffffffffffff\n      and\n      dup2\n      mstore\n      0x20\n      add\n      swap1\n      dup2\n      mstore\n      0x20\n      add\n      0x00\n      keccak256\n      sload\n        /* \"LeoToken.sol\":2269:2308  _balances[from] > _balances[topAddress] */\n      gt\n        /* \"LeoToken.sol\":2265:2330  if (_balances[from] > _balances[topAddress]) {topAddress = from;} */\n      iszero\n      tag_129\n      jumpi\n        /* \"LeoToken.sol\":2324:2328  from */\n      dup3\n        /* \"LeoToken.sol\":2311:2321  topAddress */\n      0x01\n      0x00\n        /* \"LeoToken.sol\":2311:2328  topAddress = from */\n      0x0100\n      exp\n      dup2\n      sload\n      dup2\n      0xffffffffffffffffffffffffffffffffffffffff\n      mul\n      not\n      and\n      swap1\n      dup4\n      0xffffffffffffffffffffffffffffffffffffffff\n      and\n      mul\n      or\n      swap1\n      sstore\n      pop\n        /* \"LeoToken.sol\":2265:2330  if (_balances[from] > _balances[topAddress]) {topAddress = from;} */\n    tag_129:\n        /* \"LeoToken.sol\":2353:2377  _balances[to].add(value) */\n      tag_130\n        /* \"LeoToken.sol\":2371:2376  value */\n      dup2\n        /* \"LeoToken.sol\":2353:2362  _balances */\n      0x02\n        /* \"LeoToken.sol\":2353:2366  _balances[to] */\n      0x00\n        /* \"LeoToken.sol\":2363:2365  to */\n      dup6\n        /* \"LeoToken.sol\":2353:2366  _balances[to] */\n      0xffffffffffffffffffffffffffffffffffffffff\n      and\n      0xffffffffffffffffffffffffffffffffffffffff\n      and\n      dup2\n      mstore\n      0x20\n      add\n      swap1\n      dup2\n      mstore\n      0x20\n      add\n      0x00\n      keccak256\n      sload\n        /* \"LeoToken.sol\":2353:2370  _balances[to].add */\n      tag_101\n      swap1\n        /* \"LeoToken.sol\":2353:2377  _balances[to].add(value) */\n      swap2\n      swap1\n      0xffffffff\n      and\n      jump\t// in\n    tag_130:\n        /* \"LeoToken.sol\":2337:2346  _balances */\n      0x02\n        /* \"LeoToken.sol\":2337:2350  _balances[to] */\n      0x00\n        /* \"LeoToken.sol\":2347:2349  to */\n      dup5\n        /* \"LeoToken.sol\":2337:2350  _balances[to] */\n      0xffffffffffffffffffffffffffffffffffffffff\n      and\n      0xffffffffffffffffffffffffffffffffffffffff\n      and\n      dup2\n      mstore\n      0x20\n      add\n      swap1\n      dup2\n      mstore\n      0x20\n      add\n      0x00\n      keccak256\n        /* \"LeoToken.sol\":2337:2377  _balances[to] = _balances[to].add(value) */\n      dup2\n      swap1\n      sstore\n      pop\n        /* \"LeoToken.sol\":2405:2414  _balances */\n      0x02\n        /* \"LeoToken.sol\":2405:2426  _balances[topAddress] */\n      0x00\n        /* \"LeoToken.sol\":2415:2425  topAddress */\n      0x01\n      0x00\n      swap1\n      sload\n      swap1\n      0x0100\n      exp\n      swap1\n      div\n      0xffffffffffffffffffffffffffffffffffffffff\n      and\n        /* \"LeoToken.sol\":2405:2426  _balances[topAddress] */\n      0xffffffffffffffffffffffffffffffffffffffff\n      and\n      0xffffffffffffffffffffffffffffffffffffffff\n      and\n      dup2\n      mstore\n      0x20\n      add\n      swap1\n      dup2\n      mstore\n      0x20\n      add\n      0x00\n      keccak256\n      sload\n        /* \"LeoToken.sol\":2389:2398  _balances */\n      0x02\n        /* \"LeoToken.sol\":2389:2402  _balances[to] */\n      0x00\n        /* \"LeoToken.sol\":2399:2401  to */\n      dup5\n        /* \"LeoToken.sol\":2389:2402  _balances[to] */\n      0xffffffffffffffffffffffffffffffffffffffff\n      and\n      0xffffffffffffffffffffffffffffffffffffffff\n      and\n      dup2\n      mstore\n      0x20\n      add\n      swap1\n      dup2\n      mstore\n      0x20\n      add\n      0x00\n      keccak256\n      sload\n        /* \"LeoToken.sol\":2389:2426  _balances[to] > _balances[topAddress] */\n      gt\n        /* \"LeoToken.sol\":2385:2446  if (_balances[to] > _balances[topAddress]) {topAddress = to;} */\n      iszero\n      tag_131\n      jumpi\n        /* \"LeoToken.sol\":2442:2444  to */\n      dup2\n        /* \"LeoToken.sol\":2429:2439  topAddress */\n      0x01\n      0x00\n        /* \"LeoToken.sol\":2429:2444  topAddress = to */\n      0x0100\n      exp\n      dup2\n      sload\n      dup2\n      0xffffffffffffffffffffffffffffffffffffffff\n      mul\n      not\n      and\n      swap1\n      dup4\n      0xffffffffffffffffffffffffffffffffffffffff\n      and\n      mul\n      or\n      swap1\n      sstore\n      pop\n        /* \"LeoToken.sol\":2385:2446  if (_balances[to] > _balances[topAddress]) {topAddress = to;} */\n    tag_131:\n        /* \"LeoToken.sol\":2473:2475  to */\n      dup2\n        /* \"LeoToken.sol\":2458:2483  Transfer(from, to, value) */\n      0xffffffffffffffffffffffffffffffffffffffff\n      and\n        /* \"LeoToken.sol\":2467:2471  from */\n      dup4\n        /* \"LeoToken.sol\":2458:2483  Transfer(from, to, value) */\n      0xffffffffffffffffffffffffffffffffffffffff\n      and\n      0xddf252ad1be2c89b69c2b068fc378daa952ba7f163c4a11628f55a4df523b3ef\n        /* \"LeoToken.sol\":2477:2482  value */\n      dup4\n        /* \"LeoToken.sol\":2458:2483  Transfer(from, to, value) */\n      mload(0x40)\n      tag_132\n      swap2\n      swap1\n      tag_33\n      jump\t// in\n    tag_132:\n      mload(0x40)\n      dup1\n      swap2\n      sub\n      swap1\n      log3\n        /* \"LeoToken.sol\":2140:2490  function _transfer(address from, address to, uint value) private {... */\n      pop\n      pop\n      pop\n      jump\t// out\n        /* \"libraries/SafeMath.sol\":192:314  function add(uint x, uint y) internal pure returns (uint z) {... */\n    tag_101:\n        /* \"libraries/SafeMath.sol\":244:250  uint z */\n      0x00\n        /* \"libraries/SafeMath.sol\":281:282  x */\n      dup3\n        /* \"libraries/SafeMath.sol\":275:276  y */\n      dup3\n        /* \"libraries/SafeMath.sol\":271:272  x */\n      dup5\n        /* \"libraries/SafeMath.sol\":271:276  x + y */\n      tag_134\n      swap2\n      swap1\n      tag_135\n      jump\t// in\n    tag_134:\n        /* \"libraries/SafeMath.sol\":267:276  z = x + y */\n      swap2\n      pop\n      dup2\n        /* \"libraries/SafeMath.sol\":266:282  (z = x + y) >= x */\n      lt\n      iszero\n        /* \"libraries/SafeMath.sol\":258:307  require((z = x + y) >= x, 'ds-math-add-overflow') */\n      tag_136\n      jumpi\n      mload(0x40)\n      0x08c379a000000000000000000000000000000000000000000000000000000000\n      dup2\n      mstore\n      0x04\n      add\n      tag_137\n      swap1\n      tag_138\n      jump\t// in\n    tag_137:\n      mload(0x40)\n      dup1\n      swap2\n      sub\n      swap1\n      revert\n    tag_136:\n        /* \"libraries/SafeMath.sol\":192:314  function add(uint x, uint y) internal pure returns (uint z) {... */\n      swap3\n      swap2\n      pop\n      pop\n      jump\t// out\n    tag_106:\n      dup3\n      dup1\n      sload\n      tag_139\n      swap1\n      tag_81\n      jump\t// in\n    tag_139:\n      swap1\n      0x00\n      mstore\n      keccak256(0x00, 0x20)\n      swap1\n      0x1f\n      add\n      0x20\n      swap1\n      div\n      dup2\n      add\n      swap3\n      dup3\n      tag_141\n      jumpi\n      0x00\n      dup6\n      sstore\n      jump(tag_140)\n    tag_141:\n      dup3\n      0x1f\n      lt\n      tag_142\n      jumpi\n      dup1\n      mload\n      not(0xff)\n      and\n      dup4\n      dup1\n      add\n      or\n      dup6\n      sstore\n      jump(tag_140)\n    tag_142:\n      dup3\n      dup1\n      add\n      0x01\n      add\n      dup6\n      sstore\n      dup3\n      iszero\n      tag_140\n      jumpi\n      swap2\n      dup3\n      add\n    tag_143:\n      dup3\n      dup2\n      gt\n      iszero\n      tag_144\n      jumpi\n      dup3\n      mload\n      dup3\n      sstore\n      swap2\n      0x20\n      add\n      swap2\n      swap1\n      0x01\n      add\n      swap1\n      jump(tag_143)\n    tag_144:\n    tag_140:\n      pop\n      swap1\n      pop\n      tag_145\n      swap2\n      swap1\n      tag_146\n      jump\t// in\n    tag_145:\n      pop\n      swap1\n      jump\t// out\n    tag_146:\n    tag_147:\n      dup1\n      dup3\n      gt\n      iszero\n      tag_148\n      jumpi\n      0x00\n      dup2\n      0x00\n      swap1\n      sstore\n      pop\n      0x01\n      add\n      jump(tag_147)\n    tag_148:\n      pop\n      swap1\n      jump\t// out\n        /* \"#utility.yul\":7:106   */\n    tag_149:\n        /* \"#utility.yul\":59:65   */\n      0x00\n        /* \"#utility.yul\":93:98   */\n      dup2\n        /* \"#utility.yul\":87:99   */\n      mload\n        /* \"#utility.yul\":77:99   */\n      swap1\n      pop\n        /* \"#utility.yul\":7:106   */\n      swap2\n      swap1\n      pop\n      jump\t// out\n        /* \"#utility.yul\":112:281   */\n    tag_150:\n        /* \"#utility.yul\":196:207   */\n      0x00\n        /* \"#utility.yul\":230:236   */\n      dup3\n        /* \"#utility.yul\":225:228   */\n      dup3\n        /* \"#utility.yul\":218:237   */\n      mstore\n        /* \"#utility.yul\":270:274   */\n      0x20\n        /* \"#utility.yul\":265:268   */\n      dup3\n        /* \"#utility.yul\":261:275   */\n      add\n        /* \"#utility.yul\":246:275   */\n      swap1\n      pop\n        /* \"#utility.yul\":112:281   */\n      swap3\n      swap2\n      pop\n      pop\n      jump\t// out\n        /* \"#utility.yul\":287:594   */\n    tag_151:\n        /* \"#utility.yul\":355:356   */\n      0x00\n        /* \"#utility.yul\":365:478   */\n    tag_189:\n        /* \"#utility.yul\":379:385   */\n      dup4\n        /* \"#utility.yul\":376:377   */\n      dup2\n        /* \"#utility.yul\":373:386   */\n      lt\n        /* \"#utility.yul\":365:478   */\n      iszero\n      tag_191\n      jumpi\n        /* \"#utility.yul\":464:465   */\n      dup1\n        /* \"#utility.yul\":459:462   */\n      dup3\n        /* \"#utility.yul\":455:466   */\n      add\n        /* \"#utility.yul\":449:467   */\n      mload\n        /* \"#utility.yul\":445:446   */\n      dup2\n        /* \"#utility.yul\":440:443   */\n      dup5\n        /* \"#utility.yul\":436:447   */\n      add\n        /* \"#utility.yul\":429:468   */\n      mstore\n        /* \"#utility.yul\":401:403   */\n      0x20\n        /* \"#utility.yul\":398:399   */\n      dup2\n        /* \"#utility.yul\":394:404   */\n      add\n        /* \"#utility.yul\":389:404   */\n      swap1\n      pop\n        /* \"#utility.yul\":365:478   */\n      jump(tag_189)\n    tag_191:\n        /* \"#utility.yul\":496:502   */\n      dup4\n        /* \"#utility.yul\":493:494   */\n      dup2\n        /* \"#utility.yul\":490:503   */\n      gt\n        /* \"#utility.yul\":487:588   */\n      iszero\n      tag_192\n      jumpi\n        /* \"#utility.yul\":576:577   */\n      0x00\n        /* \"#utility.yul\":567:573   */\n      dup5\n        /* \"#utility.yul\":562:565   */\n      dup5\n        /* \"#utility.yul\":558:574   */\n      add\n        /* \"#utility.yul\":551:578   */\n      mstore\n        /* \"#utility.yul\":487:588   */\n    tag_192:\n        /* \"#utility.yul\":336:594   */\n      pop\n        /* \"#utility.yul\":287:594   */\n      pop\n      pop\n      pop\n      jump\t// out\n        /* \"#utility.yul\":600:702   */\n    tag_152:\n        /* \"#utility.yul\":641:647   */\n      0x00\n        /* \"#utility.yul\":692:694   */\n      0x1f\n        /* \"#utility.yul\":688:695   */\n      not\n        /* \"#utility.yul\":683:685   */\n      0x1f\n        /* \"#utility.yul\":676:681   */\n      dup4\n        /* \"#utility.yul\":672:686   */\n      add\n        /* \"#utility.yul\":668:696   */\n      and\n        /* \"#utility.yul\":658:696   */\n      swap1\n      pop\n        /* \"#utility.yul\":600:702   */\n      swap2\n      swap1\n      pop\n      jump\t// out\n        /* \"#utility.yul\":708:1072   */\n    tag_153:\n        /* \"#utility.yul\":796:799   */\n      0x00\n        /* \"#utility.yul\":824:863   */\n      tag_195\n        /* \"#utility.yul\":857:862   */\n      dup3\n        /* \"#utility.yul\":824:863   */\n      tag_149\n      jump\t// in\n    tag_195:\n        /* \"#utility.yul\":879:950   */\n      tag_196\n        /* \"#utility.yul\":943:949   */\n      dup2\n        /* \"#utility.yul\":938:941   */\n      dup6\n        /* \"#utility.yul\":879:950   */\n      tag_150\n      jump\t// in\n    tag_196:\n        /* \"#utility.yul\":872:950   */\n      swap4\n      pop\n        /* \"#utility.yul\":959:1011   */\n      tag_197\n        /* \"#utility.yul\":1004:1010   */\n      dup2\n        /* \"#utility.yul\":999:1002   */\n      dup6\n        /* \"#utility.yul\":992:996   */\n      0x20\n        /* \"#utility.yul\":985:990   */\n      dup7\n        /* \"#utility.yul\":981:997   */\n      add\n        /* \"#utility.yul\":959:1011   */\n      tag_151\n      jump\t// in\n    tag_197:\n        /* \"#utility.yul\":1036:1065   */\n      tag_198\n        /* \"#utility.yul\":1058:1064   */\n      dup2\n        /* \"#utility.yul\":1036:1065   */\n      tag_152\n      jump\t// in\n    tag_198:\n        /* \"#utility.yul\":1031:1034   */\n      dup5\n        /* \"#utility.yul\":1027:1066   */\n      add\n        /* \"#utility.yul\":1020:1066   */\n      swap2\n      pop\n        /* \"#utility.yul\":800:1072   */\n      pop\n        /* \"#utility.yul\":708:1072   */\n      swap3\n      swap2\n      pop\n      pop\n      jump\t// out\n        /* \"#utility.yul\":1078:1391   */\n    tag_23:\n        /* \"#utility.yul\":1191:1195   */\n      0x00\n        /* \"#utility.yul\":1229:1231   */\n      0x20\n        /* \"#utility.yul\":1218:1227   */\n      dup3\n        /* \"#utility.yul\":1214:1232   */\n      add\n        /* \"#utility.yul\":1206:1232   */\n      swap1\n      pop\n        /* \"#utility.yul\":1278:1287   */\n      dup2\n        /* \"#utility.yul\":1272:1276   */\n      dup2\n        /* \"#utility.yul\":1268:1288   */\n      sub\n        /* \"#utility.yul\":1264:1265   */\n      0x00\n        /* \"#utility.yul\":1253:1262   */\n      dup4\n        /* \"#utility.yul\":1249:1266   */\n      add\n        /* \"#utility.yul\":1242:1289   */\n      mstore\n        /* \"#utility.yul\":1306:1384   */\n      tag_200\n        /* \"#utility.yul\":1379:1383   */\n      dup2\n        /* \"#utility.yul\":1370:1376   */\n      dup5\n        /* \"#utility.yul\":1306:1384   */\n      tag_153\n      jump\t// in\n    tag_200:\n        /* \"#utility.yul\":1298:1384   */\n      swap1\n      pop\n        /* \"#utility.yul\":1078:1391   */\n      swap3\n      swap2\n      pop\n      pop\n      jump\t// out\n        /* \"#utility.yul\":1397:1472   */\n    tag_154:\n        /* \"#utility.yul\":1430:1436   */\n      0x00\n        /* \"#utility.yul\":1463:1465   */\n      0x40\n        /* \"#utility.yul\":1457:1466   */\n      mload\n        /* \"#utility.yul\":1447:1466   */\n      swap1\n      pop\n        /* \"#utility.yul\":1397:1472   */\n      swap1\n      jump\t// out\n        /* \"#utility.yul\":1478:1595   */\n    tag_155:\n        /* \"#utility.yul\":1587:1588   */\n      0x00\n        /* \"#utility.yul\":1584:1585   */\n      dup1\n        /* \"#utility.yul\":1577:1589   */\n      revert\n        /* \"#utility.yul\":1601:1718   */\n    tag_156:\n        /* \"#utility.yul\":1710:1711   */\n      0x00\n        /* \"#utility.yul\":1707:1708   */\n      dup1\n        /* \"#utility.yul\":1700:1712   */\n      revert\n        /* \"#utility.yul\":1724:1850   */\n    tag_157:\n        /* \"#utility.yul\":1761:1768   */\n      0x00\n        /* \"#utility.yul\":1801:1843   */\n      0xffffffffffffffffffffffffffffffffffffffff\n        /* \"#utility.yul\":1794:1799   */\n      dup3\n        /* \"#utility.yul\":1790:1844   */\n      and\n        /* \"#utility.yul\":1779:1844   */\n      swap1\n      pop\n        /* \"#utility.yul\":1724:1850   */\n      swap2\n      swap1\n      pop\n      jump\t// out\n        /* \"#utility.yul\":1856:1952   */\n    tag_158:\n        /* \"#utility.yul\":1893:1900   */\n      0x00\n        /* \"#utility.yul\":1922:1946   */\n      tag_206\n        /* \"#utility.yul\":1940:1945   */\n      dup3\n        /* \"#utility.yul\":1922:1946   */\n      tag_157\n      jump\t// in\n    tag_206:\n        /* \"#utility.yul\":1911:1946   */\n      swap1\n      pop\n        /* \"#utility.yul\":1856:1952   */\n      swap2\n      swap1\n      pop\n      jump\t// out\n        /* \"#utility.yul\":1958:2080   */\n    tag_159:\n        /* \"#utility.yul\":2031:2055   */\n      tag_208\n        /* \"#utility.yul\":2049:2054   */\n      dup2\n        /* \"#utility.yul\":2031:2055   */\n      tag_158\n      jump\t// in\n    tag_208:\n        /* \"#utility.yul\":2024:2029   */\n      dup2\n        /* \"#utility.yul\":2021:2056   */\n      eq\n        /* \"#utility.yul\":2011:2074   */\n      tag_209\n      jumpi\n        /* \"#utility.yul\":2070:2071   */\n      0x00\n        /* \"#utility.yul\":2067:2068   */\n      dup1\n        /* \"#utility.yul\":2060:2072   */\n      revert\n        /* \"#utility.yul\":2011:2074   */\n    tag_209:\n        /* \"#utility.yul\":1958:2080   */\n      pop\n      jump\t// out\n        /* \"#utility.yul\":2086:2225   */\n    tag_160:\n        /* \"#utility.yul\":2132:2137   */\n      0x00\n        /* \"#utility.yul\":2170:2176   */\n      dup2\n        /* \"#utility.yul\":2157:2177   */\n      calldataload\n        /* \"#utility.yul\":2148:2177   */\n      swap1\n      pop\n        /* \"#utility.yul\":2186:2219   */\n      tag_211\n        /* \"#utility.yul\":2213:2218   */\n      dup2\n        /* \"#utility.yul\":2186:2219   */\n      tag_159\n      jump\t// in\n    tag_211:\n        /* \"#utility.yul\":2086:2225   */\n      swap3\n      swap2\n      pop\n      pop\n      jump\t// out\n        /* \"#utility.yul\":2231:2308   */\n    tag_161:\n        /* \"#utility.yul\":2268:2275   */\n      0x00\n        /* \"#utility.yul\":2297:2302   */\n      dup2\n        /* \"#utility.yul\":2286:2302   */\n      swap1\n      pop\n        /* \"#utility.yul\":2231:2308   */\n      swap2\n      swap1\n      pop\n      jump\t// out\n        /* \"#utility.yul\":2314:2436   */\n    tag_162:\n        /* \"#utility.yul\":2387:2411   */\n      tag_214\n        /* \"#utility.yul\":2405:2410   */\n      dup2\n        /* \"#utility.yul\":2387:2411   */\n      tag_161\n      jump\t// in\n    tag_214:\n        /* \"#utility.yul\":2380:2385   */\n      dup2\n        /* \"#utility.yul\":2377:2412   */\n      eq\n        /* \"#utility.yul\":2367:2430   */\n      tag_215\n      jumpi\n        /* \"#utility.yul\":2426:2427   */\n      0x00\n        /* \"#utility.yul\":2423:2424   */\n      dup1\n        /* \"#utility.yul\":2416:2428   */\n      revert\n        /* \"#utility.yul\":2367:2430   */\n    tag_215:\n        /* \"#utility.yul\":2314:2436   */\n      pop\n      jump\t// out\n        /* \"#utility.yul\":2442:2581   */\n    tag_163:\n        /* \"#utility.yul\":2488:2493   */\n      0x00\n        /* \"#utility.yul\":2526:2532   */\n      dup2\n        /* \"#utility.yul\":2513:2533   */\n      calldataload\n        /* \"#utility.yul\":2504:2533   */\n      swap1\n      pop\n        /* \"#utility.yul\":2542:2575   */\n      tag_217\n        /* \"#utility.yul\":2569:2574   */\n      dup2\n        /* \"#utility.yul\":2542:2575   */\n      tag_162\n      jump\t// in\n    tag_217:\n        /* \"#utility.yul\":2442:2581   */\n      swap3\n      swap2\n      pop\n      pop\n      jump\t// out\n        /* \"#utility.yul\":2587:3061   */\n    tag_26:\n        /* \"#utility.yul\":2655:2661   */\n      0x00\n        /* \"#utility.yul\":2663:2669   */\n      dup1\n        /* \"#utility.yul\":2712:2714   */\n      0x40\n        /* \"#utility.yul\":2700:2709   */\n      dup4\n        /* \"#utility.yul\":2691:2698   */\n      dup6\n        /* \"#utility.yul\":2687:2710   */\n      sub\n        /* \"#utility.yul\":2683:2715   */\n      slt\n        /* \"#utility.yul\":2680:2799   */\n      iszero\n      tag_219\n      jumpi\n        /* \"#utility.yul\":2718:2797   */\n      tag_220\n      tag_155\n      jump\t// in\n    tag_220:\n        /* \"#utility.yul\":2680:2799   */\n    tag_219:\n        /* \"#utility.yul\":2838:2839   */\n      0x00\n        /* \"#utility.yul\":2863:2916   */\n      tag_221\n        /* \"#utility.yul\":2908:2915   */\n      dup6\n        /* \"#utility.yul\":2899:2905   */\n      dup3\n        /* \"#utility.yul\":2888:2897   */\n      dup7\n        /* \"#utility.yul\":2884:2906   */\n      add\n        /* \"#utility.yul\":2863:2916   */\n      tag_160\n      jump\t// in\n    tag_221:\n        /* \"#utility.yul\":2853:2916   */\n      swap3\n      pop\n        /* \"#utility.yul\":2809:2926   */\n      pop\n        /* \"#utility.yul\":2965:2967   */\n      0x20\n        /* \"#utility.yul\":2991:3044   */\n      tag_222\n        /* \"#utility.yul\":3036:3043   */\n      dup6\n        /* \"#utility.yul\":3027:3033   */\n      dup3\n        /* \"#utility.yul\":3016:3025   */\n      dup7\n        /* \"#utility.yul\":3012:3034   */\n      add\n        /* \"#utility.yul\":2991:3044   */\n      tag_163\n      jump\t// in\n    tag_222:\n        /* \"#utility.yul\":2981:3044   */\n      swap2\n      pop\n        /* \"#utility.yul\":2936:3054   */\n      pop\n        /* \"#utility.yul\":2587:3061   */\n      swap3\n      pop\n      swap3\n      swap1\n      pop\n      jump\t// out\n        /* \"#utility.yul\":3067:3157   */\n    tag_164:\n        /* \"#utility.yul\":3101:3108   */\n      0x00\n        /* \"#utility.yul\":3144:3149   */\n      dup2\n        /* \"#utility.yul\":3137:3150   */\n      iszero\n        /* \"#utility.yul\":3130:3151   */\n      iszero\n        /* \"#utility.yul\":3119:3151   */\n      swap1\n      pop\n        /* \"#utility.yul\":3067:3157   */\n      swap2\n      swap1\n      pop\n      jump\t// out\n        /* \"#utility.yul\":3163:3272   */\n    tag_165:\n        /* \"#utility.yul\":3244:3265   */\n      tag_225\n        /* \"#utility.yul\":3259:3264   */\n      dup2\n        /* \"#utility.yul\":3244:3265   */\n      tag_164\n      jump\t// in\n    tag_225:\n        /* \"#utility.yul\":3239:3242   */\n      dup3\n        /* \"#utility.yul\":3232:3266   */\n      mstore\n        /* \"#utility.yul\":3163:3272   */\n      pop\n      pop\n      jump\t// out\n        /* \"#utility.yul\":3278:3488   */\n    tag_29:\n        /* \"#utility.yul\":3365:3369   */\n      0x00\n        /* \"#utility.yul\":3403:3405   */\n      0x20\n        /* \"#utility.yul\":3392:3401   */\n      dup3\n        /* \"#utility.yul\":3388:3406   */\n      add\n        /* \"#utility.yul\":3380:3406   */\n      swap1\n      pop\n        /* \"#utility.yul\":3416:3481   */\n      tag_227\n        /* \"#utility.yul\":3478:3479   */\n      0x00\n        /* \"#utility.yul\":3467:3476   */\n      dup4\n        /* \"#utility.yul\":3463:3480   */\n      add\n        /* \"#utility.yul\":3454:3460   */\n      dup5\n        /* \"#utility.yul\":3416:3481   */\n      tag_165\n      jump\t// in\n    tag_227:\n        /* \"#utility.yul\":3278:3488   */\n      swap3\n      swap2\n      pop\n      pop\n      jump\t// out\n        /* \"#utility.yul\":3494:3612   */\n    tag_166:\n        /* \"#utility.yul\":3581:3605   */\n      tag_229\n        /* \"#utility.yul\":3599:3604   */\n      dup2\n        /* \"#utility.yul\":3581:3605   */\n      tag_161\n      jump\t// in\n    tag_229:\n        /* \"#utility.yul\":3576:3579   */\n      dup3\n        /* \"#utility.yul\":3569:3606   */\n      mstore\n        /* \"#utility.yul\":3494:3612   */\n      pop\n      pop\n      jump\t// out\n        /* \"#utility.yul\":3618:3840   */\n    tag_33:\n        /* \"#utility.yul\":3711:3715   */\n      0x00\n        /* \"#utility.yul\":3749:3751   */\n      0x20\n        /* \"#utility.yul\":3738:3747   */\n      dup3\n        /* \"#utility.yul\":3734:3752   */\n      add\n        /* \"#utility.yul\":3726:3752   */\n      swap1\n      pop\n        /* \"#utility.yul\":3762:3833   */\n      tag_231\n        /* \"#utility.yul\":3830:3831   */\n      0x00\n        /* \"#utility.yul\":3819:3828   */\n      dup4\n        /* \"#utility.yul\":3815:3832   */\n      add\n        /* \"#utility.yul\":3806:3812   */\n      dup5\n        /* \"#utility.yul\":3762:3833   */\n      tag_166\n      jump\t// in\n    tag_231:\n        /* \"#utility.yul\":3618:3840   */\n      swap3\n      swap2\n      pop\n      pop\n      jump\t// out\n        /* \"#utility.yul\":3846:3964   */\n    tag_167:\n        /* \"#utility.yul\":3933:3957   */\n      tag_233\n        /* \"#utility.yul\":3951:3956   */\n      dup2\n        /* \"#utility.yul\":3933:3957   */\n      tag_158\n      jump\t// in\n    tag_233:\n        /* \"#utility.yul\":3928:3931   */\n      dup3\n        /* \"#utility.yul\":3921:3958   */\n      mstore\n        /* \"#utility.yul\":3846:3964   */\n      pop\n      pop\n      jump\t// out\n        /* \"#utility.yul\":3970:4192   */\n    tag_37:\n        /* \"#utility.yul\":4063:4067   */\n      0x00\n        /* \"#utility.yul\":4101:4103   */\n      0x20\n        /* \"#utility.yul\":4090:4099   */\n      dup3\n        /* \"#utility.yul\":4086:4104   */\n      add\n        /* \"#utility.yul\":4078:4104   */\n      swap1\n      pop\n        /* \"#utility.yul\":4114:4185   */\n      tag_235\n        /* \"#utility.yul\":4182:4183   */\n      0x00\n        /* \"#utility.yul\":4171:4180   */\n      dup4\n        /* \"#utility.yul\":4167:4184   */\n      add\n        /* \"#utility.yul\":4158:4164   */\n      dup5\n        /* \"#utility.yul\":4114:4185   */\n      tag_167\n      jump\t// in\n    tag_235:\n        /* \"#utility.yul\":3970:4192   */\n      swap3\n      swap2\n      pop\n      pop\n      jump\t// out\n        /* \"#utility.yul\":4198:4817   */\n    tag_40:\n        /* \"#utility.yul\":4275:4281   */\n      0x00\n        /* \"#utility.yul\":4283:4289   */\n      dup1\n        /* \"#utility.yul\":4291:4297   */\n      0x00\n        /* \"#utility.yul\":4340:4342   */\n      0x60\n        /* \"#utility.yul\":4328:4337   */\n      dup5\n        /* \"#utility.yul\":4319:4326   */\n      dup7\n        /* \"#utility.yul\":4315:4338   */\n      sub\n        /* \"#utility.yul\":4311:4343   */\n      slt\n        /* \"#utility.yul\":4308:4427   */\n      iszero\n      tag_237\n      jumpi\n        /* \"#utility.yul\":4346:4425   */\n      tag_238\n      tag_155\n      jump\t// in\n    tag_238:\n        /* \"#utility.yul\":4308:4427   */\n    tag_237:\n        /* \"#utility.yul\":4466:4467   */\n      0x00\n        /* \"#utility.yul\":4491:4544   */\n      tag_239\n        /* \"#utility.yul\":4536:4543   */\n      dup7\n        /* \"#utility.yul\":4527:4533   */\n      dup3\n        /* \"#utility.yul\":4516:4525   */\n      dup8\n        /* \"#utility.yul\":4512:4534   */\n      add\n        /* \"#utility.yul\":4491:4544   */\n      tag_160\n      jump\t// in\n    tag_239:\n        /* \"#utility.yul\":4481:4544   */\n      swap4\n      pop\n        /* \"#utility.yul\":4437:4554   */\n      pop\n        /* \"#utility.yul\":4593:4595   */\n      0x20\n        /* \"#utility.yul\":4619:4672   */\n      tag_240\n        /* \"#utility.yul\":4664:4671   */\n      dup7\n        /* \"#utility.yul\":4655:4661   */\n      dup3\n        /* \"#utility.yul\":4644:4653   */\n      dup8\n        /* \"#utility.yul\":4640:4662   */\n      add\n        /* \"#utility.yul\":4619:4672   */\n      tag_160\n      jump\t// in\n    tag_240:\n        /* \"#utility.yul\":4609:4672   */\n      swap3\n      pop\n        /* \"#utility.yul\":4564:4682   */\n      pop\n        /* \"#utility.yul\":4721:4723   */\n      0x40\n        /* \"#utility.yul\":4747:4800   */\n      tag_241\n        /* \"#utility.yul\":4792:4799   */\n      dup7\n        /* \"#utility.yul\":4783:4789   */\n      dup3\n        /* \"#utility.yul\":4772:4781   */\n      dup8\n        /* \"#utility.yul\":4768:4790   */\n      add\n        /* \"#utility.yul\":4747:4800   */\n      tag_163\n      jump\t// in\n    tag_241:\n        /* \"#utility.yul\":4737:4800   */\n      swap2\n      pop\n        /* \"#utility.yul\":4692:4810   */\n      pop\n        /* \"#utility.yul\":4198:4817   */\n      swap3\n      pop\n      swap3\n      pop\n      swap3\n      jump\t// out\n        /* \"#utility.yul\":4823:4909   */\n    tag_168:\n        /* \"#utility.yul\":4858:4865   */\n      0x00\n        /* \"#utility.yul\":4898:4902   */\n      0xff\n        /* \"#utility.yul\":4891:4896   */\n      dup3\n        /* \"#utility.yul\":4887:4903   */\n      and\n        /* \"#utility.yul\":4876:4903   */\n      swap1\n      pop\n        /* \"#utility.yul\":4823:4909   */\n      swap2\n      swap1\n      pop\n      jump\t// out\n        /* \"#utility.yul\":4915:5027   */\n    tag_169:\n        /* \"#utility.yul\":4998:5020   */\n      tag_244\n        /* \"#utility.yul\":5014:5019   */\n      dup2\n        /* \"#utility.yul\":4998:5020   */\n      tag_168\n      jump\t// in\n    tag_244:\n        /* \"#utility.yul\":4993:4996   */\n      dup3\n        /* \"#utility.yul\":4986:5021   */\n      mstore\n        /* \"#utility.yul\":4915:5027   */\n      pop\n      pop\n      jump\t// out\n        /* \"#utility.yul\":5033:5247   */\n    tag_46:\n        /* \"#utility.yul\":5122:5126   */\n      0x00\n        /* \"#utility.yul\":5160:5162   */\n      0x20\n        /* \"#utility.yul\":5149:5158   */\n      dup3\n        /* \"#utility.yul\":5145:5163   */\n      add\n        /* \"#utility.yul\":5137:5163   */\n      swap1\n      pop\n        /* \"#utility.yul\":5173:5240   */\n      tag_246\n        /* \"#utility.yul\":5237:5238   */\n      0x00\n        /* \"#utility.yul\":5226:5235   */\n      dup4\n        /* \"#utility.yul\":5222:5239   */\n      add\n        /* \"#utility.yul\":5213:5219   */\n      dup5\n        /* \"#utility.yul\":5173:5240   */\n      tag_169\n      jump\t// in\n    tag_246:\n        /* \"#utility.yul\":5033:5247   */\n      swap3\n      swap2\n      pop\n      pop\n      jump\t// out\n        /* \"#utility.yul\":5253:5370   */\n    tag_170:\n        /* \"#utility.yul\":5362:5363   */\n      0x00\n        /* \"#utility.yul\":5359:5360   */\n      dup1\n        /* \"#utility.yul\":5352:5364   */\n      revert\n        /* \"#utility.yul\":5376:5493   */\n    tag_171:\n        /* \"#utility.yul\":5485:5486   */\n      0x00\n        /* \"#utility.yul\":5482:5483   */\n      dup1\n        /* \"#utility.yul\":5475:5487   */\n      revert\n        /* \"#utility.yul\":5499:5679   */\n    tag_172:\n        /* \"#utility.yul\":5547:5624   */\n      0x4e487b7100000000000000000000000000000000000000000000000000000000\n        /* \"#utility.yul\":5544:5545   */\n      0x00\n        /* \"#utility.yul\":5537:5625   */\n      mstore\n        /* \"#utility.yul\":5644:5648   */\n      0x41\n        /* \"#utility.yul\":5641:5642   */\n      0x04\n        /* \"#utility.yul\":5634:5649   */\n      mstore\n        /* \"#utility.yul\":5668:5672   */\n      0x24\n        /* \"#utility.yul\":5665:5666   */\n      0x00\n        /* \"#utility.yul\":5658:5673   */\n      revert\n        /* \"#utility.yul\":5685:5966   */\n    tag_173:\n        /* \"#utility.yul\":5768:5795   */\n      tag_251\n        /* \"#utility.yul\":5790:5794   */\n      dup3\n        /* \"#utility.yul\":5768:5795   */\n      tag_152\n      jump\t// in\n    tag_251:\n        /* \"#utility.yul\":5760:5766   */\n      dup2\n        /* \"#utility.yul\":5756:5796   */\n      add\n        /* \"#utility.yul\":5898:5904   */\n      dup2\n        /* \"#utility.yul\":5886:5896   */\n      dup2\n        /* \"#utility.yul\":5883:5905   */\n      lt\n        /* \"#utility.yul\":5862:5880   */\n      0xffffffffffffffff\n        /* \"#utility.yul\":5850:5860   */\n      dup3\n        /* \"#utility.yul\":5847:5881   */\n      gt\n        /* \"#utility.yul\":5844:5906   */\n      or\n        /* \"#utility.yul\":5841:5929   */\n      iszero\n      tag_252\n      jumpi\n        /* \"#utility.yul\":5909:5927   */\n      tag_253\n      tag_172\n      jump\t// in\n    tag_253:\n        /* \"#utility.yul\":5841:5929   */\n    tag_252:\n        /* \"#utility.yul\":5949:5959   */\n      dup1\n        /* \"#utility.yul\":5945:5947   */\n      0x40\n        /* \"#utility.yul\":5938:5960   */\n      mstore\n        /* \"#utility.yul\":5728:5966   */\n      pop\n        /* \"#utility.yul\":5685:5966   */\n      pop\n      pop\n      jump\t// out\n        /* \"#utility.yul\":5972:6101   */\n    tag_174:\n        /* \"#utility.yul\":6006:6012   */\n      0x00\n        /* \"#utility.yul\":6033:6053   */\n      tag_255\n      tag_154\n      jump\t// in\n    tag_255:\n        /* \"#utility.yul\":6023:6053   */\n      swap1\n      pop\n        /* \"#utility.yul\":6062:6095   */\n      tag_256\n        /* \"#utility.yul\":6090:6094   */\n      dup3\n        /* \"#utility.yul\":6082:6088   */\n      dup3\n        /* \"#utility.yul\":6062:6095   */\n      tag_173\n      jump\t// in\n    tag_256:\n        /* \"#utility.yul\":5972:6101   */\n      swap2\n      swap1\n      pop\n      jump\t// out\n        /* \"#utility.yul\":6107:6415   */\n    tag_175:\n        /* \"#utility.yul\":6169:6173   */\n      0x00\n        /* \"#utility.yul\":6259:6277   */\n      0xffffffffffffffff\n        /* \"#utility.yul\":6251:6257   */\n      dup3\n        /* \"#utility.yul\":6248:6278   */\n      gt\n        /* \"#utility.yul\":6245:6301   */\n      iszero\n      tag_258\n      jumpi\n        /* \"#utility.yul\":6281:6299   */\n      tag_259\n      tag_172\n      jump\t// in\n    tag_259:\n        /* \"#utility.yul\":6245:6301   */\n    tag_258:\n        /* \"#utility.yul\":6319:6348   */\n      tag_260\n        /* \"#utility.yul\":6341:6347   */\n      dup3\n        /* \"#utility.yul\":6319:6348   */\n      tag_152\n      jump\t// in\n    tag_260:\n        /* \"#utility.yul\":6311:6348   */\n      swap1\n      pop\n        /* \"#utility.yul\":6403:6407   */\n      0x20\n        /* \"#utility.yul\":6397:6401   */\n      dup2\n        /* \"#utility.yul\":6393:6408   */\n      add\n        /* \"#utility.yul\":6385:6408   */\n      swap1\n      pop\n        /* \"#utility.yul\":6107:6415   */\n      swap2\n      swap1\n      pop\n      jump\t// out\n        /* \"#utility.yul\":6421:6575   */\n    tag_176:\n        /* \"#utility.yul\":6505:6511   */\n      dup3\n        /* \"#utility.yul\":6500:6503   */\n      dup2\n        /* \"#utility.yul\":6495:6498   */\n      dup4\n        /* \"#utility.yul\":6482:6512   */\n      calldatacopy\n        /* \"#utility.yul\":6567:6568   */\n      0x00\n        /* \"#utility.yul\":6558:6564   */\n      dup4\n        /* \"#utility.yul\":6553:6556   */\n      dup4\n        /* \"#utility.yul\":6549:6565   */\n      add\n        /* \"#utility.yul\":6542:6569   */\n      mstore\n        /* \"#utility.yul\":6421:6575   */\n      pop\n      pop\n      pop\n      jump\t// out\n        /* \"#utility.yul\":6581:6993   */\n    tag_177:\n        /* \"#utility.yul\":6659:6664   */\n      0x00\n        /* \"#utility.yul\":6684:6750   */\n      tag_263\n        /* \"#utility.yul\":6700:6749   */\n      tag_264\n        /* \"#utility.yul\":6742:6748   */\n      dup5\n        /* \"#utility.yul\":6700:6749   */\n      tag_175\n      jump\t// in\n    tag_264:\n        /* \"#utility.yul\":6684:6750   */\n      tag_174\n      jump\t// in\n    tag_263:\n        /* \"#utility.yul\":6675:6750   */\n      swap1\n      pop\n        /* \"#utility.yul\":6773:6779   */\n      dup3\n        /* \"#utility.yul\":6766:6771   */\n      dup2\n        /* \"#utility.yul\":6759:6780   */\n      mstore\n        /* \"#utility.yul\":6811:6815   */\n      0x20\n        /* \"#utility.yul\":6804:6809   */\n      dup2\n        /* \"#utility.yul\":6800:6816   */\n      add\n        /* \"#utility.yul\":6849:6852   */\n      dup5\n        /* \"#utility.yul\":6840:6846   */\n      dup5\n        /* \"#utility.yul\":6835:6838   */\n      dup5\n        /* \"#utility.yul\":6831:6847   */\n      add\n        /* \"#utility.yul\":6828:6853   */\n      gt\n        /* \"#utility.yul\":6825:6937   */\n      iszero\n      tag_265\n      jumpi\n        /* \"#utility.yul\":6856:6935   */\n      tag_266\n      tag_171\n      jump\t// in\n    tag_266:\n        /* \"#utility.yul\":6825:6937   */\n    tag_265:\n        /* \"#utility.yul\":6946:6987   */\n      tag_267\n        /* \"#utility.yul\":6980:6986   */\n      dup5\n        /* \"#utility.yul\":6975:6978   */\n      dup3\n        /* \"#utility.yul\":6970:6973   */\n      dup6\n        /* \"#utility.yul\":6946:6987   */\n      tag_176\n      jump\t// in\n    tag_267:\n        /* \"#utility.yul\":6665:6993   */\n      pop\n        /* \"#utility.yul\":6581:6993   */\n      swap4\n      swap3\n      pop\n      pop\n      pop\n      jump\t// out\n        /* \"#utility.yul\":7013:7353   */\n    tag_178:\n        /* \"#utility.yul\":7069:7074   */\n      0x00\n        /* \"#utility.yul\":7118:7121   */\n      dup3\n        /* \"#utility.yul\":7111:7115   */\n      0x1f\n        /* \"#utility.yul\":7103:7109   */\n      dup4\n        /* \"#utility.yul\":7099:7116   */\n      add\n        /* \"#utility.yul\":7095:7122   */\n      slt\n        /* \"#utility.yul\":7085:7207   */\n      tag_269\n      jumpi\n        /* \"#utility.yul\":7126:7205   */\n      tag_270\n      tag_170\n      jump\t// in\n    tag_270:\n        /* \"#utility.yul\":7085:7207   */\n    tag_269:\n        /* \"#utility.yul\":7243:7249   */\n      dup2\n        /* \"#utility.yul\":7230:7250   */\n      calldataload\n        /* \"#utility.yul\":7268:7347   */\n      tag_271\n        /* \"#utility.yul\":7343:7346   */\n      dup5\n        /* \"#utility.yul\":7335:7341   */\n      dup3\n        /* \"#utility.yul\":7328:7332   */\n      0x20\n        /* \"#utility.yul\":7320:7326   */\n      dup7\n        /* \"#utility.yul\":7316:7333   */\n      add\n        /* \"#utility.yul\":7268:7347   */\n      tag_177\n      jump\t// in\n    tag_271:\n        /* \"#utility.yul\":7259:7347   */\n      swap2\n      pop\n        /* \"#utility.yul\":7075:7353   */\n      pop\n        /* \"#utility.yul\":7013:7353   */\n      swap3\n      swap2\n      pop\n      pop\n      jump\t// out\n        /* \"#utility.yul\":7359:7868   */\n    tag_56:\n        /* \"#utility.yul\":7428:7434   */\n      0x00\n        /* \"#utility.yul\":7477:7479   */\n      0x20\n        /* \"#utility.yul\":7465:7474   */\n      dup3\n        /* \"#utility.yul\":7456:7463   */\n      dup5\n        /* \"#utility.yul\":7452:7475   */\n      sub\n        /* \"#utility.yul\":7448:7480   */\n      slt\n        /* \"#utility.yul\":7445:7564   */\n      iszero\n      tag_273\n      jumpi\n        /* \"#utility.yul\":7483:7562   */\n      tag_274\n      tag_155\n      jump\t// in\n    tag_274:\n        /* \"#utility.yul\":7445:7564   */\n    tag_273:\n        /* \"#utility.yul\":7631:7632   */\n      0x00\n        /* \"#utility.yul\":7620:7629   */\n      dup3\n        /* \"#utility.yul\":7616:7633   */\n      add\n        /* \"#utility.yul\":7603:7634   */\n      calldataload\n        /* \"#utility.yul\":7661:7679   */\n      0xffffffffffffffff\n        /* \"#utility.yul\":7653:7659   */\n      dup2\n        /* \"#utility.yul\":7650:7680   */\n      gt\n        /* \"#utility.yul\":7647:7764   */\n      iszero\n      tag_275\n      jumpi\n        /* \"#utility.yul\":7683:7762   */\n      tag_276\n      tag_156\n      jump\t// in\n    tag_276:\n        /* \"#utility.yul\":7647:7764   */\n    tag_275:\n        /* \"#utility.yul\":7788:7851   */\n      tag_277\n        /* \"#utility.yul\":7843:7850   */\n      dup5\n        /* \"#utility.yul\":7834:7840   */\n      dup3\n        /* \"#utility.yul\":7823:7832   */\n      dup6\n        /* \"#utility.yul\":7819:7841   */\n      add\n        /* \"#utility.yul\":7788:7851   */\n      tag_178\n      jump\t// in\n    tag_277:\n        /* \"#utility.yul\":7778:7851   */\n      swap2\n      pop\n        /* \"#utility.yul\":7574:7861   */\n      pop\n        /* \"#utility.yul\":7359:7868   */\n      swap3\n      swap2\n      pop\n      pop\n      jump\t// out\n        /* \"#utility.yul\":7874:8203   */\n    tag_61:\n        /* \"#utility.yul\":7933:7939   */\n      0x00\n        /* \"#utility.yul\":7982:7984   */\n      0x20\n        /* \"#utility.yul\":7970:7979   */\n      dup3\n        /* \"#utility.yul\":7961:7968   */\n      dup5\n        /* \"#utility.yul\":7957:7980   */\n      sub\n        /* \"#utility.yul\":7953:7985   */\n      slt\n        /* \"#utility.yul\":7950:8069   */\n      iszero\n      tag_279\n      jumpi\n        /* \"#utility.yul\":7988:8067   */\n      tag_280\n      tag_155\n      jump\t// in\n    tag_280:\n        /* \"#utility.yul\":7950:8069   */\n    tag_279:\n        /* \"#utility.yul\":8108:8109   */\n      0x00\n        /* \"#utility.yul\":8133:8186   */\n      tag_281\n        /* \"#utility.yul\":8178:8185   */\n      dup5\n        /* \"#utility.yul\":8169:8175   */\n      dup3\n        /* \"#utility.yul\":8158:8167   */\n      dup6\n        /* \"#utility.yul\":8154:8176   */\n      add\n        /* \"#utility.yul\":8133:8186   */\n      tag_160\n      jump\t// in\n    tag_281:\n        /* \"#utility.yul\":8123:8186   */\n      swap2\n      pop\n        /* \"#utility.yul\":8079:8196   */\n      pop\n        /* \"#utility.yul\":7874:8203   */\n      swap3\n      swap2\n      pop\n      pop\n      jump\t// out\n        /* \"#utility.yul\":8209:8683   */\n    tag_77:\n        /* \"#utility.yul\":8277:8283   */\n      0x00\n        /* \"#utility.yul\":8285:8291   */\n      dup1\n        /* \"#utility.yul\":8334:8336   */\n      0x40\n        /* \"#utility.yul\":8322:8331   */\n      dup4\n        /* \"#utility.yul\":8313:8320   */\n      dup6\n        /* \"#utility.yul\":8309:8332   */\n      sub\n        /* \"#utility.yul\":8305:8337   */\n      slt\n        /* \"#utility.yul\":8302:8421   */\n      iszero\n      tag_283\n      jumpi\n        /* \"#utility.yul\":8340:8419   */\n      tag_284\n      tag_155\n      jump\t// in\n    tag_284:\n        /* \"#utility.yul\":8302:8421   */\n    tag_283:\n        /* \"#utility.yul\":8460:8461   */\n      0x00\n        /* \"#utility.yul\":8485:8538   */\n      tag_285\n        /* \"#utility.yul\":8530:8537   */\n      dup6\n        /* \"#utility.yul\":8521:8527   */\n      dup3\n        /* \"#utility.yul\":8510:8519   */\n      dup7\n        /* \"#utility.yul\":8506:8528   */\n      add\n        /* \"#utility.yul\":8485:8538   */\n      tag_160\n      jump\t// in\n    tag_285:\n        /* \"#utility.yul\":8475:8538   */\n      swap3\n      pop\n        /* \"#utility.yul\":8431:8548   */\n      pop\n        /* \"#utility.yul\":8587:8589   */\n      0x20\n        /* \"#utility.yul\":8613:8666   */\n      tag_286\n        /* \"#utility.yul\":8658:8665   */\n      dup6\n        /* \"#utility.yul\":8649:8655   */\n      dup3\n        /* \"#utility.yul\":8638:8647   */\n      dup7\n        /* \"#utility.yul\":8634:8656   */\n      add\n        /* \"#utility.yul\":8613:8666   */\n      tag_160\n      jump\t// in\n    tag_286:\n        /* \"#utility.yul\":8603:8666   */\n      swap2\n      pop\n        /* \"#utility.yul\":8558:8676   */\n      pop\n        /* \"#utility.yul\":8209:8683   */\n      swap3\n      pop\n      swap3\n      swap1\n      pop\n      jump\t// out\n        /* \"#utility.yul\":8689:8869   */\n    tag_179:\n        /* \"#utility.yul\":8737:8814   */\n      0x4e487b7100000000000000000000000000000000000000000000000000000000\n        /* \"#utility.yul\":8734:8735   */\n      0x00\n        /* \"#utility.yul\":8727:8815   */\n      mstore\n        /* \"#utility.yul\":8834:8838   */\n      0x22\n        /* \"#utility.yul\":8831:8832   */\n      0x04\n        /* \"#utility.yul\":8824:8839   */\n      mstore\n        /* \"#utility.yul\":8858:8862   */\n      0x24\n        /* \"#utility.yul\":8855:8856   */\n      0x00\n        /* \"#utility.yul\":8848:8863   */\n      revert\n        /* \"#utility.yul\":8875:9195   */\n    tag_81:\n        /* \"#utility.yul\":8919:8925   */\n      0x00\n        /* \"#utility.yul\":8956:8957   */\n      0x02\n        /* \"#utility.yul\":8950:8954   */\n      dup3\n        /* \"#utility.yul\":8946:8958   */\n      div\n        /* \"#utility.yul\":8936:8958   */\n      swap1\n      pop\n        /* \"#utility.yul\":9003:9004   */\n      0x01\n        /* \"#utility.yul\":8997:9001   */\n      dup3\n        /* \"#utility.yul\":8993:9005   */\n      and\n        /* \"#utility.yul\":9024:9042   */\n      dup1\n        /* \"#utility.yul\":9014:9095   */\n      tag_289\n      jumpi\n        /* \"#utility.yul\":9080:9084   */\n      0x7f\n        /* \"#utility.yul\":9072:9078   */\n      dup3\n        /* \"#utility.yul\":9068:9085   */\n      and\n        /* \"#utility.yul\":9058:9085   */\n      swap2\n      pop\n        /* \"#utility.yul\":9014:9095   */\n    tag_289:\n        /* \"#utility.yul\":9142:9144   */\n      0x20\n        /* \"#utility.yul\":9134:9140   */\n      dup3\n        /* \"#utility.yul\":9131:9145   */\n      lt\n        /* \"#utility.yul\":9111:9129   */\n      dup2\n        /* \"#utility.yul\":9108:9146   */\n      eq\n        /* \"#utility.yul\":9105:9189   */\n      iszero\n      tag_290\n      jumpi\n        /* \"#utility.yul\":9161:9179   */\n      tag_291\n      tag_179\n      jump\t// in\n    tag_291:\n        /* \"#utility.yul\":9105:9189   */\n    tag_290:\n        /* \"#utility.yul\":8926:9195   */\n      pop\n        /* \"#utility.yul\":8875:9195   */\n      swap2\n      swap1\n      pop\n      jump\t// out\n        /* \"#utility.yul\":9201:9381   */\n    tag_180:\n        /* \"#utility.yul\":9249:9326   */\n      0x4e487b7100000000000000000000000000000000000000000000000000000000\n        /* \"#utility.yul\":9246:9247   */\n      0x00\n        /* \"#utility.yul\":9239:9327   */\n      mstore\n        /* \"#utility.yul\":9346:9350   */\n      0x11\n        /* \"#utility.yul\":9343:9344   */\n      0x04\n        /* \"#utility.yul\":9336:9351   */\n      mstore\n        /* \"#utility.yul\":9370:9374   */\n      0x24\n        /* \"#utility.yul\":9367:9368   */\n      0x00\n        /* \"#utility.yul\":9360:9375   */\n      revert\n        /* \"#utility.yul\":9387:9578   */\n    tag_123:\n        /* \"#utility.yul\":9427:9431   */\n      0x00\n        /* \"#utility.yul\":9447:9467   */\n      tag_294\n        /* \"#utility.yul\":9465:9466   */\n      dup3\n        /* \"#utility.yul\":9447:9467   */\n      tag_161\n      jump\t// in\n    tag_294:\n        /* \"#utility.yul\":9442:9467   */\n      swap2\n      pop\n        /* \"#utility.yul\":9481:9501   */\n      tag_295\n        /* \"#utility.yul\":9499:9500   */\n      dup4\n        /* \"#utility.yul\":9481:9501   */\n      tag_161\n      jump\t// in\n    tag_295:\n        /* \"#utility.yul\":9476:9501   */\n      swap3\n      pop\n        /* \"#utility.yul\":9520:9521   */\n      dup3\n        /* \"#utility.yul\":9517:9518   */\n      dup3\n        /* \"#utility.yul\":9514:9522   */\n      lt\n        /* \"#utility.yul\":9511:9545   */\n      iszero\n      tag_296\n      jumpi\n        /* \"#utility.yul\":9525:9543   */\n      tag_297\n      tag_180\n      jump\t// in\n    tag_297:\n        /* \"#utility.yul\":9511:9545   */\n    tag_296:\n        /* \"#utility.yul\":9570:9571   */\n      dup3\n        /* \"#utility.yul\":9567:9568   */\n      dup3\n        /* \"#utility.yul\":9563:9572   */\n      sub\n        /* \"#utility.yul\":9555:9572   */\n      swap1\n      pop\n        /* \"#utility.yul\":9387:9578   */\n      swap3\n      swap2\n      pop\n      pop\n      jump\t// out\n        /* \"#utility.yul\":9584:9755   */\n    tag_181:\n        /* \"#utility.yul\":9724:9747   */\n      0x64732d6d6174682d7375622d756e646572666c6f770000000000000000000000\n        /* \"#utility.yul\":9720:9721   */\n      0x00\n        /* \"#utility.yul\":9712:9718   */\n      dup3\n        /* \"#utility.yul\":9708:9722   */\n      add\n        /* \"#utility.yul\":9701:9748   */\n      mstore\n        /* \"#utility.yul\":9584:9755   */\n      pop\n      jump\t// out\n        /* \"#utility.yul\":9761:10127   */\n    tag_182:\n        /* \"#utility.yul\":9903:9906   */\n      0x00\n        /* \"#utility.yul\":9924:9991   */\n      tag_300\n        /* \"#utility.yul\":9988:9990   */\n      0x15\n        /* \"#utility.yul\":9983:9986   */\n      dup4\n        /* \"#utility.yul\":9924:9991   */\n      tag_150\n      jump\t// in\n    tag_300:\n        /* \"#utility.yul\":9917:9991   */\n      swap2\n      pop\n        /* \"#utility.yul\":10000:10093   */\n      tag_301\n        /* \"#utility.yul\":10089:10092   */\n      dup3\n        /* \"#utility.yul\":10000:10093   */\n      tag_181\n      jump\t// in\n    tag_301:\n        /* \"#utility.yul\":10118:10120   */\n      0x20\n        /* \"#utility.yul\":10113:10116   */\n      dup3\n        /* \"#utility.yul\":10109:10121   */\n      add\n        /* \"#utility.yul\":10102:10121   */\n      swap1\n      pop\n        /* \"#utility.yul\":9761:10127   */\n      swap2\n      swap1\n      pop\n      jump\t// out\n        /* \"#utility.yul\":10133:10552   */\n    tag_126:\n        /* \"#utility.yul\":10299:10303   */\n      0x00\n        /* \"#utility.yul\":10337:10339   */\n      0x20\n        /* \"#utility.yul\":10326:10335   */\n      dup3\n        /* \"#utility.yul\":10322:10340   */\n      add\n        /* \"#utility.yul\":10314:10340   */\n      swap1\n      pop\n        /* \"#utility.yul\":10386:10395   */\n      dup2\n        /* \"#utility.yul\":10380:10384   */\n      dup2\n        /* \"#utility.yul\":10376:10396   */\n      sub\n        /* \"#utility.yul\":10372:10373   */\n      0x00\n        /* \"#utility.yul\":10361:10370   */\n      dup4\n        /* \"#utility.yul\":10357:10374   */\n      add\n        /* \"#utility.yul\":10350:10397   */\n      mstore\n        /* \"#utility.yul\":10414:10545   */\n      tag_303\n        /* \"#utility.yul\":10540:10544   */\n      dup2\n        /* \"#utility.yul\":10414:10545   */\n      tag_182\n      jump\t// in\n    tag_303:\n        /* \"#utility.yul\":10406:10545   */\n      swap1\n      pop\n        /* \"#utility.yul\":10133:10552   */\n      swap2\n      swap1\n      pop\n      jump\t// out\n        /* \"#utility.yul\":10558:10863   */\n    tag_135:\n        /* \"#utility.yul\":10598:10601   */\n      0x00\n        /* \"#utility.yul\":10617:10637   */\n      tag_305\n        /* \"#utility.yul\":10635:10636   */\n      dup3\n        /* \"#utility.yul\":10617:10637   */\n      tag_161\n      jump\t// in\n    tag_305:\n        /* \"#utility.yul\":10612:10637   */\n      swap2\n      pop\n        /* \"#utility.yul\":10651:10671   */\n      tag_306\n        /* \"#utility.yul\":10669:10670   */\n      dup4\n        /* \"#utility.yul\":10651:10671   */\n      tag_161\n      jump\t// in\n    tag_306:\n        /* \"#utility.yul\":10646:10671   */\n      swap3\n      pop\n        /* \"#utility.yul\":10805:10806   */\n      dup3\n        /* \"#utility.yul\":10737:10803   */\n      0xffffffffffffffffffffffffffffffffffffffffffffffffffffffffffffffff\n        /* \"#utility.yul\":10733:10807   */\n      sub\n        /* \"#utility.yul\":10730:10731   */\n      dup3\n        /* \"#utility.yul\":10727:10808   */\n      gt\n        /* \"#utility.yul\":10724:10831   */\n      iszero\n      tag_307\n      jumpi\n        /* \"#utility.yul\":10811:10829   */\n      tag_308\n      tag_180\n      jump\t// in\n    tag_308:\n        /* \"#utility.yul\":10724:10831   */\n    tag_307:\n        /* \"#utility.yul\":10855:10856   */\n      dup3\n        /* \"#utility.yul\":10852:10853   */\n      dup3\n        /* \"#utility.yul\":10848:10857   */\n      add\n        /* \"#utility.yul\":10841:10857   */\n      swap1\n      pop\n        /* \"#utility.yul\":10558:10863   */\n      swap3\n      swap2\n      pop\n      pop\n      jump\t// out\n        /* \"#utility.yul\":10869:11039   */\n    tag_183:\n        /* \"#utility.yul\":11009:11031   */\n      0x64732d6d6174682d6164642d6f766572666c6f77000000000000000000000000\n        /* \"#utility.yul\":11005:11006   */\n      0x00\n        /* \"#utility.yul\":10997:11003   */\n      dup3\n        /* \"#utility.yul\":10993:11007   */\n      add\n        /* \"#utility.yul\":10986:11032   */\n      mstore\n        /* \"#utility.yul\":10869:11039   */\n      pop\n      jump\t// out\n        /* \"#utility.yul\":11045:11411   */\n    tag_184:\n        /* \"#utility.yul\":11187:11190   */\n      0x00\n        /* \"#utility.yul\":11208:11275   */\n      tag_311\n        /* \"#utility.yul\":11272:11274   */\n      0x14\n        /* \"#utility.yul\":11267:11270   */\n      dup4\n        /* \"#utility.yul\":11208:11275   */\n      tag_150\n      jump\t// in\n    tag_311:\n        /* \"#utility.yul\":11201:11275   */\n      swap2\n      pop\n        /* \"#utility.yul\":11284:11377   */\n      tag_312\n        /* \"#utility.yul\":11373:11376   */\n      dup3\n        /* \"#utility.yul\":11284:11377   */\n      tag_183\n      jump\t// in\n    tag_312:\n        /* \"#utility.yul\":11402:11404   */\n      0x20\n        /* \"#utility.yul\":11397:11400   */\n      dup3\n        /* \"#utility.yul\":11393:11405   */\n      add\n        /* \"#utility.yul\":11386:11405   */\n      swap1\n      pop\n        /* \"#utility.yul\":11045:11411   */\n      swap2\n      swap1\n      pop\n      jump\t// out\n        /* \"#utility.yul\":11417:11836   */\n    tag_138:\n        /* \"#utility.yul\":11583:11587   */\n      0x00\n        /* \"#utility.yul\":11621:11623   */\n      0x20\n        /* \"#utility.yul\":11610:11619   */\n      dup3\n        /* \"#utility.yul\":11606:11624   */\n      add\n        /* \"#utility.yul\":11598:11624   */\n      swap1\n      pop\n        /* \"#utility.yul\":11670:11679   */\n      dup2\n        /* \"#utility.yul\":11664:11668   */\n      dup2\n        /* \"#utility.yul\":11660:11680   */\n      sub\n        /* \"#utility.yul\":11656:11657   */\n      0x00\n        /* \"#utility.yul\":11645:11654   */\n      dup4\n        /* \"#utility.yul\":11641:11658   */\n      add\n        /* \"#utility.yul\":11634:11681   */\n      mstore\n        /* \"#utility.yul\":11698:11829   */\n      tag_314\n        /* \"#utility.yul\":11824:11828   */\n      dup2\n        /* \"#utility.yul\":11698:11829   */\n      tag_184\n      jump\t// in\n    tag_314:\n        /* \"#utility.yul\":11690:11829   */\n      swap1\n      pop\n        /* \"#utility.yul\":11417:11836   */\n      swap2\n      swap1\n      pop\n      jump\t// out\n\n    auxdata: 0xa2646970667358221220da1a99283f782d96e63d6056f69d119bf98e7273fee90fe5e85fa749ba5976f264736f6c634300080a0033\n}\n",
				"bytecode": {
					"linkReferences": {},
					"object": "60806040526040518060400160405280600981526020017f4c656f20546f6b656e000000000000000000000000000000000000000000000081525060009080519060200190620000519291906200015d565b503480156200005f57600080fd5b506402540be400600260003373ffffffffffffffffffffffffffffffffffffffff1673ffffffffffffffffffffffffffffffffffffffff1681526020019081526020016000208190555033600160006101000a81548173ffffffffffffffffffffffffffffffffffffffff021916908373ffffffffffffffffffffffffffffffffffffffff1602179055503373ffffffffffffffffffffffffffffffffffffffff16600073ffffffffffffffffffffffffffffffffffffffff167fddf252ad1be2c89b69c2b068fc378daa952ba7f163c4a11628f55a4df523b3ef6402540be4006040516200014f919062000228565b60405180910390a3620002aa565b8280546200016b9062000274565b90600052602060002090601f0160209004810192826200018f5760008555620001db565b82601f10620001aa57805160ff1916838001178555620001db565b82800160010185558215620001db579182015b82811115620001da578251825591602001919060010190620001bd565b5b509050620001ea9190620001ee565b5090565b5b8082111562000209576000816000905550600101620001ef565b5090565b6000819050919050565b62000222816200020d565b82525050565b60006020820190506200023f600083018462000217565b92915050565b7f4e487b7100000000000000000000000000000000000000000000000000000000600052602260045260246000fd5b600060028204905060018216806200028d57607f821691505b60208210811415620002a457620002a362000245565b5b50919050565b611d1180620002ba6000396000f3fe608060405234801561001057600080fd5b50600436106100ea5760003560e01c80633eaaf86b1161008c57806395d89b411161006657806395d89b4114610275578063a457c2d714610293578063a9059cbb146102c3578063dd62ed3e146102f3576100ea565b80633eaaf86b146101f75780635353a2d81461021557806370a0823114610245576100ea565b806323539224116100c8578063235392241461015b57806323b872dd14610179578063313ce567146101a957806339509351146101c7576100ea565b806306fdde03146100ef578063095ea7b31461010d57806318160ddd1461013d575b600080fd5b6100f7610323565b60405161010491906116e0565b60405180910390f35b610127600480360381019061012291906117aa565b6103b1565b6040516101349190611805565b60405180910390f35b6101456104dc565b604051610152919061182f565b60405180910390f35b6101636104e9565b6040516101709190611859565b60405180910390f35b610193600480360381019061018e9190611874565b61050f565b6040516101a09190611805565b60405180910390f35b6101b1610745565b6040516101be91906118e3565b60405180910390f35b6101e160048036038101906101dc91906117aa565b61074a565b6040516101ee9190611805565b60405180910390f35b6101ff61097f565b60405161020c919061182f565b60405180910390f35b61022f600480360381019061022a9190611a33565b610988565b60405161023c9190611805565b60405180910390f35b61025f600480360381019061025a9190611a7c565b610a57565b60405161026c919061182f565b60405180910390f35b61027d610aa0565b60405161028a91906116e0565b60405180910390f35b6102ad60048036038101906102a891906117aa565b610ad9565b6040516102ba9190611805565b60405180910390f35b6102dd60048036038101906102d891906117aa565b610d0e565b6040516102ea9190611805565b60405180910390f35b61030d60048036038101906103089190611aa9565b611103565b60405161031a919061182f565b60405180910390f35b6000805461033090611b18565b80601f016020809104026020016040519081016040528092919081815260200182805461035c90611b18565b80156103a95780601f1061037e576101008083540402835291602001916103a9565b820191906000526020600020905b81548152906001019060200180831161038c57829003601f168201915b505050505081565b60008073ffffffffffffffffffffffffffffffffffffffff168373ffffffffffffffffffffffffffffffffffffffff1614156103ec57600080fd5b81600360003373ffffffffffffffffffffffffffffffffffffffff1673ffffffffffffffffffffffffffffffffffffffff16815260200190815260200160002060008573ffffffffffffffffffffffffffffffffffffffff1673ffffffffffffffffffffffffffffffffffffffff168152602001908152602001600020819055508273ffffffffffffffffffffffffffffffffffffffff163373ffffffffffffffffffffffffffffffffffffffff167f8c5be1e5ebec7d5bd14f71427d1e84f3dd0314c0f7b2291e5b200ac8c7c3b925846040516104ca919061182f565b60405180910390a36001905092915050565b60006402540be400905090565b600160009054906101000a900473ffffffffffffffffffffffffffffffffffffffff1681565b6000600260008573ffffffffffffffffffffffffffffffffffffffff1673ffffffffffffffffffffffffffffffffffffffff1681526020019081526020016000205482111561055d57600080fd5b600360008573ffffffffffffffffffffffffffffffffffffffff1673ffffffffffffffffffffffffffffffffffffffff16815260200190815260200160002060003373ffffffffffffffffffffffffffffffffffffffff1673ffffffffffffffffffffffffffffffffffffffff168152602001908152602001600020548211156105e657600080fd5b600073ffffffffffffffffffffffffffffffffffffffff168373ffffffffffffffffffffffffffffffffffffffff16141561062057600080fd5b6106af82600360008773ffffffffffffffffffffffffffffffffffffffff1673ffffffffffffffffffffffffffffffffffffffff16815260200190815260200160002060003373ffffffffffffffffffffffffffffffffffffffff1673ffffffffffffffffffffffffffffffffffffffff1681526020019081526020016000205461118a90919063ffffffff16565b600360008673ffffffffffffffffffffffffffffffffffffffff1673ffffffffffffffffffffffffffffffffffffffff16815260200190815260200160002060003373ffffffffffffffffffffffffffffffffffffffff1673ffffffffffffffffffffffffffffffffffffffff1681526020019081526020016000208190555061073a8484846111e3565b600190509392505050565b600a81565b60008073ffffffffffffffffffffffffffffffffffffffff168373ffffffffffffffffffffffffffffffffffffffff16141561078557600080fd5b61081482600360003373ffffffffffffffffffffffffffffffffffffffff1673ffffffffffffffffffffffffffffffffffffffff16815260200190815260200160002060008673ffffffffffffffffffffffffffffffffffffffff1673ffffffffffffffffffffffffffffffffffffffff1681526020019081526020016000205461154b90919063ffffffff16565b600360003373ffffffffffffffffffffffffffffffffffffffff1673ffffffffffffffffffffffffffffffffffffffff16815260200190815260200160002060008573ffffffffffffffffffffffffffffffffffffffff1673ffffffffffffffffffffffffffffffffffffffff168152602001908152602001600020819055508273ffffffffffffffffffffffffffffffffffffffff163373ffffffffffffffffffffffffffffffffffffffff167f8c5be1e5ebec7d5bd14f71427d1e84f3dd0314c0f7b2291e5b200ac8c7c3b925600360003373ffffffffffffffffffffffffffffffffffffffff1673ffffffffffffffffffffffffffffffffffffffff16815260200190815260200160002060008773ffffffffffffffffffffffffffffffffffffffff1673ffffffffffffffffffffffffffffffffffffffff1681526020019081526020016000205460405161096d919061182f565b60405180910390a36001905092915050565b6402540be40081565b600060026000600160009054906101000a900473ffffffffffffffffffffffffffffffffffffffff1673ffffffffffffffffffffffffffffffffffffffff1673ffffffffffffffffffffffffffffffffffffffff16815260200190815260200160002054600260003373ffffffffffffffffffffffffffffffffffffffff1673ffffffffffffffffffffffffffffffffffffffff168152602001908152602001600020541015610a3757600080fd5b8160009080519060200190610a4d9291906115a4565b5060019050919050565b6000600260008373ffffffffffffffffffffffffffffffffffffffff1673ffffffffffffffffffffffffffffffffffffffff168152602001908152602001600020549050919050565b6040518060400160405280600381526020017f4c454f000000000000000000000000000000000000000000000000000000000081525081565b60008073ffffffffffffffffffffffffffffffffffffffff168373ffffffffffffffffffffffffffffffffffffffff161415610b1457600080fd5b610ba382600360003373ffffffffffffffffffffffffffffffffffffffff1673ffffffffffffffffffffffffffffffffffffffff16815260200190815260200160002060008673ffffffffffffffffffffffffffffffffffffffff1673ffffffffffffffffffffffffffffffffffffffff1681526020019081526020016000205461118a90919063ffffffff16565b600360003373ffffffffffffffffffffffffffffffffffffffff1673ffffffffffffffffffffffffffffffffffffffff16815260200190815260200160002060008573ffffffffffffffffffffffffffffffffffffffff1673ffffffffffffffffffffffffffffffffffffffff168152602001908152602001600020819055508273ffffffffffffffffffffffffffffffffffffffff163373ffffffffffffffffffffffffffffffffffffffff167f8c5be1e5ebec7d5bd14f71427d1e84f3dd0314c0f7b2291e5b200ac8c7c3b925600360003373ffffffffffffffffffffffffffffffffffffffff1673ffffffffffffffffffffffffffffffffffffffff16815260200190815260200160002060008773ffffffffffffffffffffffffffffffffffffffff1673ffffffffffffffffffffffffffffffffffffffff16815260200190815260200160002054604051610cfc919061182f565b60405180910390a36001905092915050565b6000600260003373ffffffffffffffffffffffffffffffffffffffff1673ffffffffffffffffffffffffffffffffffffffff16815260200190815260200160002054821115610d5c57600080fd5b600073ffffffffffffffffffffffffffffffffffffffff168373ffffffffffffffffffffffffffffffffffffffff161415610d9657600080fd5b610de882600260003373ffffffffffffffffffffffffffffffffffffffff1673ffffffffffffffffffffffffffffffffffffffff1681526020019081526020016000205461118a90919063ffffffff16565b600260003373ffffffffffffffffffffffffffffffffffffffff1673ffffffffffffffffffffffffffffffffffffffff1681526020019081526020016000208190555060026000600160009054906101000a900473ffffffffffffffffffffffffffffffffffffffff1673ffffffffffffffffffffffffffffffffffffffff1673ffffffffffffffffffffffffffffffffffffffff16815260200190815260200160002054600260003373ffffffffffffffffffffffffffffffffffffffff1673ffffffffffffffffffffffffffffffffffffffff168152602001908152602001600020541115610f155733600160006101000a81548173ffffffffffffffffffffffffffffffffffffffff021916908373ffffffffffffffffffffffffffffffffffffffff1602179055505b610f6782600260008673ffffffffffffffffffffffffffffffffffffffff1673ffffffffffffffffffffffffffffffffffffffff1681526020019081526020016000205461154b90919063ffffffff16565b600260008573ffffffffffffffffffffffffffffffffffffffff1673ffffffffffffffffffffffffffffffffffffffff1681526020019081526020016000208190555060026000600160009054906101000a900473ffffffffffffffffffffffffffffffffffffffff1673ffffffffffffffffffffffffffffffffffffffff1673ffffffffffffffffffffffffffffffffffffffff16815260200190815260200160002054600260008573ffffffffffffffffffffffffffffffffffffffff1673ffffffffffffffffffffffffffffffffffffffff1681526020019081526020016000205411156110945782600160006101000a81548173ffffffffffffffffffffffffffffffffffffffff021916908373ffffffffffffffffffffffffffffffffffffffff1602179055505b8273ffffffffffffffffffffffffffffffffffffffff163373ffffffffffffffffffffffffffffffffffffffff167fddf252ad1be2c89b69c2b068fc378daa952ba7f163c4a11628f55a4df523b3ef846040516110f1919061182f565b60405180910390a36001905092915050565b6000600360008473ffffffffffffffffffffffffffffffffffffffff1673ffffffffffffffffffffffffffffffffffffffff16815260200190815260200160002060008373ffffffffffffffffffffffffffffffffffffffff1673ffffffffffffffffffffffffffffffffffffffff16815260200190815260200160002054905092915050565b60008282846111999190611b79565b91508111156111dd576040517f08c379a00000000000000000000000000000000000000000000000000000000081526004016111d490611bf9565b60405180910390fd5b92915050565b61123581600260008673ffffffffffffffffffffffffffffffffffffffff1673ffffffffffffffffffffffffffffffffffffffff1681526020019081526020016000205461118a90919063ffffffff16565b600260008573ffffffffffffffffffffffffffffffffffffffff1673ffffffffffffffffffffffffffffffffffffffff1681526020019081526020016000208190555060026000600160009054906101000a900473ffffffffffffffffffffffffffffffffffffffff1673ffffffffffffffffffffffffffffffffffffffff1673ffffffffffffffffffffffffffffffffffffffff16815260200190815260200160002054600260008573ffffffffffffffffffffffffffffffffffffffff1673ffffffffffffffffffffffffffffffffffffffff1681526020019081526020016000205411156113625782600160006101000a81548173ffffffffffffffffffffffffffffffffffffffff021916908373ffffffffffffffffffffffffffffffffffffffff1602179055505b6113b481600260008573ffffffffffffffffffffffffffffffffffffffff1673ffffffffffffffffffffffffffffffffffffffff1681526020019081526020016000205461154b90919063ffffffff16565b600260008473ffffffffffffffffffffffffffffffffffffffff1673ffffffffffffffffffffffffffffffffffffffff1681526020019081526020016000208190555060026000600160009054906101000a900473ffffffffffffffffffffffffffffffffffffffff1673ffffffffffffffffffffffffffffffffffffffff1673ffffffffffffffffffffffffffffffffffffffff16815260200190815260200160002054600260008473ffffffffffffffffffffffffffffffffffffffff1673ffffffffffffffffffffffffffffffffffffffff1681526020019081526020016000205411156114e15781600160006101000a81548173ffffffffffffffffffffffffffffffffffffffff021916908373ffffffffffffffffffffffffffffffffffffffff1602179055505b8173ffffffffffffffffffffffffffffffffffffffff168373ffffffffffffffffffffffffffffffffffffffff167fddf252ad1be2c89b69c2b068fc378daa952ba7f163c4a11628f55a4df523b3ef8360405161153e919061182f565b60405180910390a3505050565b600082828461155a9190611c19565b915081101561159e576040517f08c379a000000000000000000000000000000000000000000000000000000000815260040161159590611cbb565b60405180910390fd5b92915050565b8280546115b090611b18565b90600052602060002090601f0160209004810192826115d25760008555611619565b82601f106115eb57805160ff1916838001178555611619565b82800160010185558215611619579182015b828111156116185782518255916020019190600101906115fd565b5b509050611626919061162a565b5090565b5b8082111561164357600081600090555060010161162b565b5090565b600081519050919050565b600082825260208201905092915050565b60005b83811015611681578082015181840152602081019050611666565b83811115611690576000848401525b50505050565b6000601f19601f8301169050919050565b60006116b282611647565b6116bc8185611652565b93506116cc818560208601611663565b6116d581611696565b840191505092915050565b600060208201905081810360008301526116fa81846116a7565b905092915050565b6000604051905090565b600080fd5b600080fd5b600073ffffffffffffffffffffffffffffffffffffffff82169050919050565b600061174182611716565b9050919050565b61175181611736565b811461175c57600080fd5b50565b60008135905061176e81611748565b92915050565b6000819050919050565b61178781611774565b811461179257600080fd5b50565b6000813590506117a48161177e565b92915050565b600080604083850312156117c1576117c061170c565b5b60006117cf8582860161175f565b92505060206117e085828601611795565b9150509250929050565b60008115159050919050565b6117ff816117ea565b82525050565b600060208201905061181a60008301846117f6565b92915050565b61182981611774565b82525050565b60006020820190506118446000830184611820565b92915050565b61185381611736565b82525050565b600060208201905061186e600083018461184a565b92915050565b60008060006060848603121561188d5761188c61170c565b5b600061189b8682870161175f565b93505060206118ac8682870161175f565b92505060406118bd86828701611795565b9150509250925092565b600060ff82169050919050565b6118dd816118c7565b82525050565b60006020820190506118f860008301846118d4565b92915050565b600080fd5b600080fd5b7f4e487b7100000000000000000000000000000000000000000000000000000000600052604160045260246000fd5b61194082611696565b810181811067ffffffffffffffff8211171561195f5761195e611908565b5b80604052505050565b6000611972611702565b905061197e8282611937565b919050565b600067ffffffffffffffff82111561199e5761199d611908565b5b6119a782611696565b9050602081019050919050565b82818337600083830152505050565b60006119d66119d184611983565b611968565b9050828152602081018484840111156119f2576119f1611903565b5b6119fd8482856119b4565b509392505050565b600082601f830112611a1a57611a196118fe565b5b8135611a2a8482602086016119c3565b91505092915050565b600060208284031215611a4957611a4861170c565b5b600082013567ffffffffffffffff811115611a6757611a66611711565b5b611a7384828501611a05565b91505092915050565b600060208284031215611a9257611a9161170c565b5b6000611aa08482850161175f565b91505092915050565b60008060408385031215611ac057611abf61170c565b5b6000611ace8582860161175f565b9250506020611adf8582860161175f565b9150509250929050565b7f4e487b7100000000000000000000000000000000000000000000000000000000600052602260045260246000fd5b60006002820490506001821680611b3057607f821691505b60208210811415611b4457611b43611ae9565b5b50919050565b7f4e487b7100000000000000000000000000000000000000000000000000000000600052601160045260246000fd5b6000611b8482611774565b9150611b8f83611774565b925082821015611ba257611ba1611b4a565b5b828203905092915050565b7f64732d6d6174682d7375622d756e646572666c6f770000000000000000000000600082015250565b6000611be3601583611652565b9150611bee82611bad565b602082019050919050565b60006020820190508181036000830152611c1281611bd6565b9050919050565b6000611c2482611774565b9150611c2f83611774565b9250827fffffffffffffffffffffffffffffffffffffffffffffffffffffffffffffffff03821115611c6457611c63611b4a565b5b828201905092915050565b7f64732d6d6174682d6164642d6f766572666c6f77000000000000000000000000600082015250565b6000611ca5601483611652565b9150611cb082611c6f565b602082019050919050565b60006020820190508181036000830152611cd481611c98565b905091905056fea2646970667358221220da1a99283f782d96e63d6056f69d119bf98e7273fee90fe5e85fa749ba5976f264736f6c634300080a0033",
					"opcodes": "PUSH1 0x80 PUSH1 0x40 MSTORE PUSH1 0x40 MLOAD DUP1 PUSH1 0x40 ADD PUSH1 0x40 MSTORE DUP1 PUSH1 0x9 DUP2 MSTORE PUSH1 0x20 ADD PUSH32 0x4C656F20546F6B656E0000000000000000000000000000000000000000000000 DUP2 MSTORE POP PUSH1 0x0 SWAP1 DUP1 MLOAD SWAP1 PUSH1 0x20 ADD SWAP1 PUSH3 0x51 SWAP3 SWAP2 SWAP1 PUSH3 0x15D JUMP JUMPDEST POP CALLVALUE DUP1 ISZERO PUSH3 0x5F JUMPI PUSH1 0x0 DUP1 REVERT JUMPDEST POP PUSH5 0x2540BE400 PUSH1 0x2 PUSH1 0x0 CALLER PUSH20 0xFFFFFFFFFFFFFFFFFFFFFFFFFFFFFFFFFFFFFFFF AND PUSH20 0xFFFFFFFFFFFFFFFFFFFFFFFFFFFFFFFFFFFFFFFF AND DUP2 MSTORE PUSH1 0x20 ADD SWAP1 DUP2 MSTORE PUSH1 0x20 ADD PUSH1 0x0 KECCAK256 DUP2 SWAP1 SSTORE POP CALLER PUSH1 0x1 PUSH1 0x0 PUSH2 0x100 EXP DUP2 SLOAD DUP2 PUSH20 0xFFFFFFFFFFFFFFFFFFFFFFFFFFFFFFFFFFFFFFFF MUL NOT AND SWAP1 DUP4 PUSH20 0xFFFFFFFFFFFFFFFFFFFFFFFFFFFFFFFFFFFFFFFF AND MUL OR SWAP1 SSTORE POP CALLER PUSH20 0xFFFFFFFFFFFFFFFFFFFFFFFFFFFFFFFFFFFFFFFF AND PUSH1 0x0 PUSH20 0xFFFFFFFFFFFFFFFFFFFFFFFFFFFFFFFFFFFFFFFF AND PUSH32 0xDDF252AD1BE2C89B69C2B068FC378DAA952BA7F163C4A11628F55A4DF523B3EF PUSH5 0x2540BE400 PUSH1 0x40 MLOAD PUSH3 0x14F SWAP2 SWAP1 PUSH3 0x228 JUMP JUMPDEST PUSH1 0x40 MLOAD DUP1 SWAP2 SUB SWAP1 LOG3 PUSH3 0x2AA JUMP JUMPDEST DUP3 DUP1 SLOAD PUSH3 0x16B SWAP1 PUSH3 0x274 JUMP JUMPDEST SWAP1 PUSH1 0x0 MSTORE PUSH1 0x20 PUSH1 0x0 KECCAK256 SWAP1 PUSH1 0x1F ADD PUSH1 0x20 SWAP1 DIV DUP2 ADD SWAP3 DUP3 PUSH3 0x18F JUMPI PUSH1 0x0 DUP6 SSTORE PUSH3 0x1DB JUMP JUMPDEST DUP3 PUSH1 0x1F LT PUSH3 0x1AA JUMPI DUP1 MLOAD PUSH1 0xFF NOT AND DUP4 DUP1 ADD OR DUP6 SSTORE PUSH3 0x1DB JUMP JUMPDEST DUP3 DUP1 ADD PUSH1 0x1 ADD DUP6 SSTORE DUP3 ISZERO PUSH3 0x1DB JUMPI SWAP2 DUP3 ADD JUMPDEST DUP3 DUP2 GT ISZERO PUSH3 0x1DA JUMPI DUP3 MLOAD DUP3 SSTORE SWAP2 PUSH1 0x20 ADD SWAP2 SWAP1 PUSH1 0x1 ADD SWAP1 PUSH3 0x1BD JUMP JUMPDEST JUMPDEST POP SWAP1 POP PUSH3 0x1EA SWAP2 SWAP1 PUSH3 0x1EE JUMP JUMPDEST POP SWAP1 JUMP JUMPDEST JUMPDEST DUP1 DUP3 GT ISZERO PUSH3 0x209 JUMPI PUSH1 0x0 DUP2 PUSH1 0x0 SWAP1 SSTORE POP PUSH1 0x1 ADD PUSH3 0x1EF JUMP JUMPDEST POP SWAP1 JUMP JUMPDEST PUSH1 0x0 DUP2 SWAP1 POP SWAP2 SWAP1 POP JUMP JUMPDEST PUSH3 0x222 DUP2 PUSH3 0x20D JUMP JUMPDEST DUP3 MSTORE POP POP JUMP JUMPDEST PUSH1 0x0 PUSH1 0x20 DUP3 ADD SWAP1 POP PUSH3 0x23F PUSH1 0x0 DUP4 ADD DUP5 PUSH3 0x217 JUMP JUMPDEST SWAP3 SWAP2 POP POP JUMP JUMPDEST PUSH32 0x4E487B7100000000000000000000000000000000000000000000000000000000 PUSH1 0x0 MSTORE PUSH1 0x22 PUSH1 0x4 MSTORE PUSH1 0x24 PUSH1 0x0 REVERT JUMPDEST PUSH1 0x0 PUSH1 0x2 DUP3 DIV SWAP1 POP PUSH1 0x1 DUP3 AND DUP1 PUSH3 0x28D JUMPI PUSH1 0x7F DUP3 AND SWAP2 POP JUMPDEST PUSH1 0x20 DUP3 LT DUP2 EQ ISZERO PUSH3 0x2A4 JUMPI PUSH3 0x2A3 PUSH3 0x245 JUMP JUMPDEST JUMPDEST POP SWAP2 SWAP1 POP JUMP JUMPDEST PUSH2 0x1D11 DUP1 PUSH3 0x2BA PUSH1 0x0 CODECOPY PUSH1 0x0 RETURN INVALID PUSH1 0x80 PUSH1 0x40 MSTORE CALLVALUE DUP1 ISZERO PUSH2 0x10 JUMPI PUSH1 0x0 DUP1 REVERT JUMPDEST POP PUSH1 0x4 CALLDATASIZE LT PUSH2 0xEA JUMPI PUSH1 0x0 CALLDATALOAD PUSH1 0xE0 SHR DUP1 PUSH4 0x3EAAF86B GT PUSH2 0x8C JUMPI DUP1 PUSH4 0x95D89B41 GT PUSH2 0x66 JUMPI DUP1 PUSH4 0x95D89B41 EQ PUSH2 0x275 JUMPI DUP1 PUSH4 0xA457C2D7 EQ PUSH2 0x293 JUMPI DUP1 PUSH4 0xA9059CBB EQ PUSH2 0x2C3 JUMPI DUP1 PUSH4 0xDD62ED3E EQ PUSH2 0x2F3 JUMPI PUSH2 0xEA JUMP JUMPDEST DUP1 PUSH4 0x3EAAF86B EQ PUSH2 0x1F7 JUMPI DUP1 PUSH4 0x5353A2D8 EQ PUSH2 0x215 JUMPI DUP1 PUSH4 0x70A08231 EQ PUSH2 0x245 JUMPI PUSH2 0xEA JUMP JUMPDEST DUP1 PUSH4 0x23539224 GT PUSH2 0xC8 JUMPI DUP1 PUSH4 0x23539224 EQ PUSH2 0x15B JUMPI DUP1 PUSH4 0x23B872DD EQ PUSH2 0x179 JUMPI DUP1 PUSH4 0x313CE567 EQ PUSH2 0x1A9 JUMPI DUP1 PUSH4 0x39509351 EQ PUSH2 0x1C7 JUMPI PUSH2 0xEA JUMP JUMPDEST DUP1 PUSH4 0x6FDDE03 EQ PUSH2 0xEF JUMPI DUP1 PUSH4 0x95EA7B3 EQ PUSH2 0x10D JUMPI DUP1 PUSH4 0x18160DDD EQ PUSH2 0x13D JUMPI JUMPDEST PUSH1 0x0 DUP1 REVERT JUMPDEST PUSH2 0xF7 PUSH2 0x323 JUMP JUMPDEST PUSH1 0x40 MLOAD PUSH2 0x104 SWAP2 SWAP1 PUSH2 0x16E0 JUMP JUMPDEST PUSH1 0x40 MLOAD DUP1 SWAP2 SUB SWAP1 RETURN JUMPDEST PUSH2 0x127 PUSH1 0x4 DUP1 CALLDATASIZE SUB DUP2 ADD SWAP1 PUSH2 0x122 SWAP2 SWAP1 PUSH2 0x17AA JUMP JUMPDEST PUSH2 0x3B1 JUMP JUMPDEST PUSH1 0x40 MLOAD PUSH2 0x134 SWAP2 SWAP1 PUSH2 0x1805 JUMP JUMPDEST PUSH1 0x40 MLOAD DUP1 SWAP2 SUB SWAP1 RETURN JUMPDEST PUSH2 0x145 PUSH2 0x4DC JUMP JUMPDEST PUSH1 0x40 MLOAD PUSH2 0x152 SWAP2 SWAP1 PUSH2 0x182F JUMP JUMPDEST PUSH1 0x40 MLOAD DUP1 SWAP2 SUB SWAP1 RETURN JUMPDEST PUSH2 0x163 PUSH2 0x4E9 JUMP JUMPDEST PUSH1 0x40 MLOAD PUSH2 0x170 SWAP2 SWAP1 PUSH2 0x1859 JUMP JUMPDEST PUSH1 0x40 MLOAD DUP1 SWAP2 SUB SWAP1 RETURN JUMPDEST PUSH2 0x193 PUSH1 0x4 DUP1 CALLDATASIZE SUB DUP2 ADD SWAP1 PUSH2 0x18E SWAP2 SWAP1 PUSH2 0x1874 JUMP JUMPDEST PUSH2 0x50F JUMP JUMPDEST PUSH1 0x40 MLOAD PUSH2 0x1A0 SWAP2 SWAP1 PUSH2 0x1805 JUMP JUMPDEST PUSH1 0x40 MLOAD DUP1 SWAP2 SUB SWAP1 RETURN JUMPDEST PUSH2 0x1B1 PUSH2 0x745 JUMP JUMPDEST PUSH1 0x40 MLOAD PUSH2 0x1BE SWAP2 SWAP1 PUSH2 0x18E3 JUMP JUMPDEST PUSH1 0x40 MLOAD DUP1 SWAP2 SUB SWAP1 RETURN JUMPDEST PUSH2 0x1E1 PUSH1 0x4 DUP1 CALLDATASIZE SUB DUP2 ADD SWAP1 PUSH2 0x1DC SWAP2 SWAP1 PUSH2 0x17AA JUMP JUMPDEST PUSH2 0x74A JUMP JUMPDEST PUSH1 0x40 MLOAD PUSH2 0x1EE SWAP2 SWAP1 PUSH2 0x1805 JUMP JUMPDEST PUSH1 0x40 MLOAD DUP1 SWAP2 SUB SWAP1 RETURN JUMPDEST PUSH2 0x1FF PUSH2 0x97F JUMP JUMPDEST PUSH1 0x40 MLOAD PUSH2 0x20C SWAP2 SWAP1 PUSH2 0x182F JUMP JUMPDEST PUSH1 0x40 MLOAD DUP1 SWAP2 SUB SWAP1 RETURN JUMPDEST PUSH2 0x22F PUSH1 0x4 DUP1 CALLDATASIZE SUB DUP2 ADD SWAP1 PUSH2 0x22A SWAP2 SWAP1 PUSH2 0x1A33 JUMP JUMPDEST PUSH2 0x988 JUMP JUMPDEST PUSH1 0x40 MLOAD PUSH2 0x23C SWAP2 SWAP1 PUSH2 0x1805 JUMP JUMPDEST PUSH1 0x40 MLOAD DUP1 SWAP2 SUB SWAP1 RETURN JUMPDEST PUSH2 0x25F PUSH1 0x4 DUP1 CALLDATASIZE SUB DUP2 ADD SWAP1 PUSH2 0x25A SWAP2 SWAP1 PUSH2 0x1A7C JUMP JUMPDEST PUSH2 0xA57 JUMP JUMPDEST PUSH1 0x40 MLOAD PUSH2 0x26C SWAP2 SWAP1 PUSH2 0x182F JUMP JUMPDEST PUSH1 0x40 MLOAD DUP1 SWAP2 SUB SWAP1 RETURN JUMPDEST PUSH2 0x27D PUSH2 0xAA0 JUMP JUMPDEST PUSH1 0x40 MLOAD PUSH2 0x28A SWAP2 SWAP1 PUSH2 0x16E0 JUMP JUMPDEST PUSH1 0x40 MLOAD DUP1 SWAP2 SUB SWAP1 RETURN JUMPDEST PUSH2 0x2AD PUSH1 0x4 DUP1 CALLDATASIZE SUB DUP2 ADD SWAP1 PUSH2 0x2A8 SWAP2 SWAP1 PUSH2 0x17AA JUMP JUMPDEST PUSH2 0xAD9 JUMP JUMPDEST PUSH1 0x40 MLOAD PUSH2 0x2BA SWAP2 SWAP1 PUSH2 0x1805 JUMP JUMPDEST PUSH1 0x40 MLOAD DUP1 SWAP2 SUB SWAP1 RETURN JUMPDEST PUSH2 0x2DD PUSH1 0x4 DUP1 CALLDATASIZE SUB DUP2 ADD SWAP1 PUSH2 0x2D8 SWAP2 SWAP1 PUSH2 0x17AA JUMP JUMPDEST PUSH2 0xD0E JUMP JUMPDEST PUSH1 0x40 MLOAD PUSH2 0x2EA SWAP2 SWAP1 PUSH2 0x1805 JUMP JUMPDEST PUSH1 0x40 MLOAD DUP1 SWAP2 SUB SWAP1 RETURN JUMPDEST PUSH2 0x30D PUSH1 0x4 DUP1 CALLDATASIZE SUB DUP2 ADD SWAP1 PUSH2 0x308 SWAP2 SWAP1 PUSH2 0x1AA9 JUMP JUMPDEST PUSH2 0x1103 JUMP JUMPDEST PUSH1 0x40 MLOAD PUSH2 0x31A SWAP2 SWAP1 PUSH2 0x182F JUMP JUMPDEST PUSH1 0x40 MLOAD DUP1 SWAP2 SUB SWAP1 RETURN JUMPDEST PUSH1 0x0 DUP1 SLOAD PUSH2 0x330 SWAP1 PUSH2 0x1B18 JUMP JUMPDEST DUP1 PUSH1 0x1F ADD PUSH1 0x20 DUP1 SWAP2 DIV MUL PUSH1 0x20 ADD PUSH1 0x40 MLOAD SWAP1 DUP2 ADD PUSH1 0x40 MSTORE DUP1 SWAP3 SWAP2 SWAP1 DUP2 DUP2 MSTORE PUSH1 0x20 ADD DUP3 DUP1 SLOAD PUSH2 0x35C SWAP1 PUSH2 0x1B18 JUMP JUMPDEST DUP1 ISZERO PUSH2 0x3A9 JUMPI DUP1 PUSH1 0x1F LT PUSH2 0x37E JUMPI PUSH2 0x100 DUP1 DUP4 SLOAD DIV MUL DUP4 MSTORE SWAP2 PUSH1 0x20 ADD SWAP2 PUSH2 0x3A9 JUMP JUMPDEST DUP3 ADD SWAP2 SWAP1 PUSH1 0x0 MSTORE PUSH1 0x20 PUSH1 0x0 KECCAK256 SWAP1 JUMPDEST DUP2 SLOAD DUP2 MSTORE SWAP1 PUSH1 0x1 ADD SWAP1 PUSH1 0x20 ADD DUP1 DUP4 GT PUSH2 0x38C JUMPI DUP3 SWAP1 SUB PUSH1 0x1F AND DUP3 ADD SWAP2 JUMPDEST POP POP POP POP POP DUP2 JUMP JUMPDEST PUSH1 0x0 DUP1 PUSH20 0xFFFFFFFFFFFFFFFFFFFFFFFFFFFFFFFFFFFFFFFF AND DUP4 PUSH20 0xFFFFFFFFFFFFFFFFFFFFFFFFFFFFFFFFFFFFFFFF AND EQ ISZERO PUSH2 0x3EC JUMPI PUSH1 0x0 DUP1 REVERT JUMPDEST DUP2 PUSH1 0x3 PUSH1 0x0 CALLER PUSH20 0xFFFFFFFFFFFFFFFFFFFFFFFFFFFFFFFFFFFFFFFF AND PUSH20 0xFFFFFFFFFFFFFFFFFFFFFFFFFFFFFFFFFFFFFFFF AND DUP2 MSTORE PUSH1 0x20 ADD SWAP1 DUP2 MSTORE PUSH1 0x20 ADD PUSH1 0x0 KECCAK256 PUSH1 0x0 DUP6 PUSH20 0xFFFFFFFFFFFFFFFFFFFFFFFFFFFFFFFFFFFFFFFF AND PUSH20 0xFFFFFFFFFFFFFFFFFFFFFFFFFFFFFFFFFFFFFFFF AND DUP2 MSTORE PUSH1 0x20 ADD SWAP1 DUP2 MSTORE PUSH1 0x20 ADD PUSH1 0x0 KECCAK256 DUP2 SWAP1 SSTORE POP DUP3 PUSH20 0xFFFFFFFFFFFFFFFFFFFFFFFFFFFFFFFFFFFFFFFF AND CALLER PUSH20 0xFFFFFFFFFFFFFFFFFFFFFFFFFFFFFFFFFFFFFFFF AND PUSH32 0x8C5BE1E5EBEC7D5BD14F71427D1E84F3DD0314C0F7B2291E5B200AC8C7C3B925 DUP5 PUSH1 0x40 MLOAD PUSH2 0x4CA SWAP2 SWAP1 PUSH2 0x182F JUMP JUMPDEST PUSH1 0x40 MLOAD DUP1 SWAP2 SUB SWAP1 LOG3 PUSH1 0x1 SWAP1 POP SWAP3 SWAP2 POP POP JUMP JUMPDEST PUSH1 0x0 PUSH5 0x2540BE400 SWAP1 POP SWAP1 JUMP JUMPDEST PUSH1 0x1 PUSH1 0x0 SWAP1 SLOAD SWAP1 PUSH2 0x100 EXP SWAP1 DIV PUSH20 0xFFFFFFFFFFFFFFFFFFFFFFFFFFFFFFFFFFFFFFFF AND DUP2 JUMP JUMPDEST PUSH1 0x0 PUSH1 0x2 PUSH1 0x0 DUP6 PUSH20 0xFFFFFFFFFFFFFFFFFFFFFFFFFFFFFFFFFFFFFFFF AND PUSH20 0xFFFFFFFFFFFFFFFFFFFFFFFFFFFFFFFFFFFFFFFF AND DUP2 MSTORE PUSH1 0x20 ADD SWAP1 DUP2 MSTORE PUSH1 0x20 ADD PUSH1 0x0 KECCAK256 SLOAD DUP3 GT ISZERO PUSH2 0x55D JUMPI PUSH1 0x0 DUP1 REVERT JUMPDEST PUSH1 0x3 PUSH1 0x0 DUP6 PUSH20 0xFFFFFFFFFFFFFFFFFFFFFFFFFFFFFFFFFFFFFFFF AND PUSH20 0xFFFFFFFFFFFFFFFFFFFFFFFFFFFFFFFFFFFFFFFF AND DUP2 MSTORE PUSH1 0x20 ADD SWAP1 DUP2 MSTORE PUSH1 0x20 ADD PUSH1 0x0 KECCAK256 PUSH1 0x0 CALLER PUSH20 0xFFFFFFFFFFFFFFFFFFFFFFFFFFFFFFFFFFFFFFFF AND PUSH20 0xFFFFFFFFFFFFFFFFFFFFFFFFFFFFFFFFFFFFFFFF AND DUP2 MSTORE PUSH1 0x20 ADD SWAP1 DUP2 MSTORE PUSH1 0x20 ADD PUSH1 0x0 KECCAK256 SLOAD DUP3 GT ISZERO PUSH2 0x5E6 JUMPI PUSH1 0x0 DUP1 REVERT JUMPDEST PUSH1 0x0 PUSH20 0xFFFFFFFFFFFFFFFFFFFFFFFFFFFFFFFFFFFFFFFF AND DUP4 PUSH20 0xFFFFFFFFFFFFFFFFFFFFFFFFFFFFFFFFFFFFFFFF AND EQ ISZERO PUSH2 0x620 JUMPI PUSH1 0x0 DUP1 REVERT JUMPDEST PUSH2 0x6AF DUP3 PUSH1 0x3 PUSH1 0x0 DUP8 PUSH20 0xFFFFFFFFFFFFFFFFFFFFFFFFFFFFFFFFFFFFFFFF AND PUSH20 0xFFFFFFFFFFFFFFFFFFFFFFFFFFFFFFFFFFFFFFFF AND DUP2 MSTORE PUSH1 0x20 ADD SWAP1 DUP2 MSTORE PUSH1 0x20 ADD PUSH1 0x0 KECCAK256 PUSH1 0x0 CALLER PUSH20 0xFFFFFFFFFFFFFFFFFFFFFFFFFFFFFFFFFFFFFFFF AND PUSH20 0xFFFFFFFFFFFFFFFFFFFFFFFFFFFFFFFFFFFFFFFF AND DUP2 MSTORE PUSH1 0x20 ADD SWAP1 DUP2 MSTORE PUSH1 0x20 ADD PUSH1 0x0 KECCAK256 SLOAD PUSH2 0x118A SWAP1 SWAP2 SWAP1 PUSH4 0xFFFFFFFF AND JUMP JUMPDEST PUSH1 0x3 PUSH1 0x0 DUP7 PUSH20 0xFFFFFFFFFFFFFFFFFFFFFFFFFFFFFFFFFFFFFFFF AND PUSH20 0xFFFFFFFFFFFFFFFFFFFFFFFFFFFFFFFFFFFFFFFF AND DUP2 MSTORE PUSH1 0x20 ADD SWAP1 DUP2 MSTORE PUSH1 0x20 ADD PUSH1 0x0 KECCAK256 PUSH1 0x0 CALLER PUSH20 0xFFFFFFFFFFFFFFFFFFFFFFFFFFFFFFFFFFFFFFFF AND PUSH20 0xFFFFFFFFFFFFFFFFFFFFFFFFFFFFFFFFFFFFFFFF AND DUP2 MSTORE PUSH1 0x20 ADD SWAP1 DUP2 MSTORE PUSH1 0x20 ADD PUSH1 0x0 KECCAK256 DUP2 SWAP1 SSTORE POP PUSH2 0x73A DUP5 DUP5 DUP5 PUSH2 0x11E3 JUMP JUMPDEST PUSH1 0x1 SWAP1 POP SWAP4 SWAP3 POP POP POP JUMP JUMPDEST PUSH1 0xA DUP2 JUMP JUMPDEST PUSH1 0x0 DUP1 PUSH20 0xFFFFFFFFFFFFFFFFFFFFFFFFFFFFFFFFFFFFFFFF AND DUP4 PUSH20 0xFFFFFFFFFFFFFFFFFFFFFFFFFFFFFFFFFFFFFFFF AND EQ ISZERO PUSH2 0x785 JUMPI PUSH1 0x0 DUP1 REVERT JUMPDEST PUSH2 0x814 DUP3 PUSH1 0x3 PUSH1 0x0 CALLER PUSH20 0xFFFFFFFFFFFFFFFFFFFFFFFFFFFFFFFFFFFFFFFF AND PUSH20 0xFFFFFFFFFFFFFFFFFFFFFFFFFFFFFFFFFFFFFFFF AND DUP2 MSTORE PUSH1 0x20 ADD SWAP1 DUP2 MSTORE PUSH1 0x20 ADD PUSH1 0x0 KECCAK256 PUSH1 0x0 DUP7 PUSH20 0xFFFFFFFFFFFFFFFFFFFFFFFFFFFFFFFFFFFFFFFF AND PUSH20 0xFFFFFFFFFFFFFFFFFFFFFFFFFFFFFFFFFFFFFFFF AND DUP2 MSTORE PUSH1 0x20 ADD SWAP1 DUP2 MSTORE PUSH1 0x20 ADD PUSH1 0x0 KECCAK256 SLOAD PUSH2 0x154B SWAP1 SWAP2 SWAP1 PUSH4 0xFFFFFFFF AND JUMP JUMPDEST PUSH1 0x3 PUSH1 0x0 CALLER PUSH20 0xFFFFFFFFFFFFFFFFFFFFFFFFFFFFFFFFFFFFFFFF AND PUSH20 0xFFFFFFFFFFFFFFFFFFFFFFFFFFFFFFFFFFFFFFFF AND DUP2 MSTORE PUSH1 0x20 ADD SWAP1 DUP2 MSTORE PUSH1 0x20 ADD PUSH1 0x0 KECCAK256 PUSH1 0x0 DUP6 PUSH20 0xFFFFFFFFFFFFFFFFFFFFFFFFFFFFFFFFFFFFFFFF AND PUSH20 0xFFFFFFFFFFFFFFFFFFFFFFFFFFFFFFFFFFFFFFFF AND DUP2 MSTORE PUSH1 0x20 ADD SWAP1 DUP2 MSTORE PUSH1 0x20 ADD PUSH1 0x0 KECCAK256 DUP2 SWAP1 SSTORE POP DUP3 PUSH20 0xFFFFFFFFFFFFFFFFFFFFFFFFFFFFFFFFFFFFFFFF AND CALLER PUSH20 0xFFFFFFFFFFFFFFFFFFFFFFFFFFFFFFFFFFFFFFFF AND PUSH32 0x8C5BE1E5EBEC7D5BD14F71427D1E84F3DD0314C0F7B2291E5B200AC8C7C3B925 PUSH1 0x3 PUSH1 0x0 CALLER PUSH20 0xFFFFFFFFFFFFFFFFFFFFFFFFFFFFFFFFFFFFFFFF AND PUSH20 0xFFFFFFFFFFFFFFFFFFFFFFFFFFFFFFFFFFFFFFFF AND DUP2 MSTORE PUSH1 0x20 ADD SWAP1 DUP2 MSTORE PUSH1 0x20 ADD PUSH1 0x0 KECCAK256 PUSH1 0x0 DUP8 PUSH20 0xFFFFFFFFFFFFFFFFFFFFFFFFFFFFFFFFFFFFFFFF AND PUSH20 0xFFFFFFFFFFFFFFFFFFFFFFFFFFFFFFFFFFFFFFFF AND DUP2 MSTORE PUSH1 0x20 ADD SWAP1 DUP2 MSTORE PUSH1 0x20 ADD PUSH1 0x0 KECCAK256 SLOAD PUSH1 0x40 MLOAD PUSH2 0x96D SWAP2 SWAP1 PUSH2 0x182F JUMP JUMPDEST PUSH1 0x40 MLOAD DUP1 SWAP2 SUB SWAP1 LOG3 PUSH1 0x1 SWAP1 POP SWAP3 SWAP2 POP POP JUMP JUMPDEST PUSH5 0x2540BE400 DUP2 JUMP JUMPDEST PUSH1 0x0 PUSH1 0x2 PUSH1 0x0 PUSH1 0x1 PUSH1 0x0 SWAP1 SLOAD SWAP1 PUSH2 0x100 EXP SWAP1 DIV PUSH20 0xFFFFFFFFFFFFFFFFFFFFFFFFFFFFFFFFFFFFFFFF AND PUSH20 0xFFFFFFFFFFFFFFFFFFFFFFFFFFFFFFFFFFFFFFFF AND PUSH20 0xFFFFFFFFFFFFFFFFFFFFFFFFFFFFFFFFFFFFFFFF AND DUP2 MSTORE PUSH1 0x20 ADD SWAP1 DUP2 MSTORE PUSH1 0x20 ADD PUSH1 0x0 KECCAK256 SLOAD PUSH1 0x2 PUSH1 0x0 CALLER PUSH20 0xFFFFFFFFFFFFFFFFFFFFFFFFFFFFFFFFFFFFFFFF AND PUSH20 0xFFFFFFFFFFFFFFFFFFFFFFFFFFFFFFFFFFFFFFFF AND DUP2 MSTORE PUSH1 0x20 ADD SWAP1 DUP2 MSTORE PUSH1 0x20 ADD PUSH1 0x0 KECCAK256 SLOAD LT ISZERO PUSH2 0xA37 JUMPI PUSH1 0x0 DUP1 REVERT JUMPDEST DUP2 PUSH1 0x0 SWAP1 DUP1 MLOAD SWAP1 PUSH1 0x20 ADD SWAP1 PUSH2 0xA4D SWAP3 SWAP2 SWAP1 PUSH2 0x15A4 JUMP JUMPDEST POP PUSH1 0x1 SWAP1 POP SWAP2 SWAP1 POP JUMP JUMPDEST PUSH1 0x0 PUSH1 0x2 PUSH1 0x0 DUP4 PUSH20 0xFFFFFFFFFFFFFFFFFFFFFFFFFFFFFFFFFFFFFFFF AND PUSH20 0xFFFFFFFFFFFFFFFFFFFFFFFFFFFFFFFFFFFFFFFF AND DUP2 MSTORE PUSH1 0x20 ADD SWAP1 DUP2 MSTORE PUSH1 0x20 ADD PUSH1 0x0 KECCAK256 SLOAD SWAP1 POP SWAP2 SWAP1 POP JUMP JUMPDEST PUSH1 0x40 MLOAD DUP1 PUSH1 0x40 ADD PUSH1 0x40 MSTORE DUP1 PUSH1 0x3 DUP2 MSTORE PUSH1 0x20 ADD PUSH32 0x4C454F0000000000000000000000000000000000000000000000000000000000 DUP2 MSTORE POP DUP2 JUMP JUMPDEST PUSH1 0x0 DUP1 PUSH20 0xFFFFFFFFFFFFFFFFFFFFFFFFFFFFFFFFFFFFFFFF AND DUP4 PUSH20 0xFFFFFFFFFFFFFFFFFFFFFFFFFFFFFFFFFFFFFFFF AND EQ ISZERO PUSH2 0xB14 JUMPI PUSH1 0x0 DUP1 REVERT JUMPDEST PUSH2 0xBA3 DUP3 PUSH1 0x3 PUSH1 0x0 CALLER PUSH20 0xFFFFFFFFFFFFFFFFFFFFFFFFFFFFFFFFFFFFFFFF AND PUSH20 0xFFFFFFFFFFFFFFFFFFFFFFFFFFFFFFFFFFFFFFFF AND DUP2 MSTORE PUSH1 0x20 ADD SWAP1 DUP2 MSTORE PUSH1 0x20 ADD PUSH1 0x0 KECCAK256 PUSH1 0x0 DUP7 PUSH20 0xFFFFFFFFFFFFFFFFFFFFFFFFFFFFFFFFFFFFFFFF AND PUSH20 0xFFFFFFFFFFFFFFFFFFFFFFFFFFFFFFFFFFFFFFFF AND DUP2 MSTORE PUSH1 0x20 ADD SWAP1 DUP2 MSTORE PUSH1 0x20 ADD PUSH1 0x0 KECCAK256 SLOAD PUSH2 0x118A SWAP1 SWAP2 SWAP1 PUSH4 0xFFFFFFFF AND JUMP JUMPDEST PUSH1 0x3 PUSH1 0x0 CALLER PUSH20 0xFFFFFFFFFFFFFFFFFFFFFFFFFFFFFFFFFFFFFFFF AND PUSH20 0xFFFFFFFFFFFFFFFFFFFFFFFFFFFFFFFFFFFFFFFF AND DUP2 MSTORE PUSH1 0x20 ADD SWAP1 DUP2 MSTORE PUSH1 0x20 ADD PUSH1 0x0 KECCAK256 PUSH1 0x0 DUP6 PUSH20 0xFFFFFFFFFFFFFFFFFFFFFFFFFFFFFFFFFFFFFFFF AND PUSH20 0xFFFFFFFFFFFFFFFFFFFFFFFFFFFFFFFFFFFFFFFF AND DUP2 MSTORE PUSH1 0x20 ADD SWAP1 DUP2 MSTORE PUSH1 0x20 ADD PUSH1 0x0 KECCAK256 DUP2 SWAP1 SSTORE POP DUP3 PUSH20 0xFFFFFFFFFFFFFFFFFFFFFFFFFFFFFFFFFFFFFFFF AND CALLER PUSH20 0xFFFFFFFFFFFFFFFFFFFFFFFFFFFFFFFFFFFFFFFF AND PUSH32 0x8C5BE1E5EBEC7D5BD14F71427D1E84F3DD0314C0F7B2291E5B200AC8C7C3B925 PUSH1 0x3 PUSH1 0x0 CALLER PUSH20 0xFFFFFFFFFFFFFFFFFFFFFFFFFFFFFFFFFFFFFFFF AND PUSH20 0xFFFFFFFFFFFFFFFFFFFFFFFFFFFFFFFFFFFFFFFF AND DUP2 MSTORE PUSH1 0x20 ADD SWAP1 DUP2 MSTORE PUSH1 0x20 ADD PUSH1 0x0 KECCAK256 PUSH1 0x0 DUP8 PUSH20 0xFFFFFFFFFFFFFFFFFFFFFFFFFFFFFFFFFFFFFFFF AND PUSH20 0xFFFFFFFFFFFFFFFFFFFFFFFFFFFFFFFFFFFFFFFF AND DUP2 MSTORE PUSH1 0x20 ADD SWAP1 DUP2 MSTORE PUSH1 0x20 ADD PUSH1 0x0 KECCAK256 SLOAD PUSH1 0x40 MLOAD PUSH2 0xCFC SWAP2 SWAP1 PUSH2 0x182F JUMP JUMPDEST PUSH1 0x40 MLOAD DUP1 SWAP2 SUB SWAP1 LOG3 PUSH1 0x1 SWAP1 POP SWAP3 SWAP2 POP POP JUMP JUMPDEST PUSH1 0x0 PUSH1 0x2 PUSH1 0x0 CALLER PUSH20 0xFFFFFFFFFFFFFFFFFFFFFFFFFFFFFFFFFFFFFFFF AND PUSH20 0xFFFFFFFFFFFFFFFFFFFFFFFFFFFFFFFFFFFFFFFF AND DUP2 MSTORE PUSH1 0x20 ADD SWAP1 DUP2 MSTORE PUSH1 0x20 ADD PUSH1 0x0 KECCAK256 SLOAD DUP3 GT ISZERO PUSH2 0xD5C JUMPI PUSH1 0x0 DUP1 REVERT JUMPDEST PUSH1 0x0 PUSH20 0xFFFFFFFFFFFFFFFFFFFFFFFFFFFFFFFFFFFFFFFF AND DUP4 PUSH20 0xFFFFFFFFFFFFFFFFFFFFFFFFFFFFFFFFFFFFFFFF AND EQ ISZERO PUSH2 0xD96 JUMPI PUSH1 0x0 DUP1 REVERT JUMPDEST PUSH2 0xDE8 DUP3 PUSH1 0x2 PUSH1 0x0 CALLER PUSH20 0xFFFFFFFFFFFFFFFFFFFFFFFFFFFFFFFFFFFFFFFF AND PUSH20 0xFFFFFFFFFFFFFFFFFFFFFFFFFFFFFFFFFFFFFFFF AND DUP2 MSTORE PUSH1 0x20 ADD SWAP1 DUP2 MSTORE PUSH1 0x20 ADD PUSH1 0x0 KECCAK256 SLOAD PUSH2 0x118A SWAP1 SWAP2 SWAP1 PUSH4 0xFFFFFFFF AND JUMP JUMPDEST PUSH1 0x2 PUSH1 0x0 CALLER PUSH20 0xFFFFFFFFFFFFFFFFFFFFFFFFFFFFFFFFFFFFFFFF AND PUSH20 0xFFFFFFFFFFFFFFFFFFFFFFFFFFFFFFFFFFFFFFFF AND DUP2 MSTORE PUSH1 0x20 ADD SWAP1 DUP2 MSTORE PUSH1 0x20 ADD PUSH1 0x0 KECCAK256 DUP2 SWAP1 SSTORE POP PUSH1 0x2 PUSH1 0x0 PUSH1 0x1 PUSH1 0x0 SWAP1 SLOAD SWAP1 PUSH2 0x100 EXP SWAP1 DIV PUSH20 0xFFFFFFFFFFFFFFFFFFFFFFFFFFFFFFFFFFFFFFFF AND PUSH20 0xFFFFFFFFFFFFFFFFFFFFFFFFFFFFFFFFFFFFFFFF AND PUSH20 0xFFFFFFFFFFFFFFFFFFFFFFFFFFFFFFFFFFFFFFFF AND DUP2 MSTORE PUSH1 0x20 ADD SWAP1 DUP2 MSTORE PUSH1 0x20 ADD PUSH1 0x0 KECCAK256 SLOAD PUSH1 0x2 PUSH1 0x0 CALLER PUSH20 0xFFFFFFFFFFFFFFFFFFFFFFFFFFFFFFFFFFFFFFFF AND PUSH20 0xFFFFFFFFFFFFFFFFFFFFFFFFFFFFFFFFFFFFFFFF AND DUP2 MSTORE PUSH1 0x20 ADD SWAP1 DUP2 MSTORE PUSH1 0x20 ADD PUSH1 0x0 KECCAK256 SLOAD GT ISZERO PUSH2 0xF15 JUMPI CALLER PUSH1 0x1 PUSH1 0x0 PUSH2 0x100 EXP DUP2 SLOAD DUP2 PUSH20 0xFFFFFFFFFFFFFFFFFFFFFFFFFFFFFFFFFFFFFFFF MUL NOT AND SWAP1 DUP4 PUSH20 0xFFFFFFFFFFFFFFFFFFFFFFFFFFFFFFFFFFFFFFFF AND MUL OR SWAP1 SSTORE POP JUMPDEST PUSH2 0xF67 DUP3 PUSH1 0x2 PUSH1 0x0 DUP7 PUSH20 0xFFFFFFFFFFFFFFFFFFFFFFFFFFFFFFFFFFFFFFFF AND PUSH20 0xFFFFFFFFFFFFFFFFFFFFFFFFFFFFFFFFFFFFFFFF AND DUP2 MSTORE PUSH1 0x20 ADD SWAP1 DUP2 MSTORE PUSH1 0x20 ADD PUSH1 0x0 KECCAK256 SLOAD PUSH2 0x154B SWAP1 SWAP2 SWAP1 PUSH4 0xFFFFFFFF AND JUMP JUMPDEST PUSH1 0x2 PUSH1 0x0 DUP6 PUSH20 0xFFFFFFFFFFFFFFFFFFFFFFFFFFFFFFFFFFFFFFFF AND PUSH20 0xFFFFFFFFFFFFFFFFFFFFFFFFFFFFFFFFFFFFFFFF AND DUP2 MSTORE PUSH1 0x20 ADD SWAP1 DUP2 MSTORE PUSH1 0x20 ADD PUSH1 0x0 KECCAK256 DUP2 SWAP1 SSTORE POP PUSH1 0x2 PUSH1 0x0 PUSH1 0x1 PUSH1 0x0 SWAP1 SLOAD SWAP1 PUSH2 0x100 EXP SWAP1 DIV PUSH20 0xFFFFFFFFFFFFFFFFFFFFFFFFFFFFFFFFFFFFFFFF AND PUSH20 0xFFFFFFFFFFFFFFFFFFFFFFFFFFFFFFFFFFFFFFFF AND PUSH20 0xFFFFFFFFFFFFFFFFFFFFFFFFFFFFFFFFFFFFFFFF AND DUP2 MSTORE PUSH1 0x20 ADD SWAP1 DUP2 MSTORE PUSH1 0x20 ADD PUSH1 0x0 KECCAK256 SLOAD PUSH1 0x2 PUSH1 0x0 DUP6 PUSH20 0xFFFFFFFFFFFFFFFFFFFFFFFFFFFFFFFFFFFFFFFF AND PUSH20 0xFFFFFFFFFFFFFFFFFFFFFFFFFFFFFFFFFFFFFFFF AND DUP2 MSTORE PUSH1 0x20 ADD SWAP1 DUP2 MSTORE PUSH1 0x20 ADD PUSH1 0x0 KECCAK256 SLOAD GT ISZERO PUSH2 0x1094 JUMPI DUP3 PUSH1 0x1 PUSH1 0x0 PUSH2 0x100 EXP DUP2 SLOAD DUP2 PUSH20 0xFFFFFFFFFFFFFFFFFFFFFFFFFFFFFFFFFFFFFFFF MUL NOT AND SWAP1 DUP4 PUSH20 0xFFFFFFFFFFFFFFFFFFFFFFFFFFFFFFFFFFFFFFFF AND MUL OR SWAP1 SSTORE POP JUMPDEST DUP3 PUSH20 0xFFFFFFFFFFFFFFFFFFFFFFFFFFFFFFFFFFFFFFFF AND CALLER PUSH20 0xFFFFFFFFFFFFFFFFFFFFFFFFFFFFFFFFFFFFFFFF AND PUSH32 0xDDF252AD1BE2C89B69C2B068FC378DAA952BA7F163C4A11628F55A4DF523B3EF DUP5 PUSH1 0x40 MLOAD PUSH2 0x10F1 SWAP2 SWAP1 PUSH2 0x182F JUMP JUMPDEST PUSH1 0x40 MLOAD DUP1 SWAP2 SUB SWAP1 LOG3 PUSH1 0x1 SWAP1 POP SWAP3 SWAP2 POP POP JUMP JUMPDEST PUSH1 0x0 PUSH1 0x3 PUSH1 0x0 DUP5 PUSH20 0xFFFFFFFFFFFFFFFFFFFFFFFFFFFFFFFFFFFFFFFF AND PUSH20 0xFFFFFFFFFFFFFFFFFFFFFFFFFFFFFFFFFFFFFFFF AND DUP2 MSTORE PUSH1 0x20 ADD SWAP1 DUP2 MSTORE PUSH1 0x20 ADD PUSH1 0x0 KECCAK256 PUSH1 0x0 DUP4 PUSH20 0xFFFFFFFFFFFFFFFFFFFFFFFFFFFFFFFFFFFFFFFF AND PUSH20 0xFFFFFFFFFFFFFFFFFFFFFFFFFFFFFFFFFFFFFFFF AND DUP2 MSTORE PUSH1 0x20 ADD SWAP1 DUP2 MSTORE PUSH1 0x20 ADD PUSH1 0x0 KECCAK256 SLOAD SWAP1 POP SWAP3 SWAP2 POP POP JUMP JUMPDEST PUSH1 0x0 DUP3 DUP3 DUP5 PUSH2 0x1199 SWAP2 SWAP1 PUSH2 0x1B79 JUMP JUMPDEST SWAP2 POP DUP2 GT ISZERO PUSH2 0x11DD JUMPI PUSH1 0x40 MLOAD PUSH32 0x8C379A000000000000000000000000000000000000000000000000000000000 DUP2 MSTORE PUSH1 0x4 ADD PUSH2 0x11D4 SWAP1 PUSH2 0x1BF9 JUMP JUMPDEST PUSH1 0x40 MLOAD DUP1 SWAP2 SUB SWAP1 REVERT JUMPDEST SWAP3 SWAP2 POP POP JUMP JUMPDEST PUSH2 0x1235 DUP2 PUSH1 0x2 PUSH1 0x0 DUP7 PUSH20 0xFFFFFFFFFFFFFFFFFFFFFFFFFFFFFFFFFFFFFFFF AND PUSH20 0xFFFFFFFFFFFFFFFFFFFFFFFFFFFFFFFFFFFFFFFF AND DUP2 MSTORE PUSH1 0x20 ADD SWAP1 DUP2 MSTORE PUSH1 0x20 ADD PUSH1 0x0 KECCAK256 SLOAD PUSH2 0x118A SWAP1 SWAP2 SWAP1 PUSH4 0xFFFFFFFF AND JUMP JUMPDEST PUSH1 0x2 PUSH1 0x0 DUP6 PUSH20 0xFFFFFFFFFFFFFFFFFFFFFFFFFFFFFFFFFFFFFFFF AND PUSH20 0xFFFFFFFFFFFFFFFFFFFFFFFFFFFFFFFFFFFFFFFF AND DUP2 MSTORE PUSH1 0x20 ADD SWAP1 DUP2 MSTORE PUSH1 0x20 ADD PUSH1 0x0 KECCAK256 DUP2 SWAP1 SSTORE POP PUSH1 0x2 PUSH1 0x0 PUSH1 0x1 PUSH1 0x0 SWAP1 SLOAD SWAP1 PUSH2 0x100 EXP SWAP1 DIV PUSH20 0xFFFFFFFFFFFFFFFFFFFFFFFFFFFFFFFFFFFFFFFF AND PUSH20 0xFFFFFFFFFFFFFFFFFFFFFFFFFFFFFFFFFFFFFFFF AND PUSH20 0xFFFFFFFFFFFFFFFFFFFFFFFFFFFFFFFFFFFFFFFF AND DUP2 MSTORE PUSH1 0x20 ADD SWAP1 DUP2 MSTORE PUSH1 0x20 ADD PUSH1 0x0 KECCAK256 SLOAD PUSH1 0x2 PUSH1 0x0 DUP6 PUSH20 0xFFFFFFFFFFFFFFFFFFFFFFFFFFFFFFFFFFFFFFFF AND PUSH20 0xFFFFFFFFFFFFFFFFFFFFFFFFFFFFFFFFFFFFFFFF AND DUP2 MSTORE PUSH1 0x20 ADD SWAP1 DUP2 MSTORE PUSH1 0x20 ADD PUSH1 0x0 KECCAK256 SLOAD GT ISZERO PUSH2 0x1362 JUMPI DUP3 PUSH1 0x1 PUSH1 0x0 PUSH2 0x100 EXP DUP2 SLOAD DUP2 PUSH20 0xFFFFFFFFFFFFFFFFFFFFFFFFFFFFFFFFFFFFFFFF MUL NOT AND SWAP1 DUP4 PUSH20 0xFFFFFFFFFFFFFFFFFFFFFFFFFFFFFFFFFFFFFFFF AND MUL OR SWAP1 SSTORE POP JUMPDEST PUSH2 0x13B4 DUP2 PUSH1 0x2 PUSH1 0x0 DUP6 PUSH20 0xFFFFFFFFFFFFFFFFFFFFFFFFFFFFFFFFFFFFFFFF AND PUSH20 0xFFFFFFFFFFFFFFFFFFFFFFFFFFFFFFFFFFFFFFFF AND DUP2 MSTORE PUSH1 0x20 ADD SWAP1 DUP2 MSTORE PUSH1 0x20 ADD PUSH1 0x0 KECCAK256 SLOAD PUSH2 0x154B SWAP1 SWAP2 SWAP1 PUSH4 0xFFFFFFFF AND JUMP JUMPDEST PUSH1 0x2 PUSH1 0x0 DUP5 PUSH20 0xFFFFFFFFFFFFFFFFFFFFFFFFFFFFFFFFFFFFFFFF AND PUSH20 0xFFFFFFFFFFFFFFFFFFFFFFFFFFFFFFFFFFFFFFFF AND DUP2 MSTORE PUSH1 0x20 ADD SWAP1 DUP2 MSTORE PUSH1 0x20 ADD PUSH1 0x0 KECCAK256 DUP2 SWAP1 SSTORE POP PUSH1 0x2 PUSH1 0x0 PUSH1 0x1 PUSH1 0x0 SWAP1 SLOAD SWAP1 PUSH2 0x100 EXP SWAP1 DIV PUSH20 0xFFFFFFFFFFFFFFFFFFFFFFFFFFFFFFFFFFFFFFFF AND PUSH20 0xFFFFFFFFFFFFFFFFFFFFFFFFFFFFFFFFFFFFFFFF AND PUSH20 0xFFFFFFFFFFFFFFFFFFFFFFFFFFFFFFFFFFFFFFFF AND DUP2 MSTORE PUSH1 0x20 ADD SWAP1 DUP2 MSTORE PUSH1 0x20 ADD PUSH1 0x0 KECCAK256 SLOAD PUSH1 0x2 PUSH1 0x0 DUP5 PUSH20 0xFFFFFFFFFFFFFFFFFFFFFFFFFFFFFFFFFFFFFFFF AND PUSH20 0xFFFFFFFFFFFFFFFFFFFFFFFFFFFFFFFFFFFFFFFF AND DUP2 MSTORE PUSH1 0x20 ADD SWAP1 DUP2 MSTORE PUSH1 0x20 ADD PUSH1 0x0 KECCAK256 SLOAD GT ISZERO PUSH2 0x14E1 JUMPI DUP2 PUSH1 0x1 PUSH1 0x0 PUSH2 0x100 EXP DUP2 SLOAD DUP2 PUSH20 0xFFFFFFFFFFFFFFFFFFFFFFFFFFFFFFFFFFFFFFFF MUL NOT AND SWAP1 DUP4 PUSH20 0xFFFFFFFFFFFFFFFFFFFFFFFFFFFFFFFFFFFFFFFF AND MUL OR SWAP1 SSTORE POP JUMPDEST DUP2 PUSH20 0xFFFFFFFFFFFFFFFFFFFFFFFFFFFFFFFFFFFFFFFF AND DUP4 PUSH20 0xFFFFFFFFFFFFFFFFFFFFFFFFFFFFFFFFFFFFFFFF AND PUSH32 0xDDF252AD1BE2C89B69C2B068FC378DAA952BA7F163C4A11628F55A4DF523B3EF DUP4 PUSH1 0x40 MLOAD PUSH2 0x153E SWAP2 SWAP1 PUSH2 0x182F JUMP JUMPDEST PUSH1 0x40 MLOAD DUP1 SWAP2 SUB SWAP1 LOG3 POP POP POP JUMP JUMPDEST PUSH1 0x0 DUP3 DUP3 DUP5 PUSH2 0x155A SWAP2 SWAP1 PUSH2 0x1C19 JUMP JUMPDEST SWAP2 POP DUP2 LT ISZERO PUSH2 0x159E JUMPI PUSH1 0x40 MLOAD PUSH32 0x8C379A000000000000000000000000000000000000000000000000000000000 DUP2 MSTORE PUSH1 0x4 ADD PUSH2 0x1595 SWAP1 PUSH2 0x1CBB JUMP JUMPDEST PUSH1 0x40 MLOAD DUP1 SWAP2 SUB SWAP1 REVERT JUMPDEST SWAP3 SWAP2 POP POP JUMP JUMPDEST DUP3 DUP1 SLOAD PUSH2 0x15B0 SWAP1 PUSH2 0x1B18 JUMP JUMPDEST SWAP1 PUSH1 0x0 MSTORE PUSH1 0x20 PUSH1 0x0 KECCAK256 SWAP1 PUSH1 0x1F ADD PUSH1 0x20 SWAP1 DIV DUP2 ADD SWAP3 DUP3 PUSH2 0x15D2 JUMPI PUSH1 0x0 DUP6 SSTORE PUSH2 0x1619 JUMP JUMPDEST DUP3 PUSH1 0x1F LT PUSH2 0x15EB JUMPI DUP1 MLOAD PUSH1 0xFF NOT AND DUP4 DUP1 ADD OR DUP6 SSTORE PUSH2 0x1619 JUMP JUMPDEST DUP3 DUP1 ADD PUSH1 0x1 ADD DUP6 SSTORE DUP3 ISZERO PUSH2 0x1619 JUMPI SWAP2 DUP3 ADD JUMPDEST DUP3 DUP2 GT ISZERO PUSH2 0x1618 JUMPI DUP3 MLOAD DUP3 SSTORE SWAP2 PUSH1 0x20 ADD SWAP2 SWAP1 PUSH1 0x1 ADD SWAP1 PUSH2 0x15FD JUMP JUMPDEST JUMPDEST POP SWAP1 POP PUSH2 0x1626 SWAP2 SWAP1 PUSH2 0x162A JUMP JUMPDEST POP SWAP1 JUMP JUMPDEST JUMPDEST DUP1 DUP3 GT ISZERO PUSH2 0x1643 JUMPI PUSH1 0x0 DUP2 PUSH1 0x0 SWAP1 SSTORE POP PUSH1 0x1 ADD PUSH2 0x162B JUMP JUMPDEST POP SWAP1 JUMP JUMPDEST PUSH1 0x0 DUP2 MLOAD SWAP1 POP SWAP2 SWAP1 POP JUMP JUMPDEST PUSH1 0x0 DUP3 DUP3 MSTORE PUSH1 0x20 DUP3 ADD SWAP1 POP SWAP3 SWAP2 POP POP JUMP JUMPDEST PUSH1 0x0 JUMPDEST DUP4 DUP2 LT ISZERO PUSH2 0x1681 JUMPI DUP1 DUP3 ADD MLOAD DUP2 DUP5 ADD MSTORE PUSH1 0x20 DUP2 ADD SWAP1 POP PUSH2 0x1666 JUMP JUMPDEST DUP4 DUP2 GT ISZERO PUSH2 0x1690 JUMPI PUSH1 0x0 DUP5 DUP5 ADD MSTORE JUMPDEST POP POP POP POP JUMP JUMPDEST PUSH1 0x0 PUSH1 0x1F NOT PUSH1 0x1F DUP4 ADD AND SWAP1 POP SWAP2 SWAP1 POP JUMP JUMPDEST PUSH1 0x0 PUSH2 0x16B2 DUP3 PUSH2 0x1647 JUMP JUMPDEST PUSH2 0x16BC DUP2 DUP6 PUSH2 0x1652 JUMP JUMPDEST SWAP4 POP PUSH2 0x16CC DUP2 DUP6 PUSH1 0x20 DUP7 ADD PUSH2 0x1663 JUMP JUMPDEST PUSH2 0x16D5 DUP2 PUSH2 0x1696 JUMP JUMPDEST DUP5 ADD SWAP2 POP POP SWAP3 SWAP2 POP POP JUMP JUMPDEST PUSH1 0x0 PUSH1 0x20 DUP3 ADD SWAP1 POP DUP2 DUP2 SUB PUSH1 0x0 DUP4 ADD MSTORE PUSH2 0x16FA DUP2 DUP5 PUSH2 0x16A7 JUMP JUMPDEST SWAP1 POP SWAP3 SWAP2 POP POP JUMP JUMPDEST PUSH1 0x0 PUSH1 0x40 MLOAD SWAP1 POP SWAP1 JUMP JUMPDEST PUSH1 0x0 DUP1 REVERT JUMPDEST PUSH1 0x0 DUP1 REVERT JUMPDEST PUSH1 0x0 PUSH20 0xFFFFFFFFFFFFFFFFFFFFFFFFFFFFFFFFFFFFFFFF DUP3 AND SWAP1 POP SWAP2 SWAP1 POP JUMP JUMPDEST PUSH1 0x0 PUSH2 0x1741 DUP3 PUSH2 0x1716 JUMP JUMPDEST SWAP1 POP SWAP2 SWAP1 POP JUMP JUMPDEST PUSH2 0x1751 DUP2 PUSH2 0x1736 JUMP JUMPDEST DUP2 EQ PUSH2 0x175C JUMPI PUSH1 0x0 DUP1 REVERT JUMPDEST POP JUMP JUMPDEST PUSH1 0x0 DUP2 CALLDATALOAD SWAP1 POP PUSH2 0x176E DUP2 PUSH2 0x1748 JUMP JUMPDEST SWAP3 SWAP2 POP POP JUMP JUMPDEST PUSH1 0x0 DUP2 SWAP1 POP SWAP2 SWAP1 POP JUMP JUMPDEST PUSH2 0x1787 DUP2 PUSH2 0x1774 JUMP JUMPDEST DUP2 EQ PUSH2 0x1792 JUMPI PUSH1 0x0 DUP1 REVERT JUMPDEST POP JUMP JUMPDEST PUSH1 0x0 DUP2 CALLDATALOAD SWAP1 POP PUSH2 0x17A4 DUP2 PUSH2 0x177E JUMP JUMPDEST SWAP3 SWAP2 POP POP JUMP JUMPDEST PUSH1 0x0 DUP1 PUSH1 0x40 DUP4 DUP6 SUB SLT ISZERO PUSH2 0x17C1 JUMPI PUSH2 0x17C0 PUSH2 0x170C JUMP JUMPDEST JUMPDEST PUSH1 0x0 PUSH2 0x17CF DUP6 DUP3 DUP7 ADD PUSH2 0x175F JUMP JUMPDEST SWAP3 POP POP PUSH1 0x20 PUSH2 0x17E0 DUP6 DUP3 DUP7 ADD PUSH2 0x1795 JUMP JUMPDEST SWAP2 POP POP SWAP3 POP SWAP3 SWAP1 POP JUMP JUMPDEST PUSH1 0x0 DUP2 ISZERO ISZERO SWAP1 POP SWAP2 SWAP1 POP JUMP JUMPDEST PUSH2 0x17FF DUP2 PUSH2 0x17EA JUMP JUMPDEST DUP3 MSTORE POP POP JUMP JUMPDEST PUSH1 0x0 PUSH1 0x20 DUP3 ADD SWAP1 POP PUSH2 0x181A PUSH1 0x0 DUP4 ADD DUP5 PUSH2 0x17F6 JUMP JUMPDEST SWAP3 SWAP2 POP POP JUMP JUMPDEST PUSH2 0x1829 DUP2 PUSH2 0x1774 JUMP JUMPDEST DUP3 MSTORE POP POP JUMP JUMPDEST PUSH1 0x0 PUSH1 0x20 DUP3 ADD SWAP1 POP PUSH2 0x1844 PUSH1 0x0 DUP4 ADD DUP5 PUSH2 0x1820 JUMP JUMPDEST SWAP3 SWAP2 POP POP JUMP JUMPDEST PUSH2 0x1853 DUP2 PUSH2 0x1736 JUMP JUMPDEST DUP3 MSTORE POP POP JUMP JUMPDEST PUSH1 0x0 PUSH1 0x20 DUP3 ADD SWAP1 POP PUSH2 0x186E PUSH1 0x0 DUP4 ADD DUP5 PUSH2 0x184A JUMP JUMPDEST SWAP3 SWAP2 POP POP JUMP JUMPDEST PUSH1 0x0 DUP1 PUSH1 0x0 PUSH1 0x60 DUP5 DUP7 SUB SLT ISZERO PUSH2 0x188D JUMPI PUSH2 0x188C PUSH2 0x170C JUMP JUMPDEST JUMPDEST PUSH1 0x0 PUSH2 0x189B DUP7 DUP3 DUP8 ADD PUSH2 0x175F JUMP JUMPDEST SWAP4 POP POP PUSH1 0x20 PUSH2 0x18AC DUP7 DUP3 DUP8 ADD PUSH2 0x175F JUMP JUMPDEST SWAP3 POP POP PUSH1 0x40 PUSH2 0x18BD DUP7 DUP3 DUP8 ADD PUSH2 0x1795 JUMP JUMPDEST SWAP2 POP POP SWAP3 POP SWAP3 POP SWAP3 JUMP JUMPDEST PUSH1 0x0 PUSH1 0xFF DUP3 AND SWAP1 POP SWAP2 SWAP1 POP JUMP JUMPDEST PUSH2 0x18DD DUP2 PUSH2 0x18C7 JUMP JUMPDEST DUP3 MSTORE POP POP JUMP JUMPDEST PUSH1 0x0 PUSH1 0x20 DUP3 ADD SWAP1 POP PUSH2 0x18F8 PUSH1 0x0 DUP4 ADD DUP5 PUSH2 0x18D4 JUMP JUMPDEST SWAP3 SWAP2 POP POP JUMP JUMPDEST PUSH1 0x0 DUP1 REVERT JUMPDEST PUSH1 0x0 DUP1 REVERT JUMPDEST PUSH32 0x4E487B7100000000000000000000000000000000000000000000000000000000 PUSH1 0x0 MSTORE PUSH1 0x41 PUSH1 0x4 MSTORE PUSH1 0x24 PUSH1 0x0 REVERT JUMPDEST PUSH2 0x1940 DUP3 PUSH2 0x1696 JUMP JUMPDEST DUP2 ADD DUP2 DUP2 LT PUSH8 0xFFFFFFFFFFFFFFFF DUP3 GT OR ISZERO PUSH2 0x195F JUMPI PUSH2 0x195E PUSH2 0x1908 JUMP JUMPDEST JUMPDEST DUP1 PUSH1 0x40 MSTORE POP POP POP JUMP JUMPDEST PUSH1 0x0 PUSH2 0x1972 PUSH2 0x1702 JUMP JUMPDEST SWAP1 POP PUSH2 0x197E DUP3 DUP3 PUSH2 0x1937 JUMP JUMPDEST SWAP2 SWAP1 POP JUMP JUMPDEST PUSH1 0x0 PUSH8 0xFFFFFFFFFFFFFFFF DUP3 GT ISZERO PUSH2 0x199E JUMPI PUSH2 0x199D PUSH2 0x1908 JUMP JUMPDEST JUMPDEST PUSH2 0x19A7 DUP3 PUSH2 0x1696 JUMP JUMPDEST SWAP1 POP PUSH1 0x20 DUP2 ADD SWAP1 POP SWAP2 SWAP1 POP JUMP JUMPDEST DUP3 DUP2 DUP4 CALLDATACOPY PUSH1 0x0 DUP4 DUP4 ADD MSTORE POP POP POP JUMP JUMPDEST PUSH1 0x0 PUSH2 0x19D6 PUSH2 0x19D1 DUP5 PUSH2 0x1983 JUMP JUMPDEST PUSH2 0x1968 JUMP JUMPDEST SWAP1 POP DUP3 DUP2 MSTORE PUSH1 0x20 DUP2 ADD DUP5 DUP5 DUP5 ADD GT ISZERO PUSH2 0x19F2 JUMPI PUSH2 0x19F1 PUSH2 0x1903 JUMP JUMPDEST JUMPDEST PUSH2 0x19FD DUP5 DUP3 DUP6 PUSH2 0x19B4 JUMP JUMPDEST POP SWAP4 SWAP3 POP POP POP JUMP JUMPDEST PUSH1 0x0 DUP3 PUSH1 0x1F DUP4 ADD SLT PUSH2 0x1A1A JUMPI PUSH2 0x1A19 PUSH2 0x18FE JUMP JUMPDEST JUMPDEST DUP2 CALLDATALOAD PUSH2 0x1A2A DUP5 DUP3 PUSH1 0x20 DUP7 ADD PUSH2 0x19C3 JUMP JUMPDEST SWAP2 POP POP SWAP3 SWAP2 POP POP JUMP JUMPDEST PUSH1 0x0 PUSH1 0x20 DUP3 DUP5 SUB SLT ISZERO PUSH2 0x1A49 JUMPI PUSH2 0x1A48 PUSH2 0x170C JUMP JUMPDEST JUMPDEST PUSH1 0x0 DUP3 ADD CALLDATALOAD PUSH8 0xFFFFFFFFFFFFFFFF DUP2 GT ISZERO PUSH2 0x1A67 JUMPI PUSH2 0x1A66 PUSH2 0x1711 JUMP JUMPDEST JUMPDEST PUSH2 0x1A73 DUP5 DUP3 DUP6 ADD PUSH2 0x1A05 JUMP JUMPDEST SWAP2 POP POP SWAP3 SWAP2 POP POP JUMP JUMPDEST PUSH1 0x0 PUSH1 0x20 DUP3 DUP5 SUB SLT ISZERO PUSH2 0x1A92 JUMPI PUSH2 0x1A91 PUSH2 0x170C JUMP JUMPDEST JUMPDEST PUSH1 0x0 PUSH2 0x1AA0 DUP5 DUP3 DUP6 ADD PUSH2 0x175F JUMP JUMPDEST SWAP2 POP POP SWAP3 SWAP2 POP POP JUMP JUMPDEST PUSH1 0x0 DUP1 PUSH1 0x40 DUP4 DUP6 SUB SLT ISZERO PUSH2 0x1AC0 JUMPI PUSH2 0x1ABF PUSH2 0x170C JUMP JUMPDEST JUMPDEST PUSH1 0x0 PUSH2 0x1ACE DUP6 DUP3 DUP7 ADD PUSH2 0x175F JUMP JUMPDEST SWAP3 POP POP PUSH1 0x20 PUSH2 0x1ADF DUP6 DUP3 DUP7 ADD PUSH2 0x175F JUMP JUMPDEST SWAP2 POP POP SWAP3 POP SWAP3 SWAP1 POP JUMP JUMPDEST PUSH32 0x4E487B7100000000000000000000000000000000000000000000000000000000 PUSH1 0x0 MSTORE PUSH1 0x22 PUSH1 0x4 MSTORE PUSH1 0x24 PUSH1 0x0 REVERT JUMPDEST PUSH1 0x0 PUSH1 0x2 DUP3 DIV SWAP1 POP PUSH1 0x1 DUP3 AND DUP1 PUSH2 0x1B30 JUMPI PUSH1 0x7F DUP3 AND SWAP2 POP JUMPDEST PUSH1 0x20 DUP3 LT DUP2 EQ ISZERO PUSH2 0x1B44 JUMPI PUSH2 0x1B43 PUSH2 0x1AE9 JUMP JUMPDEST JUMPDEST POP SWAP2 SWAP1 POP JUMP JUMPDEST PUSH32 0x4E487B7100000000000000000000000000000000000000000000000000000000 PUSH1 0x0 MSTORE PUSH1 0x11 PUSH1 0x4 MSTORE PUSH1 0x24 PUSH1 0x0 REVERT JUMPDEST PUSH1 0x0 PUSH2 0x1B84 DUP3 PUSH2 0x1774 JUMP JUMPDEST SWAP2 POP PUSH2 0x1B8F DUP4 PUSH2 0x1774 JUMP JUMPDEST SWAP3 POP DUP3 DUP3 LT ISZERO PUSH2 0x1BA2 JUMPI PUSH2 0x1BA1 PUSH2 0x1B4A JUMP JUMPDEST JUMPDEST DUP3 DUP3 SUB SWAP1 POP SWAP3 SWAP2 POP POP JUMP JUMPDEST PUSH32 0x64732D6D6174682D7375622D756E646572666C6F770000000000000000000000 PUSH1 0x0 DUP3 ADD MSTORE POP JUMP JUMPDEST PUSH1 0x0 PUSH2 0x1BE3 PUSH1 0x15 DUP4 PUSH2 0x1652 JUMP JUMPDEST SWAP2 POP PUSH2 0x1BEE DUP3 PUSH2 0x1BAD JUMP JUMPDEST PUSH1 0x20 DUP3 ADD SWAP1 POP SWAP2 SWAP1 POP JUMP JUMPDEST PUSH1 0x0 PUSH1 0x20 DUP3 ADD SWAP1 POP DUP2 DUP2 SUB PUSH1 0x0 DUP4 ADD MSTORE PUSH2 0x1C12 DUP2 PUSH2 0x1BD6 JUMP JUMPDEST SWAP1 POP SWAP2 SWAP1 POP JUMP JUMPDEST PUSH1 0x0 PUSH2 0x1C24 DUP3 PUSH2 0x1774 JUMP JUMPDEST SWAP2 POP PUSH2 0x1C2F DUP4 PUSH2 0x1774 JUMP JUMPDEST SWAP3 POP DUP3 PUSH32 0xFFFFFFFFFFFFFFFFFFFFFFFFFFFFFFFFFFFFFFFFFFFFFFFFFFFFFFFFFFFFFFFF SUB DUP3 GT ISZERO PUSH2 0x1C64 JUMPI PUSH2 0x1C63 PUSH2 0x1B4A JUMP JUMPDEST JUMPDEST DUP3 DUP3 ADD SWAP1 POP SWAP3 SWAP2 POP POP JUMP JUMPDEST PUSH32 0x64732D6D6174682D6164642D6F766572666C6F77000000000000000000000000 PUSH1 0x0 DUP3 ADD MSTORE POP JUMP JUMPDEST PUSH1 0x0 PUSH2 0x1CA5 PUSH1 0x14 DUP4 PUSH2 0x1652 JUMP JUMPDEST SWAP2 POP PUSH2 0x1CB0 DUP3 PUSH2 0x1C6F JUMP JUMPDEST PUSH1 0x20 DUP3 ADD SWAP1 POP SWAP2 SWAP1 POP JUMP JUMPDEST PUSH1 0x0 PUSH1 0x20 DUP3 ADD SWAP1 POP DUP2 DUP2 SUB PUSH1 0x0 DUP4 ADD MSTORE PUSH2 0x1CD4 DUP2 PUSH2 0x1C98 JUMP JUMPDEST SWAP1 POP SWAP2 SWAP1 POP JUMP INVALID LOG2 PUSH5 0x6970667358 0x22 SLT KECCAK256 0xDA BYTE SWAP10 0x28 EXTCODEHASH PUSH25 0x2D96E63D6056F69D119BF98E7273FEE90FE5E85FA749BA5976 CALLCODE PUSH5 0x736F6C6343 STOP ADDMOD EXP STOP CALLER "
				},
				"gasEstimates": {
					"creation": {
						"codeDepositCost": "1488200",
						"executionCost": "infinite",
						"totalCost": "infinite"
					},
					"external": {
						"_totalSupply()": "352",
						"allowance(address,address)": "infinite",
						"approve(address,uint256)": "infinite",
						"balanceOf(address)": "2908",
						"changeName(string)": "infinite",
						"decimals()": "402",
						"decreaseAllowance(address,uint256)": "infinite",
						"increaseAllowance(address,uint256)": "infinite",
						"name()": "infinite",
						"symbol()": "infinite",
						"topAddress()": "2537",
						"totalSupply()": "405",
						"transfer(address,uint256)": "infinite",
						"transferFrom(address,address,uint256)": "infinite"
					},
					"internal": {
						"_transfer(address,address,uint256)": "infinite"
					}
				},
				"methodIdentifiers": {
					"_totalSupply()": "3eaaf86b",
					"allowance(address,address)": "dd62ed3e",
					"approve(address,uint256)": "095ea7b3",
					"balanceOf(address)": "70a08231",
					"changeName(string)": "5353a2d8",
					"decimals()": "313ce567",
					"decreaseAllowance(address,uint256)": "a457c2d7",
					"increaseAllowance(address,uint256)": "39509351",
					"name()": "06fdde03",
					"symbol()": "95d89b41",
					"topAddress()": "23539224",
					"totalSupply()": "18160ddd",
					"transfer(address,uint256)": "a9059cbb",
					"transferFrom(address,address,uint256)": "23b872dd"
				}
			},
			"storageLayout": {
				"storage": [
					{
						"astId": 16,
						"contract": "LeoToken.sol:LeoToken",
						"label": "name",
						"offset": 0,
						"slot": "0",
						"type": "t_string_storage"
					},
					{
						"astId": 24,
						"contract": "LeoToken.sol:LeoToken",
						"label": "topAddress",
						"offset": 0,
						"slot": "1",
						"type": "t_address"
					},
					{
						"astId": 28,
						"contract": "LeoToken.sol:LeoToken",
						"label": "_balances",
						"offset": 0,
						"slot": "2",
						"type": "t_mapping(t_address,t_uint256)"
					},
					{
						"astId": 34,
						"contract": "LeoToken.sol:LeoToken",
						"label": "_allowed",
						"offset": 0,
						"slot": "3",
						"type": "t_mapping(t_address,t_mapping(t_address,t_uint256))"
					}
				],
				"types": {
					"t_address": {
						"encoding": "inplace",
						"label": "address",
						"numberOfBytes": "20"
					},
					"t_mapping(t_address,t_mapping(t_address,t_uint256))": {
						"encoding": "mapping",
						"key": "t_address",
						"label": "mapping(address => mapping(address => uint256))",
						"numberOfBytes": "32",
						"value": "t_mapping(t_address,t_uint256)"
					},
					"t_mapping(t_address,t_uint256)": {
						"encoding": "mapping",
						"key": "t_address",
						"label": "mapping(address => uint256)",
						"numberOfBytes": "32",
						"value": "t_uint256"
					},
					"t_string_storage": {
						"encoding": "bytes",
						"label": "string",
						"numberOfBytes": "32"
					},
					"t_uint256": {
						"encoding": "inplace",
						"label": "uint256",
						"numberOfBytes": "32"
					}
				}
			},
			"userdoc": {
				"kind": "user",
				"methods": {
					"allowance(address,address)": {
						"notice": "Function to check the amount of tokens that an owner allowed to a spender."
					}
				},
				"version": 1
			}
		}
	}
}