{
	"myContract.sol": {
		"myContract": {
			"abi": [
				{
					"inputs": [],
					"stateMutability": "nonpayable",
					"type": "constructor"
				},
				{
					"inputs": [],
					"name": "defiToken",
					"outputs": [
						{
							"internalType": "address",
							"name": "",
							"type": "address"
						}
					],
					"stateMutability": "view",
					"type": "function"
				},
				{
					"inputs": [],
					"name": "factory",
					"outputs": [
						{
							"internalType": "address",
							"name": "",
							"type": "address"
						}
					],
					"stateMutability": "view",
					"type": "function"
				},
				{
					"inputs": [],
					"name": "getBalances",
					"outputs": [
						{
							"internalType": "string",
							"name": "",
							"type": "string"
						},
						{
							"internalType": "uint256",
							"name": "",
							"type": "uint256"
						},
						{
							"internalType": "uint256",
							"name": "",
							"type": "uint256"
						},
						{
							"internalType": "uint256",
							"name": "",
							"type": "uint256"
						}
					],
					"stateMutability": "view",
					"type": "function"
				},
				{
					"inputs": [
						{
							"internalType": "address",
							"name": "pair",
							"type": "address"
						}
					],
					"name": "getPoolReserves",
					"outputs": [
						{
							"internalType": "string",
							"name": "",
							"type": "string"
						},
						{
							"internalType": "string",
							"name": "",
							"type": "string"
						},
						{
							"internalType": "uint256",
							"name": "",
							"type": "uint256"
						},
						{
							"internalType": "string",
							"name": "",
							"type": "string"
						},
						{
							"internalType": "uint256",
							"name": "",
							"type": "uint256"
						}
					],
					"stateMutability": "view",
					"type": "function"
				},
				{
					"inputs": [
						{
							"internalType": "address",
							"name": "pair",
							"type": "address"
						}
					],
					"name": "getPools",
					"outputs": [
						{
							"internalType": "string",
							"name": "",
							"type": "string"
						},
						{
							"internalType": "string[]",
							"name": "",
							"type": "string[]"
						},
						{
							"internalType": "uint256[]",
							"name": "",
							"type": "uint256[]"
						}
					],
					"stateMutability": "view",
					"type": "function"
				},
				{
					"inputs": [],
					"name": "getRouterAllowances",
					"outputs": [
						{
							"internalType": "string",
							"name": "",
							"type": "string"
						},
						{
							"internalType": "uint256",
							"name": "",
							"type": "uint256"
						},
						{
							"internalType": "uint256",
							"name": "",
							"type": "uint256"
						},
						{
							"internalType": "uint256",
							"name": "",
							"type": "uint256"
						}
					],
					"stateMutability": "view",
					"type": "function"
				},
				{
					"inputs": [],
					"name": "leoToken",
					"outputs": [
						{
							"internalType": "address",
							"name": "",
							"type": "address"
						}
					],
					"stateMutability": "view",
					"type": "function"
				},
				{
					"inputs": [],
					"name": "pairWETHLeo",
					"outputs": [
						{
							"internalType": "address",
							"name": "",
							"type": "address"
						}
					],
					"stateMutability": "view",
					"type": "function"
				},
				{
					"inputs": [],
					"name": "router",
					"outputs": [
						{
							"internalType": "address",
							"name": "",
							"type": "address"
						}
					],
					"stateMutability": "view",
					"type": "function"
				},
				{
					"inputs": [],
					"name": "wallet",
					"outputs": [
						{
							"internalType": "address",
							"name": "",
							"type": "address"
						}
					],
					"stateMutability": "view",
					"type": "function"
				},
				{
					"inputs": [],
					"name": "weth",
					"outputs": [
						{
							"internalType": "address",
							"name": "",
							"type": "address"
						}
					],
					"stateMutability": "view",
					"type": "function"
				}
			],
			"devdoc": {
				"kind": "dev",
				"methods": {},
				"version": 1
			},
			"evm": {
				"assembly": "    /* \"myContract.sol\":246:3037  contract myContract {... */\n  mstore(0x40, 0x80)\n    /* \"myContract.sol\":892:924  constructor () public {... */\n  callvalue\n  dup1\n  iszero\n  tag_1\n  jumpi\n  0x00\n  dup1\n  revert\ntag_1:\n  pop\n    /* \"myContract.sol\":246:3037  contract myContract {... */\n  dataSize(sub_0)\n  dup1\n  dataOffset(sub_0)\n  0x00\n  codecopy\n  0x00\n  return\nstop\n\nsub_0: assembly {\n        /* \"myContract.sol\":246:3037  contract myContract {... */\n      mstore(0x40, 0x80)\n      callvalue\n      dup1\n      iszero\n      tag_1\n      jumpi\n      0x00\n      dup1\n      revert\n    tag_1:\n      pop\n      jumpi(tag_2, lt(calldatasize, 0x04))\n      shr(0xe0, calldataload(0x00))\n      dup1\n      0x5c39f467\n      gt\n      tag_14\n      jumpi\n      dup1\n      0x5c39f467\n      eq\n      tag_8\n      jumpi\n      dup1\n      0x72639038\n      eq\n      tag_9\n      jumpi\n      dup1\n      0xae8be2af\n      eq\n      tag_10\n      jumpi\n      dup1\n      0xc45a0155\n      eq\n      tag_11\n      jumpi\n      dup1\n      0xea987a1e\n      eq\n      tag_12\n      jumpi\n      dup1\n      0xf887ea40\n      eq\n      tag_13\n      jumpi\n      jump(tag_2)\n    tag_14:\n      dup1\n      0x113e08\n      eq\n      tag_3\n      jumpi\n      dup1\n      0x3fc8cef3\n      eq\n      tag_4\n      jumpi\n      dup1\n      0x406d9408\n      eq\n      tag_5\n      jumpi\n      dup1\n      0x4bee9395\n      eq\n      tag_6\n      jumpi\n      dup1\n      0x521eb273\n      eq\n      tag_7\n      jumpi\n    tag_2:\n      0x00\n      dup1\n      revert\n        /* \"myContract.sol\":928:1255  function getBalances() public view returns (string memory,uint,uint,uint) {... */\n    tag_3:\n      tag_15\n      tag_16\n      jump\t// in\n    tag_15:\n      mload(0x40)\n      tag_17\n      swap5\n      swap4\n      swap3\n      swap2\n      swap1\n      tag_18\n      jump\t// in\n    tag_17:\n      mload(0x40)\n      dup1\n      swap2\n      sub\n      swap1\n      return\n        /* \"myContract.sol\":381:454  address public constant weth = 0x2362e2981E60aab56b6287aB814da1716D2f4f6d */\n    tag_4:\n      tag_19\n      tag_20\n      jump\t// in\n    tag_19:\n      mload(0x40)\n      tag_21\n      swap2\n      swap1\n      tag_22\n      jump\t// in\n    tag_21:\n      mload(0x40)\n      dup1\n      swap2\n      sub\n      swap1\n      return\n        /* \"myContract.sol\":458:535  address public constant leoToken = 0x7d30a8FB291F8507f9d0eE601336Cec132d97dD0 */\n    tag_5:\n      tag_23\n      tag_24\n      jump\t// in\n    tag_23:\n      mload(0x40)\n      tag_25\n      swap2\n      swap1\n      tag_22\n      jump\t// in\n    tag_25:\n      mload(0x40)\n      dup1\n      swap2\n      sub\n      swap1\n      return\n        /* \"myContract.sol\":1907:2310  function getPoolReserves(address pair) public view returns (string memory,string memory,uint,string memory,uint) {... */\n    tag_6:\n      tag_26\n      0x04\n      dup1\n      calldatasize\n      sub\n      dup2\n      add\n      swap1\n      tag_27\n      swap2\n      swap1\n      tag_28\n      jump\t// in\n    tag_27:\n      tag_29\n      jump\t// in\n    tag_26:\n      mload(0x40)\n      tag_30\n      swap6\n      swap5\n      swap4\n      swap3\n      swap2\n      swap1\n      tag_31\n      jump\t// in\n    tag_30:\n      mload(0x40)\n      dup1\n      swap2\n      sub\n      swap1\n      return\n        /* \"myContract.sol\":301:376  address public constant wallet = 0x39B48918530Ee063BF83728e9acbA694d27776F5 */\n    tag_7:\n      tag_32\n      tag_33\n      jump\t// in\n    tag_32:\n      mload(0x40)\n      tag_34\n      swap2\n      swap1\n      tag_22\n      jump\t// in\n    tag_34:\n      mload(0x40)\n      dup1\n      swap2\n      sub\n      swap1\n      return\n        /* \"myContract.sol\":2401:3033  function getPools(address pair) public view returns (string memory, string[] memory, uint[] memory) {... */\n    tag_8:\n      tag_35\n      0x04\n      dup1\n      calldatasize\n      sub\n      dup2\n      add\n      swap1\n      tag_36\n      swap2\n      swap1\n      tag_28\n      jump\t// in\n    tag_36:\n      tag_37\n      jump\t// in\n    tag_35:\n      mload(0x40)\n      tag_38\n      swap4\n      swap3\n      swap2\n      swap1\n      tag_39\n      jump\t// in\n    tag_38:\n      mload(0x40)\n      dup1\n      swap2\n      sub\n      swap1\n      return\n        /* \"myContract.sol\":1259:1816  function getRouterAllowances() public view returns (string memory,uint,uint,uint) {... */\n    tag_9:\n      tag_40\n      tag_41\n      jump\t// in\n    tag_40:\n      mload(0x40)\n      tag_42\n      swap5\n      swap4\n      swap3\n      swap2\n      swap1\n      tag_18\n      jump\t// in\n    tag_42:\n      mload(0x40)\n      dup1\n      swap2\n      sub\n      swap1\n      return\n        /* \"myContract.sol\":781:861  address public constant pairWETHLeo = 0xC5a8EA7102Db001850f433CcFd4aBdd7D566Bda6 */\n    tag_10:\n      tag_43\n      tag_44\n      jump\t// in\n    tag_43:\n      mload(0x40)\n      tag_45\n      swap2\n      swap1\n      tag_22\n      jump\t// in\n    tag_45:\n      mload(0x40)\n      dup1\n      swap2\n      sub\n      swap1\n      return\n        /* \"myContract.sol\":700:776  address public constant factory = 0x36C859726f1D72EBC32cA61B7Dc6A3092b416b66 */\n    tag_11:\n      tag_46\n      tag_47\n      jump\t// in\n    tag_46:\n      mload(0x40)\n      tag_48\n      swap2\n      swap1\n      tag_22\n      jump\t// in\n    tag_48:\n      mload(0x40)\n      dup1\n      swap2\n      sub\n      swap1\n      return\n        /* \"myContract.sol\":539:617  address public constant defiToken = 0xDeD39E717E29f2f7d1C9Ac73B9BB067fC202B2B4 */\n    tag_12:\n      tag_49\n      tag_50\n      jump\t// in\n    tag_49:\n      mload(0x40)\n      tag_51\n      swap2\n      swap1\n      tag_22\n      jump\t// in\n    tag_51:\n      mload(0x40)\n      dup1\n      swap2\n      sub\n      swap1\n      return\n        /* \"myContract.sol\":621:696  address public constant router = 0x3141e4602Fd9B3b08029816D0C09ab177Fdc9dFA */\n    tag_13:\n      tag_52\n      tag_53\n      jump\t// in\n    tag_52:\n      mload(0x40)\n      tag_54\n      swap2\n      swap1\n      tag_22\n      jump\t// in\n    tag_54:\n      mload(0x40)\n      dup1\n      swap2\n      sub\n      swap1\n      return\n        /* \"myContract.sol\":928:1255  function getBalances() public view returns (string memory,uint,uint,uint) {... */\n    tag_16:\n        /* \"myContract.sol\":972:985  string memory */\n      0x60\n        /* \"myContract.sol\":986:990  uint */\n      0x00\n        /* \"myContract.sol\":991:995  uint */\n      dup1\n        /* \"myContract.sol\":996:1000  uint */\n      0x00\n        /* \"myContract.sol\":1008:1024  uint balanceWETH */\n      dup1\n        /* \"myContract.sol\":412:454  0x2362e2981E60aab56b6287aB814da1716D2f4f6d */\n      0x2362e2981e60aab56b6287ab814da1716d2f4f6d\n        /* \"myContract.sol\":1027:1049  IERC20(weth).balanceOf */\n      0xffffffffffffffffffffffffffffffffffffffff\n      and\n      0x70a08231\n        /* \"myContract.sol\":334:376  0x39B48918530Ee063BF83728e9acbA694d27776F5 */\n      0x39b48918530ee063bf83728e9acba694d27776f5\n        /* \"myContract.sol\":1027:1057  IERC20(weth).balanceOf(wallet) */\n      mload(0x40)\n      dup3\n      0xffffffff\n      and\n      0xe0\n      shl\n      dup2\n      mstore\n      0x04\n      add\n      tag_56\n      swap2\n      swap1\n      tag_22\n      jump\t// in\n    tag_56:\n      0x20\n      mload(0x40)\n      dup1\n      dup4\n      sub\n      dup2\n      dup7\n      dup1\n      extcodesize\n      iszero\n      dup1\n      iszero\n      tag_57\n      jumpi\n      0x00\n      dup1\n      revert\n    tag_57:\n      pop\n      gas\n      staticcall\n      iszero\n      dup1\n      iszero\n      tag_59\n      jumpi\n      returndatasize\n      0x00\n      dup1\n      returndatacopy\n      revert(0x00, returndatasize)\n    tag_59:\n      pop\n      pop\n      pop\n      pop\n      mload(0x40)\n      returndatasize\n      not(0x1f)\n      0x1f\n      dup3\n      add\n      and\n      dup3\n      add\n      dup1\n      0x40\n      mstore\n      pop\n      dup2\n      add\n      swap1\n      tag_60\n      swap2\n      swap1\n      tag_61\n      jump\t// in\n    tag_60:\n        /* \"myContract.sol\":1008:1057  uint balanceWETH = IERC20(weth).balanceOf(wallet) */\n      swap1\n      pop\n        /* \"myContract.sol\":1063:1078  uint balanceLeo */\n      0x00\n        /* \"myContract.sol\":493:535  0x7d30a8FB291F8507f9d0eE601336Cec132d97dD0 */\n      0x7d30a8fb291f8507f9d0ee601336cec132d97dd0\n        /* \"myContract.sol\":1081:1107  IERC20(leoToken).balanceOf */\n      0xffffffffffffffffffffffffffffffffffffffff\n      and\n      0x70a08231\n        /* \"myContract.sol\":334:376  0x39B48918530Ee063BF83728e9acbA694d27776F5 */\n      0x39b48918530ee063bf83728e9acba694d27776f5\n        /* \"myContract.sol\":1081:1115  IERC20(leoToken).balanceOf(wallet) */\n      mload(0x40)\n      dup3\n      0xffffffff\n      and\n      0xe0\n      shl\n      dup2\n      mstore\n      0x04\n      add\n      tag_62\n      swap2\n      swap1\n      tag_22\n      jump\t// in\n    tag_62:\n      0x20\n      mload(0x40)\n      dup1\n      dup4\n      sub\n      dup2\n      dup7\n      dup1\n      extcodesize\n      iszero\n      dup1\n      iszero\n      tag_63\n      jumpi\n      0x00\n      dup1\n      revert\n    tag_63:\n      pop\n      gas\n      staticcall\n      iszero\n      dup1\n      iszero\n      tag_65\n      jumpi\n      returndatasize\n      0x00\n      dup1\n      returndatacopy\n      revert(0x00, returndatasize)\n    tag_65:\n      pop\n      pop\n      pop\n      pop\n      mload(0x40)\n      returndatasize\n      not(0x1f)\n      0x1f\n      dup3\n      add\n      and\n      dup3\n      add\n      dup1\n      0x40\n      mstore\n      pop\n      dup2\n      add\n      swap1\n      tag_66\n      swap2\n      swap1\n      tag_61\n      jump\t// in\n    tag_66:\n        /* \"myContract.sol\":1063:1115  uint balanceLeo = IERC20(leoToken).balanceOf(wallet) */\n      swap1\n      pop\n        /* \"myContract.sol\":1121:1137  uint balanceDefi */\n      0x00\n        /* \"myContract.sol\":575:617  0xDeD39E717E29f2f7d1C9Ac73B9BB067fC202B2B4 */\n      0xded39e717e29f2f7d1c9ac73b9bb067fc202b2b4\n        /* \"myContract.sol\":1140:1167  IERC20(defiToken).balanceOf */\n      0xffffffffffffffffffffffffffffffffffffffff\n      and\n      0x70a08231\n        /* \"myContract.sol\":334:376  0x39B48918530Ee063BF83728e9acbA694d27776F5 */\n      0x39b48918530ee063bf83728e9acba694d27776f5\n        /* \"myContract.sol\":1140:1175  IERC20(defiToken).balanceOf(wallet) */\n      mload(0x40)\n      dup3\n      0xffffffff\n      and\n      0xe0\n      shl\n      dup2\n      mstore\n      0x04\n      add\n      tag_67\n      swap2\n      swap1\n      tag_22\n      jump\t// in\n    tag_67:\n      0x20\n      mload(0x40)\n      dup1\n      dup4\n      sub\n      dup2\n      dup7\n      dup1\n      extcodesize\n      iszero\n      dup1\n      iszero\n      tag_68\n      jumpi\n      0x00\n      dup1\n      revert\n    tag_68:\n      pop\n      gas\n      staticcall\n      iszero\n      dup1\n      iszero\n      tag_70\n      jumpi\n      returndatasize\n      0x00\n      dup1\n      returndatacopy\n      revert(0x00, returndatasize)\n    tag_70:\n      pop\n      pop\n      pop\n      pop\n      mload(0x40)\n      returndatasize\n      not(0x1f)\n      0x1f\n      dup3\n      add\n      and\n      dup3\n      add\n      dup1\n      0x40\n      mstore\n      pop\n      dup2\n      add\n      swap1\n      tag_71\n      swap2\n      swap1\n      tag_61\n      jump\t// in\n    tag_71:\n        /* \"myContract.sol\":1121:1175  uint balanceDefi = IERC20(defiToken).balanceOf(wallet) */\n      swap1\n      pop\n        /* \"myContract.sol\":1215:1226  balanceWETH */\n      dup3\n        /* \"myContract.sol\":1227:1237  balanceLeo */\n      dup3\n        /* \"myContract.sol\":1238:1249  balanceDefi */\n      dup3\n        /* \"myContract.sol\":1181:1250  return (\"balance WETH, Leo, DeFi\",balanceWETH,balanceLeo,balanceDefi) */\n      mload(0x40)\n      dup1\n      0x40\n      add\n      0x40\n      mstore\n      dup1\n      0x17\n      dup2\n      mstore\n      0x20\n      add\n      0x62616c616e636520574554482c204c656f2c2044654669000000000000000000\n      dup2\n      mstore\n      pop\n      swap3\n      swap2\n      swap1\n      swap7\n      pop\n      swap7\n      pop\n      swap7\n      pop\n      swap7\n      pop\n      pop\n      pop\n      pop\n        /* \"myContract.sol\":928:1255  function getBalances() public view returns (string memory,uint,uint,uint) {... */\n      swap1\n      swap2\n      swap3\n      swap4\n      jump\t// out\n        /* \"myContract.sol\":381:454  address public constant weth = 0x2362e2981E60aab56b6287aB814da1716D2f4f6d */\n    tag_20:\n        /* \"myContract.sol\":412:454  0x2362e2981E60aab56b6287aB814da1716D2f4f6d */\n      0x2362e2981e60aab56b6287ab814da1716d2f4f6d\n        /* \"myContract.sol\":381:454  address public constant weth = 0x2362e2981E60aab56b6287aB814da1716D2f4f6d */\n      dup2\n      jump\t// out\n        /* \"myContract.sol\":458:535  address public constant leoToken = 0x7d30a8FB291F8507f9d0eE601336Cec132d97dD0 */\n    tag_24:\n        /* \"myContract.sol\":493:535  0x7d30a8FB291F8507f9d0eE601336Cec132d97dD0 */\n      0x7d30a8fb291f8507f9d0ee601336cec132d97dd0\n        /* \"myContract.sol\":458:535  address public constant leoToken = 0x7d30a8FB291F8507f9d0eE601336Cec132d97dD0 */\n      dup2\n      jump\t// out\n        /* \"myContract.sol\":1907:2310  function getPoolReserves(address pair) public view returns (string memory,string memory,uint,string memory,uint) {... */\n    tag_29:\n        /* \"myContract.sol\":1967:1980  string memory */\n      0x60\n        /* \"myContract.sol\":1981:1994  string memory */\n      dup1\n        /* \"myContract.sol\":1995:1999  uint */\n      0x00\n        /* \"myContract.sol\":2000:2013  string memory */\n      0x60\n        /* \"myContract.sol\":2014:2018  uint */\n      0x00\n        /* \"myContract.sol\":2076:2091  UniswapV2Pair p */\n      dup1\n        /* \"myContract.sol\":2108:2112  pair */\n      dup7\n        /* \"myContract.sol\":2076:2113  UniswapV2Pair p = UniswapV2Pair(pair) */\n      swap1\n      pop\n        /* \"myContract.sol\":2120:2127  uint r1 */\n      0x00\n        /* \"myContract.sol\":2129:2136  uint r2 */\n      dup1\n        /* \"myContract.sol\":2141:2142  p */\n      dup3\n        /* \"myContract.sol\":2141:2154  p.getReserves */\n      0xffffffffffffffffffffffffffffffffffffffff\n      and\n      0x0902f1ac\n        /* \"myContract.sol\":2141:2156  p.getReserves() */\n      mload(0x40)\n      dup2\n      0xffffffff\n      and\n      0xe0\n      shl\n      dup2\n      mstore\n      0x04\n      add\n      0x60\n      mload(0x40)\n      dup1\n      dup4\n      sub\n      dup2\n      dup7\n      dup1\n      extcodesize\n      iszero\n      dup1\n      iszero\n      tag_73\n      jumpi\n      0x00\n      dup1\n      revert\n    tag_73:\n      pop\n      gas\n      staticcall\n      iszero\n      dup1\n      iszero\n      tag_75\n      jumpi\n      returndatasize\n      0x00\n      dup1\n      returndatacopy\n      revert(0x00, returndatasize)\n    tag_75:\n      pop\n      pop\n      pop\n      pop\n      mload(0x40)\n      returndatasize\n      not(0x1f)\n      0x1f\n      dup3\n      add\n      and\n      dup3\n      add\n      dup1\n      0x40\n      mstore\n      pop\n      dup2\n      add\n      swap1\n      tag_76\n      swap2\n      swap1\n      tag_77\n      jump\t// in\n    tag_76:\n        /* \"myContract.sol\":2119:2156  (uint r1, uint r2,) = p.getReserves() */\n      pop\n      0xffffffffffffffffffffffffffff\n      and\n      swap2\n      pop\n      0xffffffffffffffffffffffffffff\n      and\n      swap2\n      pop\n        /* \"myContract.sol\":2162:2178  string memory s1 */\n      0x60\n        /* \"myContract.sol\":2188:2189  p */\n      dup4\n        /* \"myContract.sol\":2188:2196  p.token0 */\n      0xffffffffffffffffffffffffffffffffffffffff\n      and\n      0x0dfe1681\n        /* \"myContract.sol\":2188:2198  p.token0() */\n      mload(0x40)\n      dup2\n      0xffffffff\n      and\n      0xe0\n      shl\n      dup2\n      mstore\n      0x04\n      add\n      0x20\n      mload(0x40)\n      dup1\n      dup4\n      sub\n      dup2\n      dup7\n      dup1\n      extcodesize\n      iszero\n      dup1\n      iszero\n      tag_78\n      jumpi\n      0x00\n      dup1\n      revert\n    tag_78:\n      pop\n      gas\n      staticcall\n      iszero\n      dup1\n      iszero\n      tag_80\n      jumpi\n      returndatasize\n      0x00\n      dup1\n      returndatacopy\n      revert(0x00, returndatasize)\n    tag_80:\n      pop\n      pop\n      pop\n      pop\n      mload(0x40)\n      returndatasize\n      not(0x1f)\n      0x1f\n      dup3\n      add\n      and\n      dup3\n      add\n      dup1\n      0x40\n      mstore\n      pop\n      dup2\n      add\n      swap1\n      tag_81\n      swap2\n      swap1\n      tag_82\n      jump\t// in\n    tag_81:\n        /* \"myContract.sol\":2181:2206  IERC20(p.token0()).symbol */\n      0xffffffffffffffffffffffffffffffffffffffff\n      and\n      0x95d89b41\n        /* \"myContract.sol\":2181:2208  IERC20(p.token0()).symbol() */\n      mload(0x40)\n      dup2\n      0xffffffff\n      and\n      0xe0\n      shl\n      dup2\n      mstore\n      0x04\n      add\n      0x00\n      mload(0x40)\n      dup1\n      dup4\n      sub\n      dup2\n      dup7\n      dup1\n      extcodesize\n      iszero\n      dup1\n      iszero\n      tag_83\n      jumpi\n      0x00\n      dup1\n      revert\n    tag_83:\n      pop\n      gas\n      staticcall\n      iszero\n      dup1\n      iszero\n      tag_85\n      jumpi\n      returndatasize\n      0x00\n      dup1\n      returndatacopy\n      revert(0x00, returndatasize)\n    tag_85:\n      pop\n      pop\n      pop\n      pop\n      mload(0x40)\n      returndatasize\n      0x00\n      dup3\n      returndatacopy\n      returndatasize\n      not(0x1f)\n      0x1f\n      dup3\n      add\n      and\n      dup3\n      add\n      dup1\n      0x40\n      mstore\n      pop\n      dup2\n      add\n      swap1\n      tag_86\n      swap2\n      swap1\n      tag_87\n      jump\t// in\n    tag_86:\n        /* \"myContract.sol\":2162:2208  string memory s1 = IERC20(p.token0()).symbol() */\n      swap1\n      pop\n        /* \"myContract.sol\":2214:2230  string memory s2 */\n      0x60\n        /* \"myContract.sol\":2240:2241  p */\n      dup5\n        /* \"myContract.sol\":2240:2248  p.token1 */\n      0xffffffffffffffffffffffffffffffffffffffff\n      and\n      0xd21220a7\n        /* \"myContract.sol\":2240:2250  p.token1() */\n      mload(0x40)\n      dup2\n      0xffffffff\n      and\n      0xe0\n      shl\n      dup2\n      mstore\n      0x04\n      add\n      0x20\n      mload(0x40)\n      dup1\n      dup4\n      sub\n      dup2\n      dup7\n      dup1\n      extcodesize\n      iszero\n      dup1\n      iszero\n      tag_88\n      jumpi\n      0x00\n      dup1\n      revert\n    tag_88:\n      pop\n      gas\n      staticcall\n      iszero\n      dup1\n      iszero\n      tag_90\n      jumpi\n      returndatasize\n      0x00\n      dup1\n      returndatacopy\n      revert(0x00, returndatasize)\n    tag_90:\n      pop\n      pop\n      pop\n      pop\n      mload(0x40)\n      returndatasize\n      not(0x1f)\n      0x1f\n      dup3\n      add\n      and\n      dup3\n      add\n      dup1\n      0x40\n      mstore\n      pop\n      dup2\n      add\n      swap1\n      tag_91\n      swap2\n      swap1\n      tag_82\n      jump\t// in\n    tag_91:\n        /* \"myContract.sol\":2233:2258  IERC20(p.token1()).symbol */\n      0xffffffffffffffffffffffffffffffffffffffff\n      and\n      0x95d89b41\n        /* \"myContract.sol\":2233:2260  IERC20(p.token1()).symbol() */\n      mload(0x40)\n      dup2\n      0xffffffff\n      and\n      0xe0\n      shl\n      dup2\n      mstore\n      0x04\n      add\n      0x00\n      mload(0x40)\n      dup1\n      dup4\n      sub\n      dup2\n      dup7\n      dup1\n      extcodesize\n      iszero\n      dup1\n      iszero\n      tag_92\n      jumpi\n      0x00\n      dup1\n      revert\n    tag_92:\n      pop\n      gas\n      staticcall\n      iszero\n      dup1\n      iszero\n      tag_94\n      jumpi\n      returndatasize\n      0x00\n      dup1\n      returndatacopy\n      revert(0x00, returndatasize)\n    tag_94:\n      pop\n      pop\n      pop\n      pop\n      mload(0x40)\n      returndatasize\n      0x00\n      dup3\n      returndatacopy\n      returndatasize\n      not(0x1f)\n      0x1f\n      dup3\n      add\n      and\n      dup3\n      add\n      dup1\n      0x40\n      mstore\n      pop\n      dup2\n      add\n      swap1\n      tag_95\n      swap2\n      swap1\n      tag_87\n      jump\t// in\n    tag_95:\n        /* \"myContract.sol\":2214:2260  string memory s2 = IERC20(p.token1()).symbol() */\n      swap1\n      pop\n        /* \"myContract.sol\":2293:2295  s1 */\n      dup2\n        /* \"myContract.sol\":2296:2298  r1 */\n      dup5\n        /* \"myContract.sol\":2299:2301  s2 */\n      dup3\n        /* \"myContract.sol\":2302:2304  r2 */\n      dup6\n        /* \"myContract.sol\":2266:2305  return (\"Reserves of Pair\",s1,r1,s2,r2) */\n      mload(0x40)\n      dup1\n      0x40\n      add\n      0x40\n      mstore\n      dup1\n      0x10\n      dup2\n      mstore\n      0x20\n      add\n      0x5265736572766573206f66205061697200000000000000000000000000000000\n      dup2\n      mstore\n      pop\n      swap4\n      swap3\n      swap2\n      swap1\n      swap10\n      pop\n      swap10\n      pop\n      swap10\n      pop\n      swap10\n      pop\n      swap10\n      pop\n      pop\n      pop\n      pop\n      pop\n      pop\n        /* \"myContract.sol\":1907:2310  function getPoolReserves(address pair) public view returns (string memory,string memory,uint,string memory,uint) {... */\n      swap2\n      swap4\n      swap6\n      swap1\n      swap3\n      swap5\n      pop\n      jump\t// out\n        /* \"myContract.sol\":301:376  address public constant wallet = 0x39B48918530Ee063BF83728e9acbA694d27776F5 */\n    tag_33:\n        /* \"myContract.sol\":334:376  0x39B48918530Ee063BF83728e9acbA694d27776F5 */\n      0x39b48918530ee063bf83728e9acba694d27776f5\n        /* \"myContract.sol\":301:376  address public constant wallet = 0x39B48918530Ee063BF83728e9acbA694d27776F5 */\n      dup2\n      jump\t// out\n        /* \"myContract.sol\":2401:3033  function getPools(address pair) public view returns (string memory, string[] memory, uint[] memory) {... */\n    tag_37:\n        /* \"myContract.sol\":2454:2467  string memory */\n      0x60\n        /* \"myContract.sol\":2469:2484  string[] memory */\n      dup1\n        /* \"myContract.sol\":2486:2499  uint[] memory */\n      0x60\n        /* \"myContract.sol\":2557:2572  UniswapV2Pair p */\n      0x00\n        /* \"myContract.sol\":2589:2593  pair */\n      dup5\n        /* \"myContract.sol\":2557:2594  UniswapV2Pair p = UniswapV2Pair(pair) */\n      swap1\n      pop\n        /* \"myContract.sol\":2601:2608  uint r1 */\n      0x00\n        /* \"myContract.sol\":2610:2617  uint r2 */\n      dup1\n        /* \"myContract.sol\":2622:2623  p */\n      dup3\n        /* \"myContract.sol\":2622:2635  p.getReserves */\n      0xffffffffffffffffffffffffffffffffffffffff\n      and\n      0x0902f1ac\n        /* \"myContract.sol\":2622:2637  p.getReserves() */\n      mload(0x40)\n      dup2\n      0xffffffff\n      and\n      0xe0\n      shl\n      dup2\n      mstore\n      0x04\n      add\n      0x60\n      mload(0x40)\n      dup1\n      dup4\n      sub\n      dup2\n      dup7\n      dup1\n      extcodesize\n      iszero\n      dup1\n      iszero\n      tag_97\n      jumpi\n      0x00\n      dup1\n      revert\n    tag_97:\n      pop\n      gas\n      staticcall\n      iszero\n      dup1\n      iszero\n      tag_99\n      jumpi\n      returndatasize\n      0x00\n      dup1\n      returndatacopy\n      revert(0x00, returndatasize)\n    tag_99:\n      pop\n      pop\n      pop\n      pop\n      mload(0x40)\n      returndatasize\n      not(0x1f)\n      0x1f\n      dup3\n      add\n      and\n      dup3\n      add\n      dup1\n      0x40\n      mstore\n      pop\n      dup2\n      add\n      swap1\n      tag_100\n      swap2\n      swap1\n      tag_77\n      jump\t// in\n    tag_100:\n        /* \"myContract.sol\":2600:2637  (uint r1, uint r2,) = p.getReserves() */\n      pop\n      0xffffffffffffffffffffffffffff\n      and\n      swap2\n      pop\n      0xffffffffffffffffffffffffffff\n      and\n      swap2\n      pop\n        /* \"myContract.sol\":2643:2659  string memory s1 */\n      0x60\n        /* \"myContract.sol\":2669:2670  p */\n      dup4\n        /* \"myContract.sol\":2669:2677  p.token0 */\n      0xffffffffffffffffffffffffffffffffffffffff\n      and\n      0x0dfe1681\n        /* \"myContract.sol\":2669:2679  p.token0() */\n      mload(0x40)\n      dup2\n      0xffffffff\n      and\n      0xe0\n      shl\n      dup2\n      mstore\n      0x04\n      add\n      0x20\n      mload(0x40)\n      dup1\n      dup4\n      sub\n      dup2\n      dup7\n      dup1\n      extcodesize\n      iszero\n      dup1\n      iszero\n      tag_101\n      jumpi\n      0x00\n      dup1\n      revert\n    tag_101:\n      pop\n      gas\n      staticcall\n      iszero\n      dup1\n      iszero\n      tag_103\n      jumpi\n      returndatasize\n      0x00\n      dup1\n      returndatacopy\n      revert(0x00, returndatasize)\n    tag_103:\n      pop\n      pop\n      pop\n      pop\n      mload(0x40)\n      returndatasize\n      not(0x1f)\n      0x1f\n      dup3\n      add\n      and\n      dup3\n      add\n      dup1\n      0x40\n      mstore\n      pop\n      dup2\n      add\n      swap1\n      tag_104\n      swap2\n      swap1\n      tag_82\n      jump\t// in\n    tag_104:\n        /* \"myContract.sol\":2662:2687  IERC20(p.token0()).symbol */\n      0xffffffffffffffffffffffffffffffffffffffff\n      and\n      0x95d89b41\n        /* \"myContract.sol\":2662:2689  IERC20(p.token0()).symbol() */\n      mload(0x40)\n      dup2\n      0xffffffff\n      and\n      0xe0\n      shl\n      dup2\n      mstore\n      0x04\n      add\n      0x00\n      mload(0x40)\n      dup1\n      dup4\n      sub\n      dup2\n      dup7\n      dup1\n      extcodesize\n      iszero\n      dup1\n      iszero\n      tag_105\n      jumpi\n      0x00\n      dup1\n      revert\n    tag_105:\n      pop\n      gas\n      staticcall\n      iszero\n      dup1\n      iszero\n      tag_107\n      jumpi\n      returndatasize\n      0x00\n      dup1\n      returndatacopy\n      revert(0x00, returndatasize)\n    tag_107:\n      pop\n      pop\n      pop\n      pop\n      mload(0x40)\n      returndatasize\n      0x00\n      dup3\n      returndatacopy\n      returndatasize\n      not(0x1f)\n      0x1f\n      dup3\n      add\n      and\n      dup3\n      add\n      dup1\n      0x40\n      mstore\n      pop\n      dup2\n      add\n      swap1\n      tag_108\n      swap2\n      swap1\n      tag_87\n      jump\t// in\n    tag_108:\n        /* \"myContract.sol\":2643:2689  string memory s1 = IERC20(p.token0()).symbol() */\n      swap1\n      pop\n        /* \"myContract.sol\":2695:2711  string memory s2 */\n      0x60\n        /* \"myContract.sol\":2721:2722  p */\n      dup5\n        /* \"myContract.sol\":2721:2729  p.token1 */\n      0xffffffffffffffffffffffffffffffffffffffff\n      and\n      0xd21220a7\n        /* \"myContract.sol\":2721:2731  p.token1() */\n      mload(0x40)\n      dup2\n      0xffffffff\n      and\n      0xe0\n      shl\n      dup2\n      mstore\n      0x04\n      add\n      0x20\n      mload(0x40)\n      dup1\n      dup4\n      sub\n      dup2\n      dup7\n      dup1\n      extcodesize\n      iszero\n      dup1\n      iszero\n      tag_109\n      jumpi\n      0x00\n      dup1\n      revert\n    tag_109:\n      pop\n      gas\n      staticcall\n      iszero\n      dup1\n      iszero\n      tag_111\n      jumpi\n      returndatasize\n      0x00\n      dup1\n      returndatacopy\n      revert(0x00, returndatasize)\n    tag_111:\n      pop\n      pop\n      pop\n      pop\n      mload(0x40)\n      returndatasize\n      not(0x1f)\n      0x1f\n      dup3\n      add\n      and\n      dup3\n      add\n      dup1\n      0x40\n      mstore\n      pop\n      dup2\n      add\n      swap1\n      tag_112\n      swap2\n      swap1\n      tag_82\n      jump\t// in\n    tag_112:\n        /* \"myContract.sol\":2714:2739  IERC20(p.token1()).symbol */\n      0xffffffffffffffffffffffffffffffffffffffff\n      and\n      0x95d89b41\n        /* \"myContract.sol\":2714:2741  IERC20(p.token1()).symbol() */\n      mload(0x40)\n      dup2\n      0xffffffff\n      and\n      0xe0\n      shl\n      dup2\n      mstore\n      0x04\n      add\n      0x00\n      mload(0x40)\n      dup1\n      dup4\n      sub\n      dup2\n      dup7\n      dup1\n      extcodesize\n      iszero\n      dup1\n      iszero\n      tag_113\n      jumpi\n      0x00\n      dup1\n      revert\n    tag_113:\n      pop\n      gas\n      staticcall\n      iszero\n      dup1\n      iszero\n      tag_115\n      jumpi\n      returndatasize\n      0x00\n      dup1\n      returndatacopy\n      revert(0x00, returndatasize)\n    tag_115:\n      pop\n      pop\n      pop\n      pop\n      mload(0x40)\n      returndatasize\n      0x00\n      dup3\n      returndatacopy\n      returndatasize\n      not(0x1f)\n      0x1f\n      dup3\n      add\n      and\n      dup3\n      add\n      dup1\n      0x40\n      mstore\n      pop\n      dup2\n      add\n      swap1\n      tag_116\n      swap2\n      swap1\n      tag_87\n      jump\t// in\n    tag_116:\n        /* \"myContract.sol\":2695:2741  string memory s2 = IERC20(p.token1()).symbol() */\n      swap1\n      pop\n        /* \"myContract.sol\":2747:2765  string[] memory sa */\n      0x60\n        /* \"myContract.sol\":2781:2782  7 */\n      0x07\n        /* \"myContract.sol\":2768:2783  new string[](7) */\n      0xffffffffffffffff\n      dup2\n      gt\n      dup1\n      iszero\n      tag_117\n      jumpi\n      0x00\n      dup1\n      revert\n    tag_117:\n      pop\n      mload(0x40)\n      swap1\n      dup1\n      dup3\n      mstore\n      dup1\n      0x20\n      mul\n      0x20\n      add\n      dup3\n      add\n      0x40\n      mstore\n      dup1\n      iszero\n      tag_118\n      jumpi\n      dup2\n      0x20\n      add\n    tag_119:\n      0x60\n      dup2\n      mstore\n      0x20\n      add\n      swap1\n      0x01\n      swap1\n      sub\n      swap1\n      dup2\n      tag_119\n      jumpi\n      swap1\n      pop\n    tag_118:\n      pop\n        /* \"myContract.sol\":2747:2783  string[] memory sa = new string[](7) */\n      swap1\n      pop\n        /* \"myContract.sol\":2797:2799  s1 */\n      dup3\n        /* \"myContract.sol\":2789:2791  sa */\n      dup2\n        /* \"myContract.sol\":2792:2793  0 */\n      0x00\n        /* \"myContract.sol\":2789:2794  sa[0] */\n      dup2\n      mload\n      dup2\n      lt\n      tag_120\n      jumpi\n      invalid\n    tag_120:\n      0x20\n      mul\n      0x20\n      add\n      add\n        /* \"myContract.sol\":2789:2799  sa[0] = s1 */\n      dup2\n      swap1\n      mstore\n      pop\n        /* \"myContract.sol\":2813:2815  s2 */\n      dup2\n        /* \"myContract.sol\":2805:2807  sa */\n      dup2\n        /* \"myContract.sol\":2808:2809  1 */\n      0x01\n        /* \"myContract.sol\":2805:2810  sa[1] */\n      dup2\n      mload\n      dup2\n      lt\n      tag_121\n      jumpi\n      invalid\n    tag_121:\n      0x20\n      mul\n      0x20\n      add\n      add\n        /* \"myContract.sol\":2805:2815  sa[1] = s2 */\n      dup2\n      swap1\n      mstore\n      pop\n        /* \"myContract.sol\":2821:2836  string memory s */\n      0x60\n        /* \"myContract.sol\":2846:2903  abi.encodePacked(\"a\", \" \", \"concatenated\", \" \", \"string\") */\n      add(0x20, mload(0x40))\n      tag_122\n      swap1\n      tag_123\n      jump\t// in\n    tag_122:\n      mload(0x40)\n      0x20\n      dup2\n      dup4\n      sub\n      sub\n      dup2\n      mstore\n      swap1\n      0x40\n      mstore\n        /* \"myContract.sol\":2821:2904  string memory s = string(abi.encodePacked(\"a\", \" \", \"concatenated\", \" \", \"string\")) */\n      swap1\n      pop\n        /* \"myContract.sol\":2918:2919  s */\n      dup1\n        /* \"myContract.sol\":2910:2912  sa */\n      dup3\n        /* \"myContract.sol\":2913:2914  2 */\n      0x02\n        /* \"myContract.sol\":2910:2915  sa[2] */\n      dup2\n      mload\n      dup2\n      lt\n      tag_124\n      jumpi\n      invalid\n    tag_124:\n      0x20\n      mul\n      0x20\n      add\n      add\n        /* \"myContract.sol\":2910:2919  sa[2] = s */\n      dup2\n      swap1\n      mstore\n      pop\n        /* \"myContract.sol\":2925:2941  uint[] memory ra */\n      0x60\n        /* \"myContract.sol\":2955:2956  7 */\n      0x07\n        /* \"myContract.sol\":2944:2957  new uint[](7) */\n      0xffffffffffffffff\n      dup2\n      gt\n      dup1\n      iszero\n      tag_125\n      jumpi\n      0x00\n      dup1\n      revert\n    tag_125:\n      pop\n      mload(0x40)\n      swap1\n      dup1\n      dup3\n      mstore\n      dup1\n      0x20\n      mul\n      0x20\n      add\n      dup3\n      add\n      0x40\n      mstore\n      dup1\n      iszero\n      tag_126\n      jumpi\n      dup2\n      0x20\n      add\n      0x20\n      dup3\n      mul\n      dup1\n      calldatasize\n      dup4\n      calldatacopy\n      dup1\n      dup3\n      add\n      swap2\n      pop\n      pop\n      swap1\n      pop\n    tag_126:\n      pop\n        /* \"myContract.sol\":2925:2957  uint[] memory ra = new uint[](7) */\n      swap1\n      pop\n        /* \"myContract.sol\":2971:2973  r1 */\n      dup7\n        /* \"myContract.sol\":2963:2965  ra */\n      dup2\n        /* \"myContract.sol\":2966:2967  0 */\n      0x00\n        /* \"myContract.sol\":2963:2968  ra[0] */\n      dup2\n      mload\n      dup2\n      lt\n      tag_127\n      jumpi\n      invalid\n    tag_127:\n      0x20\n      mul\n      0x20\n      add\n      add\n        /* \"myContract.sol\":2963:2973  ra[0] = r1 */\n      dup2\n      dup2\n      mstore\n      pop\n      pop\n        /* \"myContract.sol\":2987:2989  r2 */\n      dup6\n        /* \"myContract.sol\":2979:2981  ra */\n      dup2\n        /* \"myContract.sol\":2982:2983  1 */\n      0x01\n        /* \"myContract.sol\":2979:2984  ra[1] */\n      dup2\n      mload\n      dup2\n      lt\n      tag_128\n      jumpi\n      invalid\n    tag_128:\n      0x20\n      mul\n      0x20\n      add\n      add\n        /* \"myContract.sol\":2979:2989  ra[1] = r2 */\n      dup2\n      dup2\n      mstore\n      pop\n      pop\n        /* \"myContract.sol\":3022:3024  sa */\n      dup3\n        /* \"myContract.sol\":3025:3027  ra */\n      dup2\n        /* \"myContract.sol\":2995:3028  return (\"Reserves of Pair\",sa,ra) */\n      mload(0x40)\n      dup1\n      0x40\n      add\n      0x40\n      mstore\n      dup1\n      0x10\n      dup2\n      mstore\n      0x20\n      add\n      0x5265736572766573206f66205061697200000000000000000000000000000000\n      dup2\n      mstore\n      pop\n      swap2\n      swap1\n      swap11\n      pop\n      swap11\n      pop\n      swap11\n      pop\n      pop\n      pop\n      pop\n      pop\n      pop\n      pop\n      pop\n      pop\n        /* \"myContract.sol\":2401:3033  function getPools(address pair) public view returns (string memory, string[] memory, uint[] memory) {... */\n      swap2\n      swap4\n      swap1\n      swap3\n      pop\n      jump\t// out\n        /* \"myContract.sol\":1259:1816  function getRouterAllowances() public view returns (string memory,uint,uint,uint) {... */\n    tag_41:\n        /* \"myContract.sol\":1311:1324  string memory */\n      0x60\n        /* \"myContract.sol\":1325:1329  uint */\n      0x00\n        /* \"myContract.sol\":1330:1334  uint */\n      dup1\n        /* \"myContract.sol\":1335:1339  uint */\n      0x00\n        /* \"myContract.sol\":1347:1365  address payable ra */\n      dup1\n        /* \"myContract.sol\":654:696  0x3141e4602Fd9B3b08029816D0C09ab177Fdc9dFA */\n      0x3141e4602fd9b3b08029816d0c09ab177fdc9dfa\n        /* \"myContract.sol\":1347:1392  address payable ra = address(uint160(router)) */\n      swap1\n      pop\n        /* \"myContract.sol\":1398:1416  address payable pa */\n      0x00\n        /* \"myContract.sol\":412:454  0x2362e2981E60aab56b6287aB814da1716D2f4f6d */\n      0x2362e2981e60aab56b6287ab814da1716d2f4f6d\n        /* \"myContract.sol\":1398:1441  address payable pa = address(uint160(weth)) */\n      swap1\n      pop\n        /* \"myContract.sol\":1447:1465  uint allowanceWETH */\n      0x00\n        /* \"myContract.sol\":1475:1477  pa */\n      dup2\n        /* \"myContract.sol\":1468:1488  IERC20(pa).allowance */\n      0xffffffffffffffffffffffffffffffffffffffff\n      and\n      0xdd62ed3e\n        /* \"myContract.sol\":334:376  0x39B48918530Ee063BF83728e9acbA694d27776F5 */\n      0x39b48918530ee063bf83728e9acba694d27776f5\n        /* \"myContract.sol\":1497:1499  ra */\n      dup6\n        /* \"myContract.sol\":1468:1500  IERC20(pa).allowance(wallet, ra) */\n      mload(0x40)\n      dup4\n      0xffffffff\n      and\n      0xe0\n      shl\n      dup2\n      mstore\n      0x04\n      add\n      tag_130\n      swap3\n      swap2\n      swap1\n      tag_131\n      jump\t// in\n    tag_130:\n      0x20\n      mload(0x40)\n      dup1\n      dup4\n      sub\n      dup2\n      dup7\n      dup1\n      extcodesize\n      iszero\n      dup1\n      iszero\n      tag_132\n      jumpi\n      0x00\n      dup1\n      revert\n    tag_132:\n      pop\n      gas\n      staticcall\n      iszero\n      dup1\n      iszero\n      tag_134\n      jumpi\n      returndatasize\n      0x00\n      dup1\n      returndatacopy\n      revert(0x00, returndatasize)\n    tag_134:\n      pop\n      pop\n      pop\n      pop\n      mload(0x40)\n      returndatasize\n      not(0x1f)\n      0x1f\n      dup3\n      add\n      and\n      dup3\n      add\n      dup1\n      0x40\n      mstore\n      pop\n      dup2\n      add\n      swap1\n      tag_135\n      swap2\n      swap1\n      tag_61\n      jump\t// in\n    tag_135:\n        /* \"myContract.sol\":1447:1500  uint allowanceWETH = IERC20(pa).allowance(wallet, ra) */\n      swap1\n      pop\n        /* \"myContract.sol\":1506:1525  address payable pa2 */\n      0x00\n        /* \"myContract.sol\":493:535  0x7d30a8FB291F8507f9d0eE601336Cec132d97dD0 */\n      0x7d30a8fb291f8507f9d0ee601336cec132d97dd0\n        /* \"myContract.sol\":1506:1554  address payable pa2 = address(uint160(leoToken)) */\n      swap1\n      pop\n        /* \"myContract.sol\":1560:1577  uint allowanceLeo */\n      0x00\n        /* \"myContract.sol\":1587:1590  pa2 */\n      dup2\n        /* \"myContract.sol\":1580:1601  IERC20(pa2).allowance */\n      0xffffffffffffffffffffffffffffffffffffffff\n      and\n      0xdd62ed3e\n        /* \"myContract.sol\":334:376  0x39B48918530Ee063BF83728e9acbA694d27776F5 */\n      0x39b48918530ee063bf83728e9acba694d27776f5\n        /* \"myContract.sol\":1610:1612  ra */\n      dup8\n        /* \"myContract.sol\":1580:1613  IERC20(pa2).allowance(wallet, ra) */\n      mload(0x40)\n      dup4\n      0xffffffff\n      and\n      0xe0\n      shl\n      dup2\n      mstore\n      0x04\n      add\n      tag_136\n      swap3\n      swap2\n      swap1\n      tag_131\n      jump\t// in\n    tag_136:\n      0x20\n      mload(0x40)\n      dup1\n      dup4\n      sub\n      dup2\n      dup7\n      dup1\n      extcodesize\n      iszero\n      dup1\n      iszero\n      tag_137\n      jumpi\n      0x00\n      dup1\n      revert\n    tag_137:\n      pop\n      gas\n      staticcall\n      iszero\n      dup1\n      iszero\n      tag_139\n      jumpi\n      returndatasize\n      0x00\n      dup1\n      returndatacopy\n      revert(0x00, returndatasize)\n    tag_139:\n      pop\n      pop\n      pop\n      pop\n      mload(0x40)\n      returndatasize\n      not(0x1f)\n      0x1f\n      dup3\n      add\n      and\n      dup3\n      add\n      dup1\n      0x40\n      mstore\n      pop\n      dup2\n      add\n      swap1\n      tag_140\n      swap2\n      swap1\n      tag_61\n      jump\t// in\n    tag_140:\n        /* \"myContract.sol\":1560:1613  uint allowanceLeo = IERC20(pa2).allowance(wallet, ra) */\n      swap1\n      pop\n        /* \"myContract.sol\":1619:1638  address payable pa3 */\n      0x00\n        /* \"myContract.sol\":575:617  0xDeD39E717E29f2f7d1C9Ac73B9BB067fC202B2B4 */\n      0xded39e717e29f2f7d1c9ac73b9bb067fc202b2b4\n        /* \"myContract.sol\":1619:1668  address payable pa3 = address(uint160(defiToken)) */\n      swap1\n      pop\n        /* \"myContract.sol\":1674:1692  uint allowanceDefi */\n      0x00\n        /* \"myContract.sol\":1702:1705  pa3 */\n      dup2\n        /* \"myContract.sol\":1695:1716  IERC20(pa3).allowance */\n      0xffffffffffffffffffffffffffffffffffffffff\n      and\n      0xdd62ed3e\n        /* \"myContract.sol\":334:376  0x39B48918530Ee063BF83728e9acbA694d27776F5 */\n      0x39b48918530ee063bf83728e9acba694d27776f5\n        /* \"myContract.sol\":1725:1727  ra */\n      dup10\n        /* \"myContract.sol\":1695:1728  IERC20(pa3).allowance(wallet, ra) */\n      mload(0x40)\n      dup4\n      0xffffffff\n      and\n      0xe0\n      shl\n      dup2\n      mstore\n      0x04\n      add\n      tag_141\n      swap3\n      swap2\n      swap1\n      tag_131\n      jump\t// in\n    tag_141:\n      0x20\n      mload(0x40)\n      dup1\n      dup4\n      sub\n      dup2\n      dup7\n      dup1\n      extcodesize\n      iszero\n      dup1\n      iszero\n      tag_142\n      jumpi\n      0x00\n      dup1\n      revert\n    tag_142:\n      pop\n      gas\n      staticcall\n      iszero\n      dup1\n      iszero\n      tag_144\n      jumpi\n      returndatasize\n      0x00\n      dup1\n      returndatacopy\n      revert(0x00, returndatasize)\n    tag_144:\n      pop\n      pop\n      pop\n      pop\n      mload(0x40)\n      returndatasize\n      not(0x1f)\n      0x1f\n      dup3\n      add\n      and\n      dup3\n      add\n      dup1\n      0x40\n      mstore\n      pop\n      dup2\n      add\n      swap1\n      tag_145\n      swap2\n      swap1\n      tag_61\n      jump\t// in\n    tag_145:\n        /* \"myContract.sol\":1674:1728  uint allowanceDefi = IERC20(pa3).allowance(wallet, ra) */\n      swap1\n      pop\n        /* \"myContract.sol\":1770:1783  allowanceWETH */\n      dup5\n        /* \"myContract.sol\":1784:1796  allowanceLeo */\n      dup4\n        /* \"myContract.sol\":1797:1810  allowanceDefi */\n      dup3\n        /* \"myContract.sol\":1734:1811  return (\"allowance WETH, Leo, DeFi\",allowanceWETH,allowanceLeo,allowanceDefi) */\n      mload(0x40)\n      dup1\n      0x40\n      add\n      0x40\n      mstore\n      dup1\n      0x19\n      dup2\n      mstore\n      0x20\n      add\n      0x616c6c6f77616e636520574554482c204c656f2c204465466900000000000000\n      dup2\n      mstore\n      pop\n      swap3\n      swap2\n      swap1\n      swap11\n      pop\n      swap11\n      pop\n      swap11\n      pop\n      swap11\n      pop\n      pop\n      pop\n      pop\n      pop\n      pop\n      pop\n      pop\n        /* \"myContract.sol\":1259:1816  function getRouterAllowances() public view returns (string memory,uint,uint,uint) {... */\n      swap1\n      swap2\n      swap3\n      swap4\n      jump\t// out\n        /* \"myContract.sol\":781:861  address public constant pairWETHLeo = 0xC5a8EA7102Db001850f433CcFd4aBdd7D566Bda6 */\n    tag_44:\n        /* \"myContract.sol\":819:861  0xC5a8EA7102Db001850f433CcFd4aBdd7D566Bda6 */\n      0xc5a8ea7102db001850f433ccfd4abdd7d566bda6\n        /* \"myContract.sol\":781:861  address public constant pairWETHLeo = 0xC5a8EA7102Db001850f433CcFd4aBdd7D566Bda6 */\n      dup2\n      jump\t// out\n        /* \"myContract.sol\":700:776  address public constant factory = 0x36C859726f1D72EBC32cA61B7Dc6A3092b416b66 */\n    tag_47:\n        /* \"myContract.sol\":734:776  0x36C859726f1D72EBC32cA61B7Dc6A3092b416b66 */\n      0x36c859726f1d72ebc32ca61b7dc6a3092b416b66\n        /* \"myContract.sol\":700:776  address public constant factory = 0x36C859726f1D72EBC32cA61B7Dc6A3092b416b66 */\n      dup2\n      jump\t// out\n        /* \"myContract.sol\":539:617  address public constant defiToken = 0xDeD39E717E29f2f7d1C9Ac73B9BB067fC202B2B4 */\n    tag_50:\n        /* \"myContract.sol\":575:617  0xDeD39E717E29f2f7d1C9Ac73B9BB067fC202B2B4 */\n      0xded39e717e29f2f7d1c9ac73b9bb067fc202b2b4\n        /* \"myContract.sol\":539:617  address public constant defiToken = 0xDeD39E717E29f2f7d1C9Ac73B9BB067fC202B2B4 */\n      dup2\n      jump\t// out\n        /* \"myContract.sol\":621:696  address public constant router = 0x3141e4602Fd9B3b08029816D0C09ab177Fdc9dFA */\n    tag_53:\n        /* \"myContract.sol\":654:696  0x3141e4602Fd9B3b08029816D0C09ab177Fdc9dFA */\n      0x3141e4602fd9b3b08029816d0c09ab177fdc9dfa\n        /* \"myContract.sol\":621:696  address public constant router = 0x3141e4602Fd9B3b08029816D0C09ab177Fdc9dFA */\n      dup2\n      jump\t// out\n        /* \"--CODEGEN--\":5:135   */\n    tag_147:\n      0x00\n        /* \"--CODEGEN--\":85:91   */\n      dup2\n        /* \"--CODEGEN--\":72:92   */\n      calldataload\n        /* \"--CODEGEN--\":63:92   */\n      swap1\n      pop\n        /* \"--CODEGEN--\":97:130   */\n      tag_149\n        /* \"--CODEGEN--\":124:129   */\n      dup2\n        /* \"--CODEGEN--\":97:130   */\n      tag_150\n      jump\t// in\n    tag_149:\n        /* \"--CODEGEN--\":57:135   */\n      swap3\n      swap2\n      pop\n      pop\n      jump\t// out\n        /* \"--CODEGEN--\":142:276   */\n    tag_151:\n      0x00\n        /* \"--CODEGEN--\":226:232   */\n      dup2\n        /* \"--CODEGEN--\":220:233   */\n      mload\n        /* \"--CODEGEN--\":211:233   */\n      swap1\n      pop\n        /* \"--CODEGEN--\":238:271   */\n      tag_153\n        /* \"--CODEGEN--\":265:270   */\n      dup2\n        /* \"--CODEGEN--\":238:271   */\n      tag_150\n      jump\t// in\n    tag_153:\n        /* \"--CODEGEN--\":205:276   */\n      swap3\n      swap2\n      pop\n      pop\n      jump\t// out\n        /* \"--CODEGEN--\":284:728   */\n    tag_154:\n      0x00\n        /* \"--CODEGEN--\":397:400   */\n      dup3\n        /* \"--CODEGEN--\":390:394   */\n      0x1f\n        /* \"--CODEGEN--\":382:388   */\n      dup4\n        /* \"--CODEGEN--\":378:395   */\n      add\n        /* \"--CODEGEN--\":374:401   */\n      slt\n        /* \"--CODEGEN--\":364:366   */\n      tag_156\n      jumpi\n        /* \"--CODEGEN--\":415:416   */\n      0x00\n        /* \"--CODEGEN--\":412:413   */\n      dup1\n        /* \"--CODEGEN--\":405:417   */\n      revert\n        /* \"--CODEGEN--\":364:366   */\n    tag_156:\n        /* \"--CODEGEN--\":445:451   */\n      dup2\n        /* \"--CODEGEN--\":439:452   */\n      mload\n        /* \"--CODEGEN--\":467:532   */\n      tag_157\n        /* \"--CODEGEN--\":482:531   */\n      tag_158\n        /* \"--CODEGEN--\":524:530   */\n      dup3\n        /* \"--CODEGEN--\":482:531   */\n      tag_159\n      jump\t// in\n    tag_158:\n        /* \"--CODEGEN--\":467:532   */\n      tag_160\n      jump\t// in\n    tag_157:\n        /* \"--CODEGEN--\":458:532   */\n      swap2\n      pop\n        /* \"--CODEGEN--\":552:558   */\n      dup1\n        /* \"--CODEGEN--\":545:550   */\n      dup3\n        /* \"--CODEGEN--\":538:559   */\n      mstore\n        /* \"--CODEGEN--\":588:592   */\n      0x20\n        /* \"--CODEGEN--\":580:586   */\n      dup4\n        /* \"--CODEGEN--\":576:593   */\n      add\n        /* \"--CODEGEN--\":621:625   */\n      0x20\n        /* \"--CODEGEN--\":614:619   */\n      dup4\n        /* \"--CODEGEN--\":610:626   */\n      add\n        /* \"--CODEGEN--\":656:659   */\n      dup6\n        /* \"--CODEGEN--\":647:653   */\n      dup4\n        /* \"--CODEGEN--\":642:645   */\n      dup4\n        /* \"--CODEGEN--\":638:654   */\n      add\n        /* \"--CODEGEN--\":635:660   */\n      gt\n        /* \"--CODEGEN--\":632:634   */\n      iszero\n      tag_161\n      jumpi\n        /* \"--CODEGEN--\":673:674   */\n      0x00\n        /* \"--CODEGEN--\":670:671   */\n      dup1\n        /* \"--CODEGEN--\":663:675   */\n      revert\n        /* \"--CODEGEN--\":632:634   */\n    tag_161:\n        /* \"--CODEGEN--\":683:722   */\n      tag_162\n        /* \"--CODEGEN--\":715:721   */\n      dup4\n        /* \"--CODEGEN--\":710:713   */\n      dup3\n        /* \"--CODEGEN--\":705:708   */\n      dup5\n        /* \"--CODEGEN--\":683:722   */\n      tag_163\n      jump\t// in\n    tag_162:\n        /* \"--CODEGEN--\":357:728   */\n      pop\n      pop\n      pop\n      swap3\n      swap2\n      pop\n      pop\n      jump\t// out\n        /* \"--CODEGEN--\":736:870   */\n    tag_164:\n      0x00\n        /* \"--CODEGEN--\":820:826   */\n      dup2\n        /* \"--CODEGEN--\":814:827   */\n      mload\n        /* \"--CODEGEN--\":805:827   */\n      swap1\n      pop\n        /* \"--CODEGEN--\":832:865   */\n      tag_166\n        /* \"--CODEGEN--\":859:864   */\n      dup2\n        /* \"--CODEGEN--\":832:865   */\n      tag_167\n      jump\t// in\n    tag_166:\n        /* \"--CODEGEN--\":799:870   */\n      swap3\n      swap2\n      pop\n      pop\n      jump\t// out\n        /* \"--CODEGEN--\":877:1011   */\n    tag_168:\n      0x00\n        /* \"--CODEGEN--\":961:967   */\n      dup2\n        /* \"--CODEGEN--\":955:968   */\n      mload\n        /* \"--CODEGEN--\":946:968   */\n      swap1\n      pop\n        /* \"--CODEGEN--\":973:1006   */\n      tag_170\n        /* \"--CODEGEN--\":1000:1005   */\n      dup2\n        /* \"--CODEGEN--\":973:1006   */\n      tag_171\n      jump\t// in\n    tag_170:\n        /* \"--CODEGEN--\":940:1011   */\n      swap3\n      swap2\n      pop\n      pop\n      jump\t// out\n        /* \"--CODEGEN--\":1018:1150   */\n    tag_172:\n      0x00\n        /* \"--CODEGEN--\":1101:1107   */\n      dup2\n        /* \"--CODEGEN--\":1095:1108   */\n      mload\n        /* \"--CODEGEN--\":1086:1108   */\n      swap1\n      pop\n        /* \"--CODEGEN--\":1113:1145   */\n      tag_174\n        /* \"--CODEGEN--\":1139:1144   */\n      dup2\n        /* \"--CODEGEN--\":1113:1145   */\n      tag_175\n      jump\t// in\n    tag_174:\n        /* \"--CODEGEN--\":1080:1150   */\n      swap3\n      swap2\n      pop\n      pop\n      jump\t// out\n        /* \"--CODEGEN--\":1157:1398   */\n    tag_28:\n      0x00\n        /* \"--CODEGEN--\":1261:1263   */\n      0x20\n        /* \"--CODEGEN--\":1249:1258   */\n      dup3\n        /* \"--CODEGEN--\":1240:1247   */\n      dup5\n        /* \"--CODEGEN--\":1236:1259   */\n      sub\n        /* \"--CODEGEN--\":1232:1264   */\n      slt\n        /* \"--CODEGEN--\":1229:1231   */\n      iszero\n      tag_177\n      jumpi\n        /* \"--CODEGEN--\":1277:1278   */\n      0x00\n        /* \"--CODEGEN--\":1274:1275   */\n      dup1\n        /* \"--CODEGEN--\":1267:1279   */\n      revert\n        /* \"--CODEGEN--\":1229:1231   */\n    tag_177:\n        /* \"--CODEGEN--\":1312:1313   */\n      0x00\n        /* \"--CODEGEN--\":1329:1382   */\n      tag_178\n        /* \"--CODEGEN--\":1374:1381   */\n      dup5\n        /* \"--CODEGEN--\":1365:1371   */\n      dup3\n        /* \"--CODEGEN--\":1354:1363   */\n      dup6\n        /* \"--CODEGEN--\":1350:1372   */\n      add\n        /* \"--CODEGEN--\":1329:1382   */\n      tag_147\n      jump\t// in\n    tag_178:\n        /* \"--CODEGEN--\":1319:1382   */\n      swap2\n      pop\n        /* \"--CODEGEN--\":1291:1388   */\n      pop\n        /* \"--CODEGEN--\":1223:1398   */\n      swap3\n      swap2\n      pop\n      pop\n      jump\t// out\n        /* \"--CODEGEN--\":1405:1668   */\n    tag_82:\n      0x00\n        /* \"--CODEGEN--\":1520:1522   */\n      0x20\n        /* \"--CODEGEN--\":1508:1517   */\n      dup3\n        /* \"--CODEGEN--\":1499:1506   */\n      dup5\n        /* \"--CODEGEN--\":1495:1518   */\n      sub\n        /* \"--CODEGEN--\":1491:1523   */\n      slt\n        /* \"--CODEGEN--\":1488:1490   */\n      iszero\n      tag_180\n      jumpi\n        /* \"--CODEGEN--\":1536:1537   */\n      0x00\n        /* \"--CODEGEN--\":1533:1534   */\n      dup1\n        /* \"--CODEGEN--\":1526:1538   */\n      revert\n        /* \"--CODEGEN--\":1488:1490   */\n    tag_180:\n        /* \"--CODEGEN--\":1571:1572   */\n      0x00\n        /* \"--CODEGEN--\":1588:1652   */\n      tag_181\n        /* \"--CODEGEN--\":1644:1651   */\n      dup5\n        /* \"--CODEGEN--\":1635:1641   */\n      dup3\n        /* \"--CODEGEN--\":1624:1633   */\n      dup6\n        /* \"--CODEGEN--\":1620:1642   */\n      add\n        /* \"--CODEGEN--\":1588:1652   */\n      tag_151\n      jump\t// in\n    tag_181:\n        /* \"--CODEGEN--\":1578:1652   */\n      swap2\n      pop\n        /* \"--CODEGEN--\":1550:1658   */\n      pop\n        /* \"--CODEGEN--\":1482:1668   */\n      swap3\n      swap2\n      pop\n      pop\n      jump\t// out\n        /* \"--CODEGEN--\":1675:2037   */\n    tag_87:\n      0x00\n        /* \"--CODEGEN--\":1800:1802   */\n      0x20\n        /* \"--CODEGEN--\":1788:1797   */\n      dup3\n        /* \"--CODEGEN--\":1779:1786   */\n      dup5\n        /* \"--CODEGEN--\":1775:1798   */\n      sub\n        /* \"--CODEGEN--\":1771:1803   */\n      slt\n        /* \"--CODEGEN--\":1768:1770   */\n      iszero\n      tag_183\n      jumpi\n        /* \"--CODEGEN--\":1816:1817   */\n      0x00\n        /* \"--CODEGEN--\":1813:1814   */\n      dup1\n        /* \"--CODEGEN--\":1806:1818   */\n      revert\n        /* \"--CODEGEN--\":1768:1770   */\n    tag_183:\n        /* \"--CODEGEN--\":1872:1873   */\n      0x00\n        /* \"--CODEGEN--\":1861:1870   */\n      dup3\n        /* \"--CODEGEN--\":1857:1874   */\n      add\n        /* \"--CODEGEN--\":1851:1875   */\n      mload\n        /* \"--CODEGEN--\":1895:1913   */\n      0xffffffffffffffff\n        /* \"--CODEGEN--\":1887:1893   */\n      dup2\n        /* \"--CODEGEN--\":1884:1914   */\n      gt\n        /* \"--CODEGEN--\":1881:1883   */\n      iszero\n      tag_184\n      jumpi\n        /* \"--CODEGEN--\":1927:1928   */\n      0x00\n        /* \"--CODEGEN--\":1924:1925   */\n      dup1\n        /* \"--CODEGEN--\":1917:1929   */\n      revert\n        /* \"--CODEGEN--\":1881:1883   */\n    tag_184:\n        /* \"--CODEGEN--\":1947:2021   */\n      tag_185\n        /* \"--CODEGEN--\":2013:2020   */\n      dup5\n        /* \"--CODEGEN--\":2004:2010   */\n      dup3\n        /* \"--CODEGEN--\":1993:2002   */\n      dup6\n        /* \"--CODEGEN--\":1989:2011   */\n      add\n        /* \"--CODEGEN--\":1947:2021   */\n      tag_154\n      jump\t// in\n    tag_185:\n        /* \"--CODEGEN--\":1937:2021   */\n      swap2\n      pop\n        /* \"--CODEGEN--\":1830:2027   */\n      pop\n        /* \"--CODEGEN--\":1762:2037   */\n      swap3\n      swap2\n      pop\n      pop\n      jump\t// out\n        /* \"--CODEGEN--\":2044:2577   */\n    tag_77:\n      0x00\n      dup1\n      0x00\n        /* \"--CODEGEN--\":2192:2194   */\n      0x60\n        /* \"--CODEGEN--\":2180:2189   */\n      dup5\n        /* \"--CODEGEN--\":2171:2178   */\n      dup7\n        /* \"--CODEGEN--\":2167:2190   */\n      sub\n        /* \"--CODEGEN--\":2163:2195   */\n      slt\n        /* \"--CODEGEN--\":2160:2162   */\n      iszero\n      tag_187\n      jumpi\n        /* \"--CODEGEN--\":2208:2209   */\n      0x00\n        /* \"--CODEGEN--\":2205:2206   */\n      dup1\n        /* \"--CODEGEN--\":2198:2210   */\n      revert\n        /* \"--CODEGEN--\":2160:2162   */\n    tag_187:\n        /* \"--CODEGEN--\":2243:2244   */\n      0x00\n        /* \"--CODEGEN--\":2260:2324   */\n      tag_188\n        /* \"--CODEGEN--\":2316:2323   */\n      dup7\n        /* \"--CODEGEN--\":2307:2313   */\n      dup3\n        /* \"--CODEGEN--\":2296:2305   */\n      dup8\n        /* \"--CODEGEN--\":2292:2314   */\n      add\n        /* \"--CODEGEN--\":2260:2324   */\n      tag_164\n      jump\t// in\n    tag_188:\n        /* \"--CODEGEN--\":2250:2324   */\n      swap4\n      pop\n        /* \"--CODEGEN--\":2222:2330   */\n      pop\n        /* \"--CODEGEN--\":2361:2363   */\n      0x20\n        /* \"--CODEGEN--\":2379:2443   */\n      tag_189\n        /* \"--CODEGEN--\":2435:2442   */\n      dup7\n        /* \"--CODEGEN--\":2426:2432   */\n      dup3\n        /* \"--CODEGEN--\":2415:2424   */\n      dup8\n        /* \"--CODEGEN--\":2411:2433   */\n      add\n        /* \"--CODEGEN--\":2379:2443   */\n      tag_164\n      jump\t// in\n    tag_189:\n        /* \"--CODEGEN--\":2369:2443   */\n      swap3\n      pop\n        /* \"--CODEGEN--\":2340:2449   */\n      pop\n        /* \"--CODEGEN--\":2480:2482   */\n      0x40\n        /* \"--CODEGEN--\":2498:2561   */\n      tag_190\n        /* \"--CODEGEN--\":2553:2560   */\n      dup7\n        /* \"--CODEGEN--\":2544:2550   */\n      dup3\n        /* \"--CODEGEN--\":2533:2542   */\n      dup8\n        /* \"--CODEGEN--\":2529:2551   */\n      add\n        /* \"--CODEGEN--\":2498:2561   */\n      tag_172\n      jump\t// in\n    tag_190:\n        /* \"--CODEGEN--\":2488:2561   */\n      swap2\n      pop\n        /* \"--CODEGEN--\":2459:2567   */\n      pop\n        /* \"--CODEGEN--\":2154:2577   */\n      swap3\n      pop\n      swap3\n      pop\n      swap3\n      jump\t// out\n        /* \"--CODEGEN--\":2584:2847   */\n    tag_61:\n      0x00\n        /* \"--CODEGEN--\":2699:2701   */\n      0x20\n        /* \"--CODEGEN--\":2687:2696   */\n      dup3\n        /* \"--CODEGEN--\":2678:2685   */\n      dup5\n        /* \"--CODEGEN--\":2674:2697   */\n      sub\n        /* \"--CODEGEN--\":2670:2702   */\n      slt\n        /* \"--CODEGEN--\":2667:2669   */\n      iszero\n      tag_192\n      jumpi\n        /* \"--CODEGEN--\":2715:2716   */\n      0x00\n        /* \"--CODEGEN--\":2712:2713   */\n      dup1\n        /* \"--CODEGEN--\":2705:2717   */\n      revert\n        /* \"--CODEGEN--\":2667:2669   */\n    tag_192:\n        /* \"--CODEGEN--\":2750:2751   */\n      0x00\n        /* \"--CODEGEN--\":2767:2831   */\n      tag_193\n        /* \"--CODEGEN--\":2823:2830   */\n      dup5\n        /* \"--CODEGEN--\":2814:2820   */\n      dup3\n        /* \"--CODEGEN--\":2803:2812   */\n      dup6\n        /* \"--CODEGEN--\":2799:2821   */\n      add\n        /* \"--CODEGEN--\":2767:2831   */\n      tag_168\n      jump\t// in\n    tag_193:\n        /* \"--CODEGEN--\":2757:2831   */\n      swap2\n      pop\n        /* \"--CODEGEN--\":2729:2837   */\n      pop\n        /* \"--CODEGEN--\":2661:2847   */\n      swap3\n      swap2\n      pop\n      pop\n      jump\t// out\n        /* \"--CODEGEN--\":2855:3048   */\n    tag_194:\n      0x00\n        /* \"--CODEGEN--\":2976:3042   */\n      tag_196\n        /* \"--CODEGEN--\":3038:3041   */\n      dup4\n        /* \"--CODEGEN--\":3030:3036   */\n      dup4\n        /* \"--CODEGEN--\":2976:3042   */\n      tag_197\n      jump\t// in\n    tag_196:\n        /* \"--CODEGEN--\":2962:3042   */\n      swap1\n      pop\n        /* \"--CODEGEN--\":2955:3048   */\n      swap3\n      swap2\n      pop\n      pop\n      jump\t// out\n        /* \"--CODEGEN--\":3057:3230   */\n    tag_198:\n      0x00\n        /* \"--CODEGEN--\":3144:3190   */\n      tag_200\n        /* \"--CODEGEN--\":3186:3189   */\n      dup4\n        /* \"--CODEGEN--\":3178:3184   */\n      dup4\n        /* \"--CODEGEN--\":3144:3190   */\n      tag_201\n      jump\t// in\n    tag_200:\n        /* \"--CODEGEN--\":3219:3223   */\n      0x20\n        /* \"--CODEGEN--\":3214:3217   */\n      dup4\n        /* \"--CODEGEN--\":3210:3224   */\n      add\n        /* \"--CODEGEN--\":3196:3224   */\n      swap1\n      pop\n        /* \"--CODEGEN--\":3137:3230   */\n      swap3\n      swap2\n      pop\n      pop\n      jump\t// out\n        /* \"--CODEGEN--\":3238:3380   */\n    tag_202:\n        /* \"--CODEGEN--\":3329:3374   */\n      tag_204\n        /* \"--CODEGEN--\":3368:3373   */\n      dup2\n        /* \"--CODEGEN--\":3329:3374   */\n      tag_205\n      jump\t// in\n    tag_204:\n        /* \"--CODEGEN--\":3324:3327   */\n      dup3\n        /* \"--CODEGEN--\":3317:3375   */\n      mstore\n        /* \"--CODEGEN--\":3311:3380   */\n      pop\n      pop\n      jump\t// out\n        /* \"--CODEGEN--\":3387:3500   */\n    tag_206:\n        /* \"--CODEGEN--\":3470:3494   */\n      tag_208\n        /* \"--CODEGEN--\":3488:3493   */\n      dup2\n        /* \"--CODEGEN--\":3470:3494   */\n      tag_209\n      jump\t// in\n    tag_208:\n        /* \"--CODEGEN--\":3465:3468   */\n      dup3\n        /* \"--CODEGEN--\":3458:3495   */\n      mstore\n        /* \"--CODEGEN--\":3452:3500   */\n      pop\n      pop\n      jump\t// out\n        /* \"--CODEGEN--\":3536:4464   */\n    tag_210:\n      0x00\n        /* \"--CODEGEN--\":3701:3765   */\n      tag_212\n        /* \"--CODEGEN--\":3759:3764   */\n      dup3\n        /* \"--CODEGEN--\":3701:3765   */\n      tag_213\n      jump\t// in\n    tag_212:\n        /* \"--CODEGEN--\":3778:3874   */\n      tag_214\n        /* \"--CODEGEN--\":3867:3873   */\n      dup2\n        /* \"--CODEGEN--\":3862:3865   */\n      dup6\n        /* \"--CODEGEN--\":3778:3874   */\n      tag_215\n      jump\t// in\n    tag_214:\n        /* \"--CODEGEN--\":3771:3874   */\n      swap4\n      pop\n        /* \"--CODEGEN--\":3897:3900   */\n      dup4\n        /* \"--CODEGEN--\":3939:3943   */\n      0x20\n        /* \"--CODEGEN--\":3931:3937   */\n      dup3\n        /* \"--CODEGEN--\":3927:3944   */\n      mul\n        /* \"--CODEGEN--\":3922:3925   */\n      dup6\n        /* \"--CODEGEN--\":3918:3945   */\n      add\n        /* \"--CODEGEN--\":3966:4032   */\n      tag_216\n        /* \"--CODEGEN--\":4026:4031   */\n      dup6\n        /* \"--CODEGEN--\":3966:4032   */\n      tag_217\n      jump\t// in\n    tag_216:\n        /* \"--CODEGEN--\":4052:4059   */\n      dup1\n        /* \"--CODEGEN--\":4080:4081   */\n      0x00\n        /* \"--CODEGEN--\":4065:4425   */\n    tag_218:\n        /* \"--CODEGEN--\":4090:4096   */\n      dup6\n        /* \"--CODEGEN--\":4087:4088   */\n      dup2\n        /* \"--CODEGEN--\":4084:4097   */\n      lt\n        /* \"--CODEGEN--\":4065:4425   */\n      iszero\n      tag_220\n      jumpi\n        /* \"--CODEGEN--\":4152:4161   */\n      dup5\n        /* \"--CODEGEN--\":4146:4150   */\n      dup5\n        /* \"--CODEGEN--\":4142:4162   */\n      sub\n        /* \"--CODEGEN--\":4137:4140   */\n      dup10\n        /* \"--CODEGEN--\":4130:4163   */\n      mstore\n        /* \"--CODEGEN--\":4197:4203   */\n      dup2\n        /* \"--CODEGEN--\":4191:4204   */\n      mload\n        /* \"--CODEGEN--\":4219:4303   */\n      tag_221\n        /* \"--CODEGEN--\":4298:4302   */\n      dup6\n        /* \"--CODEGEN--\":4283:4296   */\n      dup3\n        /* \"--CODEGEN--\":4219:4303   */\n      tag_194\n      jump\t// in\n    tag_221:\n        /* \"--CODEGEN--\":4211:4303   */\n      swap5\n      pop\n        /* \"--CODEGEN--\":4320:4390   */\n      tag_222\n        /* \"--CODEGEN--\":4383:4389   */\n      dup4\n        /* \"--CODEGEN--\":4320:4390   */\n      tag_223\n      jump\t// in\n    tag_222:\n        /* \"--CODEGEN--\":4310:4390   */\n      swap3\n      pop\n        /* \"--CODEGEN--\":4413:4417   */\n      0x20\n        /* \"--CODEGEN--\":4408:4411   */\n      dup11\n        /* \"--CODEGEN--\":4404:4418   */\n      add\n        /* \"--CODEGEN--\":4397:4418   */\n      swap10\n      pop\n        /* \"--CODEGEN--\":4122:4425   */\n      pop\n        /* \"--CODEGEN--\":4112:4113   */\n      0x01\n        /* \"--CODEGEN--\":4109:4110   */\n      dup2\n        /* \"--CODEGEN--\":4105:4114   */\n      add\n        /* \"--CODEGEN--\":4100:4114   */\n      swap1\n      pop\n        /* \"--CODEGEN--\":4065:4425   */\n      jump(tag_218)\n    tag_220:\n        /* \"--CODEGEN--\":4069:4083   */\n      pop\n        /* \"--CODEGEN--\":4438:4442   */\n      dup3\n        /* \"--CODEGEN--\":4431:4442   */\n      swap8\n      pop\n        /* \"--CODEGEN--\":4455:4458   */\n      dup8\n        /* \"--CODEGEN--\":4448:4458   */\n      swap6\n      pop\n        /* \"--CODEGEN--\":3680:4464   */\n      pop\n      pop\n      pop\n      pop\n      pop\n      swap3\n      swap2\n      pop\n      pop\n      jump\t// out\n        /* \"--CODEGEN--\":4503:5193   */\n    tag_224:\n      0x00\n        /* \"--CODEGEN--\":4648:4702   */\n      tag_226\n        /* \"--CODEGEN--\":4696:4701   */\n      dup3\n        /* \"--CODEGEN--\":4648:4702   */\n      tag_227\n      jump\t// in\n    tag_226:\n        /* \"--CODEGEN--\":4715:4801   */\n      tag_228\n        /* \"--CODEGEN--\":4794:4800   */\n      dup2\n        /* \"--CODEGEN--\":4789:4792   */\n      dup6\n        /* \"--CODEGEN--\":4715:4801   */\n      tag_229\n      jump\t// in\n    tag_228:\n        /* \"--CODEGEN--\":4708:4801   */\n      swap4\n      pop\n        /* \"--CODEGEN--\":4822:4878   */\n      tag_230\n        /* \"--CODEGEN--\":4872:4877   */\n      dup4\n        /* \"--CODEGEN--\":4822:4878   */\n      tag_231\n      jump\t// in\n    tag_230:\n        /* \"--CODEGEN--\":4898:4905   */\n      dup1\n        /* \"--CODEGEN--\":4926:4927   */\n      0x00\n        /* \"--CODEGEN--\":4911:5171   */\n    tag_232:\n        /* \"--CODEGEN--\":4936:4942   */\n      dup4\n        /* \"--CODEGEN--\":4933:4934   */\n      dup2\n        /* \"--CODEGEN--\":4930:4943   */\n      lt\n        /* \"--CODEGEN--\":4911:5171   */\n      iszero\n      tag_234\n      jumpi\n        /* \"--CODEGEN--\":5003:5009   */\n      dup2\n        /* \"--CODEGEN--\":4997:5010   */\n      mload\n        /* \"--CODEGEN--\":5024:5087   */\n      tag_235\n        /* \"--CODEGEN--\":5083:5086   */\n      dup9\n        /* \"--CODEGEN--\":5068:5081   */\n      dup3\n        /* \"--CODEGEN--\":5024:5087   */\n      tag_198\n      jump\t// in\n    tag_235:\n        /* \"--CODEGEN--\":5017:5087   */\n      swap8\n      pop\n        /* \"--CODEGEN--\":5104:5164   */\n      tag_236\n        /* \"--CODEGEN--\":5157:5163   */\n      dup4\n        /* \"--CODEGEN--\":5104:5164   */\n      tag_237\n      jump\t// in\n    tag_236:\n        /* \"--CODEGEN--\":5094:5164   */\n      swap3\n      pop\n        /* \"--CODEGEN--\":4968:5171   */\n      pop\n        /* \"--CODEGEN--\":4958:4959   */\n      0x01\n        /* \"--CODEGEN--\":4955:4956   */\n      dup2\n        /* \"--CODEGEN--\":4951:4960   */\n      add\n        /* \"--CODEGEN--\":4946:4960   */\n      swap1\n      pop\n        /* \"--CODEGEN--\":4911:5171   */\n      jump(tag_232)\n    tag_234:\n        /* \"--CODEGEN--\":4915:4929   */\n      pop\n        /* \"--CODEGEN--\":5184:5187   */\n      dup6\n        /* \"--CODEGEN--\":5177:5187   */\n      swap4\n      pop\n        /* \"--CODEGEN--\":4627:5193   */\n      pop\n      pop\n      pop\n      swap3\n      swap2\n      pop\n      pop\n      jump\t// out\n        /* \"--CODEGEN--\":5201:5528   */\n    tag_197:\n      0x00\n        /* \"--CODEGEN--\":5303:5342   */\n      tag_239\n        /* \"--CODEGEN--\":5336:5341   */\n      dup3\n        /* \"--CODEGEN--\":5303:5342   */\n      tag_240\n      jump\t// in\n    tag_239:\n        /* \"--CODEGEN--\":5354:5415   */\n      tag_241\n        /* \"--CODEGEN--\":5408:5414   */\n      dup2\n        /* \"--CODEGEN--\":5403:5406   */\n      dup6\n        /* \"--CODEGEN--\":5354:5415   */\n      tag_242\n      jump\t// in\n    tag_241:\n        /* \"--CODEGEN--\":5347:5415   */\n      swap4\n      pop\n        /* \"--CODEGEN--\":5420:5472   */\n      tag_243\n        /* \"--CODEGEN--\":5465:5471   */\n      dup2\n        /* \"--CODEGEN--\":5460:5463   */\n      dup6\n        /* \"--CODEGEN--\":5453:5457   */\n      0x20\n        /* \"--CODEGEN--\":5446:5451   */\n      dup7\n        /* \"--CODEGEN--\":5442:5458   */\n      add\n        /* \"--CODEGEN--\":5420:5472   */\n      tag_163\n      jump\t// in\n    tag_243:\n        /* \"--CODEGEN--\":5493:5522   */\n      tag_244\n        /* \"--CODEGEN--\":5515:5521   */\n      dup2\n        /* \"--CODEGEN--\":5493:5522   */\n      tag_245\n      jump\t// in\n    tag_244:\n        /* \"--CODEGEN--\":5488:5491   */\n      dup5\n        /* \"--CODEGEN--\":5484:5523   */\n      add\n        /* \"--CODEGEN--\":5477:5523   */\n      swap2\n      pop\n        /* \"--CODEGEN--\":5283:5528   */\n      pop\n      swap3\n      swap2\n      pop\n      pop\n      jump\t// out\n        /* \"--CODEGEN--\":5535:5882   */\n    tag_246:\n      0x00\n        /* \"--CODEGEN--\":5647:5686   */\n      tag_248\n        /* \"--CODEGEN--\":5680:5685   */\n      dup3\n        /* \"--CODEGEN--\":5647:5686   */\n      tag_240\n      jump\t// in\n    tag_248:\n        /* \"--CODEGEN--\":5698:5769   */\n      tag_249\n        /* \"--CODEGEN--\":5762:5768   */\n      dup2\n        /* \"--CODEGEN--\":5757:5760   */\n      dup6\n        /* \"--CODEGEN--\":5698:5769   */\n      tag_250\n      jump\t// in\n    tag_249:\n        /* \"--CODEGEN--\":5691:5769   */\n      swap4\n      pop\n        /* \"--CODEGEN--\":5774:5826   */\n      tag_251\n        /* \"--CODEGEN--\":5819:5825   */\n      dup2\n        /* \"--CODEGEN--\":5814:5817   */\n      dup6\n        /* \"--CODEGEN--\":5807:5811   */\n      0x20\n        /* \"--CODEGEN--\":5800:5805   */\n      dup7\n        /* \"--CODEGEN--\":5796:5812   */\n      add\n        /* \"--CODEGEN--\":5774:5826   */\n      tag_163\n      jump\t// in\n    tag_251:\n        /* \"--CODEGEN--\":5847:5876   */\n      tag_252\n        /* \"--CODEGEN--\":5869:5875   */\n      dup2\n        /* \"--CODEGEN--\":5847:5876   */\n      tag_245\n      jump\t// in\n    tag_252:\n        /* \"--CODEGEN--\":5842:5845   */\n      dup5\n        /* \"--CODEGEN--\":5838:5877   */\n      add\n        /* \"--CODEGEN--\":5831:5877   */\n      swap2\n      pop\n        /* \"--CODEGEN--\":5627:5882   */\n      pop\n      swap3\n      swap2\n      pop\n      pop\n      jump\t// out\n        /* \"--CODEGEN--\":5890:6225   */\n    tag_253:\n      0x00\n        /* \"--CODEGEN--\":6068:6152   */\n      tag_255\n        /* \"--CODEGEN--\":6150:6151   */\n      0x01\n        /* \"--CODEGEN--\":6145:6148   */\n      dup4\n        /* \"--CODEGEN--\":6068:6152   */\n      tag_256\n      jump\t// in\n    tag_255:\n        /* \"--CODEGEN--\":6061:6152   */\n      swap2\n      pop\n        /* \"--CODEGEN--\":6185:6188   */\n      0x6100000000000000000000000000000000000000000000000000000000000000\n        /* \"--CODEGEN--\":6181:6182   */\n      0x00\n        /* \"--CODEGEN--\":6176:6179   */\n      dup4\n        /* \"--CODEGEN--\":6172:6183   */\n      add\n        /* \"--CODEGEN--\":6165:6189   */\n      mstore\n        /* \"--CODEGEN--\":6217:6218   */\n      0x01\n        /* \"--CODEGEN--\":6212:6215   */\n      dup3\n        /* \"--CODEGEN--\":6208:6219   */\n      add\n        /* \"--CODEGEN--\":6201:6219   */\n      swap1\n      pop\n        /* \"--CODEGEN--\":6054:6225   */\n      swap2\n      swap1\n      pop\n      jump\t// out\n        /* \"--CODEGEN--\":6234:6569   */\n    tag_257:\n      0x00\n        /* \"--CODEGEN--\":6412:6496   */\n      tag_259\n        /* \"--CODEGEN--\":6494:6495   */\n      0x01\n        /* \"--CODEGEN--\":6489:6492   */\n      dup4\n        /* \"--CODEGEN--\":6412:6496   */\n      tag_256\n      jump\t// in\n    tag_259:\n        /* \"--CODEGEN--\":6405:6496   */\n      swap2\n      pop\n        /* \"--CODEGEN--\":6529:6532   */\n      0x2000000000000000000000000000000000000000000000000000000000000000\n        /* \"--CODEGEN--\":6525:6526   */\n      0x00\n        /* \"--CODEGEN--\":6520:6523   */\n      dup4\n        /* \"--CODEGEN--\":6516:6527   */\n      add\n        /* \"--CODEGEN--\":6509:6533   */\n      mstore\n        /* \"--CODEGEN--\":6561:6562   */\n      0x01\n        /* \"--CODEGEN--\":6556:6559   */\n      dup3\n        /* \"--CODEGEN--\":6552:6563   */\n      add\n        /* \"--CODEGEN--\":6545:6563   */\n      swap1\n      pop\n        /* \"--CODEGEN--\":6398:6569   */\n      swap2\n      swap1\n      pop\n      jump\t// out\n        /* \"--CODEGEN--\":6578:6918   */\n    tag_260:\n      0x00\n        /* \"--CODEGEN--\":6756:6840   */\n      tag_262\n        /* \"--CODEGEN--\":6838:6839   */\n      0x06\n        /* \"--CODEGEN--\":6833:6836   */\n      dup4\n        /* \"--CODEGEN--\":6756:6840   */\n      tag_256\n      jump\t// in\n    tag_262:\n        /* \"--CODEGEN--\":6749:6840   */\n      swap2\n      pop\n        /* \"--CODEGEN--\":6873:6881   */\n      0x737472696e670000000000000000000000000000000000000000000000000000\n        /* \"--CODEGEN--\":6869:6870   */\n      0x00\n        /* \"--CODEGEN--\":6864:6867   */\n      dup4\n        /* \"--CODEGEN--\":6860:6871   */\n      add\n        /* \"--CODEGEN--\":6853:6882   */\n      mstore\n        /* \"--CODEGEN--\":6910:6911   */\n      0x06\n        /* \"--CODEGEN--\":6905:6908   */\n      dup3\n        /* \"--CODEGEN--\":6901:6912   */\n      add\n        /* \"--CODEGEN--\":6894:6912   */\n      swap1\n      pop\n        /* \"--CODEGEN--\":6742:6918   */\n      swap2\n      swap1\n      pop\n      jump\t// out\n        /* \"--CODEGEN--\":6927:7275   */\n    tag_263:\n      0x00\n        /* \"--CODEGEN--\":7105:7190   */\n      tag_265\n        /* \"--CODEGEN--\":7187:7189   */\n      0x0c\n        /* \"--CODEGEN--\":7182:7185   */\n      dup4\n        /* \"--CODEGEN--\":7105:7190   */\n      tag_256\n      jump\t// in\n    tag_265:\n        /* \"--CODEGEN--\":7098:7190   */\n      swap2\n      pop\n        /* \"--CODEGEN--\":7223:7237   */\n      0x636f6e636174656e617465640000000000000000000000000000000000000000\n        /* \"--CODEGEN--\":7219:7220   */\n      0x00\n        /* \"--CODEGEN--\":7214:7217   */\n      dup4\n        /* \"--CODEGEN--\":7210:7221   */\n      add\n        /* \"--CODEGEN--\":7203:7238   */\n      mstore\n        /* \"--CODEGEN--\":7266:7268   */\n      0x0c\n        /* \"--CODEGEN--\":7261:7264   */\n      dup3\n        /* \"--CODEGEN--\":7257:7269   */\n      add\n        /* \"--CODEGEN--\":7250:7269   */\n      swap1\n      pop\n        /* \"--CODEGEN--\":7091:7275   */\n      swap2\n      swap1\n      pop\n      jump\t// out\n        /* \"--CODEGEN--\":7283:7386   */\n    tag_201:\n        /* \"--CODEGEN--\":7356:7380   */\n      tag_267\n        /* \"--CODEGEN--\":7374:7379   */\n      dup2\n        /* \"--CODEGEN--\":7356:7380   */\n      tag_268\n      jump\t// in\n    tag_267:\n        /* \"--CODEGEN--\":7351:7354   */\n      dup3\n        /* \"--CODEGEN--\":7344:7381   */\n      mstore\n        /* \"--CODEGEN--\":7338:7386   */\n      pop\n      pop\n      jump\t// out\n        /* \"--CODEGEN--\":7393:7506   */\n    tag_269:\n        /* \"--CODEGEN--\":7476:7500   */\n      tag_271\n        /* \"--CODEGEN--\":7494:7499   */\n      dup2\n        /* \"--CODEGEN--\":7476:7500   */\n      tag_268\n      jump\t// in\n    tag_271:\n        /* \"--CODEGEN--\":7471:7474   */\n      dup3\n        /* \"--CODEGEN--\":7464:7501   */\n      mstore\n        /* \"--CODEGEN--\":7458:7506   */\n      pop\n      pop\n      jump\t// out\n        /* \"--CODEGEN--\":7513:8962   */\n    tag_123:\n      0x00\n        /* \"--CODEGEN--\":8125:8273   */\n      tag_273\n        /* \"--CODEGEN--\":8269:8272   */\n      dup3\n        /* \"--CODEGEN--\":8125:8273   */\n      tag_253\n      jump\t// in\n    tag_273:\n        /* \"--CODEGEN--\":8118:8273   */\n      swap2\n      pop\n        /* \"--CODEGEN--\":8291:8439   */\n      tag_274\n        /* \"--CODEGEN--\":8435:8438   */\n      dup3\n        /* \"--CODEGEN--\":8291:8439   */\n      tag_257\n      jump\t// in\n    tag_274:\n        /* \"--CODEGEN--\":8284:8439   */\n      swap2\n      pop\n        /* \"--CODEGEN--\":8457:8605   */\n      tag_275\n        /* \"--CODEGEN--\":8601:8604   */\n      dup3\n        /* \"--CODEGEN--\":8457:8605   */\n      tag_263\n      jump\t// in\n    tag_275:\n        /* \"--CODEGEN--\":8450:8605   */\n      swap2\n      pop\n        /* \"--CODEGEN--\":8623:8771   */\n      tag_276\n        /* \"--CODEGEN--\":8767:8770   */\n      dup3\n        /* \"--CODEGEN--\":8623:8771   */\n      tag_257\n      jump\t// in\n    tag_276:\n        /* \"--CODEGEN--\":8616:8771   */\n      swap2\n      pop\n        /* \"--CODEGEN--\":8789:8937   */\n      tag_277\n        /* \"--CODEGEN--\":8933:8936   */\n      dup3\n        /* \"--CODEGEN--\":8789:8937   */\n      tag_260\n      jump\t// in\n    tag_277:\n        /* \"--CODEGEN--\":8782:8937   */\n      swap2\n      pop\n        /* \"--CODEGEN--\":8954:8957   */\n      dup2\n        /* \"--CODEGEN--\":8947:8957   */\n      swap1\n      pop\n        /* \"--CODEGEN--\":8106:8962   */\n      swap2\n      swap1\n      pop\n      jump\t// out\n        /* \"--CODEGEN--\":8969:9191   */\n    tag_22:\n      0x00\n        /* \"--CODEGEN--\":9096:9098   */\n      0x20\n        /* \"--CODEGEN--\":9085:9094   */\n      dup3\n        /* \"--CODEGEN--\":9081:9099   */\n      add\n        /* \"--CODEGEN--\":9073:9099   */\n      swap1\n      pop\n        /* \"--CODEGEN--\":9110:9181   */\n      tag_279\n        /* \"--CODEGEN--\":9178:9179   */\n      0x00\n        /* \"--CODEGEN--\":9167:9176   */\n      dup4\n        /* \"--CODEGEN--\":9163:9180   */\n      add\n        /* \"--CODEGEN--\":9154:9160   */\n      dup5\n        /* \"--CODEGEN--\":9110:9181   */\n      tag_206\n      jump\t// in\n    tag_279:\n        /* \"--CODEGEN--\":9067:9191   */\n      swap3\n      swap2\n      pop\n      pop\n      jump\t// out\n        /* \"--CODEGEN--\":9198:9547   */\n    tag_131:\n      0x00\n        /* \"--CODEGEN--\":9361:9363   */\n      0x40\n        /* \"--CODEGEN--\":9350:9359   */\n      dup3\n        /* \"--CODEGEN--\":9346:9364   */\n      add\n        /* \"--CODEGEN--\":9338:9364   */\n      swap1\n      pop\n        /* \"--CODEGEN--\":9375:9446   */\n      tag_281\n        /* \"--CODEGEN--\":9443:9444   */\n      0x00\n        /* \"--CODEGEN--\":9432:9441   */\n      dup4\n        /* \"--CODEGEN--\":9428:9445   */\n      add\n        /* \"--CODEGEN--\":9419:9425   */\n      dup6\n        /* \"--CODEGEN--\":9375:9446   */\n      tag_206\n      jump\t// in\n    tag_281:\n        /* \"--CODEGEN--\":9457:9537   */\n      tag_282\n        /* \"--CODEGEN--\":9533:9535   */\n      0x20\n        /* \"--CODEGEN--\":9522:9531   */\n      dup4\n        /* \"--CODEGEN--\":9518:9536   */\n      add\n        /* \"--CODEGEN--\":9509:9515   */\n      dup5\n        /* \"--CODEGEN--\":9457:9537   */\n      tag_202\n      jump\t// in\n    tag_282:\n        /* \"--CODEGEN--\":9332:9547   */\n      swap4\n      swap3\n      pop\n      pop\n      pop\n      jump\t// out\n        /* \"--CODEGEN--\":9554:10422   */\n    tag_39:\n      0x00\n        /* \"--CODEGEN--\":9877:9879   */\n      0x60\n        /* \"--CODEGEN--\":9866:9875   */\n      dup3\n        /* \"--CODEGEN--\":9862:9880   */\n      add\n        /* \"--CODEGEN--\":9854:9880   */\n      swap1\n      pop\n        /* \"--CODEGEN--\":9927:9936   */\n      dup2\n        /* \"--CODEGEN--\":9921:9925   */\n      dup2\n        /* \"--CODEGEN--\":9917:9937   */\n      sub\n        /* \"--CODEGEN--\":9913:9914   */\n      0x00\n        /* \"--CODEGEN--\":9902:9911   */\n      dup4\n        /* \"--CODEGEN--\":9898:9915   */\n      add\n        /* \"--CODEGEN--\":9891:9938   */\n      mstore\n        /* \"--CODEGEN--\":9952:10030   */\n      tag_284\n        /* \"--CODEGEN--\":10025:10029   */\n      dup2\n        /* \"--CODEGEN--\":10016:10022   */\n      dup7\n        /* \"--CODEGEN--\":9952:10030   */\n      tag_246\n      jump\t// in\n    tag_284:\n        /* \"--CODEGEN--\":9944:10030   */\n      swap1\n      pop\n        /* \"--CODEGEN--\":10078:10087   */\n      dup2\n        /* \"--CODEGEN--\":10072:10076   */\n      dup2\n        /* \"--CODEGEN--\":10068:10088   */\n      sub\n        /* \"--CODEGEN--\":10063:10065   */\n      0x20\n        /* \"--CODEGEN--\":10052:10061   */\n      dup4\n        /* \"--CODEGEN--\":10048:10066   */\n      add\n        /* \"--CODEGEN--\":10041:10089   */\n      mstore\n        /* \"--CODEGEN--\":10103:10231   */\n      tag_285\n        /* \"--CODEGEN--\":10226:10230   */\n      dup2\n        /* \"--CODEGEN--\":10217:10223   */\n      dup6\n        /* \"--CODEGEN--\":10103:10231   */\n      tag_210\n      jump\t// in\n    tag_285:\n        /* \"--CODEGEN--\":10095:10231   */\n      swap1\n      pop\n        /* \"--CODEGEN--\":10279:10288   */\n      dup2\n        /* \"--CODEGEN--\":10273:10277   */\n      dup2\n        /* \"--CODEGEN--\":10269:10289   */\n      sub\n        /* \"--CODEGEN--\":10264:10266   */\n      0x40\n        /* \"--CODEGEN--\":10253:10262   */\n      dup4\n        /* \"--CODEGEN--\":10249:10267   */\n      add\n        /* \"--CODEGEN--\":10242:10290   */\n      mstore\n        /* \"--CODEGEN--\":10304:10412   */\n      tag_286\n        /* \"--CODEGEN--\":10407:10411   */\n      dup2\n        /* \"--CODEGEN--\":10398:10404   */\n      dup5\n        /* \"--CODEGEN--\":10304:10412   */\n      tag_224\n      jump\t// in\n    tag_286:\n        /* \"--CODEGEN--\":10296:10412   */\n      swap1\n      pop\n        /* \"--CODEGEN--\":9848:10422   */\n      swap5\n      swap4\n      pop\n      pop\n      pop\n      pop\n      jump\t// out\n        /* \"--CODEGEN--\":10429:11361   */\n    tag_31:\n      0x00\n        /* \"--CODEGEN--\":10728:10731   */\n      0xa0\n        /* \"--CODEGEN--\":10717:10726   */\n      dup3\n        /* \"--CODEGEN--\":10713:10732   */\n      add\n        /* \"--CODEGEN--\":10705:10732   */\n      swap1\n      pop\n        /* \"--CODEGEN--\":10779:10788   */\n      dup2\n        /* \"--CODEGEN--\":10773:10777   */\n      dup2\n        /* \"--CODEGEN--\":10769:10789   */\n      sub\n        /* \"--CODEGEN--\":10765:10766   */\n      0x00\n        /* \"--CODEGEN--\":10754:10763   */\n      dup4\n        /* \"--CODEGEN--\":10750:10767   */\n      add\n        /* \"--CODEGEN--\":10743:10790   */\n      mstore\n        /* \"--CODEGEN--\":10804:10882   */\n      tag_288\n        /* \"--CODEGEN--\":10877:10881   */\n      dup2\n        /* \"--CODEGEN--\":10868:10874   */\n      dup9\n        /* \"--CODEGEN--\":10804:10882   */\n      tag_246\n      jump\t// in\n    tag_288:\n        /* \"--CODEGEN--\":10796:10882   */\n      swap1\n      pop\n        /* \"--CODEGEN--\":10930:10939   */\n      dup2\n        /* \"--CODEGEN--\":10924:10928   */\n      dup2\n        /* \"--CODEGEN--\":10920:10940   */\n      sub\n        /* \"--CODEGEN--\":10915:10917   */\n      0x20\n        /* \"--CODEGEN--\":10904:10913   */\n      dup4\n        /* \"--CODEGEN--\":10900:10918   */\n      add\n        /* \"--CODEGEN--\":10893:10941   */\n      mstore\n        /* \"--CODEGEN--\":10955:11033   */\n      tag_289\n        /* \"--CODEGEN--\":11028:11032   */\n      dup2\n        /* \"--CODEGEN--\":11019:11025   */\n      dup8\n        /* \"--CODEGEN--\":10955:11033   */\n      tag_246\n      jump\t// in\n    tag_289:\n        /* \"--CODEGEN--\":10947:11033   */\n      swap1\n      pop\n        /* \"--CODEGEN--\":11044:11116   */\n      tag_290\n        /* \"--CODEGEN--\":11112:11114   */\n      0x40\n        /* \"--CODEGEN--\":11101:11110   */\n      dup4\n        /* \"--CODEGEN--\":11097:11115   */\n      add\n        /* \"--CODEGEN--\":11088:11094   */\n      dup7\n        /* \"--CODEGEN--\":11044:11116   */\n      tag_269\n      jump\t// in\n    tag_290:\n        /* \"--CODEGEN--\":11164:11173   */\n      dup2\n        /* \"--CODEGEN--\":11158:11162   */\n      dup2\n        /* \"--CODEGEN--\":11154:11174   */\n      sub\n        /* \"--CODEGEN--\":11149:11151   */\n      0x60\n        /* \"--CODEGEN--\":11138:11147   */\n      dup4\n        /* \"--CODEGEN--\":11134:11152   */\n      add\n        /* \"--CODEGEN--\":11127:11175   */\n      mstore\n        /* \"--CODEGEN--\":11189:11267   */\n      tag_291\n        /* \"--CODEGEN--\":11262:11266   */\n      dup2\n        /* \"--CODEGEN--\":11253:11259   */\n      dup6\n        /* \"--CODEGEN--\":11189:11267   */\n      tag_246\n      jump\t// in\n    tag_291:\n        /* \"--CODEGEN--\":11181:11267   */\n      swap1\n      pop\n        /* \"--CODEGEN--\":11278:11351   */\n      tag_292\n        /* \"--CODEGEN--\":11346:11349   */\n      0x80\n        /* \"--CODEGEN--\":11335:11344   */\n      dup4\n        /* \"--CODEGEN--\":11331:11350   */\n      add\n        /* \"--CODEGEN--\":11322:11328   */\n      dup5\n        /* \"--CODEGEN--\":11278:11351   */\n      tag_269\n      jump\t// in\n    tag_292:\n        /* \"--CODEGEN--\":10699:11361   */\n      swap7\n      swap6\n      pop\n      pop\n      pop\n      pop\n      pop\n      pop\n      jump\t// out\n        /* \"--CODEGEN--\":11368:12012   */\n    tag_18:\n      0x00\n        /* \"--CODEGEN--\":11599:11602   */\n      0x80\n        /* \"--CODEGEN--\":11588:11597   */\n      dup3\n        /* \"--CODEGEN--\":11584:11603   */\n      add\n        /* \"--CODEGEN--\":11576:11603   */\n      swap1\n      pop\n        /* \"--CODEGEN--\":11650:11659   */\n      dup2\n        /* \"--CODEGEN--\":11644:11648   */\n      dup2\n        /* \"--CODEGEN--\":11640:11660   */\n      sub\n        /* \"--CODEGEN--\":11636:11637   */\n      0x00\n        /* \"--CODEGEN--\":11625:11634   */\n      dup4\n        /* \"--CODEGEN--\":11621:11638   */\n      add\n        /* \"--CODEGEN--\":11614:11661   */\n      mstore\n        /* \"--CODEGEN--\":11675:11753   */\n      tag_294\n        /* \"--CODEGEN--\":11748:11752   */\n      dup2\n        /* \"--CODEGEN--\":11739:11745   */\n      dup8\n        /* \"--CODEGEN--\":11675:11753   */\n      tag_246\n      jump\t// in\n    tag_294:\n        /* \"--CODEGEN--\":11667:11753   */\n      swap1\n      pop\n        /* \"--CODEGEN--\":11764:11836   */\n      tag_295\n        /* \"--CODEGEN--\":11832:11834   */\n      0x20\n        /* \"--CODEGEN--\":11821:11830   */\n      dup4\n        /* \"--CODEGEN--\":11817:11835   */\n      add\n        /* \"--CODEGEN--\":11808:11814   */\n      dup7\n        /* \"--CODEGEN--\":11764:11836   */\n      tag_269\n      jump\t// in\n    tag_295:\n        /* \"--CODEGEN--\":11847:11919   */\n      tag_296\n        /* \"--CODEGEN--\":11915:11917   */\n      0x40\n        /* \"--CODEGEN--\":11904:11913   */\n      dup4\n        /* \"--CODEGEN--\":11900:11918   */\n      add\n        /* \"--CODEGEN--\":11891:11897   */\n      dup6\n        /* \"--CODEGEN--\":11847:11919   */\n      tag_269\n      jump\t// in\n    tag_296:\n        /* \"--CODEGEN--\":11930:12002   */\n      tag_297\n        /* \"--CODEGEN--\":11998:12000   */\n      0x60\n        /* \"--CODEGEN--\":11987:11996   */\n      dup4\n        /* \"--CODEGEN--\":11983:12001   */\n      add\n        /* \"--CODEGEN--\":11974:11980   */\n      dup5\n        /* \"--CODEGEN--\":11930:12002   */\n      tag_269\n      jump\t// in\n    tag_297:\n        /* \"--CODEGEN--\":11570:12012   */\n      swap6\n      swap5\n      pop\n      pop\n      pop\n      pop\n      pop\n      jump\t// out\n        /* \"--CODEGEN--\":12019:12275   */\n    tag_160:\n      0x00\n        /* \"--CODEGEN--\":12081:12083   */\n      0x40\n        /* \"--CODEGEN--\":12075:12084   */\n      mload\n        /* \"--CODEGEN--\":12065:12084   */\n      swap1\n      pop\n        /* \"--CODEGEN--\":12119:12123   */\n      dup2\n        /* \"--CODEGEN--\":12111:12117   */\n      dup2\n        /* \"--CODEGEN--\":12107:12124   */\n      add\n        /* \"--CODEGEN--\":12218:12224   */\n      dup2\n        /* \"--CODEGEN--\":12206:12216   */\n      dup2\n        /* \"--CODEGEN--\":12203:12225   */\n      lt\n        /* \"--CODEGEN--\":12182:12200   */\n      0xffffffffffffffff\n        /* \"--CODEGEN--\":12170:12180   */\n      dup3\n        /* \"--CODEGEN--\":12167:12201   */\n      gt\n        /* \"--CODEGEN--\":12164:12226   */\n      or\n        /* \"--CODEGEN--\":12161:12163   */\n      iszero\n      tag_299\n      jumpi\n        /* \"--CODEGEN--\":12239:12240   */\n      0x00\n        /* \"--CODEGEN--\":12236:12237   */\n      dup1\n        /* \"--CODEGEN--\":12229:12241   */\n      revert\n        /* \"--CODEGEN--\":12161:12163   */\n    tag_299:\n        /* \"--CODEGEN--\":12259:12269   */\n      dup1\n        /* \"--CODEGEN--\":12255:12257   */\n      0x40\n        /* \"--CODEGEN--\":12248:12270   */\n      mstore\n        /* \"--CODEGEN--\":12059:12275   */\n      pop\n      swap2\n      swap1\n      pop\n      jump\t// out\n        /* \"--CODEGEN--\":12282:12604   */\n    tag_159:\n      0x00\n        /* \"--CODEGEN--\":12426:12444   */\n      0xffffffffffffffff\n        /* \"--CODEGEN--\":12418:12424   */\n      dup3\n        /* \"--CODEGEN--\":12415:12445   */\n      gt\n        /* \"--CODEGEN--\":12412:12414   */\n      iszero\n      tag_301\n      jumpi\n        /* \"--CODEGEN--\":12458:12459   */\n      0x00\n        /* \"--CODEGEN--\":12455:12456   */\n      dup1\n        /* \"--CODEGEN--\":12448:12460   */\n      revert\n        /* \"--CODEGEN--\":12412:12414   */\n    tag_301:\n        /* \"--CODEGEN--\":12525:12529   */\n      0x1f\n        /* \"--CODEGEN--\":12521:12530   */\n      not\n        /* \"--CODEGEN--\":12514:12518   */\n      0x1f\n        /* \"--CODEGEN--\":12506:12512   */\n      dup4\n        /* \"--CODEGEN--\":12502:12519   */\n      add\n        /* \"--CODEGEN--\":12498:12531   */\n      and\n        /* \"--CODEGEN--\":12490:12531   */\n      swap1\n      pop\n        /* \"--CODEGEN--\":12589:12593   */\n      0x20\n        /* \"--CODEGEN--\":12583:12587   */\n      dup2\n        /* \"--CODEGEN--\":12579:12594   */\n      add\n        /* \"--CODEGEN--\":12571:12594   */\n      swap1\n      pop\n        /* \"--CODEGEN--\":12349:12604   */\n      swap2\n      swap1\n      pop\n      jump\t// out\n        /* \"--CODEGEN--\":12611:12772   */\n    tag_217:\n      0x00\n        /* \"--CODEGEN--\":12707:12710   */\n      dup2\n        /* \"--CODEGEN--\":12699:12710   */\n      swap1\n      pop\n        /* \"--CODEGEN--\":12745:12749   */\n      0x20\n        /* \"--CODEGEN--\":12740:12743   */\n      dup3\n        /* \"--CODEGEN--\":12736:12750   */\n      add\n        /* \"--CODEGEN--\":12728:12750   */\n      swap1\n      pop\n        /* \"--CODEGEN--\":12693:12772   */\n      swap2\n      swap1\n      pop\n      jump\t// out\n        /* \"--CODEGEN--\":12779:12930   */\n    tag_231:\n      0x00\n        /* \"--CODEGEN--\":12865:12868   */\n      dup2\n        /* \"--CODEGEN--\":12857:12868   */\n      swap1\n      pop\n        /* \"--CODEGEN--\":12903:12907   */\n      0x20\n        /* \"--CODEGEN--\":12898:12901   */\n      dup3\n        /* \"--CODEGEN--\":12894:12908   */\n      add\n        /* \"--CODEGEN--\":12886:12908   */\n      swap1\n      pop\n        /* \"--CODEGEN--\":12851:12930   */\n      swap2\n      swap1\n      pop\n      jump\t// out\n        /* \"--CODEGEN--\":12937:13084   */\n    tag_213:\n      0x00\n        /* \"--CODEGEN--\":13056:13061   */\n      dup2\n        /* \"--CODEGEN--\":13050:13062   */\n      mload\n        /* \"--CODEGEN--\":13040:13062   */\n      swap1\n      pop\n        /* \"--CODEGEN--\":13021:13084   */\n      swap2\n      swap1\n      pop\n      jump\t// out\n        /* \"--CODEGEN--\":13091:13228   */\n    tag_227:\n      0x00\n        /* \"--CODEGEN--\":13200:13205   */\n      dup2\n        /* \"--CODEGEN--\":13194:13206   */\n      mload\n        /* \"--CODEGEN--\":13184:13206   */\n      swap1\n      pop\n        /* \"--CODEGEN--\":13165:13228   */\n      swap2\n      swap1\n      pop\n      jump\t// out\n        /* \"--CODEGEN--\":13235:13357   */\n    tag_240:\n      0x00\n        /* \"--CODEGEN--\":13329:13334   */\n      dup2\n        /* \"--CODEGEN--\":13323:13335   */\n      mload\n        /* \"--CODEGEN--\":13313:13335   */\n      swap1\n      pop\n        /* \"--CODEGEN--\":13294:13357   */\n      swap2\n      swap1\n      pop\n      jump\t// out\n        /* \"--CODEGEN--\":13364:13482   */\n    tag_223:\n      0x00\n        /* \"--CODEGEN--\":13472:13476   */\n      0x20\n        /* \"--CODEGEN--\":13467:13470   */\n      dup3\n        /* \"--CODEGEN--\":13463:13477   */\n      add\n        /* \"--CODEGEN--\":13455:13477   */\n      swap1\n      pop\n        /* \"--CODEGEN--\":13449:13482   */\n      swap2\n      swap1\n      pop\n      jump\t// out\n        /* \"--CODEGEN--\":13489:13597   */\n    tag_237:\n      0x00\n        /* \"--CODEGEN--\":13587:13591   */\n      0x20\n        /* \"--CODEGEN--\":13582:13585   */\n      dup3\n        /* \"--CODEGEN--\":13578:13592   */\n      add\n        /* \"--CODEGEN--\":13570:13592   */\n      swap1\n      pop\n        /* \"--CODEGEN--\":13564:13597   */\n      swap2\n      swap1\n      pop\n      jump\t// out\n        /* \"--CODEGEN--\":13605:13793   */\n    tag_215:\n      0x00\n        /* \"--CODEGEN--\":13745:13751   */\n      dup3\n        /* \"--CODEGEN--\":13740:13743   */\n      dup3\n        /* \"--CODEGEN--\":13733:13752   */\n      mstore\n        /* \"--CODEGEN--\":13782:13786   */\n      0x20\n        /* \"--CODEGEN--\":13777:13780   */\n      dup3\n        /* \"--CODEGEN--\":13773:13787   */\n      add\n        /* \"--CODEGEN--\":13758:13787   */\n      swap1\n      pop\n        /* \"--CODEGEN--\":13726:13793   */\n      swap3\n      swap2\n      pop\n      pop\n      jump\t// out\n        /* \"--CODEGEN--\":13802:13980   */\n    tag_229:\n      0x00\n        /* \"--CODEGEN--\":13932:13938   */\n      dup3\n        /* \"--CODEGEN--\":13927:13930   */\n      dup3\n        /* \"--CODEGEN--\":13920:13939   */\n      mstore\n        /* \"--CODEGEN--\":13969:13973   */\n      0x20\n        /* \"--CODEGEN--\":13964:13967   */\n      dup3\n        /* \"--CODEGEN--\":13960:13974   */\n      add\n        /* \"--CODEGEN--\":13945:13974   */\n      swap1\n      pop\n        /* \"--CODEGEN--\":13913:13980   */\n      swap3\n      swap2\n      pop\n      pop\n      jump\t// out\n        /* \"--CODEGEN--\":13989:14142   */\n    tag_242:\n      0x00\n        /* \"--CODEGEN--\":14094:14100   */\n      dup3\n        /* \"--CODEGEN--\":14089:14092   */\n      dup3\n        /* \"--CODEGEN--\":14082:14101   */\n      mstore\n        /* \"--CODEGEN--\":14131:14135   */\n      0x20\n        /* \"--CODEGEN--\":14126:14129   */\n      dup3\n        /* \"--CODEGEN--\":14122:14136   */\n      add\n        /* \"--CODEGEN--\":14107:14136   */\n      swap1\n      pop\n        /* \"--CODEGEN--\":14075:14142   */\n      swap3\n      swap2\n      pop\n      pop\n      jump\t// out\n        /* \"--CODEGEN--\":14151:14314   */\n    tag_250:\n      0x00\n        /* \"--CODEGEN--\":14266:14272   */\n      dup3\n        /* \"--CODEGEN--\":14261:14264   */\n      dup3\n        /* \"--CODEGEN--\":14254:14273   */\n      mstore\n        /* \"--CODEGEN--\":14303:14307   */\n      0x20\n        /* \"--CODEGEN--\":14298:14301   */\n      dup3\n        /* \"--CODEGEN--\":14294:14308   */\n      add\n        /* \"--CODEGEN--\":14279:14308   */\n      swap1\n      pop\n        /* \"--CODEGEN--\":14247:14314   */\n      swap3\n      swap2\n      pop\n      pop\n      jump\t// out\n        /* \"--CODEGEN--\":14323:14468   */\n    tag_256:\n      0x00\n        /* \"--CODEGEN--\":14459:14462   */\n      dup2\n        /* \"--CODEGEN--\":14444:14462   */\n      swap1\n      pop\n        /* \"--CODEGEN--\":14437:14468   */\n      swap3\n      swap2\n      pop\n      pop\n      jump\t// out\n        /* \"--CODEGEN--\":14476:14567   */\n    tag_209:\n      0x00\n        /* \"--CODEGEN--\":14538:14562   */\n      tag_315\n        /* \"--CODEGEN--\":14556:14561   */\n      dup3\n        /* \"--CODEGEN--\":14538:14562   */\n      tag_316\n      jump\t// in\n    tag_315:\n        /* \"--CODEGEN--\":14527:14562   */\n      swap1\n      pop\n        /* \"--CODEGEN--\":14521:14567   */\n      swap2\n      swap1\n      pop\n      jump\t// out\n        /* \"--CODEGEN--\":14574:14683   */\n    tag_317:\n      0x00\n        /* \"--CODEGEN--\":14647:14677   */\n      0xffffffffffffffffffffffffffff\n        /* \"--CODEGEN--\":14640:14645   */\n      dup3\n        /* \"--CODEGEN--\":14636:14678   */\n      and\n        /* \"--CODEGEN--\":14625:14678   */\n      swap1\n      pop\n        /* \"--CODEGEN--\":14619:14683   */\n      swap2\n      swap1\n      pop\n      jump\t// out\n        /* \"--CODEGEN--\":14690:14811   */\n    tag_316:\n      0x00\n        /* \"--CODEGEN--\":14763:14805   */\n      0xffffffffffffffffffffffffffffffffffffffff\n        /* \"--CODEGEN--\":14756:14761   */\n      dup3\n        /* \"--CODEGEN--\":14752:14806   */\n      and\n        /* \"--CODEGEN--\":14741:14806   */\n      swap1\n      pop\n        /* \"--CODEGEN--\":14735:14811   */\n      swap2\n      swap1\n      pop\n      jump\t// out\n        /* \"--CODEGEN--\":14818:14890   */\n    tag_268:\n      0x00\n        /* \"--CODEGEN--\":14880:14885   */\n      dup2\n        /* \"--CODEGEN--\":14869:14885   */\n      swap1\n      pop\n        /* \"--CODEGEN--\":14863:14890   */\n      swap2\n      swap1\n      pop\n      jump\t// out\n        /* \"--CODEGEN--\":14897:14985   */\n    tag_321:\n      0x00\n        /* \"--CODEGEN--\":14969:14979   */\n      0xffffffff\n        /* \"--CODEGEN--\":14962:14967   */\n      dup3\n        /* \"--CODEGEN--\":14958:14980   */\n      and\n        /* \"--CODEGEN--\":14947:14980   */\n      swap1\n      pop\n        /* \"--CODEGEN--\":14941:14985   */\n      swap2\n      swap1\n      pop\n      jump\t// out\n        /* \"--CODEGEN--\":14992:15121   */\n    tag_205:\n      0x00\n        /* \"--CODEGEN--\":15079:15116   */\n      tag_324\n        /* \"--CODEGEN--\":15110:15115   */\n      dup3\n        /* \"--CODEGEN--\":15079:15116   */\n      tag_325\n      jump\t// in\n    tag_324:\n        /* \"--CODEGEN--\":15066:15116   */\n      swap1\n      pop\n        /* \"--CODEGEN--\":15060:15121   */\n      swap2\n      swap1\n      pop\n      jump\t// out\n        /* \"--CODEGEN--\":15128:15249   */\n    tag_325:\n      0x00\n        /* \"--CODEGEN--\":15207:15244   */\n      tag_327\n        /* \"--CODEGEN--\":15238:15243   */\n      dup3\n        /* \"--CODEGEN--\":15207:15244   */\n      tag_328\n      jump\t// in\n    tag_327:\n        /* \"--CODEGEN--\":15194:15244   */\n      swap1\n      pop\n        /* \"--CODEGEN--\":15188:15249   */\n      swap2\n      swap1\n      pop\n      jump\t// out\n        /* \"--CODEGEN--\":15256:15364   */\n    tag_328:\n      0x00\n        /* \"--CODEGEN--\":15335:15359   */\n      tag_330\n        /* \"--CODEGEN--\":15353:15358   */\n      dup3\n        /* \"--CODEGEN--\":15335:15359   */\n      tag_316\n      jump\t// in\n    tag_330:\n        /* \"--CODEGEN--\":15322:15359   */\n      swap1\n      pop\n        /* \"--CODEGEN--\":15316:15364   */\n      swap2\n      swap1\n      pop\n      jump\t// out\n        /* \"--CODEGEN--\":15372:15640   */\n    tag_163:\n        /* \"--CODEGEN--\":15437:15438   */\n      0x00\n        /* \"--CODEGEN--\":15444:15545   */\n    tag_332:\n        /* \"--CODEGEN--\":15458:15464   */\n      dup4\n        /* \"--CODEGEN--\":15455:15456   */\n      dup2\n        /* \"--CODEGEN--\":15452:15465   */\n      lt\n        /* \"--CODEGEN--\":15444:15545   */\n      iszero\n      tag_334\n      jumpi\n        /* \"--CODEGEN--\":15534:15535   */\n      dup1\n        /* \"--CODEGEN--\":15529:15532   */\n      dup3\n        /* \"--CODEGEN--\":15525:15536   */\n      add\n        /* \"--CODEGEN--\":15519:15537   */\n      mload\n        /* \"--CODEGEN--\":15515:15516   */\n      dup2\n        /* \"--CODEGEN--\":15510:15513   */\n      dup5\n        /* \"--CODEGEN--\":15506:15517   */\n      add\n        /* \"--CODEGEN--\":15499:15538   */\n      mstore\n        /* \"--CODEGEN--\":15480:15482   */\n      0x20\n        /* \"--CODEGEN--\":15477:15478   */\n      dup2\n        /* \"--CODEGEN--\":15473:15483   */\n      add\n        /* \"--CODEGEN--\":15468:15483   */\n      swap1\n      pop\n        /* \"--CODEGEN--\":15444:15545   */\n      jump(tag_332)\n    tag_334:\n        /* \"--CODEGEN--\":15560:15566   */\n      dup4\n        /* \"--CODEGEN--\":15557:15558   */\n      dup2\n        /* \"--CODEGEN--\":15554:15567   */\n      gt\n        /* \"--CODEGEN--\":15551:15553   */\n      iszero\n      tag_335\n      jumpi\n        /* \"--CODEGEN--\":15625:15626   */\n      0x00\n        /* \"--CODEGEN--\":15616:15622   */\n      dup5\n        /* \"--CODEGEN--\":15611:15614   */\n      dup5\n        /* \"--CODEGEN--\":15607:15623   */\n      add\n        /* \"--CODEGEN--\":15600:15627   */\n      mstore\n        /* \"--CODEGEN--\":15551:15553   */\n    tag_335:\n        /* \"--CODEGEN--\":15421:15640   */\n      pop\n      pop\n      pop\n      pop\n      jump\t// out\n        /* \"--CODEGEN--\":15648:15745   */\n    tag_245:\n      0x00\n        /* \"--CODEGEN--\":15736:15738   */\n      0x1f\n        /* \"--CODEGEN--\":15732:15739   */\n      not\n        /* \"--CODEGEN--\":15727:15729   */\n      0x1f\n        /* \"--CODEGEN--\":15720:15725   */\n      dup4\n        /* \"--CODEGEN--\":15716:15730   */\n      add\n        /* \"--CODEGEN--\":15712:15740   */\n      and\n        /* \"--CODEGEN--\":15702:15740   */\n      swap1\n      pop\n        /* \"--CODEGEN--\":15696:15745   */\n      swap2\n      swap1\n      pop\n      jump\t// out\n        /* \"--CODEGEN--\":15753:15870   */\n    tag_150:\n        /* \"--CODEGEN--\":15822:15846   */\n      tag_338\n        /* \"--CODEGEN--\":15840:15845   */\n      dup2\n        /* \"--CODEGEN--\":15822:15846   */\n      tag_209\n      jump\t// in\n    tag_338:\n        /* \"--CODEGEN--\":15815:15820   */\n      dup2\n        /* \"--CODEGEN--\":15812:15847   */\n      eq\n        /* \"--CODEGEN--\":15802:15804   */\n      tag_339\n      jumpi\n        /* \"--CODEGEN--\":15861:15862   */\n      0x00\n        /* \"--CODEGEN--\":15858:15859   */\n      dup1\n        /* \"--CODEGEN--\":15851:15863   */\n      revert\n        /* \"--CODEGEN--\":15802:15804   */\n    tag_339:\n        /* \"--CODEGEN--\":15796:15870   */\n      pop\n      jump\t// out\n        /* \"--CODEGEN--\":15877:15994   */\n    tag_167:\n        /* \"--CODEGEN--\":15946:15970   */\n      tag_341\n        /* \"--CODEGEN--\":15964:15969   */\n      dup2\n        /* \"--CODEGEN--\":15946:15970   */\n      tag_317\n      jump\t// in\n    tag_341:\n        /* \"--CODEGEN--\":15939:15944   */\n      dup2\n        /* \"--CODEGEN--\":15936:15971   */\n      eq\n        /* \"--CODEGEN--\":15926:15928   */\n      tag_342\n      jumpi\n        /* \"--CODEGEN--\":15985:15986   */\n      0x00\n        /* \"--CODEGEN--\":15982:15983   */\n      dup1\n        /* \"--CODEGEN--\":15975:15987   */\n      revert\n        /* \"--CODEGEN--\":15926:15928   */\n    tag_342:\n        /* \"--CODEGEN--\":15920:15994   */\n      pop\n      jump\t// out\n        /* \"--CODEGEN--\":16001:16118   */\n    tag_171:\n        /* \"--CODEGEN--\":16070:16094   */\n      tag_344\n        /* \"--CODEGEN--\":16088:16093   */\n      dup2\n        /* \"--CODEGEN--\":16070:16094   */\n      tag_268\n      jump\t// in\n    tag_344:\n        /* \"--CODEGEN--\":16063:16068   */\n      dup2\n        /* \"--CODEGEN--\":16060:16095   */\n      eq\n        /* \"--CODEGEN--\":16050:16052   */\n      tag_345\n      jumpi\n        /* \"--CODEGEN--\":16109:16110   */\n      0x00\n        /* \"--CODEGEN--\":16106:16107   */\n      dup1\n        /* \"--CODEGEN--\":16099:16111   */\n      revert\n        /* \"--CODEGEN--\":16050:16052   */\n    tag_345:\n        /* \"--CODEGEN--\":16044:16118   */\n      pop\n      jump\t// out\n        /* \"--CODEGEN--\":16125:16240   */\n    tag_175:\n        /* \"--CODEGEN--\":16193:16216   */\n      tag_347\n        /* \"--CODEGEN--\":16210:16215   */\n      dup2\n        /* \"--CODEGEN--\":16193:16216   */\n      tag_321\n      jump\t// in\n    tag_347:\n        /* \"--CODEGEN--\":16186:16191   */\n      dup2\n        /* \"--CODEGEN--\":16183:16217   */\n      eq\n        /* \"--CODEGEN--\":16173:16175   */\n      tag_348\n      jumpi\n        /* \"--CODEGEN--\":16231:16232   */\n      0x00\n        /* \"--CODEGEN--\":16228:16229   */\n      dup1\n        /* \"--CODEGEN--\":16221:16233   */\n      revert\n        /* \"--CODEGEN--\":16173:16175   */\n    tag_348:\n        /* \"--CODEGEN--\":16167:16240   */\n      pop\n      jump\t// out\n\n    auxdata: 0xa264697066735822122084602c78fa1157db880d5e49ca09e2099942b8866b8c337cd0036b8d4f5db84464736f6c634300060c0033\n}\n",
				"bytecode": {
					"linkReferences": {},
					"object": "608060405234801561001057600080fd5b506117aa806100206000396000f3fe608060405234801561001057600080fd5b50600436106100a85760003560e01c80635c39f467116100715780635c39f4671461015c578063726390381461018e578063ae8be2af146101af578063c45a0155146101cd578063ea987a1e146101eb578063f887ea4014610209576100a8565b8062113e08146100ad5780633fc8cef3146100ce578063406d9408146100ec5780634bee93951461010a578063521eb2731461013e575b600080fd5b6100b5610227565b6040516100c594939291906114e9565b60405180910390f35b6100d6610499565b6040516100e391906113f1565b60405180910390f35b6100f46104b1565b60405161010191906113f1565b60405180910390f35b610124600480360381019061011f9190610ff8565b6104c9565b604051610135959493929190611481565b60405180910390f35b6101466107da565b60405161015391906113f1565b60405180910390f35b61017660048036038101906101719190610ff8565b6107f2565b60405161018593929190611435565b60405180910390f35b610196610c37565b6040516101a694939291906114e9565b60405180910390f35b6101b7610edb565b6040516101c491906113f1565b60405180910390f35b6101d5610ef3565b6040516101e291906113f1565b60405180910390f35b6101f3610f0b565b60405161020091906113f1565b60405180910390f35b610211610f23565b60405161021e91906113f1565b60405180910390f35b6060600080600080732362e2981e60aab56b6287ab814da1716d2f4f6d73ffffffffffffffffffffffffffffffffffffffff166370a082317339b48918530ee063bf83728e9acba694d27776f56040518263ffffffff1660e01b815260040161029091906113f1565b60206040518083038186803b1580156102a857600080fd5b505afa1580156102bc573d6000803e3d6000fd5b505050506040513d601f19601f820116820180604052508101906102e091906110da565b90506000737d30a8fb291f8507f9d0ee601336cec132d97dd073ffffffffffffffffffffffffffffffffffffffff166370a082317339b48918530ee063bf83728e9acba694d27776f56040518263ffffffff1660e01b815260040161034591906113f1565b60206040518083038186803b15801561035d57600080fd5b505afa158015610371573d6000803e3d6000fd5b505050506040513d601f19601f8201168201806040525081019061039591906110da565b9050600073ded39e717e29f2f7d1c9ac73b9bb067fc202b2b473ffffffffffffffffffffffffffffffffffffffff166370a082317339b48918530ee063bf83728e9acba694d27776f56040518263ffffffff1660e01b81526004016103fa91906113f1565b60206040518083038186803b15801561041257600080fd5b505afa158015610426573d6000803e3d6000fd5b505050506040513d601f19601f8201168201806040525081019061044a91906110da565b90508282826040518060400160405280601781526020017f62616c616e636520574554482c204c656f2c2044654669000000000000000000815250929190965096509650965050505090919293565b732362e2981e60aab56b6287ab814da1716d2f4f6d81565b737d30a8fb291f8507f9d0ee601336cec132d97dd081565b606080600060606000808690506000808273ffffffffffffffffffffffffffffffffffffffff16630902f1ac6040518163ffffffff1660e01b815260040160606040518083038186803b15801561051f57600080fd5b505afa158015610533573d6000803e3d6000fd5b505050506040513d601f19601f82011682018060405250810190610557919061108b565b506dffffffffffffffffffffffffffff1691506dffffffffffffffffffffffffffff16915060608373ffffffffffffffffffffffffffffffffffffffff16630dfe16816040518163ffffffff1660e01b815260040160206040518083038186803b1580156105c457600080fd5b505afa1580156105d8573d6000803e3d6000fd5b505050506040513d601f19601f820116820180604052508101906105fc9190611021565b73ffffffffffffffffffffffffffffffffffffffff166395d89b416040518163ffffffff1660e01b815260040160006040518083038186803b15801561064157600080fd5b505afa158015610655573d6000803e3d6000fd5b505050506040513d6000823e3d601f19601f8201168201806040525081019061067e919061104a565b905060608473ffffffffffffffffffffffffffffffffffffffff1663d21220a76040518163ffffffff1660e01b815260040160206040518083038186803b1580156106c857600080fd5b505afa1580156106dc573d6000803e3d6000fd5b505050506040513d601f19601f820116820180604052508101906107009190611021565b73ffffffffffffffffffffffffffffffffffffffff166395d89b416040518163ffffffff1660e01b815260040160006040518083038186803b15801561074557600080fd5b505afa158015610759573d6000803e3d6000fd5b505050506040513d6000823e3d601f19601f82011682018060405250810190610782919061104a565b9050818482856040518060400160405280601081526020017f5265736572766573206f662050616972000000000000000000000000000000008152509392919099509950995099509950505050505091939590929450565b7339b48918530ee063bf83728e9acba694d27776f581565b606080606060008490506000808273ffffffffffffffffffffffffffffffffffffffff16630902f1ac6040518163ffffffff1660e01b815260040160606040518083038186803b15801561084557600080fd5b505afa158015610859573d6000803e3d6000fd5b505050506040513d601f19601f8201168201806040525081019061087d919061108b565b506dffffffffffffffffffffffffffff1691506dffffffffffffffffffffffffffff16915060608373ffffffffffffffffffffffffffffffffffffffff16630dfe16816040518163ffffffff1660e01b815260040160206040518083038186803b1580156108ea57600080fd5b505afa1580156108fe573d6000803e3d6000fd5b505050506040513d601f19601f820116820180604052508101906109229190611021565b73ffffffffffffffffffffffffffffffffffffffff166395d89b416040518163ffffffff1660e01b815260040160006040518083038186803b15801561096757600080fd5b505afa15801561097b573d6000803e3d6000fd5b505050506040513d6000823e3d601f19601f820116820180604052508101906109a4919061104a565b905060608473ffffffffffffffffffffffffffffffffffffffff1663d21220a76040518163ffffffff1660e01b815260040160206040518083038186803b1580156109ee57600080fd5b505afa158015610a02573d6000803e3d6000fd5b505050506040513d601f19601f82011682018060405250810190610a269190611021565b73ffffffffffffffffffffffffffffffffffffffff166395d89b416040518163ffffffff1660e01b815260040160006040518083038186803b158015610a6b57600080fd5b505afa158015610a7f573d6000803e3d6000fd5b505050506040513d6000823e3d601f19601f82011682018060405250810190610aa8919061104a565b90506060600767ffffffffffffffff81118015610ac457600080fd5b50604051908082528060200260200182016040528015610af857816020015b6060815260200190600190039081610ae35790505b5090508281600081518110610b0957fe5b60200260200101819052508181600181518110610b2257fe5b60200260200101819052506060604051602001610b3e906113b0565b60405160208183030381529060405290508082600281518110610b5d57fe5b60200260200101819052506060600767ffffffffffffffff81118015610b8257600080fd5b50604051908082528060200260200182016040528015610bb15781602001602082028036833780820191505090505b5090508681600081518110610bc257fe5b6020026020010181815250508581600181518110610bdc57fe5b60200260200101818152505082816040518060400160405280601081526020017f5265736572766573206f6620506169720000000000000000000000000000000081525091909a509a509a5050505050505050509193909250565b6060600080600080733141e4602fd9b3b08029816d0c09ab177fdc9dfa90506000732362e2981e60aab56b6287ab814da1716d2f4f6d905060008173ffffffffffffffffffffffffffffffffffffffff1663dd62ed3e7339b48918530ee063bf83728e9acba694d27776f5856040518363ffffffff1660e01b8152600401610cc092919061140c565b60206040518083038186803b158015610cd857600080fd5b505afa158015610cec573d6000803e3d6000fd5b505050506040513d601f19601f82011682018060405250810190610d1091906110da565b90506000737d30a8fb291f8507f9d0ee601336cec132d97dd0905060008173ffffffffffffffffffffffffffffffffffffffff1663dd62ed3e7339b48918530ee063bf83728e9acba694d27776f5876040518363ffffffff1660e01b8152600401610d7c92919061140c565b60206040518083038186803b158015610d9457600080fd5b505afa158015610da8573d6000803e3d6000fd5b505050506040513d601f19601f82011682018060405250810190610dcc91906110da565b9050600073ded39e717e29f2f7d1c9ac73b9bb067fc202b2b4905060008173ffffffffffffffffffffffffffffffffffffffff1663dd62ed3e7339b48918530ee063bf83728e9acba694d27776f5896040518363ffffffff1660e01b8152600401610e3892919061140c565b60206040518083038186803b158015610e5057600080fd5b505afa158015610e64573d6000803e3d6000fd5b505050506040513d601f19601f82011682018060405250810190610e8891906110da565b90508483826040518060400160405280601981526020017f616c6c6f77616e636520574554482c204c656f2c2044654669000000000000008152509291909a509a509a509a505050505050505090919293565b73c5a8ea7102db001850f433ccfd4abdd7d566bda681565b7336c859726f1d72ebc32ca61b7dc6a3092b416b6681565b73ded39e717e29f2f7d1c9ac73b9bb067fc202b2b481565b733141e4602fd9b3b08029816d0c09ab177fdc9dfa81565b600081359050610f4a81611718565b92915050565b600081519050610f5f81611718565b92915050565b600082601f830112610f7657600080fd5b8151610f89610f8482611562565b611535565b91508082526020830160208301858383011115610fa557600080fd5b610fb08382846116d4565b50505092915050565b600081519050610fc88161172f565b92915050565b600081519050610fdd81611746565b92915050565b600081519050610ff28161175d565b92915050565b60006020828403121561100a57600080fd5b600061101884828501610f3b565b91505092915050565b60006020828403121561103357600080fd5b600061104184828501610f50565b91505092915050565b60006020828403121561105c57600080fd5b600082015167ffffffffffffffff81111561107657600080fd5b61108284828501610f65565b91505092915050565b6000806000606084860312156110a057600080fd5b60006110ae86828701610fb9565b93505060206110bf86828701610fb9565b92505060406110d086828701610fe3565b9150509250925092565b6000602082840312156110ec57600080fd5b60006110fa84828501610fce565b91505092915050565b600061110f8383611220565b905092915050565b60006111238383611392565b60208301905092915050565b6111388161169e565b82525050565b61114781611638565b82525050565b6000611158826115ae565b61116281856115e9565b9350836020820285016111748561158e565b8060005b858110156111b057848403895281516111918582611103565b945061119c836115cf565b925060208a01995050600181019050611178565b50829750879550505050505092915050565b60006111cd826115b9565b6111d781856115fa565b93506111e28361159e565b8060005b838110156112135781516111fa8882611117565b9750611205836115dc565b9250506001810190506111e6565b5085935050505092915050565b600061122b826115c4565b611235818561160b565b93506112458185602086016116d4565b61124e81611707565b840191505092915050565b6000611264826115c4565b61126e818561161c565b935061127e8185602086016116d4565b61128781611707565b840191505092915050565b600061129f60018361162d565b91507f61000000000000000000000000000000000000000000000000000000000000006000830152600182019050919050565b60006112df60018361162d565b91507f20000000000000000000000000000000000000000000000000000000000000006000830152600182019050919050565b600061131f60068361162d565b91507f737472696e6700000000000000000000000000000000000000000000000000006000830152600682019050919050565b600061135f600c8361162d565b91507f636f6e636174656e6174656400000000000000000000000000000000000000006000830152600c82019050919050565b61139b81611684565b82525050565b6113aa81611684565b82525050565b60006113bb82611292565b91506113c6826112d2565b91506113d182611352565b91506113dc826112d2565b91506113e782611312565b9150819050919050565b6000602082019050611406600083018461113e565b92915050565b6000604082019050611421600083018561113e565b61142e602083018461112f565b9392505050565b6000606082019050818103600083015261144f8186611259565b90508181036020830152611463818561114d565b9050818103604083015261147781846111c2565b9050949350505050565b600060a082019050818103600083015261149b8188611259565b905081810360208301526114af8187611259565b90506114be60408301866113a1565b81810360608301526114d08185611259565b90506114df60808301846113a1565b9695505050505050565b600060808201905081810360008301526115038187611259565b905061151260208301866113a1565b61151f60408301856113a1565b61152c60608301846113a1565b95945050505050565b6000604051905081810181811067ffffffffffffffff8211171561155857600080fd5b8060405250919050565b600067ffffffffffffffff82111561157957600080fd5b601f19601f8301169050602081019050919050565b6000819050602082019050919050565b6000819050602082019050919050565b600081519050919050565b600081519050919050565b600081519050919050565b6000602082019050919050565b6000602082019050919050565b600082825260208201905092915050565b600082825260208201905092915050565b600082825260208201905092915050565b600082825260208201905092915050565b600081905092915050565b600061164382611664565b9050919050565b60006dffffffffffffffffffffffffffff82169050919050565b600073ffffffffffffffffffffffffffffffffffffffff82169050919050565b6000819050919050565b600063ffffffff82169050919050565b60006116a9826116b0565b9050919050565b60006116bb826116c2565b9050919050565b60006116cd82611664565b9050919050565b60005b838110156116f25780820151818401526020810190506116d7565b83811115611701576000848401525b50505050565b6000601f19601f8301169050919050565b61172181611638565b811461172c57600080fd5b50565b6117388161164a565b811461174357600080fd5b50565b61174f81611684565b811461175a57600080fd5b50565b6117668161168e565b811461177157600080fd5b5056fea264697066735822122084602c78fa1157db880d5e49ca09e2099942b8866b8c337cd0036b8d4f5db84464736f6c634300060c0033",
					"opcodes": "PUSH1 0x80 PUSH1 0x40 MSTORE CALLVALUE DUP1 ISZERO PUSH2 0x10 JUMPI PUSH1 0x0 DUP1 REVERT JUMPDEST POP PUSH2 0x17AA DUP1 PUSH2 0x20 PUSH1 0x0 CODECOPY PUSH1 0x0 RETURN INVALID PUSH1 0x80 PUSH1 0x40 MSTORE CALLVALUE DUP1 ISZERO PUSH2 0x10 JUMPI PUSH1 0x0 DUP1 REVERT JUMPDEST POP PUSH1 0x4 CALLDATASIZE LT PUSH2 0xA8 JUMPI PUSH1 0x0 CALLDATALOAD PUSH1 0xE0 SHR DUP1 PUSH4 0x5C39F467 GT PUSH2 0x71 JUMPI DUP1 PUSH4 0x5C39F467 EQ PUSH2 0x15C JUMPI DUP1 PUSH4 0x72639038 EQ PUSH2 0x18E JUMPI DUP1 PUSH4 0xAE8BE2AF EQ PUSH2 0x1AF JUMPI DUP1 PUSH4 0xC45A0155 EQ PUSH2 0x1CD JUMPI DUP1 PUSH4 0xEA987A1E EQ PUSH2 0x1EB JUMPI DUP1 PUSH4 0xF887EA40 EQ PUSH2 0x209 JUMPI PUSH2 0xA8 JUMP JUMPDEST DUP1 PUSH3 0x113E08 EQ PUSH2 0xAD JUMPI DUP1 PUSH4 0x3FC8CEF3 EQ PUSH2 0xCE JUMPI DUP1 PUSH4 0x406D9408 EQ PUSH2 0xEC JUMPI DUP1 PUSH4 0x4BEE9395 EQ PUSH2 0x10A JUMPI DUP1 PUSH4 0x521EB273 EQ PUSH2 0x13E JUMPI JUMPDEST PUSH1 0x0 DUP1 REVERT JUMPDEST PUSH2 0xB5 PUSH2 0x227 JUMP JUMPDEST PUSH1 0x40 MLOAD PUSH2 0xC5 SWAP5 SWAP4 SWAP3 SWAP2 SWAP1 PUSH2 0x14E9 JUMP JUMPDEST PUSH1 0x40 MLOAD DUP1 SWAP2 SUB SWAP1 RETURN JUMPDEST PUSH2 0xD6 PUSH2 0x499 JUMP JUMPDEST PUSH1 0x40 MLOAD PUSH2 0xE3 SWAP2 SWAP1 PUSH2 0x13F1 JUMP JUMPDEST PUSH1 0x40 MLOAD DUP1 SWAP2 SUB SWAP1 RETURN JUMPDEST PUSH2 0xF4 PUSH2 0x4B1 JUMP JUMPDEST PUSH1 0x40 MLOAD PUSH2 0x101 SWAP2 SWAP1 PUSH2 0x13F1 JUMP JUMPDEST PUSH1 0x40 MLOAD DUP1 SWAP2 SUB SWAP1 RETURN JUMPDEST PUSH2 0x124 PUSH1 0x4 DUP1 CALLDATASIZE SUB DUP2 ADD SWAP1 PUSH2 0x11F SWAP2 SWAP1 PUSH2 0xFF8 JUMP JUMPDEST PUSH2 0x4C9 JUMP JUMPDEST PUSH1 0x40 MLOAD PUSH2 0x135 SWAP6 SWAP5 SWAP4 SWAP3 SWAP2 SWAP1 PUSH2 0x1481 JUMP JUMPDEST PUSH1 0x40 MLOAD DUP1 SWAP2 SUB SWAP1 RETURN JUMPDEST PUSH2 0x146 PUSH2 0x7DA JUMP JUMPDEST PUSH1 0x40 MLOAD PUSH2 0x153 SWAP2 SWAP1 PUSH2 0x13F1 JUMP JUMPDEST PUSH1 0x40 MLOAD DUP1 SWAP2 SUB SWAP1 RETURN JUMPDEST PUSH2 0x176 PUSH1 0x4 DUP1 CALLDATASIZE SUB DUP2 ADD SWAP1 PUSH2 0x171 SWAP2 SWAP1 PUSH2 0xFF8 JUMP JUMPDEST PUSH2 0x7F2 JUMP JUMPDEST PUSH1 0x40 MLOAD PUSH2 0x185 SWAP4 SWAP3 SWAP2 SWAP1 PUSH2 0x1435 JUMP JUMPDEST PUSH1 0x40 MLOAD DUP1 SWAP2 SUB SWAP1 RETURN JUMPDEST PUSH2 0x196 PUSH2 0xC37 JUMP JUMPDEST PUSH1 0x40 MLOAD PUSH2 0x1A6 SWAP5 SWAP4 SWAP3 SWAP2 SWAP1 PUSH2 0x14E9 JUMP JUMPDEST PUSH1 0x40 MLOAD DUP1 SWAP2 SUB SWAP1 RETURN JUMPDEST PUSH2 0x1B7 PUSH2 0xEDB JUMP JUMPDEST PUSH1 0x40 MLOAD PUSH2 0x1C4 SWAP2 SWAP1 PUSH2 0x13F1 JUMP JUMPDEST PUSH1 0x40 MLOAD DUP1 SWAP2 SUB SWAP1 RETURN JUMPDEST PUSH2 0x1D5 PUSH2 0xEF3 JUMP JUMPDEST PUSH1 0x40 MLOAD PUSH2 0x1E2 SWAP2 SWAP1 PUSH2 0x13F1 JUMP JUMPDEST PUSH1 0x40 MLOAD DUP1 SWAP2 SUB SWAP1 RETURN JUMPDEST PUSH2 0x1F3 PUSH2 0xF0B JUMP JUMPDEST PUSH1 0x40 MLOAD PUSH2 0x200 SWAP2 SWAP1 PUSH2 0x13F1 JUMP JUMPDEST PUSH1 0x40 MLOAD DUP1 SWAP2 SUB SWAP1 RETURN JUMPDEST PUSH2 0x211 PUSH2 0xF23 JUMP JUMPDEST PUSH1 0x40 MLOAD PUSH2 0x21E SWAP2 SWAP1 PUSH2 0x13F1 JUMP JUMPDEST PUSH1 0x40 MLOAD DUP1 SWAP2 SUB SWAP1 RETURN JUMPDEST PUSH1 0x60 PUSH1 0x0 DUP1 PUSH1 0x0 DUP1 PUSH20 0x2362E2981E60AAB56B6287AB814DA1716D2F4F6D PUSH20 0xFFFFFFFFFFFFFFFFFFFFFFFFFFFFFFFFFFFFFFFF AND PUSH4 0x70A08231 PUSH20 0x39B48918530EE063BF83728E9ACBA694D27776F5 PUSH1 0x40 MLOAD DUP3 PUSH4 0xFFFFFFFF AND PUSH1 0xE0 SHL DUP2 MSTORE PUSH1 0x4 ADD PUSH2 0x290 SWAP2 SWAP1 PUSH2 0x13F1 JUMP JUMPDEST PUSH1 0x20 PUSH1 0x40 MLOAD DUP1 DUP4 SUB DUP2 DUP7 DUP1 EXTCODESIZE ISZERO DUP1 ISZERO PUSH2 0x2A8 JUMPI PUSH1 0x0 DUP1 REVERT JUMPDEST POP GAS STATICCALL ISZERO DUP1 ISZERO PUSH2 0x2BC JUMPI RETURNDATASIZE PUSH1 0x0 DUP1 RETURNDATACOPY RETURNDATASIZE PUSH1 0x0 REVERT JUMPDEST POP POP POP POP PUSH1 0x40 MLOAD RETURNDATASIZE PUSH1 0x1F NOT PUSH1 0x1F DUP3 ADD AND DUP3 ADD DUP1 PUSH1 0x40 MSTORE POP DUP2 ADD SWAP1 PUSH2 0x2E0 SWAP2 SWAP1 PUSH2 0x10DA JUMP JUMPDEST SWAP1 POP PUSH1 0x0 PUSH20 0x7D30A8FB291F8507F9D0EE601336CEC132D97DD0 PUSH20 0xFFFFFFFFFFFFFFFFFFFFFFFFFFFFFFFFFFFFFFFF AND PUSH4 0x70A08231 PUSH20 0x39B48918530EE063BF83728E9ACBA694D27776F5 PUSH1 0x40 MLOAD DUP3 PUSH4 0xFFFFFFFF AND PUSH1 0xE0 SHL DUP2 MSTORE PUSH1 0x4 ADD PUSH2 0x345 SWAP2 SWAP1 PUSH2 0x13F1 JUMP JUMPDEST PUSH1 0x20 PUSH1 0x40 MLOAD DUP1 DUP4 SUB DUP2 DUP7 DUP1 EXTCODESIZE ISZERO DUP1 ISZERO PUSH2 0x35D JUMPI PUSH1 0x0 DUP1 REVERT JUMPDEST POP GAS STATICCALL ISZERO DUP1 ISZERO PUSH2 0x371 JUMPI RETURNDATASIZE PUSH1 0x0 DUP1 RETURNDATACOPY RETURNDATASIZE PUSH1 0x0 REVERT JUMPDEST POP POP POP POP PUSH1 0x40 MLOAD RETURNDATASIZE PUSH1 0x1F NOT PUSH1 0x1F DUP3 ADD AND DUP3 ADD DUP1 PUSH1 0x40 MSTORE POP DUP2 ADD SWAP1 PUSH2 0x395 SWAP2 SWAP1 PUSH2 0x10DA JUMP JUMPDEST SWAP1 POP PUSH1 0x0 PUSH20 0xDED39E717E29F2F7D1C9AC73B9BB067FC202B2B4 PUSH20 0xFFFFFFFFFFFFFFFFFFFFFFFFFFFFFFFFFFFFFFFF AND PUSH4 0x70A08231 PUSH20 0x39B48918530EE063BF83728E9ACBA694D27776F5 PUSH1 0x40 MLOAD DUP3 PUSH4 0xFFFFFFFF AND PUSH1 0xE0 SHL DUP2 MSTORE PUSH1 0x4 ADD PUSH2 0x3FA SWAP2 SWAP1 PUSH2 0x13F1 JUMP JUMPDEST PUSH1 0x20 PUSH1 0x40 MLOAD DUP1 DUP4 SUB DUP2 DUP7 DUP1 EXTCODESIZE ISZERO DUP1 ISZERO PUSH2 0x412 JUMPI PUSH1 0x0 DUP1 REVERT JUMPDEST POP GAS STATICCALL ISZERO DUP1 ISZERO PUSH2 0x426 JUMPI RETURNDATASIZE PUSH1 0x0 DUP1 RETURNDATACOPY RETURNDATASIZE PUSH1 0x0 REVERT JUMPDEST POP POP POP POP PUSH1 0x40 MLOAD RETURNDATASIZE PUSH1 0x1F NOT PUSH1 0x1F DUP3 ADD AND DUP3 ADD DUP1 PUSH1 0x40 MSTORE POP DUP2 ADD SWAP1 PUSH2 0x44A SWAP2 SWAP1 PUSH2 0x10DA JUMP JUMPDEST SWAP1 POP DUP3 DUP3 DUP3 PUSH1 0x40 MLOAD DUP1 PUSH1 0x40 ADD PUSH1 0x40 MSTORE DUP1 PUSH1 0x17 DUP2 MSTORE PUSH1 0x20 ADD PUSH32 0x62616C616E636520574554482C204C656F2C2044654669000000000000000000 DUP2 MSTORE POP SWAP3 SWAP2 SWAP1 SWAP7 POP SWAP7 POP SWAP7 POP SWAP7 POP POP POP POP SWAP1 SWAP2 SWAP3 SWAP4 JUMP JUMPDEST PUSH20 0x2362E2981E60AAB56B6287AB814DA1716D2F4F6D DUP2 JUMP JUMPDEST PUSH20 0x7D30A8FB291F8507F9D0EE601336CEC132D97DD0 DUP2 JUMP JUMPDEST PUSH1 0x60 DUP1 PUSH1 0x0 PUSH1 0x60 PUSH1 0x0 DUP1 DUP7 SWAP1 POP PUSH1 0x0 DUP1 DUP3 PUSH20 0xFFFFFFFFFFFFFFFFFFFFFFFFFFFFFFFFFFFFFFFF AND PUSH4 0x902F1AC PUSH1 0x40 MLOAD DUP2 PUSH4 0xFFFFFFFF AND PUSH1 0xE0 SHL DUP2 MSTORE PUSH1 0x4 ADD PUSH1 0x60 PUSH1 0x40 MLOAD DUP1 DUP4 SUB DUP2 DUP7 DUP1 EXTCODESIZE ISZERO DUP1 ISZERO PUSH2 0x51F JUMPI PUSH1 0x0 DUP1 REVERT JUMPDEST POP GAS STATICCALL ISZERO DUP1 ISZERO PUSH2 0x533 JUMPI RETURNDATASIZE PUSH1 0x0 DUP1 RETURNDATACOPY RETURNDATASIZE PUSH1 0x0 REVERT JUMPDEST POP POP POP POP PUSH1 0x40 MLOAD RETURNDATASIZE PUSH1 0x1F NOT PUSH1 0x1F DUP3 ADD AND DUP3 ADD DUP1 PUSH1 0x40 MSTORE POP DUP2 ADD SWAP1 PUSH2 0x557 SWAP2 SWAP1 PUSH2 0x108B JUMP JUMPDEST POP PUSH14 0xFFFFFFFFFFFFFFFFFFFFFFFFFFFF AND SWAP2 POP PUSH14 0xFFFFFFFFFFFFFFFFFFFFFFFFFFFF AND SWAP2 POP PUSH1 0x60 DUP4 PUSH20 0xFFFFFFFFFFFFFFFFFFFFFFFFFFFFFFFFFFFFFFFF AND PUSH4 0xDFE1681 PUSH1 0x40 MLOAD DUP2 PUSH4 0xFFFFFFFF AND PUSH1 0xE0 SHL DUP2 MSTORE PUSH1 0x4 ADD PUSH1 0x20 PUSH1 0x40 MLOAD DUP1 DUP4 SUB DUP2 DUP7 DUP1 EXTCODESIZE ISZERO DUP1 ISZERO PUSH2 0x5C4 JUMPI PUSH1 0x0 DUP1 REVERT JUMPDEST POP GAS STATICCALL ISZERO DUP1 ISZERO PUSH2 0x5D8 JUMPI RETURNDATASIZE PUSH1 0x0 DUP1 RETURNDATACOPY RETURNDATASIZE PUSH1 0x0 REVERT JUMPDEST POP POP POP POP PUSH1 0x40 MLOAD RETURNDATASIZE PUSH1 0x1F NOT PUSH1 0x1F DUP3 ADD AND DUP3 ADD DUP1 PUSH1 0x40 MSTORE POP DUP2 ADD SWAP1 PUSH2 0x5FC SWAP2 SWAP1 PUSH2 0x1021 JUMP JUMPDEST PUSH20 0xFFFFFFFFFFFFFFFFFFFFFFFFFFFFFFFFFFFFFFFF AND PUSH4 0x95D89B41 PUSH1 0x40 MLOAD DUP2 PUSH4 0xFFFFFFFF AND PUSH1 0xE0 SHL DUP2 MSTORE PUSH1 0x4 ADD PUSH1 0x0 PUSH1 0x40 MLOAD DUP1 DUP4 SUB DUP2 DUP7 DUP1 EXTCODESIZE ISZERO DUP1 ISZERO PUSH2 0x641 JUMPI PUSH1 0x0 DUP1 REVERT JUMPDEST POP GAS STATICCALL ISZERO DUP1 ISZERO PUSH2 0x655 JUMPI RETURNDATASIZE PUSH1 0x0 DUP1 RETURNDATACOPY RETURNDATASIZE PUSH1 0x0 REVERT JUMPDEST POP POP POP POP PUSH1 0x40 MLOAD RETURNDATASIZE PUSH1 0x0 DUP3 RETURNDATACOPY RETURNDATASIZE PUSH1 0x1F NOT PUSH1 0x1F DUP3 ADD AND DUP3 ADD DUP1 PUSH1 0x40 MSTORE POP DUP2 ADD SWAP1 PUSH2 0x67E SWAP2 SWAP1 PUSH2 0x104A JUMP JUMPDEST SWAP1 POP PUSH1 0x60 DUP5 PUSH20 0xFFFFFFFFFFFFFFFFFFFFFFFFFFFFFFFFFFFFFFFF AND PUSH4 0xD21220A7 PUSH1 0x40 MLOAD DUP2 PUSH4 0xFFFFFFFF AND PUSH1 0xE0 SHL DUP2 MSTORE PUSH1 0x4 ADD PUSH1 0x20 PUSH1 0x40 MLOAD DUP1 DUP4 SUB DUP2 DUP7 DUP1 EXTCODESIZE ISZERO DUP1 ISZERO PUSH2 0x6C8 JUMPI PUSH1 0x0 DUP1 REVERT JUMPDEST POP GAS STATICCALL ISZERO DUP1 ISZERO PUSH2 0x6DC JUMPI RETURNDATASIZE PUSH1 0x0 DUP1 RETURNDATACOPY RETURNDATASIZE PUSH1 0x0 REVERT JUMPDEST POP POP POP POP PUSH1 0x40 MLOAD RETURNDATASIZE PUSH1 0x1F NOT PUSH1 0x1F DUP3 ADD AND DUP3 ADD DUP1 PUSH1 0x40 MSTORE POP DUP2 ADD SWAP1 PUSH2 0x700 SWAP2 SWAP1 PUSH2 0x1021 JUMP JUMPDEST PUSH20 0xFFFFFFFFFFFFFFFFFFFFFFFFFFFFFFFFFFFFFFFF AND PUSH4 0x95D89B41 PUSH1 0x40 MLOAD DUP2 PUSH4 0xFFFFFFFF AND PUSH1 0xE0 SHL DUP2 MSTORE PUSH1 0x4 ADD PUSH1 0x0 PUSH1 0x40 MLOAD DUP1 DUP4 SUB DUP2 DUP7 DUP1 EXTCODESIZE ISZERO DUP1 ISZERO PUSH2 0x745 JUMPI PUSH1 0x0 DUP1 REVERT JUMPDEST POP GAS STATICCALL ISZERO DUP1 ISZERO PUSH2 0x759 JUMPI RETURNDATASIZE PUSH1 0x0 DUP1 RETURNDATACOPY RETURNDATASIZE PUSH1 0x0 REVERT JUMPDEST POP POP POP POP PUSH1 0x40 MLOAD RETURNDATASIZE PUSH1 0x0 DUP3 RETURNDATACOPY RETURNDATASIZE PUSH1 0x1F NOT PUSH1 0x1F DUP3 ADD AND DUP3 ADD DUP1 PUSH1 0x40 MSTORE POP DUP2 ADD SWAP1 PUSH2 0x782 SWAP2 SWAP1 PUSH2 0x104A JUMP JUMPDEST SWAP1 POP DUP2 DUP5 DUP3 DUP6 PUSH1 0x40 MLOAD DUP1 PUSH1 0x40 ADD PUSH1 0x40 MSTORE DUP1 PUSH1 0x10 DUP2 MSTORE PUSH1 0x20 ADD PUSH32 0x5265736572766573206F66205061697200000000000000000000000000000000 DUP2 MSTORE POP SWAP4 SWAP3 SWAP2 SWAP1 SWAP10 POP SWAP10 POP SWAP10 POP SWAP10 POP SWAP10 POP POP POP POP POP POP SWAP2 SWAP4 SWAP6 SWAP1 SWAP3 SWAP5 POP JUMP JUMPDEST PUSH20 0x39B48918530EE063BF83728E9ACBA694D27776F5 DUP2 JUMP JUMPDEST PUSH1 0x60 DUP1 PUSH1 0x60 PUSH1 0x0 DUP5 SWAP1 POP PUSH1 0x0 DUP1 DUP3 PUSH20 0xFFFFFFFFFFFFFFFFFFFFFFFFFFFFFFFFFFFFFFFF AND PUSH4 0x902F1AC PUSH1 0x40 MLOAD DUP2 PUSH4 0xFFFFFFFF AND PUSH1 0xE0 SHL DUP2 MSTORE PUSH1 0x4 ADD PUSH1 0x60 PUSH1 0x40 MLOAD DUP1 DUP4 SUB DUP2 DUP7 DUP1 EXTCODESIZE ISZERO DUP1 ISZERO PUSH2 0x845 JUMPI PUSH1 0x0 DUP1 REVERT JUMPDEST POP GAS STATICCALL ISZERO DUP1 ISZERO PUSH2 0x859 JUMPI RETURNDATASIZE PUSH1 0x0 DUP1 RETURNDATACOPY RETURNDATASIZE PUSH1 0x0 REVERT JUMPDEST POP POP POP POP PUSH1 0x40 MLOAD RETURNDATASIZE PUSH1 0x1F NOT PUSH1 0x1F DUP3 ADD AND DUP3 ADD DUP1 PUSH1 0x40 MSTORE POP DUP2 ADD SWAP1 PUSH2 0x87D SWAP2 SWAP1 PUSH2 0x108B JUMP JUMPDEST POP PUSH14 0xFFFFFFFFFFFFFFFFFFFFFFFFFFFF AND SWAP2 POP PUSH14 0xFFFFFFFFFFFFFFFFFFFFFFFFFFFF AND SWAP2 POP PUSH1 0x60 DUP4 PUSH20 0xFFFFFFFFFFFFFFFFFFFFFFFFFFFFFFFFFFFFFFFF AND PUSH4 0xDFE1681 PUSH1 0x40 MLOAD DUP2 PUSH4 0xFFFFFFFF AND PUSH1 0xE0 SHL DUP2 MSTORE PUSH1 0x4 ADD PUSH1 0x20 PUSH1 0x40 MLOAD DUP1 DUP4 SUB DUP2 DUP7 DUP1 EXTCODESIZE ISZERO DUP1 ISZERO PUSH2 0x8EA JUMPI PUSH1 0x0 DUP1 REVERT JUMPDEST POP GAS STATICCALL ISZERO DUP1 ISZERO PUSH2 0x8FE JUMPI RETURNDATASIZE PUSH1 0x0 DUP1 RETURNDATACOPY RETURNDATASIZE PUSH1 0x0 REVERT JUMPDEST POP POP POP POP PUSH1 0x40 MLOAD RETURNDATASIZE PUSH1 0x1F NOT PUSH1 0x1F DUP3 ADD AND DUP3 ADD DUP1 PUSH1 0x40 MSTORE POP DUP2 ADD SWAP1 PUSH2 0x922 SWAP2 SWAP1 PUSH2 0x1021 JUMP JUMPDEST PUSH20 0xFFFFFFFFFFFFFFFFFFFFFFFFFFFFFFFFFFFFFFFF AND PUSH4 0x95D89B41 PUSH1 0x40 MLOAD DUP2 PUSH4 0xFFFFFFFF AND PUSH1 0xE0 SHL DUP2 MSTORE PUSH1 0x4 ADD PUSH1 0x0 PUSH1 0x40 MLOAD DUP1 DUP4 SUB DUP2 DUP7 DUP1 EXTCODESIZE ISZERO DUP1 ISZERO PUSH2 0x967 JUMPI PUSH1 0x0 DUP1 REVERT JUMPDEST POP GAS STATICCALL ISZERO DUP1 ISZERO PUSH2 0x97B JUMPI RETURNDATASIZE PUSH1 0x0 DUP1 RETURNDATACOPY RETURNDATASIZE PUSH1 0x0 REVERT JUMPDEST POP POP POP POP PUSH1 0x40 MLOAD RETURNDATASIZE PUSH1 0x0 DUP3 RETURNDATACOPY RETURNDATASIZE PUSH1 0x1F NOT PUSH1 0x1F DUP3 ADD AND DUP3 ADD DUP1 PUSH1 0x40 MSTORE POP DUP2 ADD SWAP1 PUSH2 0x9A4 SWAP2 SWAP1 PUSH2 0x104A JUMP JUMPDEST SWAP1 POP PUSH1 0x60 DUP5 PUSH20 0xFFFFFFFFFFFFFFFFFFFFFFFFFFFFFFFFFFFFFFFF AND PUSH4 0xD21220A7 PUSH1 0x40 MLOAD DUP2 PUSH4 0xFFFFFFFF AND PUSH1 0xE0 SHL DUP2 MSTORE PUSH1 0x4 ADD PUSH1 0x20 PUSH1 0x40 MLOAD DUP1 DUP4 SUB DUP2 DUP7 DUP1 EXTCODESIZE ISZERO DUP1 ISZERO PUSH2 0x9EE JUMPI PUSH1 0x0 DUP1 REVERT JUMPDEST POP GAS STATICCALL ISZERO DUP1 ISZERO PUSH2 0xA02 JUMPI RETURNDATASIZE PUSH1 0x0 DUP1 RETURNDATACOPY RETURNDATASIZE PUSH1 0x0 REVERT JUMPDEST POP POP POP POP PUSH1 0x40 MLOAD RETURNDATASIZE PUSH1 0x1F NOT PUSH1 0x1F DUP3 ADD AND DUP3 ADD DUP1 PUSH1 0x40 MSTORE POP DUP2 ADD SWAP1 PUSH2 0xA26 SWAP2 SWAP1 PUSH2 0x1021 JUMP JUMPDEST PUSH20 0xFFFFFFFFFFFFFFFFFFFFFFFFFFFFFFFFFFFFFFFF AND PUSH4 0x95D89B41 PUSH1 0x40 MLOAD DUP2 PUSH4 0xFFFFFFFF AND PUSH1 0xE0 SHL DUP2 MSTORE PUSH1 0x4 ADD PUSH1 0x0 PUSH1 0x40 MLOAD DUP1 DUP4 SUB DUP2 DUP7 DUP1 EXTCODESIZE ISZERO DUP1 ISZERO PUSH2 0xA6B JUMPI PUSH1 0x0 DUP1 REVERT JUMPDEST POP GAS STATICCALL ISZERO DUP1 ISZERO PUSH2 0xA7F JUMPI RETURNDATASIZE PUSH1 0x0 DUP1 RETURNDATACOPY RETURNDATASIZE PUSH1 0x0 REVERT JUMPDEST POP POP POP POP PUSH1 0x40 MLOAD RETURNDATASIZE PUSH1 0x0 DUP3 RETURNDATACOPY RETURNDATASIZE PUSH1 0x1F NOT PUSH1 0x1F DUP3 ADD AND DUP3 ADD DUP1 PUSH1 0x40 MSTORE POP DUP2 ADD SWAP1 PUSH2 0xAA8 SWAP2 SWAP1 PUSH2 0x104A JUMP JUMPDEST SWAP1 POP PUSH1 0x60 PUSH1 0x7 PUSH8 0xFFFFFFFFFFFFFFFF DUP2 GT DUP1 ISZERO PUSH2 0xAC4 JUMPI PUSH1 0x0 DUP1 REVERT JUMPDEST POP PUSH1 0x40 MLOAD SWAP1 DUP1 DUP3 MSTORE DUP1 PUSH1 0x20 MUL PUSH1 0x20 ADD DUP3 ADD PUSH1 0x40 MSTORE DUP1 ISZERO PUSH2 0xAF8 JUMPI DUP2 PUSH1 0x20 ADD JUMPDEST PUSH1 0x60 DUP2 MSTORE PUSH1 0x20 ADD SWAP1 PUSH1 0x1 SWAP1 SUB SWAP1 DUP2 PUSH2 0xAE3 JUMPI SWAP1 POP JUMPDEST POP SWAP1 POP DUP3 DUP2 PUSH1 0x0 DUP2 MLOAD DUP2 LT PUSH2 0xB09 JUMPI INVALID JUMPDEST PUSH1 0x20 MUL PUSH1 0x20 ADD ADD DUP2 SWAP1 MSTORE POP DUP2 DUP2 PUSH1 0x1 DUP2 MLOAD DUP2 LT PUSH2 0xB22 JUMPI INVALID JUMPDEST PUSH1 0x20 MUL PUSH1 0x20 ADD ADD DUP2 SWAP1 MSTORE POP PUSH1 0x60 PUSH1 0x40 MLOAD PUSH1 0x20 ADD PUSH2 0xB3E SWAP1 PUSH2 0x13B0 JUMP JUMPDEST PUSH1 0x40 MLOAD PUSH1 0x20 DUP2 DUP4 SUB SUB DUP2 MSTORE SWAP1 PUSH1 0x40 MSTORE SWAP1 POP DUP1 DUP3 PUSH1 0x2 DUP2 MLOAD DUP2 LT PUSH2 0xB5D JUMPI INVALID JUMPDEST PUSH1 0x20 MUL PUSH1 0x20 ADD ADD DUP2 SWAP1 MSTORE POP PUSH1 0x60 PUSH1 0x7 PUSH8 0xFFFFFFFFFFFFFFFF DUP2 GT DUP1 ISZERO PUSH2 0xB82 JUMPI PUSH1 0x0 DUP1 REVERT JUMPDEST POP PUSH1 0x40 MLOAD SWAP1 DUP1 DUP3 MSTORE DUP1 PUSH1 0x20 MUL PUSH1 0x20 ADD DUP3 ADD PUSH1 0x40 MSTORE DUP1 ISZERO PUSH2 0xBB1 JUMPI DUP2 PUSH1 0x20 ADD PUSH1 0x20 DUP3 MUL DUP1 CALLDATASIZE DUP4 CALLDATACOPY DUP1 DUP3 ADD SWAP2 POP POP SWAP1 POP JUMPDEST POP SWAP1 POP DUP7 DUP2 PUSH1 0x0 DUP2 MLOAD DUP2 LT PUSH2 0xBC2 JUMPI INVALID JUMPDEST PUSH1 0x20 MUL PUSH1 0x20 ADD ADD DUP2 DUP2 MSTORE POP POP DUP6 DUP2 PUSH1 0x1 DUP2 MLOAD DUP2 LT PUSH2 0xBDC JUMPI INVALID JUMPDEST PUSH1 0x20 MUL PUSH1 0x20 ADD ADD DUP2 DUP2 MSTORE POP POP DUP3 DUP2 PUSH1 0x40 MLOAD DUP1 PUSH1 0x40 ADD PUSH1 0x40 MSTORE DUP1 PUSH1 0x10 DUP2 MSTORE PUSH1 0x20 ADD PUSH32 0x5265736572766573206F66205061697200000000000000000000000000000000 DUP2 MSTORE POP SWAP2 SWAP1 SWAP11 POP SWAP11 POP SWAP11 POP POP POP POP POP POP POP POP POP SWAP2 SWAP4 SWAP1 SWAP3 POP JUMP JUMPDEST PUSH1 0x60 PUSH1 0x0 DUP1 PUSH1 0x0 DUP1 PUSH20 0x3141E4602FD9B3B08029816D0C09AB177FDC9DFA SWAP1 POP PUSH1 0x0 PUSH20 0x2362E2981E60AAB56B6287AB814DA1716D2F4F6D SWAP1 POP PUSH1 0x0 DUP2 PUSH20 0xFFFFFFFFFFFFFFFFFFFFFFFFFFFFFFFFFFFFFFFF AND PUSH4 0xDD62ED3E PUSH20 0x39B48918530EE063BF83728E9ACBA694D27776F5 DUP6 PUSH1 0x40 MLOAD DUP4 PUSH4 0xFFFFFFFF AND PUSH1 0xE0 SHL DUP2 MSTORE PUSH1 0x4 ADD PUSH2 0xCC0 SWAP3 SWAP2 SWAP1 PUSH2 0x140C JUMP JUMPDEST PUSH1 0x20 PUSH1 0x40 MLOAD DUP1 DUP4 SUB DUP2 DUP7 DUP1 EXTCODESIZE ISZERO DUP1 ISZERO PUSH2 0xCD8 JUMPI PUSH1 0x0 DUP1 REVERT JUMPDEST POP GAS STATICCALL ISZERO DUP1 ISZERO PUSH2 0xCEC JUMPI RETURNDATASIZE PUSH1 0x0 DUP1 RETURNDATACOPY RETURNDATASIZE PUSH1 0x0 REVERT JUMPDEST POP POP POP POP PUSH1 0x40 MLOAD RETURNDATASIZE PUSH1 0x1F NOT PUSH1 0x1F DUP3 ADD AND DUP3 ADD DUP1 PUSH1 0x40 MSTORE POP DUP2 ADD SWAP1 PUSH2 0xD10 SWAP2 SWAP1 PUSH2 0x10DA JUMP JUMPDEST SWAP1 POP PUSH1 0x0 PUSH20 0x7D30A8FB291F8507F9D0EE601336CEC132D97DD0 SWAP1 POP PUSH1 0x0 DUP2 PUSH20 0xFFFFFFFFFFFFFFFFFFFFFFFFFFFFFFFFFFFFFFFF AND PUSH4 0xDD62ED3E PUSH20 0x39B48918530EE063BF83728E9ACBA694D27776F5 DUP8 PUSH1 0x40 MLOAD DUP4 PUSH4 0xFFFFFFFF AND PUSH1 0xE0 SHL DUP2 MSTORE PUSH1 0x4 ADD PUSH2 0xD7C SWAP3 SWAP2 SWAP1 PUSH2 0x140C JUMP JUMPDEST PUSH1 0x20 PUSH1 0x40 MLOAD DUP1 DUP4 SUB DUP2 DUP7 DUP1 EXTCODESIZE ISZERO DUP1 ISZERO PUSH2 0xD94 JUMPI PUSH1 0x0 DUP1 REVERT JUMPDEST POP GAS STATICCALL ISZERO DUP1 ISZERO PUSH2 0xDA8 JUMPI RETURNDATASIZE PUSH1 0x0 DUP1 RETURNDATACOPY RETURNDATASIZE PUSH1 0x0 REVERT JUMPDEST POP POP POP POP PUSH1 0x40 MLOAD RETURNDATASIZE PUSH1 0x1F NOT PUSH1 0x1F DUP3 ADD AND DUP3 ADD DUP1 PUSH1 0x40 MSTORE POP DUP2 ADD SWAP1 PUSH2 0xDCC SWAP2 SWAP1 PUSH2 0x10DA JUMP JUMPDEST SWAP1 POP PUSH1 0x0 PUSH20 0xDED39E717E29F2F7D1C9AC73B9BB067FC202B2B4 SWAP1 POP PUSH1 0x0 DUP2 PUSH20 0xFFFFFFFFFFFFFFFFFFFFFFFFFFFFFFFFFFFFFFFF AND PUSH4 0xDD62ED3E PUSH20 0x39B48918530EE063BF83728E9ACBA694D27776F5 DUP10 PUSH1 0x40 MLOAD DUP4 PUSH4 0xFFFFFFFF AND PUSH1 0xE0 SHL DUP2 MSTORE PUSH1 0x4 ADD PUSH2 0xE38 SWAP3 SWAP2 SWAP1 PUSH2 0x140C JUMP JUMPDEST PUSH1 0x20 PUSH1 0x40 MLOAD DUP1 DUP4 SUB DUP2 DUP7 DUP1 EXTCODESIZE ISZERO DUP1 ISZERO PUSH2 0xE50 JUMPI PUSH1 0x0 DUP1 REVERT JUMPDEST POP GAS STATICCALL ISZERO DUP1 ISZERO PUSH2 0xE64 JUMPI RETURNDATASIZE PUSH1 0x0 DUP1 RETURNDATACOPY RETURNDATASIZE PUSH1 0x0 REVERT JUMPDEST POP POP POP POP PUSH1 0x40 MLOAD RETURNDATASIZE PUSH1 0x1F NOT PUSH1 0x1F DUP3 ADD AND DUP3 ADD DUP1 PUSH1 0x40 MSTORE POP DUP2 ADD SWAP1 PUSH2 0xE88 SWAP2 SWAP1 PUSH2 0x10DA JUMP JUMPDEST SWAP1 POP DUP5 DUP4 DUP3 PUSH1 0x40 MLOAD DUP1 PUSH1 0x40 ADD PUSH1 0x40 MSTORE DUP1 PUSH1 0x19 DUP2 MSTORE PUSH1 0x20 ADD PUSH32 0x616C6C6F77616E636520574554482C204C656F2C204465466900000000000000 DUP2 MSTORE POP SWAP3 SWAP2 SWAP1 SWAP11 POP SWAP11 POP SWAP11 POP SWAP11 POP POP POP POP POP POP POP POP SWAP1 SWAP2 SWAP3 SWAP4 JUMP JUMPDEST PUSH20 0xC5A8EA7102DB001850F433CCFD4ABDD7D566BDA6 DUP2 JUMP JUMPDEST PUSH20 0x36C859726F1D72EBC32CA61B7DC6A3092B416B66 DUP2 JUMP JUMPDEST PUSH20 0xDED39E717E29F2F7D1C9AC73B9BB067FC202B2B4 DUP2 JUMP JUMPDEST PUSH20 0x3141E4602FD9B3B08029816D0C09AB177FDC9DFA DUP2 JUMP JUMPDEST PUSH1 0x0 DUP2 CALLDATALOAD SWAP1 POP PUSH2 0xF4A DUP2 PUSH2 0x1718 JUMP JUMPDEST SWAP3 SWAP2 POP POP JUMP JUMPDEST PUSH1 0x0 DUP2 MLOAD SWAP1 POP PUSH2 0xF5F DUP2 PUSH2 0x1718 JUMP JUMPDEST SWAP3 SWAP2 POP POP JUMP JUMPDEST PUSH1 0x0 DUP3 PUSH1 0x1F DUP4 ADD SLT PUSH2 0xF76 JUMPI PUSH1 0x0 DUP1 REVERT JUMPDEST DUP2 MLOAD PUSH2 0xF89 PUSH2 0xF84 DUP3 PUSH2 0x1562 JUMP JUMPDEST PUSH2 0x1535 JUMP JUMPDEST SWAP2 POP DUP1 DUP3 MSTORE PUSH1 0x20 DUP4 ADD PUSH1 0x20 DUP4 ADD DUP6 DUP4 DUP4 ADD GT ISZERO PUSH2 0xFA5 JUMPI PUSH1 0x0 DUP1 REVERT JUMPDEST PUSH2 0xFB0 DUP4 DUP3 DUP5 PUSH2 0x16D4 JUMP JUMPDEST POP POP POP SWAP3 SWAP2 POP POP JUMP JUMPDEST PUSH1 0x0 DUP2 MLOAD SWAP1 POP PUSH2 0xFC8 DUP2 PUSH2 0x172F JUMP JUMPDEST SWAP3 SWAP2 POP POP JUMP JUMPDEST PUSH1 0x0 DUP2 MLOAD SWAP1 POP PUSH2 0xFDD DUP2 PUSH2 0x1746 JUMP JUMPDEST SWAP3 SWAP2 POP POP JUMP JUMPDEST PUSH1 0x0 DUP2 MLOAD SWAP1 POP PUSH2 0xFF2 DUP2 PUSH2 0x175D JUMP JUMPDEST SWAP3 SWAP2 POP POP JUMP JUMPDEST PUSH1 0x0 PUSH1 0x20 DUP3 DUP5 SUB SLT ISZERO PUSH2 0x100A JUMPI PUSH1 0x0 DUP1 REVERT JUMPDEST PUSH1 0x0 PUSH2 0x1018 DUP5 DUP3 DUP6 ADD PUSH2 0xF3B JUMP JUMPDEST SWAP2 POP POP SWAP3 SWAP2 POP POP JUMP JUMPDEST PUSH1 0x0 PUSH1 0x20 DUP3 DUP5 SUB SLT ISZERO PUSH2 0x1033 JUMPI PUSH1 0x0 DUP1 REVERT JUMPDEST PUSH1 0x0 PUSH2 0x1041 DUP5 DUP3 DUP6 ADD PUSH2 0xF50 JUMP JUMPDEST SWAP2 POP POP SWAP3 SWAP2 POP POP JUMP JUMPDEST PUSH1 0x0 PUSH1 0x20 DUP3 DUP5 SUB SLT ISZERO PUSH2 0x105C JUMPI PUSH1 0x0 DUP1 REVERT JUMPDEST PUSH1 0x0 DUP3 ADD MLOAD PUSH8 0xFFFFFFFFFFFFFFFF DUP2 GT ISZERO PUSH2 0x1076 JUMPI PUSH1 0x0 DUP1 REVERT JUMPDEST PUSH2 0x1082 DUP5 DUP3 DUP6 ADD PUSH2 0xF65 JUMP JUMPDEST SWAP2 POP POP SWAP3 SWAP2 POP POP JUMP JUMPDEST PUSH1 0x0 DUP1 PUSH1 0x0 PUSH1 0x60 DUP5 DUP7 SUB SLT ISZERO PUSH2 0x10A0 JUMPI PUSH1 0x0 DUP1 REVERT JUMPDEST PUSH1 0x0 PUSH2 0x10AE DUP7 DUP3 DUP8 ADD PUSH2 0xFB9 JUMP JUMPDEST SWAP4 POP POP PUSH1 0x20 PUSH2 0x10BF DUP7 DUP3 DUP8 ADD PUSH2 0xFB9 JUMP JUMPDEST SWAP3 POP POP PUSH1 0x40 PUSH2 0x10D0 DUP7 DUP3 DUP8 ADD PUSH2 0xFE3 JUMP JUMPDEST SWAP2 POP POP SWAP3 POP SWAP3 POP SWAP3 JUMP JUMPDEST PUSH1 0x0 PUSH1 0x20 DUP3 DUP5 SUB SLT ISZERO PUSH2 0x10EC JUMPI PUSH1 0x0 DUP1 REVERT JUMPDEST PUSH1 0x0 PUSH2 0x10FA DUP5 DUP3 DUP6 ADD PUSH2 0xFCE JUMP JUMPDEST SWAP2 POP POP SWAP3 SWAP2 POP POP JUMP JUMPDEST PUSH1 0x0 PUSH2 0x110F DUP4 DUP4 PUSH2 0x1220 JUMP JUMPDEST SWAP1 POP SWAP3 SWAP2 POP POP JUMP JUMPDEST PUSH1 0x0 PUSH2 0x1123 DUP4 DUP4 PUSH2 0x1392 JUMP JUMPDEST PUSH1 0x20 DUP4 ADD SWAP1 POP SWAP3 SWAP2 POP POP JUMP JUMPDEST PUSH2 0x1138 DUP2 PUSH2 0x169E JUMP JUMPDEST DUP3 MSTORE POP POP JUMP JUMPDEST PUSH2 0x1147 DUP2 PUSH2 0x1638 JUMP JUMPDEST DUP3 MSTORE POP POP JUMP JUMPDEST PUSH1 0x0 PUSH2 0x1158 DUP3 PUSH2 0x15AE JUMP JUMPDEST PUSH2 0x1162 DUP2 DUP6 PUSH2 0x15E9 JUMP JUMPDEST SWAP4 POP DUP4 PUSH1 0x20 DUP3 MUL DUP6 ADD PUSH2 0x1174 DUP6 PUSH2 0x158E JUMP JUMPDEST DUP1 PUSH1 0x0 JUMPDEST DUP6 DUP2 LT ISZERO PUSH2 0x11B0 JUMPI DUP5 DUP5 SUB DUP10 MSTORE DUP2 MLOAD PUSH2 0x1191 DUP6 DUP3 PUSH2 0x1103 JUMP JUMPDEST SWAP5 POP PUSH2 0x119C DUP4 PUSH2 0x15CF JUMP JUMPDEST SWAP3 POP PUSH1 0x20 DUP11 ADD SWAP10 POP POP PUSH1 0x1 DUP2 ADD SWAP1 POP PUSH2 0x1178 JUMP JUMPDEST POP DUP3 SWAP8 POP DUP8 SWAP6 POP POP POP POP POP POP SWAP3 SWAP2 POP POP JUMP JUMPDEST PUSH1 0x0 PUSH2 0x11CD DUP3 PUSH2 0x15B9 JUMP JUMPDEST PUSH2 0x11D7 DUP2 DUP6 PUSH2 0x15FA JUMP JUMPDEST SWAP4 POP PUSH2 0x11E2 DUP4 PUSH2 0x159E JUMP JUMPDEST DUP1 PUSH1 0x0 JUMPDEST DUP4 DUP2 LT ISZERO PUSH2 0x1213 JUMPI DUP2 MLOAD PUSH2 0x11FA DUP9 DUP3 PUSH2 0x1117 JUMP JUMPDEST SWAP8 POP PUSH2 0x1205 DUP4 PUSH2 0x15DC JUMP JUMPDEST SWAP3 POP POP PUSH1 0x1 DUP2 ADD SWAP1 POP PUSH2 0x11E6 JUMP JUMPDEST POP DUP6 SWAP4 POP POP POP POP SWAP3 SWAP2 POP POP JUMP JUMPDEST PUSH1 0x0 PUSH2 0x122B DUP3 PUSH2 0x15C4 JUMP JUMPDEST PUSH2 0x1235 DUP2 DUP6 PUSH2 0x160B JUMP JUMPDEST SWAP4 POP PUSH2 0x1245 DUP2 DUP6 PUSH1 0x20 DUP7 ADD PUSH2 0x16D4 JUMP JUMPDEST PUSH2 0x124E DUP2 PUSH2 0x1707 JUMP JUMPDEST DUP5 ADD SWAP2 POP POP SWAP3 SWAP2 POP POP JUMP JUMPDEST PUSH1 0x0 PUSH2 0x1264 DUP3 PUSH2 0x15C4 JUMP JUMPDEST PUSH2 0x126E DUP2 DUP6 PUSH2 0x161C JUMP JUMPDEST SWAP4 POP PUSH2 0x127E DUP2 DUP6 PUSH1 0x20 DUP7 ADD PUSH2 0x16D4 JUMP JUMPDEST PUSH2 0x1287 DUP2 PUSH2 0x1707 JUMP JUMPDEST DUP5 ADD SWAP2 POP POP SWAP3 SWAP2 POP POP JUMP JUMPDEST PUSH1 0x0 PUSH2 0x129F PUSH1 0x1 DUP4 PUSH2 0x162D JUMP JUMPDEST SWAP2 POP PUSH32 0x6100000000000000000000000000000000000000000000000000000000000000 PUSH1 0x0 DUP4 ADD MSTORE PUSH1 0x1 DUP3 ADD SWAP1 POP SWAP2 SWAP1 POP JUMP JUMPDEST PUSH1 0x0 PUSH2 0x12DF PUSH1 0x1 DUP4 PUSH2 0x162D JUMP JUMPDEST SWAP2 POP PUSH32 0x2000000000000000000000000000000000000000000000000000000000000000 PUSH1 0x0 DUP4 ADD MSTORE PUSH1 0x1 DUP3 ADD SWAP1 POP SWAP2 SWAP1 POP JUMP JUMPDEST PUSH1 0x0 PUSH2 0x131F PUSH1 0x6 DUP4 PUSH2 0x162D JUMP JUMPDEST SWAP2 POP PUSH32 0x737472696E670000000000000000000000000000000000000000000000000000 PUSH1 0x0 DUP4 ADD MSTORE PUSH1 0x6 DUP3 ADD SWAP1 POP SWAP2 SWAP1 POP JUMP JUMPDEST PUSH1 0x0 PUSH2 0x135F PUSH1 0xC DUP4 PUSH2 0x162D JUMP JUMPDEST SWAP2 POP PUSH32 0x636F6E636174656E617465640000000000000000000000000000000000000000 PUSH1 0x0 DUP4 ADD MSTORE PUSH1 0xC DUP3 ADD SWAP1 POP SWAP2 SWAP1 POP JUMP JUMPDEST PUSH2 0x139B DUP2 PUSH2 0x1684 JUMP JUMPDEST DUP3 MSTORE POP POP JUMP JUMPDEST PUSH2 0x13AA DUP2 PUSH2 0x1684 JUMP JUMPDEST DUP3 MSTORE POP POP JUMP JUMPDEST PUSH1 0x0 PUSH2 0x13BB DUP3 PUSH2 0x1292 JUMP JUMPDEST SWAP2 POP PUSH2 0x13C6 DUP3 PUSH2 0x12D2 JUMP JUMPDEST SWAP2 POP PUSH2 0x13D1 DUP3 PUSH2 0x1352 JUMP JUMPDEST SWAP2 POP PUSH2 0x13DC DUP3 PUSH2 0x12D2 JUMP JUMPDEST SWAP2 POP PUSH2 0x13E7 DUP3 PUSH2 0x1312 JUMP JUMPDEST SWAP2 POP DUP2 SWAP1 POP SWAP2 SWAP1 POP JUMP JUMPDEST PUSH1 0x0 PUSH1 0x20 DUP3 ADD SWAP1 POP PUSH2 0x1406 PUSH1 0x0 DUP4 ADD DUP5 PUSH2 0x113E JUMP JUMPDEST SWAP3 SWAP2 POP POP JUMP JUMPDEST PUSH1 0x0 PUSH1 0x40 DUP3 ADD SWAP1 POP PUSH2 0x1421 PUSH1 0x0 DUP4 ADD DUP6 PUSH2 0x113E JUMP JUMPDEST PUSH2 0x142E PUSH1 0x20 DUP4 ADD DUP5 PUSH2 0x112F JUMP JUMPDEST SWAP4 SWAP3 POP POP POP JUMP JUMPDEST PUSH1 0x0 PUSH1 0x60 DUP3 ADD SWAP1 POP DUP2 DUP2 SUB PUSH1 0x0 DUP4 ADD MSTORE PUSH2 0x144F DUP2 DUP7 PUSH2 0x1259 JUMP JUMPDEST SWAP1 POP DUP2 DUP2 SUB PUSH1 0x20 DUP4 ADD MSTORE PUSH2 0x1463 DUP2 DUP6 PUSH2 0x114D JUMP JUMPDEST SWAP1 POP DUP2 DUP2 SUB PUSH1 0x40 DUP4 ADD MSTORE PUSH2 0x1477 DUP2 DUP5 PUSH2 0x11C2 JUMP JUMPDEST SWAP1 POP SWAP5 SWAP4 POP POP POP POP JUMP JUMPDEST PUSH1 0x0 PUSH1 0xA0 DUP3 ADD SWAP1 POP DUP2 DUP2 SUB PUSH1 0x0 DUP4 ADD MSTORE PUSH2 0x149B DUP2 DUP9 PUSH2 0x1259 JUMP JUMPDEST SWAP1 POP DUP2 DUP2 SUB PUSH1 0x20 DUP4 ADD MSTORE PUSH2 0x14AF DUP2 DUP8 PUSH2 0x1259 JUMP JUMPDEST SWAP1 POP PUSH2 0x14BE PUSH1 0x40 DUP4 ADD DUP7 PUSH2 0x13A1 JUMP JUMPDEST DUP2 DUP2 SUB PUSH1 0x60 DUP4 ADD MSTORE PUSH2 0x14D0 DUP2 DUP6 PUSH2 0x1259 JUMP JUMPDEST SWAP1 POP PUSH2 0x14DF PUSH1 0x80 DUP4 ADD DUP5 PUSH2 0x13A1 JUMP JUMPDEST SWAP7 SWAP6 POP POP POP POP POP POP JUMP JUMPDEST PUSH1 0x0 PUSH1 0x80 DUP3 ADD SWAP1 POP DUP2 DUP2 SUB PUSH1 0x0 DUP4 ADD MSTORE PUSH2 0x1503 DUP2 DUP8 PUSH2 0x1259 JUMP JUMPDEST SWAP1 POP PUSH2 0x1512 PUSH1 0x20 DUP4 ADD DUP7 PUSH2 0x13A1 JUMP JUMPDEST PUSH2 0x151F PUSH1 0x40 DUP4 ADD DUP6 PUSH2 0x13A1 JUMP JUMPDEST PUSH2 0x152C PUSH1 0x60 DUP4 ADD DUP5 PUSH2 0x13A1 JUMP JUMPDEST SWAP6 SWAP5 POP POP POP POP POP JUMP JUMPDEST PUSH1 0x0 PUSH1 0x40 MLOAD SWAP1 POP DUP2 DUP2 ADD DUP2 DUP2 LT PUSH8 0xFFFFFFFFFFFFFFFF DUP3 GT OR ISZERO PUSH2 0x1558 JUMPI PUSH1 0x0 DUP1 REVERT JUMPDEST DUP1 PUSH1 0x40 MSTORE POP SWAP2 SWAP1 POP JUMP JUMPDEST PUSH1 0x0 PUSH8 0xFFFFFFFFFFFFFFFF DUP3 GT ISZERO PUSH2 0x1579 JUMPI PUSH1 0x0 DUP1 REVERT JUMPDEST PUSH1 0x1F NOT PUSH1 0x1F DUP4 ADD AND SWAP1 POP PUSH1 0x20 DUP2 ADD SWAP1 POP SWAP2 SWAP1 POP JUMP JUMPDEST PUSH1 0x0 DUP2 SWAP1 POP PUSH1 0x20 DUP3 ADD SWAP1 POP SWAP2 SWAP1 POP JUMP JUMPDEST PUSH1 0x0 DUP2 SWAP1 POP PUSH1 0x20 DUP3 ADD SWAP1 POP SWAP2 SWAP1 POP JUMP JUMPDEST PUSH1 0x0 DUP2 MLOAD SWAP1 POP SWAP2 SWAP1 POP JUMP JUMPDEST PUSH1 0x0 DUP2 MLOAD SWAP1 POP SWAP2 SWAP1 POP JUMP JUMPDEST PUSH1 0x0 DUP2 MLOAD SWAP1 POP SWAP2 SWAP1 POP JUMP JUMPDEST PUSH1 0x0 PUSH1 0x20 DUP3 ADD SWAP1 POP SWAP2 SWAP1 POP JUMP JUMPDEST PUSH1 0x0 PUSH1 0x20 DUP3 ADD SWAP1 POP SWAP2 SWAP1 POP JUMP JUMPDEST PUSH1 0x0 DUP3 DUP3 MSTORE PUSH1 0x20 DUP3 ADD SWAP1 POP SWAP3 SWAP2 POP POP JUMP JUMPDEST PUSH1 0x0 DUP3 DUP3 MSTORE PUSH1 0x20 DUP3 ADD SWAP1 POP SWAP3 SWAP2 POP POP JUMP JUMPDEST PUSH1 0x0 DUP3 DUP3 MSTORE PUSH1 0x20 DUP3 ADD SWAP1 POP SWAP3 SWAP2 POP POP JUMP JUMPDEST PUSH1 0x0 DUP3 DUP3 MSTORE PUSH1 0x20 DUP3 ADD SWAP1 POP SWAP3 SWAP2 POP POP JUMP JUMPDEST PUSH1 0x0 DUP2 SWAP1 POP SWAP3 SWAP2 POP POP JUMP JUMPDEST PUSH1 0x0 PUSH2 0x1643 DUP3 PUSH2 0x1664 JUMP JUMPDEST SWAP1 POP SWAP2 SWAP1 POP JUMP JUMPDEST PUSH1 0x0 PUSH14 0xFFFFFFFFFFFFFFFFFFFFFFFFFFFF DUP3 AND SWAP1 POP SWAP2 SWAP1 POP JUMP JUMPDEST PUSH1 0x0 PUSH20 0xFFFFFFFFFFFFFFFFFFFFFFFFFFFFFFFFFFFFFFFF DUP3 AND SWAP1 POP SWAP2 SWAP1 POP JUMP JUMPDEST PUSH1 0x0 DUP2 SWAP1 POP SWAP2 SWAP1 POP JUMP JUMPDEST PUSH1 0x0 PUSH4 0xFFFFFFFF DUP3 AND SWAP1 POP SWAP2 SWAP1 POP JUMP JUMPDEST PUSH1 0x0 PUSH2 0x16A9 DUP3 PUSH2 0x16B0 JUMP JUMPDEST SWAP1 POP SWAP2 SWAP1 POP JUMP JUMPDEST PUSH1 0x0 PUSH2 0x16BB DUP3 PUSH2 0x16C2 JUMP JUMPDEST SWAP1 POP SWAP2 SWAP1 POP JUMP JUMPDEST PUSH1 0x0 PUSH2 0x16CD DUP3 PUSH2 0x1664 JUMP JUMPDEST SWAP1 POP SWAP2 SWAP1 POP JUMP JUMPDEST PUSH1 0x0 JUMPDEST DUP4 DUP2 LT ISZERO PUSH2 0x16F2 JUMPI DUP1 DUP3 ADD MLOAD DUP2 DUP5 ADD MSTORE PUSH1 0x20 DUP2 ADD SWAP1 POP PUSH2 0x16D7 JUMP JUMPDEST DUP4 DUP2 GT ISZERO PUSH2 0x1701 JUMPI PUSH1 0x0 DUP5 DUP5 ADD MSTORE JUMPDEST POP POP POP POP JUMP JUMPDEST PUSH1 0x0 PUSH1 0x1F NOT PUSH1 0x1F DUP4 ADD AND SWAP1 POP SWAP2 SWAP1 POP JUMP JUMPDEST PUSH2 0x1721 DUP2 PUSH2 0x1638 JUMP JUMPDEST DUP2 EQ PUSH2 0x172C JUMPI PUSH1 0x0 DUP1 REVERT JUMPDEST POP JUMP JUMPDEST PUSH2 0x1738 DUP2 PUSH2 0x164A JUMP JUMPDEST DUP2 EQ PUSH2 0x1743 JUMPI PUSH1 0x0 DUP1 REVERT JUMPDEST POP JUMP JUMPDEST PUSH2 0x174F DUP2 PUSH2 0x1684 JUMP JUMPDEST DUP2 EQ PUSH2 0x175A JUMPI PUSH1 0x0 DUP1 REVERT JUMPDEST POP JUMP JUMPDEST PUSH2 0x1766 DUP2 PUSH2 0x168E JUMP JUMPDEST DUP2 EQ PUSH2 0x1771 JUMPI PUSH1 0x0 DUP1 REVERT JUMPDEST POP JUMP INVALID LOG2 PUSH5 0x6970667358 0x22 SLT KECCAK256 DUP5 PUSH1 0x2C PUSH25 0xFA1157DB880D5E49CA09E2099942B8866B8C337CD0036B8D4F 0x5D 0xB8 DIFFICULTY PUSH5 0x736F6C6343 STOP MOD 0xC STOP CALLER "
				},
				"gasEstimates": {
					"creation": {
						"codeDepositCost": "1211600",
						"executionCost": "1261",
						"totalCost": "1212861"
					},
					"external": {
						"defiToken()": "466",
						"factory()": "444",
						"getBalances()": "infinite",
						"getPoolReserves(address)": "infinite",
						"getPools(address)": "infinite",
						"getRouterAllowances()": "infinite",
						"leoToken()": "423",
						"pairWETHLeo()": "422",
						"router()": "488",
						"wallet()": "467",
						"weth()": "401"
					}
				},
				"methodIdentifiers": {
					"defiToken()": "ea987a1e",
					"factory()": "c45a0155",
					"getBalances()": "00113e08",
					"getPoolReserves(address)": "4bee9395",
					"getPools(address)": "5c39f467",
					"getRouterAllowances()": "72639038",
					"leoToken()": "406d9408",
					"pairWETHLeo()": "ae8be2af",
					"router()": "f887ea40",
					"wallet()": "521eb273",
					"weth()": "3fc8cef3"
				}
			},
			"storageLayout": {
				"storage": [],
				"types": null
			},
			"userdoc": {
				"kind": "user",
				"methods": {},
				"version": 1
			}
		}
	}
}