{
	"data": {
		"bytecode": {
			"linkReferences": {},
			"object": "608060405234801561001057600080fd5b50610241806100206000396000f3fe608060405234801561001057600080fd5b50600436106100625760003560e01c80633fc8cef314610067578063406d9408146100855780636ca769a1146100a3578063c45a0155146100c1578063ea987a1e146100df578063f887ea40146100fd575b600080fd5b61006f61011b565b60405161007c91906101f0565b60405180910390f35b61008d610133565b60405161009a91906101f0565b60405180910390f35b6100ab61014b565b6040516100b891906101f0565b60405180910390f35b6100c9610167565b6040516100d691906101f0565b60405180910390f35b6100e761017f565b6040516100f491906101f0565b60405180910390f35b610105610197565b60405161011291906101f0565b60405180910390f35b732362e2981e60aab56b6287ab814da1716d2f4f6d81565b737d30a8fb291f8507f9d0ee601336cec132d97dd081565b6000732362e2981e60aab56b6287ab814da1716d2f4f6d905090565b7336c859726f1d72ebc32ca61b7dc6a3092b416b6681565b73ded39e717e29f2f7d1c9ac73b9bb067fc202b2b481565b733141e4602fd9b3b08029816d0c09ab177fdc9dfa81565b600073ffffffffffffffffffffffffffffffffffffffff82169050919050565b60006101da826101af565b9050919050565b6101ea816101cf565b82525050565b600060208201905061020560008301846101e1565b9291505056fea2646970667358221220edd73c8dbaef65c383c5a7a91cace45e16113f03f7d363b252b85e9017acff6a64736f6c634300080a0033",
			"opcodes": "PUSH1 0x80 PUSH1 0x40 MSTORE CALLVALUE DUP1 ISZERO PUSH2 0x10 JUMPI PUSH1 0x0 DUP1 REVERT JUMPDEST POP PUSH2 0x241 DUP1 PUSH2 0x20 PUSH1 0x0 CODECOPY PUSH1 0x0 RETURN INVALID PUSH1 0x80 PUSH1 0x40 MSTORE CALLVALUE DUP1 ISZERO PUSH2 0x10 JUMPI PUSH1 0x0 DUP1 REVERT JUMPDEST POP PUSH1 0x4 CALLDATASIZE LT PUSH2 0x62 JUMPI PUSH1 0x0 CALLDATALOAD PUSH1 0xE0 SHR DUP1 PUSH4 0x3FC8CEF3 EQ PUSH2 0x67 JUMPI DUP1 PUSH4 0x406D9408 EQ PUSH2 0x85 JUMPI DUP1 PUSH4 0x6CA769A1 EQ PUSH2 0xA3 JUMPI DUP1 PUSH4 0xC45A0155 EQ PUSH2 0xC1 JUMPI DUP1 PUSH4 0xEA987A1E EQ PUSH2 0xDF JUMPI DUP1 PUSH4 0xF887EA40 EQ PUSH2 0xFD JUMPI JUMPDEST PUSH1 0x0 DUP1 REVERT JUMPDEST PUSH2 0x6F PUSH2 0x11B JUMP JUMPDEST PUSH1 0x40 MLOAD PUSH2 0x7C SWAP2 SWAP1 PUSH2 0x1F0 JUMP JUMPDEST PUSH1 0x40 MLOAD DUP1 SWAP2 SUB SWAP1 RETURN JUMPDEST PUSH2 0x8D PUSH2 0x133 JUMP JUMPDEST PUSH1 0x40 MLOAD PUSH2 0x9A SWAP2 SWAP1 PUSH2 0x1F0 JUMP JUMPDEST PUSH1 0x40 MLOAD DUP1 SWAP2 SUB SWAP1 RETURN JUMPDEST PUSH2 0xAB PUSH2 0x14B JUMP JUMPDEST PUSH1 0x40 MLOAD PUSH2 0xB8 SWAP2 SWAP1 PUSH2 0x1F0 JUMP JUMPDEST PUSH1 0x40 MLOAD DUP1 SWAP2 SUB SWAP1 RETURN JUMPDEST PUSH2 0xC9 PUSH2 0x167 JUMP JUMPDEST PUSH1 0x40 MLOAD PUSH2 0xD6 SWAP2 SWAP1 PUSH2 0x1F0 JUMP JUMPDEST PUSH1 0x40 MLOAD DUP1 SWAP2 SUB SWAP1 RETURN JUMPDEST PUSH2 0xE7 PUSH2 0x17F JUMP JUMPDEST PUSH1 0x40 MLOAD PUSH2 0xF4 SWAP2 SWAP1 PUSH2 0x1F0 JUMP JUMPDEST PUSH1 0x40 MLOAD DUP1 SWAP2 SUB SWAP1 RETURN JUMPDEST PUSH2 0x105 PUSH2 0x197 JUMP JUMPDEST PUSH1 0x40 MLOAD PUSH2 0x112 SWAP2 SWAP1 PUSH2 0x1F0 JUMP JUMPDEST PUSH1 0x40 MLOAD DUP1 SWAP2 SUB SWAP1 RETURN JUMPDEST PUSH20 0x2362E2981E60AAB56B6287AB814DA1716D2F4F6D DUP2 JUMP JUMPDEST PUSH20 0x7D30A8FB291F8507F9D0EE601336CEC132D97DD0 DUP2 JUMP JUMPDEST PUSH1 0x0 PUSH20 0x2362E2981E60AAB56B6287AB814DA1716D2F4F6D SWAP1 POP SWAP1 JUMP JUMPDEST PUSH20 0x36C859726F1D72EBC32CA61B7DC6A3092B416B66 DUP2 JUMP JUMPDEST PUSH20 0xDED39E717E29F2F7D1C9AC73B9BB067FC202B2B4 DUP2 JUMP JUMPDEST PUSH20 0x3141E4602FD9B3B08029816D0C09AB177FDC9DFA DUP2 JUMP JUMPDEST PUSH1 0x0 PUSH20 0xFFFFFFFFFFFFFFFFFFFFFFFFFFFFFFFFFFFFFFFF DUP3 AND SWAP1 POP SWAP2 SWAP1 POP JUMP JUMPDEST PUSH1 0x0 PUSH2 0x1DA DUP3 PUSH2 0x1AF JUMP JUMPDEST SWAP1 POP SWAP2 SWAP1 POP JUMP JUMPDEST PUSH2 0x1EA DUP2 PUSH2 0x1CF JUMP JUMPDEST DUP3 MSTORE POP POP JUMP JUMPDEST PUSH1 0x0 PUSH1 0x20 DUP3 ADD SWAP1 POP PUSH2 0x205 PUSH1 0x0 DUP4 ADD DUP5 PUSH2 0x1E1 JUMP JUMPDEST SWAP3 SWAP2 POP POP JUMP INVALID LOG2 PUSH5 0x6970667358 0x22 SLT KECCAK256 0xED 0xD7 EXTCODECOPY DUP14 0xBA 0xEF PUSH6 0xC383C5A7A91C 0xAC 0xE4 0x5E AND GT EXTCODEHASH SUB 0xF7 0xD3 PUSH4 0xB252B85E SWAP1 OR 0xAC SELFDESTRUCT PUSH11 0x64736F6C634300080A0033 "
		},
		"gasEstimates": {
			"creation": {
				"codeDepositCost": "115400",
				"executionCost": "165",
				"totalCost": "115565"
			},
			"external": {
				"GetWeth()": "408",
				"defiToken()": "444",
				"factory()": "422",
				"leoToken()": "378",
				"router()": "466",
				"weth()": "356"
			}
		},
		"methodIdentifiers": {
			"GetWeth()": "6ca769a1",
			"defiToken()": "ea987a1e",
			"factory()": "c45a0155",
			"leoToken()": "406d9408",
			"router()": "f887ea40",
			"weth()": "3fc8cef3"
		}
	},
	"abi": [
		{
			"inputs": [],
			"stateMutability": "nonpayable",
			"type": "constructor"
		},
		{
			"inputs": [],
			"name": "GetWeth",
			"outputs": [
				{
					"internalType": "address",
					"name": "",
					"type": "address"
				}
			],
			"stateMutability": "pure",
			"type": "function"
		},
		{
			"inputs": [],
			"name": "defiToken",
			"outputs": [
				{
					"internalType": "address",
					"name": "",
					"type": "address"
				}
			],
			"stateMutability": "view",
			"type": "function"
		},
		{
			"inputs": [],
			"name": "factory",
			"outputs": [
				{
					"internalType": "address",
					"name": "",
					"type": "address"
				}
			],
			"stateMutability": "view",
			"type": "function"
		},
		{
			"inputs": [],
			"name": "leoToken",
			"outputs": [
				{
					"internalType": "address",
					"name": "",
					"type": "address"
				}
			],
			"stateMutability": "view",
			"type": "function"
		},
		{
			"inputs": [],
			"name": "router",
			"outputs": [
				{
					"internalType": "address",
					"name": "",
					"type": "address"
				}
			],
			"stateMutability": "view",
			"type": "function"
		},
		{
			"inputs": [],
			"name": "weth",
			"outputs": [
				{
					"internalType": "address",
					"name": "",
					"type": "address"
				}
			],
			"stateMutability": "view",
			"type": "function"
		}
	]
}